:100000000C94CD440C94FE440C94FE440C94FE4499
:100010000C94FE440C94FE440C94FE440C94FE4458
:100020000C94FE440C94FE440C94FE440C94FE4448
:100030000C94FE440D94922C0C94FE440C94FE44BB
:100040000C94FE440D94F8400C94FE440C94FE4431
:100050000C94FE440C94FE440D94A7120D94482C6D
:100060000C94FE440C94E7970C94B7970C94FE44C0
:100070000C94FE440C94FE440C94FE440C94FE44F8
:100080000C94FE440C94FE440C94FE440C94FE44E8
:100090000C94FE440C94FE440C94FE440C94FE44D8
:1000A0000C94FE440C94FE440C94FE440C94FE44C8
:1000B0000C94FE440C94FE440C94FE440C94FE44B8
:1000C0000C94FE440C94FE440C94FE440D945A2D62
:1000D0000D94312D0C94FE440C94FE440C94FE447B
:1000E0000C94FE446A7B787AAE7AA67BAE7AAE7ABE
:1000F000AE7AAE7AAE7AAE7AAE7AAE7AAE7AAE7AC0
:10010000AE7AAE7AAE7AAE7AAE7AAE7AAE7AAE7AAF
:10011000AE7AAE7AAE7AAE7AAE7AAE7AAE7AAE7A9F
:10012000A07BAE7AAE7AAE7AAE7AAE7AAE7AAE7A9C
:10013000AE7A7A7BAE7AAE7AAE7AAE7AAE7AAE7AB2
:10014000AE7AAE7AAE7AAE7AC37BAB7A83C35FC344
:100150003BC317C3F3C2CFC2ABC287C263C23FC2A5
:100160001BC2F7C1D3C1AFC18BC167C143C11FC19E
:10017000FBC0D7C0B3C08FC06BC099BE99BE99BE3B
:1001800099BE99BE99BE99BE99BE99BE99BE99BEB7
:1001900099BE99BE99BE99BE99BE99BE99BE99BEA7
:1001A00099BE99BE99BE99BE99BE99BE99BE99BE97
:1001B00099BE99BE99BE99BE99BE99BE99BE99BE87
:1001C00099BE99BE99BE99BE99BE99BE99BE99BE77
:1001D00099BE99BE99BE99BE99BE99BE99BE99BE67
:1001E00099BE99BE99BE99BE99BE99BE99BE99BE57
:1001F00099BE99BE99BE99BE99BE99BE99BE99BE47
:1002000099BE99BE99BE99BE99BE99BE99BE99BE36
:1002100099BE99BE47C023C0FFBFDBBFB7BF93BF26
:100220006FBF4BBF27BF03BFDFBE77BE4BC75CC7E7
:100230006DC77EC78FC7F3C604C715C726C7CBC611
:10024000DFC6B7C637C72FC8A3C7B2C7BFC7CCC79B
:10025000D9C7E6C7F3C700C83CC849C85AC80DC8C3
:100260004FE95CE966E970E97BE986E936E919E975
:100270002A021002C4013C0286025802EE02E00289
:10028000E6012C02840218022002D4022202A002FB
:10029000F4027402420204025002AC028A02BC025E
:1002A0009602CE0256025402DE014A021602B8013C
:1002B000CA029602C801E4021003E0010E027C02A9
:1002C000D60192029E028C026402AA02CC01D201E3
:1002D000CC02E20102029E02F201C002E401BE0170
:1002E0003A029A02DA01A602D8024E027002D00245
:1002F000C601EC02CE01F0013402BC012402DA0294
:100300000A0362025C027A020E032E021402EA025F
:100310004002E202DC011A02EA01D001A8027E02D8
:100320008E02BE02084AD73B3BCE016E84BCBFFDA5
:10033000C12F3D6C74319ABD56833DDA3D00C77FB5
:1003400011BED9E4BB4C3E916BAAAABE000000804E
:100350003F05A84CCDB2D44EB93836A9020C50B9DD
:10036000918688083CA6AAAA2ABE000000803F0009
:100370000D94E82A0D94CA710D944A500D94524E72
:100380000D94F74B0D946E2A0D9432130D941C515D
:100390000D94F22A0D949E350D94A62B0D94C85001
:1003A0000D9471540D94B02B0D9497310D94782BBE
:1003B0000D9400350D94D04E0D9469530D94DA2AA6
:1003C0000D94642B0D94C92B0D94F12B0D946D138A
:1003D0000D943D340D9445540D94121F0D94DA6A1A
:1003E0000D949E500D94DD2B0D94172F0D94DD0769
:1003F0000D941F110D9482060D9453330D941573B3
:100400000D94552F0D94D32B0D94C52A0D9475354D
:100410000D9461290D947C920D94FC690D94692BC7
:100420000D9413130D94EA6E0D94C1530D94E42AA8
:100430000D947A130D9495530D9485340D944C3589
:100440000D947D130D9485130D9420500D944A3412
:100450000D942C0C0D9403130D9472130D94C34D35
:100460000D9423350D9466320D9474500D945F06EF
:100470000D943C060D94284E0D9442130D946B6A16
:100480000D9411530D949C130D94946A0D94EC05E6
:100490000D94156E0D94DE2A0D94CB200D949A5177
:1004A0000D94C82A0D94C62D0D94D62A0D94D02AE9
:1004B0000D9462130D94D16C0D94784F0D946725B3
:1004C0000D942E700D94A24F0D94942B0D949E7547
:1004D0000D94A62A0D94AE340D9410100D94230F94
:1004E0000D9470510D94C36C0D9492130D94152AB4
:1004F0000D94D7340D944E4F0D946E2B0D94E55200
:100500000D94366D0D94ED0A0D9475130D945D13D5
:100510000D94B0210D94BB2A0D948C2B0D9419547D
:100520000D94066B0D94822B0D947A740D94FF2A12
:100530000D94094D0D94FA4E0D9425340D94FB2B1A
:100540000D948A130D9400300D9430340D94A64E02
:100550000D949D540D949C2B0D94B72A0D94801FDF
:100560000D94E7080D9492290D949D000D94196A3D
:100570000D9409770D947E0D0D94C12A0D9481522E
:100580000D94E72B0D94EA090D9437290D94213130
:100590000D94B81D0D94EC2A0D94BA2B0D94CC2A11
:1005A0000D9446510D94C4510D9482130D940F0671
:1005B0000D947C4E0D94F64F0D943A1F0D94A0218E
:1005C0000D946A130D943D530D94F62A0D94716D9C
:1005D0000D9484290D94ED530D94F2500D946513F0
:1005E0000D9490210D940A210D948D130D94C36DDB
:1005F0000D94BD6A0D94A82A0D94AB300D945B0D3B
:100600000D94426A0D94F82E0D94C9290D94362F3D
:100610000D94C9050D94CC4F0D94A26E0D94244FEA
:100620000D94FA2A0D94EC6D0D945F1F0D949A6D44
:100630000D9470294E414E494E495459494E46CD6C
:10064000CCCC3D0AD7233C17B7D13877CC2B329589
:1006500095E6241FB14F0A000020410000C8420067
:10066000401C4620BCBE4CCA1B0E5AAEC59D740031
:10067000407A10F35A00A0724E18090010A5D4E871
:100680000000E87648170000E40B54020000CA9A04
:100690003B000000E1F50500008096980000004056
:1006A000420F000000A0860100000010270000009B
:1006B00000E803000000006400000000000A0000E1
:1006C0000000000100000000002C76D888DC674F95
:1006D0000823DFC1DFAE59E1B1B796E5E3E453C6C5
:1006E0003AE651997696E8E6C28426EB898C9B62BD
:1006F000ED407C6FFCEFBC9C9F40F2BAA56FA5F467
:1007000090055A2AF75C936B6CF9676DC11BFCE08E
:10071000E40D47FEF520E6B500D0ED902E030094E1
:100720003577050080841E080000204E0A00000076
:10073000C80C333333330F986E12831141EF8D2180
:1007400014893BE65516CFFEE6DB18D1844B381BE7
:10075000F77C1D901DA4BBE424203284725E2281AC
:1007600000C9F124ECA1E53D27414C4C00434F4D1D
:100770004D554E49434154494F4E004452595255EC
:100780004E004552524F525300494E464F0045438A
:10079000484F005265706F736F2E2E2E005A206ED8
:1007A0006F7420656E74657265642E005A206E6FDA
:1007B0007420656E74657265642E0059206E6F74C6
:1007C00020656E74657265642E0059206F75742003
:1007D0006F662072616E67652028312D33292E00E7
:1007E00058206E6F7420656E74657265642E0058B3
:1007F000206F7574206F662072616E6765202831E6
:100800002D33292E00473238004D657368207072F1
:100810006F62696E6720646F6E652E00537461723B
:1008200074206D6573682070726F62696E672077DF
:100830006974682022473239205331222066697258
:1008400073742E004732380A473239205332004D34
:1008500065736820626564206C6576656C696E6797
:10086000206E6F74206163746976652E002020000D
:100870004D6561737572656420706F696E74733A4B
:10088000005A206F66667365743A20005A207365BB
:1008900061726368206865696768743A20002C009B
:1008A0004E756D20582C593A200053746174653A86
:1008B000200053206F7574206F662072616E67652B
:1008C0002028302D35292E003C3C3C2067636F6486
:1008D000655F47333000205A3A200020593A200003
:1008E00020583A2000426564003E3E3E2067636F18
:1008F00064655F47333000205A3A200020593A207F
:100900000020583A20004265640020453A00205AF1
:100910003A0020593A003C2D583A002053005361C8
:1009200076656420706F736974696F6E00496E76C6
:10093000616C696420736C6F742C20746F74616CCB
:1009400020736C6F74733A20003A0020002D3E0033
:10095000205300526573746F72696E6720706F73F5
:100960006974696F6E00496E76616C696420736C9E
:100970006F742C20746F74616C20736C6F74733A95
:1009800020005374617274205072696E74696E67CE
:100990000053746F70205072696E74696E670053F3
:1009A000696E206D6F76696D69656E746F00456E56
:1009B000642066696C65206C6973740042656769C0
:1009C0006E2066696C65206C697374002F00534457
:1009D000207072696E74696E672062797465200098
:1009E0004E6F74205344207072696E74696E670094
:1009F0005072696E742074696D65200025696820E5
:100A000025696D20256973002569642025696820A2
:100A100025696D20256973004469726563746F727E
:100A200079206372656174656400437265617469FD
:100A30006F6E206661696C656400436C6F7365203E
:100A400066696C6520616E642073617665207265ED
:100A500073746172742E67636F64650020616E64E5
:100A6000207374617274207072696E742E004F70FE
:100A7000656E2066696C653A200046696C616D653B
:100A80006E74207072696E7465643A2000202025AF
:100A9000754B6D2025756D202575636D2025756D51
:100AA0006D00506F776572206F6E2074696D653AC6
:100AB0002000202025752064617973202575206829
:100AC0006F757273202575206D696E75746573007E
:100AD000546F74616C207072696E742074696D65F6
:100AE0003A20002020257520646179732025752027
:100AF000686F757273202575206D696E75746573E6
:100B0000002C204661696C65643A20002C204669FF
:100B10006E69736865643A20005072696E74207360
:100B20007461746973746963733A20546F74616C8F
:100B30003A20004B75747465726372616674204F5D
:100B400046462E0043616C656E74616E646F2E2E96
:100B50002E004B75747465726372616674206C69E3
:100B60007374612E006F6666008E07890782077BAB
:100B7000076D07690744656275673A005041524145
:100B8000444120444520454D4552472E004D3131CA
:100B9000332053004649524D574152455F4E414D17
:100BA000453A4B555454455243524146545F5620A2
:100BB000342E302E30204649524D574152455F5514
:100BC000524C3A687474703A2F2F7777772E6B7582
:100BD0007474657263726166742E636F6D2F736FC8
:100BE0006674776172652050524F544F434F4C5F8B
:100BF00056455253494F4E3A322E30204D414348CC
:100C0000494E455F545950453A4361727465736962
:100C1000616E2045585452554445525F434F554EDE
:100C2000543A3220555549443A333234626661347D
:100C3000322D613432372D313165362D38306635FD
:100C40002D3736333034646563376562370A0063A5
:100C500073746570733A2000205A002059005800C0
:100C600020204D61783A2000205A00205900580079
:100C700020204D696E3A2000536F667420656E64C3
:100C800073746F70733A00496E76616C69642065A5
:100C9000787472756465720020443A0020493A0005
:100CA00020503A00480043290061626C65642028A6
:100CB0006D696E2074656D702000436F6C642065F3
:100CC000787472756465732061726520004F666682
:100CD000736574206170706C6965642E004F666680
:100CE000736574206170706C6965642E0045727262
:100CF0003A20546F6F206661722100546F6F206636
:100D000061722066726F6D207265666572656E63D2
:100D10006520706F696E7400436170613A20002035
:100D2000496E76616C696420657874727564657269
:100D30000054004163746976652045787472756467
:100D400065723A2000416374697665204472697661
:100D500065723A20003C3C3C2067636F64655F54D9
:100D600000203A2041465445520A0063757272656C
:100D70006E745F706F736974696F6E3D00203A2006
:100D80004245464F52450A0063757272656E745F44
:100D9000706F736974696F6E3D0029003E3E3E209E
:100DA00067636F64655F5428002200436F6D616E56
:100DB000646F206E6F20656E636F6E747261646F16
:100DC0003A2022004D363030004D36303000736509
:100DD0002061637469766F2031004563686F3A0063
:100DE00056657273696F6E3A00436F6E6669677518
:100DF000726163696F6E00417267656E74696E61DE
:100E000000496E64757374726961004B55545445A2
:100E1000524352414654000000000F000000000001
:100E20000000198000000000000070E000000000D9
:100E30000000C6300000000000039F9C000000007E
:100E4000000E3FC7000000000038FFF1C0000000A6
:100E50000063FFFC6000000001CFFFFF38000000CE
:100E6000071FFFFF8E0000001C7FFFFFE3800000D4
:100E700031FFFFFFF8C00000E7FFFFFFFE70000337
:100E80008FFFFFFFFF1C000E3FFFFFFFFFC7001893
:100E9000FE07FFF007F18033FE07FFE00FFCC027DD
:100EA000FE07FFC01FFE402FFE07FF803FFF402FC1
:100EB000FE07FF007FFF402FFE07FF00FFFF402FD0
:100EC000FE07FE01FFFF402FFE07FC00FFFF402F43
:100ED000FE07F8007FFF402FFE07F0003FFF402F86
:100EE000FE07E000007F402FFE07C000007F402F7C
:100EF000FE07807FFFFF402FFE0700FFFFFF402F10
:100F0000FE0601FFFFFF402FFE0403FFFFFF402FFF
:100F1000FE0003FFFFFF402FFE0401FFFFFF402FF5
:100F2000FE0600FFFFFF402FFE07007FFFFF402F60
:100F3000FE078000007F402FFE07C000007F402F8B
:100F4000FE07E0003FFF402FFE07F0007FFF402F2D
:100F5000FE07F800FFFF402FFE07FC01FFFF402FB8
:100F6000FE07FE00FFFF402FFE07FF007FFF402F20
:100F7000FE07FF803FFF402FFE07FFC01FFF402FEF
:100F8000FE07FFE00FFF4027FE07FFF007FE40339C
:100F9000FE07FFF803FCC018FE07FFFC01F1800EFE
:100FA0003FFFFFFFFFC700038FFFFFFFFF1C000095
:100FB000E7FFFFFFFE70000031FFFFFFF8C00000F9
:100FC0001C7FFFFFE3800000071FFFFF8E00000073
:100FD00001CFFFFF380000000063FFFC600000004D
:100FE0000038FFF1C0000000000E3FC70000000005
:100FF00000039F9C000000000000C63000000000BD
:10100000000070E0000000000000198000000000F7
:1010100000000F00000000000000000000000000C1
:1010200000000000000000000000000000000000C0
:1010300000000000000000000000000000000000B0
:1010400000000000000000000000000000000000A0
:101050000000000000656E6473746F70732068692F
:10106000743A202025632025632025632025630012
:10107000205A3A0020593A0020583A00656E6473AD
:10108000746F7073206869743A20004D32390050D3
:10109000415241444120444520454D4552472E0090
:1010A000504152414441005072696E746572207320
:1010B000746F707065642064756520746F2065724C
:1010C000726F72732E20466978207468652065728D
:1010D000726F7220616E6420757365204D393939E5
:1010E00020746F20726573746172742E20285465A9
:1010F0006D706572617475726520697320726573B5
:1011000065742E205365742069742061667465725D
:101110002072657374617274696E6729004E6F2066
:101120004C696E65204E756D6265722077697468D2
:1011300020636865636B73756D2C204C617374203C
:101140004C696E653A20004E6F20436865636B738F
:10115000756D2077697468206C696E65206E756D99
:101160006265722C204C617374204C696E653A2064
:1011700000636865636B73756D206D69736D617471
:1011800063682C204C617374204C696E653A2000B2
:101190004C696E65204E756D626572206973206EB4
:1011A0006F74204C617374204C696E65204E756DB0
:1011B0006265722B312C204C617374204C696E6512
:1011C0003A20004D313130004D3331004D3834205C
:1011D000582059205A2045004D35303000534420C6
:1011E00072656164206572726F7200446F6E652073
:1011F0007072696E74696E672066696C650020495B
:101200006E76616C696420657874727564657200CD
:101210004D000000524300005243000048430000CC
:1012200000000000000000000000203A2073796EEA
:10123000635F706C616E5F706F736974696F6E0A63
:101240000063757272656E745F706F736974696F35
:101250006E3D00203A20636C65616E5F75705F6162
:10126000667465725F656E6473746F705F6F725FD2
:1012700070726F62655F6D6F76650A00637572727A
:10128000656E745F706F736974696F6E3D002900DD
:101290002C20002C200028003E3E3E20646F5F6220
:1012A0006C6F636B696E675F6D6F76655F746F00FF
:1012B0006465706C6F793A2000203A207365745F22
:1012C00070726F62655F6465706C6F7965640A0047
:1012D00063757272656E745F706F736974696F6E37
:1012E0003D00203A203C3C3C20646F5F70726F628E
:1012F000655F6D6F76650A0063757272656E745F07
:10130000706F736974696F6E3D00203A203E3E3EF7
:1013100020646F5F70726F62655F6D6F76650A0043
:1013200063757272656E745F706F736974696F6EE6
:101330003D002042403A0020403A00202F00204249
:101340003A00202F0020543A00203A20736574752B
:10135000705F666F725F656E6473746F705F6F72DB
:101360005F70726F62655F6D6F76650A006375729C
:1013700072656E745F706F736974696F6E3D002083
:1013800066697273740059005800486F6D652000DB
:101390002066697273740059005800486F6D6520AB
:1013A000003C3C3C2067636F64655F473238002037
:1013B0003A204D424C20486F6D652058206F7220B6
:1013C000590A0063757272656E745F706F73697429
:1013D000696F6E3D00203A204D424C205265737477
:1013E000204F726967696E0A0063757272656E7468
:1013F0005F706F736974696F6E3D004D424C205A87
:1014000020686F6D696E67004D424C2068617320E3
:101410006D65736800203A2028686F6D655F616CA8
:101420006C5F61786973207C7C20686F6D655A29D8
:10143000203E2066696E616C0A0063757272656E8B
:10144000745F706F736974696F6E3D003C3C3C2043
:101450005A5F534146455F484F4D494E4700736FB1
:101460006E6461205A20667565726100736F6E64E8
:1014700061205A20667565726100203A205A5F53D8
:101480004146455F484F4D494E47203E20686F6DAD
:10149000655F616C6C5F617869730A006465737481
:1014A000696E6174696F6E3D00203A205A5F534146
:1014B00046455F484F4D494E47203E20686F6D6559
:1014C0005F616C6C5F617869730A00637572726545
:1014D0006E745F706F736974696F6E3D003E205A61
:1014E0005F534146455F484F4D494E47203E3E3E83
:1014F00000203A20686F6D65590A00637572726545
:101500006E745F706F736974696F6E3D00203A206E
:10151000686F6D65580A0063757272656E745F70EE
:101520006F736974696F6E3D005261697365205A0B
:1015300020286265666F726520686F6D696E672925
:1015400020746F20003E20656E6473746F70732E7C
:10155000656E61626C6528747275652900203A2099
:10156000536574205A20746F207072655F686F6DC8
:10157000655F7A0A0063757272656E745F706F736F
:101580006974696F6E3D004D424C20776173206134
:101590006374697665003E3E3E2067636F64655FF5
:1015A00047323800636F6C642065787472757369B4
:1015B0006F6E2070726576656E7465640000416CB4
:1015C000677569656E2070756C736F20656C20732C
:1015D000656E736F722064652066696C616D656EFF
:1015E000746F3A20004D36303000736520616374AB
:1015F00069766F20320050415241444120444520D9
:10160000454D4552472E00504152414441204445EA
:1016100020454D4552472E00706175736120706101
:10162000726120657370657261007061757361200D
:10163000706172612075736F0070726F63657361A2
:101640006E646F00627573793A005072696E7465EA
:10165000722068616C7465642E206B696C6C28293B
:101660002063616C6C6564210029003C3C3C207364
:1016700065745F617869735F69735F61745F686FD8
:101680006D652800203A200A0063757272656E74D9
:101690005F706F736974696F6E3D005D203D20005F
:1016A000686F6D655F6F66667365745B007A7072F4
:1016B0006F62655F7A6F6666736574203D20000017
:1016C000000000000000000000000029003E3E3E37
:1016D000207365745F617869735F69735F61745FBC
:1016E000686F6D6528005761726E696E673A2048B1
:1016F0006F6D696E672042756D70204469766973FD
:101700006F72203C20310029003C3C3C20686F6D0A
:10171000656178697328003E2000203A20414654D4
:101720004552207365745F617869735F69735F61A7
:10173000745F686F6D650A0063757272656E745FC1
:10174000706F736974696F6E3D003E20326E642065
:10175000486F6D6520003E2031737420486F6D65C1
:1017600020000000524300005243000048433E2046
:1017700000FFFFFF29003E3E3E20686F6D656178E7
:1017800069732800494E46004E414E00655F6D6901
:101790006E3A20007A5F70726F62653A20007A5F5D
:1017A0006D696E3A2000795F6D696E3A2000785F4E
:1017B0006D696E3A20005265706F7274696E6720B1
:1017C000656E6473746F7020737461747573004711
:1017D00039310A47312058343420592D34312046CC
:1017E000333030300A47393000506F7220666176EE
:1017F0006F7220657370657265005265616C697AFD
:10180000616E646F20486F6D652E2E2E0047323852
:1018100000473238000056616C6F722064656C209E
:101820007A3A0054617265612030340043616C691A
:101830006272616E646F2E2E2E004737370054613E
:101840007265612030332076616C6F722064652090
:101850007A002D2D2D2D2D2D2D2D2D2D2D2D2D2D98
:101860002D2D2D2D2D2D2D2D2D2D2D2D2D2D2D2DA8
:101870002D2D0070790070783A20005461726561F6
:10188000203033206D6F76696E6700546172656138
:1018900020303200506F72206661766F722065735F
:1018A00070657265005265616C697A616E646F2063
:1018B000486F6D652E2E2E005461726561203030A8
:1018C00000473238004D6F766572205A004D353032
:1018D00030006B757474657263726166742E636F29
:1018E0006D2F626C6F6700473120583130205931BD
:1018F00030204633303030005265696E6963696567
:10190000206D617175696E6100426F746F6E207039
:10191000756C7361646F20454D47004572726F723C
:101920002077726974696E6720746F204545505244
:101930004F4D2100206279746573290053657474DA
:10194000696E67732053746F726564202800454583
:1019500050524F4D20636865636B73756D206D69E0
:10196000736D61746368002D2D2D2D2D2D2D2D2D62
:101970002D2D2D2D2D2D2D2D2D2D2D2D2D2D2D2D97
:101980002D2D2D2D2D2D2D2D2D2D2D2D2D2D2D2D87
:101990002D2D2D2D2D2D2D2D2D2D2D2D2D2D2D2D77
:1019A0002D2D2D2D2D2D2D2D2D2D2D0020627974D9
:1019B00065732900202020202020202020202020A6
:1019C0002020202053746F726564207365747469DD
:1019D0006E6773207265747269657665642028008D
:1019E0005D2053746F7265642076657273696F6EE3
:1019F0003A205B0056657273696F6E3A205B002D6A
:101A00002D2D2D2D2D2D2D2D2D2D2D2D2D2D2D2D06
:101A10002D2D2D2D2D2D2D2D2D2D2D2D2D2D2D2DF6
:101A20002D2D2D2D2D2D2D2D2D2D2D2D2D2D2D2DE6
:101A30002D2D2D2D2D2D2D2D2D2D2D2D2D2D2D2DD6
:101A40002D2D2D002D2D2D2D2D2D2D2D2D2D2D2DF3
:101A50002D2D2D2D2D2D2D2D2D2D2D2D2D2D2D2DB6
:101A60002D2D2D2D2D2D2D2D2D2D2D2D2D2D2D2DA6
:101A70002D2D2D2D2D2D2D2D2D2D2D2D2D2D2D2D96
:101A80002D2D2D2D2D2D2D2D002D2D2D2D2D2D2DB3
:101A90002D2D2D2D2D2D2D2D2D2D2D2D2D2D2D2D76
:101AA0002D2D2D2D2D2D2D2D2D2D2D2D2D2D2D2D66
:101AB0002D2D2D2D2D2D2D2D2D2D2D2D2D2D2D2D56
:101AC0002D2D2D2D2D2D2D2D2D2D2D2D2D00204568
:101AD0000020204D323035205400204500205A008F
:101AE00020580020420020560020202020205300B3
:101AF000002020202020202020285A3D6D61786978
:101B00006D756D205A206A65726B20286D6D2F737C
:101B1000292C2020453D6D6178696D756D2045202B
:101B20006A65726B20286D6D2F7329290020202093
:101B300020202028423D6D696E696D756D207365AA
:101B4000676D656E742074696D6520286D73292C2E
:101B500020583D6D6178696D756D205859206A6512
:101B6000726B20286D6D2F732929002020202020E2
:101B7000202028533D4D696E20666565647261744E
:101B80006520286D6D2F73292C20563D4D696E20E0
:101B900074726176656C2066656564726174652037
:101BA000286D6D2F7329290020202020202020203F
:101BB0002020202020202020202020202020202025
:101BC00020202020202020284D32303529002020C0
:101BD0002020202020202020202020202020202005
:101BE00020202020202020202020207C416476619D
:101BF0006E6365647C002D2D2D2D2D2D2D2D2D2D0D
:101C00002D2D2D2D2D2D2D2D2D2D2D2D2D2D2D2D04
:101C10002D2D2D2D2D2D2D2D2D2D2D2D2D2D2D2DF4
:101C20002D2D2D2D2D2D2D2D2D2D2D2D2D2D2D2DE4
:101C30002D2D2D2D2D2D2D2D2D2D00202020202042
:101C40002020202020202020202020202020202094
:101C50002020436F6E66696775726174696F6E20CC
:101C6000416476616E636564002D2D2D2D2D2D2D23
:101C70002D2D2D2D2D2D2D2D2D2D2D2D2D2D2D2D94
:101C80002D2D2D2D2D2D2D2D2D2D2D2D2D2D2D2D84
:101C90002D2D2D2D2D2D2D2D2D2D2D2D2D2D2D2D74
:101CA0002D2D2D2D2D2D2D2D2D2D2D2D2D002020AB
:101CB0004D32303020543120440020204D3230301D
:101CC00020440046696C616D656E742073657474A0
:101CD000696E67733A0020440020490020500020BC
:101CE00020202020202020202020202020202048CC
:101CF0000020202020202020202020202020202004
:101D000020202020202020202020202020202020D3
:101D1000284D333031290020202020202020202071
:101D200020202020202020202020202020202020B3
:101D300020207C5049442073657474696E67737CFD
:101D4000002D2D2D2D2D2D2D2D2D2D2D2D2D2D2DF0
:101D50002D2D2D2D2D2D2D2D2D2D2D2D2D2D2D2DB3
:101D60002D2D2D2D2D2D2D2D2D2D2D2D2D2D2D2DA3
:101D70002D2D2D2D2D2D2D2D2D2D2D2D2D2D2D2D93
:101D80002D2D2D2D2D002020202020202020202032
:101D90002020202020202020202020202020204320
:101DA0006F6E66696775726174696F6E2050494421
:101DB000002D2D2D2D2D2D2D2D2D2D2D2D2D2D2D80
:101DC0002D2D2D2D2D2D2D2D2D2D2D2D2D2D2D2D43
:101DD0002D2D2D2D2D2D2D2D2D2D2D2D2D2D2D2D33
:101DE0002D2D2D2D2D2D2D2D2D2D2D2D2D2D2D2D23
:101DF0002D2D2D2D2D0020204D3636362050005A09
:101E00002050726F6265206F666673657420286D5E
:101E10006D293A00205A00205900202047323920ED
:101E2000533320580020590020580020204D3432D0
:101E3000302053004D65736820626564206C6576C0
:101E4000656C696E673A00205A00205900205800DE
:101E50002020202020202020202020202020202082
:101E6000202054002020202020202020202020205E
:101E70002020202020202020202020207C486F743B
:101E8000656E64206F666673657420286D6D297CAD
:101E90000020202020202020202020202020202062
:101EA0002020202020202020202020202020202032
:101EB000284D3231382900202020202020202020C9
:101EC0002020202020202020202020202020207CB6
:101ED000486F74656E64206F666673657420286D44
:101EE0006D297C0000205A0020590020202020204D
:101EF00020202020202020202020202020205800CA
:101F000020202020202020202020202020202020D1
:101F100020202020202020202020202020202028B9
:101F20004D32303629002020202020202020202063
:101F30002020202020202020202020202020207C45
:101F4000486F6D65206F666673657420286D6D2916
:101F50007C002D2D2D2D2D2D2D2D2D2D2D2D2D2D8F
:101F60002D2D2D2D2D2D2D2D2D2D2D2D2D2D2D2DA1
:101F70002D2D2D2D2D2D2D2D2D2D2D2D2D2D2D2D91
:101F80002D2D2D2D2D2D2D2D2D2D2D2D2D2D2D2D81
:101F90002D2D2D2D2D2D0020202020202020202013
:101FA000202020202020202020202020202020430E
:101FB0006F6E66696775726174696F6E206F6666B1
:101FC000736574002D2D2D2D2D2D2D2D2D2D2D2DA9
:101FD0002D2D2D2D2D2D2D2D2D2D2D2D2D2D2D2D31
:101FE0002D2D2D2D2D2D2D2D2D2D2D2D2D2D2D2D21
:101FF0002D2D2D2D2D2D2D2D2D2D2D2D2D2D2D2D11
:102000002D2D2D2D2D2D2D2D002D2D2D2D2D2D2D2D
:102010002D2D2D2D2D2D2D2D2D2D2D2D2D2D2D2DF0
:102020002D2D2D2D2D2D2D2D2D2D2D2D2D2D2D2DE0
:102030002D2D2D2D2D2D2D2D2D2D2D2D2D2D2D2DD0
:102040002D2D2D2D2D2D2D2D2D2D2D2D2D00202007
:10205000202020202020202020202020202020534D
:10206000656E736F722064652066696C616D656E64
:10207000746F3A20002D2D2D2D2D2D2D2D2D2D2D34
:102080002D2D2D2D2D2D2D2D2D2D2D2D2D2D2D2D80
:102090002D2D2D2D2D2D2D2D2D2D2D2D2D2D2D2D70
:1020A0002D2D2D2D2D2D2D2D2D2D2D2D2D2D2D2D60
:1020B0002D2D2D2D2D2D2D2D2D00205200202020B9
:1020C0002020202020202020202020202020202010
:1020D00020202020202020540000205600202020F6
:1020E00020202020202020202020202020202020F0
:1020F00020205000202020202020202020202020D0
:10210000284D32303420503D7072696E74696E67AC
:102110002C20563D74726176656C20616E6420548B
:102120002A20523D72657472616374290020202058
:10213000202020202020202020202020202020209F
:10214000202020202020207C416363656C65726123
:1021500074696F6E737C000020450020204D323082
:1021600031205400204500205A0020590020202012
:10217000202020202020202020202020202020205F
:102180002020205800202020202020202020202037
:10219000202020202020202020202020202020203F
:1021A00020202020284D32303129002020202020DE
:1021B00020202020202020202020202020207C4D96
:1021C0006178696D756D20416363656C65726174DA
:1021D000696F6E20286D6D2F7332297C00204500B9
:1021E00020204D32303320540000204500205A007A
:1021F00020590020202020202020202020205800AE
:1022000020202020202020202020202020202020CE
:1022100020202020202020202020202020202028B6
:102220004D32303329002020202020202020202063
:1022300020202020202020202020207C4D61786933
:102240006D756D2066656564726174657320286DB7
:102250006D2F73297C000020450020204D3932204D
:102260005400436F6E6669673A00204500205A00AB
:10227000205900202020202020202020202058002D
:10228000202020202020202020202020202020204E
:102290002020202020202020202020202020202836
:1022A0004D393229002020202020202020202020ED
:1022B0002020202020202020202020202020207CC2
:1022C00053746570732070657220756E69747C003C
:1022D0002D2D2D2D2D2D2D2D2D2D2D2D2D2D2D2D2E
:1022E0002D2D2D2D2D2D2D2D2D2D2D2D2D2D2D2D1E
:1022F0002D2D2D2D2D2D2D2D2D2D2D2D2D2D2D2D0E
:102300002D2D2D2D2D2D2D2D2D2D2D2D2D2D2D2DFD
:102310002D2D2D2D002020202020202020202020A9
:1023200020202020202020202020202020202020AD
:10233000436F6E66696775726174696F6E002D2DEB
:102340002D2D2D2D2D2D2D2D2D2D2D2D2D2D2D2DBD
:102350002D2D2D2D2D2D2D2D2D2D2D2D2D2D2D2DAD
:102360002D2D2D2D2D2D2D2D2D2D2D2D2D2D2D2D9D
:102370002D2D2D2D2D2D2D2D2D2D2D2D2D2D2D2D8D
:102380002D2D0053657269653A004D6F64656C6F61
:102390003A200050616E74616C6C613A20002D2D02
:1023A0002D2D2D2D2D2D2D2D2D2D2D2D2D2D2D2D5D
:1023B0002D2D2D2D2D2D2D2D2D2D2D2D2D2D2D2D4D
:1023C0002D2D2D2D2D2D2D2D2D2D2D2D2D2D2D2D3D
:1023D0002D2D2D2D2D2D2D2D2D2D2D2D2D2D2D2D2D
:1023E0002D2D004D3131370A4D38340A4D313137FA
:1023F00020496D70726573696F6E2043616E63650D
:102400006C616461004D363030004D313137205001
:1024100049442041637475616C697A61646F004D51
:1024200035303000494E44555354524941204152B1
:1024300047454E54494E410053657269653A005014
:102440004B32005620342E302E3000204D6F646504
:102450006C6F3A0056657273696F6E3A001C3800F3
:10246000000000000000001C7117DF7DE39E11F7E3
:10247000C01CE111044114512901001DF91104414E
:1024800014114501001FC1110479E41E45E1001D2E
:10249000F911044144147D01001CE111044124524E
:1024A0004501001C70E1047F13914501001C3800B8
:1024B000000000000000001C1DFFFFFFFFFFFFFFEA
:1024C000F0000000000000000000007FFFFFFFFFA1
:1024D000FFFFFFFFC04D6F766572205A00566F6C8C
:1024E00076657200303100506F736963696F6E20DA
:1024F000303100303100303200506F736963696FE2
:102500006E20303200303200303300506F73696318
:10251000696F6E20303300303300303400506F73F9
:102520006963696F6E2030340030340030350050FC
:102530006F736963696F6E20303500303500303657
:1025400000506F736963696F6E203036003036005B
:10255000303700506F736963696F6E203037003019
:102560003700303800506F736963696F6E20303800
:10257000003038003039007FFCC0068002800280C5
:10258000028002800280028002800280028002803B
:1025900002C0067FFC506F736963696F6E2030392B
:1025A000003039007FFCFFFEFFFEFFFEFFFEFFFE56
:1025B000FFFEFFFEFFFEFFFEFFFEFFFEFFFEFFFE33
:1025C0007FFC4739310A47312045313520463135C6
:1025D000300A4739300A4739310A473120452D3111
:1025E000303020463330300A4739300A4D38340015
:1025F0004739310A473120453130302046313530B6
:102600000A4739300A4D3834004739310A473120FA
:102610005A31302046333530300A47393000416A6C
:10262000757374652064652046696C616D656E74B0
:102630006F0043616C63756C616E646F2E2E2E00AB
:1026400050756564652074617264617220756E6F87
:1026500073206D696E75746F7300416A7573746170
:102660006E646F205049440043616C656E74616E06
:10267000646F2E2E2E00506F72206661766F72206E
:10268000657370657265003FFFF87FFFFCFFFFFE1A
:10269000FFFFFEFFFFFEFFFFFEFFFFFEFFFFFEE668
:1026A000DE6EE6DE6EEADEAEEADEAEEADEAEECDE80
:1026B000CEECC2CEFFFFFEFFFFFEFFFFFEFFFFFEE0
:1026C000FFFFFEFFFFFE7FFFFC3FFFF83FFFF860CC
:1026D000000CC00006800002800002800002800022
:1026E00002800002992192992192952152952152BE
:1026F000952152932132933D328000028000028066
:102700000002800002800002C0000660000C3FFF53
:10271000F83FFFF87FFFFCFFFFFEFFFFFEFFFFFE1D
:10272000FFFFFEFFFFFEFFFFFEC2F176DEF776DE63
:10273000F7AEC6F1DEDEF7AEDEF776DE1176FFFF2E
:10274000FEFFFFFEFFFFFEFFFFFEFFFFFEFFFFFE9F
:102750007FFFFC3FFFF83FFFF860000CC0000680E1
:102760000002800002800002800002800002BD0E94
:102770008AA1088AA10852B90E22A10852A1088A8A
:10278000A1EE8A80000280000280000280000280A8
:102790000002C0000660000C3FFFF83FFFF87FFF1B
:1027A000FCFFFFFEFFFFFEFFFFFEFFFFFEFFFFFE41
:1027B000FFFFFEF38F1EEDB6FEEDB6FEE18F3EEDA0
:1027C000B7DEEDB7DEED8E3EFFFFFEFFFFFEFFFF43
:1027D000FEFFFFFEFFFFFEFFFFFE7FFFFC3FFFF857
:1027E0003FFFF860000CC0000680000280000280FD
:1027F00000028000028000028C70E292490292493D
:10280000029E70C29248229248229271C2800002B7
:10281000800002800002800002800002C00006608A
:10282000000C3FFFF83FFFF87FFFFCFFFFFEFFFFBC
:10283000FEFFFFFEFFFFFEFFFFFEFFFFFEE3BF3ECA
:10284000EDBEDEEDBEDEE3BE1EEFBEDEEFBEDEEFB2
:1028500086DEFFFFFEFFFFFEFFFFFEFFFFFEFFFF26
:10286000FEFFFFFE7FFFFC3FFFF83FFFF860000C1C
:10287000C00006800002800002800002800002800A
:1028800000029C40C29241229241229C41E290412E
:102890002290412290792280000280000280000272
:1028A000800002800002C0000660000C3FFFF8506C
:1028B000726564657465726D696E61646F004578F8
:1028C000747275736F723A006C612074656D706517
:1028D0007261747572610053656C656363696F6ED4
:1028E00065004731205A313520463430300A4732AE
:1028F00038205A0A4731205A30004731205A3130A7
:102900000A4732380A4D383400506F736963696F73
:102910006E20342064652034004731205A31300A5B
:10292000473120583137302059343020463230304A
:10293000300A473238205A0A4731205A3000506F47
:10294000736963696F6E20332064652034004731FA
:10295000205A31300A47312058343020593135302F
:102960002046323030300A473238205A0A47312068
:102970005A30001FFFFFF03FFFFFF87FFFFFFCFF13
:10298000FFFFFEFFF83FFEFFE00FFEFF8003FEF7B4
:102990000381FEF20FE0FEF01FF07EF03FF87EF0C4
:1029A0007FFC3EF03FFE3EF01FFE1EFFFFFF1EFFBE
:1029B000FFFF1EFFFFFF1EFFFFFE1EFFFFFE3EFF8D
:1029C000FFFC3EFFFFF87EFF9FF07EFF0FE0FEFF63
:1029D0000381FEFF8003FEFFE00FFEFFF83FFE7F56
:1029E000FFFFFC3FFFFFF81FFFFFF01FFFFFF0306E
:1029F0000000186000000CC00000068007C00280C4
:102A00001FF002807FFC0288FC7E028DF01F028F87
:102A1000E00F828FC007828F8003C28FC001C28FF8
:102A2000E001E2800000E2800000E2800000E2803D
:102A30000001E2800001C2800003C28000078280A2
:102A4000600F8280F01F0280FC7E02807FFC02808B
:102A50001FF002C007C0066000000C300000181F05
:102A6000FFFFF0506F736963696F6E2032206465F9
:102A70002034004731205A31300A4731205831374D
:102A80003020593135302046323030300A47323824
:102A9000205A0A4731205A3000506F736963696FBA
:102AA0006E20312064652034004731205A31300ACD
:102AB00047312058343020593430204632303030BD
:102AC0000A473238205A0A4731205A3000FFFFFFA8
:102AD000FFFFFFFFFFFFFFFFFFE08000000000009F
:102AE00000000000000020B1C71C71C71C71C71C8A
:102AF00071C71C20A38E38E38E38E38E38E38E38FE
:102B0000A0871C71C71C71C71C71C71C71A08000F5
:102B10000000000000000000000020FFFFFFFFFF9A
:102B2000FFFFFFFFFFFFFFE0FFFFFFFFFFFFFFFFD4
:102B3000FFFFFFFFE0800000000000000000000039
:102B400000208E38E38E38E38E38E38E38E3A09C85
:102B500071C71C71C71C71C71C71C720B8E38E38C0
:102B6000E38E38E38E38E38E208000000000000002
:102B7000000000000020FFFFFFFFFFFFFFFFFFFF3F
:102B8000FFFFE0506F72206661766F722065737090
:102B90006572650001060A00FE070136026820FF23
:102BA000FE08FE07FE0A0060221767808080808092
:102BB0000080163363A0A0A00257675050F850F869
:102BC00050500257672070A0702870200257674845
:102BD000A8502050A89002576740A0A040A8906835
:102BE00026136380808012376720408080804020D9
:102BF000123767804020202040800355658850F8B8
:102C000050880355652020F82020113363604080F0
:102C1000055161F811336340E0400257670808101E
:102C200020408080025767205088888850200257B3
:102C3000672060A0202020F8025767708808304085
:102C400080F8025767F8081030088870025767103C
:102C5000305090F81010025767F880B0C80888709C
:102C6000025767304080B0C88870025767F8081074
:102C7000102040400257677088887088887002571B
:102C8000677088986808106011376740E04000401E
:102C9000E04011376740E040006040801247671015
:102CA000204080402010045363F800F812476780EA
:102CB000402010204080025767708810202000209C
:102CC000025767708898A8B08070025767205088B4
:102CD00088F88888025767F04848704848F00257DB
:102CE0006770888080808870025767F0484848483D
:102CF00048F0025767F88080F08080F8025767F844
:102D00008080F0808080025767708880809888700B
:102D1000025767888888F8888888123767E04040BB
:102D2000404040E002576738101010109060025782
:102D3000678890A0C0A090880257678080808080BC
:102D400080F80257678888D8A888888802576788DB
:102D500088C8A8988888025767708888888888708B
:102D6000025767F08888F0808080015868708888F2
:102D70008888A87008025767F08888F0A0908802B9
:102D8000576770888070088870025767F820202085
:102D900020202002576788888888888870025767B3
:102DA00088888850505020025767888888A8A8D8FB
:102DB000880257678888502050888802576788881B
:102DC0005020202020025767F80810204080F81279
:102DD0003767E08080808080E002576780804020F5
:102DE000100808123767E02020202020E0065363F7
:102DF000205088015161F828226280400255657098
:102E0000087888780257678080B0C888C8B00255B3
:102E10006570888088700257670808689888986885
:102E20000255657088F88070025767304840F0405E
:102E30004040005767788888780888700257678014
:102E400080B0C88888881237674000C0404040E0A2
:102E50001049691000301010109090600257678080
:102E6000808890E09088123767C04040404040E042
:102E7000025565D0A8A8A888025565B0C88888887A
:102E80000255657088888870005767B0C888C8B0D8
:102E9000808000576768988898680808025565B070
:102EA000C880808002556570807008F002576740C6
:102EB00040F040404830025565888888986802553F
:102EC0006588885050200255658888A8A85002550A
:102ED00065885020508800576788889868088870EF
:102EE000025565F8102040F8124767304020C02096
:102EF000403022176780808080808080124767C0C2
:102F00002040304020C006536348A890FFFFFFFFD9
:102F1000FFFFFFFFFFFFFFFFFFFFFFFFFFFFFFFFC1
:102F2000FFFFFFFFFFFFFFFFFFFFFFFFFF0A006044
:102F3000221767800080808080800157672078A0FA
:102F4000A0A07820025767304840E04048B00255C2
:102F500065887050708801586888885020F8202053
:102F600020221767808080008080800158687080F0
:102F7000E09048380870193161A00257677088A83E
:102F8000C8A888701346667090B05000F00265655E
:102F90002448904824144262F010154161F0025711
:102FA000677088E8C8C88870095161F816336340B3
:102FB000A0400256662020F82020F8154565609054
:102FC0002040F0154565E0106010E0282262408046
:102FD000015666888888C8B08002576778E8E86834
:102FE00028282825116180202262408015356540FF
:102FF000C04040E01346666090906000F002656556
:10300000904824489001696940C04040E40C143C59
:103010000401696940C04040E81404081C01596972
:10302000C0204020C81828780802576720002020B8
:103030004088700258684020708888F88888025854
:10304000681020708888F888880258682050708836
:1030500088F8888802586848B0708888F88888029C
:1030600058685000708888F8888802586820507026
:103070008888F888880267673C50909CF0909C0094
:10308000596970888080808870204002586840F8B4
:103090008080F08080F802586810F88080F080808E
:1030A000F802586820F88080F08080F80258685054
:1030B000F88080F08080F81238688040E04040401E
:1030C00040E01238682040E040404040E01238685C
:1030D00040A0E040404040E0123868A000E040409E
:1030E0004040E0025767F04848E84848F002586816
:1030F000285088C8A8988888025868402070888816
:1031000088887002586810207088888888700258F3
:1031100068205070888888887002586828507088A5
:103120008888887002586850007088888888700283
:1031300055658850205088025767709898A8C8C86D
:103140007002586840208888888888700258681003
:10315000208888888888700258682050008888886D
:10316000887002586850008888888888700258687B
:10317000102088885020202002576780F088F08037
:103180008080025767708890A09088B0025868408D
:10319000200070087888780258681020007008783D
:1031A000887802586820500070087888780258683B
:1031B00028500070087888780257675000700878A7
:1031C00088780258682050207008788878026565F1
:1031D00078147C907C00576770888088702040024B
:1031E00058684020007088F88070025868102000ED
:1031F0007088F880700258682050007088F88070DD
:1032000002576750007088F880701238688040005C
:10321000C0404040E0123868408000C0404040E07C
:1032200012386840A000C0404040E0123767A0005C
:10323000C0404040E0025767C03070888888700204
:103240005868285000B0C888888802586840200014
:10325000708888887002586810200070888888708C
:10326000025868205000708888887002586828507A
:10327000007088888870025767500070888888704E
:103280000355652000F800200255657898A8C8F01D
:103290000258684020008888889868025868102082
:1032A0000088888898680258682050008888889824
:1032B000680257675000888888986800596910200C
:1032C0008888986808887000586880F0888888F036
:1032D00080800059695000888898680888706E6FEF
:1032E0002065737461626C65636964617300457223
:1032F000726F723A2063617061730043616E63653F
:103300006C61722063616D62696F0043616D626917
:103310006F20636170613A200041686F72610045FF
:103320006E20436170613A0043616D626961722091
:1033300066696C616D656E746F00496E6963696F73
:10334000004D3231005265636172676172205461D1
:10335000726A657461205364003FFFF87FFFFCFFD1
:10336000FFFEFFFFFEFF003EFE2ABEFCAABEF8AA3B
:10337000BEF8003EF8003EF8103EF8383EF87C3EBD
:10338000F8383EF8383EF8383EF8003EF8003EF88F
:10339000003EF8003EFFFFFE7FFFFC3FFFF8546158
:1033A000726A657461205364003FFFF87FFFFCFF81
:1033B000FFFEFFFFFEFF003EFE2ABEFCAABEF8AAEB
:1033C000BEF8003EF8003EF8003EF8003EF86C3EC5
:1033D000F88A3EF84A3EF82A3EF8CC3EF8003EF81D
:1033E000003EF8003EFFFFFE7FFFFC3FFFF83FFF7F
:1033F000F860000CC0000680000280FFC281D54248
:1034000083554287554287FFC287FFC287EFC28735
:10341000C7C28783C287C7C287C7C287C7C287FFA1
:10342000C287C7C287FFC287FFC2C0000660000C08
:103430003FFFF83FFFF860000CC0000680000280EC
:10344000FFC281D54283554287554287FFC287FF1D
:10345000C287FFC287FFC28793C28775C287B5C282
:1034600087D5C28733C287FFC287FFC287FFC2C02A
:10347000000660000C3FFFF8416A757374652064B4
:10348000652046696C616D656E746F0054656D7082
:10349000657261747572610043616C696272617218
:1034A00000417061676172204C656400456E636520
:1034B0006E646572204C6564003FFFF860000CC0CC
:1034C0001006803802807C0280FE0280380280383C
:1034D000028438428C00629F83F2BF83FA9F83F29A
:1034E0008C006284384280380280380280FE02807C
:1034F0007C02803802C0100660000C3FFFF84D6F60
:1035000076657220656A6573003FFFF87FFFFCFFF8
:10351000EFFEFFC7FEFF83FEFF01FEFFC7FEFFC7F2
:10352000FEFBC7BEF3FF9EE07C0EC07C06E07C0E77
:10353000F3FF9EFBC7BEFFC7FEFFC7FEFF01FEFFF6
:1035400083FEFFC7FEFFEFFE7FFFFC3FFFF83FFF5C
:10355000F860000CC0000680000280000283FF8239
:103560008600C28501428438428444428482428477
:1035700092428482428444428438428501428600D9
:10358000C283FF82800002800002C0000660000C3F
:103590003FFFF83FFFF87FFFFCFFFFFEFFFFFEFF4E
:1035A000FFFEFC007EF9FF3EFAFEBEFBC7BEFBBB82
:1035B000BEFB7DBEFB6DBEFB7DBEFBBBBEFBC7BEC7
:1035C000FAFEBEF9FF3EFC007EFFFFFEFFFFFEFF9E
:1035D000FFFE7FFFFC3FFFF83FFFF860000CC000DC
:1035E0000681FF0283018282008282008287FFC2FD
:1035F00087FFC287C1C28783C2873FC2873FC28716
:1036000083C287C1C287F9C287F9C28781C2870393
:10361000C287FFC2C0000660000C3FFFF84B757404
:1036200074657263726166742053746F7265003FD3
:10363000FFF87FFFFCFFFFFEFE00FEFCFE7EFDFFAD
:103640007EFDFF7EF8003EF8003EF83E3EF87C3EF0
:10365000F8C03EF8C03EF87C3EF83E3EF8063EF824
:10366000063EF87E3EF8FC3EF8003EFFFFFE7FFF80
:10367000FC3FFFF8416A75737465730053616C69B0
:103680007200426F7272617200456E7669617200FB
:103690004573706163696F002E00580059005A002D
:1036A00045004600530050004300496E6772657341
:1036B0006520436F6469676F00436F6D616E646F6F
:1036C0003A0053616C69720047004D00496E6772A1
:1036D00065736520436F6469676F00436F6D616E4A
:1036E000646F3A0045737461646F206465204C6FA9
:1036F00073204361626C657300436F72726561731E
:1037000020475432004C75627269636163696F6E61
:1037100000426F7175696C6C612079204261727230
:10372000656C00417669736F204D616E74656E69DA
:103730006D69656E746F00526563756572646520AE
:1037400052657669736172002000E07001C0F80371
:10375000807803843C038C0E07FC070EF8039DF071
:10376000017B8000F70000EE0001DC0003BB0007D6
:1037700077803EEFC07DCFE0FF87F0C703F8870179
:10378000FC0700FC0E007C1C003831352520456EFE
:10379000204D617175696E61730032302520456E70
:1037A0002052657370756573746F73003130252016
:1037B000456E204D617175696E6173003230252050
:1037C000456E2052657370756573746F7300323087
:1037D0002520456E2052657370756573746F730094
:1037E00033312E342520456E20426F7175696C6C23
:1037F00061730031352520456E2052657370756503
:1038000073746F730031352520456E2046696C61F5
:103810006D656E746F0031322520456E20526573E0
:1038200070756573746F730031322520456E2046C4
:10383000696C616D656E746F0031302520456E20B6
:1038400052657370756573746F7300313025204550
:103850006E2046696C616D656E746F003330252093
:10386000456E204E756573747261205469656E648F
:10387000610032352520456E204E75657374726186
:10388000205469656E64610032352520456E204EF6
:10389000756573747261205469656E6461003235B8
:1038A0002520456E204E75657374726120546965DC
:1038B0006E64610032302520456E204D617175695E
:1038C0006E61730032302520456E204E756573742D
:1038D0007261205469656E64610032302520456E46
:1038E000204E756573747261205469656E64610061
:1038F00032302520456E204E7565737472612054F8
:1039000069656E64610031352520456E204D617119
:1039100075696E61730032302520456E204E7565E5
:1039200073747261205469656E64610031352520BD
:10393000456E204E756573747261205469656E64BE
:10394000610031352520456E204D617175696E61CC
:10395000730031352520456E204E75657374726194
:10396000205469656E646100353025205365727698
:103970006963696F205465636E69636F0031302538
:1039800020456E204E756573747261205469656EB2
:1039900064610031352520456E20496E73756D6F69
:1039A000730031302520456E204E75657374726149
:1039B000205469656E64610032352520456E2047CC
:1039C00072696C6F4E330020352520456E204D61A5
:1039D0007175696E617300556E20456E76696F2052
:1039E0004772617469732121210031302520456EB1
:1039F0002046696C616D656E746F00313525204518
:103A00006E2052657370756573746F730031302565
:103A100020456E2046696C616D656E746F0054457B
:103A200053540041575344004544424100425341DE
:103A300053004150455800424F4F4D00424F4C4FAC
:103A400000434F5341004449414C0044415441001C
:103A50004441544F004445414C004641524F0046BA
:103A60004F524F00434F504F004341504F0043418E
:103A7000504F0041554C410041555757005844584C
:103A800044005850585300494F53580044494F532D
:103A9000004156524700524646460054585453007F
:103AA00043414454004255554800484F484F004C4C
:103AB0004F474F004D495241004F55454C00484E2D
:103AC0005750004655525400494E495400446573BE
:103AD0006375656E746F3A200056657220436F6E91
:103AE000646963696F6E657320456E3A006B757427
:103AF00074657263726166742E636F6D2F70726F7E
:103B00006D6F004465736375656E746F0043757007
:103B10006F6E20446500FC0004000200E18090808C
:103B200088808880A880A8808880A880A8808880D5
:103B3000A880A8808880A880A880888088808880C5
:103B40009080E18002000400FC001F801000200033
:103B5000C38086808C8088808A808A8088808A80E2
:103B60008A8088808A808A8088808A808A8088800B
:103B700088808C808680C380200010001F80010513
:103B80000800FF060121023520FFFF07FF06FF099D
:103B90000050221656808080800080153353A0A0EC
:103BA000A00257575050F850F85050025757207005
:103BB000A07028702013355580A040A020024757E0
:103BC00040A0A040A0A0502513538080801226560C
:103BD00040808080804012265680404040408002D5
:103BE00045559060F060900255552020F820201136
:103BF0003353604080044151F011335340E04002A0
:103C0000465610102040808012365640A0A0A0A03A
:103C10004012365640C0404040E002465660901088
:103C20006080F0024656F0206010906002465620F8
:103C300060A0F02020024656F080E010906002461E
:103C4000566080E0909060024656F0102020404080
:103C50000246566090609090600246566090907068
:103C60001060122555C0C000C0C0113656606000FB
:103C7000604080123656204080804020034353F03D
:103C800000F012365680402020408012365640A068
:103C900020400040015858304898A8A89040300271
:103CA0004656609090F09090024656E090E09090DA
:103CB000E0024656609080809060024656E0909008
:103CC0009090E0024656F080E08080F0024656F088
:103CD00080E0808080024656609080B0906002460E
:103CE000569090F0909090123656E040404040E060
:103CF00002465670202020A04002465690A0C0A048
:103D0000A0900246568080808080F002465690F057
:103D1000F090909002465690D0F0B0B09002465687
:103D2000609090909060024656E09090E080800114
:103D30004757609090D0B06010024656E09090E0F7
:103D40009090024656609040209060123656E040B7
:103D500040404040024656909090909060024656F7
:103D6000909090906060024656909090F0F0900293
:103D70004656909060609090025656888850202059
:103D800020024656F010204080F0123656E0808027
:103D90008080E0024656808040201010123656E0A7
:103DA00020202020E016325240A0014151F016227E
:103DB000528040024454709090700246568080E0D9
:103DC0009090E0123454608080600246561010706B
:103DD00090907002445460B0C0600246562050403B
:103DE000E04040014555609070106002465680806A
:103DF000E09090901236564000C04040E011375796
:103E00002000202020A040024656808090E0909024
:103E1000123656C040404040E0025454D0A8A8A8F2
:103E2000024454E0909090024454609090600145A8
:103E300055E090E08080014555709070101002446C
:103E400054A0D0808012345460C020C00246564036
:103E500040E040502002445490909070123454A09E
:103E6000A0A04002545488A8A85002445490606016
:103E7000900145559090709060024454F02040F0BD
:103E8000024757304020C0204030221656808080A4
:103E9000808080024757C02040304020C0064252F8
:103EA00050A0FFFFFFFFFFFFFFFFFFFFFFFFFFFF30
:103EB000FFFFFFFFFFFFFFFFFFFFFFFFFFFFFFFF12
:103EC000FFFFFF090050221656800080808080018D
:103ED00046562070A0A070200246562050E0405068
:103EE000A002555588705070880256568850F820A8
:103EF000F82022175780808000808080024757700A
:103F000080E0907010E0173151A002565670A8C89A
:103F1000C8A87014355560A06000E003435350A05A
:103F200050123353E02020143151E002565670E80D
:103F3000D8E8D870173151E015335340A0401235FE
:103F40005540E04000E014355540A02040E01435D5
:103F500055C020C020C01622524080014555909087
:103F600090E08002565678E8E868282824115180AD
:103F7000112252408014355540C04040E014355560
:103F800040A04000E0034353A050A0024757808068
:103F900080A060F0200247578080A0D010207002DF
:103FA000475780408060A0F0201236564000408085
:103FB000A04002475740206090F090900247572061
:103FC000406090F0909002475760906090F0909021
:103FD00002475750A06090F09090024757900060C1
:103FE00090F0909002475760906090F09090024659
:103FF0005670A0A0F0A0B0014757609080809060FC
:10400000400247574020F080E080F00247572040B0
:10401000F080E080F00247576090F080E080F0028E
:1040200047579000F080E080F01237578040E04022
:104030004040E01237572040E0404040E012375700
:1040400040A0E0404040E0123757A000E040404030
:10405000E00256567048E848487002475750A09012
:10406000D0B09090024757402060909090600247F7
:104070005720406090909060024757609060909009
:10408000906002475750A060909090600247579010
:10409000006090909060123353A040A0024656708A
:1040A000B0B0D0D0E002475740209090909060028E
:1040B00047572040909090906002475760909090B2
:1040C00090906002475790009090909060025757F0
:1040D0001020885020202002465680E09090E080FA
:1040E0000246566090A0A090A00247574020007062
:1040F0009090700247572040007090907002475790
:104100002050007090907002475750A0007090901F
:104110007002465650007090907002475760906051
:1041200070909070025454F068B0781135556080EA
:1041300080604002475740200060B0C0600247578F
:1041400020400060B0C06002475760900060B0C07F
:1041500060024656500060B0C06012375780400081
:10416000C04040E0123757204000C04040E01237C6
:104170005740A000C04040E0123656A000C040406A
:10418000E0024757A040A01070906002475750A02F
:1041900000E09090900247574020006090906002AD
:1041A0004757204000609090600247576090006041
:1041B00090906002475750A0006090906002465671
:1041C0009000609090601235554000E0004002443D
:1041D0005470B0D0E0024757402000909090700299
:1041E0004757204000909090700247576090009091
:1041F0009090700246569000909090700148582020
:10420000400090907090600147578080E090E0807F
:10421000800147579000909070906003E0000C98E8
:1042200000180C00201A00303E0040710040E100F0
:1042300061C3004181004001003006002002001FE0
:10424000FC0043617061733A005A00590020003F3E
:10425000005800092000092000092000092000461C
:104260002D2D3A2D2D00542D2D3A2D2D00462D2D7E
:104270003A2D2D00104100082080082080104100B8
:10428000208200410400410400208200104100000F
:104290000000FFFFC0FFFFC010410020820041046A
:1042A0000041040020820010410008208008208086
:1042B000104100000000FFFFC0FFFFC000E0000051
:1042C000E00000E00003F80007FFC007FEC007FCA5
:1042D0004007FEC007FFC001F00000E00000400002
:1042E00000E00000E00000E00003F80007FFC00766
:1042F000FFC007FFC007FFC007FFC001F00000E0DC
:10430000000040003FFF00700380E619C0CF3CC0B2
:104310009F3E40BF3F40BE1F409CCE4081E0408159
:10432000E0409CCE40BE1F40BF3F409F3E40CF3C40
:10433000C0E619C07003803FFF003FFF007003809C
:10434000E3F1C0C3F0C081E04080C040B00340B89A
:10435000C740BDEF40BDEF40B8C740B0034080C08C
:104360004081E040C3F0C0E3F1C07003803FFF0034
:1043700000002200250028002B002E003100340010
:1043800002010000050108010B01000020002300CC
:10439000260029002C002F0032000001000003013C
:1043A00006010901050505050705080808080202B8
:1043B00002020A0A080804040404010101010101BF
:1043C00001010303030303030303040707070C0CA2
:1043D0000C0C0C0C0C0C0202020206060606060669
:1043E00006060B0B0B0B0B0B0B0B0102102020080E
:1043F0000810204010204080020102010804020140
:1044000001020408102040808040201008040201AE
:104410008004020180402010080402010804020107
:10442000010204081020408001020408102040808E
:1044300000000A0B02090C0D0E080703040100001E
:10444000000000000000000000000000000000006C
:104450000000000000000000000000001211100029
:10446000000000000000000000000000000000004C
:104470000000000000004D3234004732380A4D3150
:1044800031380A4D3234004D3233202573003FFF5E
:10449000F860000CC0000680380290FE029BC782C4
:1044A0009F01C29E00C29F00629F80628000328096
:1044B00000328000328000628000628000C283018E
:1044C000C283C78280FE02803802C0000660000CF2
:1044D0003FFFF83FFFF87FFFFCFFFFFEFFC7FEEF47
:1044E00001FEE4387EE0FE3EE1FF3EE0FF9EE07F1D
:1044F0009EFFFFCEFFFFCEFFFFCEFFFF9EFFFF9E82
:10450000FFFF3EFCFE3EFC387EFF01FEFFC7FEFFC4
:10451000FFFE7FFFFC3FFFF8566F6C766572000070
:10452000446F6E6520736176696E672066696C659D
:104530002E006572726F722077726974696E6720DF
:10454000746F2066696C6500203A203C3C3C207208
:10455000756E5F7A5F70726F62650A006375727262
:10456000656E745F706F736974696F6E3D000000F3
:10457000A0400000A04000000040203A203E3E3E07
:104580002072756E5F7A5F70726F62650A00637584
:104590007272656E745F706F736974696F6E3D00DF
:1045A0003C3C3C2070726F62655F7074003E20007E
:1045B0003E200029002C20003E20646F5F626C6F5B
:1045C000636B696E675F6D6F76655F746F5F787937
:1045D0002800203A200A0063757272656E745F705D
:1045E0006F736974696F6E3D0029002C20002C20C8
:1045F000003E3E3E2070726F62655F7074280064FA
:104600006574656E676100696D707265736F726164
:104610002073650045737065726520612071756552
:10462000206C610043414D42494F2044452046499A
:104630004C414D454E544F004C696D7069616E643C
:104640006F20626F7175696C6C6100457370657283
:10465000650043414D42494F2044452046494C4165
:104660004D454E544F007920636F6E74696E7565C9
:104670000050726573696F6E6520656C20626F749F
:104680006F6E0043414D42494F2044452046494CFE
:10469000414D454E544F005265746972616E646FAE
:1046A0002066696C616D656E746F0045737065722C
:1046B000650043414D42494F2044452046494C4105
:1046C0004D454E544F0043617267616E646F2066C2
:1046D000696C616D656E746F00457370657265001D
:1046E00043414D42494F2044452046494C414D45A8
:1046F0004E544F005265616E7564616E646F20693F
:104700006D70726573696F6E0045737065726500D8
:1047100043414D42494F2044452046494C414D4577
:104720004E544F005461726A6574612072657469F9
:1047300072616461005461726A65746120636F6CB8
:104740006F63616461005069657A6173004B696CE5
:104750006F6D6574726F7300566F6C766572202092
:10476000202020202020202020202020040053650D
:104770007269616C3A0053697374656D6100456ECE
:10478000766961722047636F646500436F6E666986
:10479000672E204661627269636100416A757374B5
:1047A000617220504944004B75747465724D656C9C
:1047B0006F6479202020205B4F66665D004B757426
:1047C0007465724D656C6F647920202020205B4FEA
:1047D0006E5D00456E636F6465722020202020208E
:1047E0002020205B495A515D00456E636F646572FD
:1047F0002020202020202020205B4445525D0053B3
:10480000656E736F722066696C616D656E746F5B47
:104810004F66665D0053656E736F722066696C61EA
:104820006D656E746F205B4F6E5D004775617264DD
:1048300061646F20202020202020205B4F66665D71
:1048400000477561726461646F2020202020202061
:1048500020205B4F6E5D00496E666F726D6163690B
:104860006F6E2020205B43617061735D00496E664E
:104870006F726D6163696F6E2020205B436F6F7292
:10488000645D004175746F6C6576656C2020202036
:104890002020205B4F66665D004175746F6C657605
:1048A000656C20202020202020205B4F6E5D004979
:1048B00064696F6D6120202020202020202020208E
:1048C0005B45535D004C6F67726F73004573746195
:1048D000646973746963610056657273696F6E0011
:1048E000566F6C766572202020202020202020200A
:1048F000202020200400566F6C766572003FFFF880
:1049000060000CC00006800002800802803802802F
:1049100038028038028038028038028038028000F5
:104920000280380285394285834286FEC283018235
:1049300081FF028000028FFFE2C0000660000C3F92
:10494000FFF83FFFF87FFFFCFFFFFEFFFFFEFFF7D2
:10495000FEFFC7FEFFC7FEFFC7FEFFC7FEFFC7FE85
:10496000FFC7FEFFFFFEFFC7FEFAC6BEFA7CBEF918
:10497000013EFCFE7EFE00FEFFFFFEF0001EFFFF7C
:10498000FE7FFFFC3FFFF83FFFF860000CC0000611
:1049900080000280000281830281C70281EF0281D0
:1049A000FF0281BB028193028183028183028183A2
:1049B0000280000287FF828000028FFFE28FFFE209
:1049C000800002C0000660000C3FFFF83FFFF87F48
:1049D000FFFCFFFFFEFFFFFEFFFFFEFE7CFEFE383A
:1049E000FEFE10FEFE00FEFE44FEFE6CFEFE7CFEA1
:1049F000FE7CFEFE7CFEFFFFFEF8007EFFFFFEF069
:104A0000001EF0001EFFFFFEFFFFFE7FFFFC3FFFCA
:104A1000F83FFFF860000CC0000680000280000232
:104A200080000281C20281C70281CF8281C70283D6
:104A3000E70281C70280870280000280000283FFB4
:104A4000828000028FFFE28FFFE2800002C000063A
:104A500060000C3FFFF83FFFF87FFFFCFFFFFEFF09
:104A6000FFFEFFFFFEFFFFFEFE3DFEFE38FEFE30B6
:104A70007EFE38FEFC18FEFE38FEFF78FEFFFFFECD
:104A8000FFFFFEFC007EFFFFFEF0001EF0001EFF99
:104A9000FFFEFFFFFE7FFFFC3FFFF841206C696EC9
:104AA00069617220656A65207A003FFFF860000C3A
:104AB000C0000680000281FF028000028010028098
:104AC0003802807C028038028038028038028038C8
:104AD0000280380280000283FF828000028FFFE2A2
:104AE0008FFFE2800002C0000660000C3FFFF83F2D
:104AF000FFF87FFFFCFFFFFEFFFFFEFE00FEFFFF53
:104B0000FEFFEFFEFFC7FEFF83FEFFC7FEFFC7FEEF
:104B1000FFC7FEFFC7FEFFC7FEFFFFFEFC007EFFD4
:104B2000FFFEF0001EF0001EFFFFFEFFFFFE7FFFF6
:104B3000FC3FFFF8436170613A006361706120647B
:104B4000652063616D62696F0053656C65636369BD
:104B50006F6E6172004B7574746572637261667416
:104B60002053746F7265006B757474657263726143
:104B700066742E636F6D2F73746F726500FEDF4372
:104B8000F8829F1A08BAEE2AE8BA1B6AE8BAAD3270
:104B9000E8821A0A08FEAAABF8004238009FB7D490
:104BA000B8848A31B0860A2F20F0235448F6169331
:104BB00008C51066F886CB5B28D84E1FA8F6C90832
:104BC0004014A93CB03E67DA48091D09E02A457F38
:104BD000F0008D78C0FE959AC082955898BA9C9F37
:104BE000D8BAA78D08BA43E1B8826A0768FEA19CCB
:104BF000C04D35303000426F72726172204573745F
:104C000061646973746963610043616D62696172B3
:104C10002056657273696F6E00566F6C76657220F0
:104C20002020202020202020202020202004004D93
:104C300035303000496E67726573652047656E6573
:104C4000726163696F6E3A00436F6469676F3A001F
:104C5000496E67726573652047656E657261636949
:104C60006F6E3A00496E6772657365204D65733AE1
:104C70000053616C697200426F7272617200496E1A
:104C8000677265736520436F6469676F00436F6483
:104C900069676F3A0043656E74696D6574726F730E
:104CA0003A006D6574726F733A004B696C6F6D6595
:104CB00074726F733A0046696C616D656E746F2033
:104CC000557361646F004D696E75746F733A004877
:104CD0006F7261733A00446961733A005469656D9B
:104CE000706F20456E636564696461004D696E751F
:104CF000746F733A00486F7261733A00446961736C
:104D00003A005469656D706F20646520696D70723A
:104D10006573696F6E00496E636F6D706C65746169
:104D2000733A005465726D696E616461733A002074
:104D3000546F74616C3A00496D70726573696F6E7F
:104D4000657300416A7573746573206465206361DF
:104D50006D6100566F6C76657200507265646574A3
:104D600065726D696E61646F004D31313720456E3B
:104D7000667269616E646F004D38340A204D3131BE
:104D800037204D6F746F72204170616761646F00EE
:104D900056656C6F6369646164006C612076656C54
:104DA0006F63696461640053656C656363696F6E0A
:104DB0006500466C756A6F00466C756A6F005365D6
:104DC0006C656363696F6E650076616C6F722069F4
:104DD0006E696369616C00426F7175696C6C61002A
:104DE0006C612074656D70657261747572610053D9
:104DF000656C656363696F6E650043616D61206317
:104E0000616C69656E7465006C612074656D7065B8
:104E10007261747572610053656C656363696F6E6E
:104E200065004D333133004D3131370046616E201E
:104E300064652063617061006C612076656C6F63EE
:104E4000696461640053656C656363696F6E6500D6
:104E50003FFFF87FFFFCFFFFFEFFFFFEF770FEFA4B
:104E6000EF7EFDE97EFAED7EF7697EFFED7EFFE9DC
:104E70007EFFED7EFFE97EFFD9BEFFB0DEFFA05EC4
:104E8000FFB0DEFFDFBEFFE07EFFFFFEFFFFFE7F25
:104E9000FFFC3FFFF83FFFF860000CC000068000F9
:104EA00002888F02851082821682851282889682FD
:104EB0008012828016828012828016828026428032
:104EC0004F22805FA2804F22802042801F8280007C
:104ED00002C0000660000C3FFFF83FFFF87FFFFCB8
:104EE000FFFFFEFFBBFEFE38FEFC387EF8383EF0CA
:104EF000381EF07C1EE0C60EFF83FEFF83FEFF839C
:104F0000FEE0C60EF07C1EF0381EF8383EFC387EFF
:104F1000FE38FEFFBBFEFFFFFE7FFFFC3FFFF83FBA
:104F2000FFF860000CC0000680440281C70283C7FE
:104F30008287C7C28FC7E28F83E29F39F2807C02EB
:104F4000807C02807C029F39F28F83E28FC7E287E8
:104F5000C7C283C78281C702804402C000066000C6
:104F60000C3FFFF83FFFF87FFFFCFFFFFEFFFFFE57
:104F7000FFFFFEFFFFFEFFFFFEFDEF7EFEF7BEFE22
:104F8000F7BEFDEF7EFBDEFEF7BDFEF7BDFEFBDEEE
:104F9000FEFDEF7EFFFFFEF0001EF0001EFFFFFE95
:104FA000FFFFFE7FFFFC3FFFF83FFFF860000CC0F3
:104FB0000006800002800002800002800002821051
:104FC0008281084281084282108284210288420242
:104FD0008842028421028210828000028FFFE28FC9
:104FE000FFE2800002C0000660000C3FFFF854653D
:104FF0006D706572617475726100506F72206661C8
:10500000766F72206573706572650070012C019077
:10501000012701B0012201C0011D01F0011801109A
:1050200002130130020E016002090190020401C066
:1050300002FF000003FA004003F5008003F000D0F7
:1050400003EB002004E6007004E100E004DC004013
:1050500005D700C005D2004006CD00D006C80080AC
:1050600007C3003008BE00F008B900C009B400B0A2
:105070000AAF00B00BAA00D00CA500000EA0005093
:105080000F9B00C01096005012910000148C00C0BD
:10509000158700B0178200B0197D00D01B78000082
:1050A0001E730040206E0090226900F024640040CE
:1050B000275F0090295A00E02B5500102E50002049
:1050C000304B0010324600E033410090353C001078
:1050D00037370070383200A0392D00B03A2800A0D0
:1050E0003B2300603C1E00103D1900903D14001051
:1050F0003E0F00703E0A00C03E0500003F00002049
:105100004B643A2000204B693A2000204B703A2033
:1051100000504944204175746F74756E652066694E
:105120006E69736865642120507574207468652009
:105130006C617374204B702C204B6920616E64206D
:105140004B6420636F6E7374616E74732066726F4C
:105150006D2061626F766520696E746F20436F6E9B
:1051600066696775726174696F6E2E68206F722050
:1051700073656E6420636F6D6D616E64204D3530B4
:105180003020666F72207361766520696E20454518
:1051900050524F4D20746865206E65772076616CA3
:1051A00075652100504944204175746F74756E65B2
:1051B000206661696C6564212074696D656F757422
:1051C00000504944204175746F74756E65206661A6
:1051D000696C6564212054656D70657261747572C7
:1051E0006520746F6F206C6F7700504944204175C3
:1051F000746F74756E65206661696C6564212054F6
:10520000656D706572617475726520746F6F20686A
:1052100069676800204B643A2000204B693A2000FF
:10522000204B703A200020436C61737369632050F7
:10523000494420002054753A2000204B753A200044
:10524000206D61783A2000206D696E3A200020645C
:105250003A200020626961733A2000204170706C2E
:105260007920726573756C7400204379636C657383
:105270003A20002054656D703A2000486F74656EC6
:10528000643A20004348414D4245520042454400A3
:10529000504944204175746F74756E652073746154
:1052A000727400504944204175746F74756E6520A6
:1052B0006661696C656421204261642074656D706B
:1052C0006572617475726520636F6E74726F6C6C59
:1052D0006572206E756D626572002C20737973742F
:1052E000656D2073746F707065642120436F6F6CFF
:1052F0006572002C2073797374656D2073746F7000
:1053000070656421204368616D626572002C2073B2
:10531000797374656D2073746F70706564212042B9
:105320006564002C2073797374656D2073746F70DD
:1053300070656421204865617465725F49443A2054
:105340000050415241444120444520454D4552477B
:105350002E00202D20496E76616C6964206578747A
:105360007275646572206E756D626572202100C071
:10537000159100B0178C00B0198700D01B82000077
:105380001E7D004020780090227300F0246E0040C3
:1053900027690090296400B02A5F00D02B5A00F0E2
:1053A0002C5500102E500020304B0010324600E0EB
:1053B00033410090353C001037370070383200A080
:1053C000392D00B03A2800A03B2300603C1E00109D
:1053D0003D1900903D1400103E0F00703E0A00C0C1
:1053E0003E0500003F00004D494E54454D502045BC
:1053F00052524F52004D494E54454D5020747269DF
:10540000676765726564004D494E54454D502042B2
:105410004544204552524F5200456C204669726DFA
:1054200077617265204E6F004C6F205469656E6520
:1054300020416374697661646F004F7063696F6EB9
:10544000204E6F20446973706F6E69626C6500FF57
:105450008081408120811091F09090909080108008
:105460001080108F10909080108010FFF03FFFF898
:105470007FFFFCFFFFFEFFF7FEFFE7FEFFC1FEFC24
:10548000C07EF8E63EF9F73EF3FF9EF3FF9EF3FF82
:105490009EF3FF9EF3FF9EF9DF3EF8CE3EFC067EB4
:1054A000FF07FEFFCFFEFFDFFEFFFFFE7FFFFC3F9B
:1054B000FFF83FFFF860000CC0000680080280186B
:1054C00002803E02833F828719C28608C28C006236
:1054D0008C00628C00628C00628C00628620C28725
:1054E00031C283F98280F802803002802002C0003D
:1054F0000660000C3FFFF83FFFF87FFFFCFEFFFE59
:10550000FD7FFEFEC3FEFFBDFEFFA5FEFFB5FEFF55
:10551000A5FEFFB5FEFFA5FEFFB5FEFFA5FEFF66DB
:10552000FEFEC37EFE817EFEC37EFF7EFEFF81FE09
:10553000FFFFFEFFFFFE7FFFFC3FFFF83FFFF8602D
:10554000000CC10006828002813C02804202805A27
:1055500002804A02805A02804A02805A02804A022D
:10556000805A02809902813C82817E82813C8280C5
:105570008102807E02800002C0000660000C3FFFB6
:10558000F83FFFF87FFFFCFFFFFEFFFFFEFFFFFE7F
:10559000FF83FEFE6CFEFCFE7EFBFCBEF9F83EF7D0
:1055A000F1DEF7E3DEF3C79EF7CFDEF7FFDEF9FFAC
:1055B0003EFBFFBEFC007EFFFFFEFFFFFEFFFFFE87
:1055C0007FFFFC3FFFF83FFFF860000CC000068043
:1055D0000002800002807C028193028301828403A6
:1055E000428607C2880E22881C228C3862883022AC
:1055F0008800228600C284004283FF8280000280ED
:105600000002C0000660000C3FFFF83FFFF87FFF7C
:10561000FCFFFFFEFFFFFEFDFFFEF8EFBEF0673E62
:10562000FDE8BEFDE8BEFDE8BEFFE8BEFFE8BEFD4A
:10563000E8BEFDE8BEFDE8BEF0653EF8EDBEFDFD4E
:10564000FEFFFFFEFFFFFEFFFFFE7FFFFC3FFFF8B8
:105650003FFFF860000CC000068000028200028755
:1056600010428F98C28217428217428217428017D7
:10567000428017428217428217428217428F9AC293
:10568000871242820202800002800002C00006608F
:10569000000C3FFFF83FFFF87FFFFCFFFFFEFFFF1E
:1056A000FEFFFFFEFF1FFEFF0FFEFF07FEFF03FED4
:1056B000FF01FEFF00FEFF007EFF00FEFF01FEFF78
:1056C00003FEFF07FEFF0FFEFF1FFEFFFFFEFFFFB3
:1056D000FEFFFFFE7FFFFC3FFFF83FFFF860000C7E
:1056E000C0000680000280000280E00280F002809C
:1056F000F80280FC0280FE0280FF0280FF8280FFB1
:105700000280FE0280FC0280F80280F00280E0024B
:10571000800002800002C0000660000C3FFFF83FDE
:10572000FFF87FFFFCFFFFFEFFFFFEFFFFFEF87CA0
:105730003EF87C3EF87C3EF87C3EF87C3EF87C3EB1
:10574000F87C3EF87C3EF87C3EF87C3EF87C3EF8E7
:105750007C3EF87C3EFFFFFEFFFFFEFFFFFE7FFF6B
:10576000FC3FFFF83FFFF860000CC000068000021D
:105770008000028783C28783C28783C28783C287F0
:1057800083C28783C28783C28783C28783C287839A
:10579000C28783C28783C28783C2800002800002DF
:1057A000C0000660000C3FFFF83FFFF87FFFFCFFE2
:1057B000FFFEFFFFFEFFFFFEF87E3EF87C3EF8385E
:1057C0003EFC107EFE00FEFF01FEFF83FEFF01FE99
:1057D000FE00FEFC107EF8383EF87C3EF8FE3EFFF0
:1057E000FFFEFFFFFEFFFFFE7FFFFC3FFFF83FFFD6
:1057F000F860000CC000068000028000028781C2B1
:105800008783C287C7C283EF8281FF0280FE028046
:105810007C0280FE0281FF0283EF8287C7C28783FA
:10582000C28701C2800002800002C0000660000C36
:105830003FFFF83FFFF87FFFFCFFFFFEFFFFFEFF8B
:10584000F1FEFFEEFEFFDDFEFFDBBEFFDB5EFFDCF9
:10585000DEFFBFDEFF7FBEFEF87EFDF7FEFBEFFE44
:10586000F7DFFEF5BFFEF77FFEF8FFFEFFFFFEFF4E
:10587000FFFE7FFFFC3FFFF83FFFF860000CC00019
:1058800006800002800E02801102802202802442E3
:105890008024A2802322804022808042810782824D
:1058A00008028410028820028A4002888002870051
:1058B00002800002C0000660000C3FFFF83FFFF8C6
:1058C0007FFFFCFFFFFEFFFFFEFFFFFEFF83FEFEEC
:1058D000001EFE009EFE01DEFE009EFE001EFF83F7
:1058E000FEFFC7FEFFEFFEFFFFFEFC007EFFFFFE98
:1058F000F0001EF0001EFFFFFEFFFFFE7FFFFC3FDB
:10590000FFF83FFFF860000CC00006800002800036
:1059100002807C0281FFE281FF6281FE2281FF62C0
:1059200081FFE2807C0280380280100280000283C6
:10593000FF828000028FFFE28FFFE2800002C00042
:105940000660000C3FFFF83FFFF87FFFFCFFFFFE03
:10595000FFFFFEFFC7FEFF39FEFEFEFEFDFF7EFDE0
:10596000D77EFDAB7EFDBB7EFDD77EFED6FEFEC69E
:10597000FEFF01FEFF83FEFF83FEFF83FEFFC7FEE7
:10598000FFFFFEFFFFFE7FFFFC3FFFF83FFFF860D9
:10599000000CC0000680000280380280C60281012F
:1059A00002820082822882825482824482822882F9
:1059B00081290281390280FE02807C02807C028083
:1059C0007C02803802800002C0000660000C3FFFAD
:1059D000F83FFFF87FFFFCFFFFFEFFFFFEFFC7FE63
:1059E000FF01FEFE00FEFC007EFC287EFC547EFCD7
:1059F000447EFC287EFE28FEFE38FEFF01FEFF836B
:105A0000FEFF83FEFF83FEFFC7FEFFFFFEFFFFFEDC
:105A10007FFFFC3FFFF83FFFF860000CC0000680EE
:105A2000000280380280FE0281FF0283FF8283D75A
:105A30008283AB8283BB8283D78281D70281C702F4
:105A400080FE02807C02807C02807C0280380280A2
:105A50000002C0000660000C3FFFF83FFFF87FFF28
:105A6000FCFFFFFEFFFFFEFFCC7EFFB57EFF497E01
:105A7000FEB57EFD7A7EFAFD7EF5FEBEF3FF3EFBAF
:105A8000FF7EFB877EFBB77EFBB77EFBB77EFBB757
:105A90007EF8007EFFFFFEFFFFFE7FFFFC3FFFF86A
:105AA0003FFFF860000CC000068000028033828057
:105AB0004A8280B682814A828285828502828A01F8
:105AC000428C00C284008284788284488284488226
:105AD00084488284488287FF82800002C00006607A
