:100000000C94DC470C940D480C940D480C940D484E
:100010000C940D480C940D480C940D480C940D480C
:100020000C940D480C940D480C940D480C940D48FC
:100030000C940D480D942B880C940D480C940D488D
:100040000C940D480D945C010C940D480C940D48D3
:100050000C940D480C940D480D944D420D94E1877D
:100060000C940D480C9470B40C9440B40C940D484E
:100070000C940D480C940D480C940D480C940D48AC
:100080000C940D480C940D480C940D480C940D489C
:100090000C940D480C940D480C940D480C940D488C
:1000A0000C940D480C940D480C940D480C940D487C
:1000B0000C940D480C940D480C940D480C940D486C
:1000C0000C940D480C940D480C940D480D94F38835
:1000D0000D94CA880C940D480C940D480C940D484E
:1000E0000C940D489D4DA84DD14D2D4E824E024F82
:1000F0000B4F8B7E997DCF7DC77ECF7DCF7DCF7D12
:10010000CF7DCF7DCF7DCF7DCF7DCF7DCF7DCF7D8F
:10011000CF7DCF7DCF7DCF7DCF7DCF7DCF7DCF7D7F
:10012000CF7DCF7DCF7DCF7DCF7DCF7DCF7DC17E7C
:10013000CF7DCF7DCF7DCF7DCF7DCF7DCF7DCF7D5F
:100140009B7ECF7DCF7DCF7DCF7DCF7DCF7DCF7D82
:10015000CF7DCF7DCF7DE47ECC7D4EFA2AFA06FAA4
:10016000E2F9BEF99AF976F952F92EF90AF9E6F8A8
:10017000C2F89EF87AF856F832F80EF8EAF7C6F7A1
:10018000A2F77EF75AF736F764F564F564F564F57F
:1001900064F564F564F564F564F564F564F564F597
:1001A00064F564F564F564F564F564F564F564F587
:1001B00064F564F564F564F564F564F564F564F577
:1001C00064F564F564F564F564F564F564F564F567
:1001D00064F564F564F564F564F564F564F564F557
:1001E00064F564F564F564F564F564F564F564F547
:1001F00064F564F564F564F564F564F564F564F537
:1002000064F564F564F564F564F564F564F564F526
:1002100064F564F564F564F564F564F564F564F516
:1002200064F512F7EEF6CAF6A6F682F65EF63AF630
:1002300016F6F2F5CEF5AAF542F516FE27FE38FEC3
:1002400049FE5AFEBEFDCFFDE0FDF1FD96FDAAFD83
:1002500082FD02FEFAFE6EFE7DFE8AFE97FEA4FE81
:10026000B1FEBEFECBFE07FF14FF25FFD8FE9F02A6
:1002700027031B0353030F03F30119021F035F033B
:10028000FB01F9010102D9011702F301C5010703BE
:100290005703DB027B024B02A70209030503470257
:1002A0002303D302F1012D03DD013B02CF0205033D
:1002B000450275022F03FF013102C902EB01210241
:1002C00083025902C302C10131030502D90251025E
:1002D0001D021F024D02F902130359036902FD02B8
:1002E000A502DF010B03E3014503B702F302E902B4
:1002F00027024F02BF02D501E302D7016103DF02EB
:10030000F10285025503D3015D02B10215024F03CC
:10031000E702ED01EF01CF01B3022902CD01150380
:100320003B033D033F027102ED02C502C301D5024A
:100330004B03084AD73B3BCE016E84BCBFFDC12FA7
:100340003D6C74319ABD56833DDA3D00C77F11BEC6
:10035000D9E4BB4C3E916BAAAABE000000803F05C9
:10036000A84CCDB2D44EB93836A9020C50B99186FA
:1003700088083CA6AAAA2ABE000000803F000D946F
:100380001E9C0D9413430D943B760D949A1C0D9472
:1003900082930D94605C0D94926E0D9443770D944E
:1003A0007A720D94CF860D94CA730D94D2710D9408
:1003B000C6740D94901C0D944E100D94C6230D948C
:1003C00028650D94FA680D943E650D94F5920D9490
:1003D0001B870D94F68F0D94E8420D94CE720D9408
:1003E000A4720D94B2230D94A71C0D94BA390D94E8
:1003F000364E0D94861C0D94821C0D94E6650D946A
:10040000A9420D948C1C0D94B76E0D941B430D9452
:10041000046C0D94A13E0D9414310D941A750D9435
:10042000AA6E0D942E500D9474870D944C730D94F8
:10043000941C0D94741C0D94078C0D9428430D94FA
:100440002B430D9403430D9409950D949D680D94D1
:1004500050720D9417770D94D98F0D94EF4F0D9422
:1004600013370D94B9420D94EB300D9429330D944C
:100470008A860D94D5380D94D5230D94DB680D94A0
:10048000EB760D94B1670D94B7690D94E9230D9443
:1004900098230D94B4500D947A230D9430430D9409
:1004A00026720D9423430D94E0690D94BA920D9435
:1004B0005B250D940B430D94C64C0D94A0730D94C5
:1004C0004D6F0D945F700D9449160D94E43E0D949C
:1004D000193D0D9407650D94AE6A0D942C920D9400
:1004E000AC870D949B770D94910C0D94F3230D9490
:1004F000B08F0D94C06D0D9475230D94D7390D9464
:100500001E320D942E2D0D9408430D941E740D94DF
:1005100099310D9498860D943D860D949F340D94D9
:10052000760C0D944A240D94A3910D94565D0D9470
:10053000A68A0D947F660D947E590D94096F0D94D3
:100540006D1C0D9460650D946A5B0D941E650D9491
:1005500084230D9476860D94C4500D9468120D94E6
:1005600001150D9476730D9419710D9499110D94D4
:10057000D1640D94D4500D94BC680D9427680D94EB
:10058000FC710D9403920D9410430D94F3770D9428
:100590009D6E0D94D8420D9470370D942B8D0D9453
:1005A000DF230D94B1910D94A8230D946F770D94D2
:1005B00067860D9420430D9470230D94E06E0D9486
:1005C00072740D9423690D94F0740D945E8F0D94E4
:1005D000F8720D947E710D94F1270D94C7770D94E8
:1005E000036A0D9448740D94A8710D94834E0D9474
:1005F000596B0D9433430D9435580D9414650D9437
:1006000083330D94CA360D94CA930D9407240D9428
:100610009E1C0D948E230D9433650D945F890D946B
:10062000691C0D94A60D0D9438430D9467760D94B6
:10063000878F0D9453690D945F1C0D948B540D940A
:10064000781C0D94F4130D94A0230D94D36C0D9489
:10065000701C0D94968E0D94358F0D94BC230D94C3
:10066000FD230D9418430D948E690D94DA910D9429
:1006700026170D94FA0E0D9493760D94BF760D9473
:100680005B0C0D94033A0D94A3320D94EE640D941B
:10069000A44E0D9455920D94D7750D94AE870D947C
:1006A00022730D94745A0D94631C0D94F4730D947D
:1006B000A21C0D9442430D945E4E0D94C5400D94C2
:1006C0007E1C0D949C744E414E494E495459494EDE
:1006D00046CDCCCC3D0AD7233C17B7D13877CC2BAD
:1006E000329595E6241FB14F0A000020410000C852
:1006F0004200401C4620BCBE4CCA1B0E5AAEC59DD3
:100700007400407A10F35A00A0724E18090010A528
:10071000D4E80000E87648170000E40B540200001B
:10072000CA9A3B000000E1F50500008096980000A1
:100730000040420F000000A08601000000102700CA
:10074000000000E803000000006400000000000A50
:1007500000000000000100000000002C76D888DCBA
:10076000674F0823DFC1DFAE59E1B1B796E5E3E497
:1007700053C63AE651997696E8E6C28426EB898C10
:100780009B62ED407C6FFCEFBC9C9F40F2BAA56F72
:10079000A5F490055A2AF75C936B6CF9676DC11B41
:1007A000FCE0E40D47FEF520E6B500D0ED902E0309
:1007B00000943577050080841E080000204E0A0052
:1007C0000000C80C333333330F986E12831141EF9E
:1007D0008D2114893BE65516CFFEE6DB18D1844BFC
:1007E000381BF77C1D901DA4BBE424203284725E6C
:1007F000228100C9F124ECA1E53D27414C4C004386
:100800004F4D4D554E49434154494F4E0044525966
:1008100052554E004552524F525300494E464F00DA
:100820004543484F005265706F736F2E2E2E004166
:1008300075746F6C6576656C3A206F6E004D616EF5
:1008400075616C6576656C3A206F6E0050756E74DC
:100850006F20616C63616E7A61646F00473239208A
:100860005334002F3900200050756E746F004D35E1
:1008700030300A4732380A47312058313020593158
:1008800030205A31300A4D313137204175746F6C48
:10089000657665207265616C697A61646F004732C4
:1008A00039205335004732392053350A4731205A11
:1008B00030204631353030004737370A473239204B
:1008C0005335005A206E6F7420656E7465726564CE
:1008D0002E0059206E6F7420656E74657265642EEB
:1008E0000059206F7574206F662072616E676520F5
:1008F00028312D33292E0058206E6F7420656E74B8
:10090000657265642E0058206F7574206F662072C2
:10091000616E67652028312D33292E00473239203A
:100920005334004732380A47323920533200457277
:10093000726F723A204175746F2D43616C696272F7
:100940006163696F6E2061706167616461005A2044
:100950006F66667365742041637475616C3A20003C
:10096000532053757065726120656C206E756D65DE
:10097000726F20646520636F6D616E646F732037E2
:100980002E003C3C3C2067636F64655F473330005A
:10099000205A3A200020593A200020583A2000429C
:1009A0006564003E3E3E2067636F64655F47333099
:1009B00000205A3A200020593A200020583A2000BE
:1009C0004265640020453A00205A3A0020593A0016
:1009D0003C2D583A00205300536176656420706FB7
:1009E000736974696F6E00496E76616C6964207317
:1009F0006C6F742C20746F74616C20736C6F7473E3
:100A00003A20003A0020002D3E002053005265732A
:100A1000746F72696E6720706F736974696F6E00AE
:100A2000496E76616C696420736C6F742C20746FEE
:100A300074616C20736C6F74733A2000537461722C
:100A400074205072696E74696E670053746F702001
:100A50005072696E74696E670053696E206D6F76AF
:100A6000696D69656E746F00456E642066696C65BA
:100A7000206C69737400426567696E2066696C65F5
:100A8000206C697374002F005344207072696E7477
:100A9000696E67206279746520004E6F742053443C
:100AA000207072696E74696E67005072696E74208E
:100AB00074696D6520002569682025696D202569A8
:100AC0007300256964202569682025696D202569E2
:100AD00073004469726563746F7279206372656133
:100AE000746564004372656174696F6E2066616944
:100AF0006C656400436C6F73652066696C6520618A
:100B00006E64207361766520726573746172742EF1
:100B100067636F64650020616E6420737461727432
:100B2000207072696E742E004F70656E2066696C5D
:100B3000653A20004B757474657263726166742047
:100B40004F46462E0043616C656E74616E646F2E75
:100B50002E2E004B75747465726372616674206C1E
:100B6000697374612E006F66660020081B08140804
:100B70000D08FF07FB0744656275673A0050415254
:100B800041444120444520454D4552472E004D31BA
:100B900031332053004649524D574152455F4E4133
:100BA0004D453A4B555454455243524146545F5675
:100BB00020342E302E38204649524D574152455F41
:100BC00055524C3A687474703A2F2F7777772E6BA2
:100BD000757474657263726166742E636F6D2F73C2
:100BE0006F6674776172652050524F544F434F4C7B
:100BF0005F56455253494F4E3A322E30204D4143B5
:100C000048494E455F545950453A43617274657383
:100C100069616E2045585452554445525F434F55C3
:100C20004E543A3220555549443A33323462666163
:100C300034322D613432372D313165362D383066FE
:100C4000352D3736333034646563376562370A00D3
:100C50006373746570733A2000655F6D696E3A2046
:100C6000007A5F70726F62653A20007A5F6D696E1C
:100C70003A2000795F6D696E3A2000785F6D696E89
:100C80003A20005265706F7274696E6720656E64F9
:100C900073746F702073746174757300205A002030
:100CA0005900580020204D61783A2000205A002039
:100CB0005900580020204D696E3A2000536F667429
:100CC00020656E6473746F70733A0043290061622B
:100CD0006C656420286D696E2074656D702000431A
:100CE0006F6C6420657874727564657320617265D9
:100CF00020004F6666736574206170706C6965646E
:100D00002E004F6666736574206170706C6965644F
:100D10002E004572723A20546F6F20666172210076
:100D2000546F6F206661722066726F6D2072656607
:100D30006572656E636520706F696E7400436170E3
:100D4000613A200020496E76616C69642065787490
:100D5000727564657200540041637469766520455C
:100D6000787472756465723A2000416374697665BF
:100D7000204472697665723A20003C3C3C206763EF
:100D80006F64655F5400203A2041465445520A0082
:100D900063757272656E745F706F736974696F6E7C
:100DA0003D00203A204245464F52450A0063757285
:100DB00072656E745F706F736974696F6E3D002940
:100DC000003E3E3E2067636F64655F54280022004A
:100DD000436F6D616E646F206E6F20656E636F6E22
:100DE000747261646F3A2022004D363030004D3607
:100DF00030300073652061637469766F203100457F
:100E000063686F3A0056657273696F6E3A00436F9C
:100E10006E66696775726163696F6E0041726765BE
:100E20006E74696E6100496E6475737472696100F5
:100E30004B55545445524352414654000000000F54
:100E40000000000000000019800000000000007099
:100E5000E0000000000000C6300000000000039F1A
:100E60009C00000000000E3FC7000000000038FF9B
:100E7000F1C00000000063FFFC6000000001CFFF34
:100E8000FF38000000071FFFFF8E0000001C7FFFDF
:100E9000FFE380000031FFFFFFF8C00000E7FFFF25
:100EA000FFFE7000038FFFFFFFFF1C000E3FFFFFE0
:100EB000FFFFC70018FE07FFF007F18033FE07FFB2
:100EC000E00FFCC027FE07FFC01FFE402FFE07FFFC
:100ED000803FFF402FFE07FF007FFF402FFE07FFF0
:100EE00000FFFF402FFE07FE01FFFF402FFE07FC23
:100EF00000FFFF402FFE07F8007FFF402FFE07F0A6
:100F0000003FFF402FFE07E000007F402FFE07C09C
:100F100000007F402FFE07807FFFFF402FFE07006D
:100F2000FFFFFF402FFE0601FFFFFF402FFE0403DF
:100F3000FFFFFF402FFE0003FFFFFF402FFE0401D5
:100F4000FFFFFF402FFE0600FFFFFF402FFE0700C0
:100F50007FFFFF402FFE078000007F402FFE07C06D
:100F600000007F402FFE07E0003FFF402FFE07F00C
:100F7000007FFF402FFE07F800FFFF402FFE07FC19
:100F800001FFFF402FFE07FE00FFFF402FFE07FF7F
:100F9000007FFF402FFE07FF803FFF402FFE07FF2F
:100FA000C01FFF402FFE07FFE00FFF4027FE07FF97
:100FB000F007FE4033FE07FFF803FCC018FE07FFF2
:100FC000FC01F1800E3FFFFFFFFFC700038FFFFF13
:100FD000FFFF1C0000E7FFFFFFFE70000031FFFF76
:100FE000FFF8C000001C7FFFFFE3800000071FFF29
:100FF000FF8E00000001CFFFFF380000000063FFFC
:10100000FC600000000038FFF1C0000000000E3F4F
:10101000C70000000000039F9C000000000000C605
:101020003000000000000070E00000000000001927
:10103000800000000000000F000000000000000021
:1010400000000000000000000000000000000000A0
:101050000000000000000000000000000000000090
:101060000000000000000000000000000000000080
:1010700000000000000000000000656E6473746FE3
:101080007073206869743A20202563202563202529
:101090006320256300205A3A0020593A0020583A2C
:1010A00000656E6473746F7073206869743A200011
:1010B0004D32390050415241444120444520454D74
:1010C0004552472E00504152414441005072696ED2
:1010D0007465722073746F70706564206475652028
:1010E000746F206572726F72732E20466978207457
:1010F0006865206572726F7220616E642075736519
:10110000204D39393920746F20726573746172749F
:101110002E202854656D7065726174757265206942
:10112000732072657365742E205365742069742072
:1011300061667465722072657374617274696E673A
:1011400029004E6F204C696E65204E756D62657288
:10115000207769746820636865636B73756D2C20F4
:101160004C617374204C696E653A20004E6F2043C9
:101170006865636B73756D2077697468206C696E40
:1011800065206E756D6265722C204C617374204C05
:10119000696E653A2000636865636B73756D206DD9
:1011A00069736D617463682C204C617374204C69A1
:1011B0006E653A20004C696E65204E756D626572F1
:1011C000206973206E6F74204C617374204C696EBB
:1011D00065204E756D6265722B312C204C617374E5
:1011E000204C696E653A20004D313130004D33316D
:1011F000004D383420582059205A2045004D3530B4
:10120000300053442072656164206572726F720011
:10121000446F6E65207072696E74696E67206669CE
:101220006C650020496E76616C6964206578747223
:1012300075646572004D000000524300009B43003E
:1012400000484300000000000000000000000020F3
:101250003A2073796E635F706C616E5F706F736953
:1012600074696F6E0A0063757272656E745F706F79
:10127000736974696F6E3D00203A20636C65616E1E
:101280005F75705F61667465725F656E6473746FBD
:10129000705F6F725F70726F62655F6D6F76650A07
:1012A0000063757272656E745F706F736974696FD5
:1012B0006E3D0029002C20002C200028003E3E3EE0
:1012C00020646F5F626C6F636B696E675F6D6F76D2
:1012D000655F746F006465706C6F793A2000203A26
:1012E000207365745F70726F62655F6465706C6FA8
:1012F0007965640A0063757272656E745F706F73EE
:101300006974696F6E3D00203A203C3C3C20646F5C
:101310005F70726F62655F6D6F76650A00637572EC
:1013200072656E745F706F736974696F6E3D0020D3
:101330003A203E3E3E20646F5F70726F62655F6D63
:101340006F76650A0063757272656E745F706F7395
:101350006974696F6E3D002042403A0020403A00B7
:10136000202F0020423A00202F0020543A00203A3B
:101370002073657475705F666F725F656E647374F9
:101380006F705F6F725F70726F62655F6D6F7665B1
:101390000A0063757272656E745F706F7369746949
:1013A0006F6E3D00206669727374005900580048E2
:1013B0006F6D6520002066697273740059005800D3
:1013C000486F6D6520003C3C3C2067636F64655F3F
:1013D00047323800203A204D424C20486F6D65203E
:1013E00058206F7220590A0063757272656E745FBF
:1013F000706F736974696F6E3D00203A204D424CE6
:101400002052657374204F726967696E0A006375B4
:101410007272656E745F706F736974696F6E3D0090
:101420004D424C205A20686F6D696E67004D424CEA
:1014300020686173206D65736800203A2028686F0A
:101440006D655F616C6C5F61786973207C7C20687E
:101450006F6D655A29203E2066696E616C0A0063D3
:10146000757272656E745F706F736974696F6E3DCB
:10147000003C3C3C205A5F534146455F484F4D4934
:101480004E4700536F6E6461205A20667565726125
:1014900000536F6E6461205A20667565726100208A
:1014A0003A205A5F534146455F484F4D494E4720C9
:1014B0003E20686F6D655F616C6C5F617869730A6F
:1014C0000064657374696E6174696F6E3D00203AE3
:1014D000205A5F534146455F484F4D494E47203E95
:1014E00020686F6D655F616C6C5F617869730A007D
:1014F00063757272656E745F706F736974696F6E15
:101500003D003E205A5F534146455F484F4D494E8E
:1015100047203E3E3E00203A20686F6D65590A0024
:1015200063757272656E745F706F736974696F6EE4
:101530003D00203A20686F6D65580A00637572722D
:10154000656E745F706F736974696F6E3D00526190
:10155000697365205A20286265666F726520686F1E
:101560006D696E672920746F20003E20656E64737C
:10157000746F70732E656E61626C65287472756528
:101580002900203A20536574205A20746F2070720D
:10159000655F686F6D655F7A0A0063757272656E6C
:1015A000745F706F736974696F6E3D004D424C20BB
:1015B00077617320616374697665003E3E3E206703
:1015C000636F64655F47323800636F6C64206578D1
:1015D00074727573696F6E2070726576656E74656E
:1015E000640000416C677569656E2070756C736F7F
:1015F00020656C2073656E736F7220646520666968
:101600006C616D656E746F3A20004D36303000733A
:10161000652061637469766F203200504152414405
:101620004120444520454D4552472E0050415241EE
:10163000444120444520454D4552472E0070617578
:1016400073612070617261206573706572610070F2
:101650006175736120706172612075736F007072C3
:101660006F636573616E646F00627573793A0045EC
:1016700072726F722074656D70004D75657274655D
:1016800020646520696D707265736F72612E206BC6
:10169000696C6C28292063616C6C656421002900E9
:1016A0003C3C3C207365745F617869735F69735F6C
:1016B00061745F686F6D652800203A200A006375C9
:1016C0007272656E745F706F736974696F6E3D00DE
:1016D0005D203D2000686F6D655F6F6666736574A1
:1016E0005B007A70726F62655F7A6F6666736574AD
:1016F000203D20000000000000000000000000006D
:1017000029003E3E3E207365745F617869735F69AE
:10171000735F61745F686F6D6528005761726E69F1
:101720006E673A20486F6D696E672042756D702054
:1017300044697669736F72203C20310029003C3C7B
:101740003C20686F6D656178697328003E20002039
:101750003A204146544552207365745F617869733D
:101760005F69735F61745F686F6D650A00637572AE
:1017700072656E745F706F736974696F6E3D003E61
:1017800020326E6420486F6D6520003E20317374F6
:1017900020486F6D6520000000524300009B43000D
:1017A0000048433E2000FFFFFF29003E3E3E2068E8
:1017B0006F6D65617869732800494E46004E414E51
:1017C0000003E0000C9800180C00201A00303E00C6
:1017D00040710040E10061C30041810040010030E0
:1017E00006002002001FFC0043617061733A005A3A
:1017F00000590020003F005800092000092000097E
:101800002000092000462D2D3A2D2D00542D2D3A73
:101810002D2D00462D2D3A2D2D0010410008208041
:101820000820801041002082004104004104002073
:101830008200104100000000FFFFC0FFFFC0104108
:101840000020820041040041040020820010410079
:10185000082080082080104100000000FFFFC0FF2A
:10186000FFC000E00000E00000E00003F80007FF18
:10187000C007FEC007FC4007FEC007FFC001F00024
:1018800000E00000400000E00000E00000E0000395
:10189000F80007FFC007FFC007FFC007FFC007FF32
:1018A000C001F00000E0000040003FFF0070038036
:1018B000E619C0CF3CC09F3E40BF3F40BE1F409C8A
:1018C000CE4081E04081E0409CCE40BE1F40BF3F03
:1018D000409F3E40CF3CC0E619C07003803FFF00F0
:1018E0003FFF00700380E3F1C0C3F0C081E040809F
:1018F000C040B00340B8C740BDEF40BDEF40B8C7DF
:1019000040B0034080C04081E040C3F0C0E3F1C07C
:101910007003803FFF00566F6C766572004D6170FA
:10192000612044652043616D61004D6F64696669A3
:10193000636172204F666673657400416A757374E3
:1019400065732064652063616D6100566F6C766518
:10195000720050726564657465726D696E61646F62
:10196000004D31313720456E667269616E646F00DB
:101970004D38340A204D313137204D6F746F72204D
:101980004170616761646F0056656C6F6369646183
:1019900064006C612076656C6F63696461640053F8
:1019A000656C656363696F6E6500466C756A6F0090
:1019B000466C756A6F0053656C656363696F6E652D
:1019C0000076616C6F7220696E696369616C0042B8
:1019D0006F7175696C6C61006C612074656D706508
:1019E0007261747572610053656C656363696F6ED3
:1019F000650043616D612063616C69656E746500AB
:101A00006C612074656D70657261747572610053EC
:101A1000656C656363696F6E65004D333133004DEE
:101A20003131370046616E2064652063617061006A
:101A30006C612076656C6F63696461640053656CEA
:101A4000656363696F6E65003FFFF87FFFFCFFFF12
:101A5000FEFFFFFEF770FEFAEF7EFDE97EFAED7EF7
:101A6000F7697EFFED7EFFE97EFFED7EFFE97EFFF9
:101A7000D9BEFFB0DEFFA05EFFB0DEFFDFBEFFE03D
:101A80007EFFFFFEFFFFFE7FFFFC3FFFF83FFFF8FA
:101A900060000CC00006800002888F0285108282E0
:101AA0001682851282889682801282801682801227
:101AB00082801682802642804F22805FA2804F2241
:101AC000802042801F82800002C0000660000C3F20
:101AD000FFF83FFFF87FFFFCFFFFFEFFBBFEFE3875
:101AE000FEFC387EF8383EF0381EF07C1EE0C60E54
:101AF000FF83FEFF83FEFF83FEE0C60EF07C1EF038
:101B0000381EF8383EFC387EFE38FEFFBBFEFFFF75
:101B1000FE7FFFFC3FFFF83FFFF860000CC00006AF
:101B200080440281C70283C78287C7C28FC7E28F02
:101B300083E29F39F2807C02807C02807C029F39A4
:101B4000F28F83E28FC7E287C7C283C78281C70251
:101B5000804402C0000660000C3FFFF83FFFF87FA2
:101B6000FFFCFFFFFEFFFFFEFFFFFEFFFFFEFFFF8C
:101B7000FEFDEF7EFEF7BEFEF7BEFDEF7EFBDEFE56
:101B8000F7BDFEF7BDFEFBDEFEFDEF7EFFFFFEF0C4
:101B9000001EF0001EFFFFFEFFFFFE7FFFFC3FFF69
:101BA000F83FFFF860000CC00006800002800002D1
:101BB00080000280000282108281084281084282F5
:101BC000108284210288420288420284210282100B
:101BD000828000028FFFE28FFFE2800002C00006D9
:101BE00060000C3FFFF854656D706572617475722A
:101BF0006100506F72206661766F72206573706548
:101C00007265004B75747465726372616674206CE2
:101C1000697374612E00526573756D69656E646FCA
:101C200020496D7072652E004573706572616E6437
:101C30006F206F7264656E6573004D313234004DF4
:101C40003132330046696C652064656C6574656487
:101C50000044656C6574696F6E206661696C6564CB
:101C60000046696C652064656C657465640046694E
:101C70006C616D656E74207072696E7465643A2073
:101C800000202025754B6D2025756D202575636D11
:101C90002025756D6D00506F776572206F6E207412
:101CA000696D653A200020202575206461797320D4
:101CB000257520686F757273202575206D696E75A6
:101CC00074657300546F74616C207072696E742057
:101CD00074696D653A200020202575206461797350
:101CE00020257520686F757273202575206D696ECB
:101CF00075746573002C204661696C65643A200038
:101D00002C2046696E69736865643A2000507269D8
:101D10006E7420737461746973746963733A2054C8
:101D20006F74616C3A200043616C656E74616D691B
:101D3000656E746F204F6B2E003F0020573A0043B2
:101D4000616C656E74616E646F2E2E2E004B75741F
:101D50007465726372616674206C697374612E00BD
:101D600043616D61204F6B2E0043616C656E746141
:101D70006E646F2043616D612E0053657474696EEB
:101D8000672054726176656C20616363656C65726F
:101D90006174696F6E3A200053657474696E6720D0
:101DA0005265747261637420616363656C6572610E
:101DB00074696F6E3A200053657474696E672050C1
:101DC00072696E7420616363656C65726174696FBA
:101DD0006E3A200053657474696E67205072696EA4
:101DE0007420616E642054726176656C2061636357
:101DF000656C65726174696F6E3A200020496E7679
:101E0000616C696420686F74656E64004D002C001D
:101E10002C002000486F74656E64206F66667365E1
:101E200074733A00496E76616C69642065787472E7
:101E3000756465720020443A0020493A0020503A07
:101E40000048004D343231207265717569726573D6
:101E50002058595A206F7220494A5A207061726185
:101E60006D6574657273004D657368205859206FF5
:101E70007220494A2063616E6E6F74206265207221
:101E800065736F6C766564004D65736820585920E2
:101E90006F7220494A2063616E6E6F742062652004
:101EA0007265736F6C766564005265746972616EF9
:101EB000646F200A005265746972616E646F200A53
:101EC0000063617267616E646F200A005265696E1B
:101ED00069636965206D617175696E6100426F7437
:101EE0006F6E2070756C7361646F20454D470045BF
:101EF00072726F722077726974696E6720746F20D6
:101F0000454550524F4D2100206279746573290078
:101F100053657474696E67732053746F72656420BF
:101F20002800454550524F4D20636865636B7375BB
:101F30006D206D69736D61746368002D2D2D2D2DDD
:101F40002D2D2D2D2D2D2D2D2D2D2D2D2D2D2D2DC1
:101F50002D2D2D2D2D2D2D2D2D2D2D2D2D2D2D2DB1
:101F60002D2D2D2D2D2D2D2D2D2D2D2D2D2D2D2DA1
:101F70002D2D2D2D2D2D2D2D2D2D2D2D2D2D2D00BE
:101F800020627974657329002020202020202020E1
:101F9000202020202020202053746F72656420733D
:101FA000657474696E6773207265747269657665AD
:101FB000642028005D2053746F726564207665721A
:101FC00073696F6E3A205B0056657273696F6E3A83
:101FD000205B002D2D2D2D2D2D2D2D2D2D2D2D2D3D
:101FE0002D2D2D2D2D2D2D2D2D2D2D2D2D2D2D2D21
:101FF0002D2D2D2D2D2D2D2D2D2D2D2D2D2D2D2D11
:102000002D2D2D2D2D2D2D2D2D2D2D2D2D2D2D2D00
:102010002D2D2D2D2D2D2D002D2D2D2D2D2D2D2D1D
:102020002D2D2D2D2D2D2D2D2D2D2D2D2D2D2D2DE0
:102030002D2D2D2D2D2D2D2D2D2D2D2D2D2D2D2DD0
:102040002D2D2D2D2D2D2D2D2D2D2D2D2D2D2D2DC0
:102050002D2D2D2D2D2D2D2D2D2D2D2D002D2D2DDD
:102060002D2D2D2D2D2D2D2D2D2D2D2D2D2D2D2DA0
:102070002D2D2D2D2D2D2D2D2D2D2D2D2D2D2D2D90
:102080002D2D2D2D2D2D2D2D2D2D2D2D2D2D2D2D80
:102090002D2D2D2D2D2D2D2D2D2D2D2D2D2D2D2D70
:1020A0002D0020450020204D3230352054002045A1
:1020B00000205A00205800204200205600202020F6
:1020C00020205300002020202020202020285A3DBE
:1020D0006D6178696D756D205A206A65726B202874
:1020E0006D6D2F73292C2020453D6D6178696D75CC
:1020F0006D2045206A65726B20286D6D2F7329292C
:102100000020202020202028423D6D696E696D75D9
:102110006D207365676D656E742074696D65202828
:102120006D73292C20583D6D6178696D756D20584F
:1021300059206A65726B20286D6D2F732929002044
:1021400020202020202028533D4D696E20666565A3
:10215000647261746520286D6D2F73292C20563DA3
:102160004D696E2074726176656C20666565647277
:1021700061746520286D6D2F73292900202020208F
:10218000202020202020202020202020202020204F
:102190002020202020202020202020284D323035D3
:1021A0002900202020202020202020202020202046
:1021B0002020202020202020202020202020207CC3
:1021C000416476616E6365647C002D2D2D2D2D2D6F
:1021D0002D2D2D2D2D2D2D2D2D2D2D2D2D2D2D2D2F
:1021E0002D2D2D2D2D2D2D2D2D2D2D2D2D2D2D2D1F
:1021F0002D2D2D2D2D2D2D2D2D2D2D2D2D2D2D2D0F
:102200002D2D2D2D2D2D2D2D2D2D2D2D2D2D002038
:1022100020202020202020202020202020202020BE
:10222000202020202020436F6E66696775726174DC
:10223000696F6E20416476616E636564002D2D2D9B
:102240002D2D2D2D2D2D2D2D2D2D2D2D2D2D2D2DBE
:102250002D2D2D2D2D2D2D2D2D2D2D2D2D2D2D2DAE
:102260002D2D2D2D2D2D2D2D2D2D2D2D2D2D2D2D9E
:102270002D2D2D2D2D2D2D2D2D2D2D2D2D2D2D2D8E
:102280002D0020204D3230302054312044002020B9
:102290004D32303020440046696C616D656E7420AB
:1022A00073657474696E67733A00204400204900B6
:1022B000205000202020202020202020202020200E
:1022C0002020204800202020202020202020202006
:1022D00020202020202020202020202020202020FE
:1022E00020202020284D333031290020202020209C
:1022F00020202020202020202020202020202020DE
:102300002020202020207C5049442073657474696B
:102310006E67737C002D2D2D2D2D2D2D2D2D2D2D0A
:102320002D2D2D2D2D2D2D2D2D2D2D2D2D2D2D2DDD
:102330002D2D2D2D2D2D2D2D2D2D2D2D2D2D2D2DCD
:102340002D2D2D2D2D2D2D2D2D2D2D2D2D2D2D2DBD
:102350002D2D2D2D2D2D2D2D2D0020202020202028
:10236000202020202020202020202020202020206D
:10237000202020436F6E66696775726174696F6EA5
:1023800020504944002D2D2D2D2D2D2D2D2D2D2D61
:102390002D2D2D2D2D2D2D2D2D2D2D2D2D2D2D2D6D
:1023A0002D2D2D2D2D2D2D2D2D2D2D2D2D2D2D2D5D
:1023B0002D2D2D2D2D2D2D2D2D2D2D2D2D2D2D2D4D
:1023C0002D2D2D2D2D2D2D2D2D0020204D36363649
:1023D0002050005A2050726F6265206F66667365E8
:1023E0007420286D6D293A00205A002059002020C1
:1023F00047323920533320580020590020580020FC
:10240000204D3432302053004D657368206265647E
:10241000206C6576656C696E673A00205A00205919
:1024200000205800202020202020202020202020B4
:102430002020202020205400202020202020202088
:10244000202020202020202020202020202020208C
:102450007C486F74656E64206F66667365742028AF
:102460006D6D297C0020202020202020202020208D
:10247000202020202020202020202020202020205C
:1024800020202020284D32313829002020202020F3
:10249000202020202020202020202020202020203C
:1024A0002020207C486F74656E64206F66667365BB
:1024B0007420286D6D297C0000205A0020590020CE
:1024C000202020202020202020202020202020200C
:1024D00020205800202020202020202020202020E4
:1024E00020202020202020202020202020202020EC
:1024F000202020284D323036290020202020202086
:1025000020202020202020202020202020202020CB
:102510002020207C486F6D65206F6666736574208F
:10252000286D6D297C002D2D2D2D2D2D2D2D2D2D42
:102530002D2D2D2D2D2D2D2D2D2D2D2D2D2D2D2DCB
:102540002D2D2D2D2D2D2D2D2D2D2D2D2D2D2D2DBB
:102550002D2D2D2D2D2D2D2D2D2D2D2D2D2D2D2DAB
:102560002D2D2D2D2D2D2D2D2D2D00202020202009
:10257000202020202020202020202020202020205B
:10258000202020436F6E66696775726174696F6E93
:10259000206F6666736574002D2D2D2D2D2D2D2D2C
:1025A0002D2D2D2D2D2D2D2D2D2D2D2D2D2D2D2D5B
:1025B0002D2D2D2D2D2D2D2D2D2D2D2D2D2D2D2D4B
:1025C0002D2D2D2D2D2D2D2D2D2D2D2D2D2D2D2D3B
:1025D0002D2D2D2D2D2D2D2D2D2D2D2D002D2D2D58
:1025E0002D2D2D2D2D2D2D2D2D2D2D2D2D2D2D2D1B
:1025F0002D2D2D2D2D2D2D2D2D2D2D2D2D2D2D2D0B
:102600002D2D2D2D2D2D2D2D2D2D2D2D2D2D2D2DFA
:102610002D2D2D2D2D2D2D2D2D2D2D2D2D2D2D2DEA
:102620002D002020202020202020202020202020BD
:1026300020202053656E736F722064652066696C7C
:10264000616D656E746F3A20002D2D2D2D2D2D2D71
:102650002D2D2D2D2D2D2D2D2D2D2D2D2D2D2D2DAA
:102660002D2D2D2D2D2D2D2D2D2D2D2D2D2D2D2D9A
:102670002D2D2D2D2D2D2D2D2D2D2D2D2D2D2D2D8A
:102680002D2D2D2D2D2D2D2D2D2D2D2D2D0020528F
:10269000002020202020202020202020202020205A
:1026A0002020202020202020202020540000205600
:1026B000002020202020202020202020202020203A
:1026C00020202020202050002020202020202020FA
:1026D00020202020284D32303420503D7072696E09
:1026E00074696E672C20563D74726176656C20614A
:1026F0006E6420542A20523D72657472616374299D
:1027000000202020202020202020202020202020E9
:1027100020202020202020202020207C4163636571
:102720006C65726174696F6E737C000020450020D7
:10273000204D323031205400204500205A002059CD
:1027400000202020202020202020202020202020A9
:102750002020202020202058002020202020202061
:102760002020202020202020202020202020202069
:102770002020202020202020284D32303129002008
:102780002020202020202020202020202020202049
:1027900020207C4D6178696D756D20416363656CA7
:1027A00065726174696F6E20286D6D2F7332297C9C
:1027B0000020450020204D323033205400002045B9
:1027C00000205A00205900202020202020202020F6
:1027D00020205800202020202020202020202020E1
:1027E00020202020202020202020202020202020E9
:1027F000202020284D323033290020202020202086
:102800002020202020202020202020202020207C6C
:102810004D6178696D756D2066656564726174657A
:102820007320286D6D2F73297C0000204500202027
:102830004D3932205400436F6E6669673A00204577
:1028400000205A0020590020202020202020202075
:102850002020580020202020202020202020202060
:102860002020202020202020202020202020202068
:10287000202020284D39322900202020202020200F
:102880002020202020202020202020202020202048
:102890002020207C53746570732070657220756EE3
:1028A00069747C002D2D2D2D2D2D2D2D2D2D2D2DB3
:1028B0002D2D2D2D2D2D2D2D2D2D2D2D2D2D2D2D48
:1028C0002D2D2D2D2D2D2D2D2D2D2D2D2D2D2D2D38
:1028D0002D2D2D2D2D2D2D2D2D2D2D2D2D2D2D2D28
:1028E0002D2D2D2D2D2D2D2D0020202020202020A0
:1028F00020202020202020202020202020202020D8
:1029000020202020436F6E66696775726174696F5D
:102910006E002D2D2D2D2D2D2D2D2D2D2D2D2D2DD3
:102920002D2D2D2D2D2D2D2D2D2D2D2D2D2D2D2DD7
:102930002D2D2D2D2D2D2D2D2D2D2D2D2D2D2D2DC7
:102940002D2D2D2D2D2D2D2D2D2D2D2D2D2D2D2DB7
:102950002D2D2D2D2D2D0053657269653A004D6F7B
:1029600064656C6F3A200050616E74616C6C613A02
:1029700020002D2D2D2D2D2D2D2D2D2D2D2D2D2DC1
:102980002D2D2D2D2D2D2D2D2D2D2D2D2D2D2D2D77
:102990002D2D2D2D2D2D2D2D2D2D2D2D2D2D2D2D67
:1029A0002D2D2D2D2D2D2D2D2D2D2D2D2D2D2D2D57
:1029B0002D2D2D2D2D2D004739310A473120453140
:1029C0003520463135300A4739300A4739310A4710
:1029D0003120452D31303020463330300A473930F0
:1029E0000A4D3834004739310A47312045313030FB
:1029F00020463135300A4739300A4D3834004739DE
:102A0000310A4731205A31302046333530300A47B9
:102A1000393000416A757374652064652046696CBD
:102A2000616D656E746F0043616C63756C616E649B
:102A30006F2E2E2E0050756564652074617264617E
:102A40007220756E6F73206D696E75746F730041BF
:102A50006A757374616E646F205049440043616C01
:102A6000656E74616E646F2E2E2E00506F7220663C
:102A700061766F7220657370657265003FFFF87F45
:102A8000FFFCFFFFFEFFFFFEFFFFFEFFFFFEFFFF5D
:102A9000FEFFFFFEE6DE6EE6DE6EEADEAEEADEAEEC
:102AA000EADEAEECDECEECC2CEFFFFFEFFFFFEFFA5
:102AB000FFFEFFFFFEFFFFFEFFFFFE7FFFFC3FFF6D
:102AC000F83FFFF860000CC00006800002800002A2
:102AD0008000028000028000029921929921929543
:102AE0002152952152952152932132933D328000FB
:102AF00002800002800002800002800002C0000606
:102B000060000C3FFFF83FFFF87FFFFCFFFFFEFF78
:102B1000FFFEFFFFFEFFFFFEFFFFFEFFFFFEC2F115
:102B200076DEF776DEF7AEC6F1DEDEF7AEDEF776FE
:102B3000DE1176FFFFFEFFFFFEFFFFFEFFFFFEFF41
:102B4000FFFEFFFFFE7FFFFC3FFFF83FFFF8600046
:102B50000CC000068000028000028000028000029B
:102B6000800002BD0E8AA1088AA10852B90E22A1D6
:102B70000852A1088AA1EE8A80000280000280002B
:102B800002800002800002C0000660000C3FFFF8D7
:102B90003FFFF87FFFFCFFFFFEFFFFFEFFFFFEFF92
:102BA000FFFEFFFFFEFFFFFEF38F1EEDB6FEEDB64C
:102BB000FEE18F3EEDB7DEEDB7DEED8E3EFFFFFEB0
:102BC000FFFFFEFFFFFEFFFFFEFFFFFEFFFFFE7F9A
:102BD000FFFC3FFFF83FFFF860000CC000068000DC
:102BE000028000028000028000028000028C70E2FD
:102BF0009249029249029E70C292482292482292C1
:102C000071C2800002800002800002800002800009
:102C100002C0000660000C3FFFF83FFFF87FFFFC9A
:102C2000FFFFFEFFFFFEFFFFFEFFFFFEFFFFFEFFB9
:102C3000FFFEE3BF3EEDBEDEEDBEDEE3BE1EEFBE39
:102C4000DEEFBEDEEF86DEFFFFFEFFFFFEFFFFFED4
:102C5000FFFFFEFFFFFEFFFFFE7FFFFC3FFFF83F91
:102C6000FFF860000CC000068000028000028000B7
:102C7000028000028000029C40C2924122924122C6
:102C80009C41E29041229041229079228000028072
:102C90000002800002800002800002C00006600086
:102CA0000C3FFFF850726564657465726D696E6102
:102CB000646F004578747275736F723A006C6120AE
:102CC00074656D70657261747572610053656C65D1
:102CD0006363696F6E65004731205A313520463194
:102CE0003030300A473238205A0A4731205A3000F3
:102CF0004731205A31300A4732380A4D38340050B3
:102D00006F736963696F6E203420646520340047F7
:102D100031205A31300A4731205831373020593468
:102D2000302046323030300A473238205A0A473194
:102D3000205A3000506F736963696F6E20332064CE
:102D4000652034004731205A31300A473120583449
:102D50003020593235302046323030300A47323850
:102D6000205A0A4731205A30001FFFFFF03FFFFF73
:102D7000F87FFFFFFCFFFFFFFEFFF83FFEFFE00FC5
:102D8000FEFF8003FEF70381FEF20FE0FEF01FF06E
:102D90007EF03FF87EF07FFC3EF03FFE3EF01FFEEF
:102DA0001EFFFFFF1EFFFFFF1EFFFFFF1EFFFFFEB8
:102DB0001EFFFFFE3EFFFFFC3EFFFFF87EFF9FF081
:102DC0007EFF0FE0FEFF0381FEFF8003FEFFE00FAA
:102DD000FEFFF83FFE7FFFFFFC3FFFFFF81FFFFFF6
:102DE000F01FFFFFF0300000186000000CC0000072
:102DF000068007C002801FF002807FFC0288FC7EF4
:102E0000028DF01F028FE00F828FC007828F800338
:102E1000C28FC001C28FE001E2800000E2800000AA
:102E2000E2800000E2800001E2800001C280000335
:102E3000C28000078280600F8280F01F0280FC7ECB
:102E400002807FFC02801FF002C007C00660000005
:102E50000C300000181FFFFFF0506F736963696F3B
:102E60006E20322064652034004731205A31300A08
:102E700047312058313730205932353020463230F2
:102E800030300A473238205A0A4731205A30005031
:102E90006F736963696F6E20312064652034004769
:102EA00031205A31300A47312058343020593430DB
:102EB0002046323030300A473238205A0A47312013
:102EC0005A3000FFFFFFFFFFFFFFFFFFFFFFFFE0A4
:102ED00080000000000000000000000020B1C71CBE
:102EE00071C71C71C71C71C71C20A38E38E38E38B4
:102EF000E38E38E38E38A0871C71C71C71C71C7124
:102F0000C71C71A08000000000000000000000004D
:102F100020FFFFFFFFFFFFFFFFFFFFFFFFE0FFFFBF
:102F2000FFFFFFFFFFFFFFFFFFFFE080000000004B
:102F300000000000000000208E38E38E38E38E3859
:102F4000E38E38E3A09C71C71C71C71C71C71C714C
:102F5000C720B8E38E38E38E38E38E38E38E2080C6
:102F6000000000000000000000000020FFFFFFFF45
:102F7000FFFFFFFFFFFFFFFFE0506F7220666176EB
:102F80006F72206573706572650001060A00FE07A6
:102F90000136026820FFFE08FE07FE0A00602217C5
:102FA0006780808080800080163363A0A0A00257D5
:102FB000675050F850F850500257672070A07028A2
:102FC000702002576748A8502050A89002576740C9
:102FD000A0A040A8906826136380808012376720E5
:102FE0004080808040201237678040202020408031
:102FF0000355658850F850880355652020F8202037
:10300000113363604080055161F811336340E04043
:1030100002576708081020408080025767205088B8
:10302000888850200257672060A0202020F802578F
:1030300067708808304080F8025767F80810300839
:10304000887002576710305090F81010025767F8D8
:1030500080B0C8088870025767304080B0C8887058
:10306000025767F8081010204040025767708888A0
:1030700070888870025767708898680810601137E8
:103080006740E0400040E04011376740E0400060AA
:10309000408012476710204080402010045363F89E
:1030A00000F8124767804020102040800257677068
:1030B000881020200020025767708898A8B0807080
:1030C00002576720508888F88888025767F0484878
:1030D000704848F002576770888080808870025777
:1030E00067F04848484848F0025767F88080F08009
:1030F00080F8025767F88080F08080800257677000
:10310000888080988870025767888888F8888888BF
:10311000123767E04040404040E0025767381010E7
:10312000101090600257678890A0C0A09088025746
:1031300067808080808080F80257678888D8A88858
:1031400088880257678888C8A89888880257677057
:10315000888888888870025767F08888F080808027
:103160000158687088888888A87008025767F088B6
:1031700088F0A09088025767708880700888700275
:103180005767F820202020202002576788888888E9
:103190008888700257678888885050502002576787
:1031A000888888A8A8D888025767888850205088BF
:1031B0008802576788885020202020025767F80827
:1031C00010204080F8123767E08080808080E00225
:1031D000576780804020100808123767E0202020C1
:1031E0002020E0065363205088015161F8282262B4
:1031F000804002556570087888780257678080B0F3
:10320000C888C8B002556570888088700257670802
:103210000868988898680255657088F88070025729
:1032200067304840F0404040005767788888780809
:1032300088700257678080B0C888888812376740D6
:1032400000C0404040E0104969100030101010905C
:10325000906002576780808890E09088123767C03E
:103260004040404040E0025565D0A8A8A8880255DB
:1032700065B0C8888888025565708888887000574E
:1032800067B0C888C8B08080005767689888986819
:103290000808025565B0C88080800255657080704E
:1032A00008F00257674040F04040483002556588BA
:1032B000888898680255658888505020025565882E
:1032C00088A8A85002556588502050880057678804
:1032D000889868088870025565F8102040F81247F1
:1032E00067304020C0204030221767808080808077
:1032F0008080124767C02040304020C0065363489A
:10330000A890FFFFFFFFFFFFFFFFFFFFFFFFFFFF93
:10331000FFFFFFFFFFFFFFFFFFFFFFFFFFFFFFFFBD
:10332000FFFFFF0A00602217678000808080808096
:103330000157672078A0A0A0782002576730484046
:10334000E04048B002556588705070880158688820
:10335000885020F8202020221767808080008080FD
:10336000800158687080E09048380870193161A079
:103370000257677088A8C8A888701346667090B016
:103380005000F00265652448904824144262F01011
:10339000154161F00257677088E8C8C88870095104
:1033A00061F816336340A0400256662020F82020C2
:1033B000F815456560902040F0154565E0106010F7
:1033C000E02822624080015666888888C8B0800262
:1033D000576778E8E868282828251161802022624C
:1033E000408015356540C04040E0134666609090CF
:1033F0006000F0026565904824489001696940C00A
:103400004040E40C143C0401696940C04040E814A9
:1034100004081C015969C0204020C81828780802F7
:10342000576720002020408870025868402070882C
:1034300088F888880258681020708888F888880280
:1034400058682050708888F8888802586848B0709A
:103450008888F888880258685000708888F88888BA
:103460000258682050708888F888880267673C5046
:10347000909CF0909C0059697088808080887020B2
:103480004002586840F88080F08080F80258681048
:10349000F88080F08080F802586820F88080F08002
:1034A00080F802586850F88080F08080F812386800
:1034B0008040E040404040E01238682040E040401A
:1034C0004040E012386840A0E040404040E0123800
:1034D00068A000E040404040E0025767F04848E8FC
:1034E0004848F0025868285088C8A8988888025828
:1034F000684020708888888870025868102070881A
:10350000888888700258682050708888888870027F
:1035100058682850708888888870025868500070F1
:1035200088888888700255658850205088025767BF
:10353000709898A8C8C87002586840208888888801
:1035400088700258681020888888888870025868B7
:1035500020500088888888700258685000888888C1
:1035600088887002586810208888502020200257D0
:103570006780F088F0808080025767708890A09004
:1035800088B002586840200070087888780258682F
:103590001020007008788878025868205000700861
:1035A0007888780258682850007008788878025720
:1035B000675000700878887802586820502070089A
:1035C00078887802656578147C907C0057677088ED
:1035D00080887020400258684020007088F8807011
:1035E0000258681020007088F880700258682050D7
:1035F000007088F8807002576750007088F88070FB
:10360000123868804000C0404040E0123868408076
:1036100000C0404040E012386840A000C040404038
:10362000E0123767A000C0404040E0025767C0305A
:103630007088888870025868285000B0C8888888C8
:1036400002586840200070888888700258681020EE
:1036500000708888887002586820500070888888B8
:103660007002586828500070888888700257675028
:103670000070888888700355652000F80020025586
:10368000657898A8C8F00258684020008888889813
:103690006802586810200088888898680258682056
:1036A00050008888889868025767500088888898F2
:1036B00068005969102088889868088870005868E0
:1036C00080F0888888F08080005969500088889848
:1036D00068088870636F6C642065787472757369AC
:1036E0006F6E2070726576656E746564007C3C3E1A
:1036F0005E2B3D3F2F5B5D3B2C2A225C00446F6EAE
:103700006520736176696E672066696C652E006559
:1037100072726F722077726974696E6720746F209D
:1037200066696C6500203A203C3C3C2072756E5FF7
:103730007A5F70726F62650A0063757272656E748B
:103740005F706F736974696F6E3D000000A0400088
:1037500000A04000000040203A203E3E3E2072750E
:103760006E5F7A5F70726F62650A00637572726570
:103770006E745F706F736974696F6E3D003C3C3CA2
:103780002070726F62655F7074003E20003E200002
:1037900029002C20003E20646F5F626C6F636B69B0
:1037A0006E675F6D6F76655F746F5F787928002054
:1037B0003A200A0063757272656E745F706F736988
:1037C00074696F6E3D0029002C20002C20003E3EC5
:1037D0003E2070726F62655F707428002900646F0C
:1037E0005F70726F62655F72616973652800496E10
:1037F000666F3A0043616E6E6F7420656E74657219
:10380000207375626469723A20006F70656E20667D
:1038100061696C65642C2046696C653A20005772BA
:103820006974696E6720746F2066696C653A200060
:103830006F70656E206661696C65642C2046696CEA
:10384000653A200046696C652073656C6563746534
:1038500064002053697A653A200046696C65206FE0
:1038600070656E65643A20004D3530300053544128
:103870005254205052494E5445523A00534420630A
:10388000617264206F6B00534420696E6974206616
:1038900061696C004572726F723A004D3131370ABE
:1038A0004D38340A4D31313720496D707265736976
:1038B0006F6E2043616E63656C616461004D3630EC
:1038C00030004D31313720504944204163747561D7
:1038D0006C697A61646F004D35303000494E445553
:1038E000535452494120415247454E54494E41009C
:1038F00053657269653A00504B322B2B00562034C9
:103900002E302E3800204D6F64656C6F3A0056657E
:103910007273696F6E3A001C3800000000000000EE
:10392000001C7117DF7DE39E11F7C01CE1110441FB
:1039300014512901001DF911044114114501001F02
:10394000C1110479E41E45E1001DF911044144143C
:103950007D01001CE111044124524501001C70E16D
:10396000047F13914501001C380000000000000096
:10397000001C1DFFFFFFFFFFFFFFF0000000000025
:1039800000000000007FFFFFFFFFFFFFFFFFC04DB3
:103990006F766572205A00566F6C76657200303112
:1039A00000506F736963696F6E20303100303100F1
:1039B000303200506F736963696F6E2030320030AF
:1039C0003200303300506F736963696F6E2030339B
:1039D00000303300303400506F736963696F6E20BC
:1039E000303400303400303500506F736963696FD4
:1039F0006E20303500303500303600506F7369630B
:103A0000696F6E20303600303600303700506F73EB
:103A10006963696F6E2030370030370030380050EE
:103A20006F736963696F6E20303800303800303949
:103A3000007FFCC00680028002800280028002803B
:103A40000280028002800280028002C0067FFC5059
:103A50006F736963696F6E203039003039007FFC05
:103A6000FFFEFFFEFFFEFFFEFFFEFFFEFFFEFFFE6E
:103A7000FFFEFFFEFFFEFFFEFFFE7FFC6E6F206578
:103A8000737461626C656369646173004572726F1F
:103A9000723A2063617061730043616E63656C61AB
:103AA000722063616D62696F0043616D62696F20AE
:103AB000636170613A200041686F726100456E2059
:103AC000436170613A0043616D62696172206669A9
:103AD0006C616D656E746F00496E6963696F004D4E
:103AE0003231005265636172676172205461726A9B
:103AF000657461205364003FFFF87FFFFCFFFFFE09
:103B0000FFFFFEFF003EFE2ABEFCAABEF8AABEF8DA
:103B1000003EF8003EF8103EF8383EF87C3EF8389B
:103B20003EF8383EF8383EF8003EF8003EF8003ED9
:103B3000F8003EFFFFFE7FFFFC3FFFF85461726A12
:103B4000657461205364003FFFF87FFFFCFFFFFEB8
:103B5000FFFFFEFF003EFE2ABEFCAABEF8AABEF88A
:103B6000003EF8003EF8003EF8003EF86C3EF88A51
:103B70003EF84A3EF82A3EF8CC3EF8003EF8003EB9
:103B8000F8003EFFFFFE7FFFFC3FFFF83FFFF860BD
:103B9000000CC0000680000280FFC281D542835520
:103BA0004287554287FFC287FFC287EFC287C7C2DD
:103BB0008783C287C7C287C7C287C7C287FFC2873A
:103BC000C7C287FFC287FFC2C0000660000C3FFF6C
:103BD000F83FFFF860000CC0000680000280FFC2C2
:103BE00081D54283554287554287FFC287FFC287EE
:103BF000FFC287FFC28793C28775C287B5C287D5C8
:103C0000C28733C287FFC287FFC287FFC2C00006D8
:103C100060000C3FFFF8416A75737465206465208D
:103C200046696C616D656E746F0054656D70657288
:103C300061747572610043616C6962726172004106
:103C40007061676172204C656400456E63656E64E7
:103C50006572204C6564003FFFF860000CC01006E0
:103C6000803802807C0280FE028038028038028424
:103C700038428C00629F83F2BF83FA9F83F28C00EC
:103C80006284384280380280380280FE02807C02E2
:103C9000803802C0100660000C3FFFF84D6F76655B
:103CA0007220456A6573003FFFF87FFFFCFFEFFE5F
:103CB000FFC7FEFF83FEFF01FEFFC7FEFFC7FEFB3F
:103CC000C7BEF3FF9EE07C0EC07C06E07C0EF3FFD7
:103CD0009EFBC7BEFFC7FEFFC7FEFF01FEFF83FEC0
:103CE000FFC7FEFFEFFE7FFFFC3FFFF83FFFF860DE
:103CF000000CC0000680000280000283FF82860064
:103D0000C285014284384284444284824284924281
:103D10008482428444428438428501428600C283C0
:103D2000FF82800002800002C0000660000C3FFF9E
:103D3000F8417061676172204D6F746F7265730036
:103D40003FFFF87FFFFCFFFFFEFFFFFEFFFFFEFCD3
:103D5000007EF9FF3EFAFEBEFBC7BEFBBBBEFB7D8D
:103D6000BEFB6DBEFB7DBEFBBBBEFBC7BEFAFEBE8F
:103D7000F9FF3EFC007EFFFFFEFFFFFEFFFFFE7F20
:103D8000FFFC3FFFF83FFFF860000CC0000681FF1A
:103D90000283018282008282008287FFC287FFC283
:103DA00087C1C28783C2873FC2873FC28783C287DA
:103DB000C1C287F9C287F9C28781C28703C287FF60
:103DC000C2C0000660000C3FFFF84B75747465724A
:103DD00063726166742053746F7265003FFFF87FF1
:103DE000FFFCFFFFFEFE00FEFCFE7EFDFF7EFDFFF2
:103DF0007EF8003EF8003EF83E3EF87C3EF8C03EBD
:103E0000F8C03EF87C3EF83E3EF8063EF8063EF826
:103E10007E3EF8FC3EF8003EFFFFFE7FFFFC3FFFCA
:103E2000F8416A75737465730053616C697200427E
:103E30006F7272617200456E7669617200457370CF
:103E40006163696F002E00580059005A0045004612
:103E500000530050004300496E677265736520434C
:103E60006F6469676F00436F6D616E646F3A0053F2
:103E7000616C69720047004D00496E677265736539
:103E800020436F6469676F00436F6D616E646F3AC2
:103E90000045737461646F206465204C6F73204328
:103EA00061626C657300436F727265617320475481
:103EB00032004C75627269636163696F6E00426FB4
:103EC0007175696C6C6120792042617272656C0059
:103ED000417669736F204D616E74656E696D6965B9
:103EE0006E746F0052656375657264652052657605
:103EF00069736172002000E07001C0F803807803EC
:103F0000843C038C0E07FC070EF8039DF0017B80B8
:103F100000F70000EE0001DC0003BB000777803EE5
:103F2000EFC07DCFE0FF87F0C703F88701FC0700F3
:103F3000FC0E007C1C003831352520456E204D617B
:103F40007175696E61730032302520456E205265AF
:103F50007370756573746F730031302520456E2062
:103F60004D617175696E61730032302520456E2098
:103F700052657370756573746F7300323025204518
:103F80006E2052657370756573746F730033312ED4
:103F9000342520456E20426F7175696C6C61730029
:103FA00031352520456E2052657370756573746FC9
:103FB000730031352520456E2046696C616D656E54
:103FC000746F0031322520456E205265737075651F
:103FD00073746F730031322520456E2046696C6121
:103FE0006D656E746F0031302520456E205265730B
:103FF00070756573746F730031302520456E2046EF
:10400000696C616D656E746F0033302520456E20DC
:104010004E756573747261205469656E6461003217
:10402000352520456E204E75657374726120546984
:10403000656E64610032352520456E204E756573CE
:10404000747261205469656E6461003235252045C3
:104050006E204E756573747261205469656E64617B
:104060000032302520456E204D617175696E617397
:104070000032302520456E204E75657374726120C4
:104080005469656E64610032302520456E204E759E
:104090006573747261205469656E64610032302505
:1040A00020456E204E756573747261205469656E8B
:1040B00064610031352520456E204D617175696E52
:1040C00061730032302520456E204E756573747221
:1040D00061205469656E64610031352520456E208C
:1040E0004E756573747261205469656E6461003148
:1040F000352520456E204D617175696E6173003103
:10410000352520456E204E756573747261205469A3
:10411000656E646100353025205365727669636988
:104120006F205465636E69636F0031302520456EE2
:10413000204E756573747261205469656E64610008
:1041400031352520456E20496E73756D6F730031D2
:10415000302520456E204E75657374726120546958
:10416000656E64610032352520456E204772696CAA
:104170006F4E330020352520456E204D61717569E5
:104180006E617300556E20456E76696F20477261CF
:104190007469732121210031302520456E20466944
:1041A0006C616D656E746F0031352520456E20524F
:1041B000657370756573746F730031302520456EBB
:1041C0002046696C616D656E746F005445535400F0
:1041D000415753440045444241004253415300413A
:1041E00050455800424F4F4D00424F4C4F00434FF7
:1041F0005341004449414C0044415441004441541E
:104200004F004445414C004641524F00464F524FEB
:1042100000434F504F004341504F00414148480038
:1042200041554C4100415557570058445844005897
:1042300050585300494F53580044494F530041567A
:104240005247005246464600545854530043414496
:1042500054004255554800484F484F004C4F474F77
:10426000004D495241004F55454C00484E575000B3
:104270004655525400494E49540044657363756570
:104280006E746F3A200056657220436F6E646963E6
:10429000696F6E657320456E3A006B757474657254
:1042A00063726166742E636F6D2F70726F6D6F0035
:1042B0004465736375656E746F004375706F6E202F
:1042C000446500FC0004000200E180908088808842
:1042D00080A880A8808880A880A8808880A880A8DE
:1042E000808880A880A8808880888088809080E1ED
:1042F0008002000400FC001F8010002000C38086A4
:10430000808C8088808A808A8088808A808A808861
:10431000808A808A8088808A808A80888088808C51
:10432000808680C380200010001F8001050800FFE8
:10433000060121023520FFFF07FF06FF090050227A
:104340001656808080800080153353A0A0A00257AD
:10435000575050F850F850500257572070A070280E
:10436000702013355580A040A02002475740A0A0E0
:1043700040A0A05025135380808012265640808094
:104380008080401226568040404040800245559033
:1043900060F060900255552020F8202011335360C2
:1043A0004080044151F011335340E0400246561022
:1043B000102040808012365640A0A0A0A0401236A7
:1043C0005640C0404040E00246566090106080F089
:1043D000024656F020601090600246562060A0F021
:1043E0002020024656F080E0109060024656608021
:1043F000E0909060024656F0102020404002465661
:1044000060906090906002465660909070106012CC
:104410002555C0C000C0C0113656606000604080A5
:10442000123656204080804020034353F000F012A3
:10443000365680402020408012365640A020400052
:1044400040015858304898A8A8904030024656601D
:104450009090F09090024656E090E09090E00246F6
:1044600056609080809060024656E090909090E078
:10447000024656F080E08080F0024656F080E080F0
:104480008080024656609080B090600246569090C0
:10449000F0909090123656E040404040E002465680
:1044A00070202020A04002465690A0C0A0A09002FC
:1044B00046568080808080F002465690F0F09090C2
:1044C0009002465690D0F0B0B09002465660909060
:1044D000909060024656E09090E0808001475760DF
:1044E0009090D0B06010024656E09090E09090021C
:1044F0004656609040209060123656E04040404062
:10450000400246569090909090600246569090904F
:10451000906060024656909090F0F090024656905F
:104520009060609090025656888850202020024665
:1045300056F010204080F0123656E080808080E0F7
:10454000024656808040201010123656E02020206F
:1045500020E016325240A0014151F0162252804014
:10456000024454709090700246568080E09090E033
:104570001234546080806002465610107090907023
:1045800002445460B0C060024656205040E04040B3
:1045900001455560907010600246568080E0909012
:1045A000901236564000C04040E01137572000209E
:1045B0002020A040024656808090E090901236560F
:1045C000C040404040E0025454D0A8A8A80244543F
:1045D000E090909002445460909060014555E090C6
:1045E000E080800145557090701010024454A0D0B6
:1045F000808012345460C020C00246564040E040E3
:10460000502002445490909070123454A0A0A040C6
:1046100002545488A8A85002445490606090014508
:10462000559090709060024454F02040F00247573B
:10463000304020C02040302216568080808080800C
:10464000024757C02040304020C006425250A0FFD1
:10465000FFFFFFFFFFFFFFFFFFFFFFFFFFFFFFFF6A
:10466000FFFFFFFFFFFFFFFFFFFFFFFFFFFFFFFF5A
:104670000900502216568000808080800146562016
:1046800070A0A070200246562050E04050A0025575
:104690005588705070880256568850F820F82022AD
:1046A0001757808080008080800247577080E0909C
:1046B0007010E0173151A002565670A8C8C8A870F3
:1046C00014355560A06000E003435350A0501233EE
:1046D00053E02020143151E002565670E8D8E8D853
:1046E00070173151E015335340A04012355540E06A
:1046F0004000E014355540A02040E0143555C0205E
:10470000C020C01622524080014555909090E08014
:1047100002565678E8E86828282411518011225260
:10472000408014355540C04040E014355540A0400D
:1047300000E0034353A050A0024757808080A06050
:10474000F0200247578080A0D01020700247578089
:10475000408060A0F02012365640004080A0400209
:10476000475740206090F09090024757204060905B
:10477000F0909002475760906090F09090024757F9
:1047800050A06090F0909002475790006090F09099
:104790009002475760906090F0909002465670A04B
:1047A000A0F0A0B001475760908080906040024721
:1047B000574020F080E080F00247572040F080E032
:1047C00080F00247576090F080E080F002475790F9
:1047D00000F080E080F01237578040E0404040E039
:1047E0001237572040E0404040E012375740A0E0E9
:1047F000404040E0123757A000E0404040E0025601
:10480000567048E848487002475750A090D0B09082
:104810009002475740206090909060024757204098
:104820006090909060024757609060909090600216
:10483000475750A06090909060024757900060905A
:10484000909060123353A040A002465670B0B0D092
:10485000D0E0024757402090909090600247572048
:104860004090909090600247576090909090906038
:104870000247579000909090906002575710208800
:104880005020202002465680E09090E0800246565C
:104890006090A0A090A002475740200070909070B8
:1048A00002475720400070909070024757205000F8
:1048B0007090907002475750A00070909070024620
:1048C00056500070909070024757609060709090C2
:1048D00070025454F068B0781135556080806040A3
:1048E00002475740200060B0C06002475720400098
:1048F00060B0C06002475760900060B0C060024680
:1049000056500060B0C060123757804000C0404031
:10491000E0123757204000C04040E012375740A017
:1049200000C04040E0123656A000C04040E00247C0
:1049300057A040A01070906002475750A000E09030
:1049400090900247574020006090906002475720A7
:1049500040006090906002475760900060909060C7
:1049600002475750A0006090906002465690006049
:104970009090601235554000E0004002445470B001
:10498000D0E0024757402000909090700247572097
:104990004000909090700247576090009090907007
:1049A0000246569000909090700148582040009028
:1049B000907090600147578080E090E080800147D0
:1049C000579000909070906000060900FE070192D9
:1049D000032120FFFF08FF07FF0000000600000181
:1049E00007070602008080808080008003020206A4
:1049F0000105A0A00507070600005050F850F85028
:104A0000500507070600002078A07028F020050751
:104A100007060000C0C810204098180507070600C8
:104A2000006090A040A89068020303060104C04003
:104A30008003070706010020408080804020030794
:104A40000706010080402020204080050505060063
:104A50000120A870A8200505050600012020F820E7
:104A6000200203030602FFC0408005010106000387
:104A7000F8020202060200C0C00505050600010892
:104A80001020408005070706000070888888888805
:104A90007003070706010040C040404040E00507A2
:104AA00007060000708808708080F8050707060078
:104AB00000F81020100808F0050707060000103065
:104AC0005090F81010050707060000F880F008085D
:104AD0008870050707060000708080F088887005E0
:104AE0000707060000F80810202020200507070609
:104AF00000007088887088887005070706000070BD
:104B0000888878080870020505060200C0C000C049
:104B1000C00206060602FFC0C000C04080040707AE
:104B2000060000102040804020100503030600020C
:104B3000F800F8040707060100804020102040809C
:104B400005070706000070880810200020050707E9
:104B500006000070880868A8A8700507070600000E
:104B6000708888F8888888050707060000F088881C
:104B7000F08888F00507070600007088808080882C
:104B800070050707060000F08888888888F0050708
:104B900007060000F88080F08080F805070706000F
:104BA00000F88080F080808005070706000070888C
:104BB00080B8888870050707060000888888F8880C
:104BC0008888010707060200808080808080800539
:104BD0000707060000381010101090600507070640
:104BE00000008890A0C0A0908805070706000080FC
:104BF0008080808080F805070706000088D8A88894
:104C00008888880507070600008888C8A8988888CB
:104C100005070706000070888888888870050707E0
:104C2000060000F08888F0808080050707060000F5
:104C300070888888A89068050707060000F08888B3
:104C4000F0A09088050707060000788080700808AB
:104C5000F0050707060000F8202020202020050787
:104C6000070600008888888888887005070706007E
:104C700000888888888850200507070600008888F3
:104C8000888888A8500507070600008888502050AB
:104C9000888805070706000088888850202020059E
:104CA0000707060000F80810204080F803070706F1
:104CB0000100E08080808080E0050505060001801D
:104CC00040201008030707060100E02020202020D4
:104CD000E0050303060004205088050101060000DA
:104CE000F802020206020580400505050600007074
:104CF000087888780507070600008080B0C8888893
:104D0000F00505050600007080808870050707061D
:104D10000000080868988888780505050600007076
:104D200088F880700507070600003048E0404040E2
:104D3000400506060600FF7088887808700507079A
:104D40000600008080B0C888888801070706020036
:104D5000800080808080800308080601FF200020FA
:104D6000202020A040040707060000808090A0C0FB
:104D7000A090030707060100C04040404040E00506
:104D80000505060000D0A8A8A8A80505050600008E
:104D9000B0C8888888050505060000708888887076
:104DA0000506060600FFF08888F0808005060606E6
:104DB00000FF788888780808050505060000B0C857
:104DC00080808005050506000070807008F00407EB
:104DD000070600004040E040404030050505060061
:104DE000008888889868050505060000888888502E
:104DF000200505050600008888A8A85005050506B9
:104E0000000088502050880506060600FF88888824
:104E1000780870050505060000F8102040F8030723
:104E2000070601002040408040402001070706029D
:104E3000008080808080808003070706010080401A
:104E400040204040800502020600026890000000F9
:104E50000600000000000600000000000600000040
:104E60000000060000000000060000000000060030
:104E70000000000006000000000006000000000026
:104E80000600000000000600000000000600000010
:104E90000000060000000000060000000000060000
:104EA00000000000060000000000060000000000F6
:104EB00006000000000006000000000006000000E0
:104EC00000000600000000000600000000000600D0
:104ED00000000000060000000000060000000000C6
:104EE00006000000000006000000000006000000B0
:104EF00000000600000000000600000000000600A0
:104F00000000000006000000000006000000000095
:104F100006000000000006000001070706020080EE
:104F20000080808080800507070600002070A8A010
:104F3000A87020050707060000304040E04050A858
:104F400005050506000088705070880507070600F3
:104F500000885020F820F820010707060200808012
:104F600080008080800508080600003048205050EE
:104F7000209060030101060107A005070706000055
:104F8000F888B8B8B888F8050707060001700878EF
:104F9000887800F80505050600012850A05028056E
:104FA0000303060001F80808020202060206408018
:104FB000050707060000F888A88898A8F8050101E9
:104FC000060006F8040404060003609090600507DC
:104FD000070600002020F8202000F8040505060040
:104FE0000360902040F0030505060003E020E02068
:104FF000E002020206020640800508080600FF885B
:1050000088888898E88080050707060000789898C7
:1050100078181818020202060202C0C00202020634
:1050200002FF408003050506000340C04040E00544
:105030000707060001708888887000F805050506D6
:105040000001A0502850A00507070600008890A87E
:1050500058B808080507070600008890B848982047
:1050600038050808060000C040C048D838080805C0
:105070000707060000200020408088700508080609
:1050800000004020007088F88888050808060000A5
:105090001020007088F88888050808060000205055
:1050A000007088F88888050808060000689000707D
:1050B00088F888880508080600005000708888F87D
:1050C00088880508080600002050207088F8888825
:1050D0000507070600003860A0B8E0A0B80508087A
:1050E0000600FF7088808088702060050808060030
:1050F00000402000F880F080F8050808060000084D
:105100001000F880F080F805080806000020500024
:10511000F880F080F80507070600005000F880F0DE
:1051200080F8030808060100804000E0404040E0AD
:10513000030808060100204000E0404040E003086A
:105140000806010040A000E0404040E003070706D9
:105150000100A000E0404040E005070706000070A5
:105160004848E8484870050808060000689000882C
:10517000C8A898880508080600004020708888881C
:1051800088700508080600001020708888888870DC
:1051900005080806000020500070888888700508FF
:1051A0000806000068900070888888700508080666
:1051B0000000500070888888887005050506000189
:1051C00088502050880508080600FF1070A8A8A87D
:1051D000A870400508080600004020888888888854
:1051E00070050808060000102088888888887005E7
:1051F0000808060000205000888888887005080884
:105200000600005000888888888870050808060015
:105210000010208850202020200509090600FFC02A
:1052200040704848704040E00408080601FF609064
:1052300090A09090E08005080806000040200070D3
:1052400008788878050808060000102000700878A3
:1052500088780508080600002050007008788878D3
:10526000050808060000689000700878887805072F
:1052700007060000500070087888780508080600C6
:10528000002050207008788878050606060000D0B7
:105290002878A0A8500506060600FF7080887020B8
:1052A000600508080600004020007088F88070053E
:1052B00008080600001020007088F88070050808B3
:1052C0000600002050007088F8807005070706006F
:1052D0000050007088F880700308080601008040C4
:1052E0000040C04040E003080806010020400040A4
:1052F000C04040E003080806010040A00040C04054
:1053000040E0030707060100A00040C04040E00560
:105310000707060000A040A010788870050808065E
:105320000000689000B0C88888880508080600005A
:10533000402000708888887005080806000010204A
:1053400000708888887005080806000020500070EA
:1053500088888870050808060000689000708888B2
:10536000887005070706000050007088888870055F
:1053700005050600012000F800200507070600FFCC
:105380001070A8A8A870400508080600004020007A
:10539000888888986805080806000010200088881A
:1053A00088986805080806000020500088888898BA
:1053B0006805070706000050008888889868050976
:1053C000090600FF102000888888F8087004070785
:1053D0000601FFC04060506040E00508080600FF7D
:1053E000500088888878087000060900FE000000D8
:1053F000000001090008FE00000508080600004042
:10540000F0C88888987810050808060000C0F88859
:1054100088888888F80505050600012030F83020C6
:105420000508080600002070F820202020E005096B
:10543000090600FF2070A8A8B8888870200509090F
:105440000600FFE080C0B0A828302828050909061A
:1054500000FFF8A88888888888A8F8050A0A060046
:10546000FE205050505088A8A888700303030600FF
:105470000340A040537465707261746520746F6F4F
:1054800020686967683A200024F4D43050C38E2025
:10549000C2A24017828B7011127A910D816CD90AC9
:1054A000A861E108C7586607615143061E4B5D05B8
:1054B000C145A7041A411104093D9803713931030C
:1054C0004036DB0265339102D4305402802E1D0237
:1054D000632CEE01752AC501B028A00110278101B7
:1054E0008F2564012B244B01E0223401AC211F01E4
:1054F0008D200D01801FFC00841EED00971DDF0034
:10550000B81CD200E61BC600201BBC00641AB20007
:10551000B219A8000A19A0006A189900D1179100C1
:1055200040178B00B516840031167E00B315790044
:105530003A157300C7146F0058146A00EE13660022
:105540008813630025135E00C7125B006C125700BE
:1055500015125400C111510070114F0021114B0060
:10556000D61049008D10470046104400021042003A
:10557000C00F4000800F3E00420F3C00060F3B0072
:10558000CB0E3800930E37005C0E3500270E34002A
:10559000F30D3200C10D3100900D3000600D2E0072
:1055A000320D2D00050D2C00D90C2B00AE0C29005E
:1055B000850C29005C0C2700350C27000E0C2600FA
:1055C000E80B2400C40B2400A00B23007D0B230058
:1055D0005A0B2100390B2100180B2000F80A1F007C
:1055E000D90A1E00BB0A1E009D0A1D00800A1D006C
:1055F000630A1C00470A1B002C0A1B00110A1A0030
:10560000F7091A00DD091900C4091900AB091900CE
:10561000920917007B091800630917004C0916004E
:1056200036091600200916000A091500F5081500AC
:10563000E0081400CC081400B8081400A4081400F2
:10564000900813007D0812006B0813005808120020
:105650004608120034081100230811001208110036
:1056600001081100F0071000E0071000D00710003B
:10567000C0071000B0070F00A107100091070E002F
:1056800083070F0074070F0065070E0057070E0011
:1056900049070E003B070D002E070E0020070D00E6
:1056A00013070D0006070D00F9060C00ED060D00AE
:1056B000E0060C00D4060C00C8060C00BC060C006A
:1056C000B0060C00A4060B0099060C008D060B001A
:1056D00082060B0077060B006C060B0061060A00C1
:1056E00057060B004C060A0042060A0038060A005C
:1056F0002E060A0024060A001A060A0010060900EF
:1057000007060A00FD050900F4050900EB0509007C
:10571000E2050900D9050900D0050900C7050900FF
:10572000BE050900B5050800AD050800A50509007E
:105730009C050800940508008C05080084050800F5
:105740007C050800740508006C0507006505080065
:105750005D050700560508004E05070047050700D0
:105760004005080038050700310507002A05070035
:10577000230507001C050600160507000F05070096
:105780000805060002050700FB040600F5040700F3
:10579000EE040600E8040600E2040700DB0406004D
:1057A000D5040600CF040600C9040600C3040600A1
:1057B000BD040600B7040600B1040500AC040600F1
:1057C000A6040600A00405009B040600950405003D
:1057D000900406008A040500850405008004060084
:1057E0007A04050075040500700405006B040500CB
:1057F00066040500610405005C040500570405000B
:10580000520405004D04050048040500430405004A
:105810003E0404003A040500350405003004040089
:105820002C04050027040400230405001E040400C2
:105830001A04040016040500110404000D040400F9
:10584000090405000404040000040400FC0304002F
:10585000F8030400F4030400F0030400EC03040064
:10586000E8030400E4030400E0030400DC03040094
:10587000D8030400D4030400D0030400CC030400C4
:10588000C8030300C503030024F404D9201BC40C7F
:105890005C0E9804C4095F0265077101F405F90004
:1058A000FB04B30048048700C10369005803550096
:1058B00003034500BE023A008402310053022A006D
:1058C0002902250004022000E4011C00C80119007F
:1058D000AF0117009801140084011300710110003A
:1058E0006101100051010E0043010D0036010B0053
:1058F0002B010B0020010B00150109000C01090010
:1059000003010800FB000800F3000800EB0007009B
:10591000E4000600DE000600D8000600D200060003
:10592000CC000500C7000500C2000500BD00040052
:10593000B9000400B5000400B1000400AD0004008B
:10594000A9000400A5000300A20003009F000400BA
:105950009B000300980003009500020093000300E1
:10596000900003008D0002008B00030088000200FD
:105970008600020084000300810002007F00020014
:105980007D0002007B000200790002007700010028
:105990007600020074000200720001007100020033
:1059A0006F0002006D0001006C0002006A0001003F
:1059B0006900020067000100660001006500010047
:1059C000640002006200010061000100600001004B
:1059D0005F0002005D0001005C0001005B0001004F
:1059E0005A00010059000100580001005700010051
:1059F0005600010055000100540001005300000052
:105A0000530001005200010051000100500001004C
:105A10004F0001004E0000004E0001004D0001004B
:105A20004C0001004B0000004B0001004A00010047
:105A30004900010048000000480001004700010043
:105A4000460000004600010045000000450001003E
:105A50004400010043000000430001004200000038
:105A6000420001004100000041000100400001002F
:105A70003F0000003F0001003E0000003E0001002A
:105A80003D0000003D0001003C0000003C00000023
:105A90003C0001003B0000003B0001003A00000018
:105AA0003A00010039000000390001003800000010
:105AB0003800000038000100370000003700010006
:105AC00036000000360000003600010035000000FE
:105AD00035000000350001003400000034000000F3
