:100000000C94A3340C94D4340C94D4340C94D43481
:100010000C94D4340C94D4340C94D4340C94D43440
:100020000C94D4340C94D4340C94D4340C94D43430
:100030000C94D4340C94028A0C94D4340C94D4349C
:100040000C94D4340C946A5C0C94D4340C94D43452
:100050000C94D4340C94D4340C940B7A0C949CAB44
:100060000C94D4340C94D5A10C94A5A10C94D43444
:100070000C94D4340C94D4340C94D4340C94D434E0
:100080000C94D4340C94D4340C94D4340C94D434D0
:100090000C94D4340C94D4340C94D4340C94D434C0
:1000A0000C94D4340C94D4340C94D4340C94D434B0
:1000B0000C94D4340C94D4340C94D4340C94D434A0
:1000C0000C94D4340C94D4340C94D4340C94CB8A43
:1000D0000C94A18A0C94D4340C94D4340C94D4345D
:1000E0000C94D434677A777A967AA67AC17AC67AEB
:1000F000C97ACE7AD17AD67AD97ADE7AE17AE67A74
:10010000E97AEE7AF17AF67A007BEDA8F0A8DFA81A
:10011000E3A8E9A827A9F4A8F8A8FEA802A906A9B7
:100120000CA910A914A927A91AA91EA922A9B8AA1D
:10013000BDAAC2AACCAAD6AA4FABE0AAE8AAF0AA46
:10014000FAAA04AB0EAB1DAB27AB4FAB31AB3BAB4D
:1001500045ABC6EFD1EFD9EFE1EFE9EFF1EFB6EF45
:10016000BEEF084AD73B3BCE016E84BCBFFDC12F1A
:100170003D6C74319ABD56833DDA3D00C77F11BE98
:10018000D9E4BB4C3E916BAAAABE000000803F059B
:10019000A84CCDB2D44EB93836A9020C50B99186CC
:1001A00088083CA6AAAA2ABE000000803F00414C55
:1001B0004C00434F4D4D554E49434154494F4E001D
:1001C00044525952554E004552524F525300494ED7
:1001D000464F004543484F005265706F736F2E2E97
:1001E0002E00203A2073657475705F666F725F65CC
:1001F0006E6473746F705F6F725F70726F62655F51
:100200006D6F76650A0063757272656E745F706FEC
:10021000736974696F6E3D003E3E3E20646F5F629D
:100220006C6F636B696E675F6D6F76655F746F008F
:10023000203A20636C65616E5F75705F61667465FE
:10024000725F656E6473746F705F6F725F70726FF0
:1002500062655F6D6F76650A0063757272656E74B4
:100260005F706F736974696F6E3D003C3C3C206742
:10027000636F64655F47323800203A2028686F6DED
:10028000655F616C6C5F61786973207C7C20686F4E
:100290006D655A29203E2066696E616C0A0063759F
:1002A0007272656E745F706F736974696F6E3D0012
:1002B000203A20686F6D65590A0063757272656E29
:1002C000745F706F736974696F6E3D00203A2068C7
:1002D0006F6D65580A0063757272656E745F706F3A
:1002E000736974696F6E3D005261697365205A20AD
:1002F000286265666F726520686F6D696E67292078
:10030000746F20003E20656E6473746F70732E6589
:100310006E61626C65287472756529003E3E3E20F0
:1003200067636F64655F47323800496E76616C6958
:100330006420736C6F742C20746F74616C20736C08
:100340006F74733A200020453A00205A3A00205931
:100350003A003C2D583A00205300536176656420E2
:10036000706F736974696F6E003A0020002D3E0053
:10037000205300526573746F72696E6720706F73DB
:100380006974696F6E00496E76616C696420736C84
:100390006F742C20746F74616C20736C6F74733A7B
:1003A0002000526573756D69656E646F20696D70AC
:1003B00072652E004B757474657263726166742089
:1003C0006C697374612E004573706572616E646F41
:1003D000206F7264656E65730053746F7020507285
:1003E000696E74696E6700486F6C6120657374652F
:1003F00020657320756E206D6F6D656E746F206F54
:10040000706F7274756E6F005374617274205072E5
:10041000696E74696E670053696E206D6F76696DE1
:1004200069656E746F00456E642066696C65206C4A
:1004300069737400426567696E2066696C65206C3B
:10044000697374002F005344207072696E74696E72
:1004500067206279746520004E6F742053442070C9
:1004600072696E74696E67005072696E7420746987
:100470006D6520002569682025696D202569730058
:10048000256964202569682025696D202569730028
:100490004469726563746F72792063726561746513
:1004A00064004372656174696F6E206661696C6592
:1004B0006400436C6F73652066696C6520616E64CF
:1004C000207361766520726573746172742E676340
:1004D0006F64650020616E642073746172742070B3
:1004E00072696E742E004F70656E2066696C653A95
:1004F00020004B75747465726372616674204F4698
:10050000462E0043616C656E74616E646F2E2E2EF4
:10051000004B75747465726372616674206C6973E4
:1005200074612E006F666600D301CE01C701C00161
:10053000B201AE0144656275673A005041524144D0
:100540004120444520454D4552472E004D31313321
:100550002053004649524D574152455F4E414D454B
:100560003A4B555454455243524146545F562033FA
:100570002E362E31204649524D574152455F555235
:100580004C3A687474703A2F2F7777772E6B7574A6
:1005900074657263726166742E636F6D2F736F661C
:1005A00074776172652050524F544F434F4C5F56E1
:1005B000455253494F4E3A322E30204D414348491F
:1005C0004E455F545950453A436172746573696191
:1005D0006E2045585452554445525F434F554E5432
:1005E0003A3220555549443A3332346266613432E6
:1005F0002D613432372D313165362D383066352D49
:100600003736333034646563376562370A006373A5
:10061000746570733A200053657474696E67205472
:10062000726176656C20616363656C657261746983
:100630006F6E3A200053657474696E67205265745A
:100640007261637420616363656C65726174696F64
:100650006E3A200053657474696E67205072696E3B
:100660007420616363656C65726174696F6E3A20B2
:100670000053657474696E67205072696E742061EE
:100680006E642054726176656C20616363656C658D
:10069000726174696F6E3A200020496E76616C69F0
:1006A0006420686F74656E64004D002C002C00207F
:1006B00000486F74656E64206F6666736574733A84
:1006C00000496E76616C6964206578747275646542
:1006D000720020443A0020493A0020503A00480075
:1006E00043290061626C656420286D696E20746521
:1006F0006D702000436F6C6420657874727564655A
:10070000732061726520004F6666736574206170A6
:10071000706C6965642E004F666673657420617045
:10072000706C6965642E004572723A20546F6F20B8
:100730006661722100546F6F206661722066726F6D
:100740006D207265666572656E636520706F696E97
:100750007400206279746573290053657474696E3E
:1007600067732053746F726564202800486F746546
:100770006E6420746F6F20636F6C6420746F2063ED
:1007800068616E67652066696C616D656E740043B3
:100790006170613A2000486F6C61206D756E646F06
:1007A0000020496E76616C696420657874727564A6
:1007B00065720054004163746976652045787472EF
:1007C000756465723A2000416374697665204472ED
:1007D000697665723A20003C3C3C2067636F646533
:1007E0005F5400203A2041465445520A0063757216
:1007F00072656E745F706F736974696F6E3D00200F
:100800003A204245464F52450A0063757272656E42
:10081000745F706F736974696F6E3D0029003E3EAE
:100820003E2067636F64655F5428002200556E6B3D
:100830006E6F776E20636F6D6D616E643A2022007B
:100840004D363030004563686F3A004572726F7202
:100850002077726974696E6720746F204545505225
:100860004F4D2100454550524F4D20636865636BE5
:1008700073756D206D69736D61746368002D2D2D26
:100880002D2D2D2D2D2D2D2D2D2D2D2D2D2D2D2D98
:100890002D2D2D2D2D2D2D2D2D2D2D2D2D2D2D2D88
:1008A0002D2D2D2D2D2D2D2D2D2D2D2D2D2D2D2D78
:1008B0002D2D2D2D2D2D2D2D2D2D2D2D2D2D2D2D68
:1008C0002D002062797465732900202020202020CB
:1008D0002020202020202020202053746F72656467
:1008E0002073657474696E677320726574726965CC
:1008F0007665642028005D2053746F7265642076ED
:10090000657273696F6E3A205B0056657273696F2A
:100910006E3A205B0048617264636F6465642044D2
:10092000656661756C742053657474696E677320B5
:100930004C6F61646564002D2D2D2D2D2D2D2D2DD9
:100940002D2D2D2D2D2D2D2D2D2D2D2D2D2D2D2DD7
:100950002D2D2D2D2D2D2D2D2D2D2D2D2D2D2D2DC7
:100960002D2D2D2D2D2D2D2D2D2D2D2D2D2D2D2DB7
:100970002D2D2D2D2D2D2D2D2D2D2D002D2D2D2DD4
:100980002D2D2D2D2D2D2D2D2D2D2D2D2D2D2D2D97
:100990002D2D2D2D2D2D2D2D2D2D2D2D2D2D2D2D87
:1009A0002D2D2D2D2D2D2D2D2D2D2D2D2D2D2D2D77
:1009B0002D2D2D2D2D2D2D2D2D2D2D2D2D2D2D2D67
:1009C000002D2D2D2D2D2D2D2D2D2D2D2D2D2D2D84
:1009D0002D2D2D2D2D2D2D2D2D2D2D2D2D2D2D2D47
:1009E0002D2D2D2D2D2D2D2D2D2D2D2D2D2D2D2D37
:1009F0002D2D2D2D2D2D2D2D2D2D2D2D2D2D2D2D27
:100A00002D2D2D2D2D0020450020204D323035205C
:100A10005400204500205A00205800204200205653
:100A200000202020202053000020202020202020F3
:100A300020285A3D6D6178696D756D205A206A6570
:100A4000726B20286D6D2F73292C2020453D6D6120
:100A500078696D756D2045206A65726B20286D6D13
:100A60002F7329290020202020202028423D6D6955
:100A70006E696D756D207365676D656E7420746940
:100A80006D6520286D73292C20583D6D6178696D46
:100A9000756D205859206A65726B20286D6D2F7313
:100AA0002929002020202020202028533D4D696E38
:100AB00020666565647261746520286D6D2F7329E9
:100AC0002C20563D4D696E2074726176656C2066EF
:100AD0006565647261746520286D6D2F7329290026
:100AE0002020202020202020202020202020202006
:100AF00020202020202020202020202020202028EE
:100B00004D32303529002020202020202020202098
:100B100020202020202020202020202020202020D5
:100B20002020207C416476616E6365647C002D2DFD
:100B30002D2D2D2D2D2D2D2D2D2D2D2D2D2D2D2DE5
:100B40002D2D2D2D2D2D2D2D2D2D2D2D2D2D2D2DD5
:100B50002D2D2D2D2D2D2D2D2D2D2D2D2D2D2D2DC5
:100B60002D2D2D2D2D2D2D2D2D2D2D2D2D2D2D2DB5
:100B70002D2D00202020202020202020202020207B
:100B800020202020202020202020436F6E666967CF
:100B900075726174696F6E20416476616E6365641D
:100BA000002D2D2D2D2D2D2D2D2D2D2D2D2D2D2DA2
:100BB0002D2D2D2D2D2D2D2D2D2D2D2D2D2D2D2D65
:100BC0002D2D2D2D2D2D2D2D2D2D2D2D2D2D2D2D55
:100BD0002D2D2D2D2D2D2D2D2D2D2D2D2D2D2D2D45
:100BE0002D2D2D2D2D0020204D3230302054312040
:100BF000440020204D32303020440046696C616D45
:100C0000656E742073657474696E67733A0020446E
:100C100000204900205000202020202020202020DB
:100C200020202020202020480020202020202020BC
:100C300020202020202020202020202020202020B4
:100C40002020202020202020284D33303129002052
:100C50002020202020202020202020202020202094
:100C6000202020202020202020207C504944207358
:100C7000657474696E67737C002D2D2D2D2D2D2DBF
:100C80002D2D2D2D2D2D2D2D2D2D2D2D2D2D2D2D94
:100C90002D2D2D2D2D2D2D2D2D2D2D2D2D2D2D2D84
:100CA0002D2D2D2D2D2D2D2D2D2D2D2D2D2D2D2D74
:100CB0002D2D2D2D2D2D2D2D2D2D2D2D2D002020AB
:100CC0002020202020202020202020202020202024
:100CD00020202020202020436F6E66696775726196
:100CE00074696F6E20504944002D2D2D2D2D2D2D12
:100CF0002D2D2D2D2D2D2D2D2D2D2D2D2D2D2D2D24
:100D00002D2D2D2D2D2D2D2D2D2D2D2D2D2D2D2D13
:100D10002D2D2D2D2D2D2D2D2D2D2D2D2D2D2D2D03
:100D20002D2D2D2D2D2D2D2D2D2D2D2D2D00205A00
:100D300000205900205800202020202020202020A2
:100D4000202020202020202020540020202020208F
:100D50002020202020202020202020202020202093
:100D60002020207C486F74656E64206F6666736512
:100D70007420286D6D297C00202020202020202038
:100D80002020202020202020202020202020202063
:100D900020202020202020284D32313829002020FA
:100DA0002020202020202020202020202020202043
:100DB0002020202020207C486F74656E64206F66A0
:100DC0006673657420286D6D297C0000205A002010
:100DD00059002020202020202020202020202020FA
:100DE00020202020205800202020202020202020EB
:100DF00020202020202020202020202020202020F3
:100E0000202020202020284D32303629002020208C
:100E100020202020202020202020202020202020D2
:100E20002020202020207C486F6D65206F6666732F
:100E3000657420286D6D297C002D2D2D2D2D2D2DD7
:100E40002D2D2D2D2D2D2D2D2D2D2D2D2D2D2D2DD2
:100E50002D2D2D2D2D2D2D2D2D2D2D2D2D2D2D2DC2
:100E60002D2D2D2D2D2D2D2D2D2D2D2D2D2D2D2DB2
:100E70002D2D2D2D2D2D2D2D2D2D2D2D2D002020E9
:100E80002020202020202020202020202020202062
:100E9000202020202020436F6E6669677572617480
:100EA000696F6E206F6666736574002D2D2D2D2D74
:100EB0002D2D2D2D2D2D2D2D2D2D2D2D2D2D2D2D62
:100EC0002D2D2D2D2D2D2D2D2D2D2D2D2D2D2D2D52
:100ED0002D2D2D2D2D2D2D2D2D2D2D2D2D2D2D2D42
:100EE0002D2D2D2D2D2D2D2D2D2D2D2D2D2D2D005F
:100EF00020520020202020202020202020202020E0
:100F000020202020202020202020202020540000ED
:100F100020560020202020202020202020202020BB
:100F200020202020202020205000202020202020B1
:100F3000202020202020284D32303420503D707257
:100F4000696E74696E672C20563D74726176656CAB
:100F500020616E6420542A20523D72657472616370
:100F60007429002020202020202020202020202044
:100F7000202020202020202020202020207C4163B1
:100F800063656C65726174696F6E737C00002045E7
:100F90000020204D323031205400204500205A00DE
:100FA0002059002020202020202020202020202028
:100FB0002020202020202020205800202020202019
:100FC0002020202020202020202020202020202021
:100FD00020202020202020202020284D32303129A0
:100FE0000020202020202020202020202020202021
:100FF000202020207C4D6178696D756D20416363F0
:10100000656C65726174696F6E20286D6D2F733227
:10101000297C0020450020204D3230332054000030
:10102000204500205A002059002020202020202088
:101030002020202058002020202020202020202098
:1010400020202020202020202020202020202020A0
:101050002020202020284D3230332900202020203D
:101060002020202020202020202020202020202080
:10107000207C4D6178696D756D206665656472616F
:1010800074657320286D6D2F73297C000020450046
:1010900020204D3932205400436F6E6669673A0054
:1010A000204500205A002059002020202020202008
:1010B0002020202058002020202020202020202018
:1010C0002020202020202020202020202020202020
:1010D0002020202020284D393229002020202020C7
:1010E0002020202020202020202020202020202000
:1010F00020202020207C537465707320706572203E
:10110000756E69747C002D2D2D2D2D2D2D2D2D2DE1
:101110002D2D2D2D2D2D2D2D2D2D2D2D2D2D2D2DFF
:101120002D2D2D2D2D2D2D2D2D2D2D2D2D2D2D2DEF
:101130002D2D2D2D2D2D2D2D2D2D2D2D2D2D2D2DDF
:101140002D2D2D2D2D2D2D2D2D2D0020202020203D
:10115000202020202020202020202020202020208F
:10116000202020202020436F6E66696775726174AD
:10117000696F6E002D2D2D2D2D2D2D2D2D2D2D2D0D
:101180002D2D2D2D2D2D2D2D2D2D2D2D2D2D2D2D8F
:101190002D2D2D2D2D2D2D2D2D2D2D2D2D2D2D2D7F
:1011A0002D2D2D2D2D2D2D2D2D2D2D2D2D2D2D2D6F
:1011B0002D2D2D2D2D2D2D2D004D6F64656C6F3A2D
:1011C000200050616E74616C6C613A20002D2D2DF1
:1011D0002D2D2D2D2D2D2D2D2D2D2D2D2D2D2D2D3F
:1011E0002D2D2D2D2D2D2D2D2D2D2D2D2D2D2D2D2F
:1011F0002D2D2D2D2D2D2D2D2D2D2D2D2D2D2D2D1F
:101200002D2D2D2D2D2D2D2D2D2D2D2D2D2D2D2D0E
:101210002D0029002C20002C20002800656E64730E
:10122000746F7073206869743A20202563202563E9
:1012300020256320256300205A3A0020593A0020D7
:10124000583A00656E6473746F7073206869743AFD
:1012500020004D3239004E6F204C696E65204E756E
:101260006D626572207769746820636865636B736B
:10127000756D2C204C617374204C696E653A2000AA
:1012800050415241444120444520454D4552472E4E
:1012900000504152414441005072696E74657220A1
:1012A00073746F707065642064756520746F206559
:1012B00072726F72732E204669782074686520659B
:1012C00072726F7220616E6420757365204D3939BA
:1012D0003920746F20726573746172742E202854E3
:1012E000656D7065726174757265206973207265D1
:1012F0007365742E2053657420697420616674656B
:10130000722072657374617274696E6729004E6F22
:1013100020436865636B73756D2077697468206C12
:10132000696E65206E756D6265722C204C617374F8
:10133000204C696E653A2000636865636B73756D58
:10134000206D69736D617463682C204C6173742027
:101350004C696E653A20004C696E65204E756D6271
:101360006572206973206E6F74204C617374204C19
:10137000696E65204E756D6265722B312C204C6153
:101380007374204C696E653A20004D313130004D48
:101390003331004D383420582059205A2045004D13
:1013A0003530300053442072656164206572726F7D
:1013B0007200446F6E65207072696E74696E67208A
:1013C00066696C650000060900FE0000000000016F
:1013D000090008FE000005080806000040F0C88863
:1013E00088987810050808060000C0F88888888862
:1013F00088F80505050600012030F83020050808AA
:101400000600002070F820202020E00509090600D1
:10141000FF2070A8A8B8888870200509090600FF79
:10142000E080C0B0A8283028280509090600FFF888
:10143000A88888888888A8F8050A0A0600FE20502F
:1014400050505088A8A8887003030306000340A0EA
:10145000405461726A657461207265746972616476
:1014600061005461726A65746120636F6C6F6361BF
:10147000646100537465707261746520746F6F20CD
:10148000686967683A200024F4D43050C38E20C2C3
:10149000A24017828B7011127A910D816CD90AA823
:1014A00061E108C7586607615143061E4B5D05C1DF
:1014B00045A7041A411104093D98037139310340CD
:1014C00036DB0265339102D4305402802E1D026354
:1014D0002CEE01752AC501B028A001102781018FCB
:1014E0002564012B244B01E0223401AC211F018D26
:1014F000200D01801FFC00841EED00971DDF00B849
:101500001CD200E61BC600201BBC00641AB200B24D
:1015100019A8000A19A0006A189900D11791004073
:10152000178B00B516840031167E00B31579003A8A
:10153000157300C7146F0058146A00EE1366008814
:1015400013630025135E00C7125B006C1257001571
:10155000125400C111510070114F0021114B00D6DF
:101560001049008D1047004610440002104200C090
:101570000F4000800F3E00420F3C00060F3B00CBA7
:101580000E3800930E37005C0E3500270E3400F342
:101590000D3200C10D3100900D3000600D2E003273
:1015A0000D2D00050D2C00D90C2B00AE0C2900854B
:1015B0000C29005C0C2700350C27000E0C2600E8D7
:1015C0000B2400C40B2400A00B23007D0B23005A26
:1015D0000B2100390B2100180B2000F80A1F00D93D
:1015E0000A1E00BB0A1E009D0A1D00800A1D006322
:1015F0000A1C00470A1B002C0A1B00110A1A00F7DC
:10160000091A00DD091900C4091900AB0919009273
:101610000917007B091800630917004C09160036EA
:10162000091600200916000A091500F5081500E042
:10163000081400CC081400B8081400A40814009082
:101640000813007D0812006B0813005808120046AA
:1016500008120034081100230811001208110001BB
:10166000081100F0071000E0071000D0071000C0BC
:10167000071000B0070F00A107100091070E0083AC
:10168000070F0074070F0065070E0057070E00498B
:10169000070E003B070D002E070E0020070D00135C
:1016A000070D0006070D00F9060C00ED060D00E021
:1016B000060C00D4060C00C8060C00BC060C00B0DA
:1016C000060C00A4060B0099060C008D060B008288
:1016D000060B0077060B006C060B0061060A00572C
:1016E000060B004C060A0042060A0038060A002EC5
:1016F000060A0024060A001A060A00100609000756
:10170000060A00FD050900F4050900EB050900E2E1
:10171000050900D9050900D0050900C7050900BE63
:10172000050900B5050800AD050800A50509009CE0
:10173000050800940508008C050800840508007C55
:10174000050800740508006C050700650508005DC4
:10175000050700560508004E05070047050700402D
:1017600005080038050700310507002A0507002392
:101770000507001C050600160507000F05070008F1
:1017800005060002050700FB040600F5040700EE4D
:10179000040600E8040600E2040700DB040600D5A6
:1017A000040600CF040600C9040600C3040600BDF9
:1017B000040600B7040600B1040500AC040600A648
:1017C000040600A00405009B040600950405009093
:1017D0000406008A04050085040500800406007ADA
:1017E00004050075040500700405006B040500661F
:1017F000040500610405005C04050057040500525F
:101800000405004D04050048040500430405003E9E
:101810000404003A04050035040500300404002CDB
:1018200004050027040400230405001E0404001A14
:1018300004040016040500110404000D040400094A
:101840000405000404040000040400FC030400F880
:10185000030400F4030400F0030400EC030400E8B4
:10186000030400E4030400E0030400DC030400D8E4
:10187000030400D4030400D0030400CC030400C814
:10188000030300C503030024F404D9201BC40C5C2B
:101890000E9804C4095F0265077101F405F900FBA5
:1018A00004B30048048700C10369005803550003CE
:1018B000034500BE023A008402310053022A002987
:1018C00002250004022000E4011C00C8011900AF39
:1018D00001170098011400840113007101100061C8
:1018E00001100051010E0043010D0036010B002BC9
:1018F000010B0020010B00150109000C0109000378
:10190000010800FB000800F3000800EB000700E4FA
:10191000000600DE000600D8000600D2000600CC5B
:10192000000500C7000500C2000500BD000400B9A5
:10193000000400B5000400B1000400AD000400A9DB
:10194000000400A5000300A20003009F0004009B08
:10195000000300980003009500020093000300902C
:101960000003008D0002008B000300880002008647
:1019700000020084000300810002007F0002007D5D
:101980000002007B0002007900020077000100766F
:101990000002007400020072000100710002006F7A
:1019A0000002006D0001006C0002006A0001006985
:1019B000000200670001006600010065000100648C
:1019C0000002006200010061000100600001005F90
:1019D0000002005D0001005C0001005B0001005A94
:1019E0000001005900010058000100570001005695
:1019F0000001005500010054000100530000005395
:101A00000001005200010051000100500001004F90
:101A10000001004E0000004E0001004D0001004C8E
:101A20000001004B0000004B0001004A000100498A
:101A30000001004800000048000100470001004686
:101A40000000004600010045000000450001004480
:101A5000000100430000004300010042000000427A
:101A60000001004100000041000100400001003F72
:101A70000000003F0001003E0000003E0001003D6C
:101A80000000003D0001003C0000003C0000003C64
:101A90000001003B0000003B0001003A0000003A5A
:101AA0000001003900000039000100380000003852
:101AB0000000003800010037000000370001003648
:101AC000000000360000003600010035000000353F
:101AD0000000003500010034000000340000003434
:101AE0000001003300000033000000330001003229
:101AF000000000320000003200010031000000311F
:101B00000000003100010030000000300000003013
:101B10000001002F0000002F0000002F0000002F08
:101B20000001002E0000002E0000002E0001002DFC
:101B30000000002D0000002D0000002D0001002CF1
:101B40000000002C0000002C0000002C0001002BE5
:101B50000000002B0000002B0000002B0001002AD9
:101B60000000002A0000002A0000002A00010029CD
:101B700000000029000000290000002900000029C1
:101B800000010028000000280000002800000028B4
:101B900000000028000100270000002700000027A7
:101BA000000000270000002700010026000000269A
:101BB000000000260000002600000026000100258D
:101BC0000000002500000025000000250000002581
:101BD0000000002500010024000000240000002473
:101BE0000000002400000024000100230000002366
:101BF0000000002300000023000000230000002359
:101C0000000000230001002200000022000000224A
:101C1000000000220000002200000022000100213C
:101C20000000002100000021000000210000002130
:101C30000000002100000021000100200000002021
:101C40000000002000000020000000200000002014
:101C500000000020000000200001001F0000001F05
:101C60000000001F0000001F0000001F0000001FF8
:101C70000000001F0001001E0000001E0000001EEA
:101C80000000001E0000004D383420582059205A12
:101C900020450000060900FE070192032120FFFFF6
:101CA00008FF07FF0000000600000107070602000A
:101CB00080808080800080030202060105A0A005CC
:101CC00007070600005050F850F850500507070667
:101CD00000002078A07028F020050707060000C04B
:101CE000C810204098180507070600006090A04023
:101CF000A89068020303060104C04080030707069A
:101D000001002040808080402003070706010080FA
:101D100040202020408005050506000120A870A86D
:101D2000200505050600012020F8202002030306F7
:101D300002FFC04080050101060003F8020202060E
:101D40000200C0C0050505060001081020408005FE
:101D500007070600007088888888887003070706D0
:101D6000010040C040404040E00507070600007009
:101D70008808708080F8050707060000F81020101A
:101D80000808F005070706000010305090F8101002
:101D9000050707060000F880F008088870050707A7
:101DA000060000708080F088887005070706000034
:101DB000F8081020202020050707060000708888FA
:101DC0007088887005070706000070888878080802
:101DD00070020505060200C0C000C0C0020606066B
:101DE00002FFC0C000C040800407070600001020AA
:101DF0004080402010050303060002F800F80407A5
:101E000007060100804020102040800507070600DB
:101E10000070880810200020050707060000708861
:101E20000868A8A870050707060000708888F88869
:101E30008888050707060000F08888F08888F00584
:101E400007070600007088808080887005070706F5
:101E50000000F08888888888F0050707060000F8E9
:101E60008080F08080F8050707060000F88080F089
:101E7000808080050707060000708880B888887019
:101E8000050707060000888888F888888801070702
:101E900006020080808080808080050707060000A1
:101EA000381010101090600507070600008890A0F9
:101EB000C0A0908805070706000080808080808091
:101EC000F805070706000088D8A8888888880507CD
:101ED000070600008888C8A89888880507070600B4
:101EE0000070888888888870050707060000F088D9
:101EF00088F080808005070706000070888888A821
:101F00009068050707060000F08888F0A090880513
:101F10000707060000788080700808F005070706AC
:101F20000000F82020202020200507070600008858
:101F30008888888888700507070600008888888850
:101F40008850200507070600008888888888A850E0
:101F50000507070600008888502050888805070775
:101F6000060000888888502020200507070600000A
:101F7000F80810204080F8030707060100E0808081
:101F8000808080E0050505060001804020100803E0
:101F90000707060100E02020202020E005030306BB
:101FA0000004205088050101060000F80202020624
:101FB0000205804005050506000070087888780550
:101FC00007070600008080B0C88888F00505050670
:101FD0000000708080887005070706000008086808
:101FE000988888780505050600007088F8807005D7
:101FF00007070600003048E040404040050606065E
:1020000000FF708888780870050707060000808048
:10201000B0C8888888010707060200800080808099
:1020200080800308080601FF200020202020A04017
:10203000040707060000808090A0C0A09003070757
:10204000060100C04040404040E005050506000094
:10205000D0A8A8A8A8050505060000B0C8888888EB
:1020600005050506000070888888700506060600CC
:10207000FFF08888F080800506060600FF788888D3
:10208000780808050505060000B0C88080800505B1
:102090000506000070807008F00407070600004085
:1020A00040E04040403005050506000088888898DB
:1020B0006805050506000088888850200505050686
:1020C00000008888A8A85005050506000088502053
:1020D00050880506060600FF888888780870050580
:1020E00005060000F8102040F8030707060100204D
:1020F0004040804040200107070602008080808029
:102100008080800307070601008040402040408017
:1021100005020206000268900000000600000000B0
:10212000000600000000000600000000000600009D
:10213000000000060000000000060000000000068D
:102140000000000000060000000000060000000083
:10215000000600000000000600000000000600006D
:10216000000000060000000000060000000000065D
:102170000000000000060000000000060000000053
:10218000000600000000000600000000000600003D
:10219000000000060000000000060000000000062D
:1021A0000000000000060000000000060000000023
:1021B000000600000000000600000000000600000D
:1021C00000000006000000000006000000000006FD
:1021D00000000000000600000000000600000000F3
:1021E0000006000001070706020080008080808052
:1021F000800507070600002070A8A0A8702005072A
:1022000007060000304040E04050A80505050600E4
:10221000008870507088050707060000885020F875
:1022200020F820010707060200808080008080805F
:102230000508080600003048205050209060030137
:1022400001060107A0050707060000F888B8B8B81E
:1022500088F8050707060001700878887800F805F7
:1022600005050600012850A05028050303060001BB
:10227000F808080202020602064080050707060069
:1022800000F888A88898A8F8050101060006F80457
:102290000404060003609090600507070600002014
:1022A00020F8202000F80405050600036090204077
:1022B000F0030505060003E020E020E0020202062C
:1022C000020640800508080600FF8888888898E88C
:1022D000808005070706000078989878181818027B
:1022E0000202060202C0C00202020602FF40800390
:1022F000050506000340C04040E005070706000151
:10230000708888887000F8050505060001A050282F
:1023100050A00507070600008890A858B8080805CF
:1023200007070600008890B8489820380508080676
:102330000000C040C048D83808080507070600005C
:10234000200020408088700508080600004020001A
:102350007088F8888805080806000010200070883A
:10236000F888880508080600002050007088F88862
:10237000880508080600006890007088F8888805BD
:1023800008080600005000708888F888880508084A
:102390000600002050207088F8888805070706008E
:1023A000003860A0B8E0A0B80508080600FF7088F3
:1023B000808088702060050808060000402000F832
:1023C00080F080F8050808060000081000F880F08A
:1023D00080F8050808060000205000F880F080F81A
:1023E0000507070600005000F880F080F803080891
:1023F000060100804000E0404040E003080806017C
:1024000000204000E0404040E00308080601004092
:10241000A000E0404040E0030707060100A000E004
:10242000404040E0050707060000704848E848487B
:102430007005080806000068900088C8A8988805FC
:102440000808060000402070888888887005080801
:10245000060000102070888888887005080806002B
:102460000020500070888888700508080600006801
:102470009000708888887005080806000050007079
:1024800088888888700505050600018850205088D6
:102490000508080600FF1070A8A8A8A87040050845
:1024A000080600004020888888888870050808068B
:1024B00000001020888888888870050808060000B9
:1024C00020500088888888700508080600005000A1
:1024D00088888888887005080806000010208850C1
:1024E000202020200509090600FFC04070484870E0
:1024F0004040E00408080601FF609090A09090E042
:1025000080050808060000402000700878887805DB
:102510000808060000102000700878887805080870
:10252000060000205000700878887805080806002A
:10253000006890007008788878050707060000504A
:102540000070087888780508080600002050207080
:1025500008788878050606060000D02878A0A850DC
:102560000506060600FF70808870206005080806D2
:1025700000004020007088F8807005080806000000
:102580001020007088F880700508080600002050B0
:10259000007088F8807005070706000050007088FA
:1025A000F8807003080806010080400040C04040E9
:1025B000E003080806010020400040C04040E0035E
:1025C000080806010040A00040C04040E0030707A3
:1025D000060100A00040C04040E0050707060000DB
:1025E000A040A010788870050808060000689000D8
:1025F000B0C8888888050808060000402000708858
:1026000088887005080806000010200070888888F7
:102610007005080806000020500070888888700542
:102620000808060000689000708888887005070711
:1026300006000050007088888870050505060001B6
:102640002000F800200507070600FF1070A8A8A8C2
:1026500070400508080600004020008888889868B7
:10266000050808060000102000888888986805087A
:10267000080600002050008888889868050707062B
:102680000000500088888898680509090600FF1036
:102690002000888888F808700407070601FFC040FA
:1026A00060506040E00508080600FF5000888888F8
:1026B000780870496E6963696F004D323100526568
:1026C000636172676172205461726A65746120533C
:1026D00064003FFFF87FFFFCFFFFFEFFFFFEFF00EF
:1026E0003EFE2ABEFCAABEF8AABEF8003EF8003E96
:1026F000F8103EF8383EF87C3EF8383EF8383EF8A0
:10270000383EF8003EF8003EF8003EF8003EFFFF7D
:10271000FE7FFFFC3FFFF85461726A6574612053CD
:1027200064003FFFF87FFFFCFFFFFEFFFFFEFF009E
:102730003EFE2ABEFCAABEF8AABEF8003EF8003E45
:10274000F8003EF8003EF86C3EF88A3EF84A3EF843
:102750002A3EF8CC3EF8003EF8003EF8003EFFFF6F
:10276000FE7FFFFC3FFFF83FFFF860000CC0000653
:1027700080000280FFC281D542835542875542873F
:10278000FFC287FFC287EFC287C7C28783C287C7DE
:10279000C287C7C287C7C287FFC287C7C287FFC2B7
:1027A00087FFC2C0000660000C3FFFF83FFFF860E3
:1027B000000CC0000680000280FFC281D542835514
:1027C0004287554287FFC287FFC287FFC287FFC289
:1027D0008793C28775C287B5C287D5C28733C28740
:1027E000FFC287FFC287FFC2C0000660000C3FFF28
:1027F000F8416A757374652064652046696C616D83
:10280000656E746F0054656D706572617475726188
:10281000003FFFF860000CC000068000028000024C
:10282000807C0281FFE281FF6281FE2281FF628162
:10283000FFE2807C0280380280100280000283FF69
:10284000828000028FFFE28FFFE2800002C000065C
:1028500060000C3FFFF843616C6962726172003F77
:10286000FFF87FFFFCFFFFFEFFFFFEFFFFFEFF8381
:10287000FEFE001EFE009EFE01DEFE009EFE001E0D
:10288000FF83FEFFC7FEFFEFFEFFFFFEFC007EFFA3
:10289000FFFEF0001EF0001EFFFFFEFFFFFE7FFFA9
:1028A000FC3FFFF84C656420417061676172004C29
:1028B0006564205072656E646572003FFFF86000C9
:1028C0000CC01006803802807C0280FE0280380234
:1028D0008038028438428C00629F83F2BF83FA9F63
:1028E00083F28C006284384280380280380280FE95
:1028F00002807C02803802C0100660000C3FFFF8A6
:102900004D6F76657220656A6573003FFFF87FFF43
:10291000FCFFEFFEFFC7FEFF83FEFF01FEFFC7FEC9
:10292000FFC7FEFBC7BEF3FF9EE07C0EC07C06E047
:102930007C0EF3FF9EFBC7BEFFC7FEFFC7FEFF0175
:10294000FEFF83FEFFC7FEFFEFFE7FFFFC3FFFF8A9
:102950003FFFF860000CC000068000028000028388
:10296000FF828600C28501428438428444428482C8
:1029700042849242848242844442843842850142A5
:102980008600C283FF82800002800002C0000660D1
:10299000000C3FFFF83FFFF87FFFFCFFFFFEFFFF4B
:1029A000FEFFFFFEFC007EF9FF3EFAFEBEFBC7BE47
:1029B000FBBBBEFB7DBEFB6DBEFB7DBEFBBBBEFBA2
:1029C000C7BEFAFEBEF9FF3EFC007EFFFFFEFFFF22
:1029D000FEFFFFFE7FFFFC3FFFF83FFFF860000CAB
:1029E000C00006800002888F0285108282168285D0
:1029F00012828896828012828016828012828016CD
:102A000082802642804F22805FA2804F2280204217
:102A1000801F82800002C0000660000C3FFFF84566
:102A20006E6672696172003FFFF87FFFFCFFFFFE78
:102A3000FFFFFEF770FEFAEF7EFDE97EFAED7EF70E
:102A4000697EFFED7EFFE97EFFED7EFFE97EFFD927
:102A5000BEFFB0DEFFA05EFFB0DEFFDFBEFFE07EA8
:102A6000FFFFFEFFFFFE7FFFFC3FFFF83FFFF86028
:102A7000000CC00006800002800E0280110280223D
:102A8000028024428024A28023228040228080422F
:102A90008107828208028410028820028A4002880C
:102AA0008002870002800002C0000660000C3FFF29
:102AB000F8416A7573746573003FFFF87FFFFCFF90
:102AC000FFFEFFFFFEFFF1FEFFEEFEFFDDFEFFDB80
:102AD000BEFFDB5EFFDCDEFFBFDEFF7FBEFEF87EFB
:102AE000FDF7FEFBEFFEF7DFFEF5BFFEF77FFEF81A
:102AF000FFFEFFFFFEFFFFFE7FFFFC3FFFF83FFFF3
:102B0000F87FFFFCFFFFFEFFFFFEFFFFFEF87E3EAB
:102B1000F87C3EF8383EFC107EFE00FEFF01FEFF12
:102B200083FEFF01FEFE00FEFC107EF8383EF87CBE
:102B30003EF8FE3EFFFFFEFFFFFEFFFFFE7FFFFCB5
:102B40003FFFF83FFFF860000CC0000680000280E5
:102B500000028781C28783C287C7C283EF8281FF59
:102B60000280FE02807C0280FE0281FF0283EF82EF
:102B700087C7C28783C28701C2800002800002C06B
:102B8000000660000C3FFFF83FFFF87FFFFCFEFFF0
:102B9000FEFD7FFEFEC3FEFFBDFEFFA5FEFFB5FEF0
:102BA000FFA5FEFFB5FEFFA5FEFFB5FEFFA5FEFFDC
:102BB00066FEFEC37EFE817EFEC37EFF7EFEFF813B
:102BC000FEFFFFFEFFFFFE7FFFFC3FFFF83FFFF829
:102BD00060000CC10006828002813C0280420280BB
:102BE0005A02804A02805A02804A02805A02804A6F
:102BF00002805A02809902813C82817E82813C82DD
:102C0000808102807E02800002C0000660000C3FCE
:102C1000FFF83FFFF87FFFFCFFFFFEFFFFFEFFFF17
:102C2000FEFF83FEFE6CFEFCFE7EFBFCBEF9F83E62
:102C3000F7F1DEF7E3DEF3C79EF7CFDEF7FFDEF94D
:102C4000FF3EFBFFBEFC007EFFFFFEFFFFFEFFFF1F
:102C5000FE7FFFFC3FFFF83FFFF860000CC000065E
:102C6000800002800002807C0281930283018284C2
:102C700003428607C2880E22881C228C3862883064
:102C8000228800228600C284004283FF82800002E4
:102C9000800002C0000660000C3FFFF83FFFF87F95
:102CA000FFFCFFFFFEFFFFFEFDFFFEF8EFBEF0673B
:102CB0003EFDE8BEFDE8BEFDE8BEFFE8BEFFE8BEA3
:102CC000FDE8BEFDE8BEFDE8BEF0653EF8EDBEFDE8
:102CD000FDFEFFFFFEFFFFFEFFFFFE7FFFFC3FFF4D
:102CE000F83FFFF860000CC000068000028200027E
:102CF0008710428F98C28217428217428217428001
:102D000017428017428217428217428217428F9AD7
:102D1000C2871242820202800002800002C00006C6
:102D200060000C3FFFF83FFFF87FFFFCFFFFFEFF56
:102D3000FFFEFFFFFEFF1FFEFF0FFEFF07FEFF036C
:102D4000FEFF01FEFF00FEFF007EFF00FEFF01FE12
:102D5000FF03FEFF07FEFF0FFEFF1FFEFFFFFEFF4C
:102D6000FFFEFFFFFE7FFFFC3FFFF83FFFF8600024
:102D70000CC0000680000280000280E00280F002A9
:102D800080F80280FC0280FE0280FF0280FF8280C9
:102D9000FF0280FE0280FC0280F80280F00280E0E8
:102DA00002800002800002C0000660000C3FFFF8B5
:102DB0003FFFF87FFFFCFFFFFEFFFFFEFFFFFEF877
:102DC0007C3EF87C3EF87C3EF87C3EF87C3EF87C0D
:102DD0003EF87C3EF87C3EF87C3EF87C3EF87C3E3B
:102DE000F87C3EF87C3EFFFFFEFFFFFEFFFFFE7F0C
:102DF000FFFC3FFFF83FFFF860000CC000068000BA
:102E0000028000028783C28783C28783C28783C20E
:102E10008783C28783C28783C28783C28783C2872F
:102E200083C28783C28783C28783C28000028000F7
:102E300002C0000660000C3FFFF83FFFF87FFFFC78
:102E4000FFFFFEFFFFFEFFC7FEFF39FEFEFEFEFD99
:102E5000FF7EFDD77EFDAB7EFDBB7EFDD77EFED621
:102E6000FEFEC6FEFF01FEFF83FEFF83FEFF83FE24
:102E7000FFC7FEFFFFFEFFFFFE7FFFFC3FFFF83FA7
:102E8000FFF860000CC0000680000280380280C697
:102E900002810102820082822882825482824482DC
:102EA00082288281290281390280FE02807C028090
:102EB0007C02807C02803802800002C00006600034
:102EC0000C3FFFF83FFFF87FFFFCFFFFFEFFFFFE18
:102ED000FFC7FEFF01FEFE00FEFC007EFC287EFC1C
:102EE000547EFC447EFC287EFE28FEFE38FEFF0158
:102EF000FEFF83FEFF83FEFF83FEFFC7FEFFFFFE94
:102F0000FFFFFE7FFFFC3FFFF83FFFF860000CC0B3
:102F1000000680000280380280FE0281FF0283FFEB
:102F20008283D78283AB8283BB8283D78281D7029D
:102F300081C70280FE02807C02807C02807C02804D
:102F40003802800002C0000660000C3FFFF83FFF1F
:102F5000F87FFFFCFFFFFEFFFFFEFFCC7EFFB57E8C
:102F6000FF497EFEB57EFD7A7EFAFD7EF5FEBEF35C
:102F7000FF3EFBFF7EFB877EFBB77EFBB77EFBB78A
:102F80007EFBB77EF8007EFFFFFEFFFFFE7FFFFCAB
:102F90003FFFF83FFFF860000CC000068000028091
:102FA0003382804A8280B682814A8282858285020B
:102FB000828A01428C00C2840082847882844882A2
:102FC00084488284488284488287FF82800002C0CD
:102FD000000660000C3FFFF84D3338202573004D8C
:102FE0003234004D323320257300022E2E00566FEE
:102FF0006C76657220202020202020202020202098
:103000002020040003E0000C9800180C00201A0097
:10301000303E0040710040E10061C300418100404A
:1030200001003006002002001FFC00436170617344
:103030003A005A00590020003F00580009200009BA
:103040002000092000092000462D2D3A2D2D005486
:103050002D2D3A2D2D00462D2D3A2D2D00104100FD
:103060000820800820801041002082004104004197
:103070000400208200104100000000FFFFC0FFFF9D
:10308000C010410020820041040041040020820061
:10309000104100082080082080104100000000FF3F
:1030A000FFC0FFFFC000E00000E00000E00003F808
:1030B0000007FFC007FEC007FC4007FEC007FFC0B7
:1030C00001F00000E00000400000E00000E000002F
:1030D000E00003F80007FFC007FFC007FFC007FFBD
:1030E000C007FFC001F00000E0000040003FFF000B
:1030F000700380E619C0CF3CC09F3E40BF3F40BE3A
:103100001F409CCE4081E04081E0409CCE40BE1FED
:1031100040BF3F409F3E40CF3CC0E619C070038097
:103120003FFF003FFF00700380E3F1C0C3F0C081A8
:10313000E04080C040B00340B8C740BDEF40BDEFA5
:1031400040B8C740B0034080C04081E040C3F0C0F9
:10315000E3F1C07003803FFF00506C656173652030
:103160007265736574005052494E5445522048416F
:103170004C544544004D31303420543020533139C3
:1031800030004D3130342054302053323330004D34
:103190003130342054302053323130004D3130340E
:1031A000205430205332343000566F6C76657200F4
:1031B00050726564657465726D696E61646F004D0F
:1031C00031313720456E667269616E646F004D382B
:1031D000340A204D313137204D6F746F72204170A9
:1031E000616761646F0070012C0190012701B001DB
:1031F0002201C0011D01F00118011002130130026B
:103200000E016002090190020401C002FF000003E8
:10321000FA004003F5008003F000D003EB00200427
:10322000E6007004E100E004DC004005D700C005C2
:10323000D2004006CD00D006C8008007C300300889
:10324000BE00F008B900C009B400B00AAF00B00B6E
:10325000AA00D00CA500000EA000500F9B00C010CB
:1032600096005012910000148C00C0158700B01712
:103270008200B0197D00D01B7800001E7300402032
:103280006E0090226900F024640040275F009029BE
:103290005A00E02B5500102E500020304B00103209
:1032A0004600E033410090353C001037370070385D
:1032B0003200A0392D00B03A2800A03B2300603C2A
:1032C0001E00103D1900903D1400103E0F00703E8E
:1032D0000A00C03E0500003F0000204B643A200079
:1032E000204B693A2000204B703A2000504944207E
:1032F0004175746F74756E652066696E6973686573
:1033000064212050757420746865206C617374208A
:103310004B702C204B6920616E64204B6420636FDE
:103320006E7374616E74732066726F6D2061626F6C
:10333000766520696E746F20436F6E66696775727B
:103340006174696F6E2E68206F722073656E6420E1
:10335000636F6D6D616E64204D35303020666F7225
:10336000207361766520696E20454550524F4D208F
:10337000746865206E65772076616C7565210050F4
:103380004944204175746F74756E65206661696C7F
:103390006564212074696D656F757400504944201F
:1033A0004175746F74756E65206661696C65642122
:1033B0002054656D706572617475726520746F6FED
:1033C000206C6F7700504944204175746F74756E9E
:1033D00065206661696C6564212054656D70657255
:1033E000617475726520746F6F206869676800206A
:1033F0004B643A2000204B693A2000204B703A2061
:103400000020436C6173736963205049442000209D
:1034100054753A2000204B753A2000206D61783AAF
:103420002000206D696E3A200020643A200020625E
:103430006961733A2000204170706C792072657365
:10344000756C7400204379636C65733A20002054D6
:10345000656D703A2000486F74656E643A200043D1
:1034600048414D42455200424544005049442041A4
:1034700075746F74756E6520737461727400504951
:1034800044204175746F74756E65206661696C6562
:103490006421204261642074656D70657261747589
:1034A000726520636F6E74726F6C6C6572206E75DE
:1034B0006D626572002C2073797374656D2073746E
:1034C0006F707065642120436F6F6C6572002C20F3
:1034D00073797374656D2073746F707065642120E7
:1034E0004368616D626572002C2073797374656D39
:1034F0002073746F707065642120426564002C2015
:1035000073797374656D2073746F707065642120B6
:103510004865617465725F49443A200050415241E8
:10352000444120444520454D4552472E00202D2042
:10353000496E76616C696420657874727564657231
:10354000206E756D626572202100C0159100B01764
:103550008C00B0198700D01B8200001E7D00402027
:10356000780090227300F0246E00402769009029B3
:103570006400B02A5F00D02B5A00F02C5500102EAA
:10358000500020304B0010324600E03341009035AF
:103590003C001037370070383200A0392D00B03AA7
:1035A0002800A03B2300603C1E00103D1900903D08
:1035B0001400103E0F00703E0A00C03E0500003FA0
:1035C00000004D494E54454D50204552524F520037
:1035D0004D494E54454D5020747269676765726558
:1035E00064004D494E54454D5020424544204552BB
:1035F000524F520002536F667477617265205265B4
:10360000736574005761746368646F6720526573F3
:1036100065740042726F776E206F75742052657307
:1036200065740045787465726E616C2052657365CF
:103630007400506F77657255700020202020202084
:103640002020202020202020204F6B7C48617264A5
:10365000636F6465642053442044656661756C74CF
:103660002053657474696E6773204C6F6164656480
:103670000020506C616E6E657242756666657242BE
:10368000797465733A2000202020202020202020FB
:103690002020202046726565204D656D6F72793A55
:1036A00020002D2D2D2D2D2D2D2D2D2D2D2D2D2D84
:1036B0002D2D2D2D2D2D2D2D2D2D2D2D2D2D2D2D3A
:1036C0002D2D2D2D2D2D2D2D2D2D2D2D2D2D2D2D2A
:1036D0002D2D2D2D2D2D2D2D2D2D2D2D2D2D2D2D1A
:1036E0002D2D2D2D2D2D002D2D2D2D2D2D2D2D2D37
:1036F0002D2D2D2D2D2D2D2D2D2D2D2D2D2D2D2DFA
:103700002D2D2D2D2D2D2D2D2D2D2D2D2D2D2D2DE9
:103710002D2D2D2D2D2D2D2D2D2D2D2D2D2D2D2DD9
:103720002D2D2D2D2D2D2D2D2D2D2D00202020202A
:103730002020202020202020202020202020202089
:103740002020202020436F6D70696C65643A204A08
:10375000756E203139203230313800202020202071
:103760002020202020202020202020202020202059
:10377000202020202020417574686F723A20284B49
:1037800055545445524352414654205F7C7C5F203F
:103790004D6F643A4F726C697829002020202020F8
:1037A0002020202020202020202020202020202019
:1037B0004C61737420557064617465643A204A7575
:1037C0006E20313920323031382031373A35323AB3
:1037D0003136002D2D2D2D2D2D2D2D2D2D2D2D2D39
:1037E0002D2D2D2D2D2D2D2D2D2D2D2D2D2D2D2D09
:1037F0002D2D2D2D2D2D2D2D2D2D2D2D2D2D2D2DF9
:103800002D2D2D2D2D2D2D2D2D2D2D2D2D2D2D2DE8
:103810002D2D2D2D2D2D2D0020202020202020206D
:103820002020202020202020202020202020202098
:10383000204B555454455243524146545F56203311
:103840002E362E31002D2D2D2D2D2D2D2D2D2D2DC6
:103850002D2D2D2D2D2D2D2D2D2D2D2D2D2D2D2D98
:103860002D2D2D2D2D2D2D2D2D2D2D2D2D2D2D2D88
:103870002D2D2D2D2D2D2D2D2D2D2D2D2D2D2D2D78
:103880002D2D2D2D2D2D2D2D2D002D2D2D2D2D2D95
:103890002D2D2D2D2D2D2D2D2D2D2D2D2D2D2D2D58
:1038A0002D2D2D2D2D2D2D2D2D2D2D2D2D2D2D2D48
:1038B0002D2D2D2D2D2D2D2D2D2D2D2D2D2D2D2D38
:1038C0002D2D2D2D2D2D2D2D2D2D2D2D2D2D002062
:1038D00020202020202020202020202020202020E8
:1038E000202020202020204B757474657263726143
:1038F0006674204669726D77617265002D2D2D2DDD
:103900002D2D2D2D2D2D2D2D2D2D2D2D2D2D2D2DE7
:103910002D2D2D2D2D2D2D2D2D2D2D2D2D2D2D2DD7
:103920002D2D2D2D2D2D2D2D2D2D2D2D2D2D2D2DC7
:103930002D2D2D2D2D2D2D2D2D2D2D2D2D2D2D2DB7
:10394000007374617274003FFFF860000CC00006E1
:1039500080380290FE029BC7829F01C29E00C29FD8
:1039600000629F80628000328000328000328000DE
:10397000628000628000C28301C283C78280FE022F
:10398000803802C0000660000C3FFFF83FFFF87F60
:10399000FFFCFFFFFEFFC7FEEF01FEE4387EE0FE06
:1039A0003EE1FF3EE0FF9EE07F9EFFFFCEFFFFCEA9
:1039B000FFFFCEFFFF9EFFFF9EFFFF3EFCFE3EFC93
:1039C000387EFF01FEFFC7FEFFFFFE7FFFFC3FFFCB
:1039D000F8566F6C766572004D3234004D323320EC
:1039E0002573004D363030004D3131372050494479
:1039F0002041637475616C697A61646F004D353084
:103A00003000494E44555354524941204152474594
:103A10004E54494E41007777772E6B7574746572FA
:103A200063726166742E636F6D00504B32202B2BD6
:103A3000005620332E362E3100204D6F64656C6F9A
:103A40003A0056657273696F6E3A001C38000000C8
:103A500000000000001C7117DF7DE39E11F7C01C01
:103A6000E111044114512901001DF91104411411FF
:103A70004501001FC1110479E41E45E1001DF91143
:103A8000044144147D01001CE1110441245245010C
:103A9000001C70E1047F13914501001C38000000F8
:103AA00000000000001C1DFFFFFFFFFFFFFFF000F4
:103AB0000000000000000000007FFFFFFFFFFFFF8D
:103AC000FFFFC04D353030004D353030004D3530C2
:103AD00030004732380A473238205820590A4731D7
:103AE000205A3000496E6963696F00556C74696DC6
:103AF0006120506F736963696F6E0044657364651C
:103B00002E2E2E00436F6E74696E75617220696D82
:103B100070726573696F6E004D35303000436F6EA3
:103B200074696E7561720043616E63656C617200E9
:103B3000436F6E206C6120696D70726573696F6E82
:103B400000446573656120636F6E74696E756172A0
:103B500000436F727465206465206C757A210041A2
:103B60006A75737461722050494400456E636F64D6
:103B700065722020202020202020205B495A515DA2
:103B800000456E636F646572202020202020202075
:103B9000205B4445525D00477561726461646F202B
:103BA000202020202020205B4F66665D0047756145
:103BB000726461646F2020202020202020205B4F31
:103BC0006E5D00496E666F726D6163696F6E202075
:103BD000205B43617061735D00496E666F726D6159
:103BE00063696F6E2020205B436F6F72645D0049D4
:103BF00064696F6D6120202020202020202020205B
:103C00005B45535D0056657273696F6E00566F6C4D
:103C100076657220202020202020202020202020B7
:103C2000200400436170613A006361706120646543
:103C30002063616D62696F0053656C656363696FD2
:103C40006E6172006E6F2065737461626C6563698A
:103C5000646173004572726F723A206361706173C0
:103C6000001FFFFFF0300000186000000CC00000D3
:103C7000068000000280EE000280EF000280EF80EC
:103C80000280EFC00280EFE00280EFF00280EFF8E8
:103C90000280EFFC0280EFFE0280EFFF0280EFFF68
:103CA0008280EFFF0280EFFE0280EFFC0280EFF8DF
:103CB0000280EFF00280EFE00280EFC00280EF8030
:103CC0000280EF000280EE0002C0000006600000EB
:103CD0000C300000181FFFFFF01FFFFFF03FFFFF39
:103CE000F87FFFFFFCFFFFFFFEFFFFFFFEFF11FF5E
:103CF000FEFF10FFFEFF107FFEFF103FFEFF101FB4
:103D0000FEFF100FFEFF1007FEFF1003FEFF100165
:103D1000FEFF1000FEFF10007EFF1000FEFF1001EE
:103D2000FEFF1003FEFF1007FEFF100FFEFF101F27
:103D3000FEFF103FFEFF107FFEFF10FFFEFF11FF92
:103D4000FEFFFFFFFE7FFFFFFC3FFFFFF81FFFFFAF
:103D5000F043616E63656C61722063616D62696FCF
:103D60000043616D62696F20636170613A20001FDA
:103D7000FFFFF0300000186000000CC002008680D9
:103D80000301828002828281827C8281827C82879E
:103D9000E27C8287E27C8281827C8281827C82805A
:103DA000027C8280027C8281827C8281827C828110
:103DB000827C8281827C8281827C8281827C8281FF
:103DC000827C8281827C8287E27C8283C292828131
:103DD00083118280021082C00010066000000C3047
:103DE0000000181FFFFFF01FFFFFF03FFFFFF87FED
:103DF000FFFFFCFFFDFF7EFFFCFE7EFFFD7D7EFEE4
:103E00007D837EFE7D837EF81D837EF81D837EFE8E
:103E10007D837EFE7D837EFFFD837EFFFD837EFEB0
:103E20007D837EFE7D837EFE7D837EFE7D837EFEA2
:103E30007D837EFE7D837EFE7D837EFE7D837EF898
:103E40001D837EFC3D6D7EFE7CEE7EFFFDEF7EFFE2
:103E5000FFEFFE7FFFFFFC3FFFFFF81FFFFFF0417A
:103E6000686F7261001FFFFFF030000018600000F3
:103E70000CC0020086800301828002828281827CE3
:103E80008283C27C8287E27C8281827C8281827C86
:103E90008281827C8281827C8281827C8281827C1E
:103EA0008281827C8281827C8280027C8280027C10
:103EB0008280027C8280027C8287E27C8287E27C34
:103EC00082800292828003118280021082C00010E0
:103ED000066000000C300000181FFFFFF01FFFFFFE
:103EE000F03FFFFFF87FFFFFFCFFFDFF7EFFFCFEC2
:103EF0007EFFFD7D7EFE7D837EFC3D837EF81D83FF
:103F00007EFE7D837EFE7D837EFE7D837EFE7D83C1
:103F10007EFE7D837EFE7D837EFE7D837EFE7D83B1
:103F20007EFFFD837EFFFD837EFFFD837EFFFD839D
:103F30007EF81D837EF81D837EFFFD6D7EFFFCEE07
:103F40007EFFFDEF7EFFFFEFFE7FFFFFFC3FFFFFE9
:103F5000F81FFFFFF0456E20436170613A00436136
:103F60006D626961722066696C616D656E746F0067
:103F700001060A00FE070136026820FFFE08FE0760
:103F8000FE0A0060221767808080808000801633E0
:103F900063A0A0A00257675050F850F85050025745
:103FA000672070A07028702002576748A8502050E2
:103FB000A89002576740A0A040A89068261363808D
:103FC00080801237672040808080402012376780D1
:103FD0004020202040800355658850F850880355C4
:103FE000652020F82020113363604080055161F87E
:103FF00011336340E040025767080810204080807A
:10400000025767205088888850200257672060A098
:10401000202020F8025767708808304080F8025747
:1040200067F808103008887002576710305090F811
:104030001010025767F880B0C808887002576730C0
:104040004080B0C88870025767F8081010204040C0
:1040500002576770888870888870025767708898E0
:104060006808106011376740E0400040E0401137B9
:104070006740E04000604080124767102040804069
:104080002010045363F800F8124767804020102086
:104090004080025767708810202000200257677008
:1040A0008898A8B0807002576720508888F8888860
:1040B000025767F04848704848F002576770888098
:1040C00080808870025767F04848484848F0025797
:1040D00067F88080F08080F8025767F88080F08071
:1040E0008080025767708880809888700257678840
:1040F0008888F8888888123767E04040404040E070
:10410000025767381010101090600257678890A00F
:10411000C0A09088025767808080808080F8025716
:10412000678888D8A88888880257678888C8A89828
:10413000888802576770888888888870025767F077
:104140008888F08080800158687088888888A87086
:1041500008025767F08888F0A09088025767708837
:104160008070088870025767F820202020202002E5
:104170005767888888888888700257678888885039
:10418000505020025767888888A8A8D888025767A7
:1041900088885020508888025767888850202020BF
:1041A00020025767F80810204080F8123767E08037
:1041B00080808080E00257678080402010080812CD
:1041C0003767E02020202020E0065363205088013C
:1041D0005161F8282262804002556570087888781D
:1041E0000257678080B0C888C8B002556570888063
:1041F0008870025767080868988898680255657043
:1042000088F88070025767304840F04040400057BF
:1042100067788888780888700257678080B0C88877
:1042200088881237674000C0404040E0104969105C
:10423000003010101090906002576780808890E0E6
:104240009088123767C04040404040E0025565D03A
:10425000A8A8A888025565B0C888888802556570E6
:1042600088888870005767B0C888C8B080800057B9
:104270006768988898680808025565B0C88080808B
:1042800002556570807008F00257674040F040406A
:104290004830025565888888986802556588885036
:1042A00050200255658888A8A8500255658850207E
:1042B000508800576788889868088870025565F8A4
:1042C000102040F8124767304020C02040302217AD
:1042D0006780808080808080124767C020403040A7
:1042E00020C006536348A890FFFFFFFFFFFFFFFFBA
:1042F000FFFFFFFFFFFFFFFFFFFFFFFFFFFFFFFFCE
:10430000FFFFFFFFFFFFFFFFFF0A0060221767802C
:104310000080808080800157672078A0A0A078204E
:10432000025767304840E04048B0025565887050F9
:10433000708801586888885020F82020202217674C
:10434000808080008080800158687080E0904838CC
:104350000870193161A00257677088A8C8A88870D2
:104360001346667090B05000F0026565244890488E
:1043700024144262F010154161F00257677088E81A
:10438000C8C88870095161F816336340A0400256CE
:10439000662020F82020F815456560902040F01533
:1043A0004565E0106010E028226240800156668872
:1043B0008888C8B08002576778E8E86828282825E8
:1043C000116180202262408015356540C04040E088
:1043D0001346666090906000F0026565904824483E
:1043E0009001696940C04040E40C143C04016969D3
:1043F00040C04040E81404081C015969C020402016
:10440000C8182878080257672000202040887002CA
:1044100058684020708888F8888802586810207092
:104420008888F888880258682050708888F88888BA
:1044300002586848B0708888F88888025868500028
:10444000708888F888880258682050708888F888B2
:10445000880267673C50909CF0909C005969708876
:104460008080808870204002586840F88080F0800A
:1044700080F802586810F88080F08080F802586850
:1044800020F88080F08080F802586850F88080F032
:104490008080F81238688040E040404040E01238A8
:1044A000682040E040404040E012386840A0E040D2
:1044B000404040E0123868A000E040404040E00248
:1044C0005767F04848E84848F0025868285088C8BC
:1044D000A898888802586840207088888888700268
:1044E000586810207088888888700258682050703A
:1044F00088888888700258682850708888888870F2
:104500000258685000708888888870025565885005
:10451000205088025767709898A8C8C870025868D9
:104520004020888888888870025868102088888889
:1045300088887002586820500088888888700258DF
:104540006850008888888888700258681020888899
:104550005020202002576780F088F080808002572A
:1045600067708890A09088B002586840200070085A
:104570007888780258681020007008788878025887
:1045800068205000700878887802586828500070B9
:104590000878887802576750007008788878025841
:1045A00068205020700878887802656578147C90BF
:1045B0007C005767708880887020400258684020CF
:1045C000007088F880700258681020007088F880A9
:1045D000700258682050007088F880700257675049
:1045E000007088F88070123868804000C0404040F9
:1045F000E0123868408000C0404040E01238684017
:10460000A000C0404040E0123767A000C0404040DA
:10461000E0025767C0307088888870025868285058
:1046200000B0C88888880258684020007088888850
:1046300070025868102000708888887002586820BE
:1046400050007088888870025868285000708888E8
:1046500088700257675000708888887003556520FD
:1046600000F800200255657898A8C8F00258684004
:1046700020008888889868025868102000888888F8
:1046800098680258682050008888889868025767A0
:104690005000888888986800596910208888986830
:1046A00008887000586880F0888888F080800059F9
:1046B0006950008888986808887001050800FF061E
:1046C0000121023520FFFF07FF06FF0900502216D7
:1046D00056808080800080153353A0A0A0025757D9
:1046E0005050F850F850500257572070A070287062
:1046F0002013355580A040A02002475740A0A0407D
:10470000A0A05025135380808012265640808080C0
:1047100080401226568040404040800245559060BF
:10472000F060900255552020F8202011335360404E
:1047300080044151F011335340E0400246561010BE
:104740002040808012365640A0A0A0A040123656CD
:1047500040C0404040E00246566090106080F00249
:104760004656F020601090600246562060A0F0206F
:1047700020024656F080E01090600246566080E0CD
:10478000909060024656F01020204040024656604D
:104790009060909060024656609090701060122574
:1047A00055C0C000C0C01136566060006040801225
:1047B0003656204080804020034353F000F01236EC
:1047C0005680402020408012365640A020400040B5
:1047D000015858304898A8A890403002465660903A
:1047E00090F09090024656E090E09090E00246569D
:1047F000609080809060024656E090909090E00239
:104800004656F080E08080F0024656F080E08080DE
:1048100080024656609080B090600246569090F0BC
:10482000909090123656E040404040E0024656706C
:10483000202020A04002465690A0C0A0A090024692
:10484000568080808080F002465690F0F0909090E4
:1048500002465690D0F0B0B09002465660909090CC
:104860009060024656E09090E0808001475760904B
:1048700090D0B06010024656E09090E090900246D2
:1048800056609040209060123656E04040404040D4
:10489000024656909090909060024656909090906C
:1048A0006060024656909090F0F0900246569090CC
:1048B000606090900256568888502020200246560C
:1048C000F010204080F0123656E080808080E002B8
:1048D0004656808040201010123656E020202020BE
:1048E000E016325240A0014151F01622528040029F
:1048F0004454709090700246568080E09090E01290
:10490000345460808060024656101070909070029F
:10491000445460B0C060024656205040E040400120
:10492000455560907010600246568080E0909090EF
:104930001236564000C04040E0113757200020207A
:1049400020A040024656808090E09090123656C0DB
:1049500040404040E0025454D0A8A8A8024454E08B
:1049600090909002445460909060014555E090E032
:1049700080800145557090701010024454A0D08082
:104980008012345460C020C00246564040E040507F
:104990002002445490909070123454A0A0A0400281
:1049A000545488A8A8500244549060609001455522
:1049B0009090709060024454F02040F002475730CD
:1049C0004020C020403022165680808080808002A7
:1049D0004757C02040304020C006425250A0FFFF41
:1049E000FFFFFFFFFFFFFFFFFFFFFFFFFFFFFFFFD7
:1049F000FFFFFFFFFFFFFFFFFFFFFFFFFFFFFF09BD
:104A0000005022165680008080808001465620701B
:104A1000A0A070200246562050E04050A0025555FC
:104A200088705070880256568850F820F820221757
:104A300057808080008080800247577080E09070AF
:104A400010E0173151A002565670A8C8C8A87014BB
:104A5000355560A06000E003435350A0501233531B
:104A6000E02020143151E002565670E8D8E8D870A2
:104A7000173151E015335340A04012355540E04006
:104A800000E014355540A02040E0143555C020C04A
:104A900020C01622524080014555909090E080023F
:104AA000565678E8E868282824115180112252408F
:104AB0008014355540C04040E014355540A04000BA
:104AC000E0034353A050A0024757808080A060F0CD
:104AD000200247578080A0D01020700247578040A6
:104AE0008060A0F02012365640004080A04002476F
:104AF0005740206090F0909002475720406090F01F
:104B0000909002475760906090F090900247575005
:104B1000A06090F0909002475790006090F09090C5
:104B200002475760906090F0909002465670A0A0A7
:104B3000F0A0B001475760908080906040024757D6
:104B40004020F080E080F00247572040F080E08075
:104B5000F00247576090F080E080F00247579000E5
:104B6000F080E080F01237578040E0404040E01293
:104B700037572040E0404040E012375740A0E04027
:104B80004040E0123757A000E0404040E002565657
:104B90007048E848487002475750A090D0B09090B5
:104BA0000247574020609090906002475720406035
:104BB000909090600247576090609090906002479C
:104BC0005750A0609090906002475790006090907E
:104BD0009060123353A040A002465670B0B0D0D0BF
:104BE000E002475740209090909060024757204045
:104BF00090909090600247576090909090906002E3
:104C0000475790009090909060025757102088501E
:104C100020202002465680E09090E08002465660B8
:104C200090A0A090A0024757402000709090700282
:104C300047572040007090907002475720500070F6
:104C400090907002475750A00070909070024656A6
:104C50005000709090700247576090607090907014
:104C6000025454F068B0781135556080806040027D
:104C7000475740200060B0C06002475720400060A6
:104C8000B0C06002475760900060B0C060024656F6
:104C9000500060B0C060123757804000C04040E014
:104CA000123757204000C04040E012375740A00064
:104CB000C04040E0123656A000C04040E0024757D6
:104CC000A040A01070906002475750A000E0909064
:104CD0009002475740200060909060024757204064
:104CE0000060909060024757609000609090600272
:104CF000475750A000609090600246569000609028
:104D000090601235554000E0004002445470B0D02D
:104D1000E002475740200090909070024757204093
:104D200000909090700247576090009090907002B1
:104D30004656900090909070014858204000909006
:104D40007090600147578080E090E0808001475775
:104D50009000909070906056656C6F6369646164B8
:104D6000006C612076656C6F6369646164005365F3
:104D70006C656363696F6E650076616C6F72206944
:104D80006E696369616C00426F7175696C6C61007A
:104D90006C612074656D7065726174757261005329
:104DA000656C656363696F6E650043616D61206367
:104DB000616C69656E7465006C612074656D706509
:104DC0007261747572610053656C656363696F6EBF
:104DD00065004D333133004D3131370046616E206F
:104DE00064652063617061006C612076656C6F633F
:104DF000696461640053656C656363696F6E650027
:104E00003FFFF87FFFFCFFFFFEFFBBFEFE38FEFC0E
:104E1000387EF8383EF0381EF07C1EE0C60EFF8368
:104E2000FEFF83FEFF83FEE0C60EF07C1EF0381E00
:104E3000F8383EFC387EFE38FEFFBBFEFFFFFE7FEB
:104E4000FFFC3FFFF83FFFF860000CC00006804405
:104E50000281C70283C78287C7C28FC7E28F83E2FE
:104E60009F39F2807C02807C02807C029F39F28F25
:104E700083E28FC7E287C7C283C78281C7028044AB
:104E800002C0000660000C3FFFF83FFFF87FFFFC08
:104E9000FFFFFEFFFFFEFFFFFEFFFFFEFFFFFEFD29
:104EA000EF7EFEF7BEFEF7BEFDEF7EFBDEFEF7BD3A
:104EB000FEF7BDFEFBDEFEFDEF7EFFFFFEF0001EF7
:104EC000F0001EFFFFFEFFFFFE7FFFFC3FFFF83FED
:104ED000FFF860000CC00006800002800002800025
:104EE0000280000282108281084281084282108280
:104EF0008421028842028842028421028210828038
:104F000000028FFFE28FFFE2800002C00006600017
:104F10000C3FFFF854656D706572617475726100C5
:104F2000506F72206661766F72206573706572656E
:104F3000004739310A473120453135204631353077
:104F40000A4739300A4739310A473120452D313077
:104F50003020463330300A4739300A4D3834004764
:104F600039310A4731204531303020463135300A59
:104F70004739300A4D383400416A757374652064CE
:104F8000652046696C616D656E746F0043616C638A
:104F9000756C616E646F2E2E2E00507565646520F1
:104FA00074617264617220756E6F73206D696E75C5
:104FB000746F7300416A757374616E646F20504939
:104FC000440043616C656E74616E646F2E2E2E001A
:104FD000506F72206661766F7220657370657265BE
:104FE000003FFFF87FFFFCFFFFFEFFFFFEFFFFFE1D
:104FF000FFFFFEFFFFFEFFFFFEE6DE6EE6DE6EEA6F
:10500000DEAEEADEAEEADEAEECDECEECC2CEFFFF16
:10501000FEFFFFFEFFFFFEFFFFFEFFFFFEFFFFFEA6
:105020007FFFFC3FFFF83FFFF860000CC0000680E8
:1050300000028000028000028000028000029921AC
:105040009299219295215295215295215293213284
:10505000933D3280000280000280000280000280C6
:105060000002C0000660000C3FFFF83FFFF87FFF22
:10507000FCFFFFFEFFFFFEFFFFFEFFFFFEFFFFFE48
:10508000FFFFFEC2F176DEF776DEF7AEC6F1DEDEBA
:10509000F7AEDEF776DE1176FFFFFEFFFFFEFFFFC5
:1050A000FEFFFFFEFFFFFEFFFFFE7FFFFC3FFFF85E
:1050B0003FFFF860000CC000068000028000028004
:1050C0000002800002800002BD0E8AA1088AA108A9
:1050D00052B90E22A10852A1088AA1EE8A800002CC
:1050E000800002800002800002800002C000066092
:1050F000000C3FFFF83FFFF87FFFFCFFFFFEFFFFC4
:10510000FEFFFFFEFFFFFEFFFFFEFFFFFEF38F1E11
:10511000EDB6FEEDB6FEE18F3EEDB7DEEDB7DEEDAE
:105120008E3EFFFFFEFFFFFEFFFFFEFFFFFEFFFFC5
:10513000FEFFFFFE7FFFFC3FFFF83FFFF860000C23
:10514000C000068000028000028000028000028011
:1051500000028C70E29249029249029E70C292480B
:10516000229248229271C2800002800002800002D6
:10517000800002800002C0000660000C3FFFF83F84
:10518000FFF87FFFFCFFFFFEFFFFFEFFFFFEFFFFBC
:10519000FEFFFFFEFFFFFEE3BF3EEDBEDEEDBEDE27
:1051A000E3BE1EEFBEDEEFBEDEEF86DEFFFFFEFFDC
:1051B000FFFEFFFFFEFFFFFEFFFFFEFFFFFE7FFF84
:1051C000FC3FFFF83FFFF860000CC00006800002C3
:1051D0008000028000028000028000029C40C29297
:1051E00041229241229C41E29041229041229079B9
:1051F0002280000280000280000280000280000203
:10520000C0000660000C3FFFF8507265646574656D
:10521000726D696E61646F004578747275736F7238
:105220003A006C612074656D7065726174757261AD
:105230000053656C656363696F6E6500436F6E74E0
:10524000696E75617200496E666F3A00494E46009C
:105250004E414E00655F6D696E3A20007A5F707254
:105260006F62653A20007A5F6D696E3A2000795F5F
:105270006D696E3A2000785F6D696E3A2000526564
:10528000706F7274696E6720656E6473746F7020DE
:10529000737461747573004D6F64656C6F20323088
:1052A00031370056657273696F6E3A00436F6E66F0
:1052B000696775726163696F6E00417267656E74CC
:1052C000696E6100496E64757374726961004B5553
:1052D000545445524352414654000000000F000010
:1052E0000000000000198000000000000070E000D5
:1052F0000000000000C6300000000000039F9C007A
:10530000000000000E3FC7000000000038FFF1C0A1
:105310000000000063FFFC6000000001CFFFFF38C9
:10532000000000071FFFFF8E0000001C7FFFFFE34F
:1053300080000031FFFFFFF8C00000E7FFFFFFFE25
:105340007000038FFFFFFFFF1C000E3FFFFFFFFFFA
:10535000C70018FE07FFF007F18033FE07FFE00FDC
:10536000FCC027FE07FFC01FFE402FFE07FF803F47
:10537000FF402FFE07FF007FFF402FFE07FF00FFCB
:10538000FF402FFE07FE01FFFF402FFE07FC00FF3E
:10539000FF402FFE07F8007FFF402FFE07F0003F81
:1053A000FF402FFE07E000007F402FFE07C00000F7
:1053B0007F402FFE07807FFFFF402FFE0700FFFF8B
:1053C000FF402FFE0601FFFFFF402FFE0403FFFFFB
:1053D000FF402FFE0003FFFFFF402FFE0401FFFFF1
:1053E000FF402FFE0600FFFFFF402FFE07007FFF5C
:1053F000FF402FFE078000007F402FFE07C0000007
:105400007F402FFE07E0003FFF402FFE07F0007FA8
:10541000FF402FFE07F800FFFF402FFE07FC01FFB3
:10542000FF402FFE07FE00FFFF402FFE07FF007F1B
:10543000FF402FFE07FF803FFF402FFE07FFC01FEA
:10544000FF402FFE07FFE00FFF4027FE07FFF0079A
:10545000FE4033FE07FFF803FCC018FE07FFFC0107
:10546000F1800E3FFFFFFFFFC700038FFFFFFFFF2D
:105470001C0000E7FFFFFFFE70000031FFFFFFF898
:10548000C000001C7FFFFFE3800000071FFFFF8EAE
:1054900000000001CFFFFF380000000063FFFC6048
:1054A0000000000038FFF1C0000000000E3FC70000
:1054B00000000000039F9C000000000000C63000B8
:1054C000000000000070E0000000000000198000F3
:1054D00000000000000F00000000000000000000BD
:1054E00000000000000000000000000000000000BC
:1054F00000000000000000000000000000000000AC
:10550000000000000000000000000000000000009B
:10551000000000000000000000446F6E6520736111
:1055200076696E672066696C652E006572726F72AF
:105530002077726974696E6720746F2066696C6584
:10554000006F70656E206661696C65642C20466929
:105550006C653A200057726974696E6720746F2019
:1055600066696C653A200043616E6E6F7420656EEB
:10557000746572207375626469723A2000000021BC
:1055800000240027002A002D003000330001010014
:1055900000040107010A0100002200250028002B59
:1055A000002E003100340002010000050108010B4B
:1055B00001000020002300260029002C002F0032CB
:1055C00000000100000301060109010505050507AA
:1055D0000508080808020202020A0A08080404046E
:1055E000040101010101010101030303030303039A
:1055F00003040707070C0C0C0C0C0C0C0C02020229
:105600000206060606060606060B0B0B0B0B0B0B1B
:105610000B010210202008081020401020408002BA
:1056200001020108040201010204081020408080E8
:10563000402010080402018004020180402010086C
:105640000402010804020101020408102040800144
:105650000204081020408000000A0B02090C0D0E05
:105660000807030401000000000000000000000023
:10567000000000000000000000000000000000002A
:1056800000000012111000000000000000000000E7
:105690000000000000000000000000000020496E33
:1056A00076616C6964206578747275646572004D0A
:1056B00000736F66745F656E6473746F705F6D61A5
:1056C00078203D2000736F66745F656E6473746F3D
:1056D000705F6D696E203D2000706F736974696F33
:1056E0006E5F7368696674203D2000686F6D655F4A
:1056F0006F6666736574203D200020617869733A97
:1057000000466F7220000000524300009B430000DF
:105710004843000000000000000000000000203AA4
:105720002073796E635F706C616E5F706F73697404
:10573000696F6E0A0063757272656E745F706F7365
:105740006974696F6E3D002042403A0020403A0083
:10575000202F0020423A00202F0020543A004669B2
:105760006C652064656C657465640044656C657483
:10577000696F6E206661696C65640046696C6520BE
:1057800064656C657465640043616C656E74616D1D
:1057900069656E746F204F6B2E003F0020573A00F2
:1057A00043616C656E74616E646F2E2E2E004B75B6
:1057B000747465726372616674206C697374612EAF
:1057C00000205A00205900580020204D61783A20CE
:1057D00000205A00205900580020204D696E3A20C0
:1057E00000536F667420656E6473746F70733A0053
:1057F00043616D61204F6B2E0043616C656E746177
:105800006E646F2043616D612E004731205A31353F
:105810002046313030300A473238205A0A4731208A
:105820005A30004731205A31300A4732380A4D3851
:105830003400506F736963696F6E20342064652093
:1058400034004731205A31300A473120583137303F
:10585000205934302046323030300A473238205A0E
:105860000A4731205A3000506F736963696F6E20A8
:10587000332064652034004731205A31300A4731E3
:105880002058343020593235302046323030300AFA
:10589000473238205A0A4731205A30001FFFFFF0A4
:1058A0003FFFFFF87FFFFFFCFFFFFFFEFFF83FFE1B
:1058B000FFE00FFEFF8003FEF70381FEF20FE0FE24
:1058C000F01FF07EF03FF87EF07FFC3EF03FFE3EA2
:1058D000F01FFE1EFFFFFF1EFFFFFF1EFFFFFF1E4C
:1058E000FFFFFE1EFFFFFE3EFFFFFC3EFFFFF87EB8
:1058F000FF9FF07EFF0FE0FEFF0381FEFF8003FEAF
:10590000FFE00FFEFFF83FFE7FFFFFFC3FFFFFF8C9
:105910001FFFFFF01FFFFFF0300000186000000CB9
:10592000C00000068007C002801FF002807FFC02DA
:1059300088FC7E028DF01F028FE00F828FC00782ED
:105940008F8003C28FC001C28FE001E2800000E2BD
:10595000800000E2800000E2800001E2800001C2DD
:10596000800003C28000078280600F8280F01F02E7
:1059700080FC7E02807FFC02801FF002C007C00610
:105980006000000C300000181FFFFFF0506F7369BB
:1059900063696F6E20322064652034004731205ADD
:1059A00031300A47312058313730205932353020D4
:1059B00046323030300A473238205A0A4731205AAE
:1059C0003000506F736963696F6E20312064652009
:1059D00034004731205A31300A47312058343020C2
:1059E0005934302046323030300A473238205A0A93
:1059F0004731205A3000FFFFFFFFFFFFFFFFFFFF8F
:105A0000FFFFE08000000000000000000000002018
:105A1000B1C71C71C71C71C71C71C71C20A38E386D
:105A2000E38E38E38E38E38E38A0871C71C71C7173
:105A3000C71C71C71C71A08000000000000000009E
:105A400000000020FFFFFFFFFFFFFFFFFFFFFFFF42
:105A5000E0FFFFFFFFFFFFFFFFFFFFFFFFE0800012
:105A600000000000000000000000208E38E38E38A7
:105A7000E38E38E38E38E3A09C71C71C71C71C719C
:105A8000C71C71C720B8E38E38E38E38E38E38E345
:105A90008E2080000000000000000000000020FFB9
:105AA000FFFFFFFFFFFFFFFFFFFFFFE0506F7220D0
:105AB0006661766F72206573706572650047323873
:105AC000001FFFFFF03FFFFFF87FFFFFFCFFFFFF1E
:105AD000FEFE7FFFFEFE7FC0FEF99FDEFEF99FD235
