:100000000C94F5440C9426450C9426450C942645F6
:100010000C9426450C9426450C9426450C942645B4
:100020000C9426450C9426450C9426450C942645A4
:100030000C9426450D94E32D0C9426450C942645EE
:100040000C9426450D9449420C9426450C94264563
:100050000C9426450C9426450D9400140D94992D6E
:100060000C9426450C9478AF0C9448AF0C9426451C
:100070000C9426450C9426450C9426450C94264554
:100080000C9426450C9426450C9426450C94264544
:100090000C9426450C9426450C9426450C94264534
:1000A0000C9426450C9426450C9426450C94264524
:1000B0000C9426450C9426450C9426450C94264514
:1000C0000C9426450C9426450C9426450D94AB2E95
:1000D0000D94822E0C9426450C9426450C942645AE
:1000E0000C9426458E7B9C7AD27ACA7BD27AD27ABD
:1000F000D27AD27AD27AD27AD27AD27AD27AD27AA0
:10010000D27AD27AD27AD27AD27AD27AD27AD27A8F
:10011000D27AD27AD27AD27AD27AD27AD27AD27A7F
:10012000C47BD27AD27AD27AD27AD27AD27AD27A7C
:10013000D27A9E7BD27AD27AD27AD27AD27AD27A92
:10014000D27AD27AD27AD27AE77BCF7AE6C6C2C6A0
:100150009EC67AC656C632C60EC6EAC5C6C5A2C572
:100160007EC55AC536C512C5EEC4CAC4A6C482C46B
:100170005EC43AC416C4F2C3CEC3FCC1FCC1FCC108
:10018000FCC1FCC1FCC1FCC1FCC1FCC1FCC1FCC187
:10019000FCC1FCC1FCC1FCC1FCC1FCC1FCC1FCC177
:1001A000FCC1FCC1FCC1FCC1FCC1FCC1FCC1FCC167
:1001B000FCC1FCC1FCC1FCC1FCC1FCC1FCC1FCC157
:1001C000FCC1FCC1FCC1FCC1FCC1FCC1FCC1FCC147
:1001D000FCC1FCC1FCC1FCC1FCC1FCC1FCC1FCC137
:1001E000FCC1FCC1FCC1FCC1FCC1FCC1FCC1FCC127
:1001F000FCC1FCC1FCC1FCC1FCC1FCC1FCC1FCC117
:10020000FCC1FCC1FCC1FCC1FCC1FCC1FCC1FCC106
:10021000FCC1FCC1AAC386C362C33EC31AC3F6C2F3
:10022000D2C2AEC28AC266C242C2DAC1AECABFCAB6
:10023000D0CAE1CAF2CA56CA67CA78CA89CA2ECADF
:1002400042CA1ACA9ACA92CB06CB15CB22CB2FCB65
:100250003CCB49CB56CB63CB9FCBACCBBDCB70CB90
:100260007BED88ED92ED9CEDA7EDB2ED62ED45EDF5
:1002700032021402C401420284025C02F202E00271
:10028000EC01340282021E022A02D6022C029E02D5
:10029000F8027202460206025202AE028802B6025A
:1002A0009202CE025A025602E4014C021C02B8012C
:1002B000CA029202CA01E8020C03E60112027C02A1
:1002C000DC018E029C028A026802AC02CE01D401DB
:1002D000CC02E80104029C02F601BA02EA01BE0166
:1002E00040029802E001A602D80250027002D00239
:1002F000C601F002D001F4013E02BC012E02DA0276
:10030000080366025E027A020A0336021A02EE024D
:100310004402E202E2012202F001D201A8027E02BE
:100320008C02B802084AD73B3BCE016E84BCBFFDAD
:10033000C12F3D6C74319ABD56833DDA3D00C77FB5
:1003400011BED9E4BB4C3E916BAAAABE000000804E
:100350003F05A84CCDB2D44EB93836A9020C50B9DD
:10036000918688083CA6AAAA2ABE000000803F0009
:100370000D94392C0D94A7730D949B510D94A34F9C
:100380000D94484D0D94BF2B0D948B140D946D520C
:100390000D941F690D94432C0D94EF360D94F72C9A
:1003A0000D9419520D94C2550D94012D0D94A46510
:1003B0000D94E8320D94F6090D94C92C0D94513624
:1003C0000D9421500D94BA540D942B2C0D94B52CF2
:1003D0000D941A2D0D94422D0D94C6140D948E3546
:1003E0000D9496550D946B200D94EF510D942E2D78
:1003F0000D9468300D9478120D94EE740D94A4341D
:100400000D9469020D94A6300D94242D0D94162C94
:100410000D9435660D944B0C0D94C6360D94B22A8E
:100420000D9443940D94BA2C0D946C140D94280DD6
:100430000D94D6780D9412550D94352C0D94D3143B
:100440000D9471690D94E6540D94D6350D94C766DC
:100450000D949D360D94D6140D94DE140D947151A7
:100460000D949B350D945C140D94CB140D94144F86
:100470000D94030B0D9474360D94B7330D94C55140
:100480000D94794F0D949B140D9462540D94F514B2
:100490000D9492680D94F3040D942F2C0D94242246
:1004A0000D94EB520D94192C0D94172F0D94272CAD
:1004B0000D944A060D94212C0D94BB140D94C95033
:1004C0000D94C0260D9435650D9448690D94F35034
:1004D0000D94E52C0D94F72B0D94FF350D945E656E
:1004E0000D94C1520D94EB140D94662B0D94283687
:1004F0000D946F770D949F500D94BF2C0D9436542E
:100500000D94456A0D94CE140D94B6140D940923E0
:100510000D940C2C0D94DD2C0D946A550D94D32C58
:100520000D940C650D94502C0D945A4E0D944F76ED
:100530000D944B500D9476350D944C2D0D94E31481
:100540000D9451310D94E3640D9481350D94F74F62
:100550000D94EE550D94D5660D94ED2C0D94082C4C
:100560000D94D9200D94E32A0D9487650D94122CD7
:100570000D94D2530D94382D0D94F6680D94C664E5
:100580000D9484020D9469080D94882A0D9472329A
:100590000D94111F0D943D2C0D940B2D0D941D2CBD
:1005A0000D9497520D9415530D94CD680D94DB1452
:1005B0000D94CD4F0D9447510D9493200D94F92235
:1005C0000D94C3140D948E540D949C030D94FD69E9
:1005D0000D94472C0D94846B0D94D52A0D943E55A3
:1005E0000D9443520D94BE140D94E9220D94632290
:1005F0000D94E6140D9498070D94F92B0D94FC318D
:100600000D9449300D941A2B0D9487300D944E02A1
:100610000D941D510D9475500D944B2C0D9409663D
:100620000D94B8200D94C12A4E414E494E4954595B
:10063000494E46CDCCCC3D0AD7233C17B7D13877AD
:10064000CC2B329595E6241FB14F0A0000204100C3
:1006500000C84200401C4620BCBE4CCA1B0E5AAE0D
:10066000C59D7400407A10F35A00A0724E1809001C
:1006700010A5D4E80000E87648170000E40B540207
:100680000000CA9A3B000000E1F505000080969842
:1006900000000040420F000000A086010000001092
:1006A0002700000000E803000000006400000000D4
:1006B000000A00000000000100000000002C76D8B5
:1006C00088DC674F0823DFC1DFAE59E1B1B796E59B
:1006D000E3E453C63AE651997696E8E6C28426EBFF
:1006E000898C9B62ED407C6FFCEFBC9C9F40F2BA12
:1006F000A56FA5F490055A2AF75C936B6CF9676DAA
:10070000C11BFCE0E40D47FEF520E6B500D0ED90FE
:100710002E0300943577050080841E080000204ECB
:100720000A000000C80C333333330F986E12831164
:1007300041EF8D2114893BE65516CFFEE6DB18D13B
:10074000844B381BF77C1D901DA4BBE4242032840D
:10075000725E228100C9F124ECA1E53D27414C4C99
:1007600000434F4D4D554E49434154494F4E00446F
:10077000525952554E004552524F525300494E461F
:100780004F004543484F005265706F736F2E2E2EF9
:10079000005A206E6F7420656E74657265642E0059
:1007A0005A206E6F7420656E74657265642E0059F0
:1007B000206E6F7420656E74657265642E0059201A
:1007C0006F7574206F662072616E67652028312D09
:1007D00033292E0058206E6F7420656E7465726523
:1007E000642E0058206F7574206F662072616E67EA
:1007F000652028312D33292E00473238004D65738E
:10080000682070726F62696E6720646F6E652E007B
:100810005374617274206D6573682070726F6269C1
:100820006E6720776974682022473239205331225D
:100830002066697273742E004732380A47323920B5
:100840005332004D65736820626564206C6576657F
:100850006C696E67206E6F74206163746976652EB3
:10086000002020004D6561737572656420706F69AA
:100870006E74733A005A206F66667365743A20008E
:100880005A20736561726368206865696768743AA5
:1008900020002C004E756D20582C593A20005374BE
:1008A0006174653A200053206F7574206F66207262
:1008B000616E67652028302D35292E003C3C3C2098
:1008C00067636F64655F47333000205A3A20002029
:1008D000593A200020583A2000426564003E3E3ECE
:1008E0002067636F64655F47333000205A3A200009
:1008F00020593A200020583A2000426564002045E3
:100900003A00205A3A0020593A003C2D583A00202B
:100910005300536176656420706F736974696F6EFC
:1009200000496E76616C696420736C6F742C20745E
:100930006F74616C20736C6F74733A20003A0020FE
:10094000002D3E00205300526573746F72696E670C
:1009500020706F736974696F6E00496E76616C699F
:100960006420736C6F742C20746F74616C20736CD2
:100970006F74733A20005374617274205072696E00
:1009800074696E670053746F70205072696E746979
:100990006E670053696E206D6F76696D69656E7460
:1009A0006F00456E642066696C65206C6973740025
:1009B000426567696E2066696C65206C69737400B6
:1009C0002F005344207072696E74696E67206279DB
:1009D000746520004E6F74205344207072696E74E9
:1009E000696E67005072696E742074696D652000CD
:1009F0002569682025696D202569730025696420B3
:100A00002569682025696D20256973004469726530
:100A100063746F72792063726561746564004372F8
:100A2000656174696F6E206661696C656400436C12
:100A30006F73652066696C6520616E6420736176F2
:100A40006520726573746172742E67636F646500EC
:100A500020616E64207374617274207072696E74A8
:100A60002E004F70656E2066696C653A20004669FD
:100A70006C616D656E74207072696E7465643A2085
:100A800000202025754B6D2025756D202575636D23
:100A90002025756D6D00506F776572206F6E207424
:100AA000696D653A200020202575206461797320E6
:100AB000257520686F757273202575206D696E75B8
:100AC00074657300546F74616C207072696E742069
:100AD00074696D653A200020202575206461797362
:100AE00020257520686F757273202575206D696EDD
:100AF00075746573002C204661696C65643A20004A
:100B00002C2046696E69736865643A2000507269EA
:100B10006E7420737461746973746963733A2054DA
:100B20006F74616C3A20004B757474657263726106
:100B30006674204F46462E0043616C656E74616E8C
:100B4000646F2E2E2E004B7574746572637261662D
:100B500074206C697374612E006F66660082077D75
:100B60000776076F0761075D0744656275673A009E
:100B700050415241444120444520454D4552472E65
:100B8000004D3131332053004649524D57415245B3
:100B90005F4E414D453A4B555454455243524146A0
:100BA000545F5620342E302E30204649524D574146
:100BB00052455F55524C3A687474703A2F2F7777CC
:100BC000772E6B757474657263726166742E636FD1
:100BD0006D2F736F6674776172652050524F544F5A
:100BE000434F4C5F56455253494F4E3A322E3020B8
:100BF0004D414348494E455F545950453A4361720F
:100C000074657369616E2045585452554445525F6E
:100C1000434F554E543A3220555549443A333234B5
:100C200062666134322D613432372D313165362DB3
:100C3000383066352D373633303464656337656256
:100C4000370A006373746570733A2000205A0020DD
:100C50005900580020204D61783A2000205A002089
:100C60005900580020204D696E3A2000536F667479
:100C700020656E6473746F70733A00496E76616CB0
:100C800069642065787472756465720020443A0066
:100C900020493A0020503A00480043290061626C24
:100CA000656420286D696E2074656D702000436F47
:100CB0006C64206578747275646573206172652058
:100CC000004F6666736574206170706C6965642E90
:100CD000004F6666736574206170706C6965642E80
:100CE000004572723A20546F6F2066617221005481
:100CF0006F6F206661722066726F6D207265666527
:100D000072656E636520706F696E74004361706117
:100D10003A200020496E76616C69642065787472AF
:100D20007564657200540041637469766520457886
:100D30007472756465723A20004163746976652047
:100D40004472697665723A20003C3C3C2067636FD0
:100D500064655F5400203A2041465445520A0063BE
:100D6000757272656E745F706F736974696F6E3DD2
:100D700000203A204245464F52450A006375727280
:100D8000656E745F706F736974696F6E3D002900E2
:100D90003E3E3E2067636F64655F54280022004337
:100DA0006F6D616E646F206E6F20656E636F6E7421
:100DB0007261646F3A2022004D363030004D36307B
:100DC000300073652061637469766F20310045637C
:100DD000686F3A0056657273696F6E3A00436F6EC2
:100DE00066696775726163696F6E00417267656EEF
:100DF00074696E6100496E64757374726961004B49
:100E000055545445524352414654000000000F00CF
:100E1000000000000000198000000000000070E0E9
:100E2000000000000000C6300000000000039F9C8E
:100E300000000000000E3FC7000000000038FFF176
:100E4000C00000000063FFFC6000000001CFFFFF56
:100E500038000000071FFFFF8E0000001C7FFFFF0F
:100E6000E380000031FFFFFFF8C00000E7FFFFFF55
:100E7000FE7000038FFFFFFFFF1C000E3FFFFFFF10
:100E8000FFC70018FE07FFF007F18033FE07FFE001
:100E90000FFCC027FE07FFC01FFE402FFE07FF808C
:100EA0003FFF402FFE07FF007FFF402FFE07FF00A0
:100EB000FFFF402FFE07FE01FFFF402FFE07FC0053
:100EC000FFFF402FFE07F8007FFF402FFE07F000D6
:100ED0003FFF402FFE07E000007F402FFE07C000CD
:100EE000007F402FFE07807FFFFF402FFE0700FF9F
:100EF000FFFF402FFE0601FFFFFF402FFE0403FF10
:100F0000FFFF402FFE0003FFFFFF402FFE0401FF05
:100F1000FFFF402FFE0600FFFFFF402FFE07007F70
:100F2000FFFF402FFE078000007F402FFE07C0001C
:100F3000007F402FFE07E0003FFF402FFE07F0003C
:100F40007FFF402FFE07F800FFFF402FFE07FC0148
:100F5000FFFF402FFE07FE00FFFF402FFE07FF00B0
:100F60007FFF402FFE07FF803FFF402FFE07FFC09F
:100F70001FFF402FFE07FFE00FFF4027FE07FFF097
:100F800007FE4033FE07FFF803FCC018FE07FFFC16
:100F900001F1800E3FFFFFFFFFC700038FFFFFFF40
:100FA000FF1C0000E7FFFFFFFE70000031FFFFFFA6
:100FB000F8C000001C7FFFFFE3800000071FFFFF59
:100FC0008E00000001CFFFFF380000000063FFFC2F
:100FD000600000000038FFF1C0000000000E3FC7B5
:100FE0000000000000039F9C000000000000C630CD
:100FF00000000000000070E0000000000000198008
:101000000000000000000F000000000000000000D1
:1010100000000000000000000000000000000000D0
:1010200000000000000000000000000000000000C0
:1010300000000000000000000000000000000000B0
:10104000000000000000000000656E6473746F70A3
:1010500073206869743A2020256320256320256366
:1010600020256300205A3A0020593A0020583A00BF
:10107000656E6473746F7073206869743A20004DF4
:1010800032390050415241444120444520454D45AC
:1010900052472E00504152414441005072696E74D3
:1010A00065722073746F7070656420647565207458
:1010B0006F206572726F72732E2046697820746893
:1010C00065206572726F7220616E64207573652091
:1010D0004D39393920746F20726573746172742EC2
:1010E000202854656D70657261747572652069732E
:1010F0002072657365742E205365742069742061B5
:10110000667465722072657374617274696E6729A2
:10111000004E6F204C696E65204E756D62657220C1
:101120007769746820636865636B73756D2C204CF8
:10113000617374204C696E653A20004E6F204368DD
:1011400065636B73756D2077697468206C696E6573
:10115000206E756D6265722C204C617374204C6931
:101160006E653A2000636865636B73756D206D6909
:10117000736D617463682C204C617374204C696ECC
:10118000653A20004C696E65204E756D626572206F
:101190006973206E6F74204C617374204C696E65A6
:1011A000204E756D6265722B312C204C617374205A
:1011B0004C696E653A20004D313130004D333100BD
:1011C0004D383420582059205A2045004D353030B4
:1011D0000053442072656164206572726F7200442E
:1011E0006F6E65207072696E74696E672066696CD7
:1011F000650020496E76616C69642065787472754B
:10120000646572004D0000007043000061430000FF
:101210005243000000000000000000000000203ADF
:101220002073796E635F706C616E5F706F73697449
:10123000696F6E0A0063757272656E745F706F73AA
:101240006974696F6E3D00203A20636C65616E5F62
:1012500075705F61667465725F656E6473746F70DC
:101260005F6F725F70726F62655F6D6F76650A00A7
:1012700063757272656E745F706F736974696F6E97
:101280003D0029002C20002C200028003E3E3E205E
:10129000646F5F626C6F636B696E675F6D6F7665BD
:1012A0005F746F006465706C6F793A2000203A209B
:1012B0007365745F70726F62655F6465706C6F797F
:1012C00065640A0063757272656E745F706F73692E
:1012D00074696F6E3D00203A203C3C3C20646F5F97
:1012E00070726F62655F6D6F76650A00637572720A
:1012F000656E745F706F736974696F6E3D00203A3C
:10130000203E3E3E20646F5F70726F62655F6D6F5E
:1013100076650A0063757272656E745F706F7369CB
:1013200074696F6E3D002042403A0020403A002030
:101330002F0020423A00202F0020543A00203A206B
:1013400073657475705F666F725F656E6473746FDA
:10135000705F6F725F70726F62655F6D6F76650A46
:101360000063757272656E745F706F736974696F14
:101370006E3D002066697273740059005800486F12
:101380006D6520002066697273740059005800482A
:101390006F6D6520003C3C3C2067636F64655F4770
:1013A000323800203A204D424C20486F6D6520585D
:1013B000206F7220590A0063757272656E745F70D7
:1013C0006F736974696F6E3D00203A204D424C2066
:1013D00052657374204F726967696E0A0063757293
:1013E00072656E745F706F736974696F6E3D004DE6
:1013F000424C205A20686F6D696E67004D424C2048
:10140000686173206D65736800203A2028686F6DED
:10141000655F616C6C5F61786973207C7C20686FAC
:101420006D655A29203E2066696E616C0A006375FD
:101430007272656E745F706F736974696F6E3D0070
:101440003C3C3C205A5F534146455F484F4D494E16
:101450004700736F6E6461205A2066756572610083
:10146000736F6E6461205A20667565726100203A60
:10147000205A5F534146455F484F4D494E47203EF5
:1014800020686F6D655F616C6C5F617869730A00DD
:1014900064657374696E6174696F6E3D00203A20F3
:1014A0005A5F534146455F484F4D494E47203E20C5
:1014B000686F6D655F616C6C5F617869730A00636A
:1014C000757272656E745F706F736974696F6E3D6B
:1014D000003E205A5F534146455F484F4D494E47B5
:1014E000203E3E3E00203A20686F6D65590A006339
:1014F000757272656E745F706F736974696F6E3D3B
:1015000000203A20686F6D65580A00637572726535
:101510006E745F706F736974696F6E3D00526169BC
:101520007365205A20286265666F726520686F6D4A
:10153000696E672920746F20003E20656E647374A5
:101540006F70732E656E61626C65287472756529A3
:1015500000203A20536574205A20746F2070726501
:101560005F686F6D655F7A0A0063757272656E748D
:101570005F706F736974696F6E3D004D424C2077E8
:10158000617320616374697665003E3E3E20676347
:101590006F64655F47323800636F6C6420657874F0
:1015A000727573696F6E2070726576656E746564AE
:1015B0000000416C677569656E2070756C736F20F3
:1015C000656C2073656E736F722064652066696C4C
:1015D000616D656E746F3A20004D36303000736572
:1015E0002061637469766F2032005041524144415A
:1015F00020444520454D4552472E0050415241441C
:101600004120444520454D4552472E007061757379
:101610006120706172612065737065726100706134
:1016200075736120706172612075736F0070726FE5
:10163000636573616E646F00627573793A0050720E
:10164000696E7465722068616C7465642E206B69C4
:101650006C6C28292063616C6C6564210029003C56
:101660003C3C207365745F617869735F69735F6187
:10167000745F686F6D652800203A200A00637572F8
:1016800072656E745F706F736974696F6E3D005D33
:10169000203D2000686F6D655F6F66667365745BE3
:1016A000007A70726F62655F7A6F66667365742028
:1016B0003D200000000000000000000000000029A4
:1016C000003E3E3E207365745F617869735F6973A5
:1016D0005F61745F686F6D6528005761726E696E37
:1016E000673A20486F6D696E672042756D702044BF
:1016F000697669736F72203C20310029003C3C3CC4
:1017000020686F6D656178697328003E2000203A7B
:10171000204146544552207365745F617869735F58
:1017200069735F61745F686F6D650A0063757272DB
:10173000656E745F706F736974696F6E3D003E20F3
:10174000326E6420486F6D6520003E203173742036
:10175000486F6D6520000000704300006143000089
:1017600052433E2000FFFFFF29003E3E3E20686FAF
:101770006D65617869732800494E46004E414E0000
:10178000655F6D696E3A20007A5F70726F62653ACC
:1017900020007A5F6D696E3A2000795F6D696E3A5C
:1017A0002000785F6D696E3A20005265706F727428
:1017B000696E6720656E6473746F702073746174F2
:1017C000757300506F72206661766F72206573705A
:1017D000657265004739310A473120453135204669
:1017E0003135300A4739300A4739310A4731204507
:1017F0002D31303020463330300A4739300A4D38E9
:1018000034004739310A47312045313030204631E4
:1018100035300A4739300A4D3834004739310A47E4
:1018200031205A31302046333530300A47393000C4
:10183000416A757374652064652046696C616D65E5
:101840006E746F0043616C63756C616E646F2E2EF5
:101850002E00507565646520746172646172207534
:101860006E6F73206D696E75746F7300416A757366
:1018700074616E646F205049440043616C656E74FE
:10188000616E646F2E2E2E00506F72206661766F2F
:101890007220657370657265003FFFF87FFFFCFF83
:1018A000FFFEFFFFFEFFFFFEFFFFFEFFFFFEFFFF4D
:1018B000FEE6DE6EE6DE6EEADEAEEADEAEEADEAE64
:1018C000ECDECEECC2CEFFFFFEFFFFFEFFFFFEFF11
:1018D000FFFEFFFFFEFFFFFE7FFFFC3FFFF83FFF25
:1018E000F860000CC0000680000280000280000248
:1018F00080000280000299219299219295215295AF
:101900002152952152932132933D32800002800072
:1019100002800002800002800002C0000660000C0D
:101920003FFFF83FFFF87FFFFCFFFFFEFFFFFEFFDA
:10193000FFFEFFFFFEFFFFFEFFFFFEC2F176DEF7B8
:1019400076DEF7AEC6F1DEDEF7AEDEF776DE1176D6
:10195000FFFFFEFFFFFEFFFFFEFFFFFEFFFFFEFF9C
:10196000FFFE7FFFFC3FFFF83FFFF860000CC00068
:1019700006800002800002800002800002800002D7
:10198000BD0E8AA1088AA10852B90E22A10852A14F
:10199000088AA1EE8A800002800002800002800096
:1019A00002800002C0000660000C3FFFF83FFFF815
:1019B0007FFFFCFFFFFEFFFFFEFFFFFEFFFFFEFFBE
:1019C000FFFEFFFFFEF38F1EEDB6FEEDB6FEE18FCC
:1019D0003EEDB7DEEDB7DEED8E3EFFFFFEFFFFFE14
:1019E000FFFFFEFFFFFEFFFFFEFFFFFE7FFFFC3F4E
:1019F000FFF83FFFF860000CC00006800002800086
:101A0000028000028000028000028C70E292490293
:101A10009249029E70C29248229248229271C280DC
:101A20000002800002800002800002800002C000EC
:101A30000660000C3FFFF83FFFF87FFFFCFFFFFE52
:101A4000FFFFFEFFFFFEFFFFFEFFFFFEFFFFFEE3C7
:101A5000BF3EEDBEDEEDBEDEE3BE1EEFBEDEEFBE80
:101A6000DEEF86DEFFFFFEFFFFFEFFFFFEFFFFFE55
:101A7000FFFFFEFFFFFE7FFFFC3FFFF83FFFF86028
:101A8000000CC0000680000280000280000280007E
:101A9000028000029C40C29241229241229C41E27B
:101AA00090412290412290792280000280000280A1
:101AB0000002800002800002C0000660000C3FFFB0
:101AC000F850726564657465726D696E61646F006B
:101AD0004578747275736F723A006C612074656D2D
:101AE00070657261747572610053656C65636369DA
:101AF0006F6E65004731205A313520463430300A48
:101B0000473238205A0A4731205A30004731205A8C
:101B100031300A4732380A4D383400506F736963E8
:101B2000696F6E20342064652034004731205A31BB
:101B3000300A47312058313730205934302046326E
:101B40003030300A473238205A0A4731205A3000A4
:101B5000506F736963696F6E2033206465203400B1
:101B60004731205A31300A4731205834302059311A
:101B700035302046323030300A473238205A0A4752
:101B800031205A30001FFFFFF03FFFFFF87FFFFFBB
:101B9000FCFFFFFFFEFFF83FFEFFE00FFEFF8003AC
:101BA000FEF70381FEF20FE0FEF01FF07EF03FF83B
:101BB0007EF07FFC3EF03FFE3EF01FFE1EFFFFFF6B
:101BC0001EFFFFFF1EFFFFFF1EFFFFFE1EFFFFFEAB
:101BD0003EFFFFFC3EFFFFF87EFF9FF07EFF0FE021
:101BE000FEFF0381FEFF8003FEFFE00FFEFFF83FD4
:101BF000FE7FFFFFFC3FFFFFF81FFFFFF01FFFFF0F
:101C0000F0300000186000000CC00000068007C023
:101C100002801FF002807FFC0288FC7E028DF01F94
:101C2000028FE00F828FC007828F8003C28FC001B6
:101C3000C28FE001E2800000E2800000E28000004C
:101C4000E2800001E2800001C2800003C280000740
:101C50008280600F8280F01F0280FC7E02807FFC09
:101C600002801FF002C007C0066000000C300000B8
:101C7000181FFFFFF0506F736963696F6E20322089
:101C800064652034004731205A31300A47312058EA
:101C900031373020593135302046323030300A4724
:101CA0003238205A0A4731205A3000506F73696326
:101CB000696F6E20312064652034004731205A312D
:101CC000300A4731205834302059343020463230E1
:101CD00030300A473238205A0A4731205A3000FF44
:101CE000FFFFFFFFFFFFFFFFFFFFFFE0800000009F
:101CF000000000000000000020B1C71C71C71C716B
:101D0000C71C71C71C20A38E38E38E38E38E38E3DE
:101D10008E38A0871C71C71C71C71C71C71C71A0AD
:101D200080000000000000000000000020FFFFFF16
:101D3000FFFFFFFFFFFFFFFFFFE0FFFFFFFFFFFFD2
:101D4000FFFFFFFFFFFFE080000000000000000039
:101D5000000000208E38E38E38E38E38E38E38E3BF
:101D6000A09C71C71C71C71C71C71C71C720B8E348
:101D70008E38E38E38E38E38E38E2080000000003A
:101D80000000000000000020FFFFFFFFFFFFFFFF3B
:101D9000FFFFFFFFE0506F72206661766F72206573
:101DA00073706572650001060A00FE07013602685D
:101DB00020FFFE08FE07FE0A006022176780808071
:101DC00080800080163363A0A0A00257675050F8AF
:101DD00050F850500257672070A0702870200257AA
:101DE0006748A8502050A89002576740A0A040A87C
:101DF000906826136380808012376720408080803F
:101E0000402012376780402020204080035565889D
:101E100050F850880355652020F820201133636066
:101E20004080055161F811336340E0400257670874
:101E300008102040808002576720508888885020F2
:101E40000257672060A0202020F80257677088089A
:101E5000304080F8025767F8081030088870025741
:101E60006710305090F81010025767F880B0C8081B
:101E70008870025767304080B0C88870025767F892
:101E8000081010204040025767708888708888705A
:101E90000257677088986808106011376740E04003
:101EA0000040E04011376740E0400060408012474A
:101EB0006710204080402010045363F800F8124758
:101EC00067804020102040800257677088102020D3
:101ED0000020025767708898A8B08070025767206A
:101EE000508888F88888025767F04848704848F05A
:101EF00002576770888080808870025767F0484872
:101F0000484848F0025767F88080F08080F8025710
:101F100067F88080F08080800257677088808098A2
:101F20008870025767888888F8888888123767E041
:101F30004040404040E00257673810101010906059
:101F40000257678890A0C0A0908802576780808061
:101F5000808080F80257678888D8A88888880257C8
:101F6000678888C8A8988888025767708888888892
:101F70008870025767F08888F08080800158687008
:101F800088888888A87008025767F08888F0A09031
:101F90008802576770888070088870025767F82039
:101FA000202020202002576788888888888870022F
:101FB000576788888850505020025767888888A8BB
:101FC000A8D88802576788885020508888025767A9
:101FD00088885020202020025767F8081020408071
:101FE000F8123767E08080808080E0025767808049
:101FF0004020100808123767E02020202020E0064B
:102000005363205088015161F828226280400255B4
:102010006570087888780257678080B0C888C8B033
:10202000025565708880887002576708086898882C
:1020300098680255657088F880700257673048408C
:10204000F0404040005767788888780888700257C9
:10205000678080B0C88888881237674000C04040D9
:1020600040E0104969100030101010909060025745
:102070006780808890E09088123767C04040404079
:1020800040E0025565D0A8A8A888025565B0C88868
:1020900088880255657088888870005767B0C8883E
:1020A000C8B080800057676898889868080802550B
:1020B00065B0C880808002556570807008F0025756
:1020C000674040F0404048300255658888889868ED
:1020D00002556588885050200255658888A8A85008
:1020E000025565885020508800576788889868088E
:1020F0008870025565F8102040F81247673040207C
:10210000C020403022176780808080808080124706
:1021100067C02040304020C006536348A890FFFFAE
:10212000FFFFFFFFFFFFFFFFFFFFFFFFFFFFFFFFBF
:10213000FFFFFFFFFFFFFFFFFFFFFFFFFFFFFF0AA4
:1021400000602217678000808080808001576720B0
:1021500078A0A0A07820025767304840E04048B0FF
:10216000025565887050708801586888885020F83A
:10217000202020221767808080008080800158689E
:102180007080E09048380870193161A0025767707C
:1021900088A8C8A888701346667090B05000F002F6
:1021A00065652448904824144262F010154161F09E
:1021B0000257677088E8C8C88870095161F81633FB
:1021C0006340A0400256662020F82020F81545659F
:1021D00060902040F0154565E0106010E028226214
:1021E0004080015666888888C8B08002576778E8C2
:1021F000E868282828251161802022624080153552
:102200006540C04040E01346666090906000F00278
:102210006565904824489001696940C04040E40CDD
:10222000143C0401696940C04040E81404081C01E2
:102230005969C0204020C818287808025767200034
:1022400020204088700258684020708888F888886C
:102250000258681020708888F888880258682050D2
:10226000708888F8888802586848B0708888F8882C
:10227000880258685000708888F88888025868205A
:1022800050708888F888880267673C50909CF0906E
:102290009C0059697088808080887020400258684E
:1022A00040F88080F08080F802586810F88080F054
:1022B0008080F802586820F88080F08080F802580A
:1022C0006850F88080F08080F81238688040E040E4
:1022D000404040E01238682040E040404040E0127A
:1022E000386840A0E040404040E0123868A000E07C
:1022F00040404040E0025767F04848E84848F00254
:102300005868285088C8A898888802586840207063
:10231000888888887002586810207088888888703B
:102320000258682050708888888870025868285041
:1023300070888888887002586850007088888888FB
:10234000700255658850205088025767709898A889
:10235000C8C87002586840208888888888700258E9
:102360006810208888888888700258682050008803
:102370008888887002586850008888888888700229
:102380005868102088885020202002576780F088E5
:10239000F0808080025767708890A09088B00258C3
:1023A0006840200070087888780258681020007013
:1023B0000878887802586820500070087888780279
:1023C0005868285000700878887802576750007065
:1023D0000878887802586820502070087888780239
:1023E000656578147C907C005767708880887020C1
:1023F000400258684020007088F8807002586810C9
:1024000020007088F880700258682050007088F8AA
:10241000807002576750007088F8807012386880AA
:102420004000C0404040E0123868408000C040405A
:1024300040E012386840A000C0404040E0123767DA
:10244000A000C0404040E0025767C03070888888D4
:1024500070025868285000B0C888888802586840C0
:102460002000708888887002586810200070888862
:1024700088700258682050007088888870025868F8
:1024800028500070888888700257675000708888CC
:1024900088700355652000F800200255657898A8DB
:1024A000C8F00258684020008888889868025868F8
:1024B0001020008888889868025868205000888812
:1024C000889868025767500088888898680059691A
:1024D00010208888986808887000586880F088887C
:1024E00088F0808000596950008888986808887052
:1024F0004732380A4739310A4731205A3430205898
:1025000034302046343030300A473930006B75742F
:1025100074657263726166742E636F6D2F626C6F87
:102520006700473120583130205931302046333050
:10253000303000416A75737465732064652063618F
:102540006D6100566F6C76657200507265646574DB
:1025500065726D696E61646F004D31313720456E73
:10256000667269616E646F004D38340A204D3131F6
:1025700037204D6F746F72204170616761646F0026
:1025800056656C6F6369646164006C612076656C8C
:102590006F63696461640053656C656363696F6E42
:1025A0006500466C756A6F00466C756A6F0053650E
:1025B0006C656363696F6E650076616C6F7220692C
:1025C0006E696369616C00426F7175696C6C610062
:1025D0006C612074656D7065726174757261005311
:1025E000656C656363696F6E650043616D6120634F
:1025F000616C69656E7465006C612074656D7065F1
:102600007261747572610053656C656363696F6EA6
:1026100065004D333133004D3131370046616E2056
:1026200064652063617061006C612076656C6F6326
:10263000696461640053656C656363696F6E65000E
:102640003FFFF87FFFFCFFFFFEFFFFFEF770FEFA83
:10265000EF7EFDE97EFAED7EF7697EFFED7EFFE914
:102660007EFFED7EFFE97EFFD9BEFFB0DEFFA05EFC
:10267000FFB0DEFFDFBEFFE07EFFFFFEFFFFFE7F5D
:10268000FFFC3FFFF83FFFF860000CC00006800031
:1026900002888F0285108282168285128288968235
:1026A000801282801682801282801682802642806A
:1026B0004F22805FA2804F22802042801F828000B4
:1026C00002C0000660000C3FFFF83FFFF87FFFFCF0
:1026D000FFFFFEFFBBFEFE38FEFC387EF8383EF002
:1026E000381EF07C1EE0C60EFF83FEFF83FEFF83D4
:1026F000FEE0C60EF07C1EF0381EF8383EFC387E38
:10270000FE38FEFFBBFEFFFFFE7FFFFC3FFFF83FF2
:10271000FFF860000CC0000680440281C70283C736
:102720008287C7C28FC7E28F83E29F39F2807C0223
:10273000807C02807C029F39F28F83E28FC7E28720
:10274000C7C283C78281C702804402C000066000FE
:102750000C3FFFF83FFFF87FFFFCFFFFFEFFFFFE8F
:10276000FFFFFEFFFFFEFFFFFEFDEF7EFEF7BEFE5A
:10277000F7BEFDEF7EFBDEFEF7BDFEF7BDFEFBDE26
:10278000FEFDEF7EFFFFFEF0001EF0001EFFFFFECD
:10279000FFFFFE7FFFFC3FFFF83FFFF860000CC02B
:1027A0000006800002800002800002800002821089
:1027B000828108428108428210828421028842027A
:1027C0008842028421028210828000028FFFE28F01
:1027D000FFE2800002C0000660000C3FFFF8546575
:1027E0006D7065726174757261005265696E6963BE
:1027F0006965206D617175696E6100426F746F6EFD
:102800002070756C7361646F20454D47004D313108
:10281000370A4D38340A4D31313720496D707265B1
:1028200073696F6E2043616E63656C616461004D16
:10283000363030004D3131372050494420416374E7
:1028400075616C697A61646F004D35303000494EB6
:102850004455535452494120415247454E54494EE4
:10286000410053657269653A00504B33005620347D
:102870002E302E3000204D6F64656C6F3A00566527
:102880007273696F6E3A001C38000000000000008F
:10289000001C7117DF7DE39E11F7C01CE11104419C
:1028A00014512901001DF911044114114501001FA3
:1028B000C1110479E41E45E1001DF91104414414DD
:1028C0007D01001CE111044124524501001C70E10E
:1028D000047F13914501001C380000000000000037
:1028E000001C1DFFFFFFFFFFFFFFF00000000000C6
:1028F00000000000007FFFFFFFFFFFFFFFFFC04D54
:102900006F766572205A00566F6C766572003031B2
:1029100000506F736963696F6E2030310030310091
:10292000303200506F736963696F6E20303200304F
:102930003200303300506F736963696F6E2030333B
:1029400000303300303400506F736963696F6E205C
:10295000303400303400303500506F736963696F74
:102960006E20303500303500303600506F736963AB
:10297000696F6E20303600303600303700506F738C
:102980006963696F6E20303700303700303800508F
:102990006F736963696F6E203038003038003039EA
:1029A000007FFCC0068002800280028002800280DC
:1029B0000280028002800280028002C0067FFC50FA
:1029C0006F736963696F6E203039003039007FFCA6
:1029D000FFFEFFFEFFFEFFFEFFFEFFFEFFFEFFFE0F
:1029E000FFFEFFFEFFFEFFFEFFFE7FFC4572726FE3
:1029F000722077726974696E6720746F2045455044
:102A0000524F4D210020627974657329005365741B
:102A100074696E67732053746F7265642028004573
:102A20004550524F4D20636865636B73756D206D23
:102A300069736D61746368002D2D2D2D2D2D2D2D45
:102A40002D2D2D2D2D2D2D2D2D2D2D2D2D2D2D2DB6
:102A50002D2D2D2D2D2D2D2D2D2D2D2D2D2D2D2DA6
:102A60002D2D2D2D2D2D2D2D2D2D2D2D2D2D2D2D96
:102A70002D2D2D2D2D2D2D2D2D2D2D2D002062793F
:102A80007465732900202020202020202020202071
:102A9000202020202053746F726564207365747445
:102AA000696E677320726574726965766564202843
:102AB000005D2053746F7265642076657273696F70
:102AC0006E3A205B0056657273696F6E3A205B0048
:102AD0002D2D2D2D2D2D2D2D2D2D2D2D2D2D2D2D26
:102AE0002D2D2D2D2D2D2D2D2D2D2D2D2D2D2D2D16
:102AF0002D2D2D2D2D2D2D2D2D2D2D2D2D2D2D2D06
:102B00002D2D2D2D2D2D2D2D2D2D2D2D2D2D2D2DF5
:102B10002D2D2D2D002D2D2D2D2D2D2D2D2D2D2D12
:102B20002D2D2D2D2D2D2D2D2D2D2D2D2D2D2D2DD5
:102B30002D2D2D2D2D2D2D2D2D2D2D2D2D2D2D2DC5
:102B40002D2D2D2D2D2D2D2D2D2D2D2D2D2D2D2DB5
:102B50002D2D2D2D2D2D2D2D2D002D2D2D2D2D2DD2
:102B60002D2D2D2D2D2D2D2D2D2D2D2D2D2D2D2D95
:102B70002D2D2D2D2D2D2D2D2D2D2D2D2D2D2D2D85
:102B80002D2D2D2D2D2D2D2D2D2D2D2D2D2D2D2D75
:102B90002D2D2D2D2D2D2D2D2D2D2D2D2D2D00209F
:102BA000450020204D323035205400204500205A69
:102BB00000205800204200205600202020202053D2
:102BC00000002020202020202020285A3D6D617800
:102BD000696D756D205A206A65726B20286D6D2FA6
:102BE00073292C2020453D6D6178696D756D2045F8
:102BF000206A65726B20286D6D2F732929002020B3
:102C00002020202028423D6D696E696D756D20730E
:102C100065676D656E742074696D6520286D732914
:102C20002C20583D6D6178696D756D205859206A6A
:102C300065726B20286D6D2F7329290020202020BC
:102C400020202028533D4D696E20666565647261C1
:102C5000746520286D6D2F73292C20563D4D696EAB
:102C60002074726176656C20666565647261746556
:102C700020286D6D2F73292900202020202020205E
:102C80002020202020202020202020202020202044
:102C90002020202020202020284D323035290020DF
:102CA0002020202020202020202020202020202024
:102CB0002020202020202020202020207C416476FD
:102CC000616E6365647C002D2D2D2D2D2D2D2D2DF8
:102CD0002D2D2D2D2D2D2D2D2D2D2D2D2D2D2D2D24
:102CE0002D2D2D2D2D2D2D2D2D2D2D2D2D2D2D2D14
:102CF0002D2D2D2D2D2D2D2D2D2D2D2D2D2D2D2D04
:102D00002D2D2D2D2D2D2D2D2D2D2D002020202054
:102D100020202020202020202020202020202020B3
:102D2000202020436F6E66696775726174696F6EEB
:102D300020416476616E636564002D2D2D2D2D2D4F
:102D40002D2D2D2D2D2D2D2D2D2D2D2D2D2D2D2DB3
:102D50002D2D2D2D2D2D2D2D2D2D2D2D2D2D2D2DA3
:102D60002D2D2D2D2D2D2D2D2D2D2D2D2D2D2D2D93
:102D70002D2D2D2D2D2D2D2D2D2D2D2D2D2D0020BD
:102D8000204D32303020543120440020204D32304C
:102D90003020440046696C616D656E742073657403
:102DA00074696E67733A0020440020490020500087
:102DB0002020202020202020202020202020202013
:102DC00048002020202020202020202020202020FB
:102DD00020202020202020202020202020202020F3
:102DE00020284D3330312900202020202020202091
:102DF00020202020202020202020202020202020D3
:102E00002020207C5049442073657474696E677378
:102E10007C002D2D2D2D2D2D2D2D2D2D2D2D2D2DC0
:102E20002D2D2D2D2D2D2D2D2D2D2D2D2D2D2D2DD2
:102E30002D2D2D2D2D2D2D2D2D2D2D2D2D2D2D2DC2
:102E40002D2D2D2D2D2D2D2D2D2D2D2D2D2D2D2DB2
:102E50002D2D2D2D2D2D0020202020202020202044
:102E60002020202020202020202020202020202062
:102E7000436F6E66696775726174696F6E20504941
:102E800044002D2D2D2D2D2D2D2D2D2D2D2D2D2D88
:102E90002D2D2D2D2D2D2D2D2D2D2D2D2D2D2D2D62
:102EA0002D2D2D2D2D2D2D2D2D2D2D2D2D2D2D2D52
:102EB0002D2D2D2D2D2D2D2D2D2D2D2D2D2D2D2D42
:102EC0002D2D2D2D2D2D0020204D36363620500055
:102ED0005A2050726F6265206F6666736574202891
:102EE0006D6D293A00205A002059002020473239C0
:102EF00020533320580020590020580020204D3402
:102F000032302053004D65736820626564206C6523
:102F100076656C696E673A00205A00205900205887
:102F200000202020202020202020202020202020C1
:102F3000202020540020202020202020202020207D
:102F4000202020202020202020202020207C486FAE
:102F500074656E64206F666673657420286D6D29D4
:102F60007C00202020202020202020202020202025
:102F70002020202020202020202020202020202051
:102F800020284D32313829002020202020202020E8
:102F90002020202020202020202020202020202031
:102FA0007C486F74656E64206F6666736574202854
:102FB0006D6D297C0000205A00205900202020201F
:102FC00020202020202020202020202020202058C9
:102FD0000020202020202020202020202020202011
:102FE00020202020202020202020202020202020E1
:102FF000284D32303629002020202020202020207B
:1030000020202020202020202020202020202020C0
:103010007C486F6D65206F666673657420286D6DE2
:10302000297C002D2D2D2D2D2D2D2D2D2D2D2D2DB2
:103030002D2D2D2D2D2D2D2D2D2D2D2D2D2D2D2DC0
:103040002D2D2D2D2D2D2D2D2D2D2D2D2D2D2D2DB0
:103050002D2D2D2D2D2D2D2D2D2D2D2D2D2D2D2DA0
:103060002D2D2D2D2D2D2D00202020202020202025
:103070002020202020202020202020202020202050
:10308000436F6E66696775726174696F6E206F66F3
:1030900066736574002D2D2D2D2D2D2D2D2D2D2D8F
:1030A0002D2D2D2D2D2D2D2D2D2D2D2D2D2D2D2D50
:1030B0002D2D2D2D2D2D2D2D2D2D2D2D2D2D2D2D40
:1030C0002D2D2D2D2D2D2D2D2D2D2D2D2D2D2D2D30
:1030D0002D2D2D2D2D2D2D2D2D002D2D2D2D2D2D4D
:1030E0002D2D2D2D2D2D2D2D2D2D2D2D2D2D2D2D10
:1030F0002D2D2D2D2D2D2D2D2D2D2D2D2D2D2D2D00
:103100002D2D2D2D2D2D2D2D2D2D2D2D2D2D2D2DEF
:103110002D2D2D2D2D2D2D2D2D2D2D2D2D2D002019
:10312000202020202020202020202020202020209F
:1031300053656E736F722064652066696C616D659E
:103140006E746F3A20002D2D2D2D2D2D2D2D2D2D12
:103150002D2D2D2D2D2D2D2D2D2D2D2D2D2D2D2D9F
:103160002D2D2D2D2D2D2D2D2D2D2D2D2D2D2D2D8F
:103170002D2D2D2D2D2D2D2D2D2D2D2D2D2D2D2D7F
:103180002D2D2D2D2D2D2D2D2D2D002052002020CB
:10319000202020202020202020202020202020202F
:1031A0002020202020202020540000205600202015
:1031B000202020202020202020202020202020200F
:1031C00020202050002020202020202020202020EF
:1031D00020284D32303420503D7072696E74696E13
:1031E000672C20563D74726176656C20616E642098
:1031F000542A20523D726574726163742900202044
:1032000020202020202020202020202020202020BE
:1032100020202020202020207C416363656C657283
:103220006174696F6E737C000020450020204D3270
:103230003031205400204500205A00205900202021
:10324000202020202020202020202020202020207E
:103250002020202058002020202020202020202056
:10326000202020202020202020202020202020205E
:103270002020202020284D323031290020202020FD
:103280002020202020202020202020202020207CE2
:103290004D6178696D756D20416363656C65726120
:1032A00074696F6E20286D6D2F7332297C00204564
:1032B0000020204D32303320540000204500205A99
:1032C00000205900202020202020202020202058CD
:1032D000002020202020202020202020202020200E
:1032E00020202020202020202020202020202020DE
:1032F000284D32303329002020202020202020207B
:103300002020202020202020202020207C4D61789B
:10331000696D756D206665656472617465732028DA
:103320006D6D2F73297C000020450020204D39321F
:10333000205400436F6E6669673A00204500205AAA
:10334000002059002020202020202020202020584C
:10335000002020202020202020202020202020208D
:10336000202020202020202020202020202020205D
:10337000284D393229002020202020202020202004
:10338000202020202020202020202020202020203D
:103390007C53746570732070657220756E69747CDF
:1033A000002D2D2D2D2D2D2D2D2D2D2D2D2D2D2D7A
:1033B0002D2D2D2D2D2D2D2D2D2D2D2D2D2D2D2D3D
:1033C0002D2D2D2D2D2D2D2D2D2D2D2D2D2D2D2D2D
:1033D0002D2D2D2D2D2D2D2D2D2D2D2D2D2D2D2D1D
:1033E0002D2D2D2D2D0020202020202020202020BC
:1033F00020202020202020202020202020202020CD
:1034000020436F6E66696775726174696F6E002D17
:103410002D2D2D2D2D2D2D2D2D2D2D2D2D2D2D2DDC
:103420002D2D2D2D2D2D2D2D2D2D2D2D2D2D2D2DCC
:103430002D2D2D2D2D2D2D2D2D2D2D2D2D2D2D2DBC
:103440002D2D2D2D2D2D2D2D2D2D2D2D2D2D2D2DAC
:103450002D2D2D0053657269653A004D6F64656CC2
:103460006F3A200050616E74616C6C613A20002DDF
:103470002D2D2D2D2D2D2D2D2D2D2D2D2D2D2D2D7C
:103480002D2D2D2D2D2D2D2D2D2D2D2D2D2D2D2D6C
:103490002D2D2D2D2D2D2D2D2D2D2D2D2D2D2D2D5C
:1034A0002D2D2D2D2D2D2D2D2D2D2D2D2D2D2D2D4C
:1034B0002D2D2D006E6F2065737461626C656369DC
:1034C000646173004572726F723A20636170617358
:1034D0000043616E63656C61722063616D62696F48
:1034E0000043616D62696F20636170613A20004141
:1034F000686F726100456E20436170613A004361FC
:103500006D626961722066696C616D656E746F00D1
:10351000496E6963696F004D3231005265636172B3
:10352000676172205461726A657461205364003F60
:10353000FFF87FFFFCFFFFFEFFFFFEFF003EFE2ABD
:10354000BEFCAABEF8AABEF8003EF8003EF8103E47
:10355000F8383EF87C3EF8383EF8383EF8383EF809
:10356000003EF8003EF8003EF8003EFFFFFE7FFF01
:10357000FC3FFFF85461726A657461205364003F38
:10358000FFF87FFFFCFFFFFEFFFFFEFF003EFE2A6D
:10359000BEFCAABEF8AABEF8003EF8003EF8003E07
:1035A000F8003EF86C3EF88A3EF84A3EF82A3EF8AB
:1035B000CC3EF8003EF8003EF8003EFFFFFE7FFFE5
:1035C000FC3FFFF83FFFF860000CC00006800002DF
:1035D00080FFC281D54283554287554287FFC2870B
:1035E000FFC287EFC287C7C28783C287C7C287C7A8
:1035F000C287C7C287FFC287C7C287FFC287FFC211
:10360000C0000660000C3FFFF83FFFF860000CC0F0
:10361000000680000280FFC281D542835542875553
:103620004287FFC287FFC287FFC287FFC28793C25C
:103630008775C287B5C287D5C28733C287FFC28765
:10364000FFC287FFC2C0000660000C3FFFF8416A5E
:10365000757374652064652046696C616D656E7470
:103660006F0054656D7065726174757261004361BD
:103670006C696272617200417061676172204C65B1
:103680006400456E63656E646572204C6564003F3E
:10369000FFF860000CC01006803802807C0280FEBB
:1036A000028038028038028438428C00629F83F2A4
:1036B000BF83FA9F83F28C00628438428038028094
:1036C000380280FE02807C02803802C01006600052
:1036D0000C3FFFF84D6F76657220656A6573003F99
:1036E000FFF87FFFFCFFEFFEFFC7FEFF83FEFF0139
:1036F000FEFFC7FEFFC7FEFBC7BEF3FF9EE07C0ECA
:10370000C07C06E07C0EF3FF9EFBC7BEFFC7FEFF3A
:10371000C7FEFF01FEFF83FEFFC7FEFFEFFE7FFF38
:10372000FC3FFFF83FFFF860000CC000068000027D
:1037300080000283FF828600C28501428438428471
:103740004442848242849242848242844442843845
:10375000428501428600C283FF828000028000020F
:10376000C0000660000C3FFFF83FFFF87FFFFCFF42
:10377000FFFEFFFFFEFFFFFEFC007EF9FF3EFAFEAC
:10378000BEFBC7BEFBBBBEFB7DBEFB6DBEFB7DBEF5
:10379000FBBBBEFBC7BEFAFEBEF9FF3EFC007EFFD0
:1037A000FFFEFFFFFEFFFFFE7FFFFC3FFFF83FFF36
:1037B000F860000CC0000681FF0283018282008253
:1037C00082008287FFC287FFC287C1C28783C28708
:1037D0003FC2873FC28783C287C1C287F9C287F9C8
:1037E000C28781C28703C287FFC2C0000660000C87
:1037F0003FFFF84B75747465726372616674205391
:10380000746F7265003FFFF87FFFFCFFFFFEFE0054
:10381000FEFCFE7EFDFF7EFDFF7EF8003EF8003ED2
:10382000F83E3EF87C3EF8C03EF8C03EF87C3EF8DC
:103830003E3EF8063EF8063EF87E3EF8FC3EF800B6
:103840003EFFFFFE7FFFFC3FFFF8416A7573746522
:10385000730053616C697200426F7272617200454D
:103860006E76696172004573706163696F002E0046
:10387000580059005A0045004600530050004300CC
:10388000496E677265736520436F6469676F0043B3
:103890006F6D616E646F3A0053616C69720047002E
:1038A0004D00496E677265736520436F6469676F89
:1038B00000436F6D616E646F3A0045737461646FAD
:1038C000206465204C6F73204361626C6573004314
:1038D0006F727265617320475432004C7562726971
:1038E000636163696F6E00426F7175696C6C612012
:1038F000792042617272656C00417669736F204D68
:10390000616E74656E696D69656E746F0052656392
:103910007565726465205265766973617200200076
:10392000E07001C0F803807803843C038C0E07FC30
:10393000070EF8039DF0017B8000F70000EE000108
:10394000DC0003BB000777803EEFC07DCFE0FF8740
:10395000F0C703F88701FC0700FC0E007C1C003850
:1039600031352520456E204D617175696E6173009A
:1039700032302520456E2052657370756573746F03
:10398000730031302520456E204D617175696E617F
:10399000730032302520456E205265737075657353
:1039A000746F730032302520456E20526573707538
:1039B0006573746F730033312E342520456E2042B9
:1039C0006F7175696C6C61730031352520456E200F
:1039D00052657370756573746F73003135252045BA
:1039E0006E2046696C616D656E746F003132252002
:1039F000456E2052657370756573746F7300313254
:103A00002520456E2046696C616D656E746F0031CE
:103A1000302520456E2052657370756573746F7321
:103A20000031302520456E2046696C616D656E74ED
:103A30006F0033302520456E204E756573747261BA
:103A4000205469656E64610032352520456E204E34
:103A5000756573747261205469656E6461003235F6
:103A60002520456E204E756573747261205469651A
:103A70006E64610032352520456E204E7565737485
:103A80007261205469656E64610032302520456E94
:103A9000204D617175696E61730032302520456E6D
:103AA000204E756573747261205469656E6461009F
:103AB00032302520456E204E756573747261205436
:103AC00069656E64610032302520456E204E756553
:103AD00073747261205469656E646100313525200C
:103AE000456E204D617175696E617300323025201D
:103AF000456E204E756573747261205469656E64FD
:103B0000610031352520456E204E756573747261F4
:103B1000205469656E64610031352520456E204D65
:103B2000617175696E61730031352520456E204ED7
:103B3000756573747261205469656E646100353017
:103B40002520536572766963696F205465636E69D9
:103B5000636F0031302520456E204E756573747299
:103B600061205469656E64610031352520456E2001
:103B7000496E73756D6F730031302520456E204E90
:103B8000756573747261205469656E6461003235C5
:103B90002520456E204772696C6F4E330020352515
:103BA00020456E204D617175696E617300556E2000
:103BB000456E76696F204772617469732121210017
:103BC00031302520456E2046696C616D656E746FDD
:103BD0000031352520456E2052657370756573740C
:103BE0006F730031302520456E2046696C616D652C
:103BF0006E746F005445535400415753440045447C
:103C000042410042534153004150455800424F4FFA
:103C10004D00424F4C4F00434F5341004449414CEB
:103C20000044415441004441544F004445414C003C
:103C30004641524F00464F524F00434F504F0043B2
:103C400041504F004341504F0041554C41004155B8
:103C500057570058445844005850585300494F5340
:103C6000580044494F530041565247005246464679
:103C700000545854530043414454004255554800A1
:103C8000484F484F004C4F474F004D495241004F5D
:103C900055454C00484E5750004655525400494E29
:103CA0004954004465736375656E746F3A2000561D
:103CB000657220436F6E646963696F6E657320453A
:103CC0006E3A006B757474657263726166742E630C
:103CD0006F6D2F70726F6D6F004465736375656EE5
:103CE000746F004375706F6E20446500FC00040023
:103CF0000200E180908088808880A880A8808880E9
:103D0000A880A8808880A880A8808880A880A880B3
:103D10008880888088809080E18002000400FC0018
:103D20001F8010002000C38086808C8088808A805D
:103D30008A8088808A808A8088808A808A80888039
:103D40008A808A80888088808C808680C3802000DA
:103D500010001F8001050800FF060121023520FF29
:103D6000FF07FF06FF090050221656808080800062
:103D700080153353A0A0A00257575050F850F85068
:103D8000500257572070A07028702013355580A01E
:103D900040A02002475740A0A040A0A050251353A8
:103DA0008080801226564080808080401226568077
:103DB00040404040800245559060F060900255556B
:103DC0002020F82020113353604080044151F0112D
:103DD000335340E040024656101020408080123697
:103DE0005640A0A0A0A04012365640C0404040E03F
:103DF0000246566090106080F0024656F020601037
:103E000090600246562060A0F02020024656F080C6
:103E1000E01090600246566080E090906002465646
:103E2000F010202040400246566090609090600262
:103E30004656609090701060122555C0C000C0C0FA
:103E400011365660600060408012365620408080F7
:103E50004020034353F000F01236568040202040AB
:103E60008012365640A020400040015858304898F3
:103E7000A8A8904030024656609090F0909002467C
:103E800056E090E09090E00246566090808090600E
:103E9000024656E090909090E0024656F080E08016
:103EA00080F0024656F080E08080800246566090A6
:103EB00080B090600246569090F0909090123656E6
:103EC000E040404040E002465670202020A04002E2
:103ED000465690A0C0A0A090024656808080808068
:103EE000F002465690F0F090909002465690D0F036
:103EF000B0B090024656609090909060024656E0B6
:103F00009090E08080014757609090D0B0601002A0
:103F10004656E09090E09090024656609040209087
:103F200060123656E0404040404002465690909025
:103F30009090600246569090909060600246569035
:103F40009090F0F0900246569090606090900256EB
:103F500056888850202020024656F010204080F0DD
:103F6000123656E080808080E002465680804020F5
:103F70001010123656E020202020E016325240A0C9
:103F8000014151F0162252804002445470909070CA
:103F90000246568080E09090E01234546080806049
:103FA00002465610107090907002445460B0C06089
:103FB000024656205040E040400145556090701048
:103FC000600246568080E09090901236564000C0C5
:103FD0004040E01137572000202020A040024656E4
:103FE000808090E09090123656C040404040E00201
:103FF0005454D0A8A8A8024454E09090900244548D
:1040000060909060014555E090E0808001455570DA
:1040100090701010024454A0D0808012345460C0BC
:1040200020C00246564040E0405020024454909048
:104030009070123454A0A0A04002545488A8A850F4
:1040400002445490606090014555909070906002D9
:104050004454F02040F0024757304020C020403008
:10406000221656808080808080024757C0204030D2
:104070004020C006425250A0FFFFFFFFFFFFFFFF9E
:10408000FFFFFFFFFFFFFFFFFFFFFFFFFFFFFFFF40
:10409000FFFFFFFFFFFFFFFFFF09005022165680C2
:1040A00000808080800146562070A0A070200246CB
:1040B000562050E04050A00255558870507088023C
:1040C00056568850F820F8202217578080800080AC
:1040D00080800247577080E0907010E0173151A047
:1040E00002565670A8C8C8A87014355560A0600064
:1040F000E003435350A050123353E02020143151B9
:10410000E002565670E8D8E8D870173151E0153300
:104110005340A04012355540E04000E01435554072
:10412000A02040E0143555C020C020C016225240C7
:1041300080014555909090E08002565678E8E868F6
:10414000282824115180112252408014355540C036
:104150004040E014355540A04000E0034353A050D8
:10416000A0024757808080A060F0200247578080DF
:10417000A0D010207002475780408060A0F020122D
:10418000365640004080A04002475740206090F0E3
:10419000909002475720406090F0909002475760FF
:1041A000906090F0909002475750A06090F09090EF
:1041B00002475790006090F09090024757609060DF
:1041C00090F0909002465670A0A0F0A0B001475722
:1041D000609080809060400247574020F080E080EF
:1041E000F00247572040F080E080F002475760908F
:1041F000F080E080F00247579000F080E080F012FD
:1042000037578040E0404040E01237572040E040C0
:104210004040E012375740A0E0404040E01237579E
:10422000A000E0404040E00256567048E848487020
:1042300002475750A090D0B090900247574020605E
:1042400090909060024757204060909090600247A5
:10425000576090609090906002475750A060909097
:10426000906002475790006090909060123353A086
:1042700040A002465670B0B0D0D0E0024757402070
:1042800090909090600247572040909090906002EC
:1042900047576090909090906002475790009090A0
:1042A00090906002575710208850202020024656D8
:1042B00080E09090E0800246566090A0A090A0021E
:1042C0004757402000709090700247572040007080
:1042D000909070024757205000709090700247579E
:1042E00050A00070909070024656500070909070F0
:1042F00002475760906070909070025454F068B01C
:10430000781135556080806040024757402000603A
:10431000B0C06002475720400060B0C060024757FD
:1043200060900060B0C060024656500060B0C0604F
:10433000123757804000C04040E0123757204000FD
:10434000C04040E012375740A000C04040E0123665
:1043500056A000C04040E0024757A040A010709017
:104360006002475750A000E09090900247574020CD
:10437000006090906002475720400060909060027B
:1043800047576090006090906002475750A00060CF
:1043900090906002465690006090906012355540B3
:1043A00000E0004002445470B0D0E0024757402083
:1043B00000909090700247572040009090907002BB
:1043C00047576090009090907002465690009090F1
:1043D00090700148582040009090709060014757BD
:1043E0008080E090E080800147579000909070902E
:1043F0006047323800473238000056616C6F7220D7
:1044000064656C207A3A0054617265612030340032
:1044100043616C696272616E646F2E2E2E004737A5
:10442000370054617265612030332076616C6F72A1
:10443000206465207A002D2D2D2D2D2D2D2D2D2D37
:104440002D2D2D2D2D2D2D2D2D2D2D2D2D2D2D2D9C
:104450002D2D2D2D2D2D0070790070783A200054CF
:1044600061726561203033206D6F76696E6700542C
:104470006172656120303200506F72206661766F24
:104480007220657370657265005265616C697A614E
:104490006E646F20486F6D652E2E2E00546172651C
:1044A0006120303000473238004D6F766572205AF7
:1044B000004D353030004739310A4731205A2D350B
:1044C000302046323030300A4732380A4D313137E9
:1044D00020456A65205A20416C696E6561646F00F1
:1044E0004739310A4731205A312046323030300ABC
:1044F0004739300003E0000C9800180C00201A0027
:10450000303E0040710040E10061C3004181004045
:1045100001003006002002001FFC0043617061733F
:104520003A005A00590020003F00580009200009B5
:104530002000092000092000462D2D3A2D2D005481
:104540002D2D3A2D2D00462D2D3A2D2D00104100F8
:104550000820800820801041002082004104004192
:104560000400208200104100000000FFFFC0FFFF98
:10457000C01041002082004104004104002082005C
:10458000104100082080082080104100000000FF3A
:10459000FFC0FFFFC000E00000E00000E00003F803
:1045A0000007FFC007FEC007FC4007FEC007FFC0B2
:1045B00001F00000E00000400000E00000E000002A
:1045C000E00003F80007FFC007FFC007FFC007FFB8
:1045D000C007FFC001F00000E0000040003FFF0006
:1045E000700380E619C0CF3CC09F3E40BF3F40BE35
:1045F0001F409CCE4081E04081E0409CCE40BE1FE9
:1046000040BF3F409F3E40CF3CC0E619C070038092
:104610003FFF003FFF00700380E3F1C0C3F0C081A3
:10462000E04080C040B00340B8C740BDEF40BDEFA0
:1046300040B8C740B0034080C04081E040C3F0C0F4
:10464000E3F1C07003803FFF00646574656E6761CD
:1046500000696D707265736F7261207365004573D8
:1046600070657265206120717565206C6100434141
:104670004D42494F2044452046494C414D454E54FA
:104680004F004C696D7069616E646F20626F717567
:10469000696C6C61004573706572650043414D4201
:1046A000494F2044452046494C414D454E544F000A
:1046B0007920636F6E74696E7565005072657369F9
:1046C0006F6E6520656C20626F746F6E0043414DA4
:1046D00042494F2044452046494C414D454E544F98
:1046E000005265746972616E646F2066696C616DF9
:1046F000656E746F004573706572650043414D428D
:10470000494F2044452046494C414D454E544F00A9
:1047100043617267616E646F2066696C616D656E7E
:10472000746F004573706572650043414D42494F97
:104730002044452046494C414D454E544F0052655A
:10474000616E7564616E646F20696D707265736906
:104750006F6E004573706572650043414D42494F6D
:104760002044452046494C414D454E544F0054612C
:10477000726A657461207265746972616461005463
:1047800061726A65746120636F6C6F63616461005C
:1047900000002200250028002B002E0031003400EC
:1047A00002010000050108010B01000020002300A8
:1047B000260029002C002F00320000010000030118
:1047C0000601090105050505070508080808020294
:1047D00002020A0A0808040404040101010101019B
:1047E00001010303030303030303040707070C0C7E
:1047F0000C0C0C0C0C0C0202020206060606060645
:1048000006060B0B0B0B0B0B0B0B010210202008E9
:10481000081020401020408002010201080402011B
:10482000010204081020408080402010080402018A
:1048300080040201804020100804020108040201E3
:10484000010204081020408001020408102040806A
:1048500000000A0B02090C0D0E08070304010000FA
:104860000000000000000000000000000000000048
:104870000000000000000000000000001211100005
:104880000000000000000000000000000000000028
:104890000000000000004D3234004732380A4D312C
:1048A00031380A4D3234004D3233202573003FFF3A
:1048B000F860000CC0000680380290FE029BC782A0
:1048C0009F01C29E00C29F00629F80628000328072
:1048D00000328000328000628000628000C283016A
:1048E000C283C78280FE02803802C0000660000CCE
:1048F0003FFFF83FFFF87FFFFCFFFFFEFFC7FEEF23
:1049000001FEE4387EE0FE3EE1FF3EE0FF9EE07FF8
:104910009EFFFFCEFFFFCEFFFFCEFFFF9EFFFF9E5D
:10492000FFFF3EFCFE3EFC387EFF01FEFFC7FEFFA0
:10493000FFFE7FFFFC3FFFF8566F6C76657200004C
:10494000446F6E6520736176696E672066696C6579
:104950002E006572726F722077726974696E6720BB
:10496000746F2066696C6500203A203C3C3C2072E4
:10497000756E5F7A5F70726F62650A00637572723E
:10498000656E745F706F736974696F6E3D000000CF
:10499000A0400000A04000000040203A203E3E3EE3
:1049A0002072756E5F7A5F70726F62650A00637560
:1049B0007272656E745F706F736974696F6E3D00BB
:1049C0003C3C3C2070726F62655F7074003E20005A
:1049D0003E200029002C20003E20646F5F626C6F37
:1049E000636B696E675F6D6F76655F746F5F787913
:1049F0002800203A200A0063757272656E745F7039
:104A00006F736974696F6E3D0029002C20002C20A3
:104A1000003E3E3E2070726F62655F7074280050E9
:104A200069657A6173004B696C6F6D6574726F7341
:104A300000566F6C766572202020202020202020D8
:104A40002020202020040053657269616C3A0053D5
:104A5000697374656D6100456E76696172204763A4
:104A60006F646500436F6E6669672E2046616272EF
:104A700069636100416A7573746172205049440032
:104A80004B75747465724D656C6F647920202020BD
:104A90005B4F66665D004B75747465724D656C6F37
:104AA000647920202020205B4F6E5D00456E636F8F
:104AB0006465722020202020202020205B495A514C
:104AC0005D00456E636F64657220202020202020E9
:104AD00020205B4445525D0053656E736F72206603
:104AE000696C616D656E746F5B4F66665D005365E2
:104AF0006E736F722066696C616D656E746F205B9A
:104B00004F6E5D00477561726461646F20202020E4
:104B1000202020205B4F66665D00477561726461EE
:104B2000646F2020202020202020205B4F6E5D001D
:104B3000496E666F726D6163696F6E2020205B4302
:104B4000617061735D00496E666F726D6163696F5C
:104B50006E2020205B436F6F72645D004175746F3F
:104B60006C6576656C202020202020205B4F6666D7
:104B70005D004175746F6C6576656C202020202087
:104B80002020205B4F6E5D004964696F6D612020BD
:104B90002020202020202020205B45535D004C6FEA
:104BA00067726F73004573746164697374696361DC
:104BB0000056657273696F6E00566F6C7665722071
:104BC00020202020202020202020202020040056EB
:104BD0006F6C766572003FFFF860000CC0000680C5
:104BE0000002800802803802803802803802803853
:104BF0000280380280380280000280380285394203
:104C000085834286FEC283018281FF028000028F7B
:104C1000FFE2C0000660000C3FFFF83FFFF87FFF97
:104C2000FCFFFFFEFFFFFEFFF7FEFFC7FEFFC7FE14
:104C3000FFC7FEFFC7FEFFC7FEFFC7FEFFFFFEFF69
:104C4000C7FEFAC6BEFA7CBEF9013EFCFE7EFE003F
:104C5000FEFFFFFEF0001EFFFFFE7FFFFC3FFFF8A0
:104C60003FFFF860000CC000068000028000028157
:104C7000830281C70281EF0281FF0281BB0281931F
:104C80000281830281830281830280000287FF8286
:104C90008000028FFFE28FFFE2800002C00006600A
:104CA000000C3FFFF83FFFF87FFFFCFFFFFEFFFF18
:104CB000FEFFFFFEFE7CFEFE38FEFE10FEFE00FE46
:104CC000FE44FEFE6CFEFE7CFEFE7CFEFE7CFEFFD5
:104CD000FFFEF8007EFFFFFEF0001EF0001EFFFF4B
:104CE000FEFFFFFE7FFFFC3FFFF83FFFF860000C78
:104CF000C0000680000280000280000281C20281A2
:104D0000C70281CF8281C70283E70281C702808701
:104D10000280000280000283FF828000028FFFE297
:104D20008FFFE2800002C0000660000C3FFFF83FEA
:104D3000FFF87FFFFCFFFFFEFFFFFEFFFFFEFFFF10
:104D4000FEFE3DFEFE38FEFE307EFE38FEFC18FE06
:104D5000FE38FEFF78FEFFFFFEFFFFFEFC007EFF39
:104D6000FFFEF0001EF0001EFFFFFEFFFFFE7FFFB4
:104D7000FC3FFFF841206C696E69617220656A65CD
:104D8000207A003FFFF860000CC00006800002811E
:104D9000FF02800002801002803802807C0280388E
:104DA0000280380280380280380280380280000297
:104DB00083FF828000028FFFE28FFFE2800002C04B
:104DC000000660000C3FFFF83FFFF87FFFFCFFFF8D
:104DD000FEFFFFFEFE00FEFFFFFEFFEFFEFFC7FE31
:104DE000FF83FEFFC7FEFFC7FEFFC7FEFFC7FEFF34
:104DF000C7FEFFFFFEFC007EFFFFFEF0001EF0007E
:104E00001EFFFFFEFFFFFE7FFFFC3FFFF8436170C8
:104E1000613A00636170612064652063616D62695D
:104E20006F0053656C656363696F6E6172004B75EB
:104E30007474657263726166742053746F72650076
:104E40006B757474657263726166742E636F6D2F17
:104E500073746F726500FEDF43F8829F1A08BAEE22
:104E60002AE8BA1B6AE8BAAD32E8821A0A08FEAA32
:104E7000ABF8004238009FB7D4B8848A31B0860AB4
:104E80002F20F0235448F6169308C51066F886CBF9
:104E90005B28D84E1FA8F6C9084014A93CB03E674D
:104EA000DA48091D09E02A457FF0008D78C0FE959B
:104EB0009AC082955898BA9C9FD8BAA78D08BA43D1
:104EC000E1B8826A0768FEA19CC04D3530300042CF
:104ED0006F7272617220457374616469737469637F
:104EE000610043616D626961722056657273696F1A
:104EF0006E00566F6C7665722020202020202020C6
:104F000020202020202004004D35303000496E67DD
:104F1000726573652047656E65726163696F6E3A8D
:104F200000436F6469676F3A00496E677265736525
:104F30002047656E65726163696F6E3A00496E67FE
:104F400072657365204D65733A0053616C69720038
:104F5000426F7272617200496E67726573652043B9
:104F60006F6469676F00436F6469676F3A004365F8
:104F70006E74696D6574726F733A006D6574726FEB
:104F8000733A004B696C6F6D6574726F733A0046CB
:104F9000696C616D656E746F20557361646F004D4F
:104FA000696E75746F733A00486F7261733A0044AA
:104FB0006961733A005469656D706F20456E636571
:104FC00064696461004D696E75746F733A00486F6F
:104FD0007261733A00446961733A005469656D7097
:104FE0006F20646520696D70726573696F6E00492A
:104FF0006E636F6D706C657461733A005465726DA9
:10500000696E616461733A0020546F74616C3A0098
:10501000496D70726573696F6E65730070012C0164
:1050200090012701B0012201C0011D01F00118010A
:105030001002130130020E01600209019002040106
:10504000C002FF000003FA004003F5008003F000F7
:10505000D003EB002004E6007004E100E004DC0073
:105060004005D700C005D2004006CD00D006C800DC
:105070008007C3003008BE00F008B900C009B400C2
:10508000B00AAF00B00BAA00D00CA500000EA00023
:10509000500F9B00C01096005012910000148C001D
:1050A000C0158700B0178200B0197D00D01B7800B2
:1050B000001E730040206E0090226900F0246400FE
:1050C00040275F0090295A00E02B5500102E500019
:1050D00020304B0010324600E033410090353C0058
:1050E0001037370070383200A0392D00B03A280050
:1050F000A03B2300603C1E00103D1900903D1400B1
:10510000103E0F00703E0A00C03E0500003F000048
:10511000204B643A2000204B693A2000204B703A23
:105120002000504944204175746F74756E65206687
:10513000696E6973686564212050757420746865B0
:10514000206C617374204B702C204B6920616E645D
:10515000204B6420636F6E7374616E74732066728B
:105160006F6D2061626F766520696E746F20436F8A
:105170006E66696775726174696F6E2E68206F72F2
:105180002073656E6420636F6D6D616E64204D35B4
:10519000303020666F72207361766520696E20451D
:1051A0004550524F4D20746865206E6577207661BA
:1051B0006C75652100504944204175746F74756E9B
:1051C00065206661696C6564212074696D656F7521
:1051D0007400504944204175746F74756E65206683
:1051E00061696C6564212054656D706572617475C8
:1051F000726520746F6F206C6F77005049442041B6
:1052000075746F74756E65206661696C65642120C4
:1052100054656D706572617475726520746F6F206E
:105220006869676800204B643A2000204B693A2087
:1052300000204B703A200020436C61737369632037
:1052400050494420002054753A2000204B753A20E4
:1052500000206D61783A2000206D696E3A200020B0
:10526000643A200020626961733A20002041707026
:105270006C7920726573756C7400204379636C657A
:10528000733A20002054656D703A2000486F7465B1
:105290006E643A20004348414D4245520042454425
:1052A00000504944204175746F74756E65207374A5
:1052B00061727400504944204175746F74756E6555
:1052C000206661696C656421204261642074656DAB
:1052D000706572617475726520636F6E74726F6C45
:1052E0006C6572206E756D626572002C2073797327
:1052F00074656D2073746F707065642120436F6FE7
:105300006C6572002C2073797374656D2073746FF3
:105310007070656421204368616D626572002C20A5
:1053200073797374656D2073746F70706564212078
:10533000426564002C2073797374656D2073746FFB
:105340007070656421204865617465725F49443AF4
:10535000200050415241444120444520454D455292
:10536000472E00202D20496E76616C696420657897
:10537000747275646572206E756D626572202100AD
:10538000C0159100B0178C00B0198700D01B8200A7
:10539000001E7D004020780090227300F0246E00F3
:1053A0004027690090296400B02A5F00D02B5A0082
:1053B000F02C5500102E500020304B0010324600CB
:1053C000E033410090353C00103737007038320030
:1053D000A0392D00B03A2800A03B2300603C1E00FD
:1053E000103D1900903D1400103E0F00703E0A0061
:1053F000C03E0500003F00004D494E54454D502031
:105400004552524F52004D494E54454D50207472F2
:1054100069676765726564004D494E54454D50207B
:10542000424544204552524F5200456C2046697215
:105430006D77617265204E6F004C6F205469656E08
:105440006520416374697661646F004F7063696FB2
:105450006E204E6F20446973706F6E69626C6500D8
:10546000FF8081408120811091F090909090801079
:10547000801080108F10909080108010FFF03FFF00
:10548000F87FFFFCFFFFFEFFF7FEFFE7FEFFC1FE18
:10549000FCC07EF8E63EF9F73EF3FF9EF3FF9EF375
:1054A000FF9EF3FF9EF3FF9EF9DF3EF8CE3EFC0623
:1054B0007EFF07FEFFCFFEFFDFFEFFFFFE7FFFFC4C
:1054C0003FFFF83FFFF860000CC000068008028034
:1054D0001802803E02833F828719C28608C28C0070
:1054E000628C00628C00628C00628C00628620C23A
:1054F0008731C283F98280F802803002802002C0A6
:10550000000660000C3FFFF83FFFF87FFFFCFEFF46
:10551000FEFD7FFEFEC3FEFFBDFEFFA5FEFFB5FE46
:10552000FFA5FEFFB5FEFFA5FEFFB5FEFFA5FEFF32
:1055300066FEFEC37EFE817EFEC37EFF7EFEFF8191
:10554000FEFFFFFEFFFFFE7FFFFC3FFFF83FFFF87F
:1055500060000CC10006828002813C028042028011
:105560005A02804A02805A02804A02805A02804AC5
:1055700002805A02809902813C82817E82813C8233
:10558000808102807E02800002C0000660000C3F25
:10559000FFF83FFFF87FFFFCFFFFFEFFFFFEFFFF6E
:1055A000FEFF83FEFE6CFEFCFE7EFBFCBEF9F83EB9
:1055B000F7F1DEF7E3DEF3C79EF7CFDEF7FFDEF9A4
:1055C000FF3EFBFFBEFC007EFFFFFEFFFFFEFFFF76
:1055D000FE7FFFFC3FFFF83FFFF860000CC00006B5
:1055E000800002800002807C028193028301828419
:1055F00003428607C2880E22881C228C38628830BB
:10560000228800228600C284004283FF828000023A
:10561000800002C0000660000C3FFFF83FFFF87FEB
:10562000FFFCFFFFFEFFFFFEFDFFFEF8EFBEF06791
:105630003EFDE8BEFDE8BEFDE8BEFFE8BEFFE8BEF9
:10564000FDE8BEFDE8BEFDE8BEF0653EF8EDBEFD3E
:10565000FDFEFFFFFEFFFFFEFFFFFE7FFFFC3FFFA3
:10566000F83FFFF860000CC00006800002820002D4
:105670008710428F98C28217428217428217428057
:1056800017428017428217428217428217428F9A2E
:10569000C2871242820202800002800002C000061D
:1056A00060000C3FFFF83FFFF87FFFFCFFFFFEFFAD
:1056B000FFFEFFFFFEFF1FFEFF0FFEFF07FEFF03C3
:1056C000FEFF01FEFF00FEFF007EFF00FEFF01FE69
:1056D000FF03FEFF07FEFF0FFEFF1FFEFFFFFEFFA3
:1056E000FFFEFFFFFE7FFFFC3FFFF83FFFF860007B
:1056F0000CC0000680000280000280E00280F00200
:1057000080F80280FC0280FE0280FF0280FF82801F
:10571000FF0280FE0280FC0280F80280F00280E03E
:1057200002800002800002C0000660000C3FFFF80B
:105730003FFFF87FFFFCFFFFFEFFFFFEFFFFFEF8CD
:105740007C3EF87C3EF87C3EF87C3EF87C3EF87C63
:105750003EF87C3EF87C3EF87C3EF87C3EF87C3E91
:10576000F87C3EF87C3EFFFFFEFFFFFEFFFFFE7F62
:10577000FFFC3FFFF83FFFF860000CC00006800010
:10578000028000028783C28783C28783C28783C265
:105790008783C28783C28783C28783C28783C28786
:1057A00083C28783C28783C28783C280000280004E
:1057B00002C0000660000C3FFFF83FFFF87FFFFCCF
:1057C000FFFFFEFFFFFEFFFFFEF87E3EF87C3EF887
:1057D000383EFC107EFE00FEFF01FEFF83FEFF014F
:1057E000FEFE00FEFC107EF8383EF87C3EF8FE3EE1
:1057F000FFFFFEFFFFFEFFFFFE7FFFFC3FFFF83FC6
:10580000FFF860000CC00006800002800002878163
:10581000C28783C287C7C283EF8281FF0280FE02F4
:10582000807C0280FE0281FF0283EF8287C7C287ED
:1058300083C28701C2800002800002C000066000AF
:105840000C3FFFF83FFFF87FFFFCFFFFFEFFFFFE6E
:10585000FFF1FEFFEEFEFFDDFEFFDBBEFFDB5EFFC6
:10586000DCDEFFBFDEFF7FBEFEF87EFDF7FEFBEF56
:10587000FEF7DFFEF5BFFEF77FFEF8FFFEFFFFFE3F
:10588000FFFFFE7FFFFC3FFFF83FFFF860000CC00A
:105890000006800002800E02801102802202802415
:1058A000428024A28023228040228080428107827D
:1058B0008208028410028820028A400288800287BF
:1058C0000002800002C0000660000C3FFFF83FFFAE
:1058D000F87FFFFCFFFFFEFFFFFEFFFFFEFF83FEE2
:1058E000FE001EFE009EFE01DEFE009EFE001EFF6C
:1058F00083FEFFC7FEFFEFFEFFFFFEFC007EFFFF03
:10590000FEF0001EF0001EFFFFFEFFFFFE7FFFFC0B
:105910003FFFF83FFFF860000CC0000680000280E7
:105920000002807C0281FFE281FF6281FE2281FF12
:105930006281FFE2807C02803802801002800002D7
:1059400083FF828000028FFFE28FFFE2800002C0AF
:10595000000660000C3FFFF83FFFF87FFFFCFFFFF1
:10596000FEFFFFFEFFC7FEFF39FEFEFEFEFDFF7ECF
:10597000FDD77EFDAB7EFDBB7EFDD77EFED6FEFE57
:10598000C6FEFF01FEFF83FEFF83FEFF83FEFFC70F
:10599000FEFFFFFEFFFFFE7FFFFC3FFFF83FFFF82B
:1059A00060000CC0000680000280380280C60281C0
:1059B000010282008282288282548282448282286A
:1059C0008281290281390280FE02807C02807C0271
:1059D000807C02803802800002C0000660000C3F1C
:1059E000FFF83FFFF87FFFFCFFFFFEFFFFFEFFC752
:1059F000FEFF01FEFE00FEFC007EFC287EFC547EC5
:105A0000FC447EFC287EFE28FEFE38FEFF01FEFFE1
:105A100083FEFF83FEFF83FEFFC7FEFFFFFEFFFF47
:105A2000FE7FFFFC3FFFF83FFFF860000CC0000660
:105A300080000280380280FE0281FF0283FF8283A1
:105A4000D78283AB8283BB8283D78281D70281C70F
:105A50000280FE02807C02807C02807C0280380210
:105A6000800002C0000660000C3FFFF83FFFF87F97
:105A7000FFFCFFFFFEFFFFFEFFCC7EFFB57EFF4970
:105A80007EFEB57EFD7A7EFAFD7EF5FEBEF3FF3E1C
:105A9000FBFF7EFB877EFBB77EFBB77EFBB77EFB03
:105AA000B77EF8007EFFFFFEFFFFFE7FFFFC3FFF9B
:105AB000F83FFFF860000CC00006800002803382CF
:105AC000804A8280B682814A828285828502828A69
:105AD00001428C00C2840082847882844882844897
