:100000000C9496440C94C7440C94C7440C94C74475
:100010000C94C7440C94C7440C94C7440C94C74434
:100020000C94C7440C94C7440C94C7440C94C74424
:100030000C94C7440D94B2070C94C7440C94C74465
:100040000C94C7440D942A340C94C7440C94C744B0
:100050000C94C7440C94C7440D94900A0D946807FF
:100060000C94C7440C94AAB70C947AB70C94C74468
:100070000C94C7440C94C7440C94C7440C94C744D4
:100080000C94C7440C94C7440C94C7440C94C744C4
:100090000C94C7440C94C7440C94C7440C94C744B4
:1000A0000C94C7440C94C7440C94C7440C94C744A4
:1000B0000C94C7440C94C7440C94C7440C94C74494
:1000C0000C94C7440C94C7440C94C7440D9479080D
:1000D0000D9450080C94C7440C94C7440C94C74426
:1000E0000C94C7446A7C4F7AD67B5A7CD67BD67BED
:1000F000D67BD67BD67BD67BD67BD67BD67BD67B78
:10010000D67BD67BD67BD67BD67BD67BD67BD67B67
:10011000D67BD67BD67BD67BD67BD67BD67BD67B57
:10012000547CD67BD67BD67BD67BD67BD67BD67BC8
:10013000D67BE57BD67BD67BD67BD67BD67BD67B28
:10014000D67BD67BD67BD67B7F7C7A7CB9F1C6F119
:10015000D0F1DAF1E5F1F0F1A0F183F1EFFDDFFD8F
:10016000CCFDB9FDA6FD93FD80FD6DFD5AFD47FD5B
:1001700034FD21FD0EFDFBFCE8FCD5FCC2FCAFFC10
:100180009CFC89FC76FC63FC50FC4BFB4BFB4BFB63
:100190004BFB4BFB4BFB4BFB4BFB4BFB4BFB4BFB2F
:1001A0004BFB4BFB4BFB4BFB4BFB4BFB4BFB4BFB1F
:1001B0004BFB4BFB4BFB4BFB4BFB4BFB4BFB4BFB0F
:1001C0004BFB4BFB4BFB4BFB4BFB4BFB4BFB4BFBFF
:1001D0004BFB4BFB4BFB4BFB4BFB4BFB4BFB4BFBEF
:1001E0004BFB4BFB4BFB4BFB4BFB4BFB4BFB4BFBDF
:1001F0004BFB4BFB4BFB4BFB4BFB4BFB4BFB4BFBCF
:100200004BFB4BFB4BFB4BFB4BFB4BFB4BFB4BFBBE
:100210004BFB4BFB4BFB4BFB4BFB4BFB4BFB4BFBAE
:100220004BFB4BFB3DFC2DFC1AFC0AFCF7FBE7FBF0
:10023000D4FBC4FBB4FBA1FB91FB3AFBB602380232
:10024000CE015802EA012E02240274022C0372022B
:10025000D401FC02C6012803DE011203FE023402AF
:10026000D6010603EC01A602920200036E022A03E5
:10027000DC010A03BE01E801D2024002A0026402CE
:10028000E60170021A02E001E402B8024002AC0288
:1002900026033003E40128025402CC02A802A4027F
:1002A0000E027A027602D001CA020A025C02CA0178
:1002B000A402E8024E02C4021802BA023203EE019E
:1002C00012025602900218031C02BA0150021C03CB
:1002D000F0012003020378025202C201AA0298022E
:1002E000DC023403F80216028A02B801F201F601B8
:1002F00004023A035E022C020002DA021E023603F6
:10030000C801F402BE022403040366029602AE0290
:10031000DA01D00282029C026202E002FA01FE01CE
:10032000CC011603084AD73B3BCE016E84BCBFFD0F
:10033000C12F3D6C74319ABD56833DDA3D00C77FB5
:1003400011BED9E4BB4C3E916BAAAABE000000804E
:100350003F05A84CCDB2D44EB93836A9020C50B9DD
:10036000918688083CA6AAAA2ABE000000803F0009
:100370000D94EB660D945B0B0D94AE220D94AA05C3
:100380000D94A0150D947B0B0D9498190D948E016E
:100390000D941D650D94F3060D9465690D94C401CB
:1003A0000D94C6060D9477040D9436010D94300219
:1003B0000D940A000D945D680D94B8050D94FA0132
:1003C0000D94D7050D94F1230D9484060D94C90561
:1003D0000D94AE050D94E6010D944A020D942B0B7D
:1003E0000D94660B0D94C1660D94F2180D949766EA
:1003F0000D94EB280D94E9690D9454040D94316823
:100400000D94C5650D94FC200D946D660D949905B1
:100410000D94C2280D94DA060D9451220D94AC0669
:100420000D94225A0D94460B0D94BC040D94F76361
:100430000D94EC0A0D94D1050D94560B0D94716535
:100440000D944B280D9447250D945B010D94005B92
:100450000D9489060D9470280D94EF650D944A0152
:100460000D94FA160D94815E0D9423020D94702262
:100470000D94B3010D9478190D943F5A0D9479277A
:100480000D94F2050D94E35A0D94915B0D94354A49
:100490000D948F220D94CB230D949C240D9407076B
:1004A0000D945E0B0D94760B0D948E060D944B0BF4
:1004B0000D94D5010D941F210D94E9060D94196634
:1004C0000D94655B0D9491690D94C3050D941463AF
:1004D0000D94293F0D946D810D94685A0D94B102CD
:1004E0000D94CD050D9422010D946C010D94BC0664
:1004F0000D94730B0D94B4060D9499280D94B318B4
:100500000D94BE600D94B5680D9484900D942A04EA
:100510000D9408050D94CD630D9463040D947F5FD5
:100520000D944E0B0D9493020D949B050D940D6943
:100530000D94A3630D9488190D94E1680D94CB5D1F
:100540000D94BF050D9487230D941B070D9457023E
:100550000D94A2060D94850B0D94E5050D94396953
:100560000D9408800D9456280D94375F0D94A201C8
:100570000D94DF050D94FC0A0D9415670D94C96464
:100580000D942B420D9463280D9411070D943A405D
:100590000D943B230D94D0060D9498060D944F1D99
:1005A0000D9489680D94B4050D94AA5E0D9485048C
:1005B0000D94585E0D949B650D9479630D94E9221A
:1005C0000D94BD690D9461050D94DB050D940E5CD1
:1005D0000D94FD060D94CD020D945A620D942F5E7C
:1005E0000D949F7E0D94BA5A0D94F3640D94684750
:1005F0000D9421640D948C260D940E010D94160219
:100600000D94A0020D946E0B0D9475640D943D0233
:100610000D94065E0D94BB050D9412230D940909EB
:100620000D94915A0D9409020D9447170D94CD67BE
:100630000D94530B0D9491820D94630B0D94BD2575
:100640000D946B0B0D9468170D949F640D94E90540
:100650000D9486020D9464020D947D010D94221771
:100660000D94ED050D941B0B0D944B640D94476593
:100670000D9464230D9443660D94005C4E414E49E5
:100680004E495459494E46CDCCCC3D0AD7233C1750
:10069000B7D13877CC2B329595E6241FB14F0A009D
:1006A0000020410000C84200401C4620BCBE4CCA8D
:1006B0001B0E5AAEC59D7400407A10F35A00A0720A
:1006C0004E18090010A5D4E80000E876481700008D
:1006D000E40B54020000CA9A3B000000E1F505005B
:1006E0000080969800000040420F000000A08601A4
:1006F000000000102700000000E803000000006474
:1007000000000000000A00000000000100000000DE
:10071000002C76D888DC674F0823DFC1DFAE59E1B3
:10072000B1B796E5E3E453C63AE651997696E8E622
:10073000C28426EB898C9B62ED407C6FFCEFBC9CF5
:100740009F40F2BAA56FA5F490055A2AF75C936B07
:100750006CF9676DC11BFCE0E40D47FEF520E6B5C2
:1007600000D0ED902E0300943577050080841E089C
:100770000000204E0A000000C80C333333330F98BA
:100780006E12831141EF8D2114893BE65516CFFE81
:10079000E6DB18D1844B381BF77C1D901DA4BBE40D
:1007A00024203284725E228100C9F124ECA1E53D4F
:1007B00027414C4C00434F4D4D554E494341544900
:1007C0004F4E0044525952554E004552524F5253CB
:1007D00000494E464F004543484F005265706F73C5
:1007E0006F2E2E2E005A206E6F7420656E74657207
:1007F00065642E005A206E6F7420656E7465726594
:10080000642E0059206E6F7420656E746572656485
:100810002E0059206F7574206F662072616E6765B7
:100820002028312D33292E0058206E6F7420656EDC
:1008300074657265642E0058206F7574206F662091
:1008400072616E67652028312D33292E00473238BA
:10085000004D6573682070726F62696E6720646F07
:100860006E652E005374617274206D65736820701C
:10087000726F62696E672077697468202247323927
:10088000205331222066697273742E004732380A71
:10089000473239205332004D657368206265642009
:1008A0006C6576656C696E67206E6F742061637429
:1008B0006976652E002020004D6561737572656450
:1008C00020706F696E74733A005A206F66667365A4
:1008D000743A20005A207365617263682068656904
:1008E0006768743A20002C004E756D20582C593AD8
:1008F000200053746174653A200053206F75742092
:100900006F662072616E67652028302D35292E00B4
:100910003C3C3C2067636F64655F47333000205A7E
:100920003A200020593A200020583A2000426564BD
:10093000003E3E3E2067636F64655F4733300020B2
:100940005A3A200020593A200020583A20004265A7
:10095000640020453A00205A3A0020593A003C2DC4
:10096000583A00205300536176656420706F7369B4
:1009700074696F6E00496E76616C696420736C6F88
:10098000742C20746F74616C20736C6F74733A20D4
:10099000003A0020002D3E00205300526573746F12
:1009A00072696E6720706F736974696F6E00496E4B
:1009B00076616C696420736C6F742C20746F746141
:1009C0006C20736C6F74733A2000537461727420DE
:1009D0005072696E74696E670053746F7020507244
:1009E000696E74696E670053696E206D6F76696D0C
:1009F00069656E746F00456E642066696C65206C75
:100A000069737400426567696E2066696C65206C65
:100A1000697374002F005344207072696E74696E9C
:100A200067206279746520004E6F742053442070F3
:100A300072696E74696E67005072696E74207469B1
:100A40006D6520002569682025696D202569730082
:100A5000256964202569682025696D202569730052
:100A60004469726563746F7279206372656174653D
:100A700064004372656174696F6E206661696C65BC
:100A80006400436C6F73652066696C6520616E64F9
:100A9000207361766520726573746172742E67636A
:100AA0006F64650020616E642073746172742070DD
:100AB00072696E742E004F70656E2066696C653ABF
:100AC000200046696C616D656E74207072696E7489
:100AD00065643A2000202025754B6D2025756D201A
:100AE0002575636D2025756D6D00506F77657220DB
:100AF0006F6E2074696D653A200020202575206492
:100B000061797320257520686F75727320257520B3
:100B10006D696E7574657300546F74616C207072CA
:100B2000696E742074696D653A2000202025752057
:100B30006461797320257520686F7572732025753F
:100B4000206D696E75746573002C204661696C6553
:100B5000643A20002C2046696E69736865643A2007
:100B6000005072696E742073746174697374696380
:100B7000733A20546F74616C3A20004B757474653D
:100B8000726372616674204F46462E0043616C6545
:100B90006E74616E646F2E2E2E004B7574746572C8
:100BA0006372616674206C697374612E006F66668F
:100BB00000D607D107CA07C307B507B10744656266
:100BC00075673A0050415241444120444520454D0B
:100BD0004552472E004D3131332053004649524D86
:100BE000574152455F4E414D453A4B55545445523D
:100BF00043524146545F5620342E302E3020464911
:100C0000524D574152455F55524C3A687474703A90
:100C10002F2F7777772E6B757474657263726166A8
:100C2000742E636F6D2F736F6674776172652050D9
:100C3000524F544F434F4C5F56455253494F4E3AD3
:100C4000322E30204D414348494E455F545950455E
:100C50003A43617274657369616E20455854525508
:100C60004445525F434F554E543A322055554944FE
:100C70003A33323462666134322D613432372D3189
:100C80003165362D383066352D373633303464656E
:100C900063376562370A006373746570733A2000C6
:100CA000205A00205900580020204D61783A200039
:100CB000205A00205900580020204D696E3A20002B
:100CC000536F667420656E6473746F70733A004975
:100CD0006E76616C69642065787472756465720003
:100CE00020443A0020493A0020503A004800432965
:100CF0000061626C656420286D696E2074656D709A
:100D00002000436F6C64206578747275646573208D
:100D100061726520004F6666736574206170706C47
:100D20006965642E004F6666736574206170706C2F
:100D30006965642E004572723A20546F6F206661B7
:100D4000722100546F6F206661722066726F6D2091
:100D50007265666572656E636520706F696E74009A
:100D6000436170613A200020496E76616C696420AD
:100D700065787472756465720054004163746976B5
:100D8000652045787472756465723A200041637419
:100D9000697665204472697665723A20003C3C3C75
:100DA0002067636F64655F5400203A2041465445D4
:100DB000520A0063757272656E745F706F73697446
:100DC000696F6E3D00203A204245464F52450A0069
:100DD00063757272656E745F706F736974696F6E3C
:100DE0003D0029003E3E3E2067636F64655F5428E6
:100DF000002200436F6D616E646F206E6F20656E20
:100E0000636F6E747261646F3A2022004D36303029
:100E1000004D3630300073652061637469766F2051
:100E200031004563686F3A0056657273696F6E3AB8
:100E300000436F6E66696775726163696F6E00412A
:100E40007267656E74696E6100496E647573747261
:100E50006961004B55545445524352414654000079
:100E600000000F00000000000000198000000000DA
:100E7000000070E0000000000000C630000000002C
:100E800000039F9C00000000000E3FC70000000010
:100E90000038FFF1C00000000063FFFC60000000AC
:100EA00001CFFFFF38000000071FFFFF8E0000008A
:100EB0001C7FFFFFE380000031FFFFFFF8C0000050
:100EC000E7FFFFFFFE7000038FFFFFFFFF1C000E18
:100ED0003FFFFFFFFFC70018FE07FFF007F1803359
:100EE000FE07FFE00FFCC027FE07FFC01FFE402FDC
:100EF000FE07FF803FFF402FFE07FF007FFF402FD0
:100F0000FE07FF00FFFF402FFE07FE01FFFF402FFF
:100F1000FE07FC00FFFF402FFE07F8007FFF402F79
:100F2000FE07F0003FFF402FFE07E000007F402F4C
:100F3000FE07C000007F402FFE07807FFFFF402F8D
:100F4000FE0700FFFFFF402FFE0601FFFFFF402FBF
:100F5000FE0403FFFFFF402FFE0003FFFFFF402FB3
:100F6000FE0401FFFFFF402FFE0600FFFFFF402FA2
:100F7000FE07007FFFFF402FFE078000007F402F0D
:100F8000FE07C000007F402FFE07E0003FFF402F1C
:100F9000FE07F0007FFF402FFE07F800FFFF402F05
:100FA000FE07FC01FFFF402FFE07FE00FFFF402F62
:100FB000FE07FF007FFF402FFE07FF803FFF402F0F
:100FC000FE07FFC01FFF402FFE07FFE00FFF402777
:100FD000FE07FFF007FE4033FE07FFF803FCC018D2
:100FE000FE07FFFC01F1800E3FFFFFFFFFC700037C
:100FF0008FFFFFFFFF1C0000E7FFFFFFFE700000F8
:1010000031FFFFFFF8C000001C7FFFFFE3800000FE
:10101000071FFFFF8E00000001CFFFFF3800000018
:101020000063FFFC600000000038FFF1C00000001A
:10103000000E3FC70000000000039F9C000000005E
:101040000000C63000000000000070E0000000005A
:10105000000019800000000000000F0000000000E8
:101060000000000000000000000000000000000080
:101070000000000000000000000000000000000070
:101080000000000000000000000000000000000060
:1010900000000000000000000000000000656E6419
:1010A00073746F7073206869743A2020256320255B
:1010B0006320256320256300205A3A0020593A0016
:1010C00020583A00656E6473746F70732068697499
:1010D0003A20004D323900504152414441204445AC
:1010E00020454D4552472E00504152414441005049
:1010F00072696E7465722073746F707065642064B9
:10110000756520746F206572726F72732E20466948
:101110007820746865206572726F7220616E642039
:10112000757365204D39393920746F207265737479
:101130006172742E202854656D70657261747572C9
:10114000652069732072657365742E205365742061
:10115000697420616674657220726573746172745B
:10116000696E6729004E6F204C696E65204E756D63
:10117000626572207769746820636865636B737554
:101180006D2C204C617374204C696E653A20004EC2
:101190006F20436865636B73756D20776974682091
:1011A0006C696E65206E756D6265722C204C617382
:1011B00074204C696E653A2000636865636B7375D3
:1011C0006D206D69736D617463682C204C6173745C
:1011D000204C696E653A20004C696E65204E756D35
:1011E000626572206973206E6F74204C6173742085
:1011F0004C696E65204E756D6265722B312C204CEA
:10120000617374204C696E653A20004D31313000B5
:101210004D3331004D383420582059205A20450094
:101220004D35303000534420726561642065727220
:101230006F7200446F6E65207072696E74696E67BC
:101240002066696C650020496E76616C6964206572
:1012500078747275646572004D0000007043000080
:101260006143000052430000000000000000000045
:101270000000203A2073796E635F706C616E5F705E
:101280006F736974696F6E0A0063757272656E744C
:101290005F706F736974696F6E3D00203A20636CF4
:1012A00065616E5F75705F61667465725F656E64BF
:1012B00073746F705F6F725F70726F62655F6D6F76
:1012C00076650A0063757272656E745F706F73691C
:1012D00074696F6E3D0029002C20002C200028002E
:1012E0003E3E3E20646F5F626C6F636B696E675F4A
:1012F0006D6F76655F746F006465706C6F793A200E
:1013000000203A207365745F70726F62655F646578
:10131000706C6F7965640A0063757272656E745FD4
:10132000706F736974696F6E3D00203A203C3C3CDD
:1013300020646F5F70726F62655F6D6F76650A0023
:1013400063757272656E745F706F736974696F6EC6
:101350003D00203A203E3E3E20646F5F70726F6217
:10136000655F6D6F76650A0063757272656E745F96
:10137000706F736974696F6E3D002042403A0020BF
:10138000403A00202F0020423A00202F0020543AFB
:1013900000203A2073657475705F666F725F656ECA
:1013A0006473746F705F6F725F70726F62655F6D90
:1013B0006F76650A0063757272656E745F706F7325
:1013C0006974696F6E3D002066697273740059001C
:1013D0005800486F6D65200020666972737400596B
:1013E000005800486F6D6520003C3C3C2067636FEF
:1013F00064655F47323800203A204D424C20486FE8
:101400006D652058206F7220590A006375727265ED
:101410006E745F706F736974696F6E3D00203A205F
:101420004D424C2052657374204F726967696E0A91
:101430000063757272656E745F706F736974696F43
:101440006E3D004D424C205A20686F6D696E6700FA
:101450004D424C20686173206D65736800203A200E
:1014600028686F6D655F616C6C5F61786973207C63
:101470007C20686F6D655A29203E2066696E616C1C
:101480000A0063757272656E745F706F7369746958
:101490006F6E3D003C3C3C205A5F534146455F48DF
:1014A0004F4D494E4700736F6E6461205A20667538
:1014B00065726100736F6E6461205A206675657293
:1014C0006100203A205A5F534146455F484F4D49DD
:1014D0004E47203E20686F6D655F616C6C5F617880
:1014E00069730A0064657374696E6174696F6E3D37
:1014F00000203A205A5F534146455F484F4D494EC0
:1015000047203E20686F6D655F616C6C5F61786934
:10151000730A0063757272656E745F706F736974BD
:10152000696F6E3D003E205A5F534146455F484F0C
:101530004D494E47203E3E3E00203A20686F6D6583
:10154000590A0063757272656E745F706F736974A7
:10155000696F6E3D00203A20686F6D65580A006320
:10156000757272656E745F706F736974696F6E3DCA
:10157000005261697365205A20286265666F726542
:1015800020686F6D696E672920746F20003E2065AA
:101590006E6473746F70732E656E61626C6528740F
:1015A0007275652900203A20536574205A20746FA3
:1015B000207072655F686F6D655F7A0A006375728F
:1015C00072656E745F706F736974696F6E3D004D04
:1015D000424C2077617320616374697665003E3EFA
:1015E0003E2067636F64655F4732380000416C6777
:1015F0007569656E2070756C736F20656C207365FE
:101600006E736F722064652066696C616D656E74BF
:101610006F3A20004D363030007365206163746985
:10162000766F2032005041524144412044452045CC
:101630004D4552472E0050415241444120444520DF
:10164000454D4552472E007061757361207061727F
:1016500061206573706572610070617573612070DF
:101660006172612075736F0070726F636573616E74
:10167000646F00627573793A005072696E746572B6
:101680002068616C7465642E206B696C6C2829205D
:1016900063616C6C6564210029003C3C3C207365EF
:1016A000745F617869735F69735F61745F686F6DA0
:1016B000652800203A200A0063757272656E745FB7
:1016C000706F736974696F6E3D005D203D20006826
:1016D0006F6D655F6F66667365745B007A70726FBD
:1016E00062655F7A6F6666736574203D2000000056
:1016F0000000000000000000000029003E3E3E20E7
:101700007365745F617869735F69735F61745F6843
:101710006F6D6528005761726E696E673A20486F79
:101720006D696E672042756D702044697669736FCC
:1017300072203C20310029003C3C3C20686F6D65E4
:101740006178697328003E2000203A2041465445C4
:1017500052207365745F617869735F69735F617448
:101760005F686F6D650A0063757272656E745F7095
:101770006F736974696F6E3D003E20326E6420485D
:101780006F6D6520003E2031737420486F6D6520B9
:10179000000000704300006143000052433E2000FF
:1017A000FFFFFF29003E3E3E20686F6D656178694E
:1017B000732800494E46004E414E00655F6D696ECC
:1017C0003A20007A5F70726F62653A20007A5F6D2E
:1017D000696E3A2000795F6D696E3A2000785F6D1E
:1017E000696E3A20005265706F7274696E67206589
:1017F0006E6473746F7020737461747573006B75AD
:101800007474657263726166742E636F6D2F626C9F
:101810006F6700473120583130205931302046332E
:1018200030303000416A75737465732064652063DD
:10183000616D6100566F6C7665720050726564650B
:101840007465726D696E61646F004D31313720458A
:101850006E667269616E646F004D38340A204D31D6
:101860003137204D6F746F72204170616761646F12
:101870000056656C6F6369646164006C6120766515
:101880006C6F63696461640053656C656363696F61
:101890006E6500466C756A6F00466C756A6F005322
:1018A000656C656363696F6E650076616C6F72204D
:1018B000696E696369616C00426F7175696C6C6116
:1018C000006C612074656D70657261747572610081
:1018D00053656C656363696F6E650043616D61207C
:1018E00063616C69656E7465006C612074656D7010
:1018F000657261747572610053656C656363696FCD
:101900006E65004D333133004D3131370046616E25
:101910002064652063617061006C612076656C6F86
:1019200063696461640053656C656363696F6E65C8
:10193000003FFFF87FFFFCFFFFFEFFFFFEF770FE9A
:10194000FAEF7EFDE97EFAED7EF7697EFFED7EFF20
:10195000E97EFFED7EFFE97EFFD9BEFFB0DEFFA08E
:101960005EFFB0DEFFDFBEFFE07EFFFFFEFFFFFE9B
:101970007FFFFC3FFFF83FFFF860000CC0000680CF
:101980000002888F028510828216828512828896D4
:101990008280128280168280128280168280264285
:1019A000804F22805FA2804F22802042801F828051
:1019B0000002C0000660000C3FFFF83FFFF87FFF09
:1019C000FCFFFFFEFFBBFEFE38FEFC387EF8383E13
:1019D000F0381EF07C1EE0C60EFF83FEFF83FEFF84
:1019E00083FEE0C60EF07C1EF0381EF8383EFC3850
:1019F0007EFE38FEFFBBFEFFFFFE7FFFFC3FFFF8D1
:101A00003FFFF860000CC0000680440281C70283DB
:101A1000C78287C7C28FC7E28F83E29F39F2807C7B
:101A200002807C02807C029F39F28F83E28FC7E2C2
:101A300087C7C283C78281C702804402C000066094
:101A4000000C3FFFF83FFFF87FFFFCFFFFFEFFFFAA
:101A5000FEFFFFFEFFFFFEFFFFFEFDEF7EFEF7BE77
:101A6000FEF7BEFDEF7EFBDEFEF7BDFEF7BDFEFB23
:101A7000DEFEFDEF7EFFFFFEF0001EF0001EFFFF0A
:101A8000FEFFFFFE7FFFFC3FFFF83FFFF860000C0A
:101A9000C0000680000280000280000280000282F6
:101AA0001082810842810842821082842102884289
:101AB000028842028421028210828000028FFFE2AB
:101AC0008FFFE2800002C0000660000C3FFFF85468
:101AD000656D706572617475726100506F72206619
:101AE00061766F72206573706572650047323800E9
:101AF000473238000056616C6F722064656C207A42
:101B00003A0054617265612030340043616C69624F
:101B100072616E646F2E2E2E00473737005461724B
:101B200065612030332076616C6F72206465207AA5
:101B3000002D2D2D2D2D2D2D2D2D2D2D2D2D2D2D02
:101B40002D2D2D2D2D2D2D2D2D2D2D2D2D2D2D2DC5
:101B50002D0070790070783A200054617265612020
:101B60003033206D6F76696E670054617265612055
:101B7000303200506F72206661766F72206573702C
:101B8000657265005265616C697A616E646F2048A8
:101B90006F6D652E2E2E005461726561203030000D
:101BA000473238004D6F766572205A004D3530301F
:101BB000004739310A4731205A2D3530204632301E
:101BC00030300A4732380A4D31313720456A6520B6
:101BD0005A20416C696E6561646F004739310A476C
:101BE00031205A312046323030300A4739300047F0
:101BF00032380A4739310A4731205A3430205834B4
:101C0000302046343030300A473930005265696E32
:101C100069636965206D617175696E6100426F74F9
:101C20006F6E2070756C7361646F20454D47004D79
:101C3000363030004D3131372050494420416374F3
:101C400075616C697A61646F004D35303000494EC2
:101C50004455535452494120415247454E54494EF0
:101C6000410053657269653A00504B330056203489
:101C70002E302E3000204D6F64656C6F3A00566533
:101C80007273696F6E3A001C38000000000000009B
:101C9000001C7117DF7DE39E11F7C01CE1110441A8
:101CA00014512901001DF911044114114501001FAF
:101CB000C1110479E41E45E1001DF91104414414E9
:101CC0007D01001CE111044124524501001C70E11A
:101CD000047F13914501001C380000000000000043
:101CE000001C1DFFFFFFFFFFFFFFF00000000000D2
:101CF00000000000007FFFFFFFFFFFFFFFFFC04D60
:101D00006F766572205A00566F6C766572003031BE
:101D100000506F736963696F6E203031003031009D
:101D2000303200506F736963696F6E20303200305B
:101D30003200303300506F736963696F6E20303347
:101D400000303300303400506F736963696F6E2068
:101D5000303400303400303500506F736963696F80
:101D60006E20303500303500303600506F736963B7
:101D7000696F6E20303600303600303700506F7398
:101D80006963696F6E20303700303700303800509B
:101D90006F736963696F6E203038003038003039F6
:101DA000007FFCC0068002800280028002800280E8
:101DB0000280028002800280028002C0067FFC5006
:101DC0006F736963696F6E203039003039007FFCB2
:101DD000FFFEFFFEFFFEFFFEFFFEFFFEFFFEFFFE1B
:101DE000FFFEFFFEFFFEFFFEFFFE7FFC4739310ACC
:101DF00047312045313520463135300A4739300AE0
:101E00004739310A473120452D31303020463330B3
:101E1000300A4739300A4D3834004739310A4731E2
:101E2000204531303020463135300A4739300A4DAF
:101E30003834004739310A4731205A31302046338F
:101E40003530300A47393000416A75737465206453
:101E5000652046696C616D656E746F0043616C63EB
:101E6000756C616E646F2E2E2E0050756564652052
:101E700074617264617220756E6F73206D696E7526
:101E8000746F7300416A757374616E646F2050499A
:101E9000440043616C656E74616E646F2E2E2E007B
:101EA000506F72206661766F72206573706572651F
:101EB000003FFFF87FFFFCFFFFFEFFFFFEFFFFFE7E
:101EC000FFFFFEFFFFFEFFFFFEE6DE6EE6DE6EEAD0
:101ED000DEAEEADEAEEADEAEECDECEECC2CEFFFF78
:101EE000FEFFFFFEFFFFFEFFFFFEFFFFFEFFFFFE08
:101EF0007FFFFC3FFFF83FFFF860000CC00006804A
:101F0000000280000280000280000280000299210D
:101F100092992192952152952152952152932132E5
:101F2000933D328000028000028000028000028027
:101F30000002C0000660000C3FFFF83FFFF87FFF83
:101F4000FCFFFFFEFFFFFEFFFFFEFFFFFEFFFFFEA9
:101F5000FFFFFEC2F176DEF776DEF7AEC6F1DEDE1B
:101F6000F7AEDEF776DE1176FFFFFEFFFFFEFFFF26
:101F7000FEFFFFFEFFFFFEFFFFFE7FFFFC3FFFF8BF
:101F80003FFFF860000CC000068000028000028065
:101F90000002800002800002BD0E8AA1088AA1080A
:101FA00052B90E22A10852A1088AA1EE8A8000022D
:101FB000800002800002800002800002C0000660F3
:101FC000000C3FFFF83FFFF87FFFFCFFFFFEFFFF25
:101FD000FEFFFFFEFFFFFEFFFFFEFFFFFEF38F1E73
:101FE000EDB6FEEDB6FEE18F3EEDB7DEEDB7DEED10
:101FF0008E3EFFFFFEFFFFFEFFFFFEFFFFFEFFFF27
:10200000FEFFFFFE7FFFFC3FFFF83FFFF860000C84
:10201000C000068000028000028000028000028072
:1020200000028C70E29249029249029E70C292486C
:10203000229248229271C280000280000280000237
:10204000800002800002C0000660000C3FFFF83FE5
:10205000FFF87FFFFCFFFFFEFFFFFEFFFFFEFFFF1D
:10206000FEFFFFFEFFFFFEE3BF3EEDBEDEEDBEDE88
:10207000E3BE1EEFBEDEEFBEDEEF86DEFFFFFEFF3D
:10208000FFFEFFFFFEFFFFFEFFFFFEFFFFFE7FFFE5
:10209000FC3FFFF83FFFF860000CC0000680000224
:1020A0008000028000028000028000029C40C292F8
:1020B00041229241229C41E290412290412290791A
:1020C0002280000280000280000280000280000264
:1020D000C0000660000C3FFFF850726564657465CF
:1020E000726D696E61646F004578747275736F729A
:1020F0003A006C612074656D70657261747572610F
:102100000053656C656363696F6E65004731205AE3
:10211000313520463430300A473238205A0A4731A8
:10212000205A30004731205A31300A4732380A4DA0
:10213000383400506F736963696F6E2034206465B2
:102140002034004731205A31300A47312058313786
:1021500030205934302046323030300A473238206F
:102160005A0A4731205A3000506F736963696F6EA5
:1021700020332064652034004731205A31300A472B
:10218000312058343020593135302046323030300B
:102190000A473238205A0A4731205A30001FFFFFC1
:1021A000F03FFFFFF87FFFFFFCFFFFFFFEFFF83F60
:1021B000FEFFE00FFEFF8003FEF70381FEF20FE05B
:1021C000FEF01FF07EF03FF87EF07FFC3EF03FFE19
:1021D0003EF01FFE1EFFFFFF1EFFFFFF1EFFFFFF63
:1021E0001EFFFFFE1EFFFFFE3EFFFFFC3EFFFFF84F
:1021F0007EFF9FF07EFF0FE0FEFF0381FEFF800366
:10220000FEFFE00FFEFFF83FFE7FFFFFFC3FFFFFFA
:10221000F81FFFFFF01FFFFFF03000001860000004
:102220000CC00000068007C002801FF002807FFC07
:102230000288FC7E028DF01F028FE00F828FC007A4
:10224000828F8003C28FC001C28FE001E280000054
:10225000E2800000E2800000E2800001E2800001F4
:10226000C2800003C28000078280600F8280F01F5E
:102270000280FC7E02807FFC02801FF002C007C04B
:10228000066000000C300000181FFFFFF0506F7355
:102290006963696F6E203220646520340047312005
:1022A0005A31300A473120583137302059313530D2
:1022B0002046323030300A473238205A0A4731201F
:1022C0005A3000506F736963696F6E203120646506
:1022D0002034004731205A31300A473120583430F9
:1022E000205934302046323030300A473238205AB4
:1022F0000A4731205A3000FFFFFFFFFFFFFFFFFFBB
:10230000FFFFFFE080000000000000000000000070
:1023100020B1C71C71C71C71C71C71C71C20A38EBC
:1023200038E38E38E38E38E38E38A0871C71C71CE3
:1023300071C71C71C71C71A0800000000000000064
:102340000000000020FFFFFFFFFFFFFFFFFFFFFF78
:10235000FFE0FFFFFFFFFFFFFFFFFFFFFFFFE0804A
:102360000000000000000000000000208E38E38E16
:1023700038E38E38E38E38E3A09C71C71C71C71C0C
:1023800071C71C71C720B8E38E38E38E38E38E38EE
:10239000E38E20800000000000000000000000200C
:1023A000FFFFFFFFFFFFFFFFFFFFFFFFE0506F7228
:1023B000206661766F722065737065726500010634
:1023C0000A00FE070136026820FFFE08FE07FE0A2B
:1023D000006022176780808080800080163363A0B1
:1023E000A0A00257675050F850F85050025767208D
:1023F00070A07028702002576748A8502050A890FD
:1024000002576740A0A040A8906826136380808090
:10241000123767204080808040201237678040203C
:10242000202040800355658850F85088035565206A
:1024300020F82020113363604080055161F811338A
:102440006340E04002576708081020408080025730
:1024500067205088888850200257672060A020207D
:1024600020F8025767708808304080F8025767F8F4
:1024700008103008887002576710305090F810101C
:10248000025767F880B0C8088870025767304080EC
:10249000B0C88870025767F80810102040400257F3
:1024A0006770888870888870025767708898680895
:1024B000106011376740E0400040E040113767404E
:1024C000E0400060408012476710204080402010AC
:1024D000045363F800F812476780402010204080C2
:1024E0000257677088102020002002576770889874
:1024F000A8B0807002576720508888F888880257F3
:1025000067F04848704848F00257677088808080BC
:102510008870025767F04848484848F0025767F803
:102520008080F08080F8025767F88080F08080809B
:1025300002576770888080988870025767888888FB
:10254000F8888888123767E04040404040E00257F2
:1025500067381010101090600257678890A0C0A0D4
:102560009088025767808080808080F80257678853
:1025700088D8A88888880257678888C8A8988888D3
:1025800002576770888888888870025767F0888843
:10259000F08080800158687088888888A870080258
:1025A0005767F08888F0A09088025767708880701D
:1025B000088870025767F8202020202020025767E3
:1025C0008888888888887002576788888850505023
:1025D00020025767888888A8A8D888025767888803
:1025E0005020508888025767888850202020200279
:1025F0005767F80810204080F8123767E080808025
:102600008080E002576780804020100808123767FA
:10261000E02020202020E0065363205088015161F3
:10262000F828226280400255657008788878025741
:10263000678080B0C888C8B002556570888088708F
:10264000025767080868988898680255657088F886
:102650008070025767304840F0404040005767782C
:102660008888780888700257678080B0C888888812
:102670001237674000C0404040E010496910003008
:1026800010101090906002576780808890E09088CA
:10269000123767C04040404040E0025565D0A8A8CE
:1026A000A888025565B0C8888888025565708888F2
:1026B0008870005767B0C888C8B0808000576768C6
:1026C000988898680808025565B0C88080800255CF
:1026D0006570807008F00257674040F04040483015
:1026E000025565888888986802556588885050200A
:1026F0000255658888A8A8500255658850205088E2
:1027000000576788889868088870025565F8102017
:1027100040F8124767304020C020403022176780C1
:10272000808080808080124767C02040304020C079
:1027300006536348A890FFFFFFFFFFFFFFFFFFFF67
:10274000FFFFFFFFFFFFFFFFFFFFFFFFFFFFFFFF99
:10275000FFFFFFFFFFFFFF0A006022176780008076
:10276000808080800157672078A0A0A07820025741
:1027700067304840E04048B0025565887050708826
:1027800001586888885020F8202020221767808010
:1027900080008080800158687080E0904838087020
:1027A000193161A00257677088A8C8A888701346BD
:1027B000667090B05000F00265652448904824147B
:1027C0004262F010154161F00257677088E8C8C88E
:1027D0008870095161F816336340A04002566620A4
:1027E00020F82020F815456560902040F0154565DB
:1027F000E0106010E02822624080015666888888D8
:10280000C8B08002576778E8E86828282825116151
:1028100080202262408015356540C04040E013466C
:10282000666090906000F0026565904824489001D1
:10283000696940C04040E40C143C0401696940C02F
:102840004040E81404081C015969C0204020C81801
:1028500028780802576720002020408870025868B6
:102860004020708888F8888802586810207088880E
:10287000F888880258682050708888F8888802583C
:102880006848B0708888F888880258685000708856
:1028900088F888880258682050708888F8888802EC
:1028A00067673C50909CF0909C00596970888080CC
:1028B000808870204002586840F88080F08080F85E
:1028C00002586810F88080F08080F802586820F87C
:1028D0008080F08080F802586850F88080F0808016
:1028E000F81238688040E040404040E012386820EC
:1028F00040E040404040E012386840A0E0404040A6
:1029000040E0123868A000E040404040E0025767D5
:10291000F04848E84848F0025868285088C8A89805
:1029200088880258684020708888888870025868B3
:1029300010207088888888700258682050708888B5
:102940008888700258682850708888888870025873
:1029500068500070888888887002556588502050BB
:1029600088025767709898A8C8C8700258684020B5
:1029700088888888887002586810208888888888A5
:102980007002586820500088888888700258685003
:1029900000888888888870025868102088885020AD
:1029A000202002576780F088F0808080025767708F
:1029B0008890A09088B002586840200070087888FD
:1029C00078025868102000700878887802586820CB
:1029D000500070087888780258682850007008788D
:1029E0008878025767500070087888780258682005
:1029F0005020700878887802656578147C907C0097
:102A000057677088808870204002586840200070A6
:102A100088F880700258681020007088F880700272
:102A200058682050007088F8807002576750007016
:102A300088F88070123868804000C0404040E01242
:102A40003868408000C0404040E012386840A00034
:102A5000C0404040E0123767A000C0404040E00264
:102A60005767C0307088888870025868285000B056
:102A7000C88888880258684020007088888870025A
:102A800058681020007088888870025868205000AC
:102A9000708888887002586828500070888888700C
:102AA000025767500070888888700355652000F8C9
:102AB00000200255657898A8C8F0025868402000A8
:102AC00088888898680258681020008888889868E4
:102AD000025868205000888888986802576750001C
:102AE00088888898680059691020888898680888BC
:102AF0007000586880F0888888F08080005969509C
:102B000000888898680888704572726F72207772A2
:102B10006974696E6720746F20454550524F4D218E
:102B200000206279746573290053657474696E6757
:102B3000732053746F726564202800454550524FCE
:102B40004D20636865636B73756D206D69736D618E
:102B5000746368002D2D2D2D2D2D2D2D2D2D2D2D1A
:102B60002D2D2D2D2D2D2D2D2D2D2D2D2D2D2D2D95
:102B70002D2D2D2D2D2D2D2D2D2D2D2D2D2D2D2D85
:102B80002D2D2D2D2D2D2D2D2D2D2D2D2D2D2D2D75
:102B90002D2D2D2D2D2D2D2D00206279746573295D
:102BA0000020202020202020202020202020202045
:102BB0002053746F7265642073657474696E6773F3
:102BC000207265747269657665642028005D205303
:102BD000746F7265642076657273696F6E3A205BFC
:102BE0000056657273696F6E3A205B002D2D2D2D96
:102BF0002D2D2D2D2D2D2D2D2D2D2D2D2D2D2D2D05
:102C00002D2D2D2D2D2D2D2D2D2D2D2D2D2D2D2DF4
:102C10002D2D2D2D2D2D2D2D2D2D2D2D2D2D2D2DE4
:102C20002D2D2D2D2D2D2D2D2D2D2D2D2D2D2D2DD4
:102C3000002D2D2D2D2D2D2D2D2D2D2D2D2D2D2DF1
:102C40002D2D2D2D2D2D2D2D2D2D2D2D2D2D2D2DB4
:102C50002D2D2D2D2D2D2D2D2D2D2D2D2D2D2D2DA4
:102C60002D2D2D2D2D2D2D2D2D2D2D2D2D2D2D2D94
:102C70002D2D2D2D2D002D2D2D2D2D2D2D2D2D2DB1
:102C80002D2D2D2D2D2D2D2D2D2D2D2D2D2D2D2D74
:102C90002D2D2D2D2D2D2D2D2D2D2D2D2D2D2D2D64
:102CA0002D2D2D2D2D2D2D2D2D2D2D2D2D2D2D2D54
:102CB0002D2D2D2D2D2D2D2D2D2D002045002020AD
:102CC0004D323035205400204500205A0020580055
:102CD00020420020560020202020205300002020E9
:102CE000202020202020285A3D6D6178696D756D67
:102CF000205A206A65726B20286D6D2F73292C2055
:102D000020453D6D6178696D756D2045206A65725D
:102D10006B20286D6D2F7329290020202020202072
:102D200028423D6D696E696D756D207365676D65CF
:102D30006E742074696D6520286D73292C20583DB0
:102D40006D6178696D756D205859206A65726B20C8
:102D5000286D6D2F73292900202020202020202875
:102D6000533D4D696E206665656472617465202807
:102D70006D6D2F73292C20563D4D696E2074726144
:102D800076656C20666565647261746520286D6D7A
:102D90002F732929002020202020202020202020DF
:102DA0002020202020202020202020202020202023
:102DB00020202020284D32303529002020202020BE
:102DC0002020202020202020202020202020202003
:102DD00020202020202020207C416476616E6365C5
:102DE000647C002D2D2D2D2D2D2D2D2D2D2D2D2DBA
:102DF0002D2D2D2D2D2D2D2D2D2D2D2D2D2D2D2D03
:102E00002D2D2D2D2D2D2D2D2D2D2D2D2D2D2D2DF2
:102E10002D2D2D2D2D2D2D2D2D2D2D2D2D2D2D2DE2
:102E20002D2D2D2D2D2D2D00202020202020202067
:102E3000202020202020202020202020202020436F
:102E40006F6E66696775726174696F6E2041647632
:102E5000616E636564002D2D2D2D2D2D2D2D2D2DB5
:102E60002D2D2D2D2D2D2D2D2D2D2D2D2D2D2D2D92
:102E70002D2D2D2D2D2D2D2D2D2D2D2D2D2D2D2D82
:102E80002D2D2D2D2D2D2D2D2D2D2D2D2D2D2D2D72
:102E90002D2D2D2D2D2D2D2D2D2D0020204D323081
:102EA0003020543120440020204D32303020440066
:102EB00046696C616D656E742073657474696E67C4
:102EC000733A002044002049002050002020202098
:102ED00020202020202020202020202048002020EA
:102EE00020202020202020202020202020202020E2
:102EF00020202020202020202020202020284D338A
:102F000030312900202020202020202020202020B7
:102F10002020202020202020202020202020207C55
:102F20005049442073657474696E67737C002D2D5D
:102F30002D2D2D2D2D2D2D2D2D2D2D2D2D2D2D2DC1
:102F40002D2D2D2D2D2D2D2D2D2D2D2D2D2D2D2DB1
:102F50002D2D2D2D2D2D2D2D2D2D2D2D2D2D2D2DA1
:102F60002D2D2D2D2D2D2D2D2D2D2D2D2D2D2D2D91
:102F70002D2D002020202020202020202020202057
:102F8000202020202020202020202020436F6E663B
:102F9000696775726174696F6E20504944002D2D08
:102FA0002D2D2D2D2D2D2D2D2D2D2D2D2D2D2D2D51
:102FB0002D2D2D2D2D2D2D2D2D2D2D2D2D2D2D2D41
:102FC0002D2D2D2D2D2D2D2D2D2D2D2D2D2D2D2D31
:102FD0002D2D2D2D2D2D2D2D2D2D2D2D2D2D2D2D21
:102FE0002D2D0020204D3636362050005A205072AC
:102FF0006F6265206F666673657420286D6D293A6F
:1030000000205A0020590020204732392053332015
:10301000580020590020580020204D3432302053D1
:10302000004D65736820626564206C6576656C6927
:103030006E673A00205A00205900205800202020B6
:10304000202020202020202020202020202020544C
:103050000020202020202020202020202020202090
:103060002020202020202020207C486F74656E6462
:10307000206F666673657420286D6D297C002020A2
:103080002020202020202020202020202020202040
:1030900020202020202020202020202020284D32E9
:1030A000313829002020202020202020202020200E
:1030B0002020202020202020202020207C486F74E9
:1030C000656E64206F666673657420286D6D297C5B
:1030D0000000205A002059002020202020202020FD
:1030E00020202020202020202020205800202020C8
:1030F00020202020202020202020202020202020D0
:10310000202020202020202020202020284D323068
:1031100036290020202020202020202020202020B0
:103120002020202020202020202020207C486F6D7F
:1031300065206F666673657420286D6D297C002D8F
:103140002D2D2D2D2D2D2D2D2D2D2D2D2D2D2D2DAF
:103150002D2D2D2D2D2D2D2D2D2D2D2D2D2D2D2D9F
:103160002D2D2D2D2D2D2D2D2D2D2D2D2D2D2D2D8F
:103170002D2D2D2D2D2D2D2D2D2D2D2D2D2D2D2D7F
:103180002D2D2D0020202020202020202020202038
:10319000202020202020202020202020436F6E6629
:1031A000696775726174696F6E206F6666736574A6
:1031B000002D2D2D2D2D2D2D2D2D2D2D2D2D2D2D6C
:1031C0002D2D2D2D2D2D2D2D2D2D2D2D2D2D2D2D2F
:1031D0002D2D2D2D2D2D2D2D2D2D2D2D2D2D2D2D1F
:1031E0002D2D2D2D2D2D2D2D2D2D2D2D2D2D2D2D0F
:1031F0002D2D2D2D2D002D2D2D2D2D2D2D2D2D2D2C
:103200002D2D2D2D2D2D2D2D2D2D2D2D2D2D2D2DEE
:103210002D2D2D2D2D2D2D2D2D2D2D2D2D2D2D2DDE
:103220002D2D2D2D2D2D2D2D2D2D2D2D2D2D2D2DCE
:103230002D2D2D2D2D2D2D2D2D2D0020202020202C
:1032400020202020202020202020202053656E7365
:103250006F722064652066696C616D656E746F3A8B
:1032600020002D2D2D2D2D2D2D2D2D2D2D2D2D2DC8
:103270002D2D2D2D2D2D2D2D2D2D2D2D2D2D2D2D7E
:103280002D2D2D2D2D2D2D2D2D2D2D2D2D2D2D2D6E
:103290002D2D2D2D2D2D2D2D2D2D2D2D2D2D2D2D5E
:1032A0002D2D2D2D2D2D00205200202020202020DE
:1032B000202020202020202020202020202020200E
:1032C00020202020540000205600202020202020F4
:1032D00020202020202020202020202020202050BE
:1032E00000202020202020202020202020284D32B7
:1032F000303420503D7072696E74696E672C2056B0
:103300003D74726176656C20616E6420542A20528F
:103310003D72657472616374290020202020202092
:10332000202020202020202020202020202020209D
:10333000202020207C416363656C65726174696F35
:103340006E737C000020450020204D323031205427
:1033500000204500205A0020590020202020202055
:10336000202020202020202020202020202020205D
:103370005800202020202020202020202020202035
:10338000202020202020202020202020202020203D
:1033900020284D32303129002020202020202020DC
:1033A00020202020202020202020207C4D617869B2
:1033B0006D756D20416363656C65726174696F6ED4
:1033C00020286D6D2F7332297C0020450020204D70
:1033D00032303320540000204500205A002059008C
:1033E00020202020202020202020205800202020C5
:1033F00020202020202020202020202020202020CD
:10340000202020202020202020202020284D323065
:1034100033290020202020202020202020202020B0
:1034200020202020202020207C4D6178696D756D42
:103430002066656564726174657320286D6D2F73F5
:10344000297C000020450020204D393220540043C3
:103450006F6E6669673A00204500205A00205900C7
:103460002020202020202020202020580020202044
:10347000202020202020202020202020202020204C
:10348000202020202020202020202020284D3932DC
:103490002900202020202020202020202020202043
:1034A0002020202020202020202020207C537465F4
:1034B00070732070657220756E69747C002D2D2DDF
:1034C0002D2D2D2D2D2D2D2D2D2D2D2D2D2D2D2D2C
:1034D0002D2D2D2D2D2D2D2D2D2D2D2D2D2D2D2D1C
:1034E0002D2D2D2D2D2D2D2D2D2D2D2D2D2D2D2D0C
:1034F0002D2D2D2D2D2D2D2D2D2D2D2D2D2D2D2DFC
:103500002D002020202020202020202020202020CE
:1035100020202020202020202020202020436F6EEB
:1035200066696775726174696F6E002D2D2D2D2D82
:103530002D2D2D2D2D2D2D2D2D2D2D2D2D2D2D2DBB
:103540002D2D2D2D2D2D2D2D2D2D2D2D2D2D2D2DAB
:103550002D2D2D2D2D2D2D2D2D2D2D2D2D2D2D2D9B
:103560002D2D2D2D2D2D2D2D2D2D2D2D2D2D2D00B8
:1035700053657269653A004D6F64656C6F3A20005F
:1035800050616E74616C6C613A20002D2D2D2D2DD3
:103590002D2D2D2D2D2D2D2D2D2D2D2D2D2D2D2D5B
:1035A0002D2D2D2D2D2D2D2D2D2D2D2D2D2D2D2D4B
:1035B0002D2D2D2D2D2D2D2D2D2D2D2D2D2D2D2D3B
:1035C0002D2D2D2D2D2D2D2D2D2D2D2D2D2D2D0058
:1035D000436F6E74696E756172004D353030004313
:1035E000616E63656C617200436F6E206C6120696F
:1035F0006D70726573696F6E0044657365612063F9
:103600006F6E74696E75617200436F7274652064C9
:1036100065206C757A21004B7574746572637261F4
:1036200066742053746F7265006B75747465726391
:10363000726166742E636F6D2F73746F726500FE16
:10364000DF43F8829F1A08BAEE2AE8BA1B6AE8BA82
:10365000AD32E8821A0A08FEAAABF8004238009F91
:10366000B7D4B8848A31B0860A2F20F0235448F6A4
:10367000169308C51066F886CB5B28D84E1FA8F6AF
:10368000C9084014A93CB03E67DA48091D09E02A80
:10369000457FF0008D78C0FE959AC082955898BA03
:1036A0009C9FD8BAA78D08BA43E1B8826A0768FE22
:1036B000A19CC04D35303000426F7272617220455E
:1036C000737461646973746963610043616D6269F5
:1036D00061722056657273696F6E00566F6C766505
:1036E00072202020202020202020202020202004A4
:1036F000004D35303000496E67726573652047654F
:103700006E65726163696F6E3A00436F6469676FDB
:103710003A00496E67726573652047656E65726130
:1037200063696F6E3A00496E6772657365204D6517
:10373000733A0053616C697200426F727261720079
:10374000496E677265736520436F6469676F0043F4
:103750006F6469676F3A0043656E74696D65747272
:103760006F733A006D6574726F733A004B696C6FDA
:103770006D6574726F733A0046696C616D656E7445
:103780006F20557361646F004D696E75746F733A85
:1037900000486F7261733A00446961733A0054697A
:1037A000656D706F20456E636564696461004D6985
:1037B0006E75746F733A00486F7261733A004469B2
:1037C00061733A005469656D706F20646520696D9E
:1037D00070726573696F6E006E6F206573746162DD
:1037E0006C656369646173004572726F723A20633D
:1037F000617061730043616E63656C617220636127
:103800006D62696F0043616D62696F206361706111
:103810003A200041686F726100456E20436170611B
:103820003A0043616D626961722066696C616D6521
:103830006E746F00496E6963696F004D32310052DA
:1038400065636172676172205461726A6574612098
:103850005364003FFFF87FFFFCFFFFFEFFFFFEFF0A
:10386000003EFE2ABEFCAABEF8AABEF8003EF80042
:103870003EF8103EF8383EF87C3EF8383EF8383EC8
:10388000F8383EF8003EF8003EF8003EF8003EFFF3
:10389000FFFE7FFFFC3FFFF85461726A6574612090
:1038A0005364003FFFF87FFFFCFFFFFEFFFFFEFFBA
:1038B000003EFE2ABEFCAABEF8AABEF8003EF800F2
:1038C0003EF8003EF8003EF86C3EF88A3EF84A3E6C
:1038D000F82A3EF8CC3EF8003EF8003EF8003EFFE5
:1038E000FFFE7FFFFC3FFFF83FFFF860000CC000C9
:1038F0000680000280FFC281D5428355428755422F
:1039000087FFC287FFC287EFC287C7C28783C2878C
:10391000C7C287C7C287C7C287FFC287C7C287FF20
:10392000C287FFC2C0000660000C3FFFF83FFFF8EF
:1039300060000CC0000680000280FFC281D5428377
:10394000554287554287FFC287FFC287FFC287FF64
:10395000C28793C28775C287B5C287D5C28733C273
:1039600087FFC287FFC287FFC2C0000660000C3F0E
:10397000FFF8416A757374652064652046696C615F
:103980006D656E746F0054656D70657261747572EB
:10399000610043616C6962726172004170616761CC
:1039A00072204C656400456E63656E646572204CE0
:1039B0006564003FFFF860000CC01006803802808C
:1039C0007C0280FE028038028038028438428C00FB
:1039D000629F83F2BF83FA9F83F28C006284384235
:1039E00080380280380280FE02807C02803802C06B
:1039F000100660000C3FFFF84D6F76657220656A17
:103A00006573003FFFF87FFFFCFFEFFEFFC7FEFF7F
:103A100083FEFF01FEFFC7FEFFC7FEFBC7BEF3FF2D
:103A20009EE07C0EC07C06E07C0EF3FF9EFBC7BED2
:103A3000FFC7FEFFC7FEFF01FEFF83FEFFC7FEFFBD
:103A4000EFFE7FFFFC3FFFF83FFFF860000CC00077
:103A50000680000280000283FF828600C285014248
:103A600084384284444284824284924284824284E2
:103A700044428438428501428600C283FF8280002E
:103A800002800002C0000660000C3FFFF83FFFF814
:103A90007FFFFCFFFFFEFFFFFEFFFFFEFC007EF945
:103AA000FF3EFAFEBEFBC7BEFBBBBEFB7DBEFB6D91
:103AB000BEFB7DBEFBBBBEFBC7BEFAFEBEF9FF3E32
:103AC000FC007EFFFFFEFFFFFEFFFFFE7FFFFC3FCF
:103AD000FFF83FFFF860000CC0000681FF02830181
:103AE0008282008282008287FFC287FFC287C1C2B2
:103AF0008783C2873FC2873FC28783C287C1C2878D
:103B0000F9C287F9C28781C28703C287FFC2C0009A
:103B10000660000C3FFFF84B757474657263726148
:103B200066742053746F7265003FFFF87FFFFCFFDF
:103B3000FFFEFE00FEFCFE7EFDFF7EFDFF7EF80028
:103B40003EF8003EF83E3EF87C3EF8C03EF8C03EEF
:103B5000F87C3EF83E3EF8063EF8063EF87E3EF81B
:103B6000FC3EF8003EFFFFFE7FFFFC3FFFF8416A8E
:103B700075737465730003E0000C9800180C002046
:103B80001A00303E0040710040E10061C3004181F5
:103B9000004001003006002002001FFC004361705D
:103BA00061733A005A00590020003F005800092074
:103BB00000092000092000092000462D2D3A2D2D56
:103BC00000542D2D3A2D2D00462D2D3A2D2D00106F
:103BD000410008208008208010410020820041041C
:103BE00000410400208200104100000000FFFFC0DF
:103BF000FFFFC0104100208200410400410400206A
:103C00008200104100082080082080104100000040
:103C100000FFFFC0FFFFC000E00000E00000E00088
:103C200003F80007FFC007FEC007FC4007FEC007FF
:103C3000FFC001F00000E00000400000E00000E0F4
:103C40000000E00003F80007FFC007FFC007FFC047
:103C500007FFC007FFC001F00000E0000040003F88
:103C6000FF00700380E619C0CF3CC09F3E40BF3FBD
:103C700040BE1F409CCE4081E04081E0409CCE4051
:103C8000BE1F40BF3F409F3E40CF3CC0E619C070C2
:103C900003803FFF003FFF00700380E3F1C0C3F0EB
:103CA000C081E04080C040B00340B8C740BDEF4095
:103CB000BDEF40B8C740B0034080C04081E040C382
:103CC000F0C0E3F1C07003803FFF00646574656E6F
:103CD000676100696D707265736F72612073650052
:103CE000457370657265206120717565206C610097
:103CF00043414D42494F2044452046494C414D45A2
:103D00004E544F004C696D7069616E646F20626F34
:103D10007175696C6C610045737065726500434133
:103D20004D42494F2044452046494C414D454E5453
:103D30004F007920636F6E74696E7565005072650F
:103D400073696F6E6520656C20626F746F6E0043DF
:103D5000414D42494F2044452046494C414D454E36
:103D6000544F005265746972616E646F2066696CAD
:103D7000616D656E746F00457370657265004341D7
:103D80004D42494F2044452046494C414D454E54F3
:103D90004F0043617267616E646F2066696C616D8C
:103DA000656E746F004573706572650043414D42E6
:103DB000494F2044452046494C414D454E544F0003
:103DC0005265616E7564616E646F20696D707265B5
:103DD00073696F6E004573706572650043414D42B3
:103DE000494F2044452046494C414D454E544F00D3
:103DF0005461726A6574612072657469726164618C
:103E0000005461726A65746120636F6C6F636164F2
:103E10006100000020002300260029002C002F0054
:103E20003200000100000301060109010505050536
:103E3000070508080808020202020A0A0808040422
:103E40000404010101010101010103030303030350
:103E50000303040707070C0C0C0C0C0C0C0C0202DF
:103E6000020206060606060606060B0B0B0B0B0BDC
:103E70000B0B010210202008081020401020408069
:103E8000020102010804020101020408102040801E
:103E900080402010080402018004020180402010AC
:103EA00008040201080402010102040810204080F5
:103EB000010204081020408000000A0B02090C0DCA
:103EC0000E080703040100000000000000000000CD
:103ED00000000000000000000000000000000000E2
:103EE000000000001211100000000000000000009F
:103EF00000000000000000000000000000004D3243
:103F000034004732380A4D3131380A4D3234004DD1
:103F10003233202573003FFFF860000CC00006809C
:103F2000380290FE029BC7829F01C29E00C29F0082
:103F3000629F8062800032800032800032800062A6
:103F40008000628000C28301C283C78280FE02803B
:103F50003802C0000660000C3FFFF83FFFF87FFF0B
:103F6000FCFFFFFEFFC7FEEF01FEE4387EE0FE3EF1
:103F7000E1FF3EE0FF9EE07F9EFFFFCEFFFFCEFF12
:103F8000FFCEFFFF9EFFFF9EFFFF3EFCFE3EFC3884
:103F90007EFF01FEFFC7FEFFFFFE7FFFFC3FFFF835
:103FA000566F6C7665720000446F6E6520736176A3
:103FB000696E672066696C652E006572726F72208B
:103FC00077726974696E6720746F2066696C65002A
:103FD000203A203C3C3C2072756E5F7A5F70726FB5
:103FE00062650A0063757272656E745F706F7369E3
:103FF00074696F6E3D000000A0400000A04000000A
:104000000040203A203E3E3E2072756E5F7A5F701F
:10401000726F62650A0063757272656E745F706FAD
:10402000736974696F6E3D003C3C3C2070726F6236
:10403000655F7074003E20003E200029002C2000A7
:104040003E20646F5F626C6F636B696E675F6D6F5C
:1040500076655F746F5F78792800203A200A0063E4
:10406000757272656E745F706F736974696F6E3D9F
:104070000029002C20002C20003E3E3E2070726F54
:1040800062655F70742800496E636F6D706C657453
:1040900061733A005465726D696E616461733A00D0
:1040A00020546F74616C3A00496D70726573696F6A
:1040B0006E65730053616C697200426F7272617257
:1040C00000456E76696172004573706163696F00C7
:1040D0002E00580059005A00450046005300500079
:1040E0004300496E677265736520436F6469676F4B
:1040F00000436F6D616E646F3A0053616C697200CA
:1041000047004D00496E677265736520436F6469AF
:10411000676F00436F6D616E646F3A004573746141
:10412000646F206465204C6F73204361626C65731B
:1041300000436F727265617320475432004C7562A0
:104140007269636163696F6E00426F7175696C6C4F
:104150006120792042617272656C00417669736FEB
:10416000204D616E74656E696D69656E746F005285
:104170006563756572646520526576697361720066
:104180002000E07001C0F803807803843C038C0EAB
:1041900007FC070EF8039DF0017B8000F70000EE9E
:1041A0000001DC0003BB000777803EEFC07DCFE05D
:1041B000FF87F0C703F88701FC0700FC0E007C1C9A
:1041C000003831352520456E204D617175696E616D
:1041D000730031302520456E204D617175696E6127
:1041E000730033312E342520456E20426F7175697E
:1041F0006C6C61730031352520456E2046696C6119
:104200006D656E746F0031322520456E2046696CF5
:10421000616D656E746F0031302520456E204669F2
:104220006C616D656E746F0033302520456E204ED5
:10423000756573747261205469656E64610032350E
:104240002520456E204E7565737472612054696532
:104250006E64610032352520456E204E756573749D
:104260007261205469656E64610032352520456EA7
:10427000204E756573747261205469656E646100C7
:1042800032302520456E204D617175696E61730075
:1042900032302520456E204E75657374726120544E
:1042A00069656E64610032302520456E204E75656B
:1042B00073747261205469656E6461003230252028
:1042C000456E204E756573747261205469656E6425
:1042D000610031352520456E204D617175696E6133
:1042E000730032302520456E204E756573747261FF
:1042F000205469656E64610031352520456E204E7D
:10430000756573747261205469656E64610031353E
:104310002520456E204D617175696E6173003135E0
:104320002520456E204E7565737472612054696551
:104330006E64610035302520536572766963696F5C
:10434000205465636E69636F0031302520456E200F
:104350004E756573747261205469656E64610031D5
:10436000352520456E20496E73756D6F73003130B1
:104370002520456E204E7565737472612054696501
:104380006E64610032352520456E204772696C6F7E
:104390004E330020352520456E204D617175696EC4
:1043A000617300556E20456E76696F2047726174A7
:1043B00069732121210031302520456E2046696C2A
:1043C000616D656E746F0031302520456E20466941
:1043D0006C616D656E746F0031352520456E20521D
:1043E000657370756573746F730031302520456E89
:1043F0002052657370756573746F730031322520B8
:10440000456E2052657370756573746F7300313536
:104410002520456E2052657370756573746F730047
:1044200032302520456E2052657370756573746F48
:10443000730032302520456E2052657370756573A8
:10444000746F730032302520456E2052657370758D
:104450006573746F730056657220436F6E64696391
:10446000696F6E657320456E3A006B757474657282
:1044700063726166742E636F6D2F70726F6D6F0063
:104480004465736375656E746F3A20415341530000
:104490004465736375656E746F004375706F6E204D
:1044A000446500FC0004000200E180908088808860
:1044B00080A880A8808880A880A8808880A880A8FC
:1044C000808880A880A8808880888088809080E10B
:1044D0008002000400FC001F8010002000C38086C2
:1044E000808C8088808A808A8088808A808A808880
:1044F000808A808A8088808A808A80888088808C70
:10450000808680C380200010001F8001050800FF06
:10451000060121023520FFFF07FF06FF0900502298
:104520001656808080800080153353A0A0A00257CB
:10453000575050F850F850500257572070A070282C
:10454000702013355580A040A02002475740A0A0FE
:1045500040A0A050251353808080122656408080B2
:104560008080401226568040404040800245559051
:1045700060F060900255552020F8202011335360E0
:104580004080044151F011335340E0400246561040
:10459000102040808012365640A0A0A0A0401236C5
:1045A0005640C0404040E00246566090106080F0A7
:1045B000024656F020601090600246562060A0F03F
:1045C0002020024656F080E010906002465660803F
:1045D000E0909060024656F010202040400246567F
:1045E00060906090906002465660909070106012EB
:1045F0002555C0C000C0C0113656606000604080C4
:10460000123656204080804020034353F000F012C1
:10461000365680402020408012365640A020400070
:1046200040015858304898A8A8904030024656603B
:104630009090F09090024656E090E09090E0024614
:1046400056609080809060024656E090909090E096
:10465000024656F080E08080F0024656F080E0800E
:104660008080024656609080B090600246569090DE
:10467000F0909090123656E040404040E00246569E
:1046800070202020A04002465690A0C0A0A090021A
:1046900046568080808080F002465690F0F09090E0
:1046A0009002465690D0F0B0B0900246566090907E
:1046B000909060024656E09090E0808001475760FD
:1046C0009090D0B06010024656E09090E09090023A
:1046D0004656609040209060123656E04040404080
:1046E000400246569090909090600246569090906E
:1046F000906060024656909090F0F090024656907E
:104700009060609090025656888850202020024683
:1047100056F010204080F0123656E080808080E015
:10472000024656808040201010123656E02020208D
:1047300020E016325240A0014151F0162252804032
:10474000024454709090700246568080E09090E051
:104750001234546080806002465610107090907041
:1047600002445460B0C060024656205040E04040D1
:1047700001455560907010600246568080E0909030
:10478000901236564000C04040E0113757200020BC
:104790002020A040024656808090E090901236562D
:1047A000C040404040E0025454D0A8A8A80244545D
:1047B000E090909002445460909060014555E090E4
:1047C000E080800145557090701010024454A0D0D4
:1047D000808012345460C020C00246564040E04001
:1047E000502002445490909070123454A0A0A040E5
:1047F00002545488A8A85002445490606090014527
:10480000559090709060024454F02040F002475759
:10481000304020C02040302216568080808080802A
:10482000024757C02040304020C006425250A0FFEF
:10483000FFFFFFFFFFFFFFFFFFFFFFFFFFFFFFFF88
:10484000FFFFFFFFFFFFFFFFFFFFFFFFFFFFFFFF78
:104850000900502216568000808080800146562034
:1048600070A0A070200246562050E04050A0025593
:104870005588705070880256568850F820F82022CB
:104880001757808080008080800247577080E090BA
:104890007010E0173151A002565670A8C8C8A87011
:1048A00014355560A06000E003435350A05012330C
:1048B00053E02020143151E002565670E8D8E8D871
:1048C00070173151E015335340A04012355540E088
:1048D0004000E014355540A02040E0143555C0207C
:1048E000C020C01622524080014555909090E08033
:1048F00002565678E8E8682828241151801122527F
:10490000408014355540C04040E014355540A0402B
:1049100000E0034353A050A0024757808080A0606E
:10492000F0200247578080A0D010207002475780A7
:10493000408060A0F02012365640004080A0400227
:10494000475740206090F090900247572040609079
:10495000F0909002475760906090F0909002475717
:1049600050A06090F0909002475790006090F090B7
:104970009002475760906090F0909002465670A069
:10498000A0F0A0B00147576090808090604002473F
:10499000574020F080E080F00247572040F080E050
:1049A00080F00247576090F080E080F00247579017
:1049B00000F080E080F01237578040E0404040E057
:1049C0001237572040E0404040E012375740A0E007
:1049D000404040E0123757A000E0404040E002561F
:1049E000567048E848487002475750A090D0B090A1
:1049F00090024757402060909090600247572040B7
:104A00006090909060024757609060909090600234
:104A1000475750A060909090600247579000609078
:104A2000909060123353A040A002465670B0B0D0B0
:104A3000D0E0024757402090909090600247572066
:104A40004090909090600247576090909090906056
:104A5000024757900090909090600257571020881E
:104A60005020202002465680E09090E0800246567A
:104A70006090A0A090A002475740200070909070D6
:104A80000247572040007090907002475720500016
:104A90007090907002475750A0007090907002463E
:104AA00056500070909070024757609060709090E0
:104AB00070025454F068B0781135556080806040C1
:104AC00002475740200060B0C060024757204000B6
:104AD00060B0C06002475760900060B0C06002469E
:104AE00056500060B0C060123757804000C0404050
:104AF000E0123757204000C04040E012375740A036
:104B000000C04040E0123656A000C04040E00247DE
:104B100057A040A01070906002475750A000E0904E
:104B200090900247574020006090906002475720C5
:104B300040006090906002475760900060909060E5
:104B400002475750A0006090906002465690006067
:104B50009090601235554000E0004002445470B01F
:104B6000D0E00247574020009090907002475720B5
:104B70004000909090700247576090009090907025
:104B80000246569000909090700148582040009046
:104B9000907090600147578080E090E080800147EE
:104BA000579000909070906002536F6674776172B6
:104BB00065205265736574005761746368646F673C
:104BC0002052657365740042726F776E206F757442
:104BD0002052657365740045787465726E616C204F
:104BE000526573657400506F7765725570002020B0
:104BF000202020202020202020202020204F6B7CDF
:104C000048617264636F6465642053442044656640
:104C100061756C742053657474696E6773204C6F92
:104C2000616465640020506C616E6E6572427566E9
:104C300066657242797465733A2000202020202036
:104C4000202020202020202046726565204D656DA3
:104C50006F72793A20002D2D2D2D2D2D2D2D2D2DDE
:104C60002D2D2D2D2D2D2D2D2D2D2D2D2D2D2D2D74
:104C70002D2D2D2D2D2D2D2D2D2D2D2D2D2D2D2D64
:104C80002D2D2D2D2D2D2D2D2D2D2D2D2D2D2D2D54
:104C90002D2D2D2D2D2D2D2D2D2D002D2D2D2D2D71
:104CA0002D2D2D2D2D2D2D2D2D2D2D2D2D2D2D2D34
:104CB0002D2D2D2D2D2D2D2D2D2D2D2D2D2D2D2D24
:104CC0002D2D2D2D2D2D2D2D2D2D2D2D2D2D2D2D14
:104CD0002D2D2D2D2D2D2D2D2D2D2D2D2D2D2D0031
:104CE00020202020202020202020202020202020C4
:104CF000202020202020202020436F6D70696C65CB
:104D0000643A204D61792031392032303230002030
:104D10002020202020202020202020202020202093
:104D200020202020202020202020417574686F72D0
:104D30003A20284B55545445524352414654205F23
:104D40007C7C5F204D6F643A4F726C69782900203B
:104D50002020202020202020202020202020202053
:104D6000202020204C617374205570646174656448
:104D70003A204D61792031392032303230203136BD
:104D80003A34363A3138002D2D2D2D2D2D2D2D2D47
:104D90002D2D2D2D2D2D2D2D2D2D2D2D2D2D2D2D43
:104DA0002D2D2D2D2D2D2D2D2D2D2D2D2D2D2D2D33
:104DB0002D2D2D2D2D2D2D2D2D2D2D2D2D2D2D2D23
:104DC0002D2D2D2D2D2D2D2D2D2D2D002020202074
:104DD00020202020202020202020202020202020D3
:104DE00020202020204B55545445524352414654D4
:104DF0005F5620342E302E30002D2D2D2D2D2D2DB3
:104E00002D2D2D2D2D2D2D2D2D2D2D2D2D2D2D2DD2
:104E10002D2D2D2D2D2D2D2D2D2D2D2D2D2D2D2DC2
:104E20002D2D2D2D2D2D2D2D2D2D2D2D2D2D2D2DB2
:104E30002D2D2D2D2D2D2D2D2D2D2D2D2D002D2DCF
:104E40002D2D2D2D2D2D2D2D2D2D2D2D2D2D2D2D92
:104E50002D2D2D2D2D2D2D2D2D2D2D2D2D2D2D2D82
:104E60002D2D2D2D2D2D2D2D2D2D2D2D2D2D2D2D72
:104E70002D2D2D2D2D2D2D2D2D2D2D2D2D2D2D2D62
:104E80002D2D002020202020202020202020202028
:104E900020202020202020202020204B75747465A5
:104EA000726372616674204669726D776172650023
:104EB0002D2D2D2D2D2D2D2D2D2D2D2D2D2D2D2D22
:104EC0002D2D2D2D2D2D2D2D2D2D2D2D2D2D2D2D12
:104ED0002D2D2D2D2D2D2D2D2D2D2D2D2D2D2D2D02
:104EE0002D2D2D2D2D2D2D2D2D2D2D2D2D2D2D2DF2
:104EF0002D2D2D2D0073746172740000002100248B
:104F00000027002A002D00300033000101000004BA
:104F10000107010A0100002200250028002B002EB5
:104F2000003100340002010000050108010B01708E
:104F3000012C0190012701B0012201C0011D01F0E7
:104F40000118011002130130020E016002090190E4
:104F5000020401C002FF000003FA004003F50080D4
:104F600003F000D003EB002004E6007004E100E051
:104F700004DC004005D700C005D2004006CD00D0BB
:104F800006C8008007C3003008BE00F008B900C0A2
:104F900009B400B00AAF00B00BAA00D00CA5000005
:104FA0000EA000500F9B00C0109600501291000000
:104FB000148C00C0158700B0178200B0197D00D096
:104FC0001B7800001E730040206E0090226900F0E4
:104FD00024640040275F0090295A00E02B55001000
:104FE0002E500020304B0010324600E0334100903C
:104FF000353C001037370070383200A0392D00B032
:105000003A2800A03B2300603C1E00103D19009090
:105010003D1400103E0F00703E0A00C03E05000027
:105020003F0000204B643A2000204B693A200020CA
:105030004B703A2000504944204175746F74756E6E
:10504000652066696E6973686564212050757420F7
:10505000746865206C617374204B702C204B692040
:10506000616E64204B6420636F6E7374616E747341
:105070002066726F6D2061626F766520696E746F55
:1050800020436F6E66696775726174696F6E2E6812
:10509000206F722073656E6420636F6D6D616E6446
:1050A000204D35303020666F72207361766520693F
:1050B0006E20454550524F4D20746865206E6577CF
:1050C0002076616C75652100504944204175746FEC
:1050D00074756E65206661696C6564212074696D04
:1050E000656F757400504944204175746F74756E16
:1050F00065206661696C6564212054656D70657218
:10510000617475726520746F6F206C6F7700504901
:1051100044204175746F74756E65206661696C65B5
:1051200064212054656D70657261747572652074B8
:105130006F6F206869676800204B643A2000204B3D
:10514000693A2000204B703A200020436C61737351
:1051500069632050494420002054753A2000204BB8
:10516000753A2000206D61783A2000206D696E3A12
:10517000200020643A200020626961733A200020F8
:105180004170706C7920726573756C74002043797E
:10519000636C65733A20002054656D703A200048B6
:1051A0006F74656E643A20004348414D4245520099
:1051B00042454400504944204175746F74756E65D2
:1051C00020737461727400504944204175746F7487
:1051D000756E65206661696C65642120426164209A
:1051E00074656D706572617475726520636F6E743D
:1051F000726F6C6C6572206E756D626572002C202A
:1052000073797374656D2073746F70706564212099
:10521000436F6F6C6572002C2073797374656D2019
:1052200073746F7070656421204368616D6265728C
:10523000002C2073797374656D2073746F707065C2
:10524000642120426564002C2073797374656D209D
:1052500073746F7070656421204865617465725F56
:1052600049443A20005041524144412044452045A0
:105270004D4552472E00202D20496E76616C6964A1
:10528000206578747275646572206E756D626572E2
:10529000202100C0159100B0178C00B0198700D0F4
:1052A0001B8200001E7D004020780090227300F0D9
:1052B000246E004027690090296400B02A5F00D066
:1052C0002B5A00F02C5500102E500020304B0010AF
:1052D000324600E033410090353C00103737007013
:1052E000383200A0392D00B03A2800A03B230060DE
:1052F0003C1E00103D1900903D1400103E0F007040
:105300003E0A00C03E0500003F00004D494E544596
:105310004D50204552524F52004D494E54454D502C
:1053200020747269676765726564004D494E544523
:105330004D5020424544204552524F5200456C206A
:105340004669726D77617265204E6F004C6F205414
:1053500069656E6520416374697661646F004F70A2
:1053600063696F6E204E6F20446973706F6E69625F
:105370006C6500FF8081408120811091F0909090B9
:10538000908010801080108F10909080108010FFFF
:10539000F03FFFF87FFFFCFFFFFEFFF7FEFFE7FE99
:1053A000FFC1FEFCC07EF8E63EF9F73EF3FF9EF338
:1053B000FF9EF3FF9EF3FF9EF3FF9EF9DF3EF8CEC4
:1053C0003EFC067EFF07FEFFCFFEFFDFFEFFFFFE77
:1053D0007FFFFC3FFFF83FFFF860000CC000068035
:1053E0000802801802803E02833F828719C2860825
:1053F000C28C00628C00628C00628C00628C006245
:105400008620C28731C283F98280F8028030028010
:105410002002C0000660000C3FFFF83FFFF87FFF4E
:10542000FCFEFFFEFD7FFEFEC3FEFFBDFEFFA5FEF0
:10543000FFB5FEFFA5FEFFB5FEFFA5FEFFB5FEFF13
:10544000A5FEFF66FEFEC37EFE817EFEC37EFF7E5E
:10545000FEFF81FEFFFFFEFFFFFE7FFFFC3FFFF828
:105460003FFFF860000CC10006828002813C028090
:105470004202805A02804A02805A02804A02805ABE
:1054800002804A02805A02809902813C82817E8297
:10549000813C82808102807E02800002C000066022
:1054A000000C3FFFF83FFFF87FFFFCFFFFFEFFFF10
:1054B000FEFFFFFEFF83FEFE6CFEFCFE7EFBFCBEDD
:1054C000F9F83EF7F1DEF7E3DEF3C79EF7CFDEF73C
:1054D000FFDEF9FF3EFBFFBEFC007EFFFFFEFFFF8D
:1054E000FEFFFFFE7FFFFC3FFFF83FFFF860000C70
:1054F000C00006800002800002807C02819302834B
:1055000001828403428607C2880E22881C228C38BE
:10551000628830228800228600C284004283FF8293
:10552000800002800002C0000660000C3FFFF83FD0
:10553000FFF87FFFFCFFFFFEFFFFFEFDFFFEF8EF21
:10554000BEF0673EFDE8BEFDE8BEFDE8BEFFE8BE7A
:10555000FFE8BEFDE8BEFDE8BEFDE8BEF0653EF832
:10556000EDBEFDFDFEFFFFFEFFFFFEFFFFFE7FFF26
:10557000FC3FFFF83FFFF860000CC000068000020F
:105580008200028710428F98C2821742821742829D
:1055900017428017428017428217428217428217B1
:1055A000428F9AC287124282020280000280000269
:1055B000C0000660000C3FFFF83FFFF87FFFFCFFD4
:1055C000FFFEFFFFFEFFFFFEFF1FFEFF0FFEFF07B8
:1055D000FEFF03FEFF01FEFF00FEFF007EFF00FE58
:1055E000FF01FEFF03FEFF07FEFF0FFEFF1FFEFF92
:1055F000FFFEFFFFFEFFFFFE7FFFFC3FFFF83FFFC8
:10560000F860000CC0000680000280000280E0020A
:1056100080F00280F80280FC0280FE0280FF02809F
:10562000FF8280FF0280FE0280FC0280F80280F090
:105630000280E002800002800002C0000660000CD0
:105640003FFFF83FFFF87FFFFCFFFFFEFFFFFEFF7D
:10565000FFFEF87C3EF87C3EF87C3EF87C3EF87C11
:105660003EF87C3EF87C3EF87C3EF87C3EF87C3E82
:10567000F87C3EF87C3EF87C3EFFFFFEFFFFFEFF1D
:10568000FFFE7FFFFC3FFFF83FFFF860000CC0000B
:10569000068000028000028783C28783C28783C29C
:1056A0008783C28783C28783C28783C28783C28777
:1056B00083C28783C28783C28783C28783C28000F5
:1056C00002800002C0000660000C3FFFF83FFFF8B8
:1056D0007FFFFCFFFFFEFFFFFEFFFFFEF87E3EF8B0
:1056E0007C3EF8383EFC107EFE00FEFF01FEFF838C
:1056F000FEFF01FEFE00FEFC107EF8383EF87C3E08
:10570000F8FE3EFFFFFEFFFFFEFFFFFE7FFFFC3FB8
:10571000FFF83FFFF860000CC00006800002800028
:10572000028781C28783C287C7C283EF8281FF025B
:1057300080FE02807C0280FE0281FF0283EF82876E
:10574000C7C28783C28701C2800002800002C000F6
:105750000660000C3FFFF83FFFF87FFFFCFFFFFEF5
:10576000FFFFFEFFF1FEFFEEFEFFDDFEFFDBBEFFF3
:10577000DB5EFFDCDEFFBFDEFF7FBEFEF87EFDF7F7
:10578000FEFBEFFEF7DFFEF5BFFEF77FFEF8FFFE44
:10579000FFFFFEFFFFFE7FFFFC3FFFF83FFFF860CB
:1057A000000CC00006800002800E028011028022E0
:1057B000028024428024A2802322804022808042D2
:1057C0008107828208028410028820028A400288AF
:1057D0008002870002800002C0000660000C3FFFCC
:1057E000F83FFFF87FFFFCFFFFFEFFFFFEFFFFFE1D
:1057F000FF83FEFE001EFE009EFE01DEFE009EFEFA
:10580000001EFF83FEFFC7FEFFEFFEFFFFFEFC0052
:105810007EFFFFFEF0001EF0001EFFFFFEFFFFFEFA
:105820007FFFFC3FFFF83FFFF860000CC0000680E0
:105830000002800002807C0281FFE281FF6281FE23
:105840002281FF6281FFE2807C02803802801002A8
:1058500080000283FF828000028FFFE28FFFE280E0
:105860000002C0000660000C3FFFF83FFFF87FFF1A
:10587000FCFFFFFEFFFFFEFFC7FEFF39FEFEFEFE40
:10588000FDFF7EFDD77EFDAB7EFDBB7EFDD77EFEA0
:10589000D6FEFEC6FEFF01FEFF83FEFF83FEFF83F2
:1058A000FEFFC7FEFFFFFEFFFFFE7FFFFC3FFFF88E
:1058B0003FFFF860000CC0000680000280380280C4
:1058C000C60281010282008282288282548282443E
:1058D0008282288281290281390280FE02807C0234
:1058E000807C02807C02803802800002C00006605A
:1058F000000C3FFFF83FFFF87FFFFCFFFFFEFFFFBC
:10590000FEFFC7FEFF01FEFE00FEFC007EFC287EBF
:10591000FC547EFC447EFC287EFE28FEFE38FEFF02
:1059200001FEFF83FEFF83FEFF83FEFFC7FEFFFF36
:10593000FEFFFFFE7FFFFC3FFFF83FFFF860000C1B
:10594000C0000680000280380280FE0281FF0283D0
:10595000FF8283D78283AB8283BB8283D78281D746
:105960000281C70280FE02807C02807C02807C0271
:10597000803802800002C0000660000C3FFFF83F44
:10598000FFF87FFFFCFFFFFEFFFFFEFFCC7EFFB5B1
:105990007EFF497EFEB57EFD7A7EFAFD7EF5FEBE77
:1059A000F3FF3EFBFF7EFB877EFBB77EFBB77EFBF4
:1059B000B77EFBB77EF8007EFFFFFEFFFFFE7FFF96
:1059C000FC3FFFF83FFFF860000CC00006800002BB
:1059D000803382804A8280B682814A828285828533
:1059E00002828A01428C00C28400828478828448C8
:1059F0008284488284488284488287FF82800002B1
:105A0000C0000660000C3FFFF84D333820257300BE
:105A10004D3234004D353030004D32332025730087
:105A20004D32332025730002566F6C7665722E2E30
:105A300000566F6C766572202020202020202020C8
:105A4000202020202004001FFFFFF03000001860FD
:105A500000000CC0020086800301828002828281E5
:105A6000827C8281827C8287E27C8287E27C828166
:105A7000827C8281827C8280027C8280027C828124
:105A8000827C8281827C8281827C8281827C828112
:105A9000827C8281827C8281827C8281827C8287FC
:105AA000E27C8283C292828183118280021082C052
:105AB0000010066000000C300000181FFFFFF01FF0
:105AC000FFFFF03FFFFFF87FFFFFFCFFFDFF7EFFC2
:105AD000FCFE7EFFFD7D7EFE7D837EFE7D837EF867
