:100000000C94553C0C94863C0C94863C0C94863C99
:100010000C94863C0C94863C0C94863C0C94863C58
:100020000C94863C0C94863C0C94863C0C94863C48
:100030000C94863C0C9402740C94863C0C94863C84
:100040000C94863C0D9457020C94863C0C94863C90
:100050000C94863C0C94863C0C94F1B30C94BBCD70
:100060000C94863C0C944BE80C941BE80C94863C56
:100070000C94863C0C94863C0C94863C0C94863CF8
:100080000C94863C0C94863C0C94863C0C94863CE8
:100090000C94863C0C94863C0C94863C0C94863CD8
:1000A0000C94863C0C94863C0C94863C0C94863CC8
:1000B0000C94863C0C94863C0C94863C0C94863CB8
:1000C0000C94863C0C94863C0C94863C0C9487CB18
:1000D0000C94A1740C94863C0C94863C0C94863C45
:1000E0000C94863C09B358B32EB328B340B343B342
:1000F0004DB34DB45DB47CB48CB4A7B4ACB4AFB460
:10010000B4B4B7B4BCB4BFB4C4B4C7B4CCB4CFB443
:10011000D4B4D7B4DCB4E6B40ACB0DCBFCCA00CB64
:1001200006CB44CB11CB15CB1BCB1FCB23CB29CB81
:100130002DCB31CB44CB37CB3BCB3FCBD7CCDCCC5F
:10014000E1CCEBCCF5CC6ECDFFCC07CD0FCD19CDEE
:1001500023CD2DCD3CCD46CD6ECD50CD5ACD64CDE9
:10016000FA000001EE00F600F400EA00DE00E8000C
:10017000084AD73B3BCE016E84BCBFFDC12F3D6C0E
:1001800074319ABD56833DDA3D00C77F11BED9E474
:10019000BB4C3E916BAAAABE000000803F05A84C54
:1001A000CDB2D44EB93836A9020C50B99186880820
:1001B0003CA6AAAA2ABE000000803F000D94390286
:1001C0000D94A01D0D94040C0D9473090D94C40D91
:1001D0000D9440020D942E020D9426220D941902C6
:1001E0000D941E0C0D94690A0D9427020D942002A3
:1001F0000D9460090D9407020D944E0A0D94E20BC4
:100200000D9411020D94320B0D94AE090D94580FFC
:100210000D94130A414C4C00434F4D4D554E4943EC
:100220004154494F4E0044525952554E0045525286
:100230004F525300494E464F004543484F005265C8
:10024000706F736F2E2E2E005A206E6F7420656EA5
:1002500074657265642E005A206E6F7420656E742A
:10026000657265642E0059206E6F7420656E74652A
:100270007265642E0059206F7574206F662072615C
:100280006E67652028312D33292E0058206E6F743B
:1002900020656E74657265642E0058206F75742039
:1002A0006F662072616E67652028312D33292E001C
:1002B000473238004D6573682070726F62696E67EF
:1002C00020646F6E652E005374617274206D6573C7
:1002D000682070726F62696E672077697468202287
:1002E000473239205331222066697273742E0047D9
:1002F00032380A473239205332004D657368206224
:100300006564206C6576656C696E67206E6F74201D
:100310006163746976652E002020004D65617375F8
:1003200072656420706F696E74733A005A206F664C
:10033000667365743A20005A2073656172636820A1
:100340006865696768743A20002C004E756D205806
:100350002C593A200053746174653A200053206F81
:100360007574206F662072616E67652028302D35A8
:10037000292E003C3C3C2067636F64655F47333047
:1003800000205A3A200020593A200020583A2000F4
:10039000426564003E3E3E2067636F64655F47339D
:1003A0003000205A3A200020593A200020583A20A4
:1003B0000042656400496E76616C696420736C6FFD
:1003C000742C20746F74616C20736C6F74733A209A
:1003D0000020453A00205A3A0020593A003C2D5856
:1003E0003A00205300536176656420706F7369741E
:1003F000696F6E003A0020002D3E002053005265C8
:1004000073746F72696E6720706F736974696F6E51
:1004100000496E76616C696420736C6F742C207473
:100420006F74616C20736C6F74733A200052657343
:10043000756D69656E646F20696D7072652E004B15
:1004400075747465726372616674206C697374612B
:100450002E004573706572616E646F206F72646503
:100460006E65730053746F70205072696E74696E9C
:100470006700486F6C612065737465206573207533
:100480006E206D6F6D656E746F206F706F72747516
:100490006E6F005374617274205072696E74696E6D
:1004A000670053696E206D6F76696D69656E746F54
:1004B00000456E642066696C65206C697374004247
:1004C0006567696E2066696C65206C697374002FBE
:1004D000005344207072696E74696E67206279748B
:1004E0006520004E6F74205344207072696E7469E9
:1004F0006E670046696C652064656C6574656400B0
:1005000044656C6574696F6E206661696C65640032
:1005100046696C652064656C657465640050726939
:100520006E742074696D6520002569682025696DE9
:100530002025697300256964202569682025696D77
:1005400020256973004469726563746F7279206352
:10055000726561746564004372656174696F6E20D1
:100560006661696C656400436C6F73652066696CD5
:100570006520616E642073617665207265737461B5
:1005800072742E67636F64650020616E64207374FB
:10059000617274207072696E742E004F70656E20E7
:1005A00066696C653A20004B75747465726372619C
:1005B0006674204F46462E0043616C656E74616E12
:1005C000646F2E2E2E004B757474657263726166B3
:1005D00074206C697374612E0043616C656E746184
:1005E0006D69656E746F204F6B2E003F0020573A87
:1005F0000043616C656E74616E646F2E2E2E004B2D
:1006000075747465726372616674206C6973746169
:100610002E006F666600390234022D02260218028F
:10062000140244656275673A0050415241444120CA
:10063000444520454D4552472E004D31313320531E
:10064000004649524D574152455F4E414D453A4B48
:10065000555454455243524146545F5620332E362A
:100660002E30204649524D574152455F55524C3A23
:10067000687474703A2F2F7777772E6B7574746562
:100680007263726166742E636F6D2F736F66747719
:100690006172652050524F544F434F4C5F56455244
:1006A00053494F4E3A322E30204D414348494E4532
:1006B0005F545950453A43617274657369616E20A5
:1006C00045585452554445525F434F554E543A3263
:1006D00020555549443A33323462666134322D61D3
:1006E0003432372D313165362D383066352D373679
:1006F000333034646563376562370A006373746549
:1007000070733A200043616D61204F6B2E0043618E
:100710006C656E74616E646F2043616D612E0020A4
:10072000496E76616C696420686F74656E64004D13
:10073000002C002C002000486F74656E64206F66EA
:1007400066736574733A00496E76616C69642065FE
:10075000787472756465720020443A0020493A004A
:1007600020503A00480043290061626C65642028EB
:100770006D696E2074656D702000436F6C64206538
:1007800078747275646573206172652000486F74B7
:10079000656E6420746F6F20636F6C6420746F20CB
:1007A0006368616E67652066696C616D656E740073
:1007B000436170613A2000486F6C61206D756E6412
:1007C0006F0020496E76616C69642065787472757B
:1007D00064657200540041637469766520457874DD
:1007E00072756465723A20004163746976652044CD
:1007F00072697665723A20003C3C3C2067636F6406
:10080000655F5400203A2041465445520A00637502
:100810007272656E745F706F736974696F6E3D009C
:10082000203A204245464F52450A00637572726570
:100830006E745F706F736974696F6E3D0029003E5E
:100840003E3E2067636F64655F5428002200556E4A
:100850006B6E6F776E20636F6D6D616E643A2022F0
:10086000004D363030004563686F3A004572726F54
:10087000722077726974696E6720746F20454550E5
:10088000524F4D21002062797465732900536574BD
:1008900074696E67732053746F7265642028004515
:1008A0004550524F4D20636865636B73756D206DC5
:1008B00069736D61746368002D2D2D2D2D2D2D2DE7
:1008C0002D2D2D2D2D2D2D2D2D2D2D2D2D2D2D2D58
:1008D0002D2D2D2D2D2D2D2D2D2D2D2D2D2D2D2D48
:1008E0002D2D2D2D2D2D2D2D2D2D2D2D2D2D2D2D38
:1008F0002D2D2D2D2D2D2D2D2D2D2D2D00206279E1
:100900007465732900202020202020202020202012
:10091000202020202053746F7265642073657474E6
:10092000696E6773207265747269657665642028E4
:10093000005D2053746F7265642076657273696F11
:100940006E3A205B0056657273696F6E3A205B00E9
:1009500048617264636F6465642044656661756CA8
:10096000742053657474696E6773204C6F6164659D
:1009700064002D2D2D2D2D2D2D2D2D2D2D2D2D2D9D
:100980002D2D2D2D2D2D2D2D2D2D2D2D2D2D2D2D97
:100990002D2D2D2D2D2D2D2D2D2D2D2D2D2D2D2D87
:1009A0002D2D2D2D2D2D2D2D2D2D2D2D2D2D2D2D77
:1009B0002D2D2D2D2D2D002D2D2D2D2D2D2D2D2D94
:1009C0002D2D2D2D2D2D2D2D2D2D2D2D2D2D2D2D57
:1009D0002D2D2D2D2D2D2D2D2D2D2D2D2D2D2D2D47
:1009E0002D2D2D2D2D2D2D2D2D2D2D2D2D2D2D2D37
:1009F0002D2D2D2D2D2D2D2D2D2D2D002D2D2D2D54
:100A00002D2D2D2D2D2D2D2D2D2D2D2D2D2D2D2D16
:100A10002D2D2D2D2D2D2D2D2D2D2D2D2D2D2D2D06
:100A20002D2D2D2D2D2D2D2D2D2D2D2D2D2D2D2DF6
:100A30002D2D2D2D2D2D2D2D2D2D2D2D2D2D2D2DE6
:100A40000020450020204D32303520540020450044
:100A5000205A00205800204200205600202020204C
:100A6000205300002020202020202020285A3D6DE7
:100A70006178696D756D205A206A65726B20286DEA
:100A80006D2F73292C2020453D6D6178696D756D42
:100A90002045206A65726B20286D6D2F732929000F
:100AA00020202020202028423D6D696E696D756DE3
:100AB000207365676D656E742074696D6520286D9F
:100AC00073292C20583D6D6178696D756D205859DA
:100AD000206A65726B20286D6D2F732929002020F4
:100AE000202020202028533D4D696E2066656564D6
:100AF0007261746520286D6D2F73292C20563D4D31
:100B0000696E2074726176656C20666565647261D9
:100B1000746520286D6D2F73292900202020202046
:100B200020202020202020202020202020202020C5
:100B300020202020202020202020284D3230352940
:100B400000202020202020202020202020202020C5
:100B500020202020202020202020202020207C4118
:100B60006476616E6365647C002D2D2D2D2D2D2DF9
:100B70002D2D2D2D2D2D2D2D2D2D2D2D2D2D2D2DA5
:100B80002D2D2D2D2D2D2D2D2D2D2D2D2D2D2D2D95
:100B90002D2D2D2D2D2D2D2D2D2D2D2D2D2D2D2D85
:100BA0002D2D2D2D2D2D2D2D2D2D2D2D2D002020BC
:100BB0002020202020202020202020202020202035
:100BC0002020202020436F6E66696775726174690A
:100BD0006F6E20416476616E636564002D2D2D2D4E
:100BE0002D2D2D2D2D2D2D2D2D2D2D2D2D2D2D2D35
:100BF0002D2D2D2D2D2D2D2D2D2D2D2D2D2D2D2D25
:100C00002D2D2D2D2D2D2D2D2D2D2D2D2D2D2D2D14
:100C10002D2D2D2D2D2D2D2D2D2D2D2D2D2D2D2D04
:100C20000020204D32303020543120440020204D0F
:100C300032303020440046696C616D656E742073FB
:100C4000657474696E67733A00204400204900207F
:100C50005000202020202020202020202020202084
:100C6000202048002020202020202020202020207C
:100C70002020202020202020202020202020202074
:100C8000202020284D333031290020202020202012
:100C90002020202020202020202020202020202054
:100CA00020202020207C5049442073657474696E94
:100CB00067737C002D2D2D2D2D2D2D2D2D2D2D2DC2
:100CC0002D2D2D2D2D2D2D2D2D2D2D2D2D2D2D2D54
:100CD0002D2D2D2D2D2D2D2D2D2D2D2D2D2D2D2D44
:100CE0002D2D2D2D2D2D2D2D2D2D2D2D2D2D2D2D34
:100CF0002D2D2D2D2D2D2D2D0020202020202020AC
:100D000020202020202020202020202020202020E3
:100D10002020436F6E66696775726174696F6E201B
:100D2000504944002D2D2D2D2D2D2D2D2D2D2D2DCA
:100D30002D2D2D2D2D2D2D2D2D2D2D2D2D2D2D2DE3
:100D40002D2D2D2D2D2D2D2D2D2D2D2D2D2D2D2DD3
:100D50002D2D2D2D2D2D2D2D2D2D2D2D2D2D2D2DC3
:100D60002D2D2D2D2D2D2D2D0020204D36363620CC
:100D700050005A2050726F6265206F66667365740A
:100D800020286D6D293A00205A0020590020204764
:100D90003239205333205800205900205800202099
:100DA0004D3432302053004D6573682062656420F5
:100DB0006C6576656C696E673A00205A00205900B0
:100DC000205800202020202020202020202020200B
:100DD00020202020205400202020202020202020FF
:100DE0002020202020202020202020202020207CA7
:100DF000486F74656E64206F666673657420286D35
:100E00006D297C0020202020202020202020202050
:100E100020202020202020202020202020202020D2
:100E2000202020284D323138290020202020202069
:100E300020202020202020202020202020202020B2
:100E400020207C486F74656E64206F6666736574DD
:100E500020286D6D297C0000205A00205900202098
:100E60002020202020202020202020202020202082
:100E7000205800202020202020202020202020205A
:100E80002020202020202020202020202020202062
:100E90002020284D323036290020202020202020FC
:100EA0002020202020202020202020202020202042
:100EB00020207C486F6D65206F66667365742028FE
:100EC0006D6D297C002D2D2D2D2D2D2D2D2D2D2DB4
:100ED0002D2D2D2D2D2D2D2D2D2D2D2D2D2D2D2D42
:100EE0002D2D2D2D2D2D2D2D2D2D2D2D2D2D2D2D32
:100EF0002D2D2D2D2D2D2D2D2D2D2D2D2D2D2D2D22
:100F00002D2D2D2D2D2D2D2D2D002020202020208C
:100F100020202020202020202020202020202020D1
:100F20002020436F6E66696775726174696F6E2009
:100F30006F6666736574002D2D2D2D2D2D2D2D2D95
:100F40002D2D2D2D2D2D2D2D2D2D2D2D2D2D2D2DD1
:100F50002D2D2D2D2D2D2D2D2D2D2D2D2D2D2D2DC1
:100F60002D2D2D2D2D2D2D2D2D2D2D2D2D2D2D2DB1
:100F70002D2D2D2D2D2D2D2D2D2D2D0020520020F0
:100F80002020202020202020202020202020202061
:100F90002020202020202020205400002056002047
:100FA0002020202020202020202020202020202041
:100FB0002020202050002020202020202020202021
:100FC0002020284D32303420503D7072696E746993
:100FD0006E672C20563D74726176656C20616E647C
:100FE00020542A20523D7265747261637429002076
:100FF00020202020202020202020202020202020F1
:101000002020202020202020207C416363656C6507
:10101000726174696F6E737C000020450020204D62
:10102000323031205400204500205A002059002041
:1010300020202020202020202020202020202020B0
:101040002020202020580020202020202020202088
:101050002020202020202020202020202020202090
:10106000202020202020284D32303129002020202F
:101070002020202020202020202020202020202070
:101080007C4D6178696D756D20416363656C657237
:101090006174696F6E20286D6D2F7332297C00207A
:1010A000450020204D3230332054000020450020E0
:1010B0005A002059002020202020202020202020FD
:1010C0005800202020202020202020202020202008
:1010D0002020202020202020202020202020202010
:1010E00020284D32303329002020202020202020AD
:1010F000202020202020202020202020207C4D6126
:1011000078696D756D2066656564726174657320BC
:10111000286D6D2F73297C000020450020204D395B
:1011200032205400436F6E6669673A002045002004
:101130005A0020590020202020202020202020207C
:101140005800202020202020202020202020202087
:10115000202020202020202020202020202020208F
:1011600020284D3932290020202020202020202036
:10117000202020202020202020202020202020206F
:10118000207C53746570732070657220756E69746D
:101190007C002D2D2D2D2D2D2D2D2D2D2D2D2D2D5D
:1011A0002D2D2D2D2D2D2D2D2D2D2D2D2D2D2D2D6F
:1011B0002D2D2D2D2D2D2D2D2D2D2D2D2D2D2D2D5F
:1011C0002D2D2D2D2D2D2D2D2D2D2D2D2D2D2D2D4F
:1011D0002D2D2D2D2D2D00202020202020202020E1
:1011E00020202020202020202020202020202020FF
:1011F0002020436F6E66696775726174696F6E0057
:101200002D2D2D2D2D2D2D2D2D2D2D2D2D2D2D2D0E
:101210002D2D2D2D2D2D2D2D2D2D2D2D2D2D2D2DFE
:101220002D2D2D2D2D2D2D2D2D2D2D2D2D2D2D2DEE
:101230002D2D2D2D2D2D2D2D2D2D2D2D2D2D2D2DDE
:101240002D2D2D2D004D6F64656C6F3A200050617F
:101250006E74616C6C613A20002D2D2D2D2D2D2D7D
:101260002D2D2D2D2D2D2D2D2D2D2D2D2D2D2D2DAE
:101270002D2D2D2D2D2D2D2D2D2D2D2D2D2D2D2D9E
:101280002D2D2D2D2D2D2D2D2D2D2D2D2D2D2D2D8E
:101290002D2D2D2D2D2D2D2D2D2D2D2D2D002900DC
:1012A0002C20002C20002800656E6473746F70730E
:1012B000206869743A202025632025632025632057
:1012C000256300205A3A0020593A0020583A006518
:1012D0006E6473746F7073206869743A20004D32C5
:1012E00039004E6F204C696E65204E756D626572D7
:1012F000207769746820636865636B73756D2C2053
:101300004C617374204C696E653A20005041524123
:10131000444120444520454D4552472E00504152FE
:10132000414441005072696E7465722073746F702D
:101330007065642064756520746F206572726F72C9
:10134000732E2046697820746865206572726F720A
:1013500020616E6420757365204D39393920746FB2
:1013600020726573746172742E202854656D7065E7
:101370007261747572652069732072657365742E6D
:1013800020536574206974206166746572207265EB
:101390007374617274696E6729004E6F20436865CB
:1013A000636B73756D2077697468206C696E652056
:1013B0006E756D6265722C204C617374204C696E81
:1013C000653A2000636865636B73756D206D6973A2
:1013D0006D617463682C204C617374204C696E6578
:1013E0003A20004C696E65204E756D626572206909
:1013F00073206E6F74204C617374204C696E65208D
:101400004E756D6265722B312C204C617374204CCB
:10141000696E653A20004D313130004D3331004D59
:10142000383420582059205A2045004D353030009E
:1014300053442072656164206572726F7200446F5C
:101440006E65207072696E74696E672066696C657E
:101450000003E0000C9800180C00201A00303E0039
:1014600040710040E10061C3004181004001003053
:1014700006002002001FFC0043617061733A005AAD
:1014800000590020003F00580009200009200009F1
:101490002000092000462D2D3A2D2D00542D2D3AE7
:1014A0002D2D00462D2D3A2D2D00104100082080B5
:1014B00008208010410020820041040041040020E7
:1014C0008200104100000000FFFFC0FFFFC010417C
:1014D00000208200410400410400208200104100ED
:1014E000082080082080104100000000FFFFC0FF9E
:1014F000FFC000E00000E00000E00003F80007FF8C
:10150000C007FEC007FC4007FEC007FFC001F00097
:1015100000E00000400000E00000E00000E0000308
:10152000F80007FFC007FFC007FFC007FFC007FFA5
:10153000C001F00000E0000040003FFF00700380A9
:10154000E619C0CF3CC09F3E40BF3F40BE1F409CFD
:10155000CE4081E04081E0409CCE40BE1F40BF3F76
:10156000409F3E40CF3CC0E619C07003803FFF0063
:101570003FFF00700380E3F1C0C3F0C081E0408012
:10158000C040B00340B8C740BDEF40BDEF40B8C752
:1015900040B0034080C04081E040C3F0C0E3F1C0F0
:1015A0007003803FFF004D313034205430205331E0
:1015B0003930004D31303420543020533233300034
:1015C0004D3130342054302053323130004D3130E1
:1015D000342054302053323430004261736520632C
:1015E000616C696272616461004D353030004D6F2D
:1015F000766572205A0047323800506F736963690C
:101600006F6E002569202F202575004731205A3044
:101610000002536F6674776172652052657365745A
:10162000005761746368646F672052657365740066
:1016300042726F776E206F75742052657365740007
:1016400045787465726E616C2052657365740050E4
:101650006F776572557000202020202020202020E8
:101660002020202020204F6B7C48617264636F64CF
:1016700065642053442044656661756C742053652D
:101680007474696E6773204C6F61646564002050E8
:101690006C616E6E657242756666657242797465DC
:1016A000733A2000202020202020202020202020ED
:1016B0002046726565204D656D6F72793A20002D68
:1016C0002D2D2D2D2D2D2D2D2D2D2D2D2D2D2D2D4A
:1016D0002D2D2D2D2D2D2D2D2D2D2D2D2D2D2D2D3A
:1016E0002D2D2D2D2D2D2D2D2D2D2D2D2D2D2D2D2A
:1016F0002D2D2D2D2D2D2D2D2D2D2D2D2D2D2D2D1A
:101700002D2D2D002D2D2D2D2D2D2D2D2D2D2D2D36
:101710002D2D2D2D2D2D2D2D2D2D2D2D2D2D2D2DF9
:101720002D2D2D2D2D2D2D2D2D2D2D2D2D2D2D2DE9
:101730002D2D2D2D2D2D2D2D2D2D2D2D2D2D2D2DD9
:101740002D2D2D2D2D2D2D2D002020202020202051
:101750002020202020202020202020202020202089
:101760002020436F6D70696C65643A204A756E2065
:10177000203420323031380020202020202020202A
:101780002020202020202020202020202020202059
:10179000202020417574686F723A20284B555454AC
:1017A00045524352414654205F7C7C5F204D6F641C
:1017B0003A4F726C697829002020202020202020B8
:1017C000202020202020202020202020204C617359
:1017D0007420557064617465643A204A756E2020E7
:1017E0003420323031382031363A33313A31350015
:1017F0002D2D2D2D2D2D2D2D2D2D2D2D2D2D2D2D19
:101800002D2D2D2D2D2D2D2D2D2D2D2D2D2D2D2D08
:101810002D2D2D2D2D2D2D2D2D2D2D2D2D2D2D2DF8
:101820002D2D2D2D2D2D2D2D2D2D2D2D2D2D2D2DE8
:101830002D2D2D2D00202020202020202020202094
:1018400020202020202020202020202020204B5538
:101850005454455243524146545F5620332E362E3F
:1018600030002D2D2D2D2D2D2D2D2D2D2D2D2D2DD2
:101870002D2D2D2D2D2D2D2D2D2D2D2D2D2D2D2D98
:101880002D2D2D2D2D2D2D2D2D2D2D2D2D2D2D2D88
:101890002D2D2D2D2D2D2D2D2D2D2D2D2D2D2D2D78
:1018A0002D2D2D2D2D2D002D2D2D2D2D2D2D2D2D95
:1018B0002D2D2D2D2D2D2D2D2D2D2D2D2D2D2D2D58
:1018C0002D2D2D2D2D2D2D2D2D2D2D2D2D2D2D2D48
:1018D0002D2D2D2D2D2D2D2D2D2D2D2D2D2D2D2D38
:1018E0002D2D2D2D2D2D2D2D2D2D2D002020202089
:1018F00020202020202020202020202020202020E8
:10190000202020204B7574746572637261667420A8
:101910004669726D77617265002D2D2D2D2D2D2D4F
:101920002D2D2D2D2D2D2D2D2D2D2D2D2D2D2D2DE7
:101930002D2D2D2D2D2D2D2D2D2D2D2D2D2D2D2DD7
:101940002D2D2D2D2D2D2D2D2D2D2D2D2D2D2D2DC7
:101950002D2D2D2D2D2D2D2D2D2D2D2D2D00737457
:10196000617274003FFFF860000CC000068038020E
:1019700090FE029BC7829F01C29E00C29F00629F91
:1019800080628000328000328000328000628000FD
:10199000628000C28301C283C78280FE0280380257
:1019A000C0000660000C3FFFF83FFFF87FFFFCFF20
:1019B000FFFEFFC7FEEF01FEE4387EE0FE3EE1FFE2
:1019C0003EE0FF9EE07F9EFFFFCEFFFFCEFFFFCEFB
:1019D000FFFF9EFFFF9EFFFF3EFCFE3EFC387EFFAA
:1019E00001FEFFC7FEFFFFFE7FFFFC3FFFF8566FC3
:1019F0006C766572004D3234004D32332025730011
:101A0000436170613A0063617061206465206361C5
:101A10006D62696F0053656C656363696F6E6172B7
:101A2000006E6F2065737461626C656369646173D5
:101A3000004572726F723A206361706173001FFF1C
:101A4000FFF0300000186000000CC00000068000AD
:101A5000000280EE000280EF000280EF800280EF43
:101A6000C00280EFE00280EFF00280EFF80280EF2A
:101A7000FC0280EFFE0280EFFF0280EFFF8280EF2A
:101A8000FF0280EFFE0280EFFC0280EFF80280EFA1
:101A9000F00280EFE00280EFC00280EF800280EF72
:101AA000000280EE0002C00000066000000C300062
:101AB00000181FFFFFF01FFFFFF03FFFFFF87FFF41
:101AC000FFFCFFFFFFFEFFFFFFFEFF11FFFEFF1009
:101AD000FFFEFF107FFEFF103FFEFF101FFEFF10F6
:101AE0000FFEFF1007FEFF1003FEFF1001FEFF10A8
:101AF00000FEFF10007EFF1000FEFF1001FEFF1031
:101B000003FEFF1007FEFF100FFEFF101FFEFF1069
:101B10003FFEFF107FFEFF10FFFEFF11FFFEFFFFE5
:101B2000FFFE7FFFFFFC3FFFFFF81FFFFFF0436159
:101B30006E63656C61722063616D62696F00436101
:101B40006D62696F20636170613A20001FFFFFF0D2
:101B5000300000186000000CC00200868003018283
:101B60008002828281827C8281827C8287E27C8286
:101B700087E27C8281827C8281827C8280027C827C
:101B800080027C8281827C8281827C8281827C82D2
:101B900081827C8281827C8281827C8281827C8241
:101BA00081827C8287E27C8283C2928281831182DD
:101BB00080021082C00010066000000C3000001887
:101BC0001FFFFFF01FFFFFF03FFFFFF87FFFFFFC4D
:101BD000FFFDFF7EFFFCFE7EFFFD7D7EFE7D837EA2
:101BE000FE7D837EF81D837EF81D837EFE7D837ED1
:101BF000FE7D837EFFFD837EFFFD837EFE7D837EF3
:101C0000FE7D837EFE7D837EFE7D837EFE7D837EE4
:101C1000FE7D837EFE7D837EFE7D837EF81D837E3A
:101C2000FC3D6D7EFE7CEE7EFFFDEF7EFFFFEFFE56
:101C30007FFFFFFC3FFFFFF81FFFFFF041686F725F
:101C400061001FFFFFF0300000186000000CC002B0
:101C50000086800301828002828281827C8283C22C
:101C60007C8287E27C8281827C8281827C8281820A
:101C70007C8281827C8281827C8281827C82818260
:101C80007C8281827C8280027C8280027C828002D3
:101C90007C8280027C8287E27C8287E27C82800276
:101CA00092828003118280021082C00010066000C0
:101CB000000C300000181FFFFFF01FFFFFF03FFF78
:101CC000FFF87FFFFFFCFFFDFF7EFFFCFE7EFFFDB8
:101CD0007D7EFE7D837EFC3D837EF81D837EFE7DC2
:101CE000837EFE7D837EFE7D837EFE7D837EFE7D04
:101CF000837EFE7D837EFE7D837EFE7D837EFFFD73
:101D0000837EFFFD837EFFFD837EFFFD837EF81DC6
:101D1000837EF81D837EFFFD6D7EFFFCEE7EFFFD62
:101D2000EF7EFFFFEFFE7FFFFFFC3FFFFFF81FFF8F
:101D3000FFF0456E20436170613A0043616D626956
:101D400061722066696C616D656E746F00496E69C1
:101D500063696F004D323100526563617267617271
:101D6000205461726A657461205364003FFFF87FFC
:101D7000FFFCFFFFFEFFFFFEFF003EFE2ABEFCAAA7
:101D8000BEF8AABEF8003EF8003EF8103EF8383E15
:101D9000F87C3EF8383EF8383EF8383EF8003EF819
:101DA000003EF8003EF8003EFFFFFE7FFFFC3FFFD5
:101DB000F85461726A657461205364003FFFF87FD4
:101DC000FFFCFFFFFEFFFFFEFF003EFE2ABEFCAA57
:101DD000BEF8AABEF8003EF8003EF8003EF8003E0D
:101DE000F86C3EF88A3EF84A3EF82A3EF8CC3EF8B7
:101DF000003EF8003EF8003EFFFFFE7FFFFC3FFF85
:101E0000F83FFFF860000CC0000680000280FFC2AF
:101E100081D54283554287554287FFC287FFC287DB
:101E2000EFC287C7C28783C287C7C287C7C287C7B7
:101E3000C287FFC287C7C287FFC287FFC2C0000632
:101E400060000C3FFFF83FFFF860000CC000068008
:101E5000000280FFC281D54283554287554287FFE9
:101E6000C287FFC287FFC287FFC28793C28775C23E
:101E700087B5C287D5C28733C287FFC287FFC287B3
:101E8000FFC2C0000660000C3FFFF8416A75737422
:101E9000652064652046696C616D656E746F0054E1
:101EA000656D70657261747572610043616C696221
:101EB000726172004C656420417061676172004C10
:101EC0006564205072656E646572003FFFF86000C3
:101ED0000CC01006803802807C0280FE028038022E
:101EE0008038028438428C00629F83F2BF83FA9F5D
:101EF00083F28C006284384280380280380280FE8F
:101F000002807C02803802C0100660000C3FFFF89F
:101F10004D6F76657220656A6573003FFFF87FFF3D
:101F2000FCFFEFFEFFC7FEFF83FEFF01FEFFC7FEC3
:101F3000FFC7FEFBC7BEF3FF9EE07C0EC07C06E041
:101F40007C0EF3FF9EFBC7BEFFC7FEFFC7FEFF016F
:101F5000FEFF83FEFFC7FEFFEFFE7FFFFC3FFFF8A3
:101F60003FFFF860000CC000068000028000028382
:101F7000FF828600C28501428438428444428482C2
:101F8000428492428482428444428438428501429F
:101F90008600C283FF82800002800002C0000660CB
:101FA000000C3FFFF83FFFF87FFFFCFFFFFEFFFF45
:101FB000FEFFFFFEFC007EF9FF3EFAFEBEFBC7BE41
:101FC000FBBBBEFB7DBEFB6DBEFB7DBEFBBBBEFB9C
:101FD000C7BEFAFEBEF9FF3EFC007EFFFFFEFFFF1C
:101FE000FEFFFFFE7FFFFC3FFFF83FFFF860000CA5
:101FF000C00006800002888F0285108282168285CA
:1020000012828896828012828016828012828016C6
:1020100082802642804F22805FA2804F2280204211
:10202000801F82800002C0000660000C3FFFF84560
:102030006E6672696172003FFFF87FFFFCFFFFFE72
:10204000FFFFFEF770FEFAEF7EFDE97EFAED7EF708
:10205000697EFFED7EFFE97EFFED7EFFE97EFFD921
:10206000BEFFB0DEFFA05EFFB0DEFFDFBEFFE07EA2
:10207000FFFFFEFFFFFE7FFFFC3FFFF83FFFF86022
:10208000000CC00006800002800E02801102802237
:10209000028024428024A280232280402280804229
:1020A0008107828208028410028820028A40028806
:1020B0008002870002800002C0000660000C3FFF23
:1020C000F8416A7573746573003FFFF87FFFFCFF8A
:1020D000FFFEFFFFFEFFF1FEFFEEFEFFDDFEFFDB7A
:1020E000BEFFDB5EFFDCDEFFBFDEFF7FBEFEF87EF5
:1020F000FDF7FEFBEFFEF7DFFEF5BFFEF77FFEF814
:10210000FFFEFFFFFEFFFFFE7FFFFC3FFFF83FFFEC
:10211000F87FFFFCFFFFFEFFFFFEFFFFFEF87E3EA5
:10212000F87C3EF8383EFC107EFE00FEFF01FEFF0C
:1021300083FEFF01FEFE00FEFC107EF8383EF87CB8
:102140003EF8FE3EFFFFFEFFFFFEFFFFFE7FFFFCAF
:102150003FFFF83FFFF860000CC0000680000280DF
:1021600000028781C28783C287C7C283EF8281FF53
:102170000280FE02807C0280FE0281FF0283EF82E9
:1021800087C7C28783C28701C2800002800002C065
:10219000000660000C3FFFF83FFFF87FFFFCFEFFEA
:1021A000FEFD7FFEFEC3FEFFBDFEFFA5FEFFB5FEEA
:1021B000FFA5FEFFB5FEFFA5FEFFB5FEFFA5FEFFD6
:1021C00066FEFEC37EFE817EFEC37EFF7EFEFF8135
:1021D000FEFFFFFEFFFFFE7FFFFC3FFFF83FFFF823
:1021E00060000CC10006828002813C0280420280B5
:1021F0005A02804A02805A02804A02805A02804A69
:1022000002805A02809902813C82817E82813C82D6
:10221000808102807E02800002C0000660000C3FC8
:10222000FFF83FFFF87FFFFCFFFFFEFFFFFEFFFF11
:10223000FEFF83FEFE6CFEFCFE7EFBFCBEF9F83E5C
:10224000F7F1DEF7E3DEF3C79EF7CFDEF7FFDEF947
:10225000FF3EFBFFBEFC007EFFFFFEFFFFFEFFFF19
:10226000FE7FFFFC3FFFF83FFFF860000CC0000658
:10227000800002800002807C0281930283018284BC
:1022800003428607C2880E22881C228C386288305E
:10229000228800228600C284004283FF82800002DE
:1022A000800002C0000660000C3FFFF83FFFF87F8F
:1022B000FFFCFFFFFEFFFFFEFDFFFEF8EFBEF06735
:1022C0003EFDE8BEFDE8BEFDE8BEFFE8BEFFE8BE9D
:1022D000FDE8BEFDE8BEFDE8BEF0653EF8EDBEFDE2
:1022E000FDFEFFFFFEFFFFFEFFFFFE7FFFFC3FFF47
:1022F000F83FFFF860000CC0000680000282000278
:102300008710428F98C282174282174282174280FA
:1023100017428017428217428217428217428F9AD1
:10232000C2871242820202800002800002C00006C0
:1023300060000C3FFFF83FFFF87FFFFCFFFFFEFF50
:10234000FFFEFFFFFEFF1FFEFF0FFEFF07FEFF0366
:10235000FEFF01FEFF00FEFF007EFF00FEFF01FE0C
:10236000FF03FEFF07FEFF0FFEFF1FFEFFFFFEFF46
:10237000FFFEFFFFFE7FFFFC3FFFF83FFFF860001E
:102380000CC0000680000280000280E00280F002A3
:1023900080F80280FC0280FE0280FF0280FF8280C3
:1023A000FF0280FE0280FC0280F80280F00280E0E2
:1023B00002800002800002C0000660000C3FFFF8AF
:1023C0003FFFF87FFFFCFFFFFEFFFFFEFFFFFEF871
:1023D0007C3EF87C3EF87C3EF87C3EF87C3EF87C07
:1023E0003EF87C3EF87C3EF87C3EF87C3EF87C3E35
:1023F000F87C3EF87C3EFFFFFEFFFFFEFFFFFE7F06
:10240000FFFC3FFFF83FFFF860000CC000068000B3
:10241000028000028783C28783C28783C28783C208
:102420008783C28783C28783C28783C28783C28729
:1024300083C28783C28783C28783C28000028000F1
:1024400002C0000660000C3FFFF83FFFF87FFFFC72
:10245000FFFFFEFFFFFEFFFFFEFF83FEFE001EFEEE
:10246000009EFE01DEFE009EFE001EFF83FEFFC7F3
:10247000FEFFEFFEFFFFFEFC007EFFFFFEF0001EF2
:10248000F0001EFFFFFEFFFFFE7FFFFC3FFFF83F57
:10249000FFF860000CC00006800002800002807C13
:1024A0000281FFE281FF6281FE2281FF6281FFE201
:1024B000807C0280380280100280000283FF8280CC
:1024C00000028FFFE28FFFE2800002C00006600082
:1024D0000C3FFFF83FFFF87FFFFCFFFFFEFFFFFE12
:1024E000FFC7FEFF39FEFEFEFEFDFF7EFDD77EFD2F
:1024F000AB7EFDBB7EFDD77EFED6FEFEC6FEFF0197
:10250000FEFF83FEFF83FEFF83FEFFC7FEFFFFFE8D
:10251000FFFFFE7FFFFC3FFFF83FFFF860000CC0AD
:10252000000680000280380280C60281010282001B
:102530008282288282548282448282288281290275
:1025400081390280FE02807C02807C02807C0280D5
:102550003802800002C0000660000C3FFFF83FFF19
:10256000F87FFFFCFFFFFEFFFFFEFFC7FEFF01FE3F
:10257000FE00FEFC007EFC287EFC547EFC447EFCBB
:10258000287EFE28FEFE38FEFF01FEFF83FEFF834D
:10259000FEFF83FEFFC7FEFFFFFEFFFFFE7FFFFC87
:1025A0003FFFF83FFFF860000CC00006800002808B
:1025B000380280FE0281FF0283FF8283D78283ABD1
:1025C0008283BB8283D78281D70281C70280FE02C9
:1025D000807C02807C02807C02803802800002C005
:1025E000000660000C3FFFF83FFFF87FFFFCFFFF95
:1025F000FEFFFFFEFFCC7EFFB57EFF497EFEB57E6F
:10260000FD7A7EFAFD7EF5FEBEF3FF3EFBFF7EFB0C
:10261000877EFBB77EFBB77EFBB77EFBB77EF800FD
:102620007EFFFFFEFFFFFE7FFFFC3FFFF83FFFF84E
:1026300060000CC00006800002803382804A8280E5
:10264000B682814A828285828502828A01428C001A
:10265000C28400828478828448828448828448824A
:1026600084488287FF82800002C0000660000C3F21
:10267000FFF820496E76616C696420657874727524
:10268000646572004D00736F66745F656E64737489
:102690006F705F6D6178203D2000736F66745F65B9
:1026A0006E6473746F705F6D696E203D2000706F93
:1026B000736974696F6E5F7368696674203D20008A
:1026C000686F6D655F6F6666736574203D200020DE
:1026D000617869733A00466F72200000005243002F
:1026E00000524300004843000000000000000000CA
:1026F000000000203A2073796E635F706C616E5F3A
:10270000706F736974696F6E0A0063757272656EBB
:10271000745F706F736974696F6E3D00203A206357
:102720006C65616E5F75705F61667465725F656E22
:102730006473746F705F6F725F70726F62655F6DEC
:102740006F76650A0063757272656E745F706F7381
:102750006974696F6E3D003E3E3E20646F5F626C3F
:102760006F636B696E675F6D6F76655F746F006432
:1027700065706C6F793A2000203A207365745F7041
:10278000726F62655F6465706C6F7965640A00637F
:10279000757272656E745F706F736974696F6E3D88
:1027A00000203A203C3C3C20646F5F70726F626591
:1027B0005F6D6F76650A0063757272656E745F7027
:1027C0006F736974696F6E3D00203A203E3E3E2073
:1027D000646F5F70726F62655F6D6F76650A00632C
:1027E000757272656E745F706F736974696F6E3D38
:1027F000002042403A0020403A00202F0020423A78
:1028000000202F0020543A00203A20736574757020
:102810005F666F725F656E6473746F705F6F725F17
:1028200070726F62655F6D6F76650A0063757272B4
:10283000656E745F706F736974696F6E3D002066BA
:10284000697273740059005800486F6D652000204C
:1028500066697273740059005800486F6D652000F6
:102860003C3C3C2067636F64655F47323800203A28
:10287000204D424C20486F6D652058206F722059C2
:102880000A0063757272656E745F706F7369746944
:102890006F6E3D00203A204D424C205265737420EB
:1028A0004F726967696E0A0063757272656E745F54
:1028B000706F736974696F6E3D004D424C205A20F1
:1028C000686F6D696E67004D424C20686173206DC2
:1028D00065736800203A2028686F6D655F616C6CD5
:1028E0005F61786973207C7C20686F6D655A292050
:1028F0003E2066696E616C0A0063757272656E7463
:102900005F706F736974696F6E3D003C3C3C205A88
:102910005F534146455F484F4D494E4700736F6EC8
:102920006461205A20667565726100736F6E646120
:10293000205A20667565726100203A205A5F534123
:1029400046455F484F4D494E47203E20686F6D65B4
:102950005F616C6C5F617869730A006465737469A8
:102960006E6174696F6E3D00203A205A5F53414694
:10297000455F484F4D494E47203E20686F6D655F6B
:10298000616C6C5F617869730A0063757272656E61
:10299000745F706F736974696F6E3D003E205A5F9B
:1029A000534146455F484F4D494E47203E3E3E000D
:1029B000203A20686F6D65590A0063757272656E02
:1029C000745F706F736974696F6E3D00203A2068A0
:1029D0006F6D65580A0063757272656E745F706F13
:1029E000736974696F6E3D005261697365205A2086
:1029F000286265666F726520686F6D696E67292051
:102A0000746F20003E20656E6473746F70732E6562
:102A10006E61626C6528747275652900203A2053D6
:102A20006574205A20746F207072655F686F6D65E1
:102A30005F7A0A0063757272656E745F706F736996
:102A400074696F6E3D004D424C2077617320616365
:102A500074697665003E3E3E2067636F64655F473C
:102A6000323800546172656120303200506F72203C
:102A70006661766F7220657370657265005265617C
:102A80006C697A616E646F20486F6D652E2E2E0022
:102A9000546172656120303000473238004D6F76E6
:102AA0006572205A004D3530300043616C696272A6
:102AB00061722043616D6100416A757374657320B2
:102AC00064652063616D6100566F6C7665720050BD
:102AD000726564657465726D696E61646F004D3115
:102AE000313720456E667269616E646F004D38340F
:102AF0000A204D313137204D6F746F722041706163
:102B00006761646F0056656C6F6369646164006C33
:102B1000612076656C6F63696461640053656C6500
:102B20006363696F6E650076616C6F7220696E69B0
:102B30006369616C00426F7175696C6C61006C61F6
:102B40002074656D70657261747572610053656C97
:102B5000656363696F6E650043616D612063616CDD
:102B600069656E7465006C612074656D7065726175
:102B7000747572610053656C656363696F6E65009F
:102B80004D333133004D3131370046616E2064657D
:102B90002063617061006C612076656C6F636964AD
:102BA00061640053656C656363696F6E65003FFF28
:102BB000F87FFFFCFFFFFEFFBBFEFE38FEFC387E09
:102BC000F8383EF0381EF07C1EE0C60EFF83FEFF94
:102BD00083FEFF83FEE0C60EF07C1EF0381EF83840
:102BE0003EFC387EFE38FEFFBBFEFFFFFE7FFFFC93
:102BF0003FFFF83FFFF860000CC0000680440281F0
:102C0000C70283C78287C7C28FC7E28F83E29F391B
:102C1000F2807C02807C02807C029F39F28F83E20A
:102C20008FC7E287C7C283C78281C702804402C0C0
:102C3000000660000C3FFFF83FFFF87FFFFCFFFF3E
:102C4000FEFFFFFEFFFFFEFFFFFEFFFFFEFDEF7E2C
:102C5000FEF7BEFEF7BEFDEF7EFBDEFEF7BDFEF724
:102C6000BDFEFBDEFEFDEF7EFFFFFEF0001EF0006E
:102C70001EFFFFFEFFFFFE7FFFFC3FFFF83FFFF858
:102C800060000CC00006800002800002800002800C
:102C900000028210828108428108428210828421CF
:102CA000028842028842028421028210828000024D
:102CB0008FFFE28FFFE2800002C0000660000C3F41
:102CC000FFF854656D706572617475726100506FC4
:102CD00072206661766F7220657370657265004759
:102CE00039310A47312045313520463135300A47E0
:102CF00039300A4739310A473120452D31303020EB
:102D0000463330300A4739300A4D383400473931BC
:102D10000A4731204531303020463135300A4739B5
:102D2000300A4D3834004D35303000436F6E7469D1
:102D30006E7561720043616E63656C617200436F12
:102D40006E206C6120696D70726573696F6E0044EE
:102D50006573656120636F6E74696E75617200439F
:102D60006F727465206465206C757A2100456E630E
:102D70006F6465722020202020202020205B495A8B
:102D8000515D00477561726461646F2020202020CE
:102D90002020205B4F66665D004775617264616448
:102DA0006F2020202020202020205B4F6E5D0049D6
:102DB0006E666F726D6163696F6E2020205B436188
:102DC0007061735D00416A7573746172205049448B
:102DD00000496E666F726D6163696F6E2020205BC3
:102DE000436F6F72645D004175746F6C6576656CDE
:102DF000202020202020205B4F66665D00417574F6
:102E00006F6C6576656C20202020202020205B4F91
:102E10006E5D004964696F6D6120202020202020B4
:102E2000202020205B45535D0056657273696F6EEC
:102E300000456E636F6465722020202020202020D2
:102E4000205B4445525D00566F6C766572202020F1
:102E5000202020202020202020202004001FFFFFF1
:102E6000F0300000186000000CC00000068007C0B1
:102E700002801FFF02801FFB02801FF102801FFBE8
:102E800002801FFF028007C00280038002800100D1
:102E9000028150148281583482816FED8281B01B8F
:102EA0000280DFF60280600C02803FF802800000A2
:102EB0000283FFFF828000000287FFFFC287FFFFBF
:102EC000C280000002C00000066000000C3000005C
:102ED000181FFFFFF01FFFFFF03FFFFFF87FFFFF0E
:102EE000FCFFFFFFFEFFF83FFEFFE000FEFFE004F7
:102EF000FEFFE00EFEFFE004FEFFE000FEFFF83FF5
:102F0000FEFFFC7FFEFFFEFFFEFEAFEB7EFEA7CBCB
:102F10007EFE90127EFE4FE4FEFF2009FEFF9FF32F
:102F2000FEFFC007FEFFFFFFFEFC00007EFFFFFF6D
:102F3000FEF800003EF800003EFFFFFFFEFFFFFF2F
:102F4000FE7FFFFFFC3FFFFFF81FFFFFF04175749E
:102F50006F6D617469636F004D616E75616C0041E6
:102F60006A75737465732064652063616D610043E5
:102F7000616C6962726172204F6666736574001FCE
:102F8000FFFFF0300000186000000CC00038068021
:102F900001A0028003B0028003A0028003B002807F
:102FA00003A0028003B0028003A0028000380280E8
:102FB00003A0028003B002800020028003B00280E0
:102FC00001200280013002800120028003B80280CB
:102FD00000000283FFFF828000000287FFFFC2879C
:102FE000FFFFC280000002C00000066000000C303D
:102FF0000000181FFFFFF01FFFFFF03FFFFFF87FEB
:10300000FFFFFCFFFFC7FEFFFE5FFEFFFC4FFEFF62
:10301000FC5FFEFFFC4FFEFFFC5FFEFFFC4FFEFF70
:10302000FC5FFEFFFFC7FEFFFC5FFEFFFC4FFEFFE5
:10303000FFDFFEFFFC4FFEFFFEDFFEFFFECFFEFFC9
:10304000FEDFFEFFFC47FEFFFFFFFEFC00007EFFF1
:10305000FFFFFEF800003EF800003EFFFFFFFEFF0E
:10306000FFFFFE7FFFFFFC3FFFFFF81FFFFFF04168
:103070006A7573746172204F6666736574004D657E
:103080006E75204F66667365740043616C69627289
:1030900061722043616D61001FFFFFF03000001876
:1030A0006000000CC00000068001800280038002E6
:1030B00080038002800380028003800280038002FC
:1030C000800380028000000280038002815394828A
:1030D00081583482816FED8281B01B0280DFF6025D
:1030E00080600C02803FF8028000000283FFFF82B4
:1030F0008000000287FFFFC287FFFFC2800000023E
:10310000C00000066000000C300000181FFFFFF038
:103110001FFFFFF03FFFFFF87FFFFFFCFFFFFFFEF9
:10312000FFFE7FFEFFFC7FFEFFFC7FFEFFFC7FFEBD
:10313000FFFC7FFEFFFC7FFEFFFC7FFEFFFFFFFE2C
:10314000FFFC7FFEFEAC6B7EFEA7CB7EFE90127E68
:10315000FE4FE4FEFF2009FEFF9FF3FEFFC007FEC7
:10316000FFFFFFFEFC00007EFFFFFFFEF800003EB9
:10317000F800003EFFFFFFFEFFFFFFFE7FFFFFFCAA
:103180003FFFFFF81FFFFFF0416A75737461722003
:103190004F66667365740043616C69627261722088
:1031A0007C204F6666736574001FFFFFF0300000DF
:1031B000186000000CC000000680000002800000C3
:1031C000028040000280E03E0281F03E0283F83E31
:1031D0000287FC220281F03E0281F03E0281B03E75
:1031E000028110FF8281B07F0281F03E0281F01CDB
:1031F0000280000802800000028000000283FFFFBE
:10320000828000000287FFFFC287FFFFC2800000AC
:1032100002C00000066000000C300000181FFFFF15
:10322000F01FFFFFF03FFFFFF87FFFFFFCFFFFFFF6
:10323000FEFFFFFFFEFFFFFFFEFFBFFFFEFF1FC100
:10324000FEFE0FC1FEFC07C1FEF803DDFEFE0FC14E
:10325000FEFE0FC1FEFE4FC1FEFEEF007EFE4F8060
:10326000FEFE0FC1FEFE0FE3FEFFFFF7FEFFFFFFB6
:10327000FEFFFFFFFEFC00007EFFFFFFFEF80000E8
:103280003EF800003EFFFFFFFEFFFFFFFE7FFFFF57
:10329000FC3FFFFFF81FFFFFF04D617061204465A8
:1032A0002043616D61001FFFFFF0300000186000D7
:1032B000000CC000000680000002803E0002803E3C
:1032C0000002807F000281FFFF8281FFFF8281FF79
:1032D000F38281FFE18281FFE18281FFF38281FF3E
:1032E000FF8281FFFF82807F0002803E0002801CFF
:1032F0000002800800028000000283FFFF8280003D
:10330000000287FFFFC287FFFFC280000002C000EB
:1033100000066000000C300000181FFFFFF01FFFC8
:10332000FFF03FFFFFF87FFFFFFCFFFFFFFEFFFF07
:10333000FFFEFFC1FFFEFFC1FFFEFF80FFFEFE009C
:10334000007EFE00007EFE000C7EFE001E7EFE0063
:103350001E7EFE000C7EFE00007EFE00007EFF80D2
:10336000FFFEFFC1FFFEFFE3FFFEFFF7FFFEFFFFD3
:10337000FFFEFC00007EFFFFFFFEF800003EF800AD
:10338000003EFFFFFFFEFFFFFFFE7FFFFFFC3FFF52
:10339000FFF81FFFFFF043616C69627261722043A6
:1033A000616D6100416A75737465732064652063A3
:1033B000616D610000446F6E6520736176696E67B0
:1033C0002066696C652E006572726F722077726973
:1033D00074696E6720746F2066696C6500203A20FE
:1033E0003C3C3C2072756E5F7A5F70726F62650A5A
:1033F0000063757272656E745F706F736974696F64
:103400006E3D000000A0400000A0400000004020F1
:103410003A203E3E3E2072756E5F7A5F70726F6238
:10342000650A0063757272656E745F706F7369749C
:10343000696F6E3D003C3C3C2070726F62655F704E
:1034400074003E20003E200029002C20003E206415
:103450006F5F626C6F636B696E675F6D6F76655FE0
:10346000746F5F78792800203A200A0063757272C1
:10347000656E745F706F736974696F6E3D002900CB
:103480002C20002C20003E3E3E2070726F62655F53
:10349000707428006F70656E206661696C65642CBD
:1034A0002046696C653A200057726974696E67201E
:1034B000746F2066696C653A200043616E6E6F74AC
:1034C00020656E746572207375626469723A2000BB
:1034D0002900646F5F70726F62655F726169736506
:1034E0002800496E666F3A006F70656E20666169EC
:1034F0006C65642C2046696C653A200046696C65F1
:103500002073656C6563746564002053697A653A5D
:10351000200046696C65206F70656E65643A200016
:103520004D353030005354415254205052494E547E
:1035300045523A002200656E7175657565696E6762
:1035400020220053442063617264206F6B00534457
:1035500020696E6974206661696C004572726F72D1
:103560003A006F6B00205A3A0020593A0020436F0E
:10357000756E7420583A0020453A00205A3A0020CF
:10358000593A00583A00636F6C642065787472751C
:1035900073696F6E2070726576656E746564005332
:1035A0006520657374612067757264616E646F2055
:1035B000656C206172636869766F005041524144C6
:1035C0004120444520454D4552472E00504152412F
:1035D000444120444520454D4552472E00706175B9
:1035E00073656420666F7220696E70757400706117
:1035F0007573656420666F722075736572007072F2
:103600006F63657373696E6700627573793A005012
:103610006C65617365207265736574005052494E24
:103620005445522048414C544544005072696E74D0
:1036300065722068616C7465642E206B696C6C28FF
:10364000292063616C6C6564210029003C3C3C20AE
:103650007365745F617869735F69735F61745F68D4
:103660006F6D652800203A200A0063757272656EDE
:10367000745F706F736974696F6E3D005D203D20EB
:1036800000686F6D655F6F66667365745B007A7066
:10369000726F62655F7A6F6666736574203D2000A5
:1036A00000000000000000000000000029003E3E75
:1036B0003E207365745F617869735F69735F6174DD
:1036C0005F686F6D6528005761726E696E673A209A
:1036D000486F6D696E672042756D70204469766928
:1036E000736F72203C20310029003C3C3C20686F05
:1036F0006D656178697328003E2000203A204146BC
:10370000544552207365745F617869735F69735FB4
:1037100061745F686F6D650A0063757272656E74BF
:103720005F706F736974696F6E3D003E20326E6426
:1037300020486F6D6520003E2031737420486F6D06
:103740006520000000524300005243000048433E01
:103750002000FFFFFF29003E3E3E20686F6D65613F
:103760007869732800C0159100B0178C00B01987D4
:1037700000D01B8200001E7D004020780090227344
:1037800000F0246E004027690090296400B02A5F91
:1037900000D02B5A00F02C5500102E500020304B3A
:1037A0000010324600E033410090353C00103737BE
:1037B0000070383200A0392D00B03A2800A03B2319
:1037C00000603C1E00103D1900903D1400103E0F9B
:1037D00000703E0A00C03E0500003F00004D494E0B
:1037E00054454D50204552524F52004D494E54457C
:1037F0004D5020747269676765726564004D494E6B
:1038000054454D5020424544204552524F5200FFEE
:10381000E0FFD1AFFF32FFD0FFFEFFE0FFD1AEFFF0
:10382000D0FFFEFFE0FFD11000FFFEFFD0FFE0FF62
:10383000C1FFD1AED580A83FD300408D142000A198
:10384000C8DA1281CFD9F1DB402EA4A6AFFFD0FF9A
:10385000FE4D3338202573004D3234004D32332075
:10386000257300022E2E00566F6C76657220202084
:1038700020202020202020202020200400436172CE
:103880006761722066696C616D656E746F00526568
:10389000616E7564617220696D70726573696F6EB7
:1038A000005061736F207369677569656E74650098
:1038B000646574656E676100696D707265736F72BF
:1038C00061207365004573706572652061207175B4
:1038D00065206C610043414D424941522046494CAC
:1038E000414D454E544F00004C696D7069616E64E6
:1038F0006F20626F7175696C6C61004573706572E1
:1039000061720043414D424941522046494C414D6C
:10391000454E544F0066696C616D656E746F007939
:103920002072657469726520656C005072657369F8
:103930006F6E6520656C20626F746F6E0043414D41
:10394000424941522046494C414D454E544F00009A
:103950005265746972616E646F2066696C616D6531
:103960006E746F00457370657261720043414D4221
:103970004941522046494C414D454E544F00004369
:10398000617267616E646F2066696C616D656E74EB
:103990006F00457370657261720043414D42494149
:1039A000522046494C414D454E544F004D36303023
:1039B00000494E4455535452494120415247454EC7
:1039C0005449007777772E6B7574746572637261F2
:1039D00066742E636F6D00504B32005620332E36C6
:1039E0002E3000204D6F64656C6F3A00566572731F
:1039F000696F6E3A003838000000000000000000D7
:103A0000387000000000000000000038E22FBEFB0C
:103A1000C21CF08FBE0039C22208822522894808C4
:103A2000003BF222088228A08A2808003F82220850
:103A3000F3C8A0F22F08003BF22208828FA0A3E86F
:103A4000080039C222088248A29228080038E1C240
:103A500008FE289C8A28080038700000000000003A
:103A6000000000383BFFFFFFFFFFFFFFFF8000006B
:103A7000000000000000000000FFFFFFFFFFFFFF4D
:103A8000FFFFFE004D6F766572205A00566F6C7610
:103A90006572003031001FFFFE300002600002C07E
:103AA000000280000280000280000280000280008C
:103AB000028000028000028000028000028000027A
:103AC000FFFFFE506F736963696F6E203031003005
:103AD00031001FFFFE3FFFFE7FFFFEFFFFFEFFFFE7
:103AE000FEFFFFFEFFFFFEFFFFFEFFFFFEFFFFFEEC
:103AF000FFFFFEFFFFFEFFFFFEFFFFFEFFFFFE30AA
:103B00003200506F736963696F6E2030320030325B
:103B100000303300FFFFFE800002800002800002C0
:103B2000800002800002800002800002800002808B
:103B30000002800002C000026000023000021FFF8D
:103B4000FE506F736963696F6E203033003033004D
:103B5000FFFFFEFFFFFEFFFFFEFFFFFEFFFFFEFF7A
:103B6000FFFEFFFFFEFFFFFEFFFFFEFFFFFEFFFF6A
:103B7000FEFFFFFE7FFFFE3FFFFE1FFFFE30340013
:103B8000506F736963696F6E2030340030340030D9
:103B90003500506F736963696F6E203035003035C2
:103BA00000303600506F736963696F6E20303600E5
:103BB000303600303700FFFFF080001880000C80A6
:103BC0000006800002800002800002800002800067
:103BD0000280000280000280000280000280000259
:103BE000FFFFFE506F736963696F6E2030370030DE
:103BF0003700FFFFF0FFFFF8FFFFFCFFFFFEFFFFB6
:103C0000FEFFFFFEFFFFFEFFFFFEFFFFFEFFFFFECA
:103C1000FFFFFEFFFFFEFFFFFEFFFFFEFFFFFE3088
:103C20003800FFFFFE80000280000280000280005A
:103C300002800002800002800002800002800002F8
:103C4000800002800002800002800002FFFFFE5020
:103C50006F736963696F6E20303800303800FFFF82
:103C6000FEFFFFFEFFFFFEFFFFFEFFFFFEFFFFFE6A
:103C7000FFFFFEFFFFFEFFFFFEFFFFFEFFFFFEFF59
:103C8000FFFEFFFFFEFFFFFEFFFFFE303900FFFFDC
:103C9000FE8000028000028000028000028000029C
:103CA000800002800002800002800002800002800A
:103CB000000680000C800018FFFFF0506F736963EE
:103CC000696F6E20303900303900FFFFFEFFFFFEC4
:103CD000FFFFFEFFFFFEFFFFFEFFFFFEFFFFFEFFF9
:103CE000FFFEFFFFFEFFFFFEFFFFFEFFFFFEFFFFE9
:103CF000FCFFFFF8FFFFF001060A00FE0701360295
:103D00006820FFFE08FE07FE0A0060221767808019
:103D10008080800080163363A0A0A00257675050B7
:103D2000F850F850500257672070A0702870200299
:103D3000576748A8502050A89002576740A0A0405D
:103D4000A8906826136380808012376720408080A7
:103D50008040201237678040202020408003556536
:103D60008850F850880355652020F82020113363CF
:103D7000604080055161F811336340E040025767AD
:103D8000080810204080800257672050888888509B
:103D9000200257672060A0202020F8025767708813
:103DA00008304080F8025767F80810300888700221
:103DB000576710305090F81010025767F880B0C85D
:103DC000088870025767304080B0C8887002576713
:103DD000F808101020404002576770888870888863
:103DE000700257677088986808106011376740E064
:103DF000400040E04011376740E0400060408012E2
:103E0000476710204080402010045363F800F812E8
:103E1000476780402010204080025767708810203C
:103E2000200020025767708898A8B08070025767FA
:103E300020508888F88888025767F04848704848BA
:103E4000F002576770888080808870025767F0485A
:103E500048484848F0025767F88080F08080F802B0
:103E60005767F88080F08080800257677088808074
:103E7000988870025767888888F88888881237671A
:103E8000E04040404040E00257673810101010906A
:103E9000600257678890A0C0A09088025767808012
:103EA00080808080F80257678888D8A88888880230
:103EB00057678888C8A89888880257677088888854
:103EC000888870025767F08888F080808001586881
:103ED0007088888888A87008025767F08888F0A0E2
:103EE000908802576770888070088870025767F85A
:103EF00020202020202002576788888888888870A2
:103F000002576788888850505020025767888888F1
:103F1000A8A8D888025767888850205088880257F8
:103F20006788885020202020025767F8081020401A
:103F300080F8123767E08080808080E002576780D9
:103F4000804020100808123767E02020202020E061
:103F5000065363205088015161F828226280400294
:103F6000556570087888780257678080B0C888C81F
:103F7000B002556570888088700257670808689895
:103F80008898680255657088F880700257673048D5
:103F900040F0404040005767788888780888700271
:103FA00057678080B0C88888881237674000C04053
:103FB0004040E010496910003010101090906002ED
:103FC000576780808890E09088123767C0404040F3
:103FD0004040E0025565D0A8A8A888025565B0C841
:103FE0008888880255657088888870005767B0C8CF
:103FF00088C8B08080005767689888986808080269
:104000005565B0C880808002556570807008F002E8
:1040100057674040F040404830025565888888988E
:104020006802556588885050200255658888A8A880
:1040300050025565885020508800576788889868D6
:10404000088870025565F8102040F8124767304024
:1040500020C02040302217678080808080808012BE
:104060004767C02040304020C006536348A890FFF7
:10407000FFFFFFFFFFFFFFFFFFFFFFFFFFFFFFFF50
:10408000FFFFFFFFFFFFFFFFFFFFFFFFFFFFFFFF40
:104090000A00602217678000808080808001576757
:1040A0002078A0A0A07820025767304840E0404820
:1040B000B002556588705070880158688888502013
:1040C000F82020202217678080800080808001589F
:1040D000687080E09048380870193161A002576715
:1040E0007088A8C8A888701346667090B05000F019
:1040F0000265652448904824144262F0101541611D
:10410000F00257677088E8C8C88870095161F816CE
:10411000336340A0400256662020F82020F8154561
:104120006560902040F0154565E0106010E02822A1
:10413000624080015666888888C8B08002576778D8
:10414000E8E868282828251161802022624080152F
:10415000356540C04040E01346666090906000F0D6
:10416000026565904824489001696940C04040E478
:104170000C143C0401696940C04040E81404081C68
:10418000015969C0204020C81828780802576720C4
:104190000020204088700258684020708888F88885
:1041A000880258681020708888F88888025868202B
:1041B00050708888F8888802586848B0708888F8F5
:1041C00088880258685000708888F8888802586883
:1041D0002050708888F888880267673C50909CF06F
:1041E000909C0059697088808080887020400258B7
:1041F0006840F88080F08080F802586810F880806D
:10420000F08080F802586820F88080F08080F80202
:10421000586850F88080F08080F81238688040E05C
:1042200040404040E01238682040E040404040E0DC
:1042300012386840A0E040404040E0123868A000DA
:10424000E040404040E0025767F04848E84848F006
:10425000025868285088C8A8988888025868402062
:1042600070888888887002586810207088888888CC
:1042700070025868205070888888887002586828B2
:1042800050708888888870025868500070888888C4
:10429000887002556588502050880257677098983A
:1042A000A8C8C8700258684020888888888870022A
:1042B00058681020888888888870025868205000C4
:1042C0008888888870025868500088888888887034
:1042D000025868102088885020202002576780F0FC
:1042E00088F0808080025767708890A09088B00224
:1042F00058684020007008788878025868102000BC
:10430000700878887802586820500070087888789B
:104310000258682850007008788878025767500063
:10432000700878887802586820502070087888785B
:1043300002656578147C907C00576770888088706F
:1043400020400258684020007088F8807002586849
:104350001020007088F88070025868205000708823
:10436000F8807002576750007088F88070123868C3
:10437000804000C0404040E0123868408000C040AB
:104380004040E012386840A000C0404040E0123792
:1043900067A000C0404040E0025767C03070888886
:1043A0008870025868285000B0C888888802586809
:1043B000402000708888887002586810200070883B
:1043C0008888700258682050007088888870025869
:1043D000682850007088888870025767500070887D
:1043E0008888700355652000F8002002556578988C
:1043F000A8C8F00258684020008888889868025849
:1044000068102000888888986802586820500088C2
:10441000888898680257675000888888986800598B
:104420006910208888986808887000586880F0882B
:104430008888F080800059695000888898680888CA
:104440007001050800FF060121023520FFFF07FF6C
:1044500006FF0900502216568080808000801533A8
:1044600053A0A0A00257575050F850F85050025790
:10447000572070A07028702013355580A040A020D0
:1044800002475740A0A040A0A05025135380808031
:104490001226564080808080401226568040404040
:1044A00040800245559060F060900255552020F8FC
:1044B0002020113353604080044151F011335340A8
:1044C000E04002465610102040808012365640A030
:1044D000A0A0A04012365640C0404040E0024656E0
:1044E0006090106080F0024656F0206010906002EC
:1044F00046562060A0F02020024656F080E0109042
:10450000600246566080E0909060024656F01020AF
:10451000204040024656609060909060024656608F
:104520009090701060122555C0C000C0C011365662
:10453000606000604080123656204080804020033A
:104540004353F000F012365680402020408012364F
:104550005640A020400040015858304898A8A890E4
:104560004030024656609090F09090024656E0909F
:10457000E09090E00246566090808090600246563F
:10458000E090909090E0024656F080E08080F0024B
:104590004656F080E0808080024656609080B09061
:1045A000600246569090F0909090123656E040404F
:1045B0004040E002465670202020A040024656901F
:1045C000A0C0A0A0900246568080808080F0024665
:1045D0005690F0F090909002465690D0F0B0B09087
:1045E000024656609090909060024656E09090E0AF
:1045F0008080014757609090D0B06010024656E02E
:104600009090E09090024656609040209060123664
:1046100056E0404040404002465690909090906056
:10462000024656909090906060024656909090F0AE
:10463000F09002465690906060909002565688889E
:1046400050202020024656F010204080F0123656AE
:10465000E080808080E0024656808040201010126A
:104660003656E020202020E016325240A001415171
:10467000F0162252804002445470909070024656C8
:104680008080E09090E01234546080806002465652
:1046900010107090907002445460B0C06002465692
:1046A000205040E040400145556090701060024647
:1046B000568080E09090901236564000C04040E016
:1046C0001137572000202020A040024656808090BD
:1046D000E09090123656C040404040E0025454D022
:1046E000A8A8A8024454E09090900244546090908E
:1046F00060014555E090E080800145557090701054
:1047000010024454A0D0808012345460C020C002F3
:1047100046564040E0405020024454909090701221
:104720003454A0A0A04002545488A8A85002445475
:10473000906060900145559090709060024454F0F4
:104740002040F0024757304020C02040302216560B
:10475000808080808080024757C02040304020C049
:1047600006425250A0FFFFFFFFFFFFFFFFFFFFFFCA
:10477000FFFFFFFFFFFFFFFFFFFFFFFFFFFFFFFF49
:10478000FFFFFFFFFFFF09005022165680008080C8
:1047900080800146562070A0A0702002465620500E
:1047A000E04050A0025555887050708802565688D7
:1047B00050F820F8202217578080800080808002E7
:1047C00047577080E0907010E0173151A0025656A4
:1047D00070A8C8C8A87014355560A06000E00343F5
:1047E0005350A050123353E02020143151E00256B0
:1047F0005670E8D8E8D870173151E015335340A00F
:104800004012355540E04000E014355540A02040AE
:10481000E0143555C020C020C0162252408001450A
:1048200055909090E08002565678E8E86828282451
:10483000115180112252408014355540C04040E053
:1048400014355540A04000E0034353A050A0024758
:1048500057808080A060F0200247578080A0D01051
:10486000207002475780408060A0F02012365640EA
:10487000004080A04002475740206090F090900296
:10488000475720406090F0909002475760906090AA
:10489000F0909002475750A06090F09090024757D8
:1048A00090006090F0909002475760906090F09078
:1048B0009002465670A0A0F0A0B0014757609080CB
:1048C000809060400247574020F080E080F002472F
:1048D000572040F080E080F00247576090F080E081
:1048E00080F00247579000F080E080F01237578048
:1048F00040E0404040E01237572040E0404040E078
:1049000012375740A0E0404040E0123757A000E087
:10491000404040E00256567048E848487002475709
:1049200050A090D0B0909002475740206090909057
:104930006002475720406090909060024757609017
:10494000609090906002475750A0609090906002F5
:10495000475790006090909060123353A040A0029F
:10496000465670B0B0D0D0E00247574020909090AB
:1049700090600247572040909090906002475760A7
:104980009090909090600247579000909090906027
:104990000257571020885020202002465680E09071
:1049A00090E0800246566090A0A090A00247574039
:1049B00020007090907002475720400070909070D7
:1049C0000247572050007090907002475750A00047
:1049D0007090907002465650007090907002475749
:1049E00060906070909070025454F068B078113507
:1049F00055608080604002475740200060B0C06032
:104A000002475720400060B0C060024757609000E6
:104A100060B0C060024656500060B0C060123757A8
:104A2000804000C04040E0123757204000C0404066
:104A3000E012375740A000C04040E0123656A000B8
:104A4000C04040E0024757A040A01070906002476D
:104A50005750A000E090909002475740200060908F
:104A60009060024757204000609090600247576076
:104A700090006090906002475750A0006090906056
:104A80000246569000609090601235554000E0005C
:104A90004002445470B0D0E002475740200090904C
:104AA00090700247572040009090907002475760E6
:104AB00090009090907002465690009090907001F7
:104AC000485820400090907090600147578080E0E7
:104AD00090E0808001475790009090709060416A0C
:104AE000757374652064652046696C616D656E74CC
:104AF0006F0043616C63756C616E646F2E2E2E00C7
:104B000050756564652074617264617220756E6FA2
:104B100073206D696E75746F7300416A757374618B
:104B20006E646F205049440043616C656E74616E21
:104B3000646F2E2E2E00506F72206661766F722089
:104B4000657370657265003FFFF87FFFFCFFFFFE35
:104B5000FFFFFEFFFFFEFFFFFEFFFFFEFFFFFEE683
:104B6000DE6EE6DE6EEADEAEEADEAEEADEAEECDE9B
:104B7000CEECC2CEFFFFFEFFFFFEFFFFFEFFFFFEFB
:104B8000FFFFFEFFFFFE7FFFFC3FFFF83FFFF860E7
:104B9000000CC0000680000280000280000280003D
:104BA00002800002992192992192952152952152D9
:104BB000952152932132933D328000028000028081
:104BC0000002800002800002C0000660000C3FFF6F
:104BD000F83FFFF87FFFFCFFFFFEFFFFFEFFFFFE39
:104BE000FFFFFEFFFFFEFFFFFEC2F176DEF776DE7F
:104BF000F7AEC6F1DEDEF7AEDEF776DE1176FFFF4A
:104C0000FEFFFFFEFFFFFEFFFFFEFFFFFEFFFFFEBA
:104C10007FFFFC3FFFF83FFFF860000CC0000680FC
:104C20000002800002800002800002800002BD0EAF
:104C30008AA1088AA10852B90E22A10852A1088AA5
:104C4000A1EE8A80000280000280000280000280C3
:104C50000002C0000660000C3FFFF83FFFF87FFF36
:104C6000FCFFFFFEFFFFFEFFFFFEFFFFFEFFFFFE5C
:104C7000FFFFFEF38F1EEDB6FEEDB6FEE18F3EEDBB
:104C8000B7DEEDB7DEED8E3EFFFFFEFFFFFEFFFF5E
:104C9000FEFFFFFEFFFFFEFFFFFE7FFFFC3FFFF872
:104CA0003FFFF860000CC000068000028000028018
:104CB00000028000028000028C70E2924902924958
:104CC000029E70C29248229248229271C2800002D3
:104CD000800002800002800002800002C0000660A6
:104CE000000C3FFFF83FFFF87FFFFCFFFFFEFFFFD8
:104CF000FEFFFFFEFFFFFEFFFFFEFFFFFEE3BF3EE6
:104D0000EDBEDEEDBEDEE3BE1EEFBEDEEFBEDEEFCD
:104D100086DEFFFFFEFFFFFEFFFFFEFFFFFEFFFF41
:104D2000FEFFFFFE7FFFFC3FFFF83FFFF860000C37
:104D3000C000068000028000028000028000028025
:104D400000029C40C29241229241229C41E2904149
:104D5000229041229079228000028000028000028D
:104D6000800002800002C0000660000C3FFFF85087
:104D7000726564657465726D696E61646F00457813
:104D8000747275736F723A006C612074656D706532
:104D90007261747572610053656C656363696F6EEF
:104DA0006500436F6E74696E756172004731205AF9
:104DB000313520463430300A473238205A0A4731DC
:104DC000205A30004731205A31300A4732380A4DD4
:104DD000383400506F736963696F6E2034206465E6
:104DE0002034004731205A31300A473120583137BA
:104DF00030205934302046323030300A47323820A3
:104E00005A0A4731205A3000506F736963696F6ED8
:104E100020332064652034004731205A31300A475E
:104E2000312058343020593235302046323030303D
:104E30000A473238205A0A4731205A30001FFFFFF4
:104E4000F03FFFFFF87FFFFFFCFFFFFFFEFFF83F93
:104E5000FEFFE00FFEFF8003FEF70381FEF20FE08E
:104E6000FEF01FF07EF03FF87EF07FFC3EF03FFE4C
:104E70003EF01FFE1EFFFFFF1EFFFFFF1EFFFFFF96
:104E80001EFFFFFE1EFFFFFE3EFFFFFC3EFFFFF882
:104E90007EFF9FF07EFF0FE0FEFF0381FEFF800399
:104EA000FEFFE00FFEFFF83FFE7FFFFFFC3FFFFF2E
:104EB000F81FFFFFF01FFFFFF03000001860000038
:104EC0000CC00000068007C002801FF002807FFC3B
:104ED0000288FC7E028DF01F028FE00F828FC007D8
:104EE000828F8003C28FC001C28FE001E280000088
:104EF000E2800000E2800000E2800001E280000128
:104F0000C2800003C28000078280600F8280F01F91
:104F10000280FC7E02807FFC02801FF002C007C07E
:104F2000066000000C300000181FFFFFF0506F7388
:104F30006963696F6E203220646520340047312038
:104F40005A31300A47312058313730205932353004
:104F50002046323030300A473238205A0A47312052
:104F60005A3000506F736963696F6E203120646539
:104F700020340000002100240027002A002D0030EA
:104F800000330001010000040107010A01000022B2
:104F900000250028002B002E003100340002010003
:104FA00000050108010B0100002000230026002954
:104FB000002C002F0032000001000003010601094F
:104FC0000105050505070508080808020202020A8E
:104FD0000A0808040404040101010101010101039C
:104FE00003030303030303040707070C0C0C0C0C57
:104FF0000C0C0C0202020206060606060606060B4A
:105000000B0B0B0B0B0B0B010210202008081020C0
:105010004010204080020102010804020101020444
:105020000810204080804020100804020180040203
:10503000018040201008040201080402010102045A
:105040000810204080010204081020408000000A5F
:105050000B02090C0D0E08070304010000000000FC
:105060000000000000000000000000000000000040
:1050700000000000000000000012111000000000FD
:105080000000000000000000000000000000000020
:105090000000007C3C3E5E2B3D3F2F5B5D3B2C2A9D
:1050A000225C0070012C0190012701B0012201C097
:1050B000011D01F00118011002130130020E016000
:1050C00002090190020401C002FF000003FA00403F
:1050D00003F5008003F000D003EB002004E600702D
:1050E00004E100E004DC004005D700C005D2004028
:1050F00006CD00D006C8008007C3003008BE00F00F
:1051000008B900C009B400B00AAF00B00BAA00D0C3
:105110000CA500000EA000500F9B00C01096005080
:1051200012910000148C00C0158700B0178200B0E7
:10513000197D00D01B7800001E730040206E009087
:10514000226900F024640040275F0090295A00E0A3
:105150002B5500102E500020304B0010324600E03E
:1051600033410090353C001037370070383200A0D2
:10517000392D00B03A2800A03B2300603C1E0010EF
:105180003D1900903D1400103E0F00703E0A00C013
:105190003E0500003F0000204B643A2000204B6990
:1051A0003A2000204B703A20005049442041757449
:1051B0006F74756E652066696E6973686564212019
:1051C00050757420746865206C617374204B702C6A
:1051D000204B6920616E64204B6420636F6E737492
:1051E000616E74732066726F6D2061626F766520E8
:1051F000696E746F20436F6E66696775726174695A
:105200006F6E2E68206F722073656E6420636F6D01
:105210006D616E64204D35303020666F7220736191
:10522000766520696E20454550524F4D2074686563
:10523000206E65772076616C7565210050494420A9
:105240004175746F74756E65206661696C65642163
:105250002074696D656F7574005049442041757400
:105260006F74756E65206661696C65642120546594
:105270006D706572617475726520746F6F206C6FEC
:105280007700504944204175746F74756E652066CF
:1052900061696C6564212054656D70657261747517
:1052A000726520746F6F206869676800204B643AEC
:1052B0002000204B693A2000204B703A2000204308
:1052C0006C61737369632050494420002054753A1F
:1052D0002000204B753A2000206D61783A20002094
:1052E0006D696E3A200020643A2000206269617383
:1052F0003A2000204170706C7920726573756C746F
:1053000000204379636C65733A20002054656D700A
:105310003A2000486F74656E643A20004348414D5E
:105320004245520042454400504944204175746F43
:1053300074756E6520737461727400504944204125
:1053400075746F74756E65206661696C6564212083
:105350004261642074656D70657261747572652058
:10536000636F6E74726F6C6C6572206E756D6265C2
:1053700072002C2073797374656D2073746F707074
:1053800065642120436F6F6C6572002C2073797304
:1053900074656D2073746F7070656421204368615B
:1053A0006D626572002C2073797374656D2073745F
:1053B0006F707065642120426564002C20737973DE
:1053C00074656D2073746F70706564212048656129
:1053D0007465725F49443A20005041524144412073
:1053E000444520454D4552472E00202D20496E76DC
:1053F000616C6964206578747275646572206E757D
:105400006D626572202100494E46004E414E006596
:105410005F6D696E3A20007A5F70726F62653A2044
:10542000007A5F6D696E3A2000795F6D696E3A208F
:1054300000785F6D696E3A20005265706F72746912
:105440006E6720656E6473746F7020737461747519
:1054500073004D6F64656C6F2032303137005665D4
:105460007273696F6E3A00436F6E66696775726139
:1054700063696F6E00417267656E74696E610049A1
:105480006E64757374726961004B55545445524390
:1054900052414654000000000F00000000000000D0
:1054A000198000000000000070E000000000000013
:1054B000C6300000000000039F9C00000000000EAA
:1054C0003FC7000000000038FFF1C000000000638B
:1054D000FFFC6000000001CFFFFF38000000071F45
:1054E000FFFF8E0000001C7FFFFFE380000031FF04
:1054F000FFFFF8C00000E7FFFFFFFE7000038FFF13
:10550000FFFFFF1C000E3FFFFFFFFFC70018FE0755
:10551000FFF007F18033FE07FFE00FFCC027FE0716
:10552000FFC01FFE402FFE07FF803FFF402FFE07FA
:10553000FF007FFF402FFE07FF00FFFF402FFE0709
:10554000FE01FFFF402FFE07FC00FFFF402FFE077C
:10555000F8007FFF402FFE07F0003FFF402FFE07BF
:10556000E000007F402FFE07C000007F402FFE07B5
:10557000807FFFFF402FFE0700FFFFFF402FFE064A
:1055800001FFFFFF402FFE0403FFFFFF402FFE003F
:1055900003FFFFFF402FFE0401FFFFFF402FFE0629
:1055A00000FFFFFF402FFE07007FFFFF402FFE0799
:1055B0008000007F402FFE07C000007F402FFE07C5
:1055C000E0003FFF402FFE07F0007FFF402FFE0767
:1055D000F800FFFF402FFE07FC01FFFF402FFE07F2
:1055E000FE00FFFF402FFE07FF007FFF402FFE075A
:1055F000FF803FFF402FFE07FFC01FFF402FFE0729
:10560000FFE00FFF4027FE07FFF007FE4033FE07D5
:10561000FFF803FCC018FE07FFFC01F1800E3FFFFE
:10562000FFFFFFC700038FFFFFFFFF1C0000E7FF26
:10563000FFFFFE70000031FFFFFFF8C000001C7F7D
:10564000FFFFE3800000071FFFFF8E00000001CF77
:10565000FFFF380000000063FFFC6000000000381E
:10566000FFF1C0000000000E3FC700000000000373
:105670009F9C000000000000C630000000000000F9
:1056800070E0000000000000198000000000000031
:105690000F000000000000000000000000000000FB
:1056A00000000000000000000000000000000000FA
:1056B00000000000000000000000000000000000EA
:1056C00000000000000000000000000000000000DA
:1056D0000000004731205A31300A47312058343019
:1056E000205934302046323030300A473238205A80
:1056F0000A4731205A3000FFFFFFFFFFFFFFFFFF87
:10570000FFFFFFE08000000000000000000000003C
:1057100020B1C71C71C71C71C71C71C71C20A38E88
:1057200038E38E38E38E38E38E38A0871C71C71CAF
:1057300071C71C71C71C71A0800000000000000030
:105740000000000020FFFFFFFFFFFFFFFFFFFFFF44
:10575000FFE0FFFFFFFFFFFFFFFFFFFFFFFFE08016
:105760000000000000000000000000208E38E38EE2
:1057700038E38E38E38E38E3A09C71C71C71C71CD8
:1057800071C71C71C720B8E38E38E38E38E38E38BA
:10579000E38E2080000000000000000000000020D8
:1057A000FFFFFFFFFFFFFFFFFFFFFFFFE0506F72F4
:1057B000206661766F72206573706572650047328E
:1057C00038001FFFFFF03FFFFFF87FFFFFFCFFFFE8
:1057D000FFFEFE7FFFFEFE7FC0FEF99FDEFEF99F0B
:1057E000D2FEFE7FDAFEFE63D2FEFFC3DAFEFFCFFB
:1057F000D2FEFFCFDAFEFFCFD2FEFFC3DAFEFFE319
:10580000927EFFFF333EFFFE619EFFFEC0DEFFFE85
:10581000805EFFFEC0DEFFFE619EFFFF333EFFFFA6
:105820009E7EFFFFC0FEFFFFFFFEFFFFFFFE7FFF2C
:10583000FFFC3FFFFFF81FFFFFF01FFFFFF03000EE
:1058400000186000000CC00000068180000281800A
:105850003F028660210286602D0281802502819CA4
:105860002D02803C250280302D02803025028030C0
:105870002D02803C2502801C6D828000CCC28001FC
:105880009E6280013F2280017FA280013F22800131
:105890009E628000CCC28000618280003F02800056
:1058A0000002C00000066000000C300000181FFF5E
:1058B000FFF01FFFFFF03FFFFFF87FFFFFFCFFFF40
:1058C000FFFEFFFFFFFEF8E3C0FEF843DEFEF80335
:1058D000D2FEFC47DAFEFEEFD2FEFC47DAFEF8030A
:1058E000D2FEF843DAFEF8E3D2FEFFFFDAFEFFFF56
:1058F000927EFFFF333EFFFE619EFFFEC0DEFFFE95
:10590000805EFFFEC0DEFFFE619EFFFF333EFFFFB5
:105910009E7EFFFFC0FEFFFFFFFEFFFFFFFE7FFF3B
:10592000FFFC3FFFFFF81FFFFFF01FFFFFF03000FD
:1059300000186000000CC000000680000002871CF8
:105940003F0287BC210287FC2D0283B8250281100B
:105950002D0283B8250287FC2D0287BC2502871CF7
:105960002D028000250280006D828000CCC2800163
:105970009E6280013F2280017FA280013F22800140
:105980009E628000CCC28000618280003F02800065
:105990000002C00000066000000C300000181FFF6D
:1059A000FFF054656D7065726174757261004D6FC2
:1059B0007665722059004D6F766572205A004D6FE2
:1059C0007665722058003FFFF87FFFFCFFFFFEFF67
:1059D000FFFEFFFFFEFE00FEFE00FEFE7FFEFE7FDE
:1059E000FEFE7FFEFE3FFEFF01FEFF80FEFFF8FE93
:1059F000FFFCFEFFF8FEFE01FEFE03FEFFFFFEFFC2
:105A0000FFFEFFFFFE7FFFFC3FFFF83FFFF8600057
:105A10000CC0000680000280000281FF0281FF02AC
:105A200081800281800281800281C00280FE02802A
:105A30007F0280070280030280070281FE0281FC50
:105A400002800002800002C0000660000C3FFFF8E8
:105A50003FFFF87FFFFCFFFFFEFFFFFEFFFFFEFFA3
:105A6000C7FEFF87FEFF07FEFE27FEFE67FEFFE77D
:105A7000FEFFE7FEFFE7FEFFE7FEFFE7FEFFE7FEB4
:105A8000FF81FEFF81FEFFFFFEFFFFFEFFFFFE7FA7
:105A9000FFFC3FFFF83FFFF860000CC000068000ED
:105AA0000280000280380280780280F80281D802E9
:105AB00081980280180280180280180280180280E3
:105AC0001802801802807E02807E02800002800020
:105AD00002C0000660000C3FFFF83FFFF87FFFFCAC
