:100000000C9470460C94A1460C94A1460C94A14605
:100010000C94A1460C94A1460C94A1460C94A146C4
:100020000C94A1460C94A1460C94A1460C94A146B4
:100030000C94A1460C94739D0C94A1460C94A1467B
:100040000C94A1460C94C8D60C94A1460C94A146DD
:100050000C94A1460C94A1460D9447000C94299D44
:100060000C94A1460C94FB600C94CB600C94A146BC
:100070000C94A1460C94A1460C94A1460C94A14664
:100080000C94A1460C94A1460C94A1460C94A14654
:100090000C94A1460C94A1460C94A1460C94A14644
:1000A0000C94A1460C94A1460C94A1460C94A14634
:1000B0000C94A1460C94A1460C94A1460C94A14624
:1000C0000C94A1460C94A1460C94A1460D943213B5
:1000D0000C94119E0C94A1460C94A1460C94A1463C
:1000E0000C94A146364C414C704CCC4C314D8A4D51
:1000F000934DAC95AF95B495B795BA95BD95C09510
:10010000C395C695C995CF95D595DB950496079669
:100110000A960D9610961396169619961C961F968B
:10012000229627963F96309A339A229A269A2C9AAC
:100130006A9A379A3B9A419A459A499A4F9A539AA2
:10014000579A6A9A5D9A619A659A459C4A9C4F9C17
:10015000599C639CDC9C6D9C759C7D9C879C919CB0
:100160009B9CAA9CB49CDC9CBE9CC89CD29C2801F5
:100170004C01A001A8017E0142014E018E01CC017B
:10018000C4017A017001760172019C01AC01AE01DB
:100190003A019001C8016001CA01D4016A01260137
:1001A0005A01440124013401AA0198016E01200181
:1001B000A2015401CE0140016201B601C201460113
:1001C00056011A0188019601D001C6013201BA0117
:1001D0001C019A018C014A013C01B8018401820191
:1001E000300158019E018001084AD73B3BCE016E89
:1001F00084BCBFFDC12F3D6C74319ABD56833DDA7E
:100200003D00C77F11BED9E4BB4C3E916BAAAABE8C
:10021000000000803F05A84CCDB2D44EB93836A9B5
:10022000020C50B9918688083CA6AAAA2ABE0000F2
:1002300000803F000D94B3370D9438380D949C36F0
:100240000D94DB350D9490340D9473350D94DF12BD
:100250000D94A3000D94CE1D0D94D6130D94CC1FB8
:100260000D94D0380D9412380D9488350D94943334
:100270000D94E81E0D9432010D9484380D944210B3
:100280000D942E360D9402010D945E350D948D372C
:100290000D94CC0F0D9471380D94B3000D9405019D
:1002A0000D94DB0F0D94FD0F0D9405360D94A037C2
:1002B0000D94E3380D941D130D9435390D94590E9A
:1002C0000D9427130D9443360D94DF1D0D94E90A08
:1002D0000D9463390D9414130D94C8120D94C63502
:1002E0000D941A010D9422010D94F4140D941D0126
:1002F0000D948F100D9415010D94F61E0D94FD00B4
:100300000D9409390D94BD380D94AA380D94C00A86
:100310000D94C6370D946C0D0D945E380D940A0142
:100320000D943C010D94D91E0D94DC1F0D94D9370A
:100330000D94B1350D944B380D9425010D94F6387C
:100340000D94D2000D94F0350D94EF0F0D94774C71
:100350000D94E2000D949C350D942A010D942D010D
:100360000D948A130D94110F0D9489110D94673714
:100370000D9497380D9425380D94961F0D94BC1F3D
:100380000D946D360D947A370D9412010D94FF374C
:100390000D94E1120D9403130D940D010D94193673
:1003A0000D94EC370D94FC210D94FE124E414E49F4
:1003B0004E495459494E46CDCCCC3D0AD7233C1723
:1003C000B7D13877CC2B329595E6241FB14F0A0070
:1003D0000020410000C84200401C4620BCBE4CCA60
:1003E0001B0E5AAEC59D7400407A10F35A00A072DD
:1003F0004E18090010A5D4E80000E8764817000060
:10040000E40B54020000CA9A3B000000E1F505002D
:100410000080969800000040420F000000A0860176
:10042000000000102700000000E803000000006446
:1004300000000000000A00000000000100000000B1
:10044000002C76D888DC674F0823DFC1DFAE59E186
:10045000B1B796E5E3E453C63AE651997696E8E6F5
:10046000C28426EB898C9B62ED407C6FFCEFBC9CC8
:100470009F40F2BAA56FA5F490055A2AF75C936BDA
:100480006CF9676DC11BFCE0E40D47FEF520E6B595
:1004900000D0ED902E0300943577050080841E086F
:1004A0000000204E0A000000C80C333333330F988D
:1004B0006E12831141EF8D2114893BE65516CFFE54
:1004C000E6DB18D1844B381BF77C1D901DA4BBE4E0
:1004D00024203284725E228100C9F124ECA1E53D22
:1004E00027414C4C00434F4D4D554E4943415449D3
:1004F0004F4E0044525952554E004552524F52539E
:1005000000494E464F004543484F005265706F7397
:100510006F2E2E2E004175746F6C6576656C3A20D7
:100520006F6E004D616E75616C6576656C3A206F1B
:100530006E0050756E746F20616C63616E7A6164D9
:100540006F00473239205334002F39002000507596
:100550006E746F004D3530300A4732380A4731200B
:1005600058313020593130205A31300A4D3131372D
:10057000204175746F6C657665207265616C697A6F
:1005800061646F00473239205335004732392053B8
:10059000350A4731205A3020463135303000473750
:1005A000370A473239205335005A206E6F74206560
:1005B0006E74657265642E0059206E6F7420656ECE
:1005C00074657265642E0059206F7574206F662003
:1005D00072616E67652028312D33292E0058206EF8
:1005E0006F7420656E74657265642E0058206F7597
:1005F00074206F662072616E67652028312D332963
:100600002E00473239205334004732380A473239F6
:10061000205332004572726F723A204175746F2D0B
:1006200043616C6962726163696F6E2061706167BA
:10063000616461005A206F6666736574204163745B
:1006400075616C3A200053205375706572612065A6
:100650006C206E756D65726F20646520636F6D61CF
:100660006E646F7320372E003C3C3C2067636F64E0
:10067000655F47333000205A3A200020593A200065
:1006800020583A2000426564003E3E3E2067636F7A
:1006900064655F47333000205A3A200020593A20E1
:1006A0000020583A20004265640020453A00205A54
:1006B0003A0020593A003C2D583A0020530053612B
:1006C00076656420706F736974696F6E00496E7629
:1006D000616C696420736C6F742C20746F74616C2E
:1006E00020736C6F74733A20003A0020002D3E0096
:1006F000205300526573746F72696E6720706F7358
:100700006974696F6E00496E76616C696420736C00
:100710006F742C20746F74616C20736C6F74733AF7
:1007200020005374617274205072696E74696E6730
:100730000053746F70205072696E74696E67005355
:10074000696E206D6F76696D69656E746F00456EB8
:10075000642066696C65206C697374004265676922
:100760006E2066696C65206C697374002F005344B9
:10077000207072696E74696E6720627974652000FA
:100780004E6F74205344207072696E74696E6700F6
:100790005072696E742074696D6520002569682047
:1007A00025696D2025697300256964202569682005
:1007B00025696D20256973004469726563746F72E1
:1007C0007920637265617465640043726561746960
:1007D0006F6E206661696C656400436C6F736520A1
:1007E00066696C6520616E64207361766520726550
:1007F00073746172742E67636F64650020616E6448
:10080000207374617274207072696E742E004F7060
:10081000656E2066696C653A20004B75747465726C
:100820006372616674204F46462E0043616C656EAC
:1008300074616E646F2E2E2E004B75747465726336
:1008400072616674206C697374612E006F66660055
:1008500006050105FA04F304E504E1044465627544
:10086000673A0050415241444120444520454D459E
:1008700052472E004D3131332053004649524D57D7
:100880004152455F4E414D453A4B555454455243B4
:10089000524146545F5620342E302E38204649525D
:1008A0004D574152455F55524C3A687474703A2F17
:1008B0002F7777772E6B75747465726372616674C7
:1008C0002E636F6D2F736F6674776172652050525F
:1008D0004F544F434F4C5F56455253494F4E3A3257
:1008E0002E30204D414348494E455F545950453ABA
:1008F00043617274657369616E2045585452554462
:1009000045525F434F554E543A3220555549443A6B
:1009100033323462666134322D613432372D3131F5
:1009200065362D383066352D37363330346465639F
:10093000376562370A006373746570733A20006527
:100940005F6D696E3A20007A5F70726F62653A205F
:10095000007A5F6D696E3A2000795F6D696E3A20AA
:1009600000785F6D696E3A20005265706F7274692D
:100970006E6720656E6473746F7020737461747534
:100980007300205A00205900580020204D61783A09
:100990002000205A00205900580020204D696E3A4E
:1009A0002000536F667420656E6473746F70733AC1
:1009B0000043290061626C656420286D696E2074B3
:1009C000656D702000436F6C642065787472756487
:1009D00065732061726520004D31313720504944E4
:1009E0002041637475616C697A61646F004D3530C4
:1009F00030004F6666736574206170706C69656461
:100A00002E004F6666736574206170706C69656452
:100A10002E004572723A20546F6F20666172210079
:100A2000546F6F206661722066726F6D207265660A
:100A30006572656E636520706F696E7400436170E6
:100A4000613A200020496E76616C69642065787493
:100A5000727564657200540041637469766520455F
:100A6000787472756465723A2000416374697665C2
:100A7000204472697665723A20003C3C3C206763F2
:100A80006F64655F5400203A2041465445520A0085
:100A900063757272656E745F706F736974696F6E7F
:100AA0003D00203A204245464F52450A0063757288
:100AB00072656E745F706F736974696F6E3D002943
:100AC000003E3E3E2067636F64655F54280022004D
:100AD000436F6D616E646F206E6F20656E636F6E25
:100AE000747261646F3A2022004D363030004D360A
:100AF00030300073652061637469766F2031004582
:100B000063686F3A004572726F7220777269746918
:100B10006E6720746F20454550524F4D2100206272
:100B200079746573290053657474696E6773205313
:100B3000746F726564202800454550524F4D206304
:100B40006865636B73756D206D69736D617463683F
:100B5000002D2D2D2D2D2D2D2D2D2D2D2D2D2D2DF2
:100B60002D2D2D2D2D2D2D2D2D2D2D2D2D2D2D2DB5
:100B70002D2D2D2D2D2D2D2D2D2D2D2D2D2D2D2DA5
:100B80002D2D2D2D2D2D2D2D2D2D2D2D2D2D2D2D95
:100B90002D2D2D2D2D0020627974657329002020C4
:100BA00020202020202020202020202020205374BE
:100BB0006F7265642073657474696E677320726503
:100BC000747269657665642028005D2053746F72C5
:100BD00065642076657273696F6E3A205B005665B6
:100BE0007273696F6E3A205B002D2D2D2D2D2D2DEA
:100BF0002D2D2D2D2D2D2D2D2D2D2D2D2D2D2D2D25
:100C00002D2D2D2D2D2D2D2D2D2D2D2D2D2D2D2D14
:100C10002D2D2D2D2D2D2D2D2D2D2D2D2D2D2D2D04
:100C20002D2D2D2D2D2D2D2D2D2D2D2D2D002D2D21
:100C30002D2D2D2D2D2D2D2D2D2D2D2D2D2D2D2DE4
:100C40002D2D2D2D2D2D2D2D2D2D2D2D2D2D2D2DD4
:100C50002D2D2D2D2D2D2D2D2D2D2D2D2D2D2D2DC4
:100C60002D2D2D2D2D2D2D2D2D2D2D2D2D2D2D2DB4
:100C70002D2D002D2D2D2D2D2D2D2D2D2D2D2D2DD1
:100C80002D2D2D2D2D2D2D2D2D2D2D2D2D2D2D2D94
:100C90002D2D2D2D2D2D2D2D2D2D2D2D2D2D2D2D84
:100CA0002D2D2D2D2D2D2D2D2D2D2D2D2D2D2D2D74
:100CB0002D2D2D2D2D2D2D0020450020204D3230A5
:100CC00035205400204500205A00205800204200C2
:100CD000205600202020202053000020202020200B
:100CE000202020285A3D6D6178696D756D205A204D
:100CF0006A65726B20286D6D2F73292C2020453D6D
:100D00006D6178696D756D2045206A65726B20286C
:100D10006D6D2F7329290020202020202028423D9E
:100D20006D696E696D756D207365676D656E742094
:100D300074696D6520286D73292C20583D6D61788C
:100D4000696D756D205859206A65726B20286D6D2C
:100D50002F732929002020202020202028533D4DBA
:100D6000696E20666565647261746520286D6D2FFB
:100D700073292C20563D4D696E2074726176656C26
:100D800020666565647261746520286D6D2F732916
:100D9000290020202020202020202020202020206A
:100DA0002020202020202020202020202020202043
:100DB00020284D32303529002020202020202020DE
:100DC0002020202020202020202020202020202023
:100DD00020202020207C416476616E6365647C0065
:100DE0002D2D2D2D2D2D2D2D2D2D2D2D2D2D2D2D33
:100DF0002D2D2D2D2D2D2D2D2D2D2D2D2D2D2D2D23
:100E00002D2D2D2D2D2D2D2D2D2D2D2D2D2D2D2D12
:100E10002D2D2D2D2D2D2D2D2D2D2D2D2D2D2D2D02
:100E20002D2D2D2D002020202020202020202020AE
:100E3000202020202020202020202020436F6E66AC
:100E4000696775726174696F6E20416476616E6363
:100E50006564002D2D2D2D2D2D2D2D2D2D2D2D2D80
:100E60002D2D2D2D2D2D2D2D2D2D2D2D2D2D2D2DB2
:100E70002D2D2D2D2D2D2D2D2D2D2D2D2D2D2D2DA2
:100E80002D2D2D2D2D2D2D2D2D2D2D2D2D2D2D2D92
:100E90002D2D2D2D2D2D2D0020204D323030205484
:100EA0003120440020204D32303020440046696C0F
:100EB000616D656E742073657474696E67733A0052
:100EC0002044002049002050002020202020202005
:100ED000202020202020202020480020202020200A
:100EE0002020202020202020202020202020202002
:100EF00020202020202020202020284D3330312980
:100F00000020202020202020202020202020202001
:100F10002020202020202020202020207C504944F8
:100F20002073657474696E67737C002D2D2D2D2DD3
:100F30002D2D2D2D2D2D2D2D2D2D2D2D2D2D2D2DE1
:100F40002D2D2D2D2D2D2D2D2D2D2D2D2D2D2D2DD1
:100F50002D2D2D2D2D2D2D2D2D2D2D2D2D2D2D2DC1
:100F60002D2D2D2D2D2D2D2D2D2D2D2D2D2D2D00DE
:100F70002020202020202020202020202020202071
:100F8000202020202020202020436F6E6669677576
:100F9000726174696F6E20504944002D2D2D2D2DE6
:100FA0002D2D2D2D2D2D2D2D2D2D2D2D2D2D2D2D71
:100FB0002D2D2D2D2D2D2D2D2D2D2D2D2D2D2D2D61
:100FC0002D2D2D2D2D2D2D2D2D2D2D2D2D2D2D2D51
:100FD0002D2D2D2D2D2D2D2D2D2D2D2D2D2D2D006E
:100FE00020204D3636362050005A2050726F6265F0
:100FF000206F666673657420286D6D293A00205A4B
:101000000020590020204732392053332058002037
:10101000590020580020204D3432302053004D65B7
:10102000736820626564206C6576656C696E673AEA
:1010300000205A0020590020580020202020202085
:10104000202020202020202020202020540020208C
:101050002020202020202020202020202020202090
:101060002020202020207C486F74656E64206F66ED
:101070006673657420286D6D297C00202020202057
:101080002020202020202020202020202020202060
:1010900020202020202020202020284D32313829D7
:1010A0000020202020202020202020202020202060
:1010B0002020202020202020207C486F74656E6432
:1010C000206F666673657420286D6D297C00002092
:1010D0005A002059002020202020202020202020DD
:1010E00020202020202020205800202020202020E8
:1010F00020202020202020202020202020202020F0
:10110000202020202020202020284D323036290089
:1011100020202020202020202020202020202020CF
:101120002020202020202020207C486F6D65206F0B
:10113000666673657420286D6D297C002D2D2D2D1C
:101140002D2D2D2D2D2D2D2D2D2D2D2D2D2D2D2DCF
:101150002D2D2D2D2D2D2D2D2D2D2D2D2D2D2D2DBF
:101160002D2D2D2D2D2D2D2D2D2D2D2D2D2D2D2DAF
:101170002D2D2D2D2D2D2D2D2D2D2D2D2D2D2D2D9F
:10118000002020202020202020202020202020207F
:10119000202020202020202020436F6E6669677564
:1011A000726174696F6E206F6666736574002D2DB1
:1011B0002D2D2D2D2D2D2D2D2D2D2D2D2D2D2D2D5F
:1011C0002D2D2D2D2D2D2D2D2D2D2D2D2D2D2D2D4F
:1011D0002D2D2D2D2D2D2D2D2D2D2D2D2D2D2D2D3F
:1011E0002D2D2D2D2D2D2D2D2D2D2D2D2D2D2D2D2F
:1011F0002D2D002D2D2D2D2D2D2D2D2D2D2D2D2D4C
:101200002D2D2D2D2D2D2D2D2D2D2D2D2D2D2D2D0E
:101210002D2D2D2D2D2D2D2D2D2D2D2D2D2D2D2DFE
:101220002D2D2D2D2D2D2D2D2D2D2D2D2D2D2D2DEE
:101230002D2D2D2D2D2D2D00202020202020202073
:1012400020202020202020202053656E736F7220E4
:1012500064652066696C616D656E746F3A20002D5F
:101260002D2D2D2D2D2D2D2D2D2D2D2D2D2D2D2DAE
:101270002D2D2D2D2D2D2D2D2D2D2D2D2D2D2D2D9E
:101280002D2D2D2D2D2D2D2D2D2D2D2D2D2D2D2D8E
:101290002D2D2D2D2D2D2D2D2D2D2D2D2D2D2D2D7E
:1012A0002D2D2D0020520020202020202020202025
:1012B000202020202020202020202020202020202E
:1012C0002054000020560020202020202020202014
:1012D00020202020202020202020202050002020FE
:1012E00020202020202020202020284D3230342093
:1012F000503D7072696E74696E672C20563D747231
:101300006176656C20616E6420542A20523D7265BE
:101310007472616374290020202020202020202066
:1013200020202020202020202020202020202020BD
:10133000207C416363656C65726174696F6E737C58
:10134000000020450020204D32303120540020453F
:1013500000205A002059002020202020202020207A
:101360002020202020202020202020202058002065
:10137000202020202020202020202020202020206D
:101380002020202020202020202020202020284D28
:101390003230312900202020202020202020202031
:1013A00020202020202020207C4D6178696D756DE3
:1013B00020416363656C65726174696F6E20286D8E
:1013C0006D2F7332297C0020450020204D323033B0
:1013D00020540000204500205A00205900202020E1
:1013E00020202020202020205800202020202020E5
:1013F00020202020202020202020202020202020ED
:10140000202020202020202020284D323033290089
:1014100020202020202020202020202020202020CC
:1014200020202020207C4D6178696D756D206665D7
:101430006564726174657320286D6D2F73297C005B
:101440000020450020204D3932205400436F6E6645
:1014500069673A00204500205A00205900202020CA
:101460002020202020202020580020202020202064
:10147000202020202020202020202020202020206C
:10148000202020202020202020284D393229002013
:10149000202020202020202020202020202020204C
:1014A0002020202020202020207C53746570732071
:1014B00070657220756E69747C002D2D2D2D2D2D7B
:1014C0002D2D2D2D2D2D2D2D2D2D2D2D2D2D2D2D4C
:1014D0002D2D2D2D2D2D2D2D2D2D2D2D2D2D2D2D3C
:1014E0002D2D2D2D2D2D2D2D2D2D2D2D2D2D2D2D2C
:1014F0002D2D2D2D2D2D2D2D2D2D2D2D2D2D002056
:1015000020202020202020202020202020202020DB
:1015100020202020202020202020436F6E66696735
:1015200075726174696F6E002D2D2D2D2D2D2D2D51
:101530002D2D2D2D2D2D2D2D2D2D2D2D2D2D2D2DDB
:101540002D2D2D2D2D2D2D2D2D2D2D2D2D2D2D2DCB
:101550002D2D2D2D2D2D2D2D2D2D2D2D2D2D2D2DBB
:101560002D2D2D2D2D2D2D2D2D2D2D2D0053657235
:1015700069653A004D6F64656C6F3A200050616E8A
:1015800074616C6C613A20002D2D2D2D2D2D2D2D8B
:101590002D2D2D2D2D2D2D2D2D2D2D2D2D2D2D2D7B
:1015A0002D2D2D2D2D2D2D2D2D2D2D2D2D2D2D2D6B
:1015B0002D2D2D2D2D2D2D2D2D2D2D2D2D2D2D2D5B
:1015C0002D2D2D2D2D2D2D2D2D2D2D2D001FFFFFE2
:1015D000F03FFFFFF87FFFFFFCFFFFFFFEFE7FFFF6
:1015E000FEFE7FC0FEF99FDEFEF99FD2FEFE7FDA8F
:1015F000FEFE63D2FEFFC3DAFEFFCFD2FEFFCFDADC
:10160000FEFFCFD2FEFFC3DAFEFFE3927EFFFF3381
:101610003EFFFE619EFFFEC0DEFFFE805EFFFEC05D
:10162000DEFFFE619EFFFF333EFFFF9E7EFFFFC099
:10163000FEFFFFFFFEFFFFFFFE7FFFFFFC3FFFFF00
:10164000F81FFFFFF01FFFFFF030000018600000E0
:101650000CC00000068180000281803F028660216C
:101660000286602D0281802502819C2D02803C250E
:101670000280302D028030250280302D02803C25F2
:1016800002801C6D828000CCC280019E6280013F7E
:101690002280017FA280013F2280019E628000CCD7
:1016A000C28000618280003F0280000002C0000012
:1016B000066000000C300000181FFFFFF01FFFFF46
:1016C000F03FFFFFF87FFFFFFCFFFFFFFEFFFFFF84
:1016D000FEF8E3C0FEF843DEFEF803D2FEFC47DA74
:1016E000FEFEEFD2FEFC47DAFEF803D2FEF843DA44
:1016F000FEF8E3D2FEFFFFDAFEFFFF927EFFFF332C
:101700003EFFFE619EFFFEC0DEFFFE805EFFFEC06C
:10171000DEFFFE619EFFFF333EFFFF9E7EFFFFC0A8
:10172000FEFFFFFFFEFFFFFFFE7FFFFFFC3FFFFF0F
:10173000F81FFFFFF01FFFFFF030000018600000EF
:101740000CC000000680000002871C3F0287BC21FD
:101750000287FC2D0283B8250281102D0283B82553
:101760000287FC2D0287BC2502871C2D02800025E4
:101770000280006D828000CCC280019E6280013FA9
:101780002280017FA280013F2280019E628000CCE6
:10179000C28000618280003F0280000002C0000021
:1017A000066000000C300000181FFFFFF054656D4C
:1017B0007065726174757261004D6F766572205943
:1017C000004D6F766572205A004D6F766572205815
:1017D000003FFFF87FFFFCFFFFFEFFFFFEFFFFFE65
:1017E000FE00FEFE00FEFE7FFEFE7FFEFE7FFEFE92
:1017F0003FFEFF01FEFF80FEFFF8FEFFFCFEFFF84C
:10180000FEFE01FEFE03FEFFFFFEFFFFFEFFFFFEEA
:101810007FFFFC3FFFF83FFFF860000CC000068030
:10182000000280000281FF0281FF0281800281802C
:101830000281800281C00280FE02807F0280070256
:1018400080030280070281FE0281FC028000028088
:101850000002C0000660000C3FFFF83FFFF87FFF6A
:10186000FCFFFFFEFFFFFEFFFFFEFFC7FEFF87FE40
:10187000FF07FEFE27FEFE67FEFFE7FEFFE7FEFF17
:10188000E7FEFFE7FEFFE7FEFFE7FEFF81FEFF81C9
:10189000FEFFFFFEFFFFFEFFFFFE7FFFFC3FFFF8A6
:1018A0003FFFF860000CC00006800002800002804C
:1018B000380280780280F80281D80281980280186C
:1018C0000280180280180280180280180280180214
:1018D000807E02807E02800002800002C0000660DE
:1018E000000C3FFFF83FFFF87FFFFCFFFFFEFFFF0C
:1018F000FEFFFFFEF87E3EF03C3EE3183EE7913EE1
:10190000E7933EE79F3EE79F3EE79F3EE79F3EE728
:101910009F3EE31F3EF03C0EF86C0EFFFFFEFFFF04
:10192000FEFFFFFE7FFFFC3FFFF83FFFF860000C6B
:10193000C000068000028000028781C28FC3C29C63
:10194000E7C2986EC2986CC29860C29860C29860F4
:10195000C29860C29860C29CE0C28FC3F28793F2C3
:10196000800002800002C0000660000C3FFFF84DBE
:101970006F76657220456A6573004D6F76657220DB
:10198000456A6573004732380047323820580047AF
:101990003238205900486F6D652028456A65205807
:1019A000292028456A65205929005072696D6572A1
:1019B0006F205265616C697A61720041647665726C
:1019C00074656E636961004465205A6F6E612044DE
:1019D00065204D65646963696F6E00536F6E646165
:1019E000205A20467565726100416476657274659F
:1019F0006E63696100473238205A003FFFF87FFF6D
:101A0000FCFFFFFEFFFFFEF8003EF8003EFFFE3E3B
:101A1000FFFC7EFFF8FEFFF1FEFFE3FEFFC7FEFFC7
:101A20008FFEFF1FFEFE3FFEFC7FFEF8FFFEF8006C
:101A30003EF8003EFFFFFEFFFFFE7FFFFC3FFFF88A
:101A40003FFFF860000CC0000680000287FFC287DD
:101A5000FFC28001C2800382800702800E02801CC8
:101A60000280380280700280E00281C0028380021E
:101A700087000287FFC287FFC2800002C0000660A5
:101A8000000C3FFFF83FFFF87FFFFCFFFFFEFFFF6A
:101A9000FEF9FF3EF9FF3EF8FE3EF8FE3EFC7C7E7E
:101AA000FE38FEFF11FEFF83FEFFC7FEFFC7FEFFED
:101AB000C7FEFFC7FEFFC7FEFFC7FEFFC7FEFFFF53
:101AC000FEFFFFFE7FFFFC3FFFF83FFFF860000CCA
:101AD000C000068000028600C28600C28701C2875D
:101AE00001C283838281C70280EE02807C0280383B
:101AF0000280380280380280380280380280380242
:101B0000803802800002C0000660000C3FFFF83FF2
:101B1000FFF87FFFFCFFFFFEFFFFFEF0FE1EF87CDC
:101B20003EFC7C7EFC387EFE10FEFF01FEFF83FE45
:101B3000FFC7FEFF83FEFF01FEFE10FEFE38FEFC27
:101B40007C7EF87C3EF0FE1EFFFFFEFFFFFE7FFF67
:101B5000FC3FFFF83FFFF860000CC0000680000269
:101B60008F01E28783C283838283C78281EF0280F1
:101B7000FE02807C02803802807C0280FE0281EFBF
:101B80000281C7028383828783C28F01E2800002C1
:101B9000C0000660000C3FFFF84C6C657661722057
:101BA000416C204F726967656E20456A653A001F77
:101BB000FFFFF03FFFFFF87FFFFFFCFFFFFFFEFF8F
:101BC000F01FFEFFE7CC7EFFC8257EFF93917EFFCE
:101BD00027C97EFE4FE47EFC9FF27EF93FF93EF27C
:101BE0007FFC9EF4FFFE5EF0FFFE1EFEFFFEFEFE8B
:101BF000FFFEFEFEF81EFEFEFBDEFEFEFBDEFEFE30
:101C0000FBDEFEFEFBDEFEFEFBDEFEFEFBDEFEFE80
:101C1000FBDEFEFE0000FEFFFFFFFE7FFFFFFC3F3E
:101C2000FFFFF81FFFFFF01FFFFFF03000001860FC
:101C300000000CC0000006800FE002801833828094
:101C400037DA82806C6E8280D8368281B01B8283C4
:101C5000600D8286C006C28D8003628B0001A28F58
:101C60000001E281000102810001028107E102819D
:101C700004210281042102810421028104210281C4
:101C8000042102810421028104210281FFFF02C09C
:101C90000000066000000C300000181FFFFFF01F5E
:101CA000FFFFF03FFFFFF87FFFFFFCFFFFFFFEFF9E
:101CB000FEFFFEFFFC7FFEFFF83FFEFFF01FFEFF72
:101CC000FC7FFEFFFC7FFEFFFC7FFEFFFC7FFEFE35
:101CD000FFFEFEFCFFFE7EF80FE03EF00FE01EF878
:101CE0000FE03EFCFFFE7EFEFFFEFEFFFC7FFEFFE0
:101CF000FC7FFEFFFC7FFEFFFC7FFEFFF01FFEFF70
:101D0000F83FFEFFFC7FFEFFFEFFFE7FFFFFFC3F74
:101D1000FFFFF81FFFFFF01FFFFFF030000018600B
:101D200000000CC0000006800100028003800280D9
:101D300007C002800FE002800380028003800280DF
:101D400003800280038002810001028300018287F8
:101D5000F01FC28FF01FE287F01FC2830001828153
:101D600000010280038002800380028003800280E1
:101D7000038002800FE0028007C00280038002C05F
:101D80000100066000000C300000181FFFFFF04D3E
:101D90006F76657220456A6573002D2D53656775F2
:101DA0006E646F732D2D00507565646520546172EB
:101DB00064617220556E6F730050617573616E645B
:101DC0006F20496D70726573696F6E004D3235001A
:101DD0002D2D536567756E646F732D2D00507565DD
:101DE00064652054617264617220556E6F730043A4
:101DF000616E63656C616E646F20496D70726573AE
:101E0000696F6E004D3131370A4D38340A4D31312A
:101E10003720496D70726573696F6E2043616E6320
:101E2000656C616461004D36303000494E44555355
:101E30005452494120415247454E54494E41005366
:101E4000657269653A00504B31005620342E302EB1
:101E50003800204D6F64656C6F3A00566572736987
:101E60006F6E3A001C3800000000000000001C717A
:101E700017DF7DE39E11F7C01CE1110441145129C5
:101E800001001DF911044114114501001FC1110485
:101E900079E41E45E1001DF911044144147D01005F
:101EA0001CE111044124524501001C70E1047F1320
:101EB000914501001C3800000000000000001C1DBE
:101EC000FFFFFFFFFFFFFFF0000000000000000029
:101ED00000007FFFFFFFFFFFFFFFFFC04D6F766534
:101EE00072205A006B757474657263726166742E29
:101EF000636F6D2F626C6F67004D6178696D6F2045
:101F00006F204D696E696D6F0050726F7465636309
:101F1000696F6E205465726D696361004164766516
:101F20007274656E6369612054312043616D610094
:101F30006B757474657263726166742E636F6D2F56
:101F4000626C6F67004D6178696D6F206F204D691D
:101F50006E696D6F0050726F74656363696F6E2098
:101F60005465726D69636100416476657274656E73
:101F700063696120543020486F74656E64006B752E
:101F80007474657263726166742E636F6D2F626C18
:101F90006F6700566172696163696F6E2064657472
:101FA0006563746164610050726F74656363696F27
:101FB0006E205465726D6963610041647665727468
:101FC000656E63696120543020486F74656E6400EB
:101FD0006B757474657263726166742E636F6D2FB6
:101FE000626C6F67004E6F206861792043616C6599
:101FF0006E74616D69656E746F0050726F746563A5
:1020000063696F6E205465726D6963610041647627
:10201000657274656E63696120543020486F746521
:102020006E6400566F6C766572004D61706120447D
:10203000652043616D61004D6F646966696361721B
:10204000204F666673657400416A7573746573200A
:1020500064652063616D6100566F6C766572005037
:10206000726564657465726D696E61646F004D318F
:10207000313720456E667269616E646F004D383489
:102080000A204D313137204D6F746F7220417061DD
:102090006761646F0056656C6F6369646164006CAE
:1020A000612076656C6F63696461640053656C657B
:1020B0006363696F6E6500466C756A6F00466C7588
:1020C0006A6F0053656C656363696F6E6500766166
:1020D0006C6F7220696E696369616C00426F717523
:1020E000696C6C61006C612074656D7065726174FF
:1020F0007572610053656C656363696F6E6500435B
:10210000616D612063616C69656E7465006C61204E
:1021100074656D70657261747572610053656C658C
:102120006363696F6E65004D333133004D31313774
:102130000046616E2064652063617061006C6120FF
:1021400076656C6F63696461640053656C65636395
:10215000696F6E65003FFFF87FFFFCFFFFFEFFFF2A
:10216000FEF770FEFAEF7EFDE97EFAED7EF7697EFE
:10217000FFED7EFFE97EFFED7EFFE97EFFD9BEFF2A
:10218000B0DEFFA05EFFB0DEFFDFBEFFE07EFFFF40
:10219000FEFFFFFE7FFFFC3FFFF83FFFF860000CF3
:1021A000C00006800002888F028510828216828518
:1021B0001282889682801282801682801282801615
:1021C00082802642804F22805FA2804F2280204260
:1021D000801F82800002C0000660000C3FFFF83FB5
:1021E000FFF87FFFFCFFFFFEFFBBFEFE38FEFC3862
:1021F0007EF8383EF0381EF07C1EE0C60EFF83FEEF
:10220000FF83FEFF83FEE0C60EF07C1EF0381EF852
:10221000383EFC387EFE38FEFFBBFEFFFFFE7FFF30
:10222000FC3FFFF83FFFF860000CC000068044024E
:1022300081C70283C78287C7C28FC7E28F83E29FAD
:1022400039F2807C02807C02807C029F39F28F838D
:10225000E28FC7E287C7C283C78281C70280440278
:10226000C0000660000C3FFFF83FFFF87FFFFCFF57
:10227000FFFEFFFFFEFFFFFEFFFFFEFFFFFEFDEF85
:102280007EFEF7BEFEF7BEFDEF7EFBDEFEF7BDFE77
:10229000F7BDFEFBDEFEFDEF7EFFFFFEF0001EF051
:1022A000001EFFFFFEFFFFFE7FFFFC3FFFF83FFF2A
:1022B000F860000CC000068000028000028000026E
:1022C000800002821082810842810842821082844A
:1022D0002102884202884202842102821082800008
:1022E000028FFFE28FFFE2800002C0000660000C58
:1022F0003FFFF854656D70657261747572610047D7
:1023000031205A300070793A200070783A2000432A
:102310006F6E74696E7561720050726573696F6E6D
:102320006520436C696B205061726100506F7220B0
:102330006661766F722065737065726500526561C3
:102340006C697A616E646F20486F6D652E2E2E0069
:10235000473238004F66667365743A004D35303049
:10236000004D6F766572205A004D34323020533163
:102370000A4D353030004731205A30004739310A94
:1023800047312058343420592D34312046333030F1
:10239000300A47393000506F72206661766F7220C4
:1023A000657370657265005265616C697A616E640F
:1023B0006F20486F6D652E2E2E0047323800473251
:1023C00038000056616C6F722064656C207A3A00A8
:1023D00054617265612030340043616C69627261DE
:1023E0006E646F2E2E2E0047373700546172656180
:1023F0002030332076616C6F72206465207A002D66
:102400002D2D2D2D2D2D2D2D2D2D2D2D2D2D2D2DFC
:102410002D2D2D2D2D2D2D2D2D2D2D2D2D2D2D0019
:1024200070790070783A2000546172656120303311
:10243000206D6F76696E670054617265612030327D
:1024400000506F72206661766F72206573706572DE
:1024500065005265616C697A616E646F20486F6DCA
:10246000652E2E2E00546172656120303000473297
:1024700038004D6F766572205A004D35303000209F
:10248000496E76616C6964206578747275646572F2
:10249000004D0000004D4300004D43000034430058
:1024A0000000000000000000000000203A207379C6
:1024B0006E635F706C616E5F706F736974696F6E6D
:1024C0000A0063757272656E745F706F7369746908
:1024D0006F6E3D00203A20636C65616E5F75705FC2
:1024E00061667465725F656E6473746F705F6F723E
:1024F0005F70726F62655F6D6F76650A00637572FB
:1025000072656E745F706F736974696F6E3D0029D8
:10251000002C20002C200028003E3E3E20646F5FEF
:10252000626C6F636B696E675F6D6F76655F746F0A
:10253000006465706C6F793A2000203A20736574EE
:102540005F70726F62655F6465706C6F7965640A55
:102550000063757272656E745F706F736974696F12
:102560006E3D00203A203C3C3C20646F5F70726FEF
:1025700062655F6D6F76650A0063757272656E7471
:102580005F706F736974696F6E3D00203A203E3E44
:102590003E20646F5F70726F62655F6D6F76650A73
:1025A0000063757272656E745F706F736974696FC2
:1025B0006E3D002042403A0020403A00202F00208B
:1025C000423A00202F0020543A00203A20736574CC
:1025D00075705F666F725F656E6473746F705F6F46
:1025E000725F70726F62655F6D6F76650A0063750A
:1025F0007272656E745F706F736974696F6E3D009F
:102600002066697273740059005800486F6D652028
:10261000002066697273740059005800486F6D6538
:1026200020003C3C3C2067636F64655F47323800A4
:10263000203A204D424C20486F6D652058206F7223
:1026400020590A0063757272656E745F706F7369EA
:1026500074696F6E3D00203A204D424C20526573E4
:1026600074204F726967696E0A0063757272656ED5
:10267000745F706F736974696F6E3D004D424C20DA
:102680005A20686F6D696E67004D424C2068617317
:10269000206D65736800203A2028686F6D655F6162
:1026A0006C6C5F61786973207C7C20686F6D655A03
:1026B00029203E2066696E616C0A0063757272653E
:1026C0006E745F706F736974696F6E3D003C3C3C63
:1026D000205A5F534146455F484F4D494E4700538E
:1026E0006F6E6461205A20667565726100536F6E6B
:1026F0006461205A20667565726100203A205A5F35
:10270000534146455F484F4D494E47203E20686F34
:102710006D655F616C6C5F617869730A00646573F5
:1027200074696E6174696F6E3D00203A205A5F5380
:102730004146455F484F4D494E47203E20686F6DEA
:10274000655F616C6C5F617869730A0063757272B2
:10275000656E745F706F736974696F6E3D003E20C3
:102760005A5F534146455F484F4D494E47203E3ED4
:102770003E00203A20686F6D65590A0063757272D9
:10278000656E745F706F736974696F6E3D00203A97
:1027900020686F6D65580A0063757272656E745FAC
:1027A000706F736974696F6E3D0052616973652063
:1027B0005A20286265666F726520686F6D696E6762
:1027C0002920746F20003E20656E6473746F7073EF
:1027D0002E656E61626C6528747275652900203AF9
:1027E00020536574205A20746F207072655F686F83
:1027F0006D655F7A0A0063757272656E745F706FE3
:10280000736974696F6E3D004D424C20776173208F
:10281000616374697665003E3E3E2067636F646560
:102820005F4732380043656E74696D6574726F730B
:102830003A004D6574726F733A004B696C6F6D6549
:1028400074726F733A0046696C616D656E746F20C7
:10285000557361646F004D696E75746F733A00480B
:102860006F7261733A00446961733A005469656D2F
:10287000706F20456E636564696461004D696E75B3
:10288000746F733A00486F7261733A004469617300
:102890003A005469656D706F20646520696D7072CF
:1028A0006573696F6E00496E636F6D706C657461FE
:1028B000733A005465726D696E616461733A002009
:1028C000546F74616C3A00496D70726573696F6E14
:1028D0006573002000430050005300460045005A35
:1028E00000590058002E0053616C697200426F72EB
:1028F00072617200456E7669617200457370616342
:10290000696F00430050005300460045005A0059CB
:102910000058002E00496E677265736520436F642E
:1029200069676F00436F6D616E646F3A004D0047D9
:102930000053616C6972004D004700496E67726513
:10294000736520436F6469676F00436F6D616E64E8
:102950006F3A0045737461646F206465204C6F7337
:10296000204361626C657300436F7272656173200E
:10297000475432004C75627269636163696F6E001F
:10298000426F7175696C6C61207920426172726569
:102990006C00417669736F204D616E74656E696D70
:1029A00069656E746F005265637565726465205267
:1029B000657669736172002000E07001C0F80380E1
:1029C0007803843C038C0E07FC070EF8039DF0018E
:1029D0007B8000F70000EE0001DC0003BB000777FE
:1029E000803EEFC07DCFE0FF87F0C703F88701FC92
:1029F0000700FC0E007C1C003831352520456E2078
:102A00004D617175696E617300494E4954003230F1
:102A10002520456E2052657370756573746F730061
:102A2000465552540031302520456E204D61717558
:102A3000696E617300484E57500032302520456E54
:102A40002052657370756573746F73004F55454CF4
:102A50000032302520456E205265737075657374A1
:102A60006F73004D4952410033312E342520456E9D
:102A700020426F7175696C6C6173004C4F474F0059
:102A800031352520456E2052657370756573746FFE
:102A90007300484F484F0031352520456E20466968
:102AA0006C616D656E746F0042555548003132257A
:102AB00020456E2052657370756573746F730043A3
:102AC0004144540031322520456E2046696C616DC9
:102AD000656E746F00545854530031302520456E94
:102AE0002052657370756573746F73005246464665
:102AF0000031302520456E2046696C616D656E742D
:102B00006F00415652470033302520456E204E75E8
:102B10006573747261205469656E64610044494F45
:102B2000530032352520456E204E756573747261F1
:102B3000205469656E646100494F53580032352551
:102B400020456E204E756573747261205469656E00
:102B5000646100585058530032352520456E204E90
:102B6000756573747261205469656E6461005844C0
:102B700058440032302520456E204D617175696ED4
:102B8000617300415557570032302520456E204E65
:102B9000756573747261205469656E646100415596
:102BA0004C410032302520456E204E75657374729D
:102BB00061205469656E64610041414848003230CB
:102BC0002520456E204E75657374726120546965C9
:102BD0006E6461004341504F0031352520456E2021
:102BE0004D617175696E617300434F504F00323013
:102BF0002520456E204E7565737472612054696599
:102C00006E646100464F524F0031352520456E20DD
:102C10004E756573747261205469656E6461004617
:102C200041524F0031352520456E204D6171756947
:102C30006E6173004445414C0031352520456E20BE
:102C40004E756573747261205469656E64610044E9
:102C500041544F0035302520536572766963696FA2
:102C6000205465636E69636F004441544100313004
:102C70002520456E204E7565737472612054696518
:102C80006E6461004449414C0031352520456E2079
:102C9000496E73756D6F7300434F5341003130259A
:102CA00020456E204E756573747261205469656E9F
:102CB000646100424F4C4F0032352520456E20475D
:102CC00072696C6F4E3300424F4F4D002035252006
:102CD000456E204D617175696E61730041504558B4
:102CE00000556E20456E76696F2047726174697376
:102CF00021212100425341530031302520456E20CF
:102D000046696C616D656E746F00454442410031E7
:102D1000352520456E2052657370756573746F7329
:102D200000415753440031302520456E2046696CE0
:102D3000616D656E746F0054455354004465736350
:102D400075656E746F3A200056657220436F6E642D
:102D50006963696F6E657320456E3A006B757474B4
:102D6000657263726166742E636F6D2F70726F6D22
:102D70006F004465736375656E746F004375706FA3
:102D80006E20446500FC0004000200E18090808811
:102D9000808880A880A8808880A880A8808880A853
:102DA00080A8808880A880A880888088808880907B
:102DB00080E18002000400FC001F8010002000C39E
:102DC0008086808C8088808A808A8088808A808AB9
:102DD0008088808A808A8088808A808A80888088AB
:102DE000808C808680C380200010001F8001050831
:102DF00000FF060121023520FFFF07FF06FF090043
:102E000050221656808080800080153353A0A0A0E9
:102E10000257575050F850F850500257572070A0A2
:102E20007028702013355580A040A02002475740DD
:102E3000A0A040A0A05025135380808012265640A9
:102E4000808080804012265680404040408002456D
:102E5000559060F060900255552020F820201133E5
:102E600053604080044151F011335340E04002462A
:102E70005610102040808012365640A0A0A0A040DE
:102E800012365640C0404040E00246566090106006
:102E900080F0024656F02060109060024656206096
:102EA000A0F02020024656F080E0109060024656C6
:102EB0006080E0909060024656F010202040400272
:102EC00046566090609090600246566090907010F8
:102ED00060122555C0C000C0C01136566060006049
:102EE0004080123656204080804020034353F0003B
:102EF000F012365680402020408012365640A020E6
:102F0000400040015858304898A8A89040300246E8
:102F100056609090F09090024656E090E09090E0DD
:102F2000024656609080809060024656E0909090F5
:102F300090E0024656F080E08080F0024656F08035
:102F4000E0808080024656609080B09060024656D5
:102F50009090F0909090123656E040404040E00251
:102F6000465670202020A04002465690A0C0A0A047
:102F7000900246568080808080F002465690F0F0A5
:102F800090909002465690D0F0B0B09002465660B5
:102F90009090909060024656E09090E080800147CB
:102FA00057609090D0B06010024656E09090E0904C
:102FB00090024656609040209060123656E04040A5
:102FC0004040400246569090909090600246569045
:102FD0009090906060024656909090F0F09002467B
:102FE000569090606090900256568888502020201D
:102FF000024656F010204080F0123656E080808065
:1030000080E0024656808040201010123656E020A4
:10301000202020E016325240A0014151F0162252E9
:103020008040024454709090700246568080E09038
:1030300090E0123454608080600246561010709008
:10304000907002445460B0C060024656205040E088
:10305000404001455560907010600246568080E007
:103060009090901236564000C04040E011375720F3
:1030700000202020A040024656808090E0909012D0
:103080003656C040404040E0025454D0A8A8A802A0
:103090004454E090909002445460909060014555F3
:1030A000E090E0808001455570907010100244540B
:1030B000A0D0808012345460C020C00246564040E8
:1030C000E040502002445490909070123454A0A0DC
:1030D000A04002545488A8A85002445490606090C4
:1030E0000145559090709060024454F02040F002E9
:1030F0004757304020C020403022165680808080C4
:103100008080024757C02040304020C006425250C5
:10311000A0FFFFFFFFFFFFFFFFFFFFFFFFFFFFFF1E
:10312000FFFFFFFFFFFFFFFFFFFFFFFFFFFFFFFFAF
:10313000FFFF0900502216568000808080800146E3
:10314000562070A0A070200246562050E04050A0AB
:1031500002555588705070880256568850F820F8ED
:10316000202217578080800080808002475770801F
:10317000E0907010E0173151A002565670A8C8C8F0
:10318000A87014355560A06000E003435350A05070
:10319000123353E02020143151E002565670E8D823
:1031A000E8D870173151E015335340A0401235551F
:1031B00040E04000E014355540A02040E014355573
:1031C000C020C020C01622524080014555909090EA
:1031D000E08002565678E8E86828282411518011CA
:1031E0002252408014355540C04040E014355540CF
:1031F000A04000E0034353A050A0024757808080C6
:10320000A060F0200247578080A0D01020700247B5
:103210005780408060A0F02012365640004080A0C9
:103220004002475740206090F0909002475720405E
:103230006090F0909002475760906090F0909002FC
:10324000475750A06090F0909002475790006090D0
:10325000F0909002475760906090F0909002465630
:1032600070A0A0F0A0B001475760908080906040AF
:103270000247574020F080E080F00247572040F09E
:1032800080E080F00247576090F080E080F00247D5
:10329000579000F080E080F01237578040E04040C7
:1032A00040E01237572040E0404040E0123757409E
:1032B000A0E0404040E0123757A000E0404040E02E
:1032C0000256567048E848487002475750A090D0C0
:1032D000B09090024757402060909090600247570E
:1032E000204060909090600247576090609090906E
:1032F0006002475750A0609090906002475790003E
:103300006090909060123353A040A002465670B077
:10331000B0D0D0E002475740209090909060024794
:103320005720409090909060024757609090909006
:10333000906002475790009090909060025757100D
:1033400020885020202002465680E09090E08002A5
:1033500046566090A0A090A0024757402000709071
:10336000907002475720400070909070024757209D
:1033700050007090907002475750A000709090706D
:1033800002465650007090907002475760906070EF
:10339000909070025454F068B07811355560808078
:1033A000604002475740200060B0C060024757208D
:1033B000400060B0C06002475760900060B0C060DD
:1033C000024656500060B0C060123757804000C0BF
:1033D0004040E0123757204000C04040E0123757CD
:1033E00040A000C04040E0123656A000C04040E07F
:1033F000024757A040A01070906002475750A000AD
:10340000E090909002475740200060909060024703
:103410005720400060909060024757609000609095
:10342000906002475750A00060909060024656900E
:1034300000609090601235554000E0004002445416
:1034400070B0D0E002475740200090909070024743
:1034500057204000909090700247576090009090E5
:10346000907002465690009090907001485820400D
:103470000090907090600147578080E090E08080DD
:103480000147579000909070906002536F66747778
:103490006172652052657365740057617463686476
:1034A0006F672052657365740042726F776E206F8C
:1034B00075742052657365740045787465726E6129
:1034C0006C20526573657400506F7765725570009B
:1034D0002020202020202020202020202020204FBD
:1034E0006B7C48617264636F64656420534420445C
:1034F000656661756C742053657474696E677320BA
:103500004C6F616465640020506C616E6E65724240
:10351000756666657242797465733A2000202020D2
:103520002020202020202020202046726565204D6C
:10353000656D6F72793A20002D2D2D2D2D2D2D2D9D
:103540002D2D2D2D2D2D2D2D2D2D2D2D2D2D2D2DAB
:103550002D2D2D2D2D2D2D2D2D2D2D2D2D2D2D2D9B
:103560002D2D2D2D2D2D2D2D2D2D2D2D2D2D2D2D8B
:103570002D2D2D2D2D2D2D2D2D2D2D2D002D2D2DA8
:103580002D2D2D2D2D2D2D2D2D2D2D2D2D2D2D2D6B
:103590002D2D2D2D2D2D2D2D2D2D2D2D2D2D2D2D5B
:1035A0002D2D2D2D2D2D2D2D2D2D2D2D2D2D2D2D4B
:1035B0002D2D2D2D2D2D2D2D2D2D2D2D2D2D2D2D3B
:1035C0002D0020202020202020202020202020200E
:1035D0002020202020202020202020436F6D706993
:1035E0006C65643A205365702020342032303230CC
:1035F00000202020202020202020202020202020EB
:1036000020202020202020202020202041757468A8
:103610006F723A20284B55545445524352414654F8
:10362000205F7C7C5F204D6F643A4F726C69782913
:1036300000202020202020202020202020202020AA
:103640002020202020204C61737420557064617408
:1036500065643A20536570202034203230323020A7
:1036600031363A32353A3536002D2D2D2D2D2D2D72
:103670002D2D2D2D2D2D2D2D2D2D2D2D2D2D2D2D7A
:103680002D2D2D2D2D2D2D2D2D2D2D2D2D2D2D2D6A
:103690002D2D2D2D2D2D2D2D2D2D2D2D2D2D2D2D5A
:1036A0002D2D2D2D2D2D2D2D2D2D2D2D2D00202091
:1036B000202020202020202020202020202020200A
:1036C000202020202020204B555454455243524165
:1036D00046545F5620342E302E38002D2D2D2D2DA2
:1036E0002D2D2D2D2D2D2D2D2D2D2D2D2D2D2D2D0A
:1036F0002D2D2D2D2D2D2D2D2D2D2D2D2D2D2D2DFA
:103700002D2D2D2D2D2D2D2D2D2D2D2D2D2D2D2DE9
:103710002D2D2D2D2D2D2D2D2D2D2D2D2D2D2D0006
:103720002D2D2D2D2D2D2D2D2D2D2D2D2D2D2D2DC9
:103730002D2D2D2D2D2D2D2D2D2D2D2D2D2D2D2DB9
:103740002D2D2D2D2D2D2D2D2D2D2D2D2D2D2D2DA9
:103750002D2D2D2D2D2D2D2D2D2D2D2D2D2D2D2D99
:103760002D2D2D2D00202020202020202020202045
:10377000202020202020202020202020204B757475
:103780007465726372616674204669726D776172E6
:1037900065002D2D2D2D2D2D2D2D2D2D2D2D2D2D4E
:1037A0002D2D2D2D2D2D2D2D2D2D2D2D2D2D2D2D49
:1037B0002D2D2D2D2D2D2D2D2D2D2D2D2D2D2D2D39
:1037C0002D2D2D2D2D2D2D2D2D2D2D2D2D2D2D2D29
:1037D0002D2D2D2D2D2D007374617274000000218C
:1037E00000240027002A002D0030003300010100D2
:1037F00000040107010A0100002200250028002B17
:10380000002E003100340002010000050108010B08
:1038100001000020002300260029002C002F003288
:103820000000010000030106010901050505050767
:103830000508080808020202020A0A08080404042B
:103840000401010101010101010303030303030357
:1038500003040707070C0C0C0C0C0C0C0C020202E6
:103860000206060606060606060B0B0B0B0B0B0BD9
:103870000B01021020200808102040102040800278
:1038800001020108040201010204081020408080A6
:10389000402010080402018004020180402010082A
:1038A0000402010804020101020408102040800102
:1038B0000204081020408000000A0B02090C0D0EC3
:1038C00008070304010000000000000000000000E1
:1038D00000000000000000000000000000000000E8
:1038E00000000012111000000000000000000000A5
:1038F0000000000000000000000000000003E000E5
:103900000C9800180C00201A00303E004071004056
:10391000E10061C300418100400100300600200247
:10392000001FFC0043617061733A005A0059002087
:10393000003F00580009200009200009200009204C
:1039400000462D2D3A2D2D00542D2D3A2D2D0046BB
:103950002D2D3A2D2D0010410008208008208010C8
:1039600041002082004104004104002082001041F7
:1039700000000000FFFFC0FFFFC0104100208200D8
:10398000410400410400208200104100082080080A
:103990002080104100000000FFFFC0FFFFC000E0DA
:1039A0000000E00000E00003F80007FFC007FEC0D1
:1039B00007FC4007FEC007FFC001F00000E0000068
:1039C000400000E00000E00000E00003F80007FF16
:1039D000C007FFC007FFC007FFC007FFC001F0001E
:1039E00000E0000040003FFF00700380E619C0CFF8
:1039F0003CC09F3E40BF3F40BE1F409CCE4081E048
:103A00004081E0409CCE40BE1F40BF3F409F3E40B3
:103A1000CF3CC0E619C07003803FFF003FFF00703D
:103A20000380E3F1C0C3F0C081E04080C040B00338
:103A300040B8C740BDEF40BDEF40B8C740B00340FD
:103A400080C04081E040C3F0C0E3F1C07003803F1C
:103A5000FF004D3130342054302053313930004D87
:103A60003130342054302053323330004D31303433
:103A70002054302053323130004D31303420543016
:103A8000205332343000426173652063616C696297
:103A900072616461004D353030004D6F7665722083
:103AA0005A0047323800506F736963696F6E0025A2
:103AB00069202F2025750050617573617261206C3B
:103AC00061206D617175696E610041637469766131
:103AD000722053656E736F720044652066696C6175
:103AE0006D656E746F0044657361637469766172AD
:103AF0002053656E736F72004D3530300041636541
:103B000070746172002043616E63656C6172004184
:103B10006476657274656E636961004D353030009E
:103B20004D353030004E4F2D436F6E7420646573F9
:103B3000646520626173650053492D436F6E742084
:103B4000556C7420506F736963696F6E00706567A0
:103B50006164612061206C612063616D613F004C94
:103B60006120496D70726573696F6E207369677546
:103B70006500436F6E74696E756172004D3530304B
:103B80000043616E63656C617200436F6E206C610F
:103B900020496D70726573696F6E0044657365616D
:103BA00020636F6E74696E75617200436F72746525
:103BB000206465206C757A21004B7574746572639E
:103BC000726166742053746F7265006B75747465EE
:103BD0007263726166742E636F6D2F73746F72659A
:103BE00000FEDF43F8829F1A08BAEE2AE8BA1B6A81
:103BF000E8BAAD32E8821A0A08FEAAABF8004238E9
:103C0000009FB7D4B8848A31B0860A2F20F023549D
:103C100048F6169308C51066F886CB5B28D84E1F69
:103C2000A8F6C9084014A93CB03E67DA48091D0946
:103C3000E02A457FF0008D78C0FE959AC0829558A5
:103C400098BA9C9FD8BAA78D08BA43E1B8826A0790
:103C500068FEA19CC04D35303000426F72726172B7
:103C60002045737461646973746963610043616DB5
:103C7000626961722056657273696F6E00566F6C6F
:103C80007665722020202020202020202020202047
:103C90002004004D3530300030002D00496E677231
:103CA0006573652047656E65726163696F6E3A0082
:103CB000436F6469676F3A00496E67726573652088
:103CC00047656E65726163696F6E3A003000504BF4
:103CD0003300496E6772657365204D65733A005312
:103CE000616C697200426F7272617200496E677234
:103CF00065736520436F6469676F00436F6469672C
:103D00006F3A0053657269616C3A0030004732388F
:103D1000004B75747465724D656C6F64792020205A
:103D2000205B4F66665D004B75747465724D656C03
:103D30006F647920202020205B4F6E5D00416A7502
:103D4000737461722050494400456E636F646572FC
:103D50002020202020202020205B495A515D00494E
:103D60006E666F206465204D313137202020205B46
:103D70004F66665D00456E636F646572202020208B
:103D800020202020205B4445525D0053656E736FF8
:103D9000722066696C616D656E746F5B4F66665DFF
:103DA00000436F6E6669672E2046616272696361C7
:103DB0000053656E736F722066696C616D656E7419
:103DC0006F205B4F6E5D00496E666F206465204D0D
:103DD00031313720202020205B4F6E5D0047756118
:103DE000726461646F20202020202020205B4F66B9
:103DF000665D00477561726461646F202020202039
:103E0000202020205B4F6E5D00456E766961722038
:103E100047636F646500496E666F726D6163696FB9
:103E20006E2020205B43617061735D00496E666F98
:103E3000726D6163696F6E2020205B436F6F7264E7
:103E40005D004175746F6C6576656C2020202020C4
:103E500020205B4F66665D0053697374656D610079
:103E60004175746F6C6576656C20202020202020C1
:103E7000205B4F6E5D004964696F6D6120202020DA
:103E8000202020202020205B45535D004C6F67726E
:103E90006F7300457374616469737469636100567C
:103EA000657273696F6E00566F6C766572202020A4
:103EB00020202020202020202020200400566F6C6D
:103EC000766572003FFFF860000CC00006800002BB
:103ED00080080280380280380280380280380280F0
:103EE000380280380280000280380285394285839A
:103EF0004286FEC283018281FF028000028FFFE2C0
:103F0000C0000660000C3FFFF83FFFF87FFFFCFF9A
:103F1000FFFEFFFFFEFFF7FEFFC7FEFFC7FEFFC766
:103F2000FEFFC7FEFFC7FEFFC7FEFFFFFEFFC7FE87
:103F3000FAC6BEFA7CBEF9013EFCFE7EFE00FEFF24
:103F4000FFFEF0001EFFFFFE7FFFFC3FFFF83FFF7C
:103F5000F860000CC0000680000280470281C402A5
:103F600081C60281C40281C60281C40281C7028067
:103F7000040281C60281C402800602800402800716
:103F80000280000287FFC2800002C0000660000CB1
:103F90003FFFF83FFFF87FFFFCFFFFFEFFFFFEFF44
:103FA000B8FEFE3BFEFE39FEFE3BFEFE39FEFE3B4A
:103FB000FEFE38FEFFFBFEFE39FEFE3BFEFFF9FE75
:103FC000FFFBFEFFF8FEFFFFFEF8003EFFFFFEFFD7
:103FD000FFFE7FFFFC3FFFF83FFFF860000CC000D2
:103FE0000680000280000281830281C70281EF0205
:103FF00081FF0281BB02819302818302818302815E
:10400000830280000287FF828000028FFFE28FFF21
:10401000E2800002C0000660000C3FFFF83FFFF89E
:104020007FFFFCFFFFFEFFFFFEFFFFFEFE7CFEFEAC
:1040300038FEFE10FEFE00FEFE44FEFE6CFEFE7C20
:10404000FEFE7CFEFE7CFEFFFFFEF8007EFFFFFE14
:10405000F0001EF0001EFFFFFEFFFFFE7FFFFC3F93
:10406000FFF83FFFF860000CC000068000028000EF
:1040700002807C0280FE0281C7028183028183026A
:1040800081FF0281FF02818302818302818302809A
:10409000000283FF828000028FFFE28FFFE2C000F8
:1040A0000660000C3FFFF83FFFF87FFFFCFFFFFEBC
:1040B000FFFFFEFFFFFEFF83FEFF01FEFE38FEFE58
:1040C0007CFEFE7CFEFE00FEFE00FEFE7CFEFE7C14
:1040D000FEFE7CFEFFFFFEFC007EFFFFFEF0001EEA
:1040E000F0001EFFFFFE7FFFFC3FFFF83FFFF86080
:1040F000000CC0000680000280000280000281C225
:104100000281C70281CF8281C70283E70281C70291
:1041100080870280000280000283FF828000028F7D
:10412000FFE28FFFE2800002C0000660000C3FFF4C
:10413000F83FFFF87FFFFCFFFFFEFFFFFEFFFFFEE3
:10414000FFFFFEFE3DFEFE38FEFE307EFE38FEFC2A
:1041500018FEFE38FEFF78FEFFFFFEFFFFFEFC00AC
:104160007EFFFFFEF0001EF0001EFFFFFEFFFFFEC1
:104170007FFFFC3FFFF841206C696E69617220652A
:104180006A65207A003FFFF860000CC000068000DE
:104190000281FF02800002801002803802807C02CF
:1041A00080380280380280380280380280380280ED
:1041B000000283FF828000028FFFE28FFFE2800017
:1041C00002C0000660000C3FFFF83FFFF87FFFFCD5
:1041D000FFFFFEFFFFFEFE00FEFFFFFEFFEFFEFF04
:1041E000C7FEFF83FEFFC7FEFFC7FEFFC7FEFFC778
:1041F000FEFFC7FEFFFFFEFC007EFFFFFEF0001E7D
:10420000F0001EFFFFFEFFFFFE7FFFFC3FFFF84DAB
:104210003234004732380A4D3131380A4D323400D9
:104220004D3233202573003FFFF860000CC00006BC
:1042300080380290FE029BC7829F01C29E00C29FEF
:1042400000629F80628000328000328000328000F5
:10425000628000628000C28301C283C78280FE0246
:10426000803802C0000660000C3FFFF83FFFF87F77
:10427000FFFCFFFFFEFFC7FEEF01FEE4387EE0FE1D
:104280003EE1FF3EE0FF9EE07F9EFFFFCEFFFFCEC0
:10429000FFFFCEFFFF9EFFFF9EFFFF3EFCFE3EFCAA
:1042A000387EFF01FEFFC7FEFFFFFE7FFFFC3FFFE2
:1042B000F8566F6C7665720000446F6E652073610E
:1042C00076696E672066696C652E006572726F7222
:1042D0002077726974696E6720746F2066696C65F7
:1042E00000203A203C3C3C2072756E5F7A5F707211
:1042F0006F62650A0063757272656E745F706F73CA
:104300006974696F6E3D000000A0400000A040008D
:10431000000040203A203E3E3E2072756E5F7A5F7C
:1043200070726F62650A0063757272656E745F7099
:104330006F736974696F6E3D003C3C3C2070726F16
:1043400062655F7074003E20003E200029002C2032
:10435000003E20646F5F626C6F636B696E675F6DB8
:104360006F76655F746F5F78792800203A200A00C5
:1043700063757272656E745F706F736974696F6E66
:104380003D0029002C20002C20003E3E3E20707273
:104390006F62655F70742800506F72206661766F7F
:1043A0007220657370657265004739310A473120A4
:1043B00045313520463135300A4739300A473931E1
:1043C0000A473120452D31303020463330300A47FE
:1043D00039300A4D3834004739310A4731204531E8
:1043E000303020463135300A4739300A4D383400F4
:1043F0004739310A4731205A313020463335303081
:104400000A47393000416A75737465206465204637
:10441000696C616D656E746F0043616C63756C618E
:104420006E646F2E2E2E0050756564652074617267
:1044300064617220756E6F73206D696E75746F7331
:1044400000416A757374616E646F20504944004383
:10445000616C656E74616E646F2E2E2E00506F72EB
:10446000206661766F7220657370657265003FFF2C
:10447000F87FFFFCFFFFFEFFFFFEFFFFFEFFFFFEDA
:10448000FFFFFEFFFFFEE6DE6EE6DE6EEADEAEEA70
:10449000DEAEEADEAEECDECEECC2CEFFFFFEFFFF0C
:1044A000FEFFFFFEFFFFFEFFFFFEFFFFFE7FFFFCA4
:1044B0003FFFF83FFFF860000CC00006800002805C
:1044C000000280000280000280000299219299215E
:1044D00092952152952152952152932132933D324A
:1044E000800002800002800002800002800002C082
:1044F000000660000C3FFFF83FFFF87FFFFCFFFF66
:10450000FEFFFFFEFFFFFEFFFFFEFFFFFEFFFFFEC1
:10451000C2F176DEF776DEF7AEC6F1DEDEF7AEDEAE
:10452000F776DE1176FFFFFEFFFFFEFFFFFEFFFFC7
:10453000FEFFFFFEFFFFFE7FFFFC3FFFF83FFFF89F
:1045400060000CC000068000028000028000028033
:104550000002800002BD0E8AA1088AA10852B90E8D
:1045600022A10852A1088AA1EE8A800002800002DE
:10457000800002800002800002C0000660000C3F44
:10458000FFF83FFFF87FFFFCFFFFFEFFFFFEFFFF8E
:10459000FEFFFFFEFFFFFEFFFFFEF38F1EEDB6FEE8
:1045A000EDB6FEE18F3EEDB7DEEDB7DEED8E3EFF00
:1045B000FFFEFFFFFEFFFFFEFFFFFEFFFFFEFFFF10
:1045C000FE7FFFFC3FFFF83FFFF860000CC00006D5
:1045D0008000028000028000028000028000028CC5
:1045E00070E29249029249029E70C2924822924819
:1045F000229271C2800002800002800002800002CC
:10460000800002C0000660000C3FFFF83FFFF87F0B
:10461000FFFCFFFFFEFFFFFEFFFFFEFFFFFEFFFFB1
:10462000FEFFFFFEE3BF3EEDBEDEEDBEDEE3BE1EDF
:10463000EFBEDEEFBEDEEF86DEFFFFFEFFFFFEFF1A
:10464000FFFEFFFFFEFFFFFEFFFFFE7FFFFC3FFFC1
:10465000F83FFFF860000CC00006800002800002F6
:104660008000028000028000029C40C2924122929F
:1046700041229C41E2904122904122907922800087
:1046800002800002800002800002800002C000065A
:1046900060000C3FFFF850726564657465726D6967
:1046A0006E61646F004578747275736F723A006C56
:1046B000612074656D706572617475726100536517
:1046C0006C656363696F6E65004731205A31352030
:1046D000463430300A473238205A0A4731205A309F
:1046E000004731205A31300A4732380A4D383400F9
:1046F000506F736963696F6E2034206465203400E5
:104700004731205A31300A4731205831373020594B
:1047100034302046323030300A473238205A0A4787
:1047200031205A3000506F736963696F6E203320F7
:1047300064652034004731205A31300A473120580F
:10474000343020593135302046323030300A47324B
:1047500038205A0A4731205A30001FFFFFF03FFF30
:10476000FFF87FFFFFFCFFFFFFFEFFF83FFEFFE0CB
:104770000FFEFF8003FEF70381FEF20FE0FEF01F45
:10478000F07EF03FF87EF07FFC3EF03FFE3EF01FF3
:10479000FE1EFFFFFF1EFFFFFF1EFFFFFF1EFFFFAE
:1047A000FE1EFFFFFE3EFFFFFC3EFFFFF87EFF9F69
:1047B000F07EFF0FE0FEFF0381FEFF8003FEFFE0BF
:1047C0000FFEFFF83FFE7FFFFFFC3FFFFFF81FFFDC
:1047D000FFF01FFFFFF0300000186000000CC00069
:1047E00000068007C002801FF002807FFC0288FC68
:1047F0007E028DF01F028FE00F828FC007828F80B4
:1048000003C28FC001C28FE001E2800000E280009D
:1048100000E2800000E2800001E2800001C280002E
:1048200003C28000078280600F8280F01F0280FC3C
:104830007E02807FFC02801FF002C007C00660007D
:10484000000C300000181FFFFFF0506F73696369A0
:104850006F6E20322064652034004731205A313099
:104860000A4731205831373020593135302046320F
:104870003030300A473238205A0A4731205A300047
:10488000506F736963696F6E203120646520340056
:104890004731205A31300A473120583430205934BA
:1048A000302046323030300A473238205A0A4731F9
:1048B000205A3000FFFFFFFFFFFFFFFFFFFFFFFF5A
:1048C000E080000000000000000000000020B1C7F0
:1048D0001C71C71C71C71C71C71C20A38E38E38EC6
:1048E00038E38E38E38E38A0871C71C71C71C71C53
:1048F00071C71C71A08000000000000000000000D3
:104900000020FFFFFFFFFFFFFFFFFFFFFFFFE0FFB4
:10491000FFFFFFFFFFFFFFFFFFFFFFE08000000042
:104920000000000000000000208E38E38E38E38E87
:1049300038E38E38E3A09C71C71C71C71C71C71C7B
:1049400071C720B8E38E38E38E38E38E38E38E20CB
:1049500080000000000000000000000020FFFFFFBA
:10496000FFFFFFFFFFFFFFFFFFE0506F7220666158
:10497000766F722065737065726500473238001F6C
:10498000FFFFF03FFFFFF87FFFFFFCFFFFFFFEFF91
:10499000FFFFFEFE0000FEFE0000FEFFFFFFFEFF29
:1049A000FFFFFEFFFEFFFEFFFC7FFEFFF83FFEFF66
:1049B000F01FFEFFE00FFEFFF83FFEFFF83FFEFF97
:1049C000F83FFEFFF83FFEFFF83FFEFFF83FFEFF17
:1049D000FFFFFEFFFFFFFEFE0000FEFFFFFFFEF8F1
:1049E00000003EF800003EFFFFFFFE7FFFFFFC3FA0
:1049F000FFFFF81FFFFFF01FFFFFF03000001860FF
:104A000000000CC00000068000000281FFFF028150
:104A1000FFFF02800000028000000280010002808F
:104A20000380028007C002800FE002801FF0028036
:104A300007C0028007C0028007C0028007C0028052
:104A400007C0028007C002800000028000000281CF
:104A5000FFFF028000000287FFFFC287FFFFC2C086
:104A60000000066000000C300000181FFFFFF01F60
:104A7000FFFFF03FFFFFF87FFFFFFCFFFFFFFEFFA0
:104A8000FFFFFEFFF83FFEFFF83FFEFFF83FFEFF8F
:104A90008000FEFF8000FEFF800CFEFF801EFEFFF8
:104AA000801EFEFF800CFEFF8000FEFF8000FEFFE8
:104AB000F01FFEFFF01FFEFFF83FFEFFFC7FFEFF32
:104AC000FEFFFEFFFFFFFEFE0000FEFFFFFFFEFEFB
:104AD0000000FEF800003EFFFFFFFE7FFFFFFC3FEF
:104AE000FFFFF81FFFFFF01FFFFFF030000018600E
:104AF00000000CC0000006800000028007C0028099
:104B000007C0028007C002807FFF02807FFF028013
:104B10007FF302807FE102807FE102807FF30280E9
:104B20007FFF02807FFF02800FE002800FE00280A3
:104B300007C0028003800280010002800000028121
:104B4000FFFF028000000281FFFF0287FFFFC2C05B
:104B50000000066000000C300000181FFFFFF0434B
:104B6000616C69627261720001060A00FE0701361B
:104B7000026820FFFE08FE07FE0A00602217678019
:104B8000808080800080163363A0A0A00257675009
:104B900050F850F850500257672070A070287020CD
:104BA00002576748A8502050A89002576740A0A01D
:104BB00040A8906826136380808012376720408069
:104BC000808040201237678040202020408003559D
:104BD000658850F850880355652020F8202011334F
:104BE00063604080055161F811336340E040025733
:104BF0006708081020408080025767205088888806
:104C000050200257672060A0202020F802576770CC
:104C10008808304080F8025767F80810300888701C
:104C200002576710305090F81010025767F880B0A4
:104C3000C8088870025767304080B0C88870025733
:104C400067F8081010204040025767708888708805
:104C5000887002576770889868081060113767403D
:104C6000E0400040E04011376740E0400060408095
:104C700012476710204080402010045363F800F86A
:104C800012476780402010204080025767708810CC
:104C900020200020025767708898A8B080700257C3
:104CA0006720508888F88888025767F0484870481D
:104CB00048F002576770888080808870025767F0DC
:104CC0004848484848F0025767F88080F08080F8EC
:104CD000025767F88080F080808002576770888074
:104CE00080988870025767888888F8888888123783
:104CF00067E04040404040E0025767381010101015
:104D000090600257678890A0C0A090880257678083
:104D10008080808080F80257678888D8A888888833
:104D20000257678888C8A89888880257677088885B
:104D300088888870025767F08888F08080800158E2
:104D4000687088888888A87008025767F08888F09B
:104D5000A090880257677088807008887002576733
:104D6000F82020202020200257678888888888889B
:104D7000700257678888885050502002576788888B
:104D800088A8A8D888025767888850205088880249
:104D9000576788885020202020025767F808102085
:104DA0004080F8123767E08080808080E00257679B
:104DB00080804020100808123767E0202020202043
:104DC000E0065363205088015161F8282262804038
:104DD00002556570087888780257678080B0C88867
:104DE000C8B00255657088808870025767080868E7
:104DF000988898680255657088F880700257673007
:104E00004840F040404000576778888878088870AC
:104E10000257678080B0C88888881237674000C012
:104E2000404040E010496910003010101090906030
:104E300002576780808890E09088123767C04040B2
:104E4000404040E0025565D0A8A8A888025565B04A
:104E5000C88888880255657088888870005767B050
:104E6000C888C8B080800057676898889868080824
:104E7000025565B0C880808002556570807008F06A
:104E80000257674040F040404830025565888888A6
:104E9000986802556588885050200255658888A812
:104EA000A850025565885020508800576788889818
:104EB00068088870025565F8102040F8124767307E
:104EC0004020C02040302217678080808080808012
:104ED000124767C02040304020C006536348A89066
:104EE000FFFFFFFFFFFFFFFFFFFFFFFFFFFFFFFFD2
:104EF000FFFFFFFFFFFFFFFFFFFFFFFFFFFFFFFFC2
:104F0000FF0A006022176780008080808080015740
:104F1000672078A0A0A07820025767304840E04082
:104F200048B002556588705070880158688888506C
:104F300020F8202020221767808080008080800158
:104F400058687080E09048380870193161A00257A5
:104F5000677088A8C8A888701346667090B0500023
:104F6000F00265652448904824144262F01015410F
:104F700061F00257677088E8C8C88870095161F805
:104F800016336340A0400256662020F82020F81512
:104F9000456560902040F0154565E0106010E02800
:104FA00022624080015666888888C8B080025767B0
:104FB00078E8E8682828282511618020226240804E
:104FC00015356540C04040E0134666609090600033
:104FD000F0026565904824489001696940C04040EE
:104FE000E40C143C0401696940C04040E814040822
:104FF0001C015969C0204020C8182878080257674A
:10500000200020204088700258684020708888F86E
:1050100088880258681020708888F8888802586844
:105020002050708888F8888802586848B07088884E
:10503000F888880258685000708888F88888025874
:10504000682050708888F888880267673C50909C78
:10505000F0909C00596970888080808870204002A0
:10506000586840F88080F08080F802586810F88016
:1050700080F08080F802586820F88080F08080F806
:1050800002586850F88080F08080F81238688040BC
:10509000E040404040E01238682040E0404040405E
:1050A000E012386840A0E040404040E0123868A07C
:1050B00000E040404040E0025767F04848E8484878
:1050C000F0025868285088C8A89888880258684014
:1050D00020708888888870025868102070888888B6
:1050E00088700258682050708888888870025868D4
:1050F00028507088888888700258685000708888A6
:1051000088887002556588502050880257677098CB
:1051100098A8C8C870025868402088888888887015
:105120000258681020888888888870025868205043
:105130000088888888700258685000888888888825
:1051400070025868102088885020202002576780FD
:10515000F088F0808080025767708890A09088B0B7
:10516000025868402000700878887802586810203B
:105170000070087888780258682050007008788895
:10518000780258682850007008788878025767506D
:105190000070087888780258682050207008788855
:1051A0007802656578147C907C00576770888088E9
:1051B0007020400258684020007088F880700258C3
:1051C000681020007088F8807002586820500070C5
:1051D00088F8807002576750007088F88070123825
:1051E00068804000C0404040E0123868408000C005
:1051F000404040E012386840A000C0404040E0120B
:105200003767A000C0404040E0025767C030708858
:10521000888870025868285000B0C888888802586A
:1052200068402000708888887002586810200070DC
:1052300088888870025868205000708888887002BA
:10524000586828500070888888700257675000702E
:10525000888888700355652000F80020025565781D
:1052600098A8C8F00258684020008888889868028A
:105270005868102000888888986802586820500074
:1052800088888898680257675000888888986800DE
:10529000596910208888986808887000586880F0DC
:1052A000888888F08080005969500088889868084C
:1052B000887043616D61204F6B2E0043616C656E99
:1052C00074616E646F2043616D612E005365747468
:1052D000696E672054726176656C20616363656CEA
:1052E00065726174696F6E3A200053657474696EFB
:1052F00067205265747261637420616363656C65D5
:10530000726174696F6E3A200053657474696E67D8
:10531000205072696E7420616363656C657261749C
:10532000696F6E3A200053657474696E672050721D
:10533000696E7420616E642054726176656C2061C0
:105340006363656C65726174696F6E3A2000204911
:105350006E76616C696420686F74656E64004D00E0
:105360002C002C002000486F74656E64206F666608
:10537000736574733A00496E76616C696420657870
:105380007472756465720020443A0020493A002026
:10539000503A0048004D343231207265717569729F
:1053A00065732058595A206F7220494A5A207061FB
:1053B00072616D6574657273004D6573682058592C
:1053C000206F7220494A2063616E6E6F742062659F
:1053D000207265736F6C766564004D657368205844
:1053E00059206F7220494A2063616E6E6F7420628B
:1053F00065207265736F6C766564005265746972BE
:10540000616E646F200A005265746972616E646F28
:10541000200A0063617267616E646F200A00566F34
:105420006C76657200303100506F736963696F6E1E
:1054300020303100303100303200506F73696369C1
:105440006F6E20303200303200303300506F73699D
:1054500063696F6E20303300303300303400506F9A
:10546000736963696F6E203034003034003035006A
:10547000506F736963696F6E2030350030350030CE
:105480003600506F736963696F6E203036003036B6
:1054900000303700506F736963696F6E20303700DA
:1054A000303700303800506F736963696F6E203099
:1054B00038003038003039007FFCC006800280029E
:1054C00080028002800280028002800280028002CC
:1054D0008002C0067FFC506F736963696F6E203075
:1054E00039003039007FFCFFFEFFFEFFFEFFFEFFAC
:1054F000FEFFFEFFFEFFFEFFFEFFFEFFFEFFFEFFC4
:10550000FE7FFC4D353030006E6F20646562652093
:10551000616374697661727365005B4F4E5D4375BC
:10552000696461646F20456E6473746F70205A0003
:10553000506172612063616C6962726172005B4FDD
:1055400046465D55736520456E6473746F70205ACE
:10555000004D3432302053310A4D353030004D3457
:1055600032302053300A4D3530300041636570745D
:105570006172002043616E63656C61720041647604
:10558000657274656E636961005365726120506570
:10559000726D616E656E7465005265696E696369EE
:1055A000617220536574656F732066616272004D8D
:1055B0003530320A4D3530300041636570746172A8
:1055C000002043616E63656C6172004164766572B0
:1055D00074656E636961002900646F5F70726F6249
:1055E000655F72616973652800496E666F3A0043B2
:1055F000616E6E6F7420656E74657220737562647F
:1056000069723A20006F70656E206661696C65642E
:105610002C2046696C653A200057726974696E6780
:1056200020746F2066696C653A20006F70656E208B
:105630006661696C65642C2046696C653A20004699
:10564000696C652073656C656374656400205369DB
:105650007A653A200046696C65206F70656E6564F6
:105660003A20004D353030005354415254205052AE
:10567000494E5445523A0053442063617264206F8E
:105680006B00534420696E6974206661696C004543
:1056900072726F723A0000060900FE070192032140
:1056A00020FFFF08FF07FF000000060000010707BA
:1056B00006020080808080800080030202060105CF
:1056C000A0A00507070600005050F850F8505005FC
:1056D00007070600002078A07028F02005070706BD
:1056E0000000C0C810204098180507070600006099
:1056F00090A040A89068020303060104C040800304
:10570000070706010020408080804020030707062D
:105710000100804020202040800505050600012072
:10572000A870A8200505050600012020F820200209
:1057300003030602FFC04080050101060003F802D2
:105740000202060200C0C00505050600010810207F
:1057500040800507070600007088888888887003E5
:10576000070706010040C040404040E0050707062B
:105770000000708808708080F8050707060000F8B0
:105780001020100808F005070706000010305090A0
:10579000F81010050707060000F880F00808887068
:1057A000050707060000708080F0888870050707ED
:1057B000060000F80810202020200507070600003A
:1057C00070888870888870050707060000708888D0
:1057D00078080870020505060200C0C000C0C002BB
:1057E00006060602FFC0C000C0408004070706008E
:1057F0000010204080402010050303060002F8003E
:10580000F8040707060100804020102040800507AB
:105810000706000070880810200020050707060012
:105820000070880868A8A87005070706000070883F
:1058300088F8888888050707060000F08888F088BF
:1058400088F0050707060000708880808088700552
:105850000707060000F08888888888F00507070693
:105860000000F88080F08080F8050707060000F847
:105870008080F0808080050707060000708880B86F
:10588000888870050707060000888888F888888857
:10589000010707060200808080808080800507075E
:1058A0000600003810101010906005070706000071
:1058B0008890A0C0A090880507070600008080801F
:1058C000808080F805070706000088D8A8888888A7
:1058D000880507070600008888C8A89888880507F3
:1058E000070600007088888888887005070706000A
:1058F00000F08888F0808080050707060000708827
:105900008888A89068050707060000F08888F0A03E
:105910009088050707060000788080700808F00569
:105920000707060000F82020202020200507070692
:105930000000888888888888700507070600008826
:10594000888888885020050707060000888888888E
:1059500088A85005070706000088885020508888CE
:1059600005070706000088888850202020050707C3
:10597000060000F80810204080F803070706010021
:10598000E08080808080E0050505060001804020E1
:105990001008030707060100E02020202020E00572
:1059A0000303060004205088050101060000F802E8
:1059B0000202060205804005050506000070087811
:1059C00088780507070600008080B0C88888F00541
:1059D0000505060000708080887005070706000036
:1059E000080868988888780505050600007088F81A
:1059F00080700507070600003048E0404040400541
:105A000006060600FF7088887808700507070600FC
:105A1000008080B0C88888880107070602008000DF
:105A200080808080800308080601FF20002020205D
:105A300020A040040707060000808090A0C0A0902E
:105A4000030707060100C04040404040E00505054F
:105A5000060000D0A8A8A8A8050505060000B0C843
:105A60008888880505050600007088888870050606
:105A7000060600FFF08888F080800506060600FF15
:105A8000788888780808050505060000B0C8808079
:105A90008005050506000070807008F00407070601
:105AA00000004040E0404040300505050600008809
:105AB00088889868050505060000888888502005B4
:105AC00005050600008888A8A85005050506000001
:105AD00088502050880506060600FF8888887808C8
