:100000000C9485430C94B6430C94B6430C94B643BD
:100010000C94B6430C94B6430C94B6430C94B6437C
:100020000C94B6430C94B6430C94B6430C94B6436C
:100030000C94B6430C948D800C94B6430C94B64348
:100040000C94B6430C94ADBC0C94B6430C94B643DC
:100050000C94B6430C94B6430C9413ED0C9443806B
:100060000C94B6430C94BE5E0C948E5E0C94B64316
:100070000C94B6430C94B6430C94B6430C94B6431C
:100080000C94B6430C94B6430C94B6430C94B6430C
:100090000C94B6430C94B6430C94B6430C94B643FC
:1000A0000C94B6430C94B6430C94B6430C94B643EC
:1000B0000C94B6430C94B6430C94B6430C94B643DC
:1000C0000C94B6430C94B6430C94B6430D9495002F
:1000D0000C942B810C94B6430C94B6430C94B64309
:1000E0000C94B643C278C578CA78CD78D078D378E6
:1000F000D678D978DC78DF78E578EB78F1781A79FA
:100100001D7920792379267929792C792F793279EB
:10011000357938793D7955794A7D4D7D3C7D407DF5
:10012000467D847D517D557D5B7D5F7D637D697DF1
:100130006D7D717D847D777D7B7D7F7D5F7F647F3D
:10014000697F737F7D7FF67F877F8F7F977FA17F1A
:10015000AB7FB57FC47FCE7FF67FD87FE27FEC7F19
:100160006FED7FED9EEDAEEDC9EDCEEDD1EDD6EDAF
:10017000D9EDDEEDE1EDE6EDE9EDEEEDF1EDF6EDDB
:10018000F9EDFEED08EE49011D011B015101790158
:1001900057013901550129014D017F0119017B01E9
:1001A000430193013D0181016D015B013F01650147
:1001B0006301150123014F017701250195016F01AD
:1001C0005D0185018D0197012701990117018301C7
:1001D0004B014701590191017301084AD73B3BCEBE
:1001E000016E84BCBFFDC12F3D6C74319ABD568336
:1001F0003DDA3D00C77F11BED9E4BB4C3E916BAAEE
:10020000AABE000000803F05A84CCDB2D44EB9383C
:1002100036A9020C50B9918688083CA6AAAA2ABE23
:10022000000000803F000D94E20F0D9482310D9488
:1002300079320D94932F0D9466000D948A000D94DD
:100240000A030D942B000D9495310D94CE310D942D
:1002500053320D94552F0D9499110D9404040D945F
:10026000BF110D9439010D94722E0D94FD020D9461
:10027000ED000D9480000D9457020D94E72F0D941E
:1002800049310D94CF110D94BD2F0D94CD020D94D5
:10029000B2320D9444000D949F320D946A2F0D9448
:1002A000A8310D9461000D94DF110D94402F0D9431
:1002B00042000D94C5320D9425300D9407320D94F3
:1002C0007E300D9473020D946F310D945C310D945A
:1002D000F9100D9458430D94F0020D9410300D94C4
:1002E000F4310D94FF130D94EB320D94EB100D943B
:1002F000BB310D9477000D94A82F0D94D10F0D9460
:100300007E2F0D94FB2F0D948C320D941A320D9488
:10031000762D0D944F300D94DC100D942D320D94EC
:1003200017030D94D8320D94D22F0D94E1310D9412
:1003300040320D9466324E414E494E495459494E11
:1003400046CDCCCC3D0AD7233C17B7D13877CC2B40
:10035000329595E6241FB14F0A000020410000C8E5
:100360004200401C4620BCBE4CCA1B0E5AAEC59D66
:100370007400407A10F35A00A0724E18090010A5BC
:10038000D4E80000E87648170000E40B54020000AF
:10039000CA9A3B000000E1F5050000809698000035
:1003A0000040420F000000A086010000001027005E
:1003B000000000E803000000006400000000000AE4
:1003C00000000000000100000000002C76D888DC4E
:1003D000674F0823DFC1DFAE59E1B1B796E5E3E42B
:1003E00053C63AE651997696E8E6C28426EB898CA4
:1003F0009B62ED407C6FFCEFBC9C9F40F2BAA56F06
:10040000A5F490055A2AF75C936B6CF9676DC11BD4
:10041000FCE0E40D47FEF520E6B500D0ED902E039C
:1004200000943577050080841E080000204E0A00E5
:100430000000C80C333333330F986E12831141EF31
:100440008D2114893BE65516CFFEE6DB18D1844B8F
:10045000381BF77C1D901DA4BBE424203284725EFF
:10046000228100C9F124ECA1E53D27414C4C004319
:100470004F4D4D554E49434154494F4E00445259FA
:1004800052554E004552524F525300494E464F006E
:100490004543484F005265706F736F2E2E2E005AE1
:1004A000206E6F7420656E74657265642E005A202C
:1004B0006E6F7420656E74657265642E0059206ECF
:1004C0006F7420656E74657265642E0059206F75B7
:1004D00074206F662072616E67652028312D332984
:1004E0002E0058206E6F7420656E74657265642EE0
:1004F0000058206F7574206F662072616E676520EA
:1005000028312D33292E00473238004D657368207D
:1005100070726F62696E6720646F6E652E0053742F
:10052000617274206D6573682070726F62696E67A6
:10053000207769746820224732392053312220669F
:10054000697273742E004732380A473239205332A9
:10055000004D65736820626564206C6576656C6922
:100560006E67206E6F74206163746976652E00205B
:1005700020004D6561737572656420706F696E74DB
:10058000733A005A206F66667365743A20005A20E9
:10059000736561726368206865696768743A2000F2
:1005A0002C004E756D20582C593A200053746174FC
:1005B000653A200053206F7574206F662072616E5B
:1005C00067652028302D35292E003C3C3C20676390
:1005D0006F64655F47333000205A3A200020593A53
:1005E000200020583A2000426564003E3E3E2067CD
:1005F000636F64655F47333000205A3A200020590A
:100600003A200020583A20004265640020453A0014
:10061000205A3A0020593A003C2D583A0020530005
:10062000536176656420706F736974696F6E0049F9
:100630006E76616C696420736C6F742C20746F74B7
:10064000616C20736C6F74733A20003A0020002DA7
:100650003E00205300526573746F72696E6720709C
:100660006F736974696F6E00496E76616C6964209E
:10067000736C6F742C20746F74616C20736C6F7466
:10068000733A20005374617274205072696E7469F9
:100690006E670053746F70205072696E74696E6774
:1006A0000053696E206D6F76696D69656E746F00B9
:1006B000456E642066696C65206C697374004265E0
:1006C00067696E2066696C65206C697374002F0021
:1006D0005344207072696E74696E67206279746524
:1006E00020004E6F74205344207072696E74696EDE
:1006F00067005072696E742074696D652000256909
:10070000682025696D2025697300256964202569A5
:10071000682025696D2025697300446972656374DA
:100720006F727920637265617465640043726561FC
:1007300074696F6E206661696C656400436C6F73E9
:10074000652066696C6520616E6420736176652042
:10075000726573746172742E67636F6465002061E3
:100760006E64207374617274207072696E742E00EE
:100770004F70656E2066696C653A200046696C6151
:100780006D656E74207072696E7465643A20002025
:100790002025754B6D2025756D202575636D2025F1
:1007A000756D6D00506F776572206F6E2074696D86
:1007B000653A200020202575206461797320257515
:1007C00020686F757273202575206D696E7574656C
:1007D0007300546F74616C207072696E7420746958
:1007E0006D653A20002020257520646179732025ED
:1007F0007520686F757273202575206D696E75742C
:100800006573002C204661696C65643A20002C20D9
:1008100046696E69736865643A20005072696E7447
:1008200020737461746973746963733A20546F74CC
:10083000616C3A20004B7574746572637261667402
:10084000204F46462E0043616C656E74616E646F86
:100850002E2E2E004B75747465726372616674205F
:100860006C697374612E006F66660090048B04845B
:10087000047D046F046B0444656275673A0050415F
:100880005241444120444520454D4552472E004D9C
:100890003131332053004649524D574152455F4E46
:1008A000414D453A4B555454455243524146545F8D
:1008B0005620342E302E30204649524D5741524555
:1008C0005F55524C3A687474703A2F2F7777772EB1
:1008D0006B757474657263726166742E636F6D2FCD
:1008E000736F6674776172652050524F544F434F57
:1008F0004C5F56455253494F4E3A322E30204D41AF
:100900004348494E455F545950453A4361727465B6
:100910007369616E2045585452554445525F434FA8
:10092000554E543A3220555549443A333234626672
:100930006134322D613432372D313165362D383006
:1009400066352D3736333034646563376562370A70
:10095000006373746570733A2000205A00205900B8
:10096000580020204D61783A2000205A002059007C
:10097000580020204D696E3A2000536F6674206540
:100980006E6473746F70733A00496E76616C69645B
:100990002065787472756465720020443A002049BD
:1009A0003A0020503A00480043290061626C6564B7
:1009B00020286D696E2074656D702000436F6C6433
:1009C0002065787472756465732061726520004DCE
:1009D000313137205049442041637475616C697A24
:1009E00061646F004D353030004F6666736574206A
:1009F0006170706C6965642E004F66667365742063
:100A00006170706C6965642E004572723A20546F93
:100A10006F206661722100546F6F206661722066DC
:100A2000726F6D207265666572656E636520706FAA
:100A3000696E7400436170613A200020496E7661EE
:100A40006C69642065787472756465720054004145
:100A500063746976652045787472756465723A20AE
:100A600000416374697665204472697665723A2044
:100A7000003C3C3C2067636F64655F5400203A2073
:100A800041465445520A0063757272656E745F7018
:100A90006F736974696F6E3D00203A204245464F7E
:100AA00052450A0063757272656E745F706F736988
:100AB00074696F6E3D0029003E3E3E2067636F649F
:100AC000655F5428002200436F6D616E646F206E75
:100AD0006F20656E636F6E747261646F3A202200DE
:100AE0004D363030004D3630300073652061637410
:100AF00069766F2031004563686F3A004572726F06
:100B0000722077726974696E6720746F2045455052
:100B1000524F4D210020627974657329005365742A
:100B200074696E67732053746F7265642028004582
:100B30004550524F4D20636865636B73756D206D32
:100B400069736D61746368002D2D2D2D2D2D2D2D54
:100B50002D2D2D2D2D2D2D2D2D2D2D2D2D2D2D2DC5
:100B60002D2D2D2D2D2D2D2D2D2D2D2D2D2D2D2DB5
:100B70002D2D2D2D2D2D2D2D2D2D2D2D2D2D2D2DA5
:100B80002D2D2D2D2D2D2D2D2D2D2D2D002062794E
:100B90007465732900202020202020202020202080
:100BA000202020202053746F726564207365747454
:100BB000696E677320726574726965766564202852
:100BC000005D2053746F7265642076657273696F7F
:100BD0006E3A205B0056657273696F6E3A205B0057
:100BE0002D2D2D2D2D2D2D2D2D2D2D2D2D2D2D2D35
:100BF0002D2D2D2D2D2D2D2D2D2D2D2D2D2D2D2D25
:100C00002D2D2D2D2D2D2D2D2D2D2D2D2D2D2D2D14
:100C10002D2D2D2D2D2D2D2D2D2D2D2D2D2D2D2D04
:100C20002D2D2D2D002D2D2D2D2D2D2D2D2D2D2D21
:100C30002D2D2D2D2D2D2D2D2D2D2D2D2D2D2D2DE4
:100C40002D2D2D2D2D2D2D2D2D2D2D2D2D2D2D2DD4
:100C50002D2D2D2D2D2D2D2D2D2D2D2D2D2D2D2DC4
:100C60002D2D2D2D2D2D2D2D2D002D2D2D2D2D2DE1
:100C70002D2D2D2D2D2D2D2D2D2D2D2D2D2D2D2DA4
:100C80002D2D2D2D2D2D2D2D2D2D2D2D2D2D2D2D94
:100C90002D2D2D2D2D2D2D2D2D2D2D2D2D2D2D2D84
:100CA0002D2D2D2D2D2D2D2D2D2D2D2D2D2D0020AE
:100CB000450020204D323035205400204500205A78
:100CC00000205800204200205600202020202053E1
:100CD00000002020202020202020285A3D6D61780F
:100CE000696D756D205A206A65726B20286D6D2FB5
:100CF00073292C2020453D6D6178696D756D204507
:100D0000206A65726B20286D6D2F732929002020C1
:100D10002020202028423D6D696E696D756D20731D
:100D200065676D656E742074696D6520286D732923
:100D30002C20583D6D6178696D756D205859206A79
:100D400065726B20286D6D2F7329290020202020CB
:100D500020202028533D4D696E20666565647261D0
:100D6000746520286D6D2F73292C20563D4D696EBA
:100D70002074726176656C20666565647261746565
:100D800020286D6D2F73292900202020202020206D
:100D90002020202020202020202020202020202053
:100DA0002020202020202020284D323035290020EE
:100DB0002020202020202020202020202020202033
:100DC0002020202020202020202020207C4164760C
:100DD000616E6365647C002D2D2D2D2D2D2D2D2D07
:100DE0002D2D2D2D2D2D2D2D2D2D2D2D2D2D2D2D33
:100DF0002D2D2D2D2D2D2D2D2D2D2D2D2D2D2D2D23
:100E00002D2D2D2D2D2D2D2D2D2D2D2D2D2D2D2D12
:100E10002D2D2D2D2D2D2D2D2D2D2D002020202063
:100E200020202020202020202020202020202020C2
:100E3000202020436F6E66696775726174696F6EFA
:100E400020416476616E636564002D2D2D2D2D2D5E
:100E50002D2D2D2D2D2D2D2D2D2D2D2D2D2D2D2DC2
:100E60002D2D2D2D2D2D2D2D2D2D2D2D2D2D2D2DB2
:100E70002D2D2D2D2D2D2D2D2D2D2D2D2D2D2D2DA2
:100E80002D2D2D2D2D2D2D2D2D2D2D2D2D2D0020CC
:100E9000204D32303020543120440020204D32305B
:100EA0003020440046696C616D656E742073657412
:100EB00074696E67733A0020440020490020500096
:100EC0002020202020202020202020202020202022
:100ED000480020202020202020202020202020200A
:100EE0002020202020202020202020202020202002
:100EF00020284D33303129002020202020202020A0
:100F000020202020202020202020202020202020E1
:100F10002020207C5049442073657474696E677387
:100F20007C002D2D2D2D2D2D2D2D2D2D2D2D2D2DCF
:100F30002D2D2D2D2D2D2D2D2D2D2D2D2D2D2D2DE1
:100F40002D2D2D2D2D2D2D2D2D2D2D2D2D2D2D2DD1
:100F50002D2D2D2D2D2D2D2D2D2D2D2D2D2D2D2DC1
:100F60002D2D2D2D2D2D0020202020202020202053
:100F70002020202020202020202020202020202071
:100F8000436F6E66696775726174696F6E20504950
:100F900044002D2D2D2D2D2D2D2D2D2D2D2D2D2D97
:100FA0002D2D2D2D2D2D2D2D2D2D2D2D2D2D2D2D71
:100FB0002D2D2D2D2D2D2D2D2D2D2D2D2D2D2D2D61
:100FC0002D2D2D2D2D2D2D2D2D2D2D2D2D2D2D2D51
:100FD0002D2D2D2D2D2D0020204D36363620500064
:100FE0005A2050726F6265206F66667365742028A0
:100FF0006D6D293A00205A002059002020473239CF
:1010000020533320580020590020580020204D3410
:1010100032302053004D65736820626564206C6532
:1010200076656C696E673A00205A00205900205896
:1010300000202020202020202020202020202020D0
:10104000202020540020202020202020202020208C
:10105000202020202020202020202020207C486FBD
:1010600074656E64206F666673657420286D6D29E3
:101070007C00202020202020202020202020202034
:101080002020202020202020202020202020202060
:1010900020284D32313829002020202020202020F7
:1010A0002020202020202020202020202020202040
:1010B0007C486F74656E64206F6666736574202863
:1010C0006D6D297C0000205A00205900202020202E
:1010D00020202020202020202020202020202058D8
:1010E0000020202020202020202020202020202020
:1010F00020202020202020202020202020202020F0
:10110000284D323036290020202020202020202089
:1011100020202020202020202020202020202020CF
:101120007C486F6D65206F666673657420286D6DF1
:10113000297C002D2D2D2D2D2D2D2D2D2D2D2D2DC1
:101140002D2D2D2D2D2D2D2D2D2D2D2D2D2D2D2DCF
:101150002D2D2D2D2D2D2D2D2D2D2D2D2D2D2D2DBF
:101160002D2D2D2D2D2D2D2D2D2D2D2D2D2D2D2DAF
:101170002D2D2D2D2D2D2D00202020202020202034
:10118000202020202020202020202020202020205F
:10119000436F6E66696775726174696F6E206F6602
:1011A00066736574002D2D2D2D2D2D2D2D2D2D2D9E
:1011B0002D2D2D2D2D2D2D2D2D2D2D2D2D2D2D2D5F
:1011C0002D2D2D2D2D2D2D2D2D2D2D2D2D2D2D2D4F
:1011D0002D2D2D2D2D2D2D2D2D2D2D2D2D2D2D2D3F
:1011E0002D2D2D2D2D2D2D2D2D002D2D2D2D2D2D5C
:1011F0002D2D2D2D2D2D2D2D2D2D2D2D2D2D2D2D1F
:101200002D2D2D2D2D2D2D2D2D2D2D2D2D2D2D2D0E
:101210002D2D2D2D2D2D2D2D2D2D2D2D2D2D2D2DFE
:101220002D2D2D2D2D2D2D2D2D2D2D2D2D2D002028
:1012300020202020202020202020202020202020AE
:1012400053656E736F722064652066696C616D65AD
:101250006E746F3A20002D2D2D2D2D2D2D2D2D2D21
:101260002D2D2D2D2D2D2D2D2D2D2D2D2D2D2D2DAE
:101270002D2D2D2D2D2D2D2D2D2D2D2D2D2D2D2D9E
:101280002D2D2D2D2D2D2D2D2D2D2D2D2D2D2D2D8E
:101290002D2D2D2D2D2D2D2D2D2D002052002020DA
:1012A000202020202020202020202020202020203E
:1012B0002020202020202020540000205600202024
:1012C000202020202020202020202020202020201E
:1012D00020202050002020202020202020202020FE
:1012E00020284D32303420503D7072696E74696E22
:1012F000672C20563D74726176656C20616E6420A7
:10130000542A20523D726574726163742900202052
:1013100020202020202020202020202020202020CD
:1013200020202020202020207C416363656C657292
:101330006174696F6E737C000020450020204D327F
:101340003031205400204500205A00205900202030
:10135000202020202020202020202020202020208D
:101360002020202058002020202020202020202065
:10137000202020202020202020202020202020206D
:101380002020202020284D3230312900202020200C
:101390002020202020202020202020202020207CF1
:1013A0004D6178696D756D20416363656C6572612F
:1013B00074696F6E20286D6D2F7332297C00204573
:1013C0000020204D32303320540000204500205AA8
:1013D00000205900202020202020202020202058DC
:1013E000002020202020202020202020202020201D
:1013F00020202020202020202020202020202020ED
:10140000284D323033290020202020202020202089
:101410002020202020202020202020207C4D6178AA
:10142000696D756D206665656472617465732028E9
:101430006D6D2F73297C000020450020204D39322E
:10144000205400436F6E6669673A00204500205AB9
:10145000002059002020202020202020202020585B
:10146000002020202020202020202020202020209C
:10147000202020202020202020202020202020206C
:10148000284D393229002020202020202020202013
:10149000202020202020202020202020202020204C
:1014A0007C53746570732070657220756E69747CEE
:1014B000002D2D2D2D2D2D2D2D2D2D2D2D2D2D2D89
:1014C0002D2D2D2D2D2D2D2D2D2D2D2D2D2D2D2D4C
:1014D0002D2D2D2D2D2D2D2D2D2D2D2D2D2D2D2D3C
:1014E0002D2D2D2D2D2D2D2D2D2D2D2D2D2D2D2D2C
:1014F0002D2D2D2D2D0020202020202020202020CB
:1015000020202020202020202020202020202020DB
:1015100020436F6E66696775726174696F6E002D26
:101520002D2D2D2D2D2D2D2D2D2D2D2D2D2D2D2DEB
:101530002D2D2D2D2D2D2D2D2D2D2D2D2D2D2D2DDB
:101540002D2D2D2D2D2D2D2D2D2D2D2D2D2D2D2DCB
:101550002D2D2D2D2D2D2D2D2D2D2D2D2D2D2D2DBB
:101560002D2D2D0053657269653A004D6F64656CD1
:101570006F3A200050616E74616C6C613A20002DEE
:101580002D2D2D2D2D2D2D2D2D2D2D2D2D2D2D2D8B
:101590002D2D2D2D2D2D2D2D2D2D2D2D2D2D2D2D7B
:1015A0002D2D2D2D2D2D2D2D2D2D2D2D2D2D2D2D6B
:1015B0002D2D2D2D2D2D2D2D2D2D2D2D2D2D2D2D5B
:1015C0002D2D2D00656E6473746F707320686974BF
:1015D0003A202025632025632025632025630020F1
:1015E0005A3A0020593A0020583A00656E647374E4
:1015F0006F7073206869743A20004D3239004D31A4
:1016000030342054302053313930004D31303420C3
:1016100054302053323330004D3130342054302098
:1016200053323130004D3130342054302053323475
:101630003000426173652063616C6962726164614C
:10164000004D353030004D6F766572205A004732BC
:101650003800506F736963696F6E002569202F2011
:101660002575004731205A300070793A2000707893
:101670003A2000436F6E74696E7561720050726536
:1016800073696F6E6520436C696B205061726100F5
:10169000506F72206661766F722065737065726537
:1016A000005265616C697A616E646F20486F6D6588
:1016B0002E2E2E00473238004D6F766572205A006C
:1016C0004D3432302053310A4D353030004731200F
:1016D0005A30004739310A47312058343420592DC7
:1016E00034312046333030300A47393000506F7281
:1016F000206661766F722065737065726500526551
:10170000616C697A616E646F20486F6D652E2E2E54
:101710000047323800473238000056616C6F722043
:1017200064656C207A3A005461726561203034003F
:1017300043616C696272616E646F2E2E2E004737B2
:10174000370054617265612030332076616C6F72AE
:10175000206465207A002D2D2D2D2D2D2D2D2D2D44
:101760002D2D2D2D2D2D2D2D2D2D2D2D2D2D2D2DA9
:101770002D2D2D2D2D2D0070790070783A200054DC
:1017800061726561203033206D6F76696E67005439
:101790006172656120303200506F72206661766F31
:1017A0007220657370657265005265616C697A615B
:1017B0006E646F20486F6D652E2E2E005461726529
:1017C0006120303000473238004D6F766572205A04
:1017D000004D3530300043656E74696D6574726F0D
:1017E000733A006D6574726F733A004B696C6F6D7C
:1017F0006574726F733A0046696C616D656E746FE3
:1018000020557361646F004D696E75746F733A0093
:10181000486F7261733A00446961733A00546965B4
:101820006D706F20456E636564696461004D696E1B
:1018300075746F733A00486F7261733A004469615E
:10184000733A005469656D706F20646520696D702E
:10185000726573696F6E00496E636F6D706C65744D
:1018600061733A005465726D696E616461733A0028
:1018700020546F74616C3A00496D70726573696FC2
:101880006E65730020004300500053004600450081
:101890005A00590058002E0053616C697200426F63
:1018A0007272617200456E76696172004573706193
:1018B00063696F00430050005300460045005A0022
:1018C000590058002E00496E677265736520436F9A
:1018D0006469676F00436F6D616E646F3A004D001D
:1018E000470053616C6972004D004700496E677292
:1018F00065736520436F6469676F00436F6D616E48
:10190000646F3A0045737461646F206465204C6FA6
:1019100073204361626C657300436F72726561731B
:1019200020475432004C75627269636163696F6E5F
:1019300000426F7175696C6C61207920426172722E
:10194000656C00417669736F204D616E74656E69D8
:101950006D69656E746F00526563756572646520AC
:1019600052657669736172002000E07001C0F8036F
:10197000807803843C038C0E07FC070EF8039DF06F
:10198000017B8000F70000EE0001DC0003BB0007D4
:1019900077803EEFC07DCFE0FF87F0C703F8870177
:1019A000FC0700FC0E007C1C003831352520456EFC
:1019B000204D617175696E617300494E4954003262
:1019C000302520456E2052657370756573746F7392
:1019D00000465552540031302520456E204D61712E
:1019E00075696E617300484E5750003230252045AE
:1019F0006E2052657370756573746F73004F554533
:101A00004C0032302520456E205265737075657329
:101A1000746F73004D4952410033312E34252045F7
:101A20006E20426F7175696C6C6173004C4F474F4B
:101A30000031352520456E205265737075657374CD
:101A40006F7300484F484F0031352520456E2046C2
:101A5000696C616D656E746F004255554800313296
:101A60002520456E2052657370756573746F730021
:101A7000434144540031322520456E2046696C6153
:101A80006D656E746F0054585453003130252045F5
:101A90006E2052657370756573746F73005246469D
:101AA000460031302520456E2046696C616D656EBB
:101AB000746F00415652470033302520456E204E4A
:101AC000756573747261205469656E646100444980
:101AD0004F530032352520456E204E756573747264
:101AE00061205469656E646100494F535800323576
:101AF0002520456E204E75657374726120546965AA
:101B00006E646100585058530032352520456E20D0
:101B10004E756573747261205469656E6461005816
:101B20004458440032302520456E204D617175695E
:101B30006E617300415557570032302520456E20A5
:101B40004E756573747261205469656E64610041FD
:101B5000554C410032302520456E204E756573741A
:101B60007261205469656E6461004341504F0032D8
:101B7000302520456E204E7565737472612054695E
:101B8000656E6461004341504F0031352520456E3C
:101B9000204D617175696E617300434F504F003283
:101BA000302520456E204E7565737472612054692E
:101BB000656E646100464F524F0031352520456EF9
:101BC000204E756573747261205469656E6461009E
:101BD0004641524F0031352520456E204D617175CB
:101BE000696E6173004445414C0031352520456ED6
:101BF000204E756573747261205469656E6461006E
:101C00004441544F0035302520536572766963692D
:101C10006F205465636E69636F0044415441003125
:101C2000302520456E204E756573747261205469AD
:101C3000656E6461004449414C0031352520456E94
:101C400020496E73756D6F7300434F5341003130FF
:101C50002520456E204E7565737472612054696548
:101C60006E646100424F4C4F0032352520456E2096
:101C70004772696C6F4E3300424F4F4D002035253F
:101C800020456E204D617175696E6173004150454C
:101C90005800556E20456E76696F204772617469F1
:101CA0007321212100425341530031302520456EDC
:101CB0002046696C616D656E746F00454442410059
:101CC00031352520456E2052657370756573746FCC
:101CD0007300415753440031302520456E2046693A
:101CE0006C616D656E746F005445535400446573A8
:101CF0006375656E746F3A200056657220436F6E8F
:101D0000646963696F6E657320456E3A006B757424
:101D100074657263726166742E636F6D2F70726F7B
:101D20006D6F004465736375656E746F0043757005
:101D30006F6E20446500FC0004000200E18090808A
:101D400088808880A880A8808880A880A8808880D3
:101D5000A880A8808880A880A880888088808880C3
:101D60009080E18002000400FC001F801000200031
:101D7000C38086808C8088808A808A8088808A80E0
:101D80008A8088808A808A8088808A808A80888009
:101D900088808C808680C380200010001F80010511
:101DA0000800FF060121023520FFFF07FF06FF099B
:101DB0000050221656808080800080153353A0A0EA
:101DC000A00257575050F850F85050025757207003
:101DD000A07028702013355580A040A020024757DE
:101DE00040A0A040A0A0502513538080801226560A
:101DF00040808080804012265680404040408002D3
:101E000045559060F060900255552020F820201133
:101E10003353604080044151F011335340E040029D
:101E2000465610102040808012365640A0A0A0A038
:101E30004012365640C0404040E002465660901086
:101E40006080F0024656F0206010906002465620F6
:101E500060A0F02020024656F080E010906002461C
:101E6000566080E0909060024656F010202040407E
:101E70000246566090609090600246566090907066
:101E80001060122555C0C000C0C0113656606000F9
:101E9000604080123656204080804020034353F03B
:101EA00000F012365680402020408012365640A066
:101EB00020400040015858304898A8A8904030026F
:101EC0004656609090F09090024656E090E09090D8
:101ED000E0024656609080809060024656E0909006
:101EE0009090E0024656F080E08080F0024656F086
:101EF00080E0808080024656609080B0906002460C
:101F0000569090F0909090123656E040404040E05D
:101F100002465670202020A04002465690A0C0A045
:101F2000A0900246568080808080F002465690F055
:101F3000F090909002465690D0F0B0B09002465685
:101F4000609090909060024656E09090E080800112
:101F50004757609090D0B06010024656E09090E0F5
:101F60009090024656609040209060123656E040B5
:101F700040404040024656909090909060024656F5
:101F8000909090906060024656909090F0F0900291
:101F90004656909060609090025656888850202057
:101FA00020024656F010204080F0123656E0808025
:101FB0008080E0024656808040201010123656E0A5
:101FC00020202020E016325240A0014151F016227C
:101FD000528040024454709090700246568080E0D7
:101FE0009090E01234546080806002465610107069
:101FF00090907002445460B0C06002465620504039
:10200000E040400145556090701060024656808067
:10201000E09090901236564000C04040E011375793
:102020002000202020A040024656808090E0909022
:10203000123656C040404040E0025454D0A8A8A8F0
:10204000024454E0909090024454609090600145A6
:1020500055E090E08080014555709070101002446A
:1020600054A0D0808012345460C020C00246564034
:1020700040E040502002445490909070123454A09C
:10208000A0A04002545488A8A85002445490606014
:10209000900145559090709060024454F02040F0BB
:1020A000024757304020C0204030221656808080A2
:1020B000808080024757C02040304020C0064252F6
:1020C00050A0FFFFFFFFFFFFFFFFFFFFFFFFFFFF2E
:1020D000FFFFFFFFFFFFFFFFFFFFFFFFFFFFFFFF10
:1020E000FFFFFF090050221656800080808080018B
:1020F00046562070A0A070200246562050E0405066
:10210000A002555588705070880256568850F820A5
:10211000F820221757808080008080800247577007
:1021200080E0907010E0173151A002565670A8C898
:10213000C8A87014355560A06000E003435350A058
:1021400050123353E02020143151E002565670E80B
:10215000D8E8D870173151E015335340A0401235FC
:102160005540E04000E014355540A02040E01435D3
:1021700055C020C020C01622524080014555909085
:1021800090E08002565678E8E868282824115180AB
:10219000112252408014355540C04040E01435555E
:1021A00040A04000E0034353A050A0024757808066
:1021B00080A060F0200247578080A0D010207002DD
:1021C000475780408060A0F0201236564000408083
:1021D000A04002475740206090F09090024757205F
:1021E000406090F0909002475760906090F090901F
:1021F00002475750A06090F09090024757900060BF
:1022000090F0909002475760906090F09090024656
:102210005670A0A0F0A0B0014757609080809060F9
:10222000400247574020F080E080F00247572040AE
:10223000F080E080F00247576090F080E080F0028C
:1022400047579000F080E080F01237578040E04020
:102250004040E01237572040E0404040E0123757FE
:1022600040A0E0404040E0123757A000E04040402E
:10227000E00256567048E848487002475750A09010
:10228000D0B09090024757402060909090600247F5
:102290005720406090909060024757609060909007
:1022A000906002475750A06090909060024757900E
:1022B000006090909060123353A040A00246567088
:1022C000B0B0D0D0E002475740209090909060028C
:1022D00047572040909090906002475760909090B0
:1022E00090906002475790009090909060025757EE
:1022F0001020885020202002465680E09090E080F8
:102300000246566090A0A090A0024757402000705F
:10231000909070024757204000709090700247578D
:102320002050007090907002475750A0007090901D
:10233000700246565000709090700247576090604F
:1023400070909070025454F068B0781135556080E8
:1023500080604002475740200060B0C0600247578D
:1023600020400060B0C06002475760900060B0C07D
:1023700060024656500060B0C0601237578040007F
:10238000C04040E0123757204000C04040E01237C4
:102390005740A000C04040E0123656A000C0404068
:1023A000E0024757A040A01070906002475750A02D
:1023B00000E09090900247574020006090906002AB
:1023C000475720400060909060024757609000603F
:1023D00090906002475750A000609090600246566F
:1023E0009000609090601235554000E0004002443B
:1023F0005470B0D0E0024757402000909090700297
:10240000475720400090909070024757609000908E
:10241000909070024656900090909070014858201D
:10242000400090907090600147578080E090E0807D
:10243000800147579000909070906002536F6674CF
:1024400077617265205265736574005761746368C3
:10245000646F672052657365740042726F776E20F7
:102460006F75742052657365740045787465726E7B
:10247000616C20526573657400506F77657255709A
:10248000002020202020202020202020202020206C
:102490004F6B7C48617264636F64656420534420B1
:1024A00044656661756C742053657474696E6773F6
:1024B000204C6F616465640020506C616E6E6572C3
:1024C00042756666657242797465733A2000202011
:1024D00020202020202020202020204672656520FA
:1024E0004D656D6F72793A20002D2D2D2D2D2D2DDE
:1024F0002D2D2D2D2D2D2D2D2D2D2D2D2D2D2D2D0C
:102500002D2D2D2D2D2D2D2D2D2D2D2D2D2D2D2DFB
:102510002D2D2D2D2D2D2D2D2D2D2D2D2D2D2D2DEB
:102520002D2D2D2D2D2D2D2D2D2D2D2D2D002D2D08
:102530002D2D2D2D2D2D2D2D2D2D2D2D2D2D2D2DCB
:102540002D2D2D2D2D2D2D2D2D2D2D2D2D2D2D2DBB
:102550002D2D2D2D2D2D2D2D2D2D2D2D2D2D2D2DAB
:102560002D2D2D2D2D2D2D2D2D2D2D2D2D2D2D2D9B
:102570002D2D002020202020202020202020202061
:10258000202020202020202020202020436F6D703C
:10259000696C65643A204D617920323120323032E5
:1025A000300020202020202020202020202020203B
:1025B0002020202020202020202020202041757451
:1025C000686F723A20284B55545445524352414645
:1025D00054205F7C7C5F204D6F643A4F726C697849
:1025E0002900202020202020202020202020202002
:1025F000202020202020204C6173742055706461BD
:102600007465643A204D61792032312032303230A5
:102610002031363A31333A3235002D2D2D2D2D2DE6
:102620002D2D2D2D2D2D2D2D2D2D2D2D2D2D2D2DDA
:102630002D2D2D2D2D2D2D2D2D2D2D2D2D2D2D2DCA
:102640002D2D2D2D2D2D2D2D2D2D2D2D2D2D2D2DBA
:102650002D2D2D2D2D2D2D2D2D2D2D2D2D2D0020E4
:10266000202020202020202020202020202020206A
:1026700020202020202020204B55545445524352E6
:102680004146545F5620342E302E30002D2D2D2DF6
:102690002D2D2D2D2D2D2D2D2D2D2D2D2D2D2D2D6A
:1026A0002D2D2D2D2D2D2D2D2D2D2D2D2D2D2D2D5A
:1026B0002D2D2D2D2D2D2D2D2D2D2D2D2D2D2D2D4A
:1026C0002D2D2D2D2D2D2D2D2D2D2D2D2D2D2D2D3A
:1026D000002D2D2D2D2D2D2D2D2D2D2D2D2D2D2D57
:1026E0002D2D2D2D2D2D2D2D2D2D2D2D2D2D2D2D1A
:1026F0002D2D2D2D2D2D2D2D2D2D2D2D2D2D2D2D0A
:102700002D2D2D2D2D2D2D2D2D2D2D2D2D2D2D2DF9
:102710002D2D2D2D2D002020202020202020202098
:1027200020202020202020202020202020204B7529
:10273000747465726372616674204669726D776144
:102740007265002D2D2D2D2D2D2D2D2D2D2D2D2D69
:102750002D2D2D2D2D2D2D2D2D2D2D2D2D2D2D2DA9
:102760002D2D2D2D2D2D2D2D2D2D2D2D2D2D2D2D99
:102770002D2D2D2D2D2D2D2D2D2D2D2D2D2D2D2D89
:102780002D2D2D2D2D2D2D007374617274000000E0
:102790002100240027002A002D0030003300010111
:1027A0000000040107010A010000220025002800A2
:1027B0002B002E0031003400020100000501080149
:1027C0000B01000020002300260029002C002F0010
:1027D000320000010000030106010901050505059D
:1027E000070508080808020202020A0A0808040489
:1027F00004040101010101010101030303030303B7
:102800000303040707070C0C0C0C0C0C0C0C020245
:10281000020206060606060606060B0B0B0B0B0B42
:102820000B0B0102102020080810204010204080CF
:102830000201020108040201010204081020408084
:102840008040201008040201800402018040201012
:10285000080402010804020101020408102040805B
:10286000010204081020408000000A0B02090C0D30
:102870000E08070304010000000000000000000033
:102880000000000000000000000000000000000048
:102890000000000012111000000000000000000005
:1028A0000000000000000000000000000000506F69
:1028B00072206661766F722065737065726500477D
:1028C00039310A47312045313520463135300A4704
:1028D00039300A4739310A473120452D313030200F
:1028E000463330300A4739300A4D383400473931E1
:1028F0000A4731204531303020463135300A4739DA
:10290000300A4D3834004739310A4731205A3130C6
:102910002046333530300A47393000416A757374C8
:10292000652064652046696C616D656E746F004357
:10293000616C63756C616E646F2E2E2E0050756530
:1029400064652074617264617220756E6F73206DAE
:10295000696E75746F7300416A757374616E646F2C
:10296000205049440043616C656E74616E646F2E43
:102970002E2E00506F72206661766F722065737024
:10298000657265003FFFF87FFFFCFFFFFEFFFFFE63
:10299000FFFFFEFFFFFEFFFFFEFFFFFEE6DE6EE62F
:1029A000DE6EEADEAEEADEAEEADEAEECDECEECC233
:1029B000CEFFFFFEFFFFFEFFFFFEFFFFFEFFFFFE5D
:1029C000FFFFFE7FFFFC3FFFF83FFFF860000CC0F9
:1029D0000006800002800002800002800002800069
:1029E0000299219299219295215295215295215235
:1029F000932132933D3280000280000280000280E9
:102A00000002800002C0000660000C3FFFF83FFF9C
:102A1000F87FFFFCFFFFFEFFFFFEFFFFFEFFFFFE54
:102A2000FFFFFEFFFFFEC2F176DEF776DEF7AEC6F1
:102A3000F1DEDEF7AEDEF776DE1176FFFFFEFFFF9A
:102A4000FEFFFFFEFFFFFEFFFFFEFFFFFE7FFFFC1E
:102A50003FFFF83FFFF860000CC0000680000280D6
:102A60000002800002800002800002BD0E8AA108E0
:102A70008AA10852B90E22A10852A1088AA1EE8AA1
:102A8000800002800002800002800002800002C0FC
:102A9000000660000C3FFFF83FFFF87FFFFCFFFFE0
:102AA000FEFFFFFEFFFFFEFFFFFEFFFFFEFFFFFE3C
:102AB000F38F1EEDB6FEEDB6FEE18F3EEDB7DEED17
:102AC000B7DEED8E3EFFFFFEFFFFFEFFFFFEFFFFC6
:102AD000FEFFFFFEFFFFFE7FFFFC3FFFF83FFFF81A
:102AE00060000CC0000680000280000280000280AE
:102AF00000028000028C70E29249029249029E70AC
:102B0000C29248229248229271C280000280000242
:102B1000800002800002800002C0000660000C3FBE
:102B2000FFF83FFFF87FFFFCFFFFFEFFFFFEFFFF08
:102B3000FEFFFFFEFFFFFEFFFFFEE3BF3EEDBEDE3A
:102B4000EDBEDEE3BE1EEFBEDEEFBEDEEF86DEFFD5
:102B5000FFFEFFFFFEFFFFFEFFFFFEFFFFFEFFFF8A
:102B6000FE7FFFFC3FFFF83FFFF860000CC000064F
:102B70008000028000028000028000028000029C2F
:102B800040C29241229241229C41E29041229041D6
:102B900022907922800002800002800002800002E0
:102BA000800002C0000660000C3FFFF850726564B0
:102BB000657465726D696E61646F004578747275D5
:102BC000736F723A006C612074656D706572617428
:102BD0007572610053656C656363696F6E6500476C
:102BE00031205A313520463430300A473238205AA5
:102BF0000A4731205A30004731205A31300A4732D3
:102C0000380A4D383400506F736963696F6E203431
:102C10002064652034004731205A31300A47312082
:102C200058313730205934302046323030300A475E
:102C30003238205A0A4731205A3000506F73696386
:102C4000696F6E20332064652034004731205A318B
:102C5000300A47312058343020593135302046323F
:102C60003030300A473238205A0A4731205A300073
:102C70001FFFFFF03FFFFFF87FFFFFFCFFFFFFFE9E
:102C8000FFF83FFEFFE00FFEFF8003FEF70381FE2B
:102C9000F20FE0FEF01FF07EF03FF87EF07FFC3E8A
:102CA000F03FFE3EF01FFE1EFFFFFF1EFFFFFF1E58
:102CB000FFFFFF1EFFFFFE1EFFFFFE3EFFFFFC3E6D
:102CC000FFFFF87EFF9FF07EFF0FE0FEFF0381FE17
:102CD000FF8003FEFFE00FFEFFF83FFE7FFFFFFCDB
:102CE0003FFFFFF81FFFFFF01FFFFFF0300000184D
:102CF0006000000CC00000068007C002801FF002C8
:102D0000807FFC0288FC7E028DF01F028FE00F8224
:102D10008FC007828F8003C28FC001C28FE001E2A3
:102D2000800000E2800000E2800000E2800001E21A
:102D3000800001C2800003C28000078280600F8291
:102D400080F01F0280FC7E02807FFC02801FF00268
:102D5000C007C0066000000C300000181FFFFFF025
:102D6000506F736963696F6E203220646520340090
:102D70004731205A31300A473120583137302059F5
:102D80003135302046323030300A473238205A0A46
:102D90004731205A3000506F736963696F6E20317C
:102DA0002064652034004731205A31300A473120F1
:102DB000583430205934302046323030300A4732CF
:102DC00038205A0A4731205A3000FFFFFFFFFFFF2B
:102DD000FFFFFFFFFFFFE080000000000000000099
:102DE00000000020B1C71C71C71C71C71C71C71C33
:102DF00020A38E38E38E38E38E38E38E38A0871C0C
:102E000071C71C71C71C71C71C71A0800000000035
:102E10000000000000000020FFFFFFFFFFFFFFFF9A
:102E2000FFFFFFFFE0FFFFFFFFFFFFFFFFFFFFFFD1
:102E3000FFE0800000000000000000000000208E85
:102E400038E38E38E38E38E38E38E3A09C71C71CDC
:102E500071C71C71C71C71C720B8E38E38E38E3868
:102E6000E38E38E38E2080000000000000000000A8
:102E7000000020FFFFFFFFFFFFFFFFFFFFFFFFE05E
:102E8000506F72206661766F72206573706572652F
:102E90000047323800436F6E74696E7561720001CD
:102EA000060A00FE070136026820FFFE08FE07FE44
:102EB0000A0060221767808080808000801633635C
:102EC000A0A0A00257675050F850F8505002576722
:102ED0002070A07028702002576748A8502050A882
:102EE0009002576740A0A040A89068261363808096
:102EF00080123767204080808040201237678040F2
:102F000020202040800355658850F850880355657F
:102F10002020F82020113363604080055161F811B2
:102F2000336340E040025767080810204080800269
:102F30005767205088888850200257672060A0205B
:102F40002020F8025767708808304080F8025767E1
:102F5000F808103008887002576710305090F81049
:102F600010025767F880B0C8088870025767304071
:102F700080B0C88870025767F808101020404002DF
:102F8000576770888870888870025767708898685B
:102F900008106011376740E0400040E0401137679B
:102FA00040E0400060408012476710204080402091
:102FB00010045363F800F812476780402010204047
:102FC00080025767708810202000200257677088A1
:102FD00098A8B0807002576720508888F8888802C7
:102FE0005767F04848704848F002576770888080FB
:102FF000808870025767F04848484848F002576791
:10300000F88080F08080F8025767F88080F0808038
:103010008002576770888080988870025767888818
:1030200088F8888888123767E04040404040E002D6
:103030005767381010101090600257678890A0C032
:10304000A09088025767808080808080F802576750
:103050008888D8A88888880257678888C8A89888E8
:103060008802576770888888888870025767F08858
:1030700088F08080800158687088888888A87008E7
:10308000025767F08888F0A09088025767708880A0
:1030900070088870025767F82020202020200257EF
:1030A0006788888888888870025767888888505021
:1030B0005020025767888888A8A8D8880257678850
:1030C0008850205088880257678888502020202008
:1030D000025767F80810204080F8123767E08080B8
:1030E000808080E0025767808040201008081237F7
:1030F00067E02020202020E0065363205088015103
:1031000061F828226280400255657008788878024C
:1031100057678080B0C888C8B002556570888088BD
:103120007002576708086898889868025565708823
:10313000F88070025767304840F0404040005767C1
:10314000788888780888700257678080B0C8888837
:10315000881237674000C0404040E01049691000C5
:103160003010101090906002576780808890E09037
:1031700088123767C04040404040E0025565D0A803
:10318000A8A888025565B0C88888880255657088E7
:10319000888870005767B0C888C8B08080005767BB
:1031A00068988898680808025565B0C880808002D1
:1031B000556570807008F00257674040F040404805
:1031C000300255658888889868025565888850500F
:1031D000200255658888A8A850025565885020505F
:1031E0008800576788889868088870025565F810C5
:1031F0002040F8124767304020C020403022176737
:1032000080808080808080124767C02040304020CE
:10321000C006536348A890FFFFFFFFFFFFFFFFFFBB
:10322000FFFFFFFFFFFFFFFFFFFFFFFFFFFFFFFFAE
:10323000FFFFFFFFFFFFFFFF0A006022176780000C
:1032400080808080800157672078A0A0A07820022D
:103250005767304840E04048B0025565887050706C
:103260008801586888885020F8202020221767801D
:103270008080008080800158687080E09048380825
:1032800070193161A00257677088A8C8A8887013A8
:1032900046667090B05000F002656524489048245E
:1032A000144262F010154161F00257677088E8C857
:1032B000C88870095161F816336340A04002566611
:1032C0002020F82020F815456560902040F0154535
:1032D00065E0106010E02822624080015666888810
:1032E00088C8B08002576778E8E868282828251140
:1032F0006180202262408015356540C04040E01367
:1033000046666090906000F00265659048244890A1
:1033100001696940C04040E40C143C040169694003
:10332000C04040E81404081C015969C0204020C86E
:10333000182878080257672000202040887002581B
:10334000684020708888F888880258681020708843
:1033500088F888880258682050708888F888880221
:10336000586848B0708888F888880258685000709B
:103370008888F888880258682050708888F888887B
:103380000267673C50909CF0909C0059697088805F
:1033900080808870204002586840F88080F08080EB
:1033A000F802586810F88080F08080F80258682091
:1033B000F88080F08080F802586850F88080F080B3
:1033C00080F81238688040E040404040E0123868A1
:1033D0002040E040404040E012386840A0E04040DB
:1033E0004040E0123868A000E040404040E0025712
:1033F00067F04848E84848F0025868285088C8A84C
:103400009888880258684020708888888870025898
:1034100068102070888888887002586820507088EA
:103420008888887002586828507088888888700258
:1034300058685000708888888870025565885020C8
:103440005088025767709898A8C8C870025868409A
:103450002088888888887002586810208888888822
:1034600088700258682050008888888870025868E0
:103470005000888888888870025868102088885092
:1034800020202002576780F088F0808080025767F4
:10349000708890A09088B00258684020007008782A
:1034A0008878025868102000700878887802586878
:1034B00020500070087888780258682850007008FA
:1034C00078887802576750007008788878025868C2
:1034D000205020700878887802656578147C907C8C
:1034E000005767708880887020400258684020002C
:1034F0007088F880700258681020007088F880701A
:103500000258682050007088F88070025767500099
:103510007088F88070123868804000C0404040E0F9
:10352000123868408000C0404040E012386840A037
:1035300000C0404040E0123767A000C0404040E07B
:10354000025767C030708888887002586828500019
:10355000B0C88888880258684020007088888870C1
:1035600002586810200070888888700258682050BF
:103570000070888888700258682850007088888891
:103580007002576750007088888870035565200066
:10359000F800200255657898A8C8F00258684020C5
:1035A0000088888898680258681020008888889861
:1035B00068025868205000888888986802576750C9
:1035C0000088888898680059691020888898680859
:1035D000887000586880F0888888F0808000596979
:1035E00050008888986808887053657269616C3AE1
:1035F000003000416A75737461722050494400457F
:103600006E636F6465722020202020202020205BC4
:10361000495A515D004B75747465724D656C6F64E9
:1036200079202020205B4F66665D00456E636F64E5
:1036300065722020202020202020205B4445525D00
:103640000053656E736F722066696C616D656E7490
:103650006F5B4F66665D00436F6E6669672E20463E
:103660006162726963610053656E736F722066698F
:103670006C616D656E746F205B4F6E5D00477561A8
:10368000726461646F20202020202020205B4F6620
:10369000665D00477561726461646F2020202020A0
:1036A000202020205B4F6E5D00456E7669617220A0
:1036B00047636F646500496E666F726D6163696F21
:1036C0006E2020205B43617061735D00496E666F00
:1036D000726D6163696F6E2020205B436F6F72644F
:1036E0005D004175746F6C6576656C20202020202C
:1036F00020205B4F66665D0053697374656D6100E1
:103700004175746F6C6576656C2020202020202028
:10371000205B4F6E5D004B75747465724D656C6F08
:10372000647920202020205B4F6E5D004964696F22
:103730006D6120202020202020202020205B455368
:103740005D004C6F67726F730045737461646973D9
:10375000746963610056657273696F6E00566F6CB1
:10376000766572202020202020202020202020206C
:10377000200400566F6C766572003FFFF860000C05
:10378000C000068000028008028038028038028073
:103790003802803802803802803802800002803887
:1037A0000285394285834286FEC283018281FF02FF
:1037B0008000028FFFE2C0000660000C3FFFF83F70
:1037C000FFF87FFFFCFFFFFEFFFFFEFFF7FEFFC7D6
:1037D000FEFFC7FEFFC7FEFFC7FEFFC7FEFFC7FE17
:1037E000FFFFFEFFC7FEFAC6BEFA7CBEF9013EFC33
:1037F000FE7EFE00FEFFFFFEF0001EFFFFFE7FFFCD
:10380000FC3FFFF83FFFF860000CC000068000029C
:1038100080000281830281C70281EF0281FF028161
:10382000BB02819302818302818302818302800033
:103830000287FF828000028FFFE28FFFE28000029A
:10384000C0000660000C3FFFF83FFFF87FFFFCFF61
:10385000FFFEFFFFFEFFFFFEFE7CFEFE38FEFE10B9
:10386000FEFE00FEFE44FEFE6CFEFE7CFEFE7CFEC6
:10387000FE7CFEFFFFFEF8007EFFFFFEF0001EF064
:10388000001EFFFFFEFFFFFE7FFFFC3FFFF83FFF34
:10389000F860000CC0000680000280000280000278
:1038A00081C20281C70281CF8281C70283E7028180
:1038B000C70280870280000280000283FF828000AE
:1038C000028FFFE28FFFE2800002C0000660000C62
:1038D0003FFFF83FFFF87FFFFCFFFFFEFFFFFEFF0B
:1038E000FFFEFFFFFEFE3DFEFE38FEFE307EFE3890
:1038F000FEFC18FEFE38FEFF78FEFFFFFEFFFFFE17
:10390000FC007EFFFFFEF0001EF0001EFFFFFEFF2A
:10391000FFFE7FFFFC3FFFF841206C696E6961721A
:1039200020656A65207A003FFFF860000CC0000641
:1039300080000281FF028000028010028038028035
:103940007C02803802803802803802803802803859
:103950000280000283FF828000028FFFE28FFFE27D
:10396000800002C0000660000C3FFFF83FFFF87FB8
:10397000FFFCFFFFFEFFFFFEFE00FEFFFFFEFFEF6E
:10398000FEFFC7FEFF83FEFFC7FEFFC7FEFFC7FEA9
:10399000FFC7FEFFC7FEFFFFFEFC007EFFFFFEF03D
:1039A000001EF0001EFFFFFEFFFFFE7FFFFC3FFF3B
:1039B000F8646574656E676100696D707265736F38
:1039C00072612073650045737065726520612071B6
:1039D0007565206C610043414D42494F20444520AC
:1039E00046494C414D454E544F004C696D706961DC
:1039F0006E646F20626F7175696C6C6100457370E5
:103A00006572650043414D42494F20444520464977
:103A10004C414D454E544F007920636F6E74696E72
:103A200075650050726573696F6E6520656C206204
:103A30006F746F6E0043414D42494F20444520460C
:103A4000494C414D454E544F005265746972616E48
:103A5000646F2066696C616D656E746F004573708C
:103A60006572650043414D42494F20444520464917
:103A70004C414D454E544F0043617267616E646F17
:103A80002066696C616D656E746F00457370657258
:103A9000650043414D42494F2044452046494C4131
:103AA0004D454E544F005265616E7564616E646F92
:103AB00020696D70726573696F6E00457370657211
:103AC000650043414D42494F2044452046494C4101
:103AD0004D454E544F005461726A657461207265A1
:103AE000746972616461005461726A657461206313
:103AF0006F6C6F636164610000060900FE000000E6
:103B0000000001090008FE0000050808060000404A
:103B1000F0C88888987810050808060000C0F88862
:103B200088888888F80505050600012030F83020CF
:103B30000508080600002070F820202020E0050974
:103B4000090600FF2070A8A8B88888702005090918
:103B50000600FFE080C0B0A8283028280509090623
:103B600000FFF8A88888888888A8F8050A0A06004F
:103B7000FE205050505088A8A88870030303060008
:103B80000340A0404D3234004732380A4D313138BD
:103B90000A4D3234004D3233202573003FFFF86068
:103BA000000CC0000680380290FE029BC7829F0175
:103BB000C29E00C29F00629F8062800032800032FD
:103BC0008000328000628000628000C28301C28374
:103BD000C78280FE02803802C0000660000C3FFFF2
:103BE000F83FFFF87FFFFCFFFFFEFFC7FEEF01FE7F
:103BF000E4387EE0FE3EE1FF3EE0FF9EE07F9EFF78
:103C0000FFCEFFFFCEFFFFCEFFFF9EFFFF9EFFFF19
:103C10003EFCFE3EFC387EFF01FEFFC7FEFFFFFEBE
:103C20007FFFFC3FFFF8566F6C7665720000446FB3
:103C30006E6520736176696E672066696C652E001B
:103C40006572726F722077726974696E6720746F23
:103C50002066696C6500203A203C3C3C2072756E01
:103C60005F7A5F70726F62650A0063757272656E6B
:103C7000745F706F736974696F6E3D000000A040DF
:103C80000000A04000000040203A203E3E3E20724E
:103C9000756E5F7A5F70726F62650A00637572722B
:103CA000656E745F706F736974696F6E3D003C3C44
:103CB0003C2070726F62655F7074003E20003E2091
:103CC0000029002C20003E20646F5F626C6F636BE4
:103CD000696E675F6D6F76655F746F5F78792800D6
:103CE000203A200A0063757272656E745F706F739C
:103CF0006974696F6E3D0029002C20002C20003E65
:103D00003E3E2070726F62655F707428005061756E
:103D100073617261206C61206D617175696E610003
:103D2000416374697661722053656E736F720044EB
:103D3000652066696C616D656E746F0044657361C2
:103D40006374697661722053656E736F72004D35CE
:103D500030300041636570746172002043616E63AE
:103D6000656C617200416476657274656E63696149
:103D7000004D353030004D353030004E4F2D436F03
:103D80006E742064657364652062617365005349D5
:103D90002D436F6E7420556C7420506F7369636986
:103DA0006F6E007065676164612061206C612063E3
:103DB000616D613F004C6120696D70726573696F60
:103DC0006E20736967756500436F6E74696E756107
:103DD00072004D3530300043616E63656C61720076
:103DE000436F6E206C6120696D70726573696F6ED0
:103DF00000446573656120636F6E74696E756172EE
:103E000000436F727465206465206C757A21004BE5
:103E1000757474657263726166742053746F726531
:103E2000006B757474657263726166742E636F6D76
:103E30002F73746F726500FEDF43F8829F1A08BA11
:103E4000EE2AE8BA1B6AE8BAAD32E8821A0A08FE1E
:103E5000AAABF8004238009FB7D4B8848A31B08644
:103E60000A2F20F0235448F6169308C51066F886EA
:103E7000CB5B28D84E1FA8F6C9084014A93CB03E19
:103E800067DA48091D09E02A457FF0008D78C0FEF9
:103E9000959AC082955898BA9C9FD8BAA78D08BAAF
:103EA00043E1B8826A0768FEA19CC04D35303000FE
:103EB000426F7272617220457374616469737469D0
:103EC00063610043616D6269617220566572736956
:103ED0006F6E00566F6C76657220202020202020A7
:103EE0002020202020202004004D353030003000DC
:103EF0002D00496E67726573652047656E65726156
:103F000063696F6E3A00436F6469676F3A00496E88
:103F100067726573652047656E65726163696F6E70
:103F20003A003000504B3300496E6772657365206C
:103F30004D65733A0053616C697200426F72726131
:103F40007200496E677265736520436F6469676FBD
:103F500000436F6469676F3A006B757474657263D0
:103F6000726166742E636F6D2F626C6F67004731EC
:103F70002058313020593130204633303030004124
:103F80006A75737465732064652063616D610056A2
:103F90006F6C7665720050726564657465726D69E8
:103FA0006E61646F004D31313720456E6672696114
:103FB0006E646F004D38340A204D313137204D6F1B
:103FC000746F72204170616761646F0056656C6F39
:103FD0006369646164006C612076656C6F63696419
:103FE00061640053656C656363696F6E6500466C60
:103FF000756A6F00466C756A6F0053656C65636324
:10400000696F6E650076616C6F7220696E696369B5
:10401000616C00426F7175696C6C61006C61207439
:10402000656D70657261747572610053656C65636E
:1040300063696F6E650043616D612063616C6965E2
:104040006E7465006C612074656D70657261747565
:1040500072610053656C656363696F6E65004D3313
:104060003133004D3131370046616E206465206385
:10407000617061006C612076656C6F636964616476
:104080000053656C656363696F6E65003FFFF87F81
:10409000FFFCFFFFFEFFFFFEF770FEFAEF7EFDE97B
:1040A0007EFAED7EF7697EFFED7EFFE97EFFED7E15
:1040B000FFE97EFFD9BEFFB0DEFFA05EFFB0DEFFEE
:1040C000DFBEFFE07EFFFFFEFFFFFE7FFFFC3FFF46
:1040D000F83FFFF860000CC00006800002888F02E5
:1040E0008510828216828512828896828012828052
:1040F0001682801282801682802642804F22805F44
:10410000A2804F22802042801F82800002C00006D1
:1041100060000C3FFFF83FFFF87FFFFCFFFFFEFF52
:10412000BBFEFE38FEFC387EF8383EF0381EF07CD0
:104130001EE0C60EFF83FEFF83FEFF83FEE0C60E79
:10414000F07C1EF0381EF8383EFC387EFE38FEFF4C
:10415000BBFEFFFFFE7FFFFC3FFFF83FFFF8600064
:104160000CC0000680440281C70283C78287C7C291
:104170008FC7E28F83E29F39F2807C02807C0280CD
:104180007C029F39F28F83E28FC7E287C7C283C761
:104190008281C702804402C0000660000C3FFFF825
:1041A0003FFFF87FFFFCFFFFFEFFFFFEFFFFFEFF6C
:1041B000FFFEFFFFFEFDEF7EFEF7BEFEF7BEFDEF4A
:1041C0007EFBDEFEF7BDFEF7BDFEFBDEFEFDEF7EF5
:1041D000FFFFFEF0001EF0001EFFFFFEFFFFFE7F50
:1041E000FFFC3FFFF83FFFF860000CC000068000B6
:1041F0000280000280000280000282108281084258
:10420000810842821082842102884202884202840C
:1042100021028210828000028FFFE28FFFE2800085
:1042200002C0000660000C3FFFF854656D706572B7
:10423000617475726100203A2073657475705F66F1
:104240006F725F656E6473746F705F6F725F7072B0
:104250006F62655F6D6F76650A0063757272656E79
:10426000745F706F736974696F6E3D002066697268
:1042700073740059005800486F6D6520002066690E
:104280007273740059005800486F6D6520003C3C03
:104290003C2067636F64655F47323800203A204DE9
:1042A000424C20486F6D652058206F7220590A00DB
:1042B00063757272656E745F706F736974696F6E27
:1042C0003D00203A204D424C2052657374204F72BD
:1042D0006967696E0A0063757272656E745F706FEC
:1042E000736974696F6E3D004D424C205A20686FAF
:1042F0006D696E67004D424C20686173206D657377
:104300006800203A2028686F6D655F616C6C5F61A2
:10431000786973207C7C20686F6D655A29203E2067
:1043200066696E616C0A0063757272656E745F70A7
:104330006F736974696F6E3D003C3C3C205A5F535B
:104340004146455F484F4D494E4700736F6E64616B
:10435000205A20667565726100736F6E6461205A21
:1043600020667565726100203A205A5F53414645C8
:104370005F484F4D494E47203E20686F6D655F6135
:104380006C6C5F617869730A0064657374696E614F
:1043900074696F6E3D00203A205A5F534146455F75
:1043A000484F4D494E47203E20686F6D655F616CF8
:1043B0006C5F617869730A0063757272656E745F11
:1043C000706F736974696F6E3D003E205A5F534190
:1043D00046455F484F4D494E47203E3E3E00203AFD
:1043E00020686F6D65590A0063757272656E745F3F
:1043F000706F736974696F6E3D00203A20686F6D4D
:1044000065580A0063757272656E745F706F7369C8
:1044100074696F6E3D005261697365205A2028628D
:1044200065666F726520686F6D696E672920746FAD
:1044300020003E20656E6473746F70732E656E612C
:10444000626C6528747275652900203A2053657482
:10445000205A20746F207072655F686F6D655F7A97
:104460000A0063757272656E745F706F7369746948
:104470006F6E3D004D424C2077617320616374691B
:104480007665003E3E3E2067636F64655F47323865
:10449000004B75747465726372616674206C697325
:1044A00074612E00526573756D69656E646F206965
:1044B0006D7072652E004573706572616E646F2059
:1044C0006F7264656E65730046696C652064656C27
:1044D000657465640044656C6574696F6E2066611F
:1044E000696C65640046696C652064656C6574651B
:1044F000640043616C656E74616D69656E746F20F4
:104500004F6B2E003F0020573A0043616C656E747C
:10451000616E646F2E2E2E004B757474657263721B
:10452000616674206C697374612E00566F6C7665D9
:104530007200303100506F736963696F6E203031E3
:1045400000303100303200506F736963696F6E2044
:10455000303200303200303300506F736963696F5E
:104560006E20303300303300303400506F73696395
:10457000696F6E20303400303400303500506F7376
:104580006963696F6E203035003035003036005079
:104590006F736963696F6E203036003036003037D4
:1045A00000506F736963696F6E20303700303700D9
:1045B000303800506F736963696F6E203038003097
:1045C00038003039007FFCC0068002800280028003
:1045D000028002800280028002800280028002C08B
:1045E000067FFC506F736963696F6E20303900304D
:1045F00039007FFCFFFEFFFEFFFEFFFEFFFEFFFE19
:10460000FFFEFFFEFFFEFFFEFFFEFFFEFFFE7FFC44
:104610004D353030006E6F206465626520616374D3
:10462000697661727365005B4F4E5D4375696461C5
:10463000646F20456E6473746F70205A005061720D
:10464000612063616C6962726172005B4F46465D16
:1046500055736520456E6473746F70205A004D3435
:1046600032302053310A4D353030004D3432302055
:1046700053300A4D3530300041636570746172000B
:104680002043616E63656C6172004164766572748B
:10469000656E6369610053657261205065726D617A
:1046A0006E656E7465005265696E6963696172203A
:1046B000536574656F732066616272004D353032E8
:1046C0000A4D3530300041636570746172002043DB
:1046D000616E63656C617200416476657274656ECB
:1046E0006369610000060900FE070192032120FFB3
:1046F000FF08FF07FF000000060000010707060291
:104700000080808080800080030202060105A0A056
:104710000507070600005050F850F85050050707ED
:104720000600002078A07028F0200507070600008A
:10473000C0C810204098180507070600006090A028
:1047400040A89068020303060104C04080030707E5
:1047500006010020408080804020030707060100FA
:104760008040202020408005050506000120A8701B
:10477000A8200505050600012020F82020020303DB
:104780000602FFC04080050101060003F802020294
:10479000060200C0C0050505060001081020408083
:1047A0000507070600007088888888887003070757
:1047B00006010040C040404040E0050707060000F9
:1047C000708808708080F8050707060000F8102040
:1047D000100808F005070706000010305090F81088
:1047E00010050707060000F880F008088870050724
:1047F00007060000708080F08888700507070600B3
:1048000000F8081020202020050707060000708807
:104810008870888870050707060000708888780807
:104820000870020505060200C0C000C0C0020606EE
:104830000602FFC0C000C040800407070600001049
:10484000204080402010050303060002F800F80411
:10485000070706010080402010204080050707065A
:10486000000070880810200020050707060000706F
:10487000880868A8A870050707060000708888F8EF
:10488000888888050707060000F08888F08888F087
:10489000050707060000708880808088700507077C
:1048A000060000F08888888888F005070706000061
:1048B000F88080F08080F8050707060000F8808007
:1048C000F0808080050707060000708880B888881F
:1048D00070050707060000888888F888888801071F
:1048E0000706020080808080808080050707060020
:1048F000003810101010906005070706000088901F
:10490000A0C0A090880507070600008080808080F6
:1049100080F805070706000088D8A88888888805D9
:1049200007070600008888C8A89888880507070632
:10493000000070888888888870050707060000F0E6
:104940008888F080808005070706000070888888C6
:10495000A89068050707060000F08888F0A09088F6
:10496000050707060000788080700808F005070733
:10497000060000F820202020202005070706000060
:1049800088888888888870050707060000888888D6
:10499000888850200507070600008888888888A82E
:1049A00050050707060000888850205088880507B2
:1049B0000706000088888850202020050707060089
:1049C00000F80810204080F8030707060100E08087
:1049D00080808080E00505050600018040201008E9
:1049E000030707060100E02020202020E005030344
:1049F000060004205088050101060000F8020202AA
:104A000006020580400505050600007008788878D4
:104A10000507070600008080B0C88888F0050505F6
:104A200006000070808088700507070600000808EF
:104A300068988888780505050600007088F88070F9
:104A40000507070600003048E040404040050606E4
:104A50000600FF7088887808700507070600008048
:104A600080B0C8888888010707060200800080801F
:104A70008080800308080601FF200020202020A05D
:104A800040040707060000808090A0C0A0900307A4
:104A900007060100C04040404040E0050505060013
:104AA00000D0A8A8A8A8050505060000B0C88888F9
:104AB00088050505060000708888887005060606CA
:104AC00000FFF08888F080800506060600FF7888E1
:104AD00088780808050505060000B0C880808005B4
:104AE000050506000070807008F004070706000046
:104AF0004040E040404030050505060000888888B9
:104B00009868050505060000888888502005050579
:104B10000600008888A8A8500505050600008850F2
:104B20002050880506060600FF88888878087005EA
:104B30000505060000F8102040F8030707060100ED
:104B4000204040804040200107070602008080800E
:104B5000808080800307070601008040402040409D
:104B600080050202060002689000000006000000B6
:104B70000000060000000000060000000000060023
:104B80000000000006000000000006000000000019
:104B90000600000000000600000000000600000003
:104BA00000000600000000000600000000000600F3
:104BB00000000000060000000000060000000000E9
:104BC00006000000000006000000000006000000D3
:104BD00000000600000000000600000000000600C3
:104BE00000000000060000000000060000000000B9
:104BF00006000000000006000000000006000000A3
:104C00000000060000000000060000000000060092
:104C10000000000006000000000006000000000088
:104C20000600000000000600000000000600000072
:104C30000000060000010707060200800080808057
:104C400080800507070600002070A8A0A870200536
:104C50000707060000304040E04050A80505050663
:104C600000008870507088050707060000885020F3
:104C7000F820F8200107070602008080800080806D
:104C8000800508080600003048205050209060033E
:104C90000101060107A0050707060000F888B8B85B
:104CA000B888F8050707060001700878887800F8CA
:104CB0000505050600012850A0502805030306003D
:104CC00001F80808020202060206408005070706EE
:104CD0000000F888A88898A8F8050101060006F8E1
:104CE00004040406000360909060050707060000B6
:104CF0002020F8202000F80405050600036090201D
:104D000040F0030505060003E020E020E002020277
:104D100006020640800508080600FF8888888898F3
:104D2000E88080050707060000789898781818181A
:104D3000020202060202C0C00202020602FF408016
:104D400003050506000340C04040E00507070600D4
:104D500001708888887000F8050505060001A050DC
:104D60002850A00507070600008890A858B8080832
:104D70000507070600008890B848982038050808FD
:104D8000060000C040C048D83808080507070600DC
:104D900000200020408088700508080600004020A0
:104DA000007088F888880508080600001020007048
:104DB00088F888880508080600002050007088F8E8
:104DC00088880508080600006890007088F88888C0
:104DD0000508080600005000708888F888880508D3
:104DE000080600002050207088F88888050707060C
:104DF00000003860A0B8E0A0B80508080600FF7001
:104E00008880808870206005080806000040200027
:104E1000F880F080F8050808060000081000F88007
:104E2000F080F8050808060000205000F880F080A7
:104E3000F80507070600005000F880F080F8030826
:104E400008060100804000E0404040E003080806FA
:104E50000100204000E0404040E003080806010057
:104E600040A000E0404040E0030707060100A0002A
:104E7000E0404040E0050707060000704848E84869
:104E8000487005080806000068900088C8A898883F
:104E9000050808060000402070888888887005088A
:104EA00008060000102070888888887005080806A9
:104EB00000002050007088888870050808060000EF
:104EC0006890007088888870050808060000500007
:104ED0007088888888700505050600018850205074
:104EE000880508080600FF1070A8A8A8A87040054B
:104EF000080806000040208888888888700508080F
:104F00000600001020888888888870050808060038
:104F10000020500088888888700508080600005026
:104F20000088888888887005080806000010208896
:104F300050202020200509090600FFC04070484885
:104F4000704040E00408080601FF609090A0909037
:104F5000E080050808060000402000700878887886
:104F600005080806000010200070087888780508F9
:104F700008060000205000700878887805080806A8
:104F80000000689000700878887805070706000020
:104F90005000700878887805080806000020502026
:104FA0007008788878050606060000D02878A0A842
:104FB000500506060600FF7080887020600508080E
:104FC0000600004020007088F88070050808060080
:104FD000001020007088F880700508080600002086
:104FE00050007088F88070050707060000500070B8
:104FF00088F8807003080806010080400040C04027
:1050000040E003080806010020400040C04040E0A6
:1050100003080806010040A00040C04040E003072C
:1050200007060100A00040C04040E0050707060059
:1050300000A040A01078887005080806000068905D
:1050400000B0C88888880508080600004020007065
:10505000888888700508080600001020007088887D
:105060008870050808060000205000708888887045
:105070000508080600006890007088888870050799
:105080000706000050007088888870050505060036
:10509000012000F800200507070600FF1070A8A8EF
:1050A000A8704005080806000040200088888898FD
:1050B00068050808060000102000888888986805A0
:1050C00008080600002050008888889868050707AF
:1050D000060000500088888898680509090600FFC6
:1050E000102000888888F808700407070601FFC0B0
:1050F0004060506040E00508080600FF50008888C6
:1051000088780870537465707261746520746F6F6D
:1051100020686967683A200024F4D43050C38E2098
:10512000C2A24017828B7011127A910D816CD90A3C
:10513000A861E108C7586607615143061E4B5D052B
:10514000C145A7041A411104093D9803713931037F
:105150004036DB0265339102D4305402802E1D02AA
:10516000632CEE01752AC501B028A001102781012A
:105170008F2564012B244B01E0223401AC211F0157
:105180008D200D01801FFC00841EED00971DDF00A7
:10519000B81CD200E61BC600201BBC00641AB2007B
:1051A000B219A8000A19A0006A189900D117910035
:1051B00040178B00B516840031167E00B3157900B8
:1051C0003A157300C7146F0058146A00EE13660096
:1051D0008813630025135E00C7125B006C12570032
:1051E00015125400C111510070114F0021114B00D4
:1051F000D61049008D1047004610440002104200AE
:10520000C00F4000800F3E00420F3C00060F3B00E5
:10521000CB0E3800930E37005C0E3500270E34009D
:10522000F30D3200C10D3100900D3000600D2E00E5
:10523000320D2D00050D2C00D90C2B00AE0C2900D1
:10524000850C29005C0C2700350C27000E0C26006D
:10525000E80B2400C40B2400A00B23007D0B2300CB
:105260005A0B2100390B2100180B2000F80A1F00EF
:10527000D90A1E00BB0A1E009D0A1D00800A1D00DF
:10528000630A1C00470A1B002C0A1B00110A1A00A3
:10529000F7091A00DD091900C4091900AB09190042
:1052A000920917007B091800630917004C091600C2
:1052B00036091600200916000A091500F508150020
:1052C000E0081400CC081400B8081400A408140066
:1052D000900813007D0812006B0813005808120094
:1052E00046081200340811002308110012081100AA
:1052F00001081100F0071000E0071000D0071000AF
:10530000C0071000B0070F00A107100091070E00A2
:1053100083070F0074070F0065070E0057070E0084
:1053200049070E003B070D002E070E0020070D0059
:1053300013070D0006070D00F9060C00ED060D0021
:10534000E0060C00D4060C00C8060C00BC060C00DD
:10535000B0060C00A4060B0099060C008D060B008D
:1053600082060B0077060B006C060B0061060A0034
:1053700057060B004C060A0042060A0038060A00CF
:105380002E060A0024060A001A060A001006090062
:1053900007060A00FD050900F4050900EB050900F0
:1053A000E2050900D9050900D0050900C705090073
:1053B000BE050900B5050800AD050800A5050900F2
:1053C0009C050800940508008C0508008405080069
:1053D0007C050800740508006C05070065050800D9
:1053E0005D050700560508004E0507004705070044
:1053F0004005080038050700310507002A050700A9
:10540000230507001C050600160507000F05070009
:105410000805060002050700FB040600F504070066
:10542000EE040600E8040600E2040700DB040600C0
:10543000D5040600CF040600C9040600C304060014
:10544000BD040600B7040600B1040500AC04060064
:10545000A6040600A00405009B04060095040500B0
:10546000900406008A0405008504050080040600F7
:105470007A04050075040500700405006B0405003E
:1054800066040500610405005C040500570405007E
:10549000520405004D0405004804050043040500BE
:1054A0003E0404003A0405003504050030040400FD
:1054B0002C04050027040400230405001E04040036
:1054C0001A04040016040500110404000D0404006D
:1054D000090405000404040000040400FC030400A3
:1054E000F8030400F4030400F0030400EC030400D8
:1054F000E8030400E4030400E0030400DC03040008
:10550000D8030400D4030400D0030400CC03040037
:10551000C8030300C503030024F404D9201BC40CF2
:105520005C0E9804C4095F0265077101F405F90077
:10553000FB04B30048048700C10369005803550009
:1055400003034500BE023A008402310053022A00E0
:105550002902250004022000E4011C00C8011900F2
:10556000AF011700980114008401130071011000AD
:105570006101100051010E0043010D0036010B00C6
:105580002B010B0020010B00150109000C01090083
:1055900003010800FB000800F3000800EB0007000F
:1055A000E4000600DE000600D8000600D200060077
:1055B000CC000500C7000500C2000500BD000400C6
:1055C000B9000400B5000400B1000400AD000400FF
:1055D000A9000400A5000300A20003009F0004002E
:1055E0009B00030098000300950002009300030055
:1055F000900003008D0002008B0003008800020071
:105600008600020084000300810002007F00020087
:105610007D0002007B00020079000200770001009B
:1056200076000200740002007200010071000200A6
:105630006F0002006D0001006C0002006A000100B2
:1056400069000200670001006600010065000100BA
:1056500064000200620001006100010060000100BE
:105660005F0002005D0001005C0001005B000100C2
:105670005A000100590001005800010057000100C4
:1056800056000100550001005400010053000000C5
:1056900053000100520001005100010050000100C0
:1056A0004F0001004E0000004E0001004D000100BF
:1056B0004C0001004B0000004B0001004A000100BB
:1056C00049000100480000004800010047000100B7
:1056D00046000000460001004500000045000100B2
:1056E00044000100430000004300010042000000AC
:1056F00042000100410000004100010040000100A3
:105700003F0000003F0001003E0000003E0001009D
:105710003D0000003D0001003C0000003C00000096
:105720003C0001003B0000003B0001003A0000008B
:105730003A00010039000000390001003800000083
:105740003800000038000100370000003700010079
:105750003600000036000000360001003500000071
:105760003500000035000100340000003400000066
:10577000340001003300000033000000330001005A
:105780003200000032000000320001003100000051
:105790003100000031000100300000003000000046
:1057A000300001002F0000002F0000002F0000003B
:1057B0002F0001002E0000002E0000002E0001002E
:1057C0002D0000002D0000002D0000002D00010024
:1057D0002C0000002C0000002C0000002C00010018
:1057E0002B0000002B0000002B0000002B0001000C
:1057F0002A0000002A0000002A0000002A00010000
:1058000029000000290000002900000029000000F4
:1058100029000100280000002800000028000000E6
:1058200028000000280001002700000027000000D9
:1058300027000000270000002700010026000000CC
:1058400026000000260000002600000026000100BF
:1058500025000000250000002500000025000000B4
:1058600025000000250001002400000024000000A5
:105870002400000024000000240001002300000098
:10588000230000002300000023000000230000008C
:10589000230000002300010022000000220000007D
:1058A000220000002200000022000000220001006F
:1058B0002100000021000000210000002100000064
:1058C0002100000021000000210001002000000054
:1058D0002000000020000000200000002000000048
:1058E0002000000020000000200001001F00000038
:1058F0001F0000001F0000001F0000001F0000002C
:105900001F0000001F0001001E0000001E0000001C
:105910001E0000001E0000004D3834205820592081
:105920005A2045001FFFFFF03FFFFFF87FFFFFFCFD
:10593000FFFFFFFEFE7FFFFEFE7FC0FEF99FDEFE43
:10594000F99FD2FEFE7FDAFEFE63D2FEFFC3DAFECF
:10595000FFCFD2FEFFCFDAFEFFCFD2FEFFC3DAFECB
:10596000FFE3927EFFFF333EFFFE619EFFFEC0DE3F
:10597000FFFE805EFFFEC0DEFFFE619EFFFF333E46
:10598000FFFF9E7EFFFFC0FEFFFFFFFEFFFFFFFE4B
:105990007FFFFFFC3FFFFFF81FFFFFF01FFFFFF03F
:1059A000300000186000000CC0000006818000027A
:1059B00081803F028660210286602D02818025025F
:1059C000819C2D02803C250280302D0280302502F2
:1059D00080302D02803C2502801C6D828000CCC26C
:1059E00080019E6280013F2280017FA280013F22D0
:1059F00080019E628000CCC28000618280003F02F4
:105A000080000002C00000066000000C300000189A
:105A10001FFFFFF01FFFFFF03FFFFFF87FFFFFFCBE
:105A2000FFFFFFFEFFFFFFFEF8E3C0FEF843DEFED0
:105A3000F803D2FEFC47DAFEFEEFD2FEFC47DAFEA8
:105A4000F803D2FEF843DAFEF8E3D2FEFFFFDAFEF7
:105A5000FFFF927EFFFF333EFFFE619EFFFEC0DE32
:105A6000FFFE805EFFFEC0DEFFFE619EFFFF333E55
:105A7000FFFF9E7EFFFFC0FEFFFFFFFEFFFFFFFE5A
:105A80007FFFFFFC3FFFFFF81FFFFFF01FFFFFF04E
:105A9000300000186000000CC0000006800000020A
:105AA000871C3F0287BC210287FC2D0283B8250298
:105AB00081102D0283B8250287FC2D0287BC2502A8
:105AC000871C2D028000250280006D828000CCC2E0
:105AD00080019E6280013F2280017FA280013F22DF
