:100000000C94773B0C94A83B0C94A83B0C94A83B15
:100010000C94A83B0C94A83B0C94A83B0C94A83BD4
:100020000C94A83B0C94A83B0C94A83B0C94A83BC4
:100030000C94A83B0C94FD720C94A83B0C94A83B28
:100040000C94A83B0C94DDCE0C94A83B0C94A83BDC
:100050000C94A83B0C94A83B0C94618A0D94AD08B9
:100060000C94A83B0C94457D0C94157D0C94A83BF6
:100070000C94A83B0C94A83B0C94A83B0C94A83B74
:100080000C94A83B0C94A83B0C94A83B0C94A83B64
:100090000C94A83B0C94A83B0C94A83B0C94A83B54
:1000A0000C94A83B0C94A83B0C94A83B0C94A83B44
:1000B0000C94A83B0C94A83B0C94A83B0C94A83B34
:1000C0000C94A83B0C94A83B0C94A83B0D94790687
:1000D0000C949C730C94A83B0C94A83B0C94A83BE8
:1000E0000C94A83B4E889D8873886D888588888885
:1000F0009288BD8ACD8AEC8AFC8A178B1C8B1F8B59
:10010000248B278B2C8B2F8B348B378B3C8B3F8B0B
:10011000448B478B4C8B568B4DA657A65FA666A685
:100120006DA674A680A687A66001EA002A012401B4
:10013000FA00F0003C0150016E01660146015C01CD
:100140005E016401F0004E013201560154015A0172
:100150000401520134014401F800E00072016A0117
:10016000E400F2004A01380144012001300110018D
:10017000084AD73B3BCE016E84BCBFFDC12F3D6C0E
:1001800074319ABD56833DDA3D00C77F11BED9E474
:10019000BB4C3E916BAAAABE000000803F05A84C54
:1001A000CDB2D44EB93836A9020C50B99186880820
:1001B0003CA6AAAA2ABE000000803F000D944D1064
:1001C0000D94F9070D94D9100D9415080D94271C62
:1001D0000D94A4140D9401060D947A190D94B11484
:1001E0000D9438060D941F080D94D0060D946F14CD
:1001F0000D94F1070D94FA050D9490050D9433219B
:100200000D945E060D9497140D94D3070D941B1155
:100210000D94B2090D94830F0D9405110D94C9101E
:100220000D9456080D94B0190D9444100D94B51208
:100230000D9496130D94081C0D9493090D94930F2F
:100240000D9442080D9459180D94F4050D94A109CC
:100250000D9431110D94F0050D9447110D94F21188
:100260000D944C080D942F060D94E7070D94520A37
:100270000D9438080D94580C0D9405060D943B1000
:100280000D9472180D9453110D9460080D94170677
:100290000D947C050D942E080D9457140D942B0687
:1002A0000D9409060D94DD070D94C9070D943306CE
:1002B0000D9462140D94CE070D941D060D94210625
:1002C0000D94FE050D9432100D9425060D94130621
:1002D0000D94780A0D940B080D9416070D940F06D3
:1002E0000D949E050D9401080D94691C0D94EF105A
:1002F0000D945A18414C4C00434F4D4D554E4943B7
:100300004154494F4E0044525952554E00455252A5
:100310004F525300494E464F004543484F005265E7
:10032000706F736F2E2E2E005A206E6F7420656EC4
:1003300074657265642E005A206E6F7420656E7449
:10034000657265642E0059206E6F7420656E746549
:100350007265642E0059206F7574206F662072617B
:100360006E67652028312D33292E0058206E6F745A
:1003700020656E74657265642E0058206F75742058
:100380006F662072616E67652028312D33292E003B
:10039000473238004D6573682070726F62696E670E
:1003A00020646F6E652E005374617274206D6573E6
:1003B000682070726F62696E6720776974682022A6
:1003C000473239205331222066697273742E0047F8
:1003D00032380A473239205332004D657368206243
:1003E0006564206C6576656C696E67206E6F74203D
:1003F0006163746976652E002020004D6561737518
:1004000072656420706F696E74733A005A206F666B
:10041000667365743A20005A2073656172636820C0
:100420006865696768743A20002C004E756D205825
:100430002C593A200053746174653A200053206FA0
:100440007574206F662072616E67652028302D35C7
:10045000292E003C3C3C2067636F64655F47333066
:1004600000205A3A200020593A200020583A200013
:10047000426564003E3E3E2067636F64655F4733BC
:100480003000205A3A200020593A200020583A20C3
:100490000042656400496E76616C696420736C6F1C
:1004A000742C20746F74616C20736C6F74733A20B9
:1004B0000020453A00205A3A0020593A003C2D5875
:1004C0003A00205300536176656420706F7369743D
:1004D000696F6E003A0020002D3E002053005265E7
:1004E00073746F72696E6720706F736974696F6E71
:1004F00000496E76616C696420736C6F742C207493
:100500006F74616C20736C6F74733A200052657362
:10051000756D69656E646F20696D7072652E004B34
:1005200075747465726372616674206C697374614A
:100530002E004573706572616E646F206F72646522
:100540006E65730053746F70205072696E74696EBB
:1005500067005374617274205072696E74696E67BB
:100560000053696E206D6F76696D69656E746F00FA
:10057000456E642066696C65206C69737400426521
:1005800067696E2066696C65206C697374004669E2
:100590006C652064656C657465640044656C6574A5
:1005A000696F6E206661696C65640046696C6520E0
:1005B00064656C65746564005072696E742074695A
:1005C0006D6520002569682025696D202569730007
:1005D000256964202569682025696D2025697300D7
:1005E0004469726563746F727920637265617465C2
:1005F00064004372656174696F6E206661696C6541
:100600006400436C6F73652066696C6520616E647D
:10061000207361766520726573746172742E6763EE
:100620006F64650020616E64207374617274207061
:1006300072696E742E004F70656E2066696C653A43
:1006400020004B75747465726372616674204F4646
:10065000462E0043616C656E74616E646F2E2E2EA3
:10066000004B75747465726372616674206C697393
:1006700074612E0043616C656E74616D69656E74A2
:100680006F204F6B2E003F0020573A0043616C658E
:100690006E74616E646F2E2E2E004B7574746572CD
:1006A0006372616674206C697374612E006F666694
:1006B00000190314030D030603F802F402446562F3
:1006C00075673A0050415241444120444520454D10
:1006D0004552472E004D3131332053004649524D8B
:1006E000574152455F4E414D453A4B555454455242
:1006F00043524146545F5620332E372E3020464910
:10070000524D574152455F55524C3A687474703A95
:100710002F2F7777772E6B757474657263726166AD
:10072000742E636F6D2F736F6674776172652050DE
:10073000524F544F434F4C5F56455253494F4E3AD8
:10074000322E30204D414348494E455F5459504563
:100750003A43617274657369616E2045585452550D
:100760004445525F434F554E543A32205555494403
:100770003A33323462666134322D613432372D318E
:100780003165362D383066352D3736333034646573
:1007900063376562370A006373746570733A2000CB
:1007A000655F6D696E3A20007A5F70726F62653ABC
:1007B00020007A5F6D696E3A2000795F6D696E3A4C
:1007C0002000785F6D696E3A20005265706F727418
:1007D000696E6720656E6473746F702073746174E2
:1007E000757300205A00205900580020204D617870
:1007F0003A2000205A00205900580020204D696EF0
:100800003A2000536F667420656E6473746F707362
:100810003A0043616D61204F6B2E0043616C656E41
:1008200074616E646F2043616D612E005365747452
:10083000696E672054726176656C20616363656CD4
:1008400065726174696F6E3A200053657474696EE5
:1008500067205265747261637420616363656C65BF
:10086000726174696F6E3A200053657474696E67C3
:10087000205072696E7420616363656C6572617487
:10088000696F6E3A200053657474696E6720507208
:10089000696E7420616E642054726176656C2061AB
:1008A0006363656C65726174696F6E3A20002049FC
:1008B0006E76616C696420686F74656E64004D00CB
:1008C0002C002C002000486F74656E64206F6666F3
:1008D000736574733A004F66667365742061707057
:1008E0006C6965642E004F66667365742061707074
:1008F0006C6965642E004572723A20546F6F2066F1
:1009000061722100546F6F206661722066726F6D94
:10091000207265666572656E636520706F696E74BE
:100920000020496E76616C69642065787472756424
:10093000657200540041637469766520457874726D
:10094000756465723A20004163746976652044726B
:10095000697665723A20003C3C3C2067636F6465B1
:100960005F5400203A2041465445520A0063757294
:1009700072656E745F706F736974696F6E3D00208D
:100980003A204245464F52450A0063757272656EC1
:10099000745F706F736974696F6E3D0029003E3E2D
:1009A0003E2067636F64655F5428002200436F6DCB
:1009B000616E646F206E6F20656E636F6E7472611E
:1009C000646F3A2022004D36303000536520657345
:1009D00074612067757264616E646F20656C20615C
:1009E00072636869766F004D363030007365206140
:1009F000637469766F2031004563686F3A00457211
:100A0000726F722077726974696E6720746F204507
:100A10004550524F4D21002062797465732900536F
:100A2000657474696E67732053746F7265642028EF
:100A300000454550524F4D20636865636B73756D7B
:100A4000206D69736D61746368002D2D2D2D2D2D22
:100A50002D2D2D2D2D2D2D2D2D2D2D2D2D2D2D2DC6
:100A60002D2D2D2D2D2D2D2D2D2D2D2D2D2D2D2DB6
:100A70002D2D2D2D2D2D2D2D2D2D2D2D2D2D2D2DA6
:100A80002D2D2D2D2D2D2D2D2D2D2D2D2D2D0020D0
:100A900062797465732900202020202020202020E6
:100AA0002020202020202053746F726564207365FD
:100AB0007474696E677320726574726965766564B3
:100AC0002028005D2053746F726564207665727310
:100AD000696F6E3A205B0056657273696F6E3A20DB
:100AE0005B0048617264636F64656420446566619D
:100AF000756C742053657474696E6773204C6F61F4
:100B0000646564002D2D2D2D2D2D2D2D2D2D2D2D9C
:100B10002D2D2D2D2D2D2D2D2D2D2D2D2D2D2D2D05
:100B20002D2D2D2D2D2D2D2D2D2D2D2D2D2D2D2DF5
:100B30002D2D2D2D2D2D2D2D2D2D2D2D2D2D2D2DE5
:100B40002D2D2D2D2D2D2D2D002D2D2D2D2D2D2D02
:100B50002D2D2D2D2D2D2D2D2D2D2D2D2D2D2D2DC5
:100B60002D2D2D2D2D2D2D2D2D2D2D2D2D2D2D2DB5
:100B70002D2D2D2D2D2D2D2D2D2D2D2D2D2D2D2DA5
:100B80002D2D2D2D2D2D2D2D2D2D2D2D2D002D2DC2
:100B90002D2D2D2D2D2D2D2D2D2D2D2D2D2D2D2D85
:100BA0002D2D2D2D2D2D2D2D2D2D2D2D2D2D2D2D75
:100BB0002D2D2D2D2D2D2D2D2D2D2D2D2D2D2D2D65
:100BC0002D2D2D2D2D2D2D2D2D2D2D2D2D2D2D2D55
:100BD0002D2D0020450020204D323035205400209E
:100BE0004500205A002058002042002056002020B6
:100BF0002020205300002020202020202020285AC0
:100C00003D6D6178696D756D205A206A65726B2043
:100C1000286D6D2F73292C2020453D6D6178696DFD
:100C2000756D2045206A65726B20286D6D2F7329C4
:100C3000290020202020202028423D6D696E696D0A
:100C4000756D207365676D656E742074696D6520C0
:100C5000286D73292C20583D6D6178696D756D2064
:100C60005859206A65726B20286D6D2F73292900F1
:100C70002020202020202028533D4D696E206665CD
:100C800065647261746520286D6D2F73292C205660
:100C90003D4D696E2074726176656C206665656491
:100CA0007261746520286D6D2F7329290020202022
:100CB0002020202020202020202020202020202034
:100CC000202020202020202020202020284D3230CD
:100CD0003529002020202020202020202020202016
:100CE0002020202020202020202020202020202004
:100CF0007C416476616E6365647C002D2D2D2D2D05
:100D00002D2D2D2D2D2D2D2D2D2D2D2D2D2D2D2D13
:100D10002D2D2D2D2D2D2D2D2D2D2D2D2D2D2D2D03
:100D20002D2D2D2D2D2D2D2D2D2D2D2D2D2D2D2DF3
:100D30002D2D2D2D2D2D2D2D2D2D2D2D2D2D2D0010
:100D400020202020202020202020202020202020A3
:100D500020202020202020436F6E66696775726115
:100D600074696F6E20416476616E636564002D2D39
:100D70002D2D2D2D2D2D2D2D2D2D2D2D2D2D2D2DA3
:100D80002D2D2D2D2D2D2D2D2D2D2D2D2D2D2D2D93
:100D90002D2D2D2D2D2D2D2D2D2D2D2D2D2D2D2D83
:100DA0002D2D2D2D2D2D2D2D2D2D2D2D2D2D2D2D73
:100DB0002D2D0020204D3230302054312044002091
:100DC000204D32303020440046696C616D656E7490
:100DD0002073657474696E67733A0020440020497B
:100DE0000020500020202020202020202020202013
:100DF00020202020480020202020202020202020EB
:100E000020202020202020202020202020202020E2
:100E10002020202020284D33303129002020202080
:100E200020202020202020202020202020202020C2
:100E3000202020202020207C504944207365747499
:100E4000696E67737C002D2D2D2D2D2D2D2D2D2DB3
:100E50002D2D2D2D2D2D2D2D2D2D2D2D2D2D2D2DC2
:100E60002D2D2D2D2D2D2D2D2D2D2D2D2D2D2D2DB2
:100E70002D2D2D2D2D2D2D2D2D2D2D2D2D2D2D2DA2
:100E80002D2D2D2D2D2D2D2D2D2D00202020202000
:100E90002020202020202020202020202020202052
:100EA00020202020436F6E66696775726174696FD8
:100EB0006E20504944002D2D2D2D2D2D2D2D2D2D05
:100EC0002D2D2D2D2D2D2D2D2D2D2D2D2D2D2D2D52
:100ED0002D2D2D2D2D2D2D2D2D2D2D2D2D2D2D2D42
:100EE0002D2D2D2D2D2D2D2D2D2D2D2D2D2D2D2D32
:100EF0002D2D2D2D2D2D2D2D2D2D0020204D363637
:100F0000362050005A2050726F6265206F666673FB
:100F1000657420286D6D293A00205A002059002060
:100F200020473239205333205800205900205800E0
:100F300020204D3432302053004D657368206265A7
:100F400064206C6576656C696E673A00205A0020F3
:100F50005900205800202020202020202020202060
:100F6000202020202020205400202020202020206D
:100F70002020202020202020202020202020202071
:100F8000207C486F74656E64206F6666736574209C
:100F9000286D6D297C00202020202020202020206A
:100FA0002020202020202020202020202020202041
:100FB0002020202020284D323138290020202020D8
:100FC0002020202020202020202020202020202021
:100FD000202020207C486F74656E64206F666673E5
:100FE000657420286D6D297C0000205A002059006E
:100FF00020202020202020202020202020202020F1
:1010000020202058002020202020202020202020C8
:1010100020202020202020202020202020202020D0
:1010200020202020284D323036290020202020206A
:1010300020202020202020202020202020202020B0
:10104000202020207C486F6D65206F666673657474
:1010500020286D6D297C002D2D2D2D2D2D2D2D2D34
:101060002D2D2D2D2D2D2D2D2D2D2D2D2D2D2D2DB0
:101070002D2D2D2D2D2D2D2D2D2D2D2D2D2D2D2DA0
:101080002D2D2D2D2D2D2D2D2D2D2D2D2D2D2D2D90
:101090002D2D2D2D2D2D2D2D2D2D2D0020202020E1
:1010A0002020202020202020202020202020202040
:1010B00020202020436F6E66696775726174696FC6
:1010C0006E206F6666736574002D2D2D2D2D2D2DD0
:1010D0002D2D2D2D2D2D2D2D2D2D2D2D2D2D2D2D40
:1010E0002D2D2D2D2D2D2D2D2D2D2D2D2D2D2D2D30
:1010F0002D2D2D2D2D2D2D2D2D2D2D2D2D2D2D2D20
:101100002D2D2D2D2D2D2D2D2D2D2D2D2D002D2D3C
:101110002D2D2D2D2D2D2D2D2D2D2D2D2D2D2D2DFF
:101120002D2D2D2D2D2D2D2D2D2D2D2D2D2D2D2DEF
:101130002D2D2D2D2D2D2D2D2D2D2D2D2D2D2D2DDF
:101140002D2D2D2D2D2D2D2D2D2D2D2D2D2D2D2DCF
:101150002D2D002020202020202020202020202095
:101160002020202053656E736F72206465206669AD
:101170006C616D656E746F3A20002D2D2D2D2D2D17
:101180002D2D2D2D2D2D2D2D2D2D2D2D2D2D2D2D8F
:101190002D2D2D2D2D2D2D2D2D2D2D2D2D2D2D2D7F
:1011A0002D2D2D2D2D2D2D2D2D2D2D2D2D2D2D2D6F
:1011B0002D2D2D2D2D2D2D2D2D2D2D2D2D2D002099
:1011C000520020202020202020202020202020200D
:1011D000202020202020202020202020540000201B
:1011E00056002020202020202020202020202020E9
:1011F00020202020202020500020202020202020DF
:101200002020202020284D32303420503D7072693B
:101210006E74696E672C20563D74726176656C2021
:10122000616E6420542A20523D7265747261637449
:1012300029002020202020202020202020202020C5
:101240002020202020202020202020207C4163639B
:10125000656C65726174696F6E737C000020450077
:1012600020204D323031205400204500205A0020EB
:101270005900202020202020202020202020202055
:101280002020202020202020580020202020202046
:10129000202020202020202020202020202020204E
:1012A000202020202020202020284D3230312900ED
:1012B000202020202020202020202020202020202E
:1012C0002020207C4D6178696D756D2041636365D8
:1012D0006C65726174696F6E20286D6D2F73322991
:1012E0007C0020450020204D323033205400002067
:1012F0004500205A002059002020202020202020B6
:1013000020202058002020202020202020202020C5
:1013100020202020202020202020202020202020CD
:1013200020202020284D323033290020202020206A
:1013300020202020202020202020202020202020AD
:101340007C4D6178696D756D206665656472617448
:10135000657320286D6D2F73297C000020450020C7
:10136000204D3932205400436F6E6669673A002081
:101370004500205A00205900202020202020202035
:101380002020205800202020202020202020202045
:10139000202020202020202020202020202020204D
:1013A00020202020284D39322900202020202020F4
:1013B000202020202020202020202020202020202D
:1013C000202020207C537465707320706572207516
:1013D0006E69747C002D2D2D2D2D2D2D2D2D2D2D57
:1013E0002D2D2D2D2D2D2D2D2D2D2D2D2D2D2D2D2D
:1013F0002D2D2D2D2D2D2D2D2D2D2D2D2D2D2D2D1D
:101400002D2D2D2D2D2D2D2D2D2D2D2D2D2D2D2D0C
:101410002D2D2D2D2D2D2D2D2D0020202020202077
:1014200020202020202020202020202020202020BC
:101430002020202020436F6E666967757261746991
:101440006F6E002D2D2D2D2D2D2D2D2D2D2D2D2D76
:101450002D2D2D2D2D2D2D2D2D2D2D2D2D2D2D2DBC
:101460002D2D2D2D2D2D2D2D2D2D2D2D2D2D2D2DAC
:101470002D2D2D2D2D2D2D2D2D2D2D2D2D2D2D2D9C
:101480002D2D2D2D2D2D2D004D6F64656C6F3A2067
:101490000050616E74616C6C613A20002D2D2D2D11
:1014A0002D2D2D2D2D2D2D2D2D2D2D2D2D2D2D2D6C
:1014B0002D2D2D2D2D2D2D2D2D2D2D2D2D2D2D2D5C
:1014C0002D2D2D2D2D2D2D2D2D2D2D2D2D2D2D2D4C
:1014D0002D2D2D2D2D2D2D2D2D2D2D2D2D2D2D2D3C
:1014E0000029002C20002C20002800656E647374F5
:1014F0006F7073206869743A20202563202563206B
:10150000256320256300205A3A0020593A002058CC
:101510003A00656E6473746F7073206869743A2062
:10152000004D3239004E6F204C696E65204E756D4E
:10153000626572207769746820636865636B737590
:101540006D2C204C617374204C696E653A200050FC
:10155000415241444120444520454D4552472E00CB
:10156000504152414441005072696E74657220735B
:10157000746F707065642064756520746F20657287
:10158000726F72732E2046697820746865206572C8
:10159000726F7220616E6420757365204D39393920
:1015A00020746F20726573746172742E20285465E4
:1015B0006D706572617475726520697320726573F0
:1015C00065742E2053657420697420616674657299
:1015D0002072657374617274696E6729004E6F20A2
:1015E000436865636B73756D2077697468206C69F7
:1015F0006E65206E756D6265722C204C617374206F
:101600004C696E653A2000636865636B73756D2085
:101610006D69736D617463682C204C617374204C28
:10162000696E653A20004C696E65204E756D626585
:1016300072206973206E6F74204C617374204C6942
:101640006E65204E756D6265722B312C204C617376
:1016500074204C696E653A20004D313130004D33B5
:1016600031004D383420582059205A2045004D353E
:1016700030300053442072656164206572726F726D
:1016800000446F6E65207072696E74696E672066C3
:10169000696C650020496E76616C696420657874B8
:1016A0007275646572004D0002536F6674776172E3
:1016B00065205265736574005761746368646F6771
:1016C0002052657365740042726F776E206F757477
:1016D0002052657365740045787465726E616C2084
:1016E000526573657400506F7765725570002020E5
:1016F000202020202020202020202020204F6B7C14
:1017000048617264636F6465642053442044656675
:1017100061756C742053657474696E6773204C6FC7
:10172000616465640020506C616E6E65724275661E
:1017300066657242797465733A200020202020206B
:10174000202020202020202046726565204D656DD8
:101750006F72793A20002D2D2D2D2D2D2D2D2D2D13
:101760002D2D2D2D2D2D2D2D2D2D2D2D2D2D2D2DA9
:101770002D2D2D2D2D2D2D2D2D2D2D2D2D2D2D2D99
:101780002D2D2D2D2D2D2D2D2D2D2D2D2D2D2D2D89
:101790002D2D2D2D2D2D2D2D2D2D002D2D2D2D2DA6
:1017A0002D2D2D2D2D2D2D2D2D2D2D2D2D2D2D2D69
:1017B0002D2D2D2D2D2D2D2D2D2D2D2D2D2D2D2D59
:1017C0002D2D2D2D2D2D2D2D2D2D2D2D2D2D2D2D49
:1017D0002D2D2D2D2D2D2D2D2D2D2D2D2D2D2D0066
:1017E00020202020202020202020202020202020F9
:1017F000202020202020202020436F6D70696C6500
:10180000643A204F63742031312032303138002067
:1018100020202020202020202020202020202020C8
:1018200020202020202020202020417574686F7205
:101830003A20284B55545445524352414654205F58
:101840007C7C5F204D6F643A4F726C697829002070
:101850002020202020202020202020202020202088
:10186000202020204C61737420557064617465647D
:101870003A204F63742031312032303138203039F2
:101880003A34353A3432002D2D2D2D2D2D2D2D2D80
:101890002D2D2D2D2D2D2D2D2D2D2D2D2D2D2D2D78
:1018A0002D2D2D2D2D2D2D2D2D2D2D2D2D2D2D2D68
:1018B0002D2D2D2D2D2D2D2D2D2D2D2D2D2D2D2D58
:1018C0002D2D2D2D2D2D2D2D2D2D2D0020202020A9
:1018D0002020202020202020202020202020202008
:1018E00020202020204B5554544552435241465409
:1018F0005F5620332E372E30002D2D2D2D2D2D2DE2
:101900002D2D2D2D2D2D2D2D2D2D2D2D2D2D2D2D07
:101910002D2D2D2D2D2D2D2D2D2D2D2D2D2D2D2DF7
:101920002D2D2D2D2D2D2D2D2D2D2D2D2D2D2D2DE7
:101930002D2D2D2D2D2D2D2D2D2D2D2D2D002D2D04
:101940002D2D2D2D2D2D2D2D2D2D2D2D2D2D2D2DC7
:101950002D2D2D2D2D2D2D2D2D2D2D2D2D2D2D2DB7
:101960002D2D2D2D2D2D2D2D2D2D2D2D2D2D2D2DA7
:101970002D2D2D2D2D2D2D2D2D2D2D2D2D2D2D2D97
:101980002D2D00202020202020202020202020205D
:1019900020202020202020202020204B75747465DA
:1019A000726372616674204669726D776172650058
:1019B0002D2D2D2D2D2D2D2D2D2D2D2D2D2D2D2D57
:1019C0002D2D2D2D2D2D2D2D2D2D2D2D2D2D2D2D47
:1019D0002D2D2D2D2D2D2D2D2D2D2D2D2D2D2D2D37
:1019E0002D2D2D2D2D2D2D2D2D2D2D2D2D2D2D2D27
:1019F0002D2D2D2D007374617274003FFFF860006F
:101A00000CC0000680380290FE029BC7829F01C274
:101A10009E00C29F00629F80628000328000328000
:101A200000328000628000628000C28301C283C7EE
:101A30008280FE02803802C0000660000C3FFFF882
:101A40003FFFF87FFFFCFFFFFEFFC7FEEF01FEE454
:101A5000387EE0FE3EE1FF3EE0FF9EE07F9EFFFF1E
:101A6000CEFFFFCEFFFFCEFFFF9EFFFF9EFFFF3E9C
:101A7000FCFE3EFC387EFF01FEFFC7FEFFFFFE7F3F
:101A8000FFFC3FFFF8566F6C766572004D323400F4
:101A90004D3233202573004D6F766572205A005603
:101AA0006F6C76657200303100506F736963696FD7
:101AB0006E20303100303100303200506F73696376
:101AC000696F6E20303200303200303300506F7357
:101AD0006963696F6E20303300303300303400505A
:101AE0006F736963696F6E203034003034003035B5
:101AF00000506F736963696F6E20303500303500B8
:101B0000303600506F736963696F6E203036003075
:101B10003600303700506F736963696F6E2030375D
:101B200000303700303800506F736963696F6E2082
:101B30003038003038003039007FFCC00680028029
:101B40000280028002800280028002800280028085
:101B5000028002C0067FFC506F736963696F6E205C
:101B60003039003039007FFCFFFEFFFEFFFEFFFE34
:101B7000FFFEFFFEFFFEFFFEFFFEFFFEFFFEFFFE7D
:101B8000FFFE7FFC4D353030004D34323020533075
:101B90000A4D353030004D3432302053310A4D3546
:101BA0003030004D353030004D353030004D35305F
:101BB00030004732380A473238205820590A473116
:101BC000205A30004E4F2D436F6E7420646573644D
:101BD0006520626173650053492D436F6E74205513
:101BE0006C7420506F736963696F6E007065676114
:101BF00064612061206C612063616D613F004C6114
:101C000020696D70726573696F6E207369677565A1
:101C100000526573656E643A006F6B00205A3A009B
:101C200020593A0020436F756E7420583A002045C1
:101C30003A00205A3A0020593A00583A00636F6C33
:101C40006420657874727573696F6E207072657642
:101C5000656E7465640000416C677569656E20701F
:101C6000756C736F20656C2073656E736F72206482
:101C7000652066696C616D656E746F3A20004D3643
:101C800030300073652061637469766F20320050D4
:101C9000415241444120444520454D4552472E0084
:101CA00050415241444120444520454D4552472E24
:101CB0000070617573612070617261206573706579
:101CC000726100706175736120706172612075735B
:101CD0006F0070726F636573616E646F006275731D
:101CE000793A00506C6561736520726573657400A4
:101CF0005052494E5445522048414C54454400509E
:101D000072696E7465722068616C7465642E206BF4
:101D1000696C6C28292063616C6C65642100290062
:101D20003C3C3C207365745F617869735F69735FE5
:101D300061745F686F6D652800203A200A00637542
:101D40007272656E745F706F736974696F6E3D0057
:101D50005D203D2000686F6D655F6F66667365741A
:101D60005B007A70726F62655F7A6F666673657426
:101D7000203D2000000000000000000000000000E6
:101D800029003E3E3E207365745F617869735F6928
:101D9000735F61745F686F6D6528005761726E696B
:101DA0006E673A20486F6D696E672042756D7020CE
:101DB00044697669736F72203C20310029003C3CF5
:101DC0003C20686F6D656178697328003E200020B3
:101DD0003A204146544552207365745F61786973B7
:101DE0005F69735F61745F686F6D650A0063757228
:101DF00072656E745F706F736974696F6E3D003EDB
:101E000020326E6420486F6D6520003E203173746F
:101E100020486F6D65200000004D4300004D4300D9
:101E20000034433E2000FFFFFF29003E3E3E206875
:101E30006F6D656178697328004D494E54454D506A
:101E4000204552524F52004D494E54454D5020743A
:101E50007269676765726564004D494E54454D501F
:101E600020424544204552524F5200FFE0FFD1AF7F
:101E7000FF32FFD0FFFEFFE0FFD1AEFFD0FFFEFF3D
:101E8000E0FFD11000FFFEFFD0FFE0FFC1FFD1AEA9
:101E9000D580A83FD300408D142000A1C8DA12815C
:101EA000CFD9F1DB402EA4A6AFFFD0FFFE736F6643
:101EB000745F656E6473746F705F6D6178203D2030
:101EC00000736F66745F656E6473746F705F6D69C5
:101ED0006E203D2000706F736974696F6E5F736868
:101EE000696674203D2000686F6D655F6F6666737C
:101EF0006574203D200020617869733A00466F7256
:101F0000200000004D4300004D430000344300001A
:101F100000000000000000000000203A2073796EED
:101F2000635F706C616E5F706F736974696F6E0A66
:101F30000063757272656E745F706F736974696F38
:101F40006E3D00203A20636C65616E5F75705F6165
:101F5000667465725F656E6473746F705F6F725FD5
:101F600070726F62655F6D6F76650A00637572727D
:101F7000656E745F706F736974696F6E3D003E3E8D
:101F80003E20646F5F626C6F636B696E675F6D6F3D
:101F900076655F746F006465706C6F793A2000201D
:101FA0003A207365745F70726F62655F6465706C10
:101FB0006F7965640A0063757272656E745F706F25
:101FC000736974696F6E3D00203A203C3C3C20648C
:101FD0006F5F70726F62655F6D6F76650A00637523
:101FE0007272656E745F706F736974696F6E3D00B5
:101FF000203A203E3E3E20646F5F70726F62655FE4
:102000006D6F76650A0063757272656E745F706FCE
:10201000736974696F6E3D002042403A0020403A77
:1020200000202F0020423A00202F0020543A0020A8
:102030003A2073657475705F666F725F656E647366
:10204000746F705F6F725F70726F62655F6D6F76D5
:10205000650A0063757272656E745F706F73697480
:10206000696F6E3D002066697273740059005800F4
:10207000486F6D65200020666972737400590058BE
:1020800000486F6D6520003C3C3C2067636F6465D1
:102090005F47323800203A204D424C20486F6D6532
:1020A0002058206F7220590A0063757272656E7431
:1020B0005F706F736974696F6E3D00203A204D4206
:1020C0004C2052657374204F726967696E0A006311
:1020D000757272656E745F706F736974696F6E3D4F
:1020E000004D424C205A20686F6D696E67004D426A
:1020F0004C20686173206D65736800203A20286861
:102100006F6D655F616C6C5F61786973207C7C20AA
:10211000686F6D655A29203E2066696E616C0A0001
:1021200063757272656E745F706F736974696F6ED8
:102130003D003C3C3C205A5F534146455F484F4D73
:10214000494E4700736F6E6461205A206675657250
:102150006100736F6E6461205A206675657261005C
:10216000203A205A5F534146455F484F4D494E47FC
:10217000203E20686F6D655F616C6C5F617869738C
:102180000A0064657374696E6174696F6E3D002046
:102190003A205A5F534146455F484F4D494E4720CC
:1021A0003E20686F6D655F616C6C5F617869730A72
:1021B0000063757272656E745F706F736974696FB6
:1021C0006E3D003E205A5F534146455F484F4D49A2
:1021D0004E47203E3E3E00203A20686F6D65590A0A
:1021E0000063757272656E745F706F736974696F86
:1021F0006E3D00203A20686F6D65580A0063757265
:1022000072656E745F706F736974696F6E3D0052B2
:1022100061697365205A20286265666F726520685F
:102220006F6D696E672920746F20003E20656E64B3
:1022300073746F70732E656E61626C65287472754D
:10224000652900203A20536574205A20746F20704D
:1022500072655F686F6D655F7A0A0063757272659B
:102260006E745F706F736974696F6E3D004D424CA0
:102270002077617320616374697665003E3E3E207D
:1022800067636F64655F473238002F0053442070E6
:1022900072696E74696E67206279746520004E6F92
:1022A00074205344207072696E74696E6700496DC2
:1022B0007072696D69656E646F00207364706F730E
:1022C0005F7361766500206E616D65534156450010
:1022D00000446F6E6520736176696E672066696C75
:1022E000652E006572726F722077726974696E670D
:1022F00020746F2066696C6500203A203C3C3C20CD
:1023000072756E5F7A5F70726F62650A00637572D4
:1023100072656E745F706F736974696F6E3D0000F3
:1023200000A0400000A04000000040203A203E3EB7
:102330003E2072756E5F7A5F70726F62650A00632D
:10234000757272656E745F706F736974696F6E3DDC
:10235000003C3C3C2070726F62655F7074003E20F0
:10236000003E200029002C20003E20646F5F626C3C
:102370006F636B696E675F6D6F76655F746F5F78B3
:10238000792800203A200A0063757272656E745FC6
:10239000706F736974696F6E3D0029002C20002CEA
:1023A00020003E3E3E2070726F62655F70742800B0
:1023B0006F70656E206661696C65642C2046696C7F
:1023C000653A200057726974696E6720746F2066E1
:1023D000696C653A200043616E6E6F7420656E749F
:1023E0006572207375626469723A20002900646F17
:1023F0005F70726F62655F72616973652800496E14
:10240000666F3A001FFFFFF0300000186000000CFC
:10241000C0020086800301828002828281827C82E7
:1024200081827C8287E27C8287E27C8281827C82DC
:1024300081827C8280027C8280027C8281827C829A
:1024400081827C8281827C8281827C8281827C8288
:1024500081827C8281827C8281827C8287E27C8212
:1024600083C292828183118280021082C000100692
:102470006000000C300000181FFFFFF01FFFFFF08E
:102480003FFFFFF87FFFFFFCFFFDFF7EFFFCFE7EAE
:10249000FFFD7D7EFE7D837EFE7D837EF81D837E37
:1024A000F81D837EFE7D837EFE7D837EFFFD837E21
:1024B000FFFD837EFE7D837EFE7D837EFE7D837EAB
:1024C000FE7D837EFE7D837EFE7D837EFE7D837E1C
:1024D000FE7D837EF81D837EFC3D6D7EFE7CEE7E60
:1024E000FFFDEF7EFFFFEFFE7FFFFFFC3FFFFFF8EA
:1024F0001FFFFFF01FFFFFF0300000186000000C0E
:10250000C0020086800301828002828281827C82F6
:1025100083C27C8287E27C8281827C8281827C820F
:1025200081827C8281827C8281827C8281827C82A7
:1025300081827C8281827C8280027C8280027C8299
:1025400080027C8280027C8287E27C8287E27C82BD
:10255000800292828003118280021082C0001006E5
:102560006000000C300000181FFFFFF01FFFFFF09D
:102570003FFFFFF87FFFFFFCFFFDFF7EFFFCFE7EBD
:10258000FFFD7D7EFE7D837EFC3D837EF81D837E88
:10259000FE7D837EFE7D837EFE7D837EFE7D837E4B
:1025A000FE7D837EFE7D837EFE7D837EFE7D837E3B
:1025B000FFFD837EFFFD837EFFFD837EFFFD837E27
:1025C000F81D837EF81D837EFFFD6D7EFFFCEE7E91
:1025D000FFFDEF7EFFFFEFFE7FFFFFFC3FFFFFF8F9
:1025E0001FFFFFF01FFFFFF0300000186000000C1D
:1025F000C00000068000000280EE000280EF0002B2
:1026000080EF800280EFC00280EFE00280EFF002F6
:1026100080EFF80280EFFC0280EFFE0280EFFF0205
:1026200080EFFF8280EFFF0280EFFE0280EFFC026E
:1026300080EFF80280EFF00280EFE00280EFC0024E
:1026400080EF800280EF000280EE0002C0000006F2
:102650006000000C300000181FFFFFF01FFFFFF0AC
:102660003FFFFFF87FFFFFFCFFFFFFFEFFFFFFFEC6
:10267000FF11FFFEFF10FFFEFF107FFEFF103FFE69
:10268000FF101FFEFF100FFEFF1007FEFF1003FEDE
:10269000FF1001FEFF1000FEFF10007EFF1000FE85
:1026A000FF1001FEFF1003FEFF1007FEFF100FFEDC
:1026B000FF101FFEFF103FFEFF107FFEFF10FFFE0A
:1026C000FF11FFFEFFFFFFFE7FFFFFFC3FFFFFF854
:1026D0001FFFFFF043414D42494F204445204649EA
:1026E0004C414D454E544F00646574656E67610002
:1026F000696D707265736F726120736500457370E8
:10270000657265206120717565206C610043414DE3
:1027100042494F2044452046494C414D454E544F77
:10272000004C696D7069616E646F20626F717569CC
:102730006C6C61004573706572650043414D4249A0
:102740004F2044452046494C414D454E544F007959
:1027500020636F6E74696E75650050726573696F82
:102760006E6520656C20626F746F6E0043414D4250
:10277000494F2044452046494C414D454E544F0059
:102780005265746972616E646F2066696C616D6513
:102790006E746F004573706572650043414D424928
:1027A0004F2044452046494C414D454E544F00432F
:1027B000617267616E646F2066696C616D656E74CD
:1027C0006F004573706572650043414D42494F206B
:1027D00044452046494C414D454E544F0052656199
:1027E0006E7564616E646F20696D70726573696F78
:1027F0006E004573706572650043414D42494F203C
:1028000044452046494C414D454E544F0054617259
:102810006A657461207265746972616461005461F3
:10282000726A65746120636F6C6F6361646100003C
:10283000060900FE000000000001090008FE00007B
:1028400005080806000040F0C88888987810050838
:1028500008060000C0F88888888888F805050506FD
:1028600000012030F830200508080600002070F82C
:1028700020202020E00509090600FF2070A8A8B844
:10288000888870200509090600FFE080C0B0A828EC
:102890003028280509090600FFF8A8888888888854
:1028A000A8F8050A0A0600FE205050505088A8A833
:1028B000887003030306000340A0404D353030000C
:1028C000436F6E74696E7561720043616E63656C0F
:1028D000617200436F6E206C6120696D7072657368
:1028E000696F6E00446573656120636F6E74696E15
:1028F00075617200436F727465206465206C757A2F
:10290000210053656E736F722066696C616D656E30
:10291000746F5B4F66665D0053656E736F72206601
:10292000696C616D656E746F205B4F6E5D004775FD
:1029300061726461646F20202020202020205B4F82
:1029400066665D00477561726461646F20202020B7
:1029500020202020205B4F6E5D00496E666F726DF7
:102960006163696F6E2020205B43617061735D005D
:10297000496E666F726D6163696F6E2020205B43E4
:102980006F6F72645D004175746F6C6576656C2065
:102990002020202020205B4F66665D00456E636F1F
:1029A0006465722020202020202020205B44455296
:1029B0005D004175746F6C6576656C202020202069
:1029C0002020205B4F6E5D00416A75737461722038
:1029D000504944004964696F6D6120202020202007
:1029E00020202020205B45535D0056657273696F7F
:1029F0006E00456E636F64657220202020202020C9
:102A000020205B495A515D00566F6C76657220201C
:102A10002020202020202020202020200400566F6D
:102A20006C766572003FFFF860000CC00006800005
:102A30000280080280380280380280380280380222
:102A40008038028038028000028038028539428551
:102A5000834286FEC283018281FF028000028FFFD3
:102A6000E2C0000660000C3FFFF83FFFF87FFFFC6C
:102A7000FFFFFEFFFFFEFFF7FEFFC7FEFFC7FEFFE3
:102A8000C7FEFFC7FEFFC7FEFFC7FEFFFFFEFFC773
:102A9000FEFAC6BEFA7CBEF9013EFCFE7EFE00FEDA
:102AA000FFFFFEF0001EFFFFFE7FFFFC3FFFF83F31
:102AB000FFF860000CC0000680000280470281C45D
:102AC0000281C60281C40281C60281C40281C7029A
:102AD00080040281C60281C4028006028004028052
:102AE000070280000287FFC2800002C0000660006B
:102AF0000C3FFFF83FFFF87FFFFCFFFFFEFFFFFEEC
:102B0000FFB8FEFE3BFEFE39FEFE3BFEFE39FEFE3A
:102B10003BFEFE38FEFFFBFEFE39FEFE3BFEFFF9EC
:102B2000FEFFFBFEFFF8FEFFFFFEF8003EFFFFFE8C
:102B3000FFFFFE7FFFFC3FFFF83FFFF860000CC087
:102B4000000680000280000281830281C70281EFBB
:102B50000281FF0281BB0281930281830281830291
:102B600081830280000287FF828000028FFFE28F54
:102B7000FFE2800002C0000660000C3FFFF83FFF4C
:102B8000F87FFFFCFFFFFEFFFFFEFFFFFEFE7CFE67
:102B9000FE38FEFE10FEFE00FEFE44FEFE6CFEFE53
:102BA0007CFEFE7CFEFE7CFEFFFFFEF8007EFFFF4B
:102BB000FEF0001EF0001EFFFFFEFFFFFE7FFFFC89
:102BC0003FFFF83FFFF860000CC000068000028065
:102BD0000002807C0280FE0281C702818302818321
:102BE0000281FF0281FF02818302818302818302CD
:102BF00080000283FF828000028FFFE28FFFE2C02D
:102C0000000660000C3FFFF83FFFF87FFFFCFFFF6E
:102C1000FEFFFFFEFFFFFEFF83FEFF01FEFE38FE0C
:102C2000FE7CFEFE7CFEFE00FEFE00FEFE7CFEFE46
:102C30007CFEFE7CFEFFFFFEFC007EFFFFFEF00040
:102C40001EF0001EFFFFFE7FFFFC3FFFF83FFFF876
:102C500060000CC00006800002800002800002813B
:102C6000C20281C70281CF8281C70283E70281C786
:102C70000280870280000280000283FF82800002BF
:102C80008FFFE28FFFE2800002C0000660000C3F71
:102C9000FFF83FFFF87FFFFCFFFFFEFFFFFEFFFF97
:102CA000FEFFFFFEFE3DFEFE38FEFE307EFE38FEDD
:102CB000FC18FEFE38FEFF78FEFFFFFEFFFFFEFC65
:102CC000007EFFFFFEF0001EF0001EFFFFFEFFFF74
:102CD000FE7FFFFC3FFFF841206C696E6961722046
:102CE000656A65207A003FFFF860000CC00006802E
:102CF000000281FF02800002801002803802807C86
:102D0000028038028038028038028038028038021F
:102D100080000283FF828000028FFFE28FFFE2804B
:102D20000002C0000660000C3FFFF83FFFF87FFF85
:102D3000FCFFFFFEFFFFFEFE00FEFFFFFEFFEFFEBB
:102D4000FFC7FEFF83FEFFC7FEFFC7FEFFC7FEFFF4
:102D5000C7FEFFC7FEFFFFFEFC007EFFFFFEF00088
:102D60001EF0001EFFFFFEFFFFFE7FFFFC3FFFF88F
:102D7000436170613A006361706120646520636142
:102D80006D62696F0053656C656363696F6E617234
:102D9000006F70656E206661696C65642C20466901
:102DA0006C653A200046696C652073656C656374D8
:102DB0006564002053697A653A200046696C652095
:102DC0006F70656E65643A20004D353030005354A5
:102DD000415254205052494E5445523A0022006507
:102DE0006E7175657565696E6720220053442063B6
:102DF000617264206F6B00534420696E69742066B1
:102E000061696C004572726F723A0070012C01901A
:102E1000012701B0012201C0011D01F001180110BC
:102E200002130130020E016002090190020401C088
:102E300002FF000003FA004003F5008003F000D019
:102E400003EB002004E6007004E100E004DC004035
:102E500005D700C005D2004006CD00D006C80080CE
:102E600007C3003008BE00F008B900C009B400B0C4
:102E70000AAF00B00BAA00D00CA500000EA00050B5
:102E80000F9B00C01096005012910000148C00C0DF
:102E9000158700B0178200B0197D00D01B780000A4
:102EA0001E730040206E0090226900F024640040F0
:102EB000275F0090295A00E02B5500102E5000206B
:102EC000304B0010324600E033410090353C00109A
:102ED00037370070383200A0392D00B03A2800A0F2
:102EE0003B2300603C1E00103D1900903D14001073
:102EF0003E0F00703E0A00C03E0500003F0000206B
:102F00004B643A2000204B693A2000204B703A2055
:102F100000504944204175746F74756E6520666970
:102F20006E6973686564212050757420746865202B
:102F30006C617374204B702C204B6920616E64208F
:102F40004B6420636F6E7374616E74732066726F6E
:102F50006D2061626F766520696E746F20436F6EBD
:102F600066696775726174696F6E2E68206F722072
:102F700073656E6420636F6D6D616E64204D3530D6
:102F80003020666F72207361766520696E2045453A
:102F900050524F4D20746865206E65772076616CC5
:102FA00075652100504944204175746F74756E65D4
:102FB000206661696C6564212074696D656F757444
:102FC00000504944204175746F74756E65206661C8
:102FD000696C6564212054656D70657261747572E9
:102FE0006520746F6F206C6F7700504944204175E5
:102FF000746F74756E65206661696C656421205418
:10300000656D706572617475726520746F6F20688C
:1030100069676800204B643A2000204B693A200021
:10302000204B703A200020436C6173736963205019
:10303000494420002054753A2000204B753A200066
:10304000206D61783A2000206D696E3A200020647E
:103050003A200020626961733A2000204170706C50
:103060007920726573756C7400204379636C6573A5
:103070003A20002054656D703A2000486F74656EE8
:10308000643A20004348414D4245520042454400C5
:10309000504944204175746F74756E652073746176
:1030A000727400504944204175746F74756E6520C8
:1030B0006661696C656421204261642074656D708D
:1030C0006572617475726520636F6E74726F6C6C7B
:1030D0006572206E756D626572002C207379737451
:1030E000656D2073746F707065642120436F6F6C21
:1030F0006572002C2073797374656D2073746F7022
:1031000070656421204368616D626572002C2073D4
:10311000797374656D2073746F70706564212042DB
:103120006564002C2073797374656D2073746F70FF
:1031300070656421204865617465725F49443A2076
:103140000050415241444120444520454D4552479D
:103150002E00202D20496E76616C6964206578749C
:103160007275646572206E756D626572202100C093
:10317000159100B0178C00B0198700D01B82000099
:103180001E7D004020780090227300F0246E0040E5
:1031900027690090296400B02A5F00D02B5A00F004
:1031A0002C5500102E500020304B0010324600E00D
:1031B00033410090353C001037370070383200A0A2
:1031C000392D00B03A2800A03B2300603C1E0010BF
:1031D0003D1900903D1400103E0F00703E0A00C0E3
:1031E0003E0500003F000043616C656E74616E64D3
:1031F0006F2E2E2E00506F72206661766F722065E2
:103200007370657265003FFFF87FFFFCFFFFFEFFF4
:10321000FFFEFFFFFEFFFFFEFFFFFEFFFFFEE6DEFD
:103220006EE6DE6EEADEAEEADEAEEADEAEECDECE04
:10323000ECC2CEFFFFFEFFFFFEFFFFFEFFFFFEFF23
:10324000FFFEFFFFFE7FFFFC3FFFF83FFFF860003F
:103250000CC0000680000280000280000280000294
:10326000800002992192992192952152952152959F
:103270002152932132933D3280000280000280006F
:1032800002800002800002C0000660000C3FFFF8D0
:103290003FFFF87FFFFCFFFFFEFFFFFEFFFFFEFF8B
:1032A000FFFEFFFFFEFFFFFEC2F176DEF776DEF7E0
:1032B000AEC6F1DEDEF7AEDEF776DE1176FFFFFE9C
:1032C000FFFFFEFFFFFEFFFFFEFFFFFEFFFFFE7F93
:1032D000FFFC3FFFF83FFFF860000CC000068000D5
:1032E00002800002800002800002800002BD0E8A7F
:1032F000A1088AA10852B90E22A10852A1088AA1E8
:10330000EE8A8000028000028000028000028000BD
:1033100002C0000660000C3FFFF83FFFF87FFFFC93
:10332000FFFFFEFFFFFEFFFFFEFFFFFEFFFFFEFFB2
:10333000FFFEF38F1EEDB6FEEDB6FEE18F3EEDB75C
:10334000DEEDB7DEED8E3EFFFFFEFFFFFEFFFFFE70
:10335000FFFFFEFFFFFEFFFFFE7FFFFC3FFFF83F8A
:10336000FFF860000CC000068000028000028000B0
:10337000028000028000028C70E2924902924902AF
:103380009E70C29248229248229271C280000280AE
:103390000002800002800002800002C0000660007F
:1033A0000C3FFFF83FFFF87FFFFCFFFFFEFFFFFE33
:1033B000FFFFFEFFFFFEFFFFFEFFFFFEE3BF3EED50
:1033C000BEDEEDBEDEE3BE1EEFBEDEEFBEDEEF868E
:1033D000DEFFFFFEFFFFFEFFFFFEFFFFFEFFFFFE23
:1033E000FFFFFE7FFFFC3FFFF83FFFF860000CC0CF
:1033F000000680000280000280000280000280003F
:10340000029C40C29241229241229C41E290412280
:103410009041229079228000028000028000028088
:103420000002800002C0000660000C3FFFF85072EE
:103430006564657465726D696E61646F004578746A
:103440007275736F723A006C612074656D7065728D
:1034500061747572610053656C656363696F6E6555
:10346000004731205A313520463430300A4732384F
:10347000205A0A4731205A30004731205A31300A49
:103480004732380A4D383400506F736963696F6E84
:1034900020342064652034004731205A31300A47F7
:1034A00031205831373020593430204632303030D6
:1034B0000A473238205A0A4731205A3000506F7379
:1034C0006963696F6E2033206465203400473120C2
:1034D0005A31300A473120583430205931353020A4
:1034E00046323030300A473238205A0A4731205AA3
:1034F00030001FFFFFF03FFFFFF87FFFFFFCFFFFE3
:10350000FFFEFFF83FFEFFE00FFEFF8003FEF70324
:1035100081FEF20FE0FEF01FF07EF03FF87EF07FBC
:10352000FC3EF03FFE3EF01FFE1EFFFFFF1EFFFFB2
:10353000FF1EFFFFFF1EFFFFFE1EFFFFFE3EFFFF01
:10354000FC3EFFFFF87EFF9FF07EFF0FE0FEFF03D3
:1035500081FEFF8003FEFFE00FFEFFF83FFE7FFFCE
:10356000FFFC3FFFFFF81FFFFFF01FFFFFF03000E1
:1035700000186000000CC00000068007C002801F19
:10358000F002807FFC0288FC7E028DF01F028FE03B
:103590000F828FC007828F8003C28FC001C28FE06D
:1035A00001E2800000E2800000E2800000E2800092
:1035B00001E2800001C2800003C2800007828060B7
:1035C0000F8280F01F0280FC7E02807FFC02801F41
:1035D000F002C007C0066000000C300000181FFF9A
:1035E000FFF0506F736963696F6E2032206465204D
:1035F00034004731205A31300A47312058313730B2
:1036000020593135302046323030300A47323820A8
:103610005A0A4731205A3000506F736963696F6EE0
:1036200020312064652034004731205A31300A4768
:103630003120583430205934302046323030300A6E
:10364000473238205A0A4731205A3000FFFFFFFF27
:10365000FFFFFFFFFFFFFFFFE08000000000000012
:10366000000000000020B1C71C71C71C71C71C718D
:10367000C71C20A38E38E38E38E38E38E38E38A043
:10368000871C71C71C71C71C71C71C71A08000000A
:1036900000000000000000000020FFFFFFFFFFFF10
:1036A000FFFFFFFFFFFFE0FFFFFFFFFFFFFFFFFF49
:1036B000FFFFFFE0800000000000000000000000AD
:1036C000208E38E38E38E38E38E38E38E3A09C7189
:1036D000C71C71C71C71C71C71C720B8E38E38E3C3
:1036E0008E38E38E38E38E2080000000000000005A
:1036F0000000000020FFFFFFFFFFFFFFFFFFFFFFB5
:10370000FFE0506F72206661766F7220657370659E
:1037100072650047323800436F6E74696E7561726E
:10372000001FFFFFF03FFFFFF87FFFFFFCFFFFFFE1
:10373000FEFE7FFFFEFE7FC0FEF99FDEFEF99FD2F8
:10374000FEFE7FDAFEFE63D2FEFFC3DAFEFFCFD2BB
:10375000FEFFCFDAFEFFCFD2FEFFC3DAFEFFE39219
:103760007EFFFF333EFFFE619EFFFEC0DEFFFE8058
:103770005EFFFEC0DEFFFE619EFFFF333EFFFF9E49
:103780007EFFFFC0FEFFFFFFFEFFFFFFFE7FFFFF8C
:10379000FC3FFFFFF81FFFFFF01FFFFFF0300000AE
:1037A000186000000CC00000068180000281803F8C
:1037B000028660210286602D0281802502819C2D77
:1037C00002803C250280302D028030250280302D81
:1037D00002803C2502801C6D828000CCC280019E4C
:1037E0006280013F2280017FA280013F2280019EF2
:1037F000628000CCC28000618280003F02800000B5
:1038000002C00000066000000C300000181FFFFF1F
:10381000F01FFFFFF03FFFFFF87FFFFFFCFFFFFF00
:10382000FEFFFFFFFEF8E3C0FEF843DEFEF803D222
:10383000FEFC47DAFEFEEFD2FEFC47DAFEF803D2CA
:10384000FEF843DAFEF8E3D2FEFFFFDAFEFFFF9256
:103850007EFFFF333EFFFE619EFFFEC0DEFFFE8067
:103860005EFFFEC0DEFFFE619EFFFF333EFFFF9E58
:103870007EFFFFC0FEFFFFFFFEFFFFFFFE7FFFFF9B
:10388000FC3FFFFFF81FFFFFF01FFFFFF0300000BD
:10389000186000000CC000000680000002871C3F7A
:1038A0000287BC210287FC2D0283B8250281102DDE
:1038B0000283B8250287FC2D0287BC2502871C2DB8
:1038C000028000250280006D828000CCC280019EB3
:1038D0006280013F2280017FA280013F2280019E01
:1038E000628000CCC28000618280003F02800000C4
:1038F00002C00000066000000C300000181FFFFF2F
:10390000F054656D7065726174757261004D31308F
:10391000342054302053313930004D31303420546C
:10392000302053323330004D313034205430205366
:10393000323130004D313034205430205332343065
:1039400000426173652063616C6962726164610049
:103950004D353030004D6F766572205A0047323851
:1039600000506F736963696F6E002569202F2025F1
:1039700075004731205A3000436F6E74696E75616F
:10398000720050726573696F6E6520436C696B20BD
:103990005061726100506F72206661766F722065AF
:1039A0007370657265005265616C697A616E646FEF
:1039B00020486F6D652E2E2E00473238004F666608
:1039C0007365743A004D353030004D6F7665722066
:1039D0005A004D3432302053310A4D3530300047D3
:1039E00031205A30004739310A47312058343420C9
:1039F000592D34312046333030300A4739300050A9
:103A00006F72206661766F722065737065726500F3
:103A10005265616C697A616E646F20486F6D652EC6
:103A20002E2E0047323800546172656120303420F8
:103A3000527574696E610047323800546172656175
:103A40002030342066696E616C000056616C6F72C4
:103A50002064656C207A0054617265612030340006
:103A600043616C696272616E646F2E2E2E000006D7
:103A70000900FE070192032120FFFF08FF07FF0056
:103A80000000060000010707060200808080808099
:103A90000080030202060105A0A00507070600003A
:103AA0005050F850F850500507070600002078A045
:103AB0007028F020050707060000C0C810204098B5
:103AC000180507070600006090A040A89068020350
:103AD00003060104C0408003070706010020408060
:103AE00080804020030707060100804020202040FE
:103AF0008005050506000120A870A820050505061B
:103B000000012020F820200203030602FFC04080AD
:103B1000050101060003F8020202060200C0C0050A
:103B20000505060001081020408005070706000073
:103B30007088888888887003070706010040C040A5
:103B4000404040E00507070600007088087080804C
:103B5000F8050707060000F81020100808F0050710
:103B60000706000010305090F810100507070600F7
:103B700000F880F0080888700507070600007080CC
:103B800080F0888870050707060000F808102020DC
:103B90002020050707060000708888708888700557
:103BA0000707060000708888780808700205050677
:103BB0000200C0C000C0C00206060602FFC0C0006E
:103BC000C0408004070706000010204080402010FD
:103BD000050303060002F800F80407070601008049
:103BE000402010204080050707060000708808105C
:103BF00020002005070706000070880868A8A87044
:103C0000050707060000708888F888888805070778
:103C1000060000F08888F08888F005070706000095
:103C200070888080808870050707060000F088880B
:103C3000888888F0050707060000F88080F08080FB
:103C4000F8050707060000F88080F08080800507EF
:103C500007060000708880B888887005070706008E
:103C600000888888F8888888010707060200808015
:103C70008080808080050707060000381010101033
:103C800090600507070600008890A0C0A0908805F6
:103C90000707060000808080808080F805070706FF
:103CA000000088D8A888888888050707060000884B
:103CB00088C8A89888880507070600007088888843
:103CC000888870050707060000F08888F0808080EB
:103CD00005070706000070888888A8906805070710
:103CE000060000F08888F0A090880507070600000D
:103CF000788080700808F0050707060000F820208B
:103D000020202020050707060000888888888888EA
:103D100070050707060000888888888850200507F6
:103D2000070600008888888888A8500507070600CD
:103D3000008888502050888805070706000088887A
:103D40008850202020050707060000F808102040B2
:103D500080F8030707060100E08080808080E0058E
:103D60000505060001804020100803070706010032
:103D7000E02020202020E0050303060004205088D6
:103D8000050101060000F802020206020580400556
:103D9000050506000070087888780507070600000A
:103DA0008080B0C88888F005050506000070808016
:103DB0008870050707060000080868988888780555
:103DC00005050600007088F88070050707060000EA
:103DD0003048E0404040400506060600FF708888F5
:103DE0007808700507070600008080B0C8888888BA
:103DF0000107070602008000808080808003080899
:103E00000601FF200020202020A040040707060014
:103E100000808090A0C0A090030707060100C0406A
:103E200040404040E0050505060000D0A8A8A8A82D
:103E3000050505060000B0C8888888050505060048
:103E40000070888888700506060600FFF08888F0F4
:103E500080800506060600FF788888780808050532
:103E600005060000B0C880808005050506000070CA
:103E7000807008F00407070600004040E040404022
:103E80003005050506000088888898680505050640
:103E9000000088888850200505050600008888A84D
:103EA000A850050505060000885020508805060624
:103EB0000600FF888888780870050505060000F868
:103EC000102040F8030707060100204040804040D2
:103ED0002001070706020080808080808080030721
:103EE0000706010080404020404080050202060095
:103EF00002689000000006000000000006000000BC
:103F0000000006000000000006000000000006009F
:103F10000000000006000000000006000000000095
:103F2000060000000000060000000000060000007F
:103F3000000006000000000006000000000006006F
:103F40000000000006000000000006000000000065
:103F5000060000000000060000000000060000004F
:103F6000000006000000000006000000000006003F
:103F70000000000006000000000006000000000035
:103F8000060000000000060000000000060000001F
:103F9000000006000000000006000000000006000F
:103FA0000000000006000000000006000000000005
:103FB00006000000000006000000000006000001EE
:103FC00007070602008000808080808005070706C2
:103FD00000002070A8A0A870200507070600003088
:103FE0004040E04050A8050505060000887050706C
:103FF00088050707060000885020F820F8200107F0
:104000000706020080808000808080050808060086
:10401000003048205050209060030101060107A0A5
:10402000050707060000F888B8B8B888F80507073C
:10403000060001700878887800F80505050600017B
:104040002850A05028050303060001F808080202C2
:10405000020602064080050707060000F888A888C7
:1040600098A8F8050101060006F8040404060003F8
:10407000609090600507070600002020F8202000CF
:10408000F804050506000360902040F003050506CE
:104090000003E020E020E002020206020640800564
:1040A00008080600FF8888888898E8808005070748
:1040B0000600007898987818181802020206020282
:1040C000C0C00202020602FF40800305050600038D
:1040D00040C04040E00507070600017088888870EE
:1040E00000F8050505060001A0502850A0050707A7
:1040F0000600008890A858B80808050707060000C1
:104100008890B848982038050808060000C040C0CC
:1041100048D838080805070706000020002040801E
:1041200088700508080600004020007088F888881C
:104130000508080600001020007088F88888050827
:10414000080600002050007088F8888805080806D6
:1041500000006890007088F888880508080600004C
:104160005000708888F888880508080600002050EC
:10417000207088F888880507070600003860A0B816
:10418000E0A0B80508080600FF70888080887020CD
:1041900060050808060000402000F880F080F8055F
:1041A0000808060000081000F880F080F8050808EC
:1041B000060000205000F880F080F8050707060090
:1041C000005000F880F080F80308080601008040E5
:1041D00000E0404040E0030808060100204000E005
:1041E000404040E003080806010040A000E04040D5
:1041F00040E0030707060100A000E0404040E00562
:104200000707060000704848E84848700508080697
:10421000000068900088C8A8988805080806000073
:1042200040207088888888700508080600001020E3
:104230007088888888700508080600002050007083
:1042400088888870050808060000689000708888D3
:1042500088700508080600005000708888888870FB
:10426000050505060001885020508805080806004D
:10427000FF1070A8A8A8A870400508080600004014
:104280002088888888887005080806000010208823
:1042900088888888700508080600002050008888F3
:1042A000888870050808060000500088888888887B
:1042B00070050808060000102088502020202005E6
:1042C00009090600FFC040704848704040E00408FB
:1042D000080601FF609090A09090E0800508080615
:1042E0000000402000700878887805080806000063
:1042F0001020007008788878050808060000205013
:10430000007008788878050808060000689000703A
:10431000087888780507070600005000700878883C
:104320007805080806000020502070087888780575
:104330000606060000D02878A0A85005060606004C
:10434000FF7080887020600508080600004020008B
:104350007088F8807005080806000010200070883A
:10436000F880700508080600002050007088F8806A
:104370007005070706000050007088F88070030879
:104380000806010080400040C04040E003080806E5
:10439000010020400040C04040E003080806010042
:1043A00040A00040C04040E0030707060100A00015
:1043B00040C04040E0050707060000A040A010787C
:1043C0008870050808060000689000B0C8888888D2
:1043D00005080806000040200070888888700508DD
:1043E00008060000102000708888887005080806FC
:1043F00000002050007088888870050808060000BA
:1044000068900070888888700507070600005000D3
:1044100070888888700505050600012000F80020D6
:104420000507070600FF1070A8A8A8704005080837
:104430000600004020008888889868050808060063
:104440000010200088888898680508080600002069
:104450005000888888986805070706000050008883
:10446000888898680509090600FF10200088888858
:10447000F808700407070601FFC04060506040E084
:104480000508080600FF5000888888780870537473
:1044900065707261746520746F6F20686967683A2F
:1044A000200024F4D43050C38E20C2A24017828B47
:1044B0007011127A910D816CD90AA861E108C75870
:1044C0006607615143061E4B5D05C145A7041A41AD
:1044D0001104093D9803713931034036DB0265331D
:1044E0009102D4305402802E1D02632CEE01752AF5
:1044F000C501B028A001102781018F2564012B245C
:104500004B01E0223401AC211F018D200D01801FE1
:10451000FC00841EED00971DDF00B81CD200E61BD6
:10452000C600201BBC00641AB200B219A8000A1908
:10453000A0006A189900D117910040178B00B5169A
:10454000840031167E00B31579003A157300C71444
:104550006F0058146A00EE13660088136300251379
:104560005E00C7125B006C12570015125400C11197
:10457000510070114F0021114B00D61049008D10D1
:1045800047004610440002104200C00F4000800F58
:104590003E00420F3C00060F3B00CB0E3800930E4E
:1045A00037005C0E3500270E3400F30D3200C10DCC
:1045B0003100900D3000600D2E00320D2D00050DE4
:1045C0002C00D90C2B00AE0C2900850C29005C0CAA
:1045D0002700350C27000E0C2600E80B2400C40B26
:1045E0002400A00B23007D0B23005A0B2100390B64
:1045F0002100180B2000F80A1F00D90A1E00BB0A70
:104600001E009D0A1D00800A1D00630A1C00470A47
:104610001B002C0A1B00110A1A00F7091A00DD09F9
:104620001900C4091900AB091900920917007B0988
:104630001800630917004C091600360916002009F6
:1046400016000A091500F5081500E0081400CC084A
:104650001400B8081400A4081400900813007D0882
:1046600012006B08130058081200460812003408A4
:104670001100230811001208110001081100F007B1
:104680001000E0071000D0071000C0071000B007AE
:104690000F00A107100091070E0083070F00740799
:1046A0000F0065070E0057070E0049070E003B0775
:1046B0000D002E070E0020070D0013070D00060742
:1046C0000D00F9060C00ED060D00E0060C00D40606
:1046D0000C00C8060C00BC060C00B0060C00A406BA
:1046E0000B0099060C008D060B0082060B00770666
:1046F0000B006C060B0061060A0057060B004C0607
:104700000A0042060A0038060A002E060A0024069D
:104710000A001A060A001006090007060A00FD052D
:104720000900F4050900EB050900E2050900D905B7
:104730000900D0050900C7050900BE050900B50537
:104740000800AD050800A50509009C0508009405B2
:1047500008008C050800840508007C050800740525
:1047600008006C050700650508005D050700560593
:1047700008004E05070047050700400508003805FA
:104780000700310507002A050700230507001C055F
:104790000600160507000F050700080506000205BC
:1047A0000700FB040600F5040700EE040600E80419
:1047B0000600E2040700DB040600D5040600CF046F
:1047C0000600C9040600C3040600BD040600B704C1
:1047D0000600B1040500AC040600A6040600A0040F
:1047E00005009B04060095040500900406008A0459
:1047F000050085040500800406007A0405007504A0
:104800000500700405006B040500660405006104E2
:1048100005005C04050057040500520405004D0422
:10482000050048040500430405003E0404003A0462
:10483000050035040500300404002C04050027049D
:104840000400230405001E0404001A0404001604D6
:104850000500110404000D0404000904050004040B
:10486000040000040400FC030400F8030400F40343
:104870000400F0030400EC030400E8030400E40374
:104880000400E0030400DC030400D8030400D403A4
:104890000400D0030400CC030400C8030300C503D4
:1048A000030024F404D9201BC40C5C0E9804C40932
:1048B0005F0265077101F405F900FB04B3004804C9
:1048C0008700C10369005803550003034500BE0279
:1048D0003A008402310053022A0029022500040212
:1048E0002000E4011C00C8011900AF011700980165
:1048F00014008401130071011000610110005101C6
:104900000E0043010D0036010B002B010B002001AE
:104910000B00150109000C01090003010800FB0050
:104920000800F3000800EB000700E4000600DE00CA
:104930000600D8000600D2000600CC000500C70023
:104940000500C2000500BD000400B9000400B50068
:104950000400B1000400AD000400A9000400A5009B
:104960000300A20003009F0004009B0003009800C6
:1049700003009500020093000300900003008D00E7
:1049800002008B0003008800020086000200840001
:104990000300810002007F0002007D0002007B0016
:1049A0000200790002007700010076000200740026
:1049B000020072000100710002006F0002006D0031
:1049C00001006C0002006A0001006900020067003B
:1049D0000100660001006500010064000200620041
:1049E000010061000100600001005F0002005D0045
:1049F00001005C0001005B0001005A000100590049
:104A00000100580001005700010056000100550048
:104A10000100540001005300000053000100520047
:104A2000010051000100500001004F0001004E0044
:104A300000004E0001004D0001004C0001004B0041
:104A400000004B0001004A0001004900010048003D
:104A50000000480001004700010046000000460039
:104A60000100450000004500010044000100430032
:104A7000000043000100420000004200010041002C
:104A8000000041000100400001003F0000003F0025
:104A900001003E0000003E0001003D0000003D001E
:104AA00001003C0000003C0000003C0001003B0015
:104AB00000003B0001003A0000003A00010039000C
:104AC0000000390001003800000038000000380004
:104AD00001003700000037000100360000003600FA
:104AE00000003600010035000000350000003500F0
:104AF00001003400000034000000340001003300E5
:104B000000003300000033000100320000003200DA
:104B100000003200010031000000310000003100CF
:104B200001003000000030000000300001002F00C4
:104B300000002F0000002F0000002F0001002E00B9
:104B400000002E0000002E0001002D0000002D00AE
:104B500000002D0000002D0001002C0000002C00A2
:104B600000002C0000002C0001002B0000002B0096
:104B700000002B0000002B0001002A0000002A008A
:104B800000002A0000002A0001002900000029007E
:104B90000000290000002900000029000100280071
:104BA0000000280000002800000028000000280065
:104BB0000100270000002700000027000000270058
:104BC000000027000100260000002600000026004B
:104BD000000026000000260001002500000025003E
:104BE0000000250000002500000025000000250031
:104BF0000100240000002400000024000000240024
:104C00000000240001002300000023000000230016
:104C10000000230000002300000023000000230008
:104C200001002200000022000000220000002200FB
:104C300000002200000022000100210000002100ED
:104C400000002100000021000000210000002100E0
:104C500000002100010020000000200000002000D2
:104C600000002000000020000000200000002000C4
:104C70000000200001001F0000001F0000001F00B6
:104C800000001F0000001F0000001F0000001F00A8
:104C900001001E0000001E0000001E0000001E009B
:104CA00000004D383420582059205A204500636FA9
:104CB0006C6420657874727573696F6E20707265AC
:104CC00076656E746564007C3C3E5E2B3D3F2F5BD9
:104CD0005D3B2C2A225C006E6F2065737461626CF0
:104CE000656369646173004572726F723A20636133
:104CF0007061730043616E63656C61722063616D06
:104D000062696F0043616D62696F20636170613A2F
:104D1000200041686F726100456E20436170613A06
:104D20000043616D626961722066696C616D656ED8
:104D3000746F00496E6963696F004D3231005265CE
:104D4000636172676172205461726A657461205395
:104D500064003FFFF87FFFFCFFFFFEFFFFFEFF0048
:104D60003EFE2ABEFCAABEF8AABEF8003EF8003EEF
:104D7000F8103EF8383EF87C3EF8383EF8383EF8F9
:104D8000383EF8003EF8003EF8003EF8003EFFFFD7
:104D9000FE7FFFFC3FFFF85461726A657461205327
:104DA00064003FFFF87FFFFCFFFFFEFFFFFEFF00F8
:104DB0003EFE2ABEFCAABEF8AABEF8003EF8003E9F
:104DC000F8003EF8003EF86C3EF88A3EF84A3EF89D
:104DD0002A3EF8CC3EF8003EF8003EF8003EFFFFC9
:104DE000FE7FFFFC3FFFF83FFFF860000CC00006AD
:104DF00080000280FFC281D5428355428755428799
:104E0000FFC287FFC287EFC287C7C28783C287C737
:104E1000C287C7C287C7C287FFC287C7C287FFC210
:104E200087FFC2C0000660000C3FFFF83FFFF8603C
:104E3000000CC0000680000280FFC281D54283556D
:104E40004287554287FFC287FFC287FFC287FFC2E2
:104E50008793C28775C287B5C287D5C28733C28799
:104E6000FFC287FFC287FFC2C0000660000C3FFF81
:104E7000F8416A757374652064652046696C616DDC
:104E8000656E746F0054656D7065726174757261E2
:104E90000043616C6962726172004C65642041700C
:104EA00061676172004C6564205072656E64657262
:104EB000003FFFF860000CC01006803802807C02C2
:104EC00080FE028038028038028438428C00629F63
:104ED00083F2BF83FA9F83F28C0062843842803869
:104EE0000280380280FE02807C02803802C01006F8
:104EF00060000C3FFFF84D6F76657220656A657340
:104F0000003FFFF87FFFFCFFEFFEFFC7FEFF83FEC1
:104F1000FF01FEFFC7FEFFC7FEFBC7BEF3FF9EE01B
:104F20007C0EC07C06E07C0EF3FF9EFBC7BEFFC775
:104F3000FEFFC7FEFF01FEFF83FEFFC7FEFFEFFE81
:104F40007FFFFC3FFFF83FFFF860000CC0000680C9
:104F5000000280000283FF828600C28501428438FD
:104F60004284444284824284924284824284444203
:104F70008438428501428600C283FF82800002801D
:104F80000002C0000660000C3FFFF83FFFF87FFF03
:104F9000FCFFFFFEFFFFFEFFFFFEFC007EF9FF3E71
:104FA000FAFEBEFBC7BEFBBBBEFB7DBEFB6DBEFB00
:104FB0007DBEFBBBBEFBC7BEFAFEBEF9FF3EFC00DA
:104FC0007EFFFFFEFFFFFEFFFFFE7FFFFC3FFFF8BF
:104FD0003FFFF860000CC00006800002888F028549
:104FE00010828216828512828896828012828016B2
:104FF00082801282801682802642804F22805FA2A9
:10500000804F22802042801F82800002C000066004
:10501000000C3FFFF8456E6672696172003FFFF851
:105020007FFFFCFFFFFEFFFFFEF770FEFAEF7EFD45
:10503000E97EFAED7EF7697EFFED7EFFE97EFFED0A
:105040007EFFE97EFFD9BEFFB0DEFFA05EFFB0DECF
:10505000FFDFBEFFE07EFFFFFEFFFFFE7FFFFC3FA6
:10506000FFF83FFFF860000CC00006800002800ED1
:10507000028011028022028024428024A280232206
:105080008040228080428107828208028410028848
:1050900020028A4002888002870002800002C0004D
:1050A0000660000C3FFFF8416A7573746573003F3A
:1050B000FFF87FFFFCFFFFFEFFFFFEFFF1FEFFEEAC
:1050C000FEFFDDFEFFDBBEFFDB5EFFDCDEFFBFDEE3
:1050D000FF7FBEFEF87EFDF7FEFBEFFEF7DFFEF57D
:1050E000BFFEF77FFEF8FFFEFFFFFEFFFFFE7FFF24
:1050F000FC3FFFF850726564657465726D696E619E
:10510000646F004D31313720456E667269616E649F
:105110006F004D38340A204D313137204D6F746F98
:1051200072204170616761646F0056656C6F6369DE
:10513000646164006C612076656C6F6369646164AE
:105140000053656C656363696F6E650076616C6FB3
:105150007220696E696369616C00426F7175696C78
:105160006C61006C612074656D706572617475723C
:10517000610053656C656363696F6E650043616DC3
:10518000612063616C69656E7465006C6120746593
:105190006D70657261747572610053656C656363EF
:1051A000696F6E65004D333133004D313137004644
:1051B000616E2064652063617061006C61207665BA
:1051C0006C6F63696461640053656C656363696FE8
:1051D0006E65003FFFF87FFFFCFFFFFEFFBBFEFE9A
:1051E00038FEFC387EF8383EF0381EF07C1EE0C6F3
:1051F0000EFF83FEFF83FEFF83FEE0C60EF07C1EE3
:10520000F0381EF8383EFC387EFE38FEFFBBFEFF4D
:10521000FFFE7FFFFC3FFFF83FFFF860000CC0007F
:105220000680440281C70283C78287C7C28FC7E254
:105230008F83E29F39F2807C02807C02807C029F17
:1052400039F28F83E28FC7E287C7C283C78281C7E3
:1052500002804402C0000660000C3FFFF83FFFF8E8
:105260007FFFFCFFFFFEFFFFFEFFFFFEFFFFFEFFD5
:10527000FFFEFDEF7EFEF7BEFEF7BEFDEF7EFBDE1E
:10528000FEF7BDFEF7BDFEFBDEFEFDEF7EFFFFFE7F
:10529000F0001EF0001EFFFFFEFFFFFE7FFFFC3F41
:1052A000FFF83FFFF860000CC0000680000280009D
:1052B000028000028000028210828108428108423E
:1052C0008210828421028842028842028421028262
:1052D00010828000028FFFE28FFFE2800002C00098
:1052E0000660000C3FFFF854656D7065726174755F
:1052F000726100506F72206661766F722065737004
:10530000657265004739310A4731204531352046FD
:105310003135300A4739300A4739310A473120459B
:105320002D31303020463330300A4739300A4D387D
:1053300034004739310A4731204531303020463179
:1053400035300A4739300A4D383400416A75737474
:10535000652064652046696C616D656E746F0043FD
:10536000616C63756C616E646F2E2E2E00507565D6
:1053700064652074617264617220756E6F73206D54
:10538000696E75746F7300416A757374616E646FD2
:10539000205049440003E0000C9800180C00201A2B
:1053A00000303E0040710040E10061C300418100D7
:1053B0004001003006002002001FFC0043617061C4
:1053C000733A005A00590020003F0058000920009D
:1053D000092000092000092000462D2D3A2D2D001E
:1053E000542D2D3A2D2D00462D2D3A2D2D001041F6
:1053F0000008208008208010410020820041040025
:10540000410400208200104100000000FFFFC0FFA7
:10541000FFC01041002082004104004104002082AE
:10542000001041000820800820801041000000008A
:10543000FFFFC0FFFFC000E00000E00000E000034D
:10544000F80007FFC007FEC007FC4007FEC007FFCB
:10545000C001F00000E00000400000E00000E000BB
:1054600000E00003F80007FFC007FFC007FFC00708
:10547000FFC007FFC001F00000E0000040003FFF58
:1054800000700380E619C0CF3CC09F3E40BF3F4044
:10549000BE1F409CCE4081E04081E0409CCE40BE9B
:1054A0001F40BF3F409F3E40CF3CC0E619C0700345
:1054B000803FFF003FFF00700380E3F1C0C3F0C0F6
:1054C00081E04080C040B00340B8C740BDEF40BD60
:1054D000EF40B8C740B0034080C04081E040C3F017
:1054E000C0E3F1C07003803FFF00496E76616C69D4
:1054F000642065787472756465720020443A0020F7
:10550000493A0020503A00480043290061626C6526
:105510006420286D696E2074656D702000436F6C87
:10552000642065787472756465732061726520000B
:105530004D313137205049442041637475616C69A5
:105540007A61646F004D353030004D6573682058C6
:1055500059206F7220494A2063616E6E6F74206219
:1055600065207265736F6C766564004D343231204E
:1055700072657175697265732058595A206F72206F
:10558000494A5A20706172616D6574657273004D8D
:10559000657368205859206F7220494A2063616EF4
:1055A0006E6F74206265207265736F6C766564003F
:1055B0005265746972616E646F200A00636172677C
:1055C000616E646F200A00436170613A2000494EA9
:1055D00046004E414E004D6F64656C6F2032303195
:1055E000370056657273696F6E3A00436F6E666975
:1055F0006775726163696F6E00417267656E746989
:105600006E6100496E64757374726961004B555424
:105610005445524352414654000000000F00000020
:1056200000000000198000000000000070E0000091
:1056300000000000C6300000000000039F9C000036
:105640000000000E3FC7000000000038FFF1C0005E
:1056500000000063FFFC6000000001CFFFFF380086
:105660000000071FFFFF8E0000001C7FFFFFE3808C
:10567000000031FFFFFFF8C00000E7FFFFFFFE70F2
:1056800000038FFFFFFFFF1C000E3FFFFFFFFFC760
:105690000018FE07FFF007F18033FE07FFE00FFC64
:1056A000C027FE07FFC01FFE402FFE07FF803FFF01
:1056B000402FFE07FF007FFF402FFE07FF00FFFF88
:1056C000402FFE07FE01FFFF402FFE07FC00FFFFFB
:1056D000402FFE07F8007FFF402FFE07F0003FFF3E
:1056E000402FFE07E000007F402FFE07C000007F34
:1056F000402FFE07807FFFFF402FFE0700FFFFFFC8
:10570000402FFE0601FFFFFF402FFE0403FFFFFFB7
:10571000402FFE0003FFFFFF402FFE0401FFFFFFAD
:10572000402FFE0600FFFFFF402FFE07007FFFFF18
:10573000402FFE078000007F402FFE07C000007F43
:10574000402FFE07E0003FFF402FFE07F0007FFFE5
:10575000402FFE07F800FFFF402FFE07FC01FFFF70
:10576000402FFE07FE00FFFF402FFE07FF007FFFD8
:10577000402FFE07FF803FFF402FFE07FFC01FFFA7
:10578000402FFE07FFE00FFF4027FE07FFF007FE58
:105790004033FE07FFF803FCC018FE07FFFC01F1D1
:1057A000800E3FFFFFFFFFC700038FFFFFFFFF1CBF
:1057B0000000E7FFFFFFFE70000031FFFFFFF8C0B1
:1057C00000001C7FFFFFE3800000071FFFFF8E002B
:1057D000000001CFFFFF380000000063FFFC600005
:1057E00000000038FFF1C0000000000E3FC70000BD
:1057F000000000039F9C000000000000C630000075
:105800000000000070E000000000000019800000AF
:10581000000000000F000000000000000000000079
:105820000000000000000000000000000000000078
:105830000000000000000000000000000000000068
:105840000000000000000000000000000000000058
:105850000000000000000000002100240027002AB2
:10586000002D003000330001010000040107010A8F
:105870000100002200250028002B002E00310034FA
:105880000002010000050108010B010000200023B7
:1058900000260029002C002F003200000100000328
:1058A00001060109010505050507050808080802A4
:1058B0000202020A0A0808040404040101010101A9
:1058C0000101010303030303030303040707070C98
:1058D0000C0C0C0C0C0C0C0202020206060606064E
:1058E0000606060B0B0B0B0B0B0B0B0102102020FB
:1058F0000808102040102040800201020108040224
:105900000101020408102040808040201008040299
:1059100001800402018040201008040201080402F2
:1059200001010204081020408001020408102040F8
:105930008000000A0B02090C0D0E08070304010089
:105940000000000000000000000000000000000057
:105950000000000000000000000000000012111014
:105960000000000000000000000000000000000037
:10597000000000000000003FFFF87FFFFCFFFFFE7B
:10598000FFFFFEFFFFFEF87E3EF87C3EF8383EFC4F
:10599000107EFE00FEFF01FEFF83FEFF01FEFE0003
:1059A000FEFC107EF8383EF87C3EF8FE3EFFFFFE1F
:1059B000FFFFFEFFFFFE7FFFFC3FFFF83FFFF860A9
:1059C000000CC000068000028000028781C287832D
:1059D000C287C7C283EF8281FF0280FE02807C0201
:1059E00080FE0281FF0283EF8287C7C28783C2875E
:1059F00001C2800002800002C0000660000C3FFF70
:105A0000F83FFFF87FFFFCFEFFFEFD7FFEFEC3FEBA
:105A1000FFBDFEFFA5FEFFB5FEFFA5FEFFB5FEFF25
:105A2000A5FEFFB5FEFFA5FEFF66FEFEC37EFE815E
:105A30007EFEC37EFF7EFEFF81FEFFFFFEFFFFFEB8
:105A40007FFFFC3FFFF83FFFF860000CC1000682BB
:105A50008002813C02804202805A02804A02805ABF
:105A600002804A02805A02804A02805A02809902C9
:105A7000813C82817E82813C82808102807E0280A4
:105A80000002C0000660000C3FFFF83FFFF87FFFF8
:105A9000FCFFFFFEFFFFFEFFFFFEFF83FEFE6CFE2E
:105AA000FCFE7EFBFCBEF9F83EF7F1DEF7E3DEF329
:105AB000C79EF7CFDEF7FFDEF9FF3EFBFFBEFC001F
:105AC0007EFFFFFEFFFFFEFFFFFE7FFFFC3FFFF8B4
:105AD0003FFFF860000CC0000680000280000280DA
