:100000000C94C7440C94F8440C94F8440C94F844B1
:100010000C94F8440C94F8440C94F8440C94F84470
:100020000C94F8440C94F8440C94F8440C94F84460
:100030000C94F8440D94C6210C94F8440C94F844A4
:100040000C94F8440D942C360C94F8440C94F84419
:100050000C94F8440C94F8440D9435130D947C21C1
:100060000C94F8440C94A1A30C9471A30C94F84440
:100070000C94F8440C94F8440C94F8440C94F84410
:100080000C94F8440C94F8440C94F8440C94F84400
:100090000C94F8440C94F8440C94F8440C94F844F0
:1000A0000C94F8440C94F8440C94F8440C94F844E0
:1000B0000C94F8440C94F8440C94F8440C94F844D0
:1000C0000C94F8440C94F8440C94F8440D948E224B
:1000D0000D9465220C94F8440C94F8440C94F84464
:1000E0000C94F844607B6E7AA47A9C7BA47AA47A00
:1000F000A47AA47AA47AA47AA47AA47AA47AA47A10
:10010000A47AA47AA47AA47AA47AA47AA47AA47AFF
:10011000A47AA47AA47AA47AA47AA47AA47AA47AEF
:10012000967BA47AA47AA47AA47AA47AA47AA47AEC
:10013000A47A707BA47AA47AA47AA47AA47AA47A02
:10014000A47AA47AA47AA47AB97BA17A3DCF19CFF4
:10015000F5CED1CEADCE89CE65CE41CE1DCEF9CD78
:10016000D5CDB1CD8DCD69CD45CD21CDFDCCD9CC71
:10017000B5CC91CC6DCC49CC25CC53CA53CA53CA0B
:1001800053CA53CA53CA53CA53CA53CA53CA53CA87
:1001900053CA53CA53CA53CA53CA53CA53CA53CA77
:1001A00053CA53CA53CA53CA53CA53CA53CA53CA67
:1001B00053CA53CA53CA53CA53CA53CA53CA53CA57
:1001C00053CA53CA53CA53CA53CA53CA53CA53CA47
:1001D00053CA53CA53CA53CA53CA53CA53CA53CA37
:1001E00053CA53CA53CA53CA53CA53CA53CA53CA27
:1001F00053CA53CA53CA53CA53CA53CA53CA53CA17
:1002000053CA53CA53CA53CA53CA53CA53CA53CA06
:1002100053CA53CA01CCDDCBB9CB95CB71CB4DCBF7
:1002200029CB05CBE1CABDCA99CA31CA05D316D3B9
:1002300027D338D349D3ADD2BED2CFD2E0D285D2E4
:1002400099D271D2F1D2E9D35DD36CD379D386D36D
:1002500093D3A0D3ADD3BAD3F6D303D414D4C7D396
:10026000B0ECBDECC7ECD1ECDCECE7EC97EC7AEC55
:1002700042022202C601500288026A02E202CE0253
:10028000F001440286022E023602C60238029402AF
:10029000E4027A025602F602E801960264020802BB
:1002A000060316025C027802A6021202EC02B602F3
:1002B000F60106030E02AA02D0028202FC02E60147
:1002C0001A022802F002D6010203D402EA01BA029D
:1002D000E20166026E02F0027C028E020002BC01A4
:1002E0004E029202E0019C02CA0260027402C20243
:1002F000C801DE02D001F8014C02BA013E02CC0274
:10030000FA0270026C027E02000346022C02DC023A
:100310005202D202E4013002F201D2019E028002B6
:100320008A02B002084AD73B3BCE016E84BCBFFDB7
:10033000C12F3D6C74319ABD56833DDA3D00C77FB5
:1003400011BED9E4BB4C3E916BAAAABE000000804E
:100350003F05A84CCDB2D44EB93836A9020C50B9DD
:10036000918688083CA6AAAA2ABE000000803F0009
:100370000D9411710D941E500D94264E0D94F9722A
:100380000D94A21F0D94CB4B0D94DA1F0D94C01346
:100390000D94F0500D94DF250D947E290D94B81E18
:1003A0000D949C500D9445540D94342A0D94C02006
:1003B0000D945E730D942B090D94DC1F0D949A27F8
:1003C0000D94A44E0D94EE200D943D530D94A22057
:1003D0000D94FC1F0D94DA200D9499730D94E87020
:1003E0000D94FB130D9419540D9457440D94202033
:1003F0000D9472500D94CA740D942E710D94F9657C
:100400000D9425210D940B2A0D94E2290D94AD1124
:100410000D94F51F0D9477420D94BF700D94262016
:100420000D949E010D9412200D942D930D94002097
:100430000D94800B0D94AC200D949C420D94507043
:100440000D9442670D94A1130D946D700D94C273B9
:100450000D94B6200D945D0C0D9495530D940814D5
:100460000D9469530D9494640D94572A0D940B14B4
:100470000D9413140D94491F0D946B1E0D94F44F9D
:100480000D941E480D9491130D9400140D94974DE6
:100490000D94380A0D9434250D9448500D94FC4D5C
:1004A0000D94D0130D94E5520D9496700D942A146A
:1004B0000D94CB260D9428040D9404200D944744EC
:1004C0000D946E510D9467440D94EF1F0D94FD2013
:1004D0000D947F050D94F0130D944C4F0D9407214E
:1004E0000D94764F0D9464290D9444510D94084455
:1004F0000D940A200D9420140D9411210D94224F77
:100500000D94B9520D9498200D9455260D94031412
:100510000D94EB130D94ED530D94F5400D941B21A8
:100520000D94DD4C0D94CE4E0D9418140D94EB1FCC
:100530000D94D22A0D942C240D947A4E0D9471545E
:100540000D94FD1E0D94A92A0D9487280D940E205C
:100550000D9459290D942A200D9414740D944B2454
:100560000D9455520D9449630D94B9010D941C20BE
:100570000D949E070D94E4200D94BD420D947129B5
:100580000D9412750D941A510D9498510D941014E8
:100590000D94802A0D94504E0D94CA4F0D94F8136B
:1005A0000D942E200D9411530D94D0200D94D10252
:1005B0000D94EB730D9451760D94C1530D94C65068
:1005C0000D946A240D94F3130D941B140D944F4253
:1005D0000D94951E0D94CD060D9418200D9489242C
:1005E0000D942F210D94A41E0D943D740D94F91FAC
:1005F0000D9483010D94A04F0D949D200D9462687D
:100600000D94F84E0D94C8200D94EB720D94332088
:100610000D94B9290D94C61E0D94FA224E414E49EF
:100620004E495459494E46CDCCCC3D0AD7233C17B0
:10063000B7D13877CC2B329595E6241FB14F0A00FD
:100640000020410000C84200401C4620BCBE4CCAED
:100650001B0E5AAEC59D7400407A10F35A00A0726A
:100660004E18090010A5D4E80000E87648170000ED
:10067000E40B54020000CA9A3B000000E1F50500BB
:100680000080969800000040420F000000A0860104
:10069000000000102700000000E8030000000064D4
:1006A00000000000000A000000000001000000003F
:1006B000002C76D888DC674F0823DFC1DFAE59E114
:1006C000B1B796E5E3E453C63AE651997696E8E683
:1006D000C28426EB898C9B62ED407C6FFCEFBC9C56
:1006E0009F40F2BAA56FA5F490055A2AF75C936B68
:1006F0006CF9676DC11BFCE0E40D47FEF520E6B523
:1007000000D0ED902E0300943577050080841E08FC
:100710000000204E0A000000C80C333333330F981A
:100720006E12831141EF8D2114893BE65516CFFEE1
:10073000E6DB18D1844B381BF77C1D901DA4BBE46D
:1007400024203284725E228100C9F124ECA1E53DAF
:1007500027414C4C00434F4D4D554E494341544960
:100760004F4E0044525952554E004552524F52532B
:1007700000494E464F004543484F005265706F7325
:100780006F2E2E2E005A206E6F7420656E74657267
:1007900065642E005A206E6F7420656E74657265F4
:1007A000642E0059206E6F7420656E7465726564E6
:1007B0002E0059206F7574206F662072616E676518
:1007C0002028312D33292E0058206E6F7420656E3D
:1007D00074657265642E0058206F7574206F6620F2
:1007E00072616E67652028312D33292E004732381B
:1007F000004D6573682070726F62696E6720646F68
:100800006E652E005374617274206D65736820707C
:10081000726F62696E672077697468202247323987
:10082000205331222066697273742E004732380AD1
:10083000473239205332004D657368206265642069
:100840006C6576656C696E67206E6F742061637489
:100850006976652E002020004D65617375726564B0
:1008600020706F696E74733A005A206F6666736504
:10087000743A20005A207365617263682068656964
:100880006768743A20002C004E756D20582C593A38
:10089000200053746174653A200053206F757420F2
:1008A0006F662072616E67652028302D35292E0015
:1008B0003C3C3C2067636F64655F47333000205ADF
:1008C0003A200020593A200020583A20004265641E
:1008D000003E3E3E2067636F64655F473330002013
:1008E0005A3A200020593A200020583A2000426508
:1008F000640020453A00205A3A0020593A003C2D25
:10090000583A00205300536176656420706F736914
:1009100074696F6E00496E76616C696420736C6FE8
:10092000742C20746F74616C20736C6F74733A2034
:10093000003A0020002D3E00205300526573746F72
:1009400072696E6720706F736974696F6E00496EAB
:1009500076616C696420736C6F742C20746F7461A1
:100960006C20736C6F74733A20005374617274203E
:100970005072696E74696E670053746F70205072A4
:10098000696E74696E670053696E206D6F76696D6C
:1009900069656E746F00456E642066696C65206CD5
:1009A00069737400426567696E2066696C65206CC6
:1009B000697374002F005344207072696E74696EFD
:1009C00067206279746520004E6F74205344207054
:1009D00072696E74696E67005072696E7420746912
:1009E0006D6520002569682025696D2025697300E3
:1009F000256964202569682025696D2025697300B3
:100A00004469726563746F7279206372656174659D
:100A100064004372656174696F6E206661696C651C
:100A20006400436C6F73652066696C6520616E6459
:100A3000207361766520726573746172742E6763CA
:100A40006F64650020616E6420737461727420703D
:100A500072696E742E004F70656E2066696C653A1F
:100A6000200046696C616D656E74207072696E74E9
:100A700065643A2000202025754B6D2025756D207A
:100A80002575636D2025756D6D00506F776572203B
:100A90006F6E2074696D653A2000202025752064F2
:100AA00061797320257520686F7572732025752014
:100AB0006D696E7574657300546F74616C2070722B
:100AC000696E742074696D653A20002020257520B8
:100AD0006461797320257520686F757273202575A0
:100AE000206D696E75746573002C204661696C65B4
:100AF000643A20002C2046696E69736865643A2068
:100B0000005072696E7420737461746973746963E0
:100B1000733A20546F74616C3A20004B757474659D
:100B2000726372616674204F46462E0043616C65A5
:100B30006E74616E646F2E2E2E004B757474657228
:100B40006372616674206C697374612E006F6666EF
:100B500000760771076A0763075507510744656206
:100B600075673A0050415241444120444520454D6B
:100B70004552472E004D3131332053004649524DE6
:100B8000574152455F4E414D453A4B55545445529D
:100B900043524146545F5620342E302E3020464971
:100BA000524D574152455F55524C3A687474703AF1
:100BB0002F2F7777772E6B75747465726372616609
:100BC000742E636F6D2F736F66747761726520503A
:100BD000524F544F434F4C5F56455253494F4E3A34
:100BE000322E30204D414348494E455F54595045BF
:100BF0003A43617274657369616E20455854525569
:100C00004445525F434F554E543A3220555549445E
:100C10003A33323462666134322D613432372D31E9
:100C20003165362D383066352D37363330346465CE
:100C300063376562370A006373746570733A200026
:100C4000205A00205900580020204D61783A200099
:100C5000205A00205900580020204D696E3A20008B
:100C6000536F667420656E6473746F70733A0049D5
:100C70006E76616C69642065787472756465720063
:100C800020443A0020493A0020503A0048004329C5
:100C90000061626C656420286D696E2074656D70FA
:100CA0002000436F6C6420657874727564657320EE
:100CB00061726520004F6666736574206170706CA8
:100CC0006965642E004F6666736574206170706C90
:100CD0006965642E004572723A20546F6F20666118
:100CE000722100546F6F206661722066726F6D20F2
:100CF0007265666572656E636520706F696E7400FB
:100D0000436170613A200020496E76616C6964200D
:100D10006578747275646572005400416374697615
:100D2000652045787472756465723A200041637479
:100D3000697665204472697665723A20003C3C3CD5
:100D40002067636F64655F5400203A204146544534
:100D5000520A0063757272656E745F706F736974A6
:100D6000696F6E3D00203A204245464F52450A00C9
:100D700063757272656E745F706F736974696F6E9C
:100D80003D0029003E3E3E2067636F64655F542846
:100D9000002200436F6D616E646F206E6F20656E80
:100DA000636F6E747261646F3A2022004D3630308A
:100DB000004D3630300073652061637469766F20B2
:100DC00031004563686F3A0056657273696F6E3A19
:100DD00000436F6E66696775726163696F6E00418B
:100DE0007267656E74696E6100496E6475737472C2
:100DF0006961004B555454455243524146540000DA
:100E000000000F000000000000001980000000003A
:100E1000000070E0000000000000C630000000008C
:100E200000039F9C00000000000E3FC70000000070
:100E30000038FFF1C00000000063FFFC600000000C
:100E400001CFFFFF38000000071FFFFF8E000000EA
:100E50001C7FFFFFE380000031FFFFFFF8C00000B0
:100E6000E7FFFFFFFE7000038FFFFFFFFF1C000E78
:100E70003FFFFFFFFFC70018FE07FFF007F18033B9
:100E8000FE07FFE00FFCC027FE07FFC01FFE402F3C
:100E9000FE07FF803FFF402FFE07FF007FFF402F30
:100EA000FE07FF00FFFF402FFE07FE01FFFF402F60
:100EB000FE07FC00FFFF402FFE07F8007FFF402FDA
:100EC000FE07F0003FFF402FFE07E000007F402FAD
:100ED000FE07C000007F402FFE07807FFFFF402FEE
:100EE000FE0700FFFFFF402FFE0601FFFFFF402F20
:100EF000FE0403FFFFFF402FFE0003FFFFFF402F14
:100F0000FE0401FFFFFF402FFE0600FFFFFF402F02
:100F1000FE07007FFFFF402FFE078000007F402F6D
:100F2000FE07C000007F402FFE07E0003FFF402F7C
:100F3000FE07F0007FFF402FFE07F800FFFF402F65
:100F4000FE07FC01FFFF402FFE07FE00FFFF402FC2
:100F5000FE07FF007FFF402FFE07FF803FFF402F6F
:100F6000FE07FFC01FFF402FFE07FFE00FFF4027D7
:100F7000FE07FFF007FE4033FE07FFF803FCC01832
:100F8000FE07FFFC01F1800E3FFFFFFFFFC70003DC
:100F90008FFFFFFFFF1C0000E7FFFFFFFE70000058
:100FA00031FFFFFFF8C000001C7FFFFFE38000005F
:100FB000071FFFFF8E00000001CFFFFF3800000079
:100FC0000063FFFC600000000038FFF1C00000007B
:100FD000000E3FC70000000000039F9C00000000BF
:100FE0000000C63000000000000070E000000000BB
:100FF000000019800000000000000F000000000049
:1010000000000000000000000000000000000000E0
:1010100000000000000000000000000000000000D0
:1010200000000000000000000000000000000000C0
:1010300000000000000000000000000000656E6479
:1010400073746F7073206869743A202025632025BB
:101050006320256320256300205A3A0020593A0076
:1010600020583A00656E6473746F707320686974F9
:101070003A20004D3239005041524144412044450C
:1010800020454D4552472E005041524144410050A9
:1010900072696E7465722073746F70706564206419
:1010A000756520746F206572726F72732E204669A9
:1010B0007820746865206572726F7220616E64209A
:1010C000757365204D39393920746F2072657374DA
:1010D0006172742E202854656D706572617475722A
:1010E000652069732072657365742E2053657420C2
:1010F00069742061667465722072657374617274BC
:10110000696E6729004E6F204C696E65204E756DC3
:10111000626572207769746820636865636B7375B4
:101120006D2C204C617374204C696E653A20004E22
:101130006F20436865636B73756D207769746820F1
:101140006C696E65206E756D6265722C204C6173E2
:1011500074204C696E653A2000636865636B737533
:101160006D206D69736D617463682C204C617374BC
:10117000204C696E653A20004C696E65204E756D95
:10118000626572206973206E6F74204C61737420E5
:101190004C696E65204E756D6265722B312C204C4A
:1011A000617374204C696E653A20004D3131300016
:1011B0004D3331004D383420582059205A204500F5
:1011C0004D35303000534420726561642065727281
:1011D0006F7200446F6E65207072696E74696E671D
:1011E0002066696C650020496E76616C69642065D3
:1011F00078747275646572004D00000052430000FF
:101200009B43000048430000000000000000000075
:101210000000203A2073796E635F706C616E5F70BE
:101220006F736974696F6E0A0063757272656E74AC
:101230005F706F736974696F6E3D00203A20636C54
:1012400065616E5F75705F61667465725F656E641F
:1012500073746F705F6F725F70726F62655F6D6FD6
:1012600076650A0063757272656E745F706F73697C
:1012700074696F6E3D0029002C20002C200028008E
:101280003E3E3E20646F5F626C6F636B696E675FAA
:101290006D6F76655F746F006465706C6F793A206E
:1012A00000203A207365745F70726F62655F6465D9
:1012B000706C6F7965640A0063757272656E745F35
:1012C000706F736974696F6E3D00203A203C3C3C3E
:1012D00020646F5F70726F62655F6D6F76650A0084
:1012E00063757272656E745F706F736974696F6E27
:1012F0003D00203A203E3E3E20646F5F70726F6278
:10130000655F6D6F76650A0063757272656E745FF6
:10131000706F736974696F6E3D002042403A00201F
:10132000403A00202F0020423A00202F0020543A5B
:1013300000203A2073657475705F666F725F656E2A
:101340006473746F705F6F725F70726F62655F6DF0
:101350006F76650A0063757272656E745F706F7385
:101360006974696F6E3D002066697273740059007C
:101370005800486F6D6520002066697273740059CB
:10138000005800486F6D6520003C3C3C2067636F4F
:1013900064655F47323800203A204D424C20486F48
:1013A0006D652058206F7220590A0063757272654E
:1013B0006E745F706F736974696F6E3D00203A20C0
:1013C0004D424C2052657374204F726967696E0AF2
:1013D0000063757272656E745F706F736974696FA4
:1013E0006E3D004D424C205A20686F6D696E67005B
:1013F0004D424C20686173206D65736800203A206F
:1014000028686F6D655F616C6C5F61786973207CC3
:101410007C20686F6D655A29203E2066696E616C7C
:101420000A0063757272656E745F706F73697469B8
:101430006F6E3D003C3C3C205A5F534146455F483F
:101440004F4D494E4700736F6E6461205A20667598
:1014500065726100736F6E6461205A2066756572F3
:101460006100203A205A5F534146455F484F4D493D
:101470004E47203E20686F6D655F616C6C5F6178E0
:1014800069730A0064657374696E6174696F6E3D97
:1014900000203A205A5F534146455F484F4D494E20
:1014A00047203E20686F6D655F616C6C5F61786995
:1014B000730A0063757272656E745F706F7369741E
:1014C000696F6E3D003E205A5F534146455F484F6D
:1014D0004D494E47203E3E3E00203A20686F6D65E4
:1014E000590A0063757272656E745F706F73697408
:1014F000696F6E3D00203A20686F6D65580A006381
:10150000757272656E745F706F736974696F6E3D2A
:10151000005261697365205A20286265666F7265A2
:1015200020686F6D696E672920746F20003E20650A
:101530006E6473746F70732E656E61626C6528746F
:101540007275652900203A20536574205A20746F03
:10155000207072655F686F6D655F7A0A00637572EF
:1015600072656E745F706F736974696F6E3D004D64
:10157000424C2077617320616374697665003E3E5A
:101580003E2067636F64655F47323800636F6C6449
:1015900020657874727573696F6E207072657665F8
:1015A0006E7465640000416C677569656E207075C6
:1015B0006C736F20656C2073656E736F7220646549
:1015C0002066696C616D656E746F3A20004D36302F
:1015D000300073652061637469766F20320050417A
:1015E0005241444120444520454D4552472E00502C
:1015F000415241444120444520454D4552472E002B
:1016000070617573612070617261206573706572BD
:101610006100706175736120706172612075736F14
:101620000070726F636573616E646F0062757379C9
:101630003A005072696E7465722068616C746564FA
:101640002E206B696C6C28292063616C6C656421A9
:101650000029003C3C3C207365745F617869735FCE
:1016600069735F61745F686F6D652800203A200AB6
:101670000063757272656E745F706F736974696F01
:101680006E3D005D203D2000686F6D655F6F666692
:101690007365745B007A70726F62655F7A6F6666FD
:1016A000736574203D200000000000000000000071
:1016B00000000029003E3E3E207365745F6178693A
:1016C000735F69735F61745F686F6D652800576150
:1016D000726E696E673A20486F6D696E6720427559
:1016E0006D702044697669736F72203C2031002947
:1016F000003C3C3C20686F6D656178697328003E52
:101700002000203A204146544552207365745F61A1
:101710007869735F69735F61745F686F6D650A00F4
:1017200063757272656E745F706F736974696F6EE2
:101730003D003E20326E6420486F6D6520003E20E3
:1017400031737420486F6D65200000005243000023
:101750009B43000048433E2000FFFFFF29003E3E20
:101760003E20686F6D65617869732800494E4600B8
:101770004E414E00655F6D696E3A20007A5F70726F
:101780006F62653A20007A5F6D696E3A2000795F7A
:101790006D696E3A2000785F6D696E3A200052657F
:1017A000706F7274696E6720656E6473746F7020F9
:1017B000737461747573006B7574746572637261B0
:1017C00066742E636F6D2F626C6F6700473120580F
:1017D00031302059313020463330303000416A7585
:1017E000737465732064652063616D6100566F6C6E
:1017F0007665720050726564657465726D696E61BC
:10180000646F004D31313720456E667269616E64D8
:101810006F004D38340A204D313137204D6F746FD1
:1018200072204170616761646F0056656C6F636917
:10183000646164006C612076656C6F6369646164E7
:101840000053656C656363696F6E6500466C756A0D
:101850006F00466C756A6F0053656C656363696FF2
:101860006E650076616C6F7220696E696369616C88
:1018700000426F7175696C6C61006C612074656DFC
:1018800070657261747572610053656C656363693C
:101890006F6E650043616D612063616C69656E7494
:1018A00065006C612074656D70657261747572613C
:1018B0000053656C656363696F6E65004D3331334A
:1018C000004D3131370046616E20646520636170E0
:1018D00061006C612076656C6F63696461640053BC
:1018E000656C656363696F6E65003FFFF87FFFFCA1
:1018F000FFFFFEFFFFFEF770FEFAEF7EFDE97EFAC6
:10190000ED7EF7697EFFED7EFFE97EFFED7EFFE96C
:101910007EFFD9BEFFB0DEFFA05EFFB0DEFFDFBE00
:10192000FFE07EFFFFFEFFFFFE7FFFFC3FFFF83F73
:10193000FFF860000CC00006800002888F0285104E
:101940008282168285128288968280128280168216
:10195000801282801682802642804F22805FA28081
:101960004F22802042801F82800002C0000660005B
:101970000C3FFFF83FFFF87FFFFCFFFFFEFFBBFEC1
:10198000FE38FEFC387EF8383EF0381EF07C1EE053
:10199000C60EFF83FEFF83FEFF83FEE0C60EF07CD3
:1019A0001EF0381EF8383EFC387EFE38FEFFBBFEC7
:1019B000FFFFFE7FFFFC3FFFF83FFFF860000CC019
:1019C000000680440281C70283C78287C7C28FC7CF
:1019D000E28F83E29F39F2807C02807C02807C026D
:1019E0009F39F28F83E28FC7E287C7C283C78281A4
:1019F000C702804402C0000660000C3FFFF83FFFB2
:101A0000F87FFFFCFFFFFEFFFFFEFFFFFEFFFFFE74
:101A1000FFFFFEFDEF7EFEF7BEFEF7BEFDEF7EFB95
:101A2000DEFEF7BDFEF7BDFEFBDEFEFDEF7EFFFF37
:101A3000FEF0001EF0001EFFFFFEFFFFFE7FFFFC1A
:101A40003FFFF83FFFF860000CC0000680000280F6
:101A50000002800002800002821082810842810818
:101A6000428210828421028842028842028421023A
:101A70008210828000028FFFE28FFFE2800002C0AE
:101A8000000660000C3FFFF854656D70657261746C
:101A900075726100506F72206661766F7220657397
:101AA00070657265004731205A30004739310A4766
:101AB000312058343420592D3431204633303030E1
:101AC0000A47393000506F72206661766F72206568
:101AD0007370657265005265616C697A616E646FDE
:101AE00020486F6D652E2E2E004732380047323861
:101AF000000056616C6F722064656C207A3A005465
:101B0000617265612030340043616C696272616E9C
:101B1000646F2E2E2E0047373700546172656120A6
:101B200030332076616C6F72206465207A002D2D31
:101B30002D2D2D2D2D2D2D2D2D2D2D2D2D2D2D2DD5
:101B40002D2D2D2D2D2D2D2D2D2D2D2D2D2D0070AF
:101B5000790070783A20005461726561203033203A
:101B60006D6F76696E670054617265612030320076
:101B7000506F72206661766F722065737065726552
:101B8000005265616C697A616E646F20486F6D65A3
:101B90002E2E2E005461726561203030004732389D
:101BA000004D6F766572205A004D35303000526519
:101BB000696E69636965206D617175696E61004266
:101BC0006F746F6E2070756C7361646F20454D4744
:101BD000004572726F722077726974696E67207443
:101BE0006F20454550524F4D210020627974657336
:101BF000290053657474696E67732053746F72653E
:101C000064202800454550524F4D20636865636B42
:101C100073756D206D69736D61746368002D2D2D72
:101C20002D2D2D2D2D2D2D2D2D2D2D2D2D2D2D2DE4
:101C30002D2D2D2D2D2D2D2D2D2D2D2D2D2D2D2DD4
:101C40002D2D2D2D2D2D2D2D2D2D2D2D2D2D2D2DC4
:101C50002D2D2D2D2D2D2D2D2D2D2D2D2D2D2D2DB4
:101C60002D00206279746573290020202020202017
:101C70002020202020202020202053746F726564B3
:101C80002073657474696E67732072657472696518
:101C90007665642028005D2053746F726564207639
:101CA000657273696F6E3A205B0056657273696F77
:101CB0006E3A205B002D2D2D2D2D2D2D2D2D2D2D12
:101CC0002D2D2D2D2D2D2D2D2D2D2D2D2D2D2D2D44
:101CD0002D2D2D2D2D2D2D2D2D2D2D2D2D2D2D2D34
:101CE0002D2D2D2D2D2D2D2D2D2D2D2D2D2D2D2D24
:101CF0002D2D2D2D2D2D2D2D2D002D2D2D2D2D2D41
:101D00002D2D2D2D2D2D2D2D2D2D2D2D2D2D2D2D03
:101D10002D2D2D2D2D2D2D2D2D2D2D2D2D2D2D2DF3
:101D20002D2D2D2D2D2D2D2D2D2D2D2D2D2D2D2DE3
:101D30002D2D2D2D2D2D2D2D2D2D2D2D2D2D002D00
:101D40002D2D2D2D2D2D2D2D2D2D2D2D2D2D2D2DC3
:101D50002D2D2D2D2D2D2D2D2D2D2D2D2D2D2D2DB3
:101D60002D2D2D2D2D2D2D2D2D2D2D2D2D2D2D2DA3
:101D70002D2D2D2D2D2D2D2D2D2D2D2D2D2D2D2D93
:101D80002D2D2D0020450020204D323035205400CF
:101D9000204500205A0020580020420020560020F4
:101DA0002020202053000020202020202020202838
:101DB0005A3D6D6178696D756D205A206A65726B48
:101DC00020286D6D2F73292C2020453D6D61786989
:101DD0006D756D2045206A65726B20286D6D2F73BF
:101DE00029290020202020202028423D6D696E698D
:101DF0006D756D207365676D656E742074696D65B2
:101E000020286D73292C20583D6D6178696D756DA2
:101E1000205859206A65726B20286D6D2F7329290F
:101E2000002020202020202028533D4D696E206670
:101E30006565647261746520286D6D2F73292C208F
:101E4000563D4D696E2074726176656C20666565DD
:101E5000647261746520286D6D2F7329290020201C
:101E60002020202020202020202020202020202072
:101E700020202020202020202020202020284D321B
:101E80003035290020202020202020202020202044
:101E90002020202020202020202020202020202042
:101EA000207C416476616E6365647C002D2D2D2D50
:101EB0002D2D2D2D2D2D2D2D2D2D2D2D2D2D2D2D52
:101EC0002D2D2D2D2D2D2D2D2D2D2D2D2D2D2D2D42
:101ED0002D2D2D2D2D2D2D2D2D2D2D2D2D2D2D2D32
:101EE0002D2D2D2D2D2D2D2D2D2D2D2D2D2D2D2D22
:101EF0000020202020202020202020202020202002
:101F00002020202020202020436F6E666967757294
:101F10006174696F6E20416476616E636564002D43
:101F20002D2D2D2D2D2D2D2D2D2D2D2D2D2D2D2DE1
:101F30002D2D2D2D2D2D2D2D2D2D2D2D2D2D2D2DD1
:101F40002D2D2D2D2D2D2D2D2D2D2D2D2D2D2D2DC1
:101F50002D2D2D2D2D2D2D2D2D2D2D2D2D2D2D2DB1
:101F60002D2D2D0020204D323030205431204400C2
:101F700020204D32303020440046696C616D656E22
:101F8000742073657474696E67733A00204400208E
:101F90004900205000202020202020202020202028
:101FA0002020202020480020202020202020202029
:101FB0002020202020202020202020202020202021
:101FC000202020202020284D3330312900202020BF
:101FD0002020202020202020202020202020202001
:101FE00020202020202020207C504944207365742C
:101FF00074696E67737C002D2D2D2D2D2D2D2D2DAB
:102000002D2D2D2D2D2D2D2D2D2D2D2D2D2D2D2D00
:102010002D2D2D2D2D2D2D2D2D2D2D2D2D2D2D2DF0
:102020002D2D2D2D2D2D2D2D2D2D2D2D2D2D2D2DE0
:102030002D2D2D2D2D2D2D2D2D2D2D002020202031
:102040002020202020202020202020202020202090
:102050002020202020436F6E666967757261746965
:102060006F6E20504944002D2D2D2D2D2D2D2D2D01
:102070002D2D2D2D2D2D2D2D2D2D2D2D2D2D2D2D90
:102080002D2D2D2D2D2D2D2D2D2D2D2D2D2D2D2D80
:102090002D2D2D2D2D2D2D2D2D2D2D2D2D2D2D2D70
:1020A0002D2D2D2D2D2D2D2D2D2D2D0020204D367E
:1020B00036362050005A2050726F6265206F666677
:1020C00073657420286D6D293A00205A002059004C
:1020D00020204732392053332058002059002058FF
:1020E0000020204D3432302053004D65736820624B
:1020F0006564206C6576656C696E673A00205A00ED
:10210000205900205800202020202020202020209E
:1021100020202020202020205400202020202020AB
:1021200020202020202020202020202020202020AF
:1021300020207C486F74656E64206F6666736574DA
:1021400020286D6D297C00202020202020202020A8
:10215000202020202020202020202020202020207F
:10216000202020202020284D323138290020202016
:10217000202020202020202020202020202020205F
:1021800020202020207C486F74656E64206F666676
:1021900073657420286D6D297C0000205A00205939
:1021A000002020202020202020202020202020204F
:1021B0002020202058002020202020202020202007
:1021C000202020202020202020202020202020200F
:1021D0002020202020284D323036290020202020A9
:1021E00020202020202020202020202020202020EF
:1021F00020202020207C486F6D65206F6666736507
:102200007420286D6D297C002D2D2D2D2D2D2D2D2B
:102210002D2D2D2D2D2D2D2D2D2D2D2D2D2D2D2DEE
:102220002D2D2D2D2D2D2D2D2D2D2D2D2D2D2D2DDE
:102230002D2D2D2D2D2D2D2D2D2D2D2D2D2D2D2DCE
:102240002D2D2D2D2D2D2D2D2D2D2D2D0020202012
:10225000202020202020202020202020202020207E
:102260002020202020436F6E666967757261746953
:102270006F6E206F6666736574002D2D2D2D2D2DCC
:102280002D2D2D2D2D2D2D2D2D2D2D2D2D2D2D2D7E
:102290002D2D2D2D2D2D2D2D2D2D2D2D2D2D2D2D6E
:1022A0002D2D2D2D2D2D2D2D2D2D2D2D2D2D2D2D5E
:1022B0002D2D2D2D2D2D2D2D2D2D2D2D2D2D002D7B
:1022C0002D2D2D2D2D2D2D2D2D2D2D2D2D2D2D2D3E
:1022D0002D2D2D2D2D2D2D2D2D2D2D2D2D2D2D2D2E
:1022E0002D2D2D2D2D2D2D2D2D2D2D2D2D2D2D2D1E
:1022F0002D2D2D2D2D2D2D2D2D2D2D2D2D2D2D2D0E
:102300002D2D2D00202020202020202020202020C6
:10231000202020202053656E736F72206465206634
:10232000696C616D656E746F3A20002D2D2D2D2D19
:102330002D2D2D2D2D2D2D2D2D2D2D2D2D2D2D2DCD
:102340002D2D2D2D2D2D2D2D2D2D2D2D2D2D2D2DBD
:102350002D2D2D2D2D2D2D2D2D2D2D2D2D2D2D2DAD
:102360002D2D2D2D2D2D2D2D2D2D2D2D2D2D2D00CA
:10237000205200202020202020202020202020204B
:102380002020202020202020202020202054000059
:102390002056002020202020202020202020202027
:1023A000202020202020202050002020202020201D
:1023B000202020202020284D32303420503D7072C3
:1023C000696E74696E672C20563D74726176656C17
:1023D00020616E6420542A20523D726574726163DC
:1023E00074290020202020202020202020202020B0
:1023F000202020202020202020202020207C41631D
:1024000063656C65726174696F6E737C0000204552
:102410000020204D323031205400204500205A0049
:102420002059002020202020202020202020202093
:102430002020202020202020205800202020202084
:10244000202020202020202020202020202020208C
:1024500020202020202020202020284D323031290B
:10246000002020202020202020202020202020208C
:10247000202020207C4D6178696D756D204163635B
:10248000656C65726174696F6E20286D6D2F733293
:10249000297C0020450020204D323033205400009C
:1024A000204500205A0020590020202020202020F4
:1024B0002020202058002020202020202020202004
:1024C000202020202020202020202020202020200C
:1024D0002020202020284D323033290020202020A9
:1024E00020202020202020202020202020202020EC
:1024F000207C4D6178696D756D20666565647261DB
:1025000074657320286D6D2F73297C0000204500B1
:1025100020204D3932205400436F6E6669673A00BF
:10252000204500205A002059002020202020202073
:102530002020202058002020202020202020202083
:10254000202020202020202020202020202020208B
:102550002020202020284D39322900202020202032
:10256000202020202020202020202020202020206B
:1025700020202020207C53746570732070657220A9
:10258000756E69747C002D2D2D2D2D2D2D2D2D2D4D
:102590002D2D2D2D2D2D2D2D2D2D2D2D2D2D2D2D6B
:1025A0002D2D2D2D2D2D2D2D2D2D2D2D2D2D2D2D5B
:1025B0002D2D2D2D2D2D2D2D2D2D2D2D2D2D2D2D4B
:1025C0002D2D2D2D2D2D2D2D2D2D002020202020A9
:1025D00020202020202020202020202020202020FB
:1025E000202020202020436F6E6669677572617419
:1025F000696F6E002D2D2D2D2D2D2D2D2D2D2D2D79
:102600002D2D2D2D2D2D2D2D2D2D2D2D2D2D2D2DFA
:102610002D2D2D2D2D2D2D2D2D2D2D2D2D2D2D2DEA
:102620002D2D2D2D2D2D2D2D2D2D2D2D2D2D2D2DDA
:102630002D2D2D2D2D2D2D2D0053657269653A0000
:102640004D6F64656C6F3A200050616E74616C6C04
:10265000613A20002D2D2D2D2D2D2D2D2D2D2D2DA3
:102660002D2D2D2D2D2D2D2D2D2D2D2D2D2D2D2D9A
:102670002D2D2D2D2D2D2D2D2D2D2D2D2D2D2D2D8A
:102680002D2D2D2D2D2D2D2D2D2D2D2D2D2D2D2D7A
:102690002D2D2D2D2D2D2D2D004D3131370A4D385D
:1026A000340A4D31313720496D70726573696F6E30
:1026B0002043616E63656C616461004D36303000AB
:1026C0004D313137205049442041637475616C6944
:1026D0007A61646F004D35303000494E4455535493
:1026E00052494120415247454E54494E410053659D
:1026F0007269653A00504B322B2B005620342E3035
:102700002E3000204D6F64656C6F3A005665727311
:10271000696F6E3A001C3800000000000000001CC9
:102720007117DF7DE39E11F7C01CE11104411451C4
:102730002901001DF911044114114501001FC111A7
:102740000479E41E45E1001DF911044144147D01A2
:10275000001CE111044124524501001C70E1047F7A
:1027600013914501001C3800000000000000001C0F
:102770001DFFFFFFFFFFFFFFF00000000000000053
:102780000000007FFFFFFFFFFFFFFFFFC04D6F76E0
:102790006572205A00566F6C7665720030310050B9
:1027A0006F736963696F6E203031003031003032F1
:1027B00000506F736963696F6E20303200303200F1
:1027C000303300506F736963696F6E2030330030AF
:1027D0003300303400506F736963696F6E2030349A
:1027E00000303400303500506F736963696F6E20BC
:1027F000303500303500303600506F736963696FD3
:102800006E20303600303600303700506F73696309
:10281000696F6E20303700303700303800506F73EA
:102820006963696F6E203038003038003039007FBE
:10283000FCC006800280028002800280028002804A
:10284000028002800280028002C0067FFC506F730B
:102850006963696F6E203039003039007FFCFFFEFC
:10286000FFFEFFFEFFFEFFFEFFFEFFFEFFFEFFFE80
:10287000FFFEFFFEFFFEFFFE7FFC4739310A4731B6
:102880002045313520463135300A4739300A47393D
:10289000310A473120452D31303020463330300A5F
:1028A0004739300A4D3834004739310A473120451D
:1028B00031303020463135300A4739300A4D38340E
:1028C000004739310A4731205A31302046333530FC
:1028D000300A47393000416A757374652064652099
:1028E00046696C616D656E746F0043616C63756CF5
:1028F000616E646F2E2E2E005075656465207461C4
:102900007264617220756E6F73206D696E75746F7D
:102910007300416A757374616E646F20504944009E
:1029200043616C656E74616E646F2E2E2E00506F65
:1029300072206661766F7220657370657265003F04
:10294000FFF87FFFFCFFFFFEFFFFFEFFFFFEFFFF24
:10295000FEFFFFFEFFFFFEE6DE6EE6DE6EEADEAEA7
:10296000EADEAEEADEAEECDECEECC2CEFFFFFEFF6C
:10297000FFFEFFFFFEFFFFFEFFFFFEFFFFFE7FFFEC
:10298000FC3FFFF83FFFF860000CC000068000022B
:10299000800002800002800002800002992192994A
:1029A0002192952152952152952152932132933DA6
:1029B000328000028000028000028000028000025B
:1029C000C0000660000C3FFFF83FFFF87FFFFCFFF0
:1029D000FFFEFFFFFEFFFFFEFFFFFEFFFFFEFFFF0C
:1029E000FEC2F176DEF776DEF7AEC6F1DEDEF7AEDA
:1029F000DEF776DE1176FFFFFEFFFFFEFFFFFEFF34
:102A0000FFFEFFFFFEFFFFFE7FFFFC3FFFF83FFFE3
:102A1000F860000CC0000680000280000280000206
:102A2000800002800002BD0E8AA1088AA10852B966
:102A30000E22A10852A1088AA1EE8A80000280001D
:102A400002800002800002800002C0000660000CCC
:102A50003FFFF83FFFF87FFFFCFFFFFEFFFFFEFF99
:102A6000FFFEFFFFFEFFFFFEFFFFFEF38F1EEDB632
:102A7000FEEDB6FEE18F3EEDB7DEEDB7DEED8E3E4C
:102A8000FFFFFEFFFFFEFFFFFEFFFFFEFFFFFEFF5B
:102A9000FFFE7FFFFC3FFFF83FFFF860000CC00027
:102AA0000680000280000280000280000280000296
:102AB0008C70E29249029249029E70C29248229220
:102AC00048229271C28000028000028000028000D1
:102AD00002800002C0000660000C3FFFF83FFFF8D4
:102AE0007FFFFCFFFFFEFFFFFEFFFFFEFFFFFEFF7D
:102AF000FFFEFFFFFEE3BF3EEDBEDEEDBEDEE3BE4A
:102B00001EEFBEDEEFBEDEEF86DEFFFFFEFFFFFE46
:102B1000FFFFFEFFFFFEFFFFFEFFFFFE7FFFFC3F0C
:102B2000FFF83FFFF860000CC00006800002800044
:102B3000028000028000028000029C40C29241227A
:102B40009241229C41E29041229041229079228040
:102B50000002800002800002800002800002C000AB
:102B60000660000C3FFFF850726564657465726D15
:102B7000696E61646F004578747275736F723A00A4
:102B80006C612074656D706572617475726100535B
:102B9000656C656363696F6E65004731205A313536
:102BA0002046313030300A473238205A0A47312027
:102BB0005A30004731205A31300A4732380A4D38EE
:102BC0003400506F736963696F6E20342064652030
:102BD00034004731205A31300A47312058313730DC
:102BE000205934302046323030300A473238205AAB
:102BF0000A4731205A3000506F736963696F6E2045
:102C0000332064652034004731205A31300A47317F
:102C10002058343020593235302046323030300A96
:102C2000473238205A0A4731205A30001FFFFFF040
:102C30003FFFFFF87FFFFFFCFFFFFFFEFFF83FFEB7
:102C4000FFE00FFEFF8003FEF70381FEF20FE0FEC0
:102C5000F01FF07EF03FF87EF07FFC3EF03FFE3E3E
:102C6000F01FFE1EFFFFFF1EFFFFFF1EFFFFFF1EE8
:102C7000FFFFFE1EFFFFFE3EFFFFFC3EFFFFF87E54
:102C8000FF9FF07EFF0FE0FEFF0381FEFF8003FE4B
:102C9000FFE00FFEFFF83FFE7FFFFFFC3FFFFFF866
:102CA0001FFFFFF01FFFFFF0300000186000000C56
:102CB000C00000068007C002801FF002807FFC0277
:102CC00088FC7E028DF01F028FE00F828FC007828A
:102CD0008F8003C28FC001C28FE001E2800000E25A
:102CE000800000E2800000E2800001E2800001C27A
:102CF000800003C28000078280600F8280F01F0284
:102D000080FC7E02807FFC02801FF002C007C006AC
:102D10006000000C300000181FFFFFF0506F736957
:102D200063696F6E20322064652034004731205A79
:102D300031300A4731205831373020593235302070
:102D400046323030300A473238205A0A4731205A4A
:102D50003000506F736963696F6E203120646520A5
:102D600034004731205A31300A473120583430205E
:102D70005934302046323030300A473238205A0A2F
:102D80004731205A3000FFFFFFFFFFFFFFFFFFFF2B
:102D9000FFFFE080000000000000000000000020B5
:102DA000B1C71C71C71C71C71C71C71C20A38E380A
:102DB000E38E38E38E38E38E38A0871C71C71C7110
:102DC000C71C71C71C71A08000000000000000003B
:102DD00000000020FFFFFFFFFFFFFFFFFFFFFFFFDF
:102DE000E0FFFFFFFFFFFFFFFFFFFFFFFFE08000AF
:102DF00000000000000000000000208E38E38E3844
:102E0000E38E38E38E38E3A09C71C71C71C71C7138
:102E1000C71C71C720B8E38E38E38E38E38E38E3E1
:102E20008E2080000000000000000000000020FF55
:102E3000FFFFFFFFFFFFFFFFFFFFFFE0506F72206C
:102E40006661766F72206573706572650001060AAF
:102E500000FE070136026820FFFE08FE07FE0A009A
:102E60006022176780808080800080163363A0A076
:102E7000A00257675050F850F85050025767207022
:102E8000A07028702002576748A8502050A89002D0
:102E9000576740A0A040A8906826136380808012E6
:102EA0003767204080808040201237678040202094
:102EB0002040800355658850F850880355652020D0
:102EC000F82020113363604080055161F8113363AD
:102ED00040E0400257670808102040808002576792
:102EE000205088888850200257672060A02020202A
:102EF000F8025767708808304080F8025767F80872
:102F0000103008887002576710305090F810100287
:102F10005767F880B0C8088870025767304080B0A3
:102F2000C88870025767F8081010204040025767A1
:102F30007088887088887002576770889868081051
:102F40006011376740E0400040E04011376740E0E3
:102F500040006040801247671020408040201004ED
:102F60005363F800F8124767804020102040800229
:102F7000576770881020200020025767708898A833
:102F8000B0807002576720508888F8888802576799
:102F9000F04848704848F002576770888080808801
:102FA00070025767F04848484848F0025767F88071
:102FB00080F08080F8025767F88080F0808080027F
:102FC000576770888080988870025767888888F86B
:102FD000888888123767E04040404040E0025767E9
:102FE000381010101090600257678890A0C0A09011
:102FF00088025767808080808080F80257678888C1
:10300000D8A88888880257678888C8A898888802BE
:10301000576770888888888870025767F08888F0BA
:103020008080800158687088888888A87008025756
:1030300067F08888F0A090880257677088807008D1
:103040008870025767F820202020202002576788C8
:1030500088888888887002576788888850505020F0
:10306000025767888888A8A8D88802576788885038
:1030700020508888025767888850202020200257D7
:1030800067F80810204080F8123767E08080808061
:1030900080E002576780804020100808123767E000
:1030A0002020202020E0065363205088015161F841
:1030B0002822628040025565700878887802576738
:1030C0008080B0C888C8B00255657088808870025A
:1030D0005767080868988898680255657088F8806E
:1030E00070025767304840F040404000576778888A
:1030F00088780888700257678080B0C888888812EE
:1031000037674000C0404040E0104969100030106F
:10311000101090906002576780808890E09088122D
:103120003767C04040404040E0025565D0A8A8A89D
:1031300088025565B0C88888880255657088888877
:1031400070005767B0C888C8B0808000576768981B
:103150008898680808025565B0C880808002556567
:1031600070807008F00257674040F04040483002DD
:10317000556588888898680255658888505020026F
:1031800055658888A8A85002556588502050880049
:10319000576788889868088870025565F81020403D
:1031A000F8124767304020C02040302217678080E7
:1031B0008080808080124767C02040304020C00659
:1031C000536348A890FFFFFFFFFFFFFFFFFFFFFFD4
:1031D000FFFFFFFFFFFFFFFFFFFFFFFFFFFFFFFFFF
:1031E000FFFFFFFFFFFF0A0060221767800080805B
:1031F0008080800157672078A0A0A07820025767C0
:10320000304840E04048B0025565887050708801F1
:10321000586888885020F8202020221767808080F6
:10322000008080800158687080E0904838087019EC
:103230003161A00257677088A8C8A88870134666D5
:103240007090B05000F00265652448904824144204
:1032500062F010154161F00257677088E8C8C888AD
:1032600070095161F816336340A040025666202071
:10327000F82020F815456560902040F0154565E080
:10328000106010E02822624080015666888888C855
:10329000B08002576778E8E86828282825116180FF
:1032A000202262408015356540C04040E0134666EC
:1032B0006090906000F00265659048244890016934
:1032C0006940C04040E40C143C0401696940C040BE
:1032D00040E81404081C015969C0204020C818287F
:1032E0007808025767200020204088700258684004
:1032F00020708888F888880258681020708888F8BC
:1033000088880258682050708888F8888802586831
:1033100048B0708888F8888802586850007088889B
:10332000F888880258682050708888F88888026772
:10333000673C50909CF0909C005969708880808018
:103340008870204002586840F88080F08080F80241
:10335000586810F88080F08080F802586820F88063
:1033600080F08080F802586850F88080F08080F803
:103370001238688040E040404040E0123868204009
:10338000E040404040E012386840A0E0404040400B
:10339000E0123868A000E040404040E0025767F08B
:1033A0004848E84848F0025868285088C8A89888D3
:1033B0008802586840207088888888700258681091
:1033C00020708888888870025868205070888888A3
:1033D00088700258682850708888888870025868F9
:1033E0005000708888888870025565885020508801
:1033F000025767709898A8C8C8700258684020881B
:103400008888888870025868102088888888887022
:1034100002586820500088888888700258685000D8
:1034200088888888887002586810208888502020F2
:103430002002576780F088F080808002576770888C
:1034400090A09088B0025868402000700878887872
:103450000258681020007008788878025868205058
:1034600000700878887802586828500070087888BA
:1034700078025767500070087888780258682050A2
:1034800020700878887802656578147C907C0057F5
:1034900067708880887020400258684020007088DB
:1034A000F880700258681020007088F88070025808
:1034B000682050007088F88070025767500070884C
:1034C000F88070123868804000C0404040E01238F8
:1034D00068408000C0404040E012386840A000C012
:1034E000404040E0123767A000C0404040E0025733
:1034F00067C0307088888870025868285000B0C84B
:10350000888888025868402000708888887002582F
:1035100068102000708888887002586820500070F9
:1035200088888870025868285000708888887002DF
:103530005767500070888888700355652000F80030
:10354000200255657898A8C8F00258684020008885
:1035500088889868025868102000888888986802CF
:1035600058682050008888889868025767500088FB
:103570008888986800596910208888986808887039
:1035800000586880F0888888F08080005969500071
:10359000888898680888706E6F2065737461626CA3
:1035A000656369646173004572726F723A2063618A
:1035B0007061730043616E63656C61722063616D5D
:1035C00062696F0043616D62696F20636170613A87
:1035D000200041686F726100456E20436170613A5E
:1035E0000043616D626961722066696C616D656E30
:1035F000746F00496E6963696F004D323100526526
:10360000636172676172205461726A6574612053EC
:1036100064003FFFF87FFFFCFFFFFEFFFFFEFF009F
:103620003EFE2ABEFCAABEF8AABEF8003EF8003E46
:10363000F8103EF8383EF87C3EF8383EF8383EF850
:10364000383EF8003EF8003EF8003EF8003EFFFF2E
:10365000FE7FFFFC3FFFF85461726A65746120537E
:1036600064003FFFF87FFFFCFFFFFEFFFFFEFF004F
:103670003EFE2ABEFCAABEF8AABEF8003EF8003EF6
:10368000F8003EF8003EF86C3EF88A3EF84A3EF8F4
:103690002A3EF8CC3EF8003EF8003EF8003EFFFF20
:1036A000FE7FFFFC3FFFF83FFFF860000CC0000604
:1036B00080000280FFC281D54283554287554287F0
:1036C000FFC287FFC287EFC287C7C28783C287C78F
:1036D000C287C7C287C7C287FFC287C7C287FFC268
:1036E00087FFC2C0000660000C3FFFF83FFFF86094
:1036F000000CC0000680000280FFC281D5428355C5
:103700004287554287FFC287FFC287FFC287FFC239
:103710008793C28775C287B5C287D5C28733C287F0
:10372000FFC287FFC287FFC2C0000660000C3FFFD8
:10373000F8416A757374652064652046696C616D33
:10374000656E746F0054656D706572617475726139
:103750000043616C696272617200417061676172FD
:10376000204C656400456E63656E646572204C652F
:1037700064003FFFF860000CC01006803802807CB7
:103780000280FE028038028038028438428C006257
:103790009F83F2BF83FA9F83F28C00628438428059
:1037A000380280380280FE02807C02803802C0101D
:1037B0000660000C3FFFF84D6F76657220656A6504
:1037C00073003FFFF87FFFFCFFEFFEFFC7FEFF83A4
:1037D000FEFF01FEFFC7FEFFC7FEFBC7BEF3FF9E55
:1037E000E07C0EC07C06E07C0EF3FF9EFBC7BEFFB4
:1037F000C7FEFFC7FEFF01FEFF83FEFFC7FEFFEF10
:10380000FE7FFFFC3FFFF83FFFF860000CC00006A2
:1038100080000280000283FF828600C2850142840C
:103820003842844442848242849242848242844464
:10383000428438428501428600C283FF82800002B2
:10384000800002C0000660000C3FFFF83FFFF87FD9
:10385000FFFCFFFFFEFFFFFEFFFFFEFC007EF9FF07
:103860003EFAFEBEFBC7BEFBBBBEFB7DBEFB6DBE14
:10387000FB7DBEFBBBBEFBC7BEFAFEBEF9FF3EFC36
:10388000007EFFFFFEFFFFFEFFFFFE7FFFFC3FFF0E
:10389000F83FFFF860000CC0000681FF0283018240
:1038A00082008282008287FFC287FFC287C1C287EF
:1038B00083C2873FC2873FC28783C287C1C287F95D
:1038C000C287F9C28781C28703C287FFC2C00006D0
:1038D00060000C3FFFF84B7574746572637261662B
:1038E000742053746F7265003FFFF87FFFFCFFFF89
:1038F000FEFE00FEFCFE7EFDFF7EFDFF7EF8003E2C
:10390000F8003EF83E3EF87C3EF8C03EF8C03EF877
:103910007C3EF83E3EF8063EF8063EF87E3EF8FC59
:103920003EF8003EFFFFFE7FFFFC3FFFF8416A7557
:10393000737465730053616C697200426F727261D7
:103940007200456E76696172004573706163696FDC
:10395000002E00580059005A004500460053005000
:10396000004300496E677265736520436F64696741
:103970006F00436F6D616E646F3A0053616C6972E2
:103980000047004D00496E677265736520436F64A0
:1039900069676F00436F6D616E646F3A00457374C1
:1039A00061646F206465204C6F73204361626C65B5
:1039B0007300436F727265617320475432004C7517
:1039C000627269636163696F6E00426F7175696CE1
:1039D0006C6120792042617272656C004176697376
:1039E0006F204D616E74656E696D69656E746F00F0
:1039F000526563756572646520526576697361729C
:103A0000002000E07001C0F803807803843C038C40
:103A10000E07FC070EF8039DF0017B8000F7000005
:103A2000EE0001DC0003BB000777803EEFC07DCFD6
:103A3000E0FF87F0C703F88701FC0700FC0E007C5D
:103A40001C003831352520456E204D617175696E39
:103A500061730032302520456E20526573707565A4
:103A600073746F730031302520456E204D61717580
:103A7000696E61730032302520456E205265737087
:103A8000756573746F730032302520456E20526562
:103A90007370756573746F730033312E3425204550
:103AA0006E20426F7175696C6C6173003135252031
:103AB000456E2052657370756573746F7300313590
:103AC0002520456E2046696C616D656E746F00310E
:103AD000322520456E2052657370756573746F735F
:103AE0000031322520456E2046696C616D656E742B
:103AF0006F0031302520456E2052657370756573F7
:103B0000746F730031302520456E2046696C616DFD
:103B1000656E746F0033302520456E204E756573D9
:103B2000747261205469656E6461003235252045E8
:103B30006E204E756573747261205469656E6461A0
:103B40000032352520456E204E75657374726120F4
:103B50005469656E64610032352520456E204E75CE
:103B60006573747261205469656E6461003230253A
:103B700020456E204D617175696E6173003230258C
:103B800020456E204E756573747261205469656EB0
:103B900064610032302520456E204E756573747265
:103BA00061205469656E64610032302520456E20C5
:103BB0004E756573747261205469656E646100317D
:103BC000352520456E204D617175696E6173003237
:103BD000302520456E204E756573747261205469DE
:103BE000656E64610031352520456E204E75657324
:103BF000747261205469656E646100313525204519
:103C00006E204D617175696E6173003135252045F7
:103C10006E204E756573747261205469656E6461BF
:103C20000035302520536572766963696F205465CD
:103C3000636E69636F0031302520456E204E7565D7
:103C400073747261205469656E646100313525209A
:103C5000456E20496E73756D6F73003130252045B8
:103C60006E204E756573747261205469656E64616F
:103C70000032352520456E204772696C6F4E330047
:103C800020352520456E204D617175696E61730088
:103C9000556E20456E76696F204772617469732195
:103CA00021210031302520456E2046696C616D650B
:103CB0006E746F0031352520456E20526573707526
:103CC0006573746F730031302520456E2046696C32
:103CD000616D656E746F00544553540041575344F1
:103CE0000045444241004253415300415045580071
:103CF000424F4F4D00424F4C4F00434F5341004401
:103D000049414C0044415441004441544F00444512
:103D1000414C004641524F00464F524F00434F50D6
:103D20004F004341504F004341504F0041554C41DB
:103D300000415557570058445844005850585300B4
:103D4000494F53580044494F53004156524700527F
:103D5000464646005458545300434144540042558B
:103D6000554800484F484F004C4F474F004D49526F
:103D700041004F55454C00484E575000465552544F
:103D800000494E4954004465736375656E746F3A1B
:103D9000200056657220436F6E646963696F6E65BB
:103DA0007320456E3A006B75747465726372616658
:103DB000742E636F6D2F70726F6D6F004465736347
:103DC00075656E746F004375706F6E20446500FCFE
:103DD0000004000200E180908088808880A880A88C
:103DE000808880A880A8808880A880A8808880A8F3
:103DF00080A8808880888088809080E1800200048C
:103E000000FC001F8010002000C38086808C80880A
:103E1000808A808A8088808A808A8088808A808A56
:103E20008088808A808A80888088808C808680C311
:103E300080200010001F8001050800FF06012102FC
:103E40003520FFFF07FF06FF09005022165680802D
:103E500080800080153353A0A0A00257575050F81F
:103E600050F850500257572070A07028702013351A
:103E70005580A040A02002475740A0A040A0A050DD
:103E80002513538080801226564080808080401207
:103E900026568040404040800245559060F060903A
:103EA0000255552020F820201133536040800441F2
:103EB00051F011335340E04002465610102040802C
:103EC0008012365640A0A0A0A04012365640C040F6
:103ED0004040E00246566090106080F0024656F086
:103EE00020601090600246562060A0F0202002461C
:103EF00056F080E01090600246566080E09090603E
:103F0000024656F0102020404002465660906090D5
:103F10009060024656609090701060122555C0C0A7
:103F200000C0C011365660600060408012365620D6
:103F30004080804020034353F000F012365680400A
:103F40002020408012365640A020400040015858A2
:103F5000304898A8A8904030024656609090F09063
:103F600090024656E090E09090E0024656609080C5
:103F7000809060024656E090909090E0024656F0A5
:103F800080E08080F0024656F080E080808002462B
:103F900056609080B090600246569090F09090905D
:103FA000123656E040404040E00246567020202045
:103FB000A04002465690A0C0A0A090024656808025
:103FC000808080F002465690F0F090909002465625
:103FD00090D0F0B0B0900246566090909090600201
:103FE0004656E09090E08080014757609090D0B0B6
:103FF0006010024656E09090E09090024656609025
:1040000040209060123656E0404040404002465604
:1040100090909090906002465690909090606002D0
:104020004656909090F0F0900246569090606090C6
:1040300090025656888850202020024656F01020C4
:104040004080F0123656E080808080E00246568044
:104050008040201010123656E020202020E016323A
:104060005240A0014151F016225280400244547047
:104070009090700246568080E09090E01234546038
:104080008080600246561010709090700244546018
:10409000B0C060024656205040E0404001455560A7
:1040A000907010600246568080E0909090123656D4
:1040B0004000C04040E01137572000202020A040A1
:1040C000024656808090E09090123656C0404040A4
:1040D00040E0025454D0A8A8A8024454E090909024
:1040E00002445460909060014555E090E08080016A
:1040F00045557090701010024454A0D08080123446
:104100005460C020C00246564040E0405020024467
:104110005490909070123454A0A0A040025454883F
:10412000A8A850024454906060900145559090704A
:104130009060024454F02040F0024757304020C0C5
:10414000204030221656808080808080024757C0F1
:104150002040304020C006425250A0FFFFFFFFFF2A
:10416000FFFFFFFFFFFFFFFFFFFFFFFFFFFFFFFF5F
:10417000FFFFFFFFFFFFFFFFFFFFFFFF09005022D0
:1041800016568000808080800146562070A0A07066
:10419000200246562050E04050A0025555887050ED
:1041A00070880256568850F820F8202217578080D1
:1041B00080008080800247577080E0907010E01788
:1041C0003151A002565670A8C8C8A8701435556061
:1041D000A06000E003435350A050123353E020206E
:1041E000143151E002565670E8D8E8D870173151B2
:1041F000E015335340A04012355540E04000E01434
:10420000355540A02040E0143555C020C020C016D0
:1042100022524080014555909090E0800256567899
:10422000E8E8682828241151801122524080143572
:104230005540C04040E014355540A04000E00343E5
:1042400053A050A0024757808080A060F020024712
:10425000578080A0D010207002475780408060A017
:10426000F02012365640004080A0400247574020C0
:104270006090F0909002475720406090F09090023C
:10428000475760906090F0909002475750A0609020
:10429000F0909002475790006090F090900247573E
:1042A00060906090F0909002465670A0A0F0A0B090
:1042B000014757609080809060400247574020F04F
:1042C00080E080F00247572040F080E080F0024715
:1042D000576090F080E080F00247579000F080E057
:1042E00080F01237578040E0404040E012375720BE
:1042F00040E0404040E012375740A0E0404040E0FE
:10430000123757A000E0404040E00256567048E89F
:1043100048487002475750A090D0B090900247573D
:1043200040206090909060024757204060909090AD
:10433000600247576090609090906002475750A08D
:10434000609090906002475790006090909060124B
:104350003353A040A002465670B0B0D0D0E0024720
:104360005740209090909060024757204090909046
:1043700090600247576090909090906002475790ED
:104380000090909090600257571020885020202075
:1043900002465680E09090E0800246566090A0A0D1
:1043A00090A002475740200070909070024757201D
:1043B00040007090907002475720500070909070AD
:1043C00002475750A00070909070024656500070FF
:1043D00090907002475760906070909070025454B3
:1043E000F068B078113555608080604002475740D2
:1043F000200060B0C06002475720400060B0C0603D
:1044000002475760900060B0C0600246565000609E
:10441000B0C060123757804000C04040E0123757AC
:10442000204000C04040E012375740A000C040404C
:10443000E0123656A000C04040E0024757A040A01E
:104440001070906002475750A000E0909090024793
:1044500057402000609090600247572040006090D5
:1044600090600247576090006090906002475750FC
:10447000A00060909060024656900060909060129C
:1044800035554000E0004002445470B0D0E002478F
:104490005740200090909070024757204000909025
:1044A000907002475760900090909070024656902E
:1044B000009090907001485820400090907090605B
:1044C0000147578080E090E080800147579000903E
:1044D0009070906003E0000C9800180C00201A0007
:1044E000303E0040710040E10061C3004181004066
:1044F00001003006002002001FFC00436170617360
:104500003A005A00590020003F00580009200009D5
:104510002000092000092000462D2D3A2D2D0054A1
:104520002D2D3A2D2D00462D2D3A2D2D0010410018
:1045300008208008208010410020820041040041B2
:104540000400208200104100000000FFFFC0FFFFB8
:10455000C01041002082004104004104002082007C
:10456000104100082080082080104100000000FF5A
:10457000FFC0FFFFC000E00000E00000E00003F823
:104580000007FFC007FEC007FC4007FEC007FFC0D2
:1045900001F00000E00000400000E00000E000004A
:1045A000E00003F80007FFC007FFC007FFC007FFD8
:1045B000C007FFC001F00000E0000040003FFF0026
:1045C000700380E619C0CF3CC09F3E40BF3F40BE55
:1045D0001F409CCE4081E04081E0409CCE40BE1F09
:1045E00040BF3F409F3E40CF3CC0E619C0700380B3
:1045F0003FFF003FFF00700380E3F1C0C3F0C081C4
:10460000E04080C040B00340B8C740BDEF40BDEFC0
:1046100040B8C740B0034080C04081E040C3F0C014
:10462000E3F1C07003803FFF00646574656E6761ED
:1046300000696D707265736F7261207365004573F8
:1046400070657265206120717565206C6100434161
:104650004D42494F2044452046494C414D454E541A
:104660004F004C696D7069616E646F20626F717587
:10467000696C6C61004573706572650043414D4221
:10468000494F2044452046494C414D454E544F002A
:104690007920636F6E74696E756500507265736919
:1046A0006F6E6520656C20626F746F6E0043414DC4
:1046B00042494F2044452046494C414D454E544FB8
:1046C000005265746972616E646F2066696C616D19
:1046D000656E746F004573706572650043414D42AD
:1046E000494F2044452046494C414D454E544F00CA
:1046F00043617267616E646F2066696C616D656E9F
:10470000746F004573706572650043414D42494FB7
:104710002044452046494C414D454E544F0052657A
:10472000616E7564616E646F20696D707265736926
:104730006F6E004573706572650043414D42494F8D
:104740002044452046494C414D454E544F0054614C
:10475000726A657461207265746972616461005483
:1047600061726A65746120636F6C6F63616461007C
:1047700000002200250028002B002E00310034000C
:1047800002010000050108010B01000020002300C8
:10479000260029002C002F00320000010000030138
:1047A00006010901050505050705080808080202B4
:1047B00002020A0A080804040404010101010101BB
:1047C00001010303030303030303040707070C0C9E
:1047D0000C0C0C0C0C0C0202020206060606060665
:1047E00006060B0B0B0B0B0B0B0B0102102020080A
:1047F000081020401020408002010201080402013C
:1048000001020408102040808040201008040201AA
:104810008004020180402010080402010804020103
:10482000010204081020408001020408102040808A
:1048300000000A0B02090C0D0E080703040100001A
:104840000000000000000000000000000000000068
:104850000000000000000000000000001211100025
:104860000000000000000000000000000000000048
:104870000000000000004D3234004732380A4D314C
:1048800031380A4D3234004D3233202573003FFF5A
:10489000F860000CC0000680380290FE029BC782C0
:1048A0009F01C29E00C29F00629F80628000328092
:1048B00000328000328000628000628000C283018A
:1048C000C283C78280FE02803802C0000660000CEE
:1048D0003FFFF83FFFF87FFFFCFFFFFEFFC7FEEF43
:1048E00001FEE4387EE0FE3EE1FF3EE0FF9EE07F19
:1048F0009EFFFFCEFFFFCEFFFFCEFFFF9EFFFF9E7E
:10490000FFFF3EFCFE3EFC387EFF01FEFFC7FEFFC0
:10491000FFFE7FFFFC3FFFF8566F6C76657200006C
:10492000446F6E6520736176696E672066696C6599
:104930002E006572726F722077726974696E6720DB
:10494000746F2066696C6500203A203C3C3C207204
:10495000756E5F7A5F70726F62650A00637572725E
:10496000656E745F706F736974696F6E3D000000EF
:10497000A0400000A04000000040203A203E3E3E03
:104980002072756E5F7A5F70726F62650A00637580
:104990007272656E745F706F736974696F6E3D00DB
:1049A0003C3C3C2070726F62655F7074003E20007A
:1049B0003E200029002C20003E20646F5F626C6F57
:1049C000636B696E675F6D6F76655F746F5F787933
:1049D0002800203A200A0063757272656E745F7059
:1049E0006F736974696F6E3D0029002C20002C20C4
:1049F000003E3E3E2070726F62655F70742800500A
:104A000069657A6173004B696C6F6D6574726F7361
:104A100000566F6C766572202020202020202020F8
:104A20002020202020040053657269616C3A0053F5
:104A3000697374656D6100456E76696172204763C4
:104A40006F646500436F6E6669672E20466162720F
:104A500069636100416A7573746172205049440052
:104A60004B75747465724D656C6F647920202020DD
:104A70005B4F66665D004B75747465724D656C6F57
:104A8000647920202020205B4F6E5D00456E636FAF
:104A90006465722020202020202020205B495A516C
:104AA0005D00456E636F6465722020202020202009
:104AB00020205B4445525D0053656E736F72206623
:104AC000696C616D656E746F5B4F66665D00536502
:104AD0006E736F722066696C616D656E746F205BBA
:104AE0004F6E5D00477561726461646F2020202005
:104AF000202020205B4F66665D004775617264610F
:104B0000646F2020202020202020205B4F6E5D003D
:104B1000496E666F726D6163696F6E2020205B4322
:104B2000617061735D00496E666F726D6163696F7C
:104B30006E2020205B436F6F72645D004175746F5F
:104B40006C6576656C202020202020205B4F6666F7
:104B50005D004175746F6C6576656C2020202020A7
:104B60002020205B4F6E5D004964696F6D612020DD
:104B70002020202020202020205B45535D004C6F0A
:104B800067726F73004573746164697374696361FC
:104B90000056657273696F6E00566F6C7665722091
:104BA000202020202020202020202020200400560B
:104BB0006F6C766572003FFFF860000CC0000680E5
:104BC0000002800802803802803802803802803873
:104BD0000280380280380280000280380285394223
:104BE00085834286FEC283018281FF028000028F9C
:104BF000FFE2C0000660000C3FFFF83FFFF87FFFB8
:104C0000FCFFFFFEFFFFFEFFF7FEFFC7FEFFC7FE34
:104C1000FFC7FEFFC7FEFFC7FEFFC7FEFFFFFEFF89
:104C2000C7FEFAC6BEFA7CBEF9013EFCFE7EFE005F
:104C3000FEFFFFFEF0001EFFFFFE7FFFFC3FFFF8C0
:104C40003FFFF860000CC000068000028000028177
:104C5000830281C70281EF0281FF0281BB0281933F
:104C60000281830281830281830280000287FF82A6
:104C70008000028FFFE28FFFE2800002C00006602A
:104C8000000C3FFFF83FFFF87FFFFCFFFFFEFFFF38
:104C9000FEFFFFFEFE7CFEFE38FEFE10FEFE00FE66
:104CA000FE44FEFE6CFEFE7CFEFE7CFEFE7CFEFFF5
:104CB000FFFEF8007EFFFFFEF0001EF0001EFFFF6B
:104CC000FEFFFFFE7FFFFC3FFFF83FFFF860000C98
:104CD000C0000680000280000280000281C20281C2
:104CE000C70281CF8281C70283E70281C702808722
:104CF0000280000280000283FF828000028FFFE2B8
:104D00008FFFE2800002C0000660000C3FFFF83F0A
:104D1000FFF87FFFFCFFFFFEFFFFFEFFFFFEFFFF30
:104D2000FEFE3DFEFE38FEFE307EFE38FEFC18FE26
:104D3000FE38FEFF78FEFFFFFEFFFFFEFC007EFF59
:104D4000FFFEF0001EF0001EFFFFFEFFFFFE7FFFD4
:104D5000FC3FFFF841206C696E69617220656A65ED
:104D6000207A003FFFF860000CC00006800002813E
:104D7000FF02800002801002803802807C028038AE
:104D800002803802803802803802803802800002B7
:104D900083FF828000028FFFE28FFFE2800002C06B
:104DA000000660000C3FFFF83FFFF87FFFFCFFFFAD
:104DB000FEFFFFFEFE00FEFFFFFEFFEFFEFFC7FE51
:104DC000FF83FEFFC7FEFFC7FEFFC7FEFFC7FEFF54
:104DD000C7FEFFFFFEFC007EFFFFFEF0001EF0009E
:104DE0001EFFFFFEFFFFFE7FFFFC3FFFF8436170E9
:104DF000613A00636170612064652063616D62697E
:104E00006F0053656C656363696F6E6172004B750B
:104E10007474657263726166742053746F72650096
:104E20006B757474657263726166742E636F6D2F37
:104E300073746F726500FEDF43F8829F1A08BAEE42
:104E40002AE8BA1B6AE8BAAD32E8821A0A08FEAA52
:104E5000ABF8004238009FB7D4B8848A31B0860AD4
:104E60002F20F0235448F6169308C51066F886CB19
:104E70005B28D84E1FA8F6C9084014A93CB03E676D
:104E8000DA48091D09E02A457FF0008D78C0FE95BB
:104E90009AC082955898BA9C9FD8BAA78D08BA43F1
:104EA000E1B8826A0768FEA19CC04D3530300042EF
:104EB0006F7272617220457374616469737469639F
:104EC000610043616D626961722056657273696F3A
:104ED0006E00566F6C7665722020202020202020E6
:104EE00020202020202004004D35303000496E67FE
:104EF000726573652047656E65726163696F6E3AAE
:104F000000436F6469676F3A00496E677265736545
:104F10002047656E65726163696F6E3A00496E671E
:104F200072657365204D65733A0053616C69720058
:104F3000426F7272617200496E67726573652043D9
:104F40006F6469676F00436F6469676F3A00436518
:104F50006E74696D6574726F733A006D6574726F0B
:104F6000733A004B696C6F6D6574726F733A0046EB
:104F7000696C616D656E746F20557361646F004D6F
:104F8000696E75746F733A00486F7261733A0044CA
:104F90006961733A005469656D706F20456E636591
:104FA00064696461004D696E75746F733A00486F8F
:104FB0007261733A00446961733A005469656D70B7
:104FC0006F20646520696D70726573696F6E00494A
:104FD0006E636F6D706C657461733A005465726DC9
:104FE000696E616461733A0020546F74616C3A00B9
:104FF000496D70726573696F6E65730070012C0185
:1050000090012701B0012201C0011D01F00118012A
:105010001002130130020E01600209019002040126
:10502000C002FF000003FA004003F5008003F00017
:10503000D003EB002004E6007004E100E004DC0093
:105040004005D700C005D2004006CD00D006C800FC
:105050008007C3003008BE00F008B900C009B400E2
:10506000B00AAF00B00BAA00D00CA500000EA00043
:10507000500F9B00C01096005012910000148C003D
:10508000C0158700B0178200B0197D00D01B7800D2
:10509000001E730040206E0090226900F02464001E
:1050A00040275F0090295A00E02B5500102E500039
:1050B00020304B0010324600E033410090353C0078
:1050C0001037370070383200A0392D00B03A280070
:1050D000A03B2300603C1E00103D1900903D1400D1
:1050E000103E0F00703E0A00C03E0500003F000069
:1050F000204B643A2000204B693A2000204B703A44
:105100002000504944204175746F74756E652066A7
:10511000696E6973686564212050757420746865D0
:10512000206C617374204B702C204B6920616E647D
:10513000204B6420636F6E7374616E7473206672AB
:105140006F6D2061626F766520696E746F20436FAA
:105150006E66696775726174696F6E2E68206F7212
:105160002073656E6420636F6D6D616E64204D35D4
:10517000303020666F72207361766520696E20453D
:105180004550524F4D20746865206E6577207661DA
:105190006C75652100504944204175746F74756EBB
:1051A00065206661696C6564212074696D656F7541
:1051B0007400504944204175746F74756E652066A3
:1051C00061696C6564212054656D706572617475E8
:1051D000726520746F6F206C6F77005049442041D6
:1051E00075746F74756E65206661696C65642120E5
:1051F00054656D706572617475726520746F6F208F
:105200006869676800204B643A2000204B693A20A7
:1052100000204B703A200020436C61737369632057
:1052200050494420002054753A2000204B753A2004
:1052300000206D61783A2000206D696E3A200020D0
:10524000643A200020626961733A20002041707046
:105250006C7920726573756C7400204379636C659A
:10526000733A20002054656D703A2000486F7465D1
:105270006E643A20004348414D4245520042454445
:1052800000504944204175746F74756E65207374C5
:1052900061727400504944204175746F74756E6575
:1052A000206661696C656421204261642074656DCB
:1052B000706572617475726520636F6E74726F6C65
:1052C0006C6572206E756D626572002C2073797347
:1052D00074656D2073746F707065642120436F6F07
:1052E0006C6572002C2073797374656D2073746F14
:1052F0007070656421204368616D626572002C20C6
:1053000073797374656D2073746F70706564212098
:10531000426564002C2073797374656D2073746F1B
:105320007070656421204865617465725F49443A14
:10533000200050415241444120444520454D4552B2
:10534000472E00202D20496E76616C6964206578B7
:10535000747275646572206E756D626572202100CD
:10536000C0159100B0178C00B0198700D01B8200C7
:10537000001E7D004020780090227300F0246E0013
:105380004027690090296400B02A5F00D02B5A00A2
:10539000F02C5500102E500020304B0010324600EB
:1053A000E033410090353C00103737007038320050
:1053B000A0392D00B03A2800A03B2300603C1E001D
:1053C000103D1900903D1400103E0F00703E0A0081
:1053D000C03E0500003F00004D494E54454D502051
:1053E0004552524F52004D494E54454D5020747213
:1053F00069676765726564004D494E54454D50209C
:10540000424544204552524F520002536F66747712
:1054100061726520526573657400576174636864D6
:105420006F672052657365740042726F776E206FEC
:1054300075742052657365740045787465726E6189
:105440006C20526573657400506F776572557000FB
:105450002020202020202020202020202020204F1D
:105460006B7C48617264636F6465642053442044BC
:10547000656661756C742053657474696E6773201A
:105480004C6F616465640020506C616E6E657242A1
:10549000756666657242797465733A200020202033
:1054A0002020202020202020202046726565204DCD
:1054B000656D6F72793A20002D2D2D2D2D2D2D2DFE
:1054C0002D2D2D2D2D2D2D2D2D2D2D2D2D2D2D2D0C
:1054D0002D2D2D2D2D2D2D2D2D2D2D2D2D2D2D2DFC
:1054E0002D2D2D2D2D2D2D2D2D2D2D2D2D2D2D2DEC
:1054F0002D2D2D2D2D2D2D2D2D2D2D2D002D2D2D09
:105500002D2D2D2D2D2D2D2D2D2D2D2D2D2D2D2DCB
:105510002D2D2D2D2D2D2D2D2D2D2D2D2D2D2D2DBB
:105520002D2D2D2D2D2D2D2D2D2D2D2D2D2D2D2DAB
:105530002D2D2D2D2D2D2D2D2D2D2D2D2D2D2D2D9B
:105540002D0020202020202020202020202020206E
:105550002020202020202020202020436F6D7069F3
:105560006C65643A204D617920323220323032301D
:10557000002020202020202020202020202020204B
:105580002020202020202020202020204175746809
:105590006F723A20284B5554544552435241465459
:1055A000205F7C7C5F204D6F643A4F726C69782974
:1055B000002020202020202020202020202020200B
:1055C0002020202020204C61737420557064617469
:1055D00065643A204D6179203232203230323020F9
:1055E00031313A31303A3037002D2D2D2D2D2D2DE2
:1055F0002D2D2D2D2D2D2D2D2D2D2D2D2D2D2D2DDB
:105600002D2D2D2D2D2D2D2D2D2D2D2D2D2D2D2DCA
:105610002D2D2D2D2D2D2D2D2D2D2D2D2D2D2D2DBA
:105620002D2D2D2D2D2D2D2D2D2D2D2D2D002020F1
:10563000202020202020202020202020202020206A
:10564000202020202020204B5554544552435241C5
:1056500046545F5620342E302E30002D2D2D2D2D0A
:105660002D2D2D2D2D2D2D2D2D2D2D2D2D2D2D2D6A
:105670002D2D2D2D2D2D2D2D2D2D2D2D2D2D2D2D5A
:105680002D2D2D2D2D2D2D2D2D2D2D2D2D2D2D2D4A
:105690002D2D2D2D2D2D2D2D2D2D2D2D2D2D2D0067
:1056A0002D2D2D2D2D2D2D2D2D2D2D2D2D2D2D2D2A
:1056B0002D2D2D2D2D2D2D2D2D2D2D2D2D2D2D2D1A
:1056C0002D2D2D2D2D2D2D2D2D2D2D2D2D2D2D2D0A
:1056D0002D2D2D2D2D2D2D2D2D2D2D2D2D2D2D2DFA
:1056E0002D2D2D2D002020202020202020202020A6
:1056F000202020202020202020202020204B7574D6
:105700007465726372616674204669726D77617246
:1057100065002D2D2D2D2D2D2D2D2D2D2D2D2D2DAE
:105720002D2D2D2D2D2D2D2D2D2D2D2D2D2D2D2DA9
:105730002D2D2D2D2D2D2D2D2D2D2D2D2D2D2D2D99
:105740002D2D2D2D2D2D2D2D2D2D2D2D2D2D2D2D89
:105750002D2D2D2D2D2D00737461727400000021EC
:1057600000240027002A002D003000330001010032
:1057700000040107010A0147323800436F6E746963
:105780006E756172001FFFFFF03FFFFFF87FFFFFA4
:10579000FCFFFFFFFEFE7FFFFEFE7FC0FEF99FDEE7
:1057A000FEF99FD2FEFE7FDAFEFE63D2FEFFC3DA71
:1057B000FEFFCFD2FEFFCFDAFEFFCFD2FEFFC3DA6D
:1057C000FEFFE3927EFFFF333EFFFE619EFFFEC0C1
:1057D000DEFFFE805EFFFEC0DEFFFE619EFFFF3348
:1057E0003EFFFF9E7EFFFFC0FEFFFFFFFEFFFFFFAD
:1057F000FE7FFFFFFC3FFFFFF81FFFFFF01FFFFFD3
:10580000F0300000186000000CC00000068180002D
:105810000281803F028660210286602D0281802500
:1058200002819C2D02803C250280302D0280302593
:105830000280302D02803C2502801C6D828000CCCD
:10584000C280019E6280013F2280017FA280013FD1
:105850002280019E628000CCC28000618280003F75
:105860000280000002C00000066000000C30000052
:10587000181FFFFFF01FFFFFF03FFFFFF87FFFFF44
:10588000FCFFFFFFFEFFFFFFFEF8E3C0FEF843DE74
:10589000FEF803D2FEFC47DAFEFEEFD2FEFC47DA4A
:1058A000FEF803D2FEF843DAFEF8E3D2FEFFFFDA99
:1058B000FEFFFF927EFFFF333EFFFE619EFFFEC0B4
:1058C000DEFFFE805EFFFEC0DEFFFE619EFFFF3357
:1058D0003EFFFF9E7EFFFFC0FEFFFFFFFEFFFFFFBC
:1058E000FE7FFFFFFC3FFFFFF81FFFFFF01FFFFFE2
:1058F000F0300000186000000CC0000006800000BE
:1059000002871C3F0287BC210287FC2D0283B82539
:105910000281102D0283B8250287FC2D0287BC2549
:1059200002871C2D028000250280006D828000CC41
:10593000C280019E6280013F2280017FA280013FE0
:105940002280019E628000CCC28000618280003F84
:105950000280000002C00000066000000C30000061
:10596000181FFFFFF054656D706572617475726188
:10597000004D6F7665722059004D6F766572205A22
:10598000004D6F7665722058003FFFF87FFFFCFFE7
:10599000FFFEFFFFFEFFFFFEFE00FEFE00FEFE7F9D
:1059A000FEFE7FFEFE7FFEFE3FFEFF01FEFF80FE4D
:1059B000FFF8FEFFFCFEFFF8FEFE01FEFE03FEFF09
:1059C000FFFEFFFFFEFFFFFE7FFFFC3FFFF83FFFF4
:1059D000F860000CC0000680000280000281FF0217
:1059E00081FF0281800281800281800281C0028069
:1059F000FE02807F0280070280030280070281FE90
:105A00000281FC02800002800002C0000660000CDF
:105A10003FFFF83FFFF87FFFFCFFFFFEFFFFFEFFA9
:105A2000FFFEFFC7FEFF87FEFF07FEFE27FEFE67A5
:105A3000FEFFE7FEFFE7FEFFE7FEFFE7FEFFE7FEF4
:105A4000FFE7FEFF81FEFF81FEFFFFFEFFFFFEFF7F
:105A5000FFFE7FFFFC3FFFF83FFFF860000CC00037
:105A60000680000280000280380280780280F802FE
:105A700081D8028198028018028018028018028062
:105A80001802801802801802807E02807E02800048
:105A900002800002C0000660000C3FFFF83FFFF8E4
:105AA0007FFFFCFFFFFEFFFFFEFFFFFEF87E3EF0E4
:105AB0003C3EE3183EE7913EE7933EE79F3EE79F7B
:105AC0003EE79F3EE79F3EE79F3EE31F3EF03C0ED2
:105AD000F86C0EFFFFFEFFFFFEFFFFFE7FFFFC3FA7
