:100000000C9400460C9431460C9431460C943146C5
:100010000C9431460C9431460C9431460C94314684
:100020000C9431460C9431460C9431460C94314674
:100030000C9431460C9476B00C9431460C943146B5
:100040000C9431460C942EE20C9431460C943146BB
:100050000C9431460C9431460D9410020C942CB043
:100060000C9431460D94CE3D0D949E3D0C9431463A
:100070000C9431460C9431460C9431460C94314624
:100080000C9431460C9431460C9431460C94314614
:100090000C9431460C9431460C9431460C94314604
:1000A0000C9431460C9431460C9431460C943146F4
:1000B0000C9431460C9431460C9431460C943146E4
:1000C0000C9431460C9431460C9431460D9406152F
:1000D0000C9414B10C9431460C9431460C94314676
:1000E0000C943146C64BD14B004C5C4CC14C1A4D64
:1000F000234D50A053A058A05BA05EA061A064A0B7
:1001000067A06AA06DA073A079A07FA0A8A0ABA0F3
:10011000AEA0B1A0B4A0B7A0BAA0BDA0C0A0C3A01B
:10012000C6A0CBA0E3A033AD36AD25AD29AD2FAD34
:100130006DAD3AAD3EAD44AD48AD4CAD52AD56ADF2
:100140005AAD6DAD60AD64AD68AD48AF4DAF52AF67
:100150005CAF66AFDFAF70AF78AF80AF8AAF94AF00
:100160009EAFADAFB7AFDFAFC1AFCBAFD5AF24015F
:10017000A601A40136012C01600188018201A201BF
:100180005601B2014E0144015C017401B801AE0197
:100190006E01CA015E0194013001520190019C017F
:1001A0004C0184015401340142019A019E01B401C1
:1001B000C40186014A0148011E017C018001D2016F
:1001C0005A015001A8019601AC016801C601BE01A7
:1001D000DE011C018C016A012E017A01B601CE01FB
:1001E0006C018A01D4011A01084AD73B3BCE016E4B
:1001F00084BCBFFDC12F3D6C74319ABD56833DDA7E
:100200003D00C77F11BED9E4BB4C3E916BAAAABE8C
:10021000000000803F05A84CCDB2D44EB93836A9B5
:10022000020C50B9918688083CA6AAAA2ABE0000F2
:1002300000803F000D945F380D94A1370D949935DF
:100240000D9407390D94D9160D946C020D9406394E
:100250000D94E6330D94E0380D94C6020D94DA3710
:100260000D94D7140D94B2180D94DE340D94AB0296
:100270000D94C2180D94DE170D94F5380D94B20C40
:100280000D94F21A0D94F2340D94E6020D9463125B
:100290000D9484350D946F350D94F1140D94E30293
:1002A0000D9409370D94D2140D94C9340D94DB02CA
:1002B0000D94D1110D94F6360D94EB020D94B514F6
:1002C0000D94CB020D9416120D9426100D94F23558
:1002D0000D9455370D94C7370D9426380D94FB02B5
:1002E0000D949C140D948B380D94EE020D94A01176
:1002F0000D94C7380D94ED370D94BD360D94EC1761
:100300000D94D0360D94D3020D94B4340D945B3516
:100310000D94CE020D9439380D94B4370D94360FE8
:100320000D94E8140D94EA320D94FB140D942F37BC
:100330000D94B9380D9407350D94B3140D941C35F4
:100340000D94561E0D94D6020D949B020D947C02C2
:100350000D941C370D94CF170D9442370D94F6026F
:100360000D945D130D94DE020D9431350D9400381B
:100370000D94F3020D94E1100D94AF110D947B37A1
:100380000D94C3110D94C8160D9446350D9468371D
:100390000D94AA150D9405030D945E150D94133854
:1003A0000D948C180D94E3360D944C380D94D2189E
:1003B0000D94890C0D94C3350D945C4D0D948E37BE
:1003C0004E414E494E495459494E46CDCCCC3D0A3A
:1003D000D7233C17B7D13877CC2B329595E6241F1D
:1003E000B14F0A000020410000C84200401C4620D6
:1003F000BCBE4CCA1B0E5AAEC59D7400407A10F3A9
:100400005A00A0724E18090010A5D4E80000E87642
:1004100048170000E40B54020000CA9A3B00000099
:10042000E1F505000080969800000040420F0000B2
:1004300000A08601000000102700000000E8030073
:100440000000006400000000000A0000000000013D
:1004500000000000002C76D888DC674F0823DFC13D
:10046000DFAE59E1B1B796E5E3E453C63AE65199F8
:100470007696E8E6C28426EB898C9B62ED407C6F21
:10048000FCEFBC9C9F40F2BAA56FA5F490055A2AD8
:10049000F75C936B6CF9676DC11BFCE0E40D47FEE4
:1004A000F520E6B500D0ED902E03009435770500D9
:1004B00080841E080000204E0A000000C80C333360
:1004C00033330F986E12831141EF8D2114893BE66F
:1004D0005516CFFEE6DB18D1844B381BF77C1D90F8
:1004E0001DA4BBE424203284725E228100C9F12461
:1004F000ECA1E53D27414C4C00434F4D4D554E4935
:10050000434154494F4E0044525952554E004552B2
:10051000524F525300494E464F004543484F0052F8
:1005200065706F736F2E2E2E004175746F6C65763B
:10053000656C3A206F6E004D616E75616C65766515
:100540006C3A206F6E0050756E746F20616C636141
:100550006E7A61646F00473239205334002F3900BE
:10056000200050756E746F004D3530300A473238B8
:100570000A47312058313020593130205A31300A61
:100580004D313137204175746F6C65766520726529
:10059000616C697A61646F004732392053350047D6
:1005A00032392053350A4731205A30204631353010
:1005B00030004737370A473239205335005A206E0A
:1005C0006F7420656E74657265642E0059206E6FBD
:1005D0007420656E74657265642E0059206F7574A1
:1005E000206F662072616E67652028312D33292EB9
:1005F0000058206E6F7420656E74657265642E00FD
:1006000058206F7574206F662072616E67652028B0
:10061000312D33292E0047323920533400473238E8
:100620000A473239205332004572726F723A2041C4
:1006300075746F2D43616C6962726163696F6E20BE
:1006400061706167616461005A206F6666736574EA
:100650002041637475616C3A2000532053757065B6
:10066000726120656C206E756D65726F2064652007
:10067000636F6D616E646F7320372E003C3C3C20CD
:1006800067636F64655F47333000205A3A2000206B
:10069000593A200020583A2000426564003E3E3E10
:1006A0002067636F64655F47333000205A3A20004B
:1006B00020593A200020583A200042656400204525
:1006C0003A00205A3A0020593A003C2D583A00206E
:1006D0005300536176656420706F736974696F6E3F
:1006E00000496E76616C696420736C6F742C2074A1
:1006F0006F74616C20736C6F74733A20003A002041
:10070000002D3E00205300526573746F72696E674E
:1007100020706F736974696F6E00496E76616C69E1
:100720006420736C6F742C20746F74616C20736C14
:100730006F74733A20005374617274205072696E42
:1007400074696E670053746F70205072696E7469BB
:100750006E670053696E206D6F76696D69656E74A2
:100760006F00456E642066696C65206C6973740067
:10077000426567696E2066696C65206C69737400F8
:100780002F005344207072696E74696E672062791D
:10079000746520004E6F74205344207072696E742B
:1007A000696E67005072696E742074696D6520000F
:1007B0002569682025696D202569730025696420F5
:1007C0002569682025696D20256973004469726573
:1007D00063746F727920637265617465640043723B
:1007E000656174696F6E206661696C656400436C55
:1007F0006F73652066696C6520616E642073617635
:100800006520726573746172742E67636F6465002E
:1008100020616E64207374617274207072696E74EA
:100820002E004F70656E2066696C653A20004B752E
:10083000747465726372616674204F46462E00437D
:10084000616C656E74616E646F2E2E2E004B757434
:100850007465726372616674206C697374612E00D2
:100860006F6666001A0515050E050705F904F504FF
:1008700044656275673A0050415241444120444505
:1008800020454D4552472E004D313133205300460F
:1008900049524D574152455F4E414D453A4B555493
:1008A00054455243524146545F5620342E302E3721
:1008B000204649524D574152455F55524C3A687453
:1008C00074703A2F2F7777772E6B75747465726317
:1008D000726166742E636F6D2F736F6674776172C9
:1008E000652050524F544F434F4C5F564552534929
:1008F0004F4E3A322E30204D414348494E455F54C9
:100900005950453A43617274657369616E20455868
:100910005452554445525F434F554E543A32205538
:100920005549443A33323462666134322D6134328F
:10093000372D313165362D383066352D3736333029
:1009400034646563376562370A0063737465707376
:100950003A2000655F6D696E3A20007A5F70726FB1
:1009600062653A20007A5F6D696E3A2000795F6DAA
:10097000696E3A2000785F6D696E3A2000526570AA
:100980006F7274696E6720656E6473746F70207324
:10099000746174757300205A00205900580020209B
:1009A0004D61783A2000205A00205900580020203C
:1009B0004D696E3A2000536F667420656E647374DF
:1009C0006F70733A0043290061626C656420286D82
:1009D000696E2074656D702000436F6C64206578CB
:1009E0007472756465732061726520004D31313712
:1009F000205049442041637475616C697A61646F69
:100A0000004D353030004F6666736574206170703C
:100A10006C6965642E004F66667365742061707042
:100A20006C6965642E004572723A20546F6F2066BF
:100A300061722100546F6F206661722066726F6D63
:100A4000207265666572656E636520706F696E748D
:100A500000436170613A200020496E76616C6964E0
:100A6000206578747275646572005400416374691E
:100A700076652045787472756465723A200041632A
:100A800074697665204472697665723A20003C3C50
:100A90003C2067636F64655F5400203A20414654F0
:100AA00045520A0063757272656E745F706F736988
:100AB00074696F6E3D00203A204245464F52450A08
:100AC0000063757272656E745F706F736974696FBD
:100AD0006E3D0029003E3E3E2067636F64655F54B3
:100AE00028002200436F6D616E646F206E6F206579
:100AF0006E636F6E747261646F3A2022004D3630FF
:100B000030004D3630300073652061637469766F54
:100B10002031004563686F3A004572726F7220772A
:100B2000726974696E6720746F20454550524F4D4D
:100B30002100206279746573290053657474696EAD
:100B400067732053746F72656420280045455052C6
:100B50004F4D20636865636B73756D206D69736DB0
:100B600061746368002D2D2D2D2D2D2D2D2D2D2DF6
:100B70002D2D2D2D2D2D2D2D2D2D2D2D2D2D2D2DA5
:100B80002D2D2D2D2D2D2D2D2D2D2D2D2D2D2D2D95
:100B90002D2D2D2D2D2D2D2D2D2D2D2D2D2D2D2D85
:100BA0002D2D2D2D2D2D2D2D2D0020627974657369
:100BB000290020202020202020202020202020204C
:100BC000202053746F7265642073657474696E6756
:100BD00073207265747269657665642028005D20F3
:100BE00053746F7265642076657273696F6E3A2014
:100BF0005B0056657273696F6E3A205B002D2D2D78
:100C00002D2D2D2D2D2D2D2D2D2D2D2D2D2D2D2D14
:100C10002D2D2D2D2D2D2D2D2D2D2D2D2D2D2D2D04
:100C20002D2D2D2D2D2D2D2D2D2D2D2D2D2D2D2DF4
:100C30002D2D2D2D2D2D2D2D2D2D2D2D2D2D2D2DE4
:100C40002D002D2D2D2D2D2D2D2D2D2D2D2D2D2D01
:100C50002D2D2D2D2D2D2D2D2D2D2D2D2D2D2D2DC4
:100C60002D2D2D2D2D2D2D2D2D2D2D2D2D2D2D2DB4
:100C70002D2D2D2D2D2D2D2D2D2D2D2D2D2D2D2DA4
:100C80002D2D2D2D2D2D002D2D2D2D2D2D2D2D2DC1
:100C90002D2D2D2D2D2D2D2D2D2D2D2D2D2D2D2D84
:100CA0002D2D2D2D2D2D2D2D2D2D2D2D2D2D2D2D74
:100CB0002D2D2D2D2D2D2D2D2D2D2D2D2D2D2D2D64
:100CC0002D2D2D2D2D2D2D2D2D2D2D0020450020B0
:100CD000204D323035205400204500205A00205845
:100CE0000020420020560020202020205300002019
:100CF00020202020202020285A3D6D6178696D75C4
:100D00006D205A206A65726B20286D6D2F73292C17
:100D10002020453D6D6178696D756D2045206A65BF
:100D2000726B20286D6D2F73292900202020202030
:100D30002028423D6D696E696D756D207365676D24
:100D4000656E742074696D6520286D73292C205898
:100D50003D6D6178696D756D205859206A65726BBB
:100D600020286D6D2F73292900202020202020208D
:100D700028533D4D696E2066656564726174652017
:100D8000286D6D2F73292C20563D4D696E2074728D
:100D90006176656C20666565647261746520286D96
:100DA0006D2F7329290020202020202020202020A2
:100DB0002020202020202020202020202020202033
:100DC0002020202020284D323035290020202020CE
:100DD0002020202020202020202020202020202013
:100DE0002020202020202020207C416476616E631A
:100DF00065647C002D2D2D2D2D2D2D2D2D2D2D2D92
:100E00002D2D2D2D2D2D2D2D2D2D2D2D2D2D2D2D12
:100E10002D2D2D2D2D2D2D2D2D2D2D2D2D2D2D2D02
:100E20002D2D2D2D2D2D2D2D2D2D2D2D2D2D2D2DF2
:100E30002D2D2D2D2D2D2D2D00202020202020206A
:100E400020202020202020202020202020202020A2
:100E5000436F6E66696775726174696F6E20416475
:100E600076616E636564002D2D2D2D2D2D2D2D2D7C
:100E70002D2D2D2D2D2D2D2D2D2D2D2D2D2D2D2DA2
:100E80002D2D2D2D2D2D2D2D2D2D2D2D2D2D2D2D92
:100E90002D2D2D2D2D2D2D2D2D2D2D2D2D2D2D2D82
:100EA0002D2D2D2D2D2D2D2D2D2D2D0020204D3294
:100EB000303020543120440020204D323030204446
:100EC0000046696C616D656E742073657474696E3B
:100ED00067733A0020440020490020500020202061
:100EE00020202020202020202020202020480020FA
:100EF00020202020202020202020202020202020F2
:100F00002020202020202020202020202020284DAC
:100F100033303129002020202020202020202020B4
:100F200020202020202020202020202020202020C1
:100F30007C5049442073657474696E67737C002D1E
:100F40002D2D2D2D2D2D2D2D2D2D2D2D2D2D2D2DD1
:100F50002D2D2D2D2D2D2D2D2D2D2D2D2D2D2D2DC1
:100F60002D2D2D2D2D2D2D2D2D2D2D2D2D2D2D2DB1
:100F70002D2D2D2D2D2D2D2D2D2D2D2D2D2D2D2DA1
:100F80002D2D2D002020202020202020202020205A
:100F900020202020202020202020202020436F6E91
:100FA00066696775726174696F6E20504944002DDF
:100FB0002D2D2D2D2D2D2D2D2D2D2D2D2D2D2D2D61
:100FC0002D2D2D2D2D2D2D2D2D2D2D2D2D2D2D2D51
:100FD0002D2D2D2D2D2D2D2D2D2D2D2D2D2D2D2D41
:100FE0002D2D2D2D2D2D2D2D2D2D2D2D2D2D2D2D31
:100FF0002D2D2D0020204D3636362050005A205001
:10100000726F6265206F666673657420286D6D2946
:101010003A00205A0020590020204732392053330B
:1010200020580020590020580020204D3432302014
:1010300053004D65736820626564206C6576656C4D
:10104000696E673A00205A0020590020580020207D
:101050002020202020202020202020202020202090
:10106000540020202020202020202020202020206C
:10107000202020202020202020207C486F74656EB6
:1010800064206F666673657420286D6D297C00206E
:101090002020202020202020202020202020202050
:1010A0002020202020202020202020202020284D0B
:1010B000323138290020202020202020202020200C
:1010C000202020202020202020202020207C486F4D
:1010D00074656E64206F666673657420286D6D2973
:1010E0007C0000205A0020590020202020202020B1
:1010F00020202020202020202020202058002020D8
:1011000020202020202020202020202020202020DF
:1011100020202020202020202020202020284D3288
:1011200030362900202020202020202020202020B0
:10113000202020202020202020202020207C486FDC
:101140006D65206F666673657420286D6D297C005F
:101150002D2D2D2D2D2D2D2D2D2D2D2D2D2D2D2DBF
:101160002D2D2D2D2D2D2D2D2D2D2D2D2D2D2D2DAF
:101170002D2D2D2D2D2D2D2D2D2D2D2D2D2D2D2D9F
:101180002D2D2D2D2D2D2D2D2D2D2D2D2D2D2D2D8F
:101190002D2D2D2D0020202020202020202020203B
:1011A00020202020202020202020202020436F6E7F
:1011B00066696775726174696F6E206F66667365C4
:1011C00074002D2D2D2D2D2D2D2D2D2D2D2D2D2D35
:1011D0002D2D2D2D2D2D2D2D2D2D2D2D2D2D2D2D3F
:1011E0002D2D2D2D2D2D2D2D2D2D2D2D2D2D2D2D2F
:1011F0002D2D2D2D2D2D2D2D2D2D2D2D2D2D2D2D1F
:101200002D2D2D2D2D2D002D2D2D2D2D2D2D2D2D3B
:101210002D2D2D2D2D2D2D2D2D2D2D2D2D2D2D2DFE
:101220002D2D2D2D2D2D2D2D2D2D2D2D2D2D2D2DEE
:101230002D2D2D2D2D2D2D2D2D2D2D2D2D2D2D2DDE
:101240002D2D2D2D2D2D2D2D2D2D2D00202020202F
:101250002020202020202020202020202053656EC8
:10126000736F722064652066696C616D656E746F62
:101270003A20002D2D2D2D2D2D2D2D2D2D2D2D2DCB
:101280002D2D2D2D2D2D2D2D2D2D2D2D2D2D2D2D8E
:101290002D2D2D2D2D2D2D2D2D2D2D2D2D2D2D2D7E
:1012A0002D2D2D2D2D2D2D2D2D2D2D2D2D2D2D2D6E
:1012B0002D2D2D2D2D2D2D002052002020202020E1
:1012C000202020202020202020202020202020201E
:1012D0002020202020540000205600202020202004
:1012E00020202020202020202020202020202020FE
:1012F0005000202020202020202020202020284DA9
:1013000032303420503D7072696E74696E672C20E3
:10131000563D74726176656C20616E6420542A209B
:10132000523D726574726163742900202020202070
:1013300020202020202020202020202020202020AD
:1013400020202020207C416363656C657261746994
:101350006F6E737C000020450020204D323031201C
:101360005400204500205A00205900202020202031
:10137000202020202020202020202020202020206D
:101380002058002020202020202020202020202045
:10139000202020202020202020202020202020204D
:1013A0002020284D323031290020202020202020EC
:1013B0002020202020202020202020207C4D61780B
:1013C000696D756D20416363656C65726174696FE9
:1013D0006E20286D6D2F7332297C0020450020205F
:1013E0004D32303320540000204500205A0020594F
:1013F00000202020202020202020202058002020F5
:1014000020202020202020202020202020202020DC
:1014100020202020202020202020202020284D3285
:1014200030332900202020202020202020202020B0
:101430002020202020202020207C4D6178696D759F
:101440006D2066656564726174657320286D6D2F0B
:1014500073297C000020450020204D3932205400A3
:10146000436F6E6669673A00204500205A00205994
:101470000020202020202020202020205800202074
:10148000202020202020202020202020202020205C
:1014900020202020202020202020202020284D39FE
:1014A0003229002020202020202020202020202041
:1014B000202020202020202020202020207C537449
:1014C0006570732070657220756E69747C002D2DB7
:1014D0002D2D2D2D2D2D2D2D2D2D2D2D2D2D2D2D3C
:1014E0002D2D2D2D2D2D2D2D2D2D2D2D2D2D2D2D2C
:1014F0002D2D2D2D2D2D2D2D2D2D2D2D2D2D2D2D1C
:101500002D2D2D2D2D2D2D2D2D2D2D2D2D2D2D2D0B
:101510002D2D0020202020202020202020202020D1
:101520002020202020202020202020202020436F49
:101530006E66696775726174696F6E002D2D2D2D51
:101540002D2D2D2D2D2D2D2D2D2D2D2D2D2D2D2DCB
:101550002D2D2D2D2D2D2D2D2D2D2D2D2D2D2D2DBB
:101560002D2D2D2D2D2D2D2D2D2D2D2D2D2D2D2DAB
:101570002D2D2D2D2D2D2D2D2D2D2D2D2D2D2D2D9B
:101580000053657269653A004D6F64656C6F3A206F
:101590000050616E74616C6C613A20002D2D2D2D10
:1015A0002D2D2D2D2D2D2D2D2D2D2D2D2D2D2D2D6B
:1015B0002D2D2D2D2D2D2D2D2D2D2D2D2D2D2D2D5B
:1015C0002D2D2D2D2D2D2D2D2D2D2D2D2D2D2D2D4B
:1015D0002D2D2D2D2D2D2D2D2D2D2D2D2D2D2D2D3B
:1015E00000636F6C6420657874727573696F6E2028
:1015F00070726576656E7465640000416C6775692C
:10160000656E2070756C736F20656C2073656E73EA
:101610006F722064652066696C616D656E746F3AE7
:1016200020004D3630300073652061637469766F39
:1016300020320050415241444120444520454D450F
:1016400052472E0050415241444120444520454DCF
:101650004552472E00706175736120706172612080
:10166000657370657261007061757361207061727D
:10167000612075736F0070726F636573616E646F64
:1016800000627573793A004572726F722074656DED
:1016900070005265696E69636965206D6171756975
:1016A0006E6100426F746F6E2070756C7361646F51
:1016B00020454D47004D756572746520646520694D
:1016C0006D707265736F72612E206B696C6C282966
:1016D0002063616C6C6564210029003C3C3C2073F4
:1016E00065745F617869735F69735F61745F686F68
:1016F0006D652800203A200A0063757272656E7469
:101700005F706F736974696F6E3D005D203D2000EE
:10171000686F6D655F6F66667365745B007A707283
:101720006F62655F7A6F6666736574203D200000A6
:10173000000000000000000000000029003E3E3EC6
:10174000207365745F617869735F69735F61745F4B
:10175000686F6D6528005761726E696E673A204840
:101760006F6D696E672042756D702044697669738C
:101770006F72203C20310029003C3C3C20686F6D9A
:10178000656178697328003E2000203A2041465464
:101790004552207365745F617869735F69735F6137
:1017A000745F686F6D650A0063757272656E745F51
:1017B000706F736974696F6E3D003E20326E6420F5
:1017C000486F6D6520003E2031737420486F6D6551
:1017D0002000000070430000A0430000CD433E20E5
:1017E00000FFFFFF29003E3E3E20686F6D65617877
:1017F0006973280020496E76616C6964206578748D
:101800007275646572004D00000070430000A043D3
:101810000000CD43000000000000000000000000B8
:10182000203A2073796E635F706C616E5F706F73C6
:101830006974696F6E0A0063757272656E745F70A9
:101840006F736974696F6E3D00203A20636C656147
:101850006E5F75705F61667465725F656E647374E8
:101860006F705F6F725F70726F62655F6D6F7665CC
:101870000A0063757272656E745F706F7369746964
:101880006F6E3D0029002C20002C200028003E3ED9
:101890003E20646F5F626C6F636B696E675F6D6F34
:1018A00076655F746F006465706C6F793A20002014
:1018B0003A207365745F70726F62655F6465706C07
:1018C0006F7965640A0063757272656E745F706F1C
:1018D000736974696F6E3D00203A203C3C3C206483
:1018E0006F5F70726F62655F6D6F76650A0063751A
:1018F0007272656E745F706F736974696F6E3D00AC
:10190000203A203E3E3E20646F5F70726F62655FDA
:101910006D6F76650A0063757272656E745F706FC5
:10192000736974696F6E3D002042403A0020403A6E
:1019300000202F0020423A00202F0020543A00209F
:101940003A2073657475705F666F725F656E64735D
:10195000746F705F6F725F70726F62655F6D6F76CC
:10196000650A0063757272656E745F706F73697477
:10197000696F6E3D002066697273740059005800EB
:10198000486F6D65200020666972737400590058B5
:1019900000486F6D6520003C3C3C2067636F6465C8
:1019A0005F47323800203A204D424C20486F6D6529
:1019B0002058206F7220590A0063757272656E7428
:1019C0005F706F736974696F6E3D00203A204D42FD
:1019D0004C2052657374204F726967696E0A006308
:1019E000757272656E745F706F736974696F6E3D46
:1019F000004D424C205A20686F6D696E67004D4261
:101A00004C20686173206D65736800203A20286857
:101A10006F6D655F616C6C5F61786973207C7C20A1
:101A2000686F6D655A29203E2066696E616C0A00F8
:101A300063757272656E745F706F736974696F6ECF
:101A40003D003C3C3C205A5F534146455F484F4D6A
:101A5000494E4700536F6E6461205A206675657267
:101A60006100536F6E6461205A2066756572610073
:101A7000203A205A5F534146455F484F4D494E47F3
:101A8000203E20686F6D655F616C6C5F6178697383
:101A90000A0064657374696E6174696F6E3D00203D
:101AA0003A205A5F534146455F484F4D494E4720C3
:101AB0003E20686F6D655F616C6C5F617869730A69
:101AC0000063757272656E745F706F736974696FAD
:101AD0006E3D003E205A5F534146455F484F4D4999
:101AE0004E47203E3E3E00203A20686F6D65590A01
:101AF0000063757272656E745F706F736974696F7D
:101B00006E3D00203A20686F6D65580A006375725B
:101B100072656E745F706F736974696F6E3D0052A9
:101B200061697365205A20286265666F7265206856
:101B30006F6D696E672920746F20003E20656E64AA
:101B400073746F70732E656E61626C652874727544
:101B5000652900203A20536574205A20746F207044
:101B600072655F686F6D655F7A0A00637572726592
:101B70006E745F706F736974696F6E3D004D424C97
:101B80002077617320616374697665003E3E3E2074
:101B900067636F64655F47323800473238004F66CD
:101BA000667365743A004D353030004D6F7665725E
:101BB000205A004D3432302053310A4D3530300038
:101BC0004731205A30004739310A473120583434E0
:101BD00020592D34312046333030300A4739300017
:101BE000506F72206661766F7220657370657265E2
:101BF000005265616C697A616E646F20486F6D6533
:101C00002E2E2E0047323800473238000056616CC5
:101C10006F722064656C207A3A00546172656120AD
:101C200030340043616C696272616E646F2E2E2ED7
:101C30000047373700546172656120303320766188
:101C40006C6F72206465207A002D2D2D2D2D2D2D89
:101C50002D2D2D2D2D2D2D2D2D2D2D2D2D2D2D2DB4
:101C60002D2D2D2D2D2D2D2D2D0070790070783AD4
:101C700020005461726561203033206D6F76696E8B
:101C80006700546172656120303200506F722066C7
:101C900061766F7220657370657265005265616C64
:101CA000697A616E646F20486F6D652E2E2E005428
:101CB0006172656120303000473238004D6F7665C3
:101CC00072205A004D353030004739310A473120F3
:101CD0005A2D35302046323030300A4732380A4DDE
:101CE00031313720456A65205A20416C696E656143
:101CF000646F004739310A4731205A31204632306B
:101D000030300A4739300043616C696272616E6439
:101D10006F2E2E2E00506F72206661766F722065D6
:101D200073706572650043616C696272616E646FA5
:101D30002E2E2E00506F72206661766F72206573B2
:101D400070657265004732380A4739310A473120D9
:101D50005A3430205834302046343030300A473935
:101D600030006C6F73206D6F746F726573207669CD
:101D700062726172616E006C6120706172746520C4
:101D80007375706572696F6E0076612020612063E3
:101D90006F6C6973696F6E617220636F6E0041646E
:101DA00076657274656E63696120656C20456A654D
:101DB000205A001FFFFFF03FFFFFF87FFFFFFCFFEF
:101DC000FFFFFEFE7FFFFEFE7FC0FEF99FDEFEF9F5
:101DD0009FD2FEFE7FDAFEFE63D2FEFFC3DAFEFF75
:101DE000CFD2FEFFCFDAFEFFCFD2FEFFC3DAFEFF77
:101DF000E3927EFFFF333EFFFE619EFFFEC0DEFFEB
:101E0000FE805EFFFEC0DEFFFE619EFFFF333EFFF1
:101E1000FF9E7EFFFFC0FEFFFFFFFEFFFFFFFE7F76
:101E2000FFFFFC3FFFFFF81FFFFFF01FFFFFF03039
:101E30000000186000000CC00000068180000281D4
:101E4000803F028660210286602D0281802502810A
:101E50009C2D02803C250280302D0280302502809E
:101E6000302D02803C2502801C6D828000CCC28017
:101E7000019E6280013F2280017FA280013F22807B
:101E8000019E628000CCC28000618280003F02809F
:101E9000000002C00000066000000C300000181FA7
:101EA000FFFFF01FFFFFF03FFFFFF87FFFFFFCFF8A
:101EB000FFFFFEFFFFFFFEF8E3C0FEF843DEFEF883
:101EC00003D2FEFC47DAFEFEEFD2FEFC47DAFEF854
:101ED00003D2FEF843DAFEF8E3D2FEFFFFDAFEFF9C
:101EE000FF927EFFFF333EFFFE619EFFFEC0DEFFDE
:101EF000FE805EFFFEC0DEFFFE619EFFFF333EFF01
:101F0000FF9E7EFFFFC0FEFFFFFFFEFFFFFFFE7F85
:101F1000FFFFFC3FFFFFF81FFFFFF01FFFFFF03048
:101F20000000186000000CC000000680000002875E
:101F30001C3F0287BC210287FC2D0283B825028149
:101F4000102D0283B8250287FC2D0287BC2502874D
:101F50001C2D028000250280006D828000CCC28092
:101F6000019E6280013F2280017FA280013F22808A
:101F7000019E628000CCC28000618280003F0280AE
:101F8000000002C00000066000000C300000181FB6
:101F9000FFFFF054656D7065726174757261004D7C
:101FA0006F7665722059004D6F766572205A004D2C
:101FB0006F7665722058003FFFF87FFFFCFFFFFE41
:101FC000FFFFFEFFFFFEFE00FEFE00FEFE7FFEFEA8
:101FD0007FFEFE7FFEFE3FFEFF01FEFF80FEFFF85C
:101FE000FEFFFCFEFFF8FEFE01FEFE03FEFFFFFE0D
:101FF000FFFFFEFFFFFE7FFFFC3FFFF83FFFF860A3
:10200000000CC0000680000280000281FF0281FFF8
:102010000281800281800281800281C00280FE02F2
:10202000807F0280070280030280070281FE028116
:10203000FC02800002800002C0000660000C3FFF2E
:10204000F83FFFF87FFFFCFFFFFEFFFFFEFFFFFEF4
:10205000FFC7FEFF87FEFF07FEFE27FEFE67FEFFAF
:10206000E7FEFFE7FEFFE7FEFFE7FEFFE7FEFFE715
:10207000FEFF81FEFF81FEFFFFFEFFFFFEFFFFFE72
:102080007FFFFC3FFFF83FFFF860000CC0000680B8
:10209000000280000280380280780280F80281D835
:1020A00002819802801802801802801802801802AB
:1020B000801802801802807E02807E0280000280EA
:1020C0000002C0000660000C3FFFF83FFFF87FFFF2
:1020D000FCFFFFFEFFFFFEFFFFFEF87E3EF03C3EF2
:1020E000E3183EE7913EE7933EE79F3EE79F3EE7DA
:1020F0009F3EE79F3EE79F3EE31F3EF03C0EF86C9D
:102100000EFFFFFEFFFFFEFFFFFE7FFFFC3FFFF81D
:102110003FFFF860000CC0000680000280000287CC
:1021200081C28FC3C29CE7C2986EC2986CC298608D
:10213000C29860C29860C29860C29860C29CE0C2B7
:102140008FC3F28793F2800002800002C000066015
:10215000000C3FFFF84D6F76657220456A6573008D
:102160004D6F76657220456A6573004732380047C7
:102170003238205800473238205900486F6D6520AA
:1021800028456A652058292028456A652059290074
:102190005072696D65726F205265616C697A617207
:1021A00000416476657274656E6369610044652000
:1021B0005A6F6E61204465204D65646963696F6E76
:1021C00000536F6E6461205A20467565726100414C
:1021D0006476657274656E63696100473238205AAF
:1021E000003FFFF87FFFFCFFFFFEFFFFFEF8003E11
:1021F000F8003EFFFE3EFFFC7EFFF8FEFFF1FEFF13
:10220000E3FEFFC7FEFF8FFEFF1FFEFE3FFEFC7FCB
:10221000FEF8FFFEF8003EF8003EFFFFFEFFFFFE67
:102220007FFFFC3FFFF83FFFF860000CC000068016
:10223000000287FFC287FFC28001C280038280073D
:1022400002800E02801C0280380280700280E00250
:1022500081C00283800287000287FFC287FFC2809D
:102260000002C0000660000C3FFFF83FFFF87FFF50
:10227000FCFFFFFEFFFFFEF9FF3EF9FF3EF8FE3ECA
:10228000F8FE3EFC7C7EFE38FEFF11FEFF83FEFF63
:10229000C7FEFFC7FEFFC7FEFFC7FEFFC7FEFFC7A3
:1022A000FEFFC7FEFFFFFEFFFFFE7FFFFC3FFFF8C4
:1022B0003FFFF860000CC000068000028600C28666
:1022C00000C28701C28701C283838281C70280EE78
:1022D00002807C0280380280380280380280380216
:1022E000803802803802803802800002C000066018
:1022F000000C3FFFF83FFFF87FFFFCFFFFFEFFFFF2
:10230000FEF0FE1EF87C3EFC7C7EFC387EFE10FE5D
:10231000FF01FEFF83FEFFC7FEFF83FEFF01FEFEFF
:1023200010FEFE38FEFC7C7EF87C3EF0FE1EFFFFB9
:10233000FEFFFFFE7FFFFC3FFFF83FFFF860000C51
:10234000C000068000028F01E28783C283838283FC
:10235000C78281EF0280FE02807C02803802807C8E
:102360000280FE0281EF0281C7028383828783C2DB
:102370008F01E2800002C0000660000C3FFFF84CB5
:102380006C6576617220416C204F726967656E20C2
:10239000456A653A001FFFFFF03FFFFFF87FFFFF30
:1023A000FCFFFFFFFEFFF01FFEFFE7CC7EFFC8250E
:1023B0007EFF93917EFF27C97EFE4FE47EFC9FF255
:1023C0007EF93FF93EF27FFC9EF4FFFE5EF0FFFED9
:1023D0001EFEFFFEFEFEFFFEFEFEF81EFEFEFBDE04
:1023E000FEFEFBDEFEFEFBDEFEFEFBDEFEFEFBDE99
:1023F000FEFEFBDEFEFEFBDEFEFE0000FEFFFFFF3C
:10240000FE7FFFFFFC3FFFFFF81FFFFFF01FFFFFF6
:10241000F0300000186000000CC0000006800FE0E3
:1024200002801833828037DA82806C6E8280D836E0
:102430008281B01B8283600D8286C006C28D8003BC
:10244000628B0001A28F0001E28100010281000184
:10245000028107E102810421028104210281042119
:1024600002810421028104210281042102810421CC
:102470000281FFFF02C00000066000000C30000077
:10248000181FFFFFF01FFFFFF03FFFFFF87FFFFF68
:10249000FCFFFFFFFEFFFEFFFEFFFC7FFEFFF83F9D
:1024A000FEFFF01FFEFFFC7FFEFFFC7FFEFFFC7FB8
:1024B000FEFFFC7FFEFEFFFEFEFCFFFE7EF80FE04F
:1024C0003EF00FE01EF80FE03EFCFFFE7EFEFFFE3A
:1024D000FEFFFC7FFEFFFC7FFEFFFC7FFEFFFC7F1C
:1024E000FEFFF01FFEFFF83FFEFFFC7FFEFFFEFF3A
:1024F000FE7FFFFFFC3FFFFFF81FFFFFF01FFFFF06
:10250000F0300000186000000CC0000006800100E0
:1025100002800380028007C002800FE002800380F7
:102520000280038002800380028003800281000118
:10253000028300018287F01FC28FF01FE287F01F25
:10254000C283000182810001028003800280038037
:10255000028003800280038002800FE0028007C0B7
:102560000280038002C00100066000000C30000001
:10257000181FFFFFF04D6F76657220456A65730086
:102580002D2D536567756E646F732D2D0050756525
:1025900064652054617264617220556E6F730050DF
:1025A000617573616E646F20496D70726573696FD8
:1025B0006E004D3235002D2D536567756E646F7357
:1025C0002D2D005075656465205461726461722020
:1025D000556E6F730043616E63656C616E646F204E
:1025E000496D70726573696F6E004D3131370A4DF8
:1025F00038340A4D31313720496D70726573696F17
:102600006E2043616E63656C616461004D363030ED
:1026100000494E4455535452494120415247454E7A
:1026200054494E410053657269653A00504B332B53
:1026300045005620342E302E3700204D6F64656CD7
:102640006F3A0056657273696F6E3A001C3800006D
:102650000000000000001C7117DF7DE39E11F7C031
:102660001CE111044114512901001DF91104411408
:10267000114501001FC1110479E41E45E1001DF957
:1026800011044144147D01001CE111044124524510
:1026900001001C70E1047F13914501001C3800000B
:1026A0000000000000001C1DFFFFFFFFFFFFFFF008
:1026B000000000000000000000007FFFFFFFFFFFA0
:1026C000FFFFFFC04D6F766572205A006B75747402
:1026D000657263726166742E636F6D2F626C6F67D3
:1026E000004D6178696D6F206F204D696E696D6F67
:1026F0000050726F74656363696F6E205465726D0C
:1027000069636100416476657274656E6369612016
:1027100054312043616D61006B757474657263722E
:102720006166742E636F6D2F626C6F67004D617808
:10273000696D6F206F204D696E696D6F0050726F0B
:1027400074656363696F6E205465726D69636100BF
:10275000416476657274656E636961205430204807
:102760006F74656E64006B75747465726372616614
:10277000742E636F6D2F626C6F67005661726961B2
:1027800063696F6E20646574656374616461005091
:10279000726F74656363696F6E205465726D6963EF
:1027A0006100416476657274656E636961205430BE
:1027B00020486F74656E64006B7574746572637223
:1027C0006166742E636F6D2F626C6F67004E6F20B1
:1027D0006861792043616C656E74616D69656E74C2
:1027E0006F0050726F74656363696F6E2054657219
:1027F0006D69636100416476657274656E636961D9
:1028000020543020486F74656E6400566F6C766596
:1028100072004D6170612044652043616D61004D1F
:102820006F64696669636172204F666673657400E0
:10283000416A75737465732064652063616D61001E
:10284000566F6C7665720050726564657465726D62
:10285000696E61646F004D31313720456E66726973
:10286000616E646F004D38340A204D313137204D90
:102870006F746F72204170616761646F0056656CA0
:102880006F6369646164006C612076656C6F636975
:102890006461640053656C656363696F6E650046CF
:1028A0006C756A6F00466C756A6F0053656C656382
:1028B00063696F6E650076616C6F7220696E696323
:1028C00069616C00426F7175696C6C61006C6120AC
:1028D00074656D70657261747572610053656C65C5
:1028E0006363696F6E650043616D612063616C694C
:1028F000656E7465006C612074656D7065726174DD
:102900007572610053656C656363696F6E65004D38
:10291000333133004D3131370046616E206465201C
:1029200063617061006C612076656C6F63696461DE
:10293000640053656C656363696F6E65003FFFF803
:102940007FFFFCFFFFFEFFFFFEF770FEFAEF7EFD4C
:10295000E97EFAED7EF7697EFFED7EFFE97EFFED11
:102960007EFFE97EFFD9BEFFB0DEFFA05EFFB0DED6
:10297000FFDFBEFFE07EFFFFFEFFFFFE7FFFFC3FAD
:10298000FFF83FFFF860000CC00006800002888F4F
:102990000285108282168285128288968280128237
:1029A000801682801282801682802642804F22808A
:1029B0005FA2804F22802042801F82800002C000E0
:1029C0000660000C3FFFF83FFFF87FFFFCFFFFFEB3
:1029D000FFBBFEFE38FEFC387EF8383EF0381EF0B5
:1029E0007C1EE0C60EFF83FEFF83FEFF83FEE0C673
:1029F0000EF07C1EF0381EF8383EFC387EFE38FEA5
:102A0000FFBBFEFFFFFE7FFFFC3FFFF83FFFF860CC
:102A1000000CC0000680440281C70283C78287C7BA
:102A2000C28FC7E28F83E29F39F2807C02807C02F2
:102A3000807C029F39F28F83E28FC7E287C7C2830F
:102A4000C78281C702804402C0000660000C3FFFBD
:102A5000F83FFFF87FFFFCFFFFFEFFFFFEFFFFFEDA
:102A6000FFFFFEFFFFFEFDEF7EFEF7BEFEF7BEFDA1
:102A7000EF7EFBDEFEF7BDFEF7BDFEFBDEFEFDEFEB
:102A80007EFFFFFEF0001EF0001EFFFFFEFFFFFEB8
:102A90007FFFFC3FFFF83FFFF860000CC00006809E
:102AA0000002800002800002800002821082810801
:102AB00042810842821082842102884202884202B6
:102AC0008421028210828000028FFFE28FFFE28069
:102AD0000002C0000660000C3FFFF854656D706591
:102AE0007261747572610043656E74696D657472AC
:102AF0006F733A004D6574726F733A004B696C6F77
:102B00006D6574726F733A0046696C616D656E74C1
:102B10006F20557361646F004D696E75746F733A01
:102B200000486F7261733A00446961733A005469F6
:102B3000656D706F20456E636564696461004D6901
:102B40006E75746F733A00486F7261733A0044692E
:102B500061733A005469656D706F20646520696D1A
:102B600070726573696F6E00496E636F6D706C652E
:102B70007461733A005465726D696E616461733A91
:102B80000020546F74616C3A00496D70726573690E
:102B90006F6E6573002000430050005300460045EF
:102BA000005A00590058002E0053616C69720042AF
:102BB0006F7272617200456E766961720045737062
:102BC0006163696F00430050005300460045005A9E
:102BD00000590058002E00496E67726573652043E6
:102BE0006F6469676F00436F6D616E646F3A004D8B
:102BF00000470053616C6972004D004700496E67E1
:102C00007265736520436F6469676F00436F6D6120
:102C10006E646F3A0045737461646F206465204C84
:102C20006F73204361626C657300436F72726561FC
:102C30007320475432004C75627269636163696F37
:102C40006E00426F7175696C6C612079204261720F
:102C500072656C00417669736F204D616E74656EAC
:102C6000696D69656E746F00526563756572646540
:102C70002052657669736172002000E07001C0F82F
:102C800003807803843C038C0E07FC070EF8039D39
:102C9000F0017B8000F70000EE0001DC0003BB00C8
:102CA0000777803EEFC07DCFE0FF87F0C703F8874E
:102CB00001FC0700FC0E007C1C0038313525204546
:102CC0006E204D617175696E617300494E49540003
:102CD00032302520456E2052657370756573746FB0
:102CE0007300465552540031302520456E204D6109
:102CF0007175696E617300484E575000323025205F
:102D0000456E2052657370756573746F73004F550F
:102D1000454C0032302520456E2052657370756534
:102D200073746F73004D4952410033312E342520A6
:102D3000456E20426F7175696C6C6173004C4F4732
:102D40004F0031352520456E2052657370756573CF
:102D5000746F7300484F484F0031352520456E2071
:102D600046696C616D656E746F004255554800315F
:102D7000322520456E2052657370756573746F73CC
:102D800000434144540031322520456E2046696C91
:102D9000616D656E746F00545854530031302520B6
:102DA000456E2052657370756573746F730052467B
:102DB00046460031302520456E2046696C616D65C0
:102DC0006E746F00415652470033302520456E2007
:102DD0004E756573747261205469656E6461004458
:102DE000494F530032352520456E204E756573746A
:102DF0007261205469656E646100494F5358003216
:102E0000352520456E204E756573747261205469B6
:102E1000656E646100585058530032352520456E68
:102E2000204E756573747261205469656E6461002B
:102E3000584458440032302520456E204D6171754C
:102E4000696E617300415557570032302520456E39
:102E5000204E756573747261205469656E646100FB
:102E600041554C410032302520456E204E7565732A
:102E7000747261205469656E646100414148480084
:102E800032302520456E204E756573747261205472
:102E900069656E6461004341504F0031352520451E
:102EA0006E204D617175696E617300434F504F0024
:102EB00032302520456E204E756573747261205442
:102EC00069656E646100464F524F003135252045DB
:102ED0006E204E756573747261205469656E64610D
:102EE000004641524F0031352520456E204D61711D
:102EF00075696E6173004445414C003135252045AC
:102F00006E204E756573747261205469656E6461DC
:102F1000004441544F003530252053657276696373
:102F2000696F205465636E69636F004441544100CA
:102F300031302520456E204E7565737472612054C2
:102F400069656E6461004449414C00313525204576
:102F50006E20496E73756D6F7300434F534100319E
:102F6000302520456E204E7565737472612054695A
:102F7000656E646100424F4C4F0032352520456E2E
:102F8000204772696C6F4E3300424F4F4D00203521
:102F90002520456E204D617175696E617300415049
:102FA000455800556E20456E76696F2047726174F2
:102FB00069732121210042534153003130252045BE
:102FC0006E2046696C616D656E746F0045444241C8
:102FD0000031352520456E20526573707565737418
:102FE0006F7300415753440031302520456E204611
:102FF000696C616D656E746F00544553540044658F
:10300000736375656E746F3A200056657220436F66
:103010006E646963696F6E657320456E3A006B7507
:103020007474657263726166742E636F6D2F707253
:103030006F6D6F004465736375656E746F004375E3
:10304000706F6E20446500FC0004000200E1809077
:103050008088808880A880A8808880A880A88088B0
:1030600080A880A8808880A880A8808880888088A0
:10307000809080E18002000400FC001F801000208E
:1030800000C38086808C8088808A808A8088808A3D
:10309000808A8088808A808A8088808A808A8088E6
:1030A0008088808C808680C380200010001F800173
:1030B000050800FF060121023520FFFF07FF06FF7C
:1030C000090050221656808080800080153353A05E
:1030D000A0A00257575050F850F8505002575720B0
:1030E00070A07028702013355580A040A0200247A2
:1030F0005740A0A040A0A0502513538080801226E6
:10310000564080808080401226568040404040805B
:103110000245559060F060900255552020F820201F
:10312000113353604080044151F011335340E0406B
:1031300002465610102040808012365640A0A0A0B3
:10314000A04012365640C0404040E00246566090D3
:10315000106080F0024656F02060109060024656E3
:103160002060A0F02020024656F080E0109060021F
:1031700046566080E0909060024656F01020204055
:103180004002465660906090906002465660909073
:10319000701060122555C0C000C0C0113656606066
:1031A0000060408012365620408080402003435308
:1031B000F000F012365680402020408012365640F3
:1031C000A020400040015858304898A8A8904030AE
:1031D000024656609090F09090024656E090E09043
:1031E00090E0024656609080809060024656E090E3
:1031F000909090E0024656F080E08080F0024656C3
:10320000F080E0808080024656609080B09060023E
:1032100046569090F0909090123656E040404040D4
:10322000E002465670202020A04002465690A0C0E2
:10323000A0A0900246568080808080F00246569082
:10324000F0F090909002465690D0F0B0B0900246C8
:1032500056609090909060024656E09090E080809A
:10326000014757609090D0B06010024656E09090B1
:10327000E09090024656609040209060123656E0F2
:1032800040404040400246569090909090600246E8
:1032900056909090906060024656909090F0F0901A
:1032A0000246569090606090900256568888502052
:1032B0002020024656F010204080F0123656E08062
:1032C000808080E0024656808040201010123656E2
:1032D000E020202020E016325240A0014151F0169B
:1032E0002252804002445470909070024656808072
:1032F000E09090E0123454608080600246561010D6
:103300007090907002445460B0C0600246562050E5
:1033100040E0404001455560907010600246568084
:1033200080E09090901236564000C04040E0113747
:10333000572000202020A040024656808090E09038
:1033400090123656C040404040E0025454D0A8A8E5
:10335000A8024454E0909090024454609090600120
:103360004555E090E0808001455570907010100246
:103370004454A0D0808012345460C020C00246560D
:103380004040E040502002445490909070123454D9
:10339000A0A0A04002545488A8A8500244549060B1
:1033A00060900145559090709060024454F0204028
:1033B000F0024757304020C020403022165680800F
:1033C00080808080024757C02040304020C00642A5
:1033D0005250A0FFFFFFFFFFFFFFFFFFFFFFFFFFB8
:1033E000FFFFFFFFFFFFFFFFFFFFFFFFFFFFFFFFED
:1033F000FFFFFFFF0900502216568000808080806A
:103400000146562070A0A070200246562050E04091
:1034100050A002555588705070880256568850F852
:1034200020F8202217578080800080808002475734
:103430007080E0907010E0173151A002565670A8CD
:10344000C8C8A87014355560A06000E0034353500D
:10345000A050123353E02020143151E00256567030
:10346000E8D8E8D870173151E015335340A0401226
:10347000355540E04000E014355540A02040E014B0
:103480003555C020C020C0162252408001455590BD
:103490009090E08002565678E8E868282824115178
:1034A00080112252408014355540C04040E0143510
:1034B0005540A04000E0034353A050A0024757806E
:1034C0008080A060F0200247578080A0D01020703C
:1034D00002475780408060A0F020123656400040DE
:1034E00080A04002475740206090F09090024757DC
:1034F00020406090F0909002475760906090F0906C
:103500009002475750A06090F0909002475790006B
:103510006090F0909002475760906090F090900219
:10352000465670A0A0F0A0B00147576090808090F0
:1035300060400247574020F080E080F0024757206B
:1035400040F080E080F00247576090F080E080F02B
:103550000247579000F080E080F01237578040E03B
:10356000404040E01237572040E0404040E01237F2
:103570005740A0E0404040E0123757A000E04040F4
:1035800040E00256567048E848487002475750A03D
:1035900090D0B09090024757402060909090600289
:1035A000475720406090909060024757609060902D
:1035B00090906002475750A06090909060024757EB
:1035C00090006090909060123353A040A002465645
:1035D00070B0B0D0D0E002475740209090909060FB
:1035E000024757204090909090600247576090901B
:1035F0009090906002475790009090909060025792
:10360000571020885020202002465680E09090E0FD
:10361000800246566090A0A090A00247574020002C
:103620007090907002475720400070909070024751
:10363000572050007090907002475750A000709033
:1036400090700246565000709090700247576090FC
:103650006070909070025454F068B07811355560E5
:103660008080604002475740200060B0C060024741
:103670005720400060B0C06002475760900060B0C3
:10368000C060024656500060B0C06012375780409C
:1036900000C04040E0123757204000C04040E012D8
:1036A000375740A000C04040E0123656A000C0404E
:1036B00040E0024757A040A010709060024757506A
:1036C000A000E090909002475740200060909060EA
:1036D000024757204000609090600247576090007A
:1036E0006090906002475750A00060909060024642
:1036F000569000609090601235554000E000400206
:10370000445470B0D0E00247574020009090907031
:1037100002475720400090909070024757609000F9
:10372000909090700246569000909090700148588A
:1037300020400090907090600147578080E090E0BA
:10374000808001475790009090709060506F722079
:103750006661766F722065737065726500473931F6
:103760000A47312045313520463135300A47393056
:103770000A4739310A473120452D31303020463350
:1037800030300A4739300A4D3834004739310A475A
:1037900031204531303020463135300A4739300A42
:1037A0004D3834004739310A4731205A31302046EC
:1037B000333530300A47393000416A7573746520FB
:1037C00064652046696C616D656E746F0043616C61
:1037D00063756C616E646F2E2E2E00507565646586
:1037E0002074617264617220756E6F73206D696EF2
:1037F00075746F7300416A757374616E646F2050E5
:1038000049440043616C656E74616E646F2E2E2EA8
:1038100000506F72206661766F72206573706572FA
:1038200065003FFFF87FFFFCFFFFFEFFFFFEFFFF8D
:10383000FEFFFFFEFFFFFEFFFFFEE6DE6EE6DE6E32
:10384000EADEAEEADEAEEADEAEECDECEECC2CEFF03
:10385000FFFEFFFFFEFFFFFEFFFFFEFFFFFEFFFF7D
:10386000FE7FFFFC3FFFF83FFFF860000CC0000642
:103870008000028000028000028000028000029925
:10388000219299219295215295215295215293216D
:1038900032933D32800002800002800002800002EC
:1038A000800002C0000660000C3FFFF83FFFF87F79
:1038B000FFFCFFFFFEFFFFFEFFFFFEFFFFFEFFFF1F
:1038C000FEFFFFFEC2F176DEF776DEF7AEC6F1DE72
:1038D000DEF7AEDEF776DE1176FFFFFEFFFFFEFFBE
:1038E000FFFEFFFFFEFFFFFEFFFFFE7FFFFC3FFF2F
:1038F000F83FFFF860000CC0000680000280000264
:10390000800002800002800002BD0E8AA1088AA108
:103910000852B90E22A10852A1088AA1EE8A80009D
:1039200002800002800002800002800002C00006C7
:1039300060000C3FFFF83FFFF87FFFFCFFFFFEFF3A
:10394000FFFEFFFFFEFFFFFEFFFFFEFFFFFEF38F08
:103950001EEDB6FEEDB6FEE18F3EEDB7DEEDB7DE55
:10396000ED8E3EFFFFFEFFFFFEFFFFFEFFFFFEFFAF
:10397000FFFEFFFFFE7FFFFC3FFFF83FFFF8600008
:103980000CC000068000028000028000028000025D
:103990008000028C70E29249029249029E70C292AB
:1039A00048229248229271C2800002800002800068
:1039B00002800002800002C0000660000C3FFFF899
:1039C0003FFFF87FFFFCFFFFFEFFFFFEFFFFFEFF54
:1039D000FFFEFFFFFEFFFFFEE3BF3EEDBEDEEDBEDE
:1039E000DEE3BE1EEFBEDEEFBEDEEF86DEFFFFFED5
:1039F000FFFFFEFFFFFEFFFFFEFFFFFEFFFFFE7F5C
:103A0000FFFC3FFFF83FFFF860000CC0000680009D
:103A1000028000028000028000028000029C40C2FE
:103A20009241229241229C41E29041229041229077
:103A30007922800002800002800002800002800063
:103A400002C0000660000C3FFFF8507265646574A8
:103A500065726D696E61646F004578747275736F1D
:103A6000723A006C612074656D7065726174757274
:103A7000610053656C656363696F6E650047312053
:103A80005A313520463430300A473238205A0A47F6
:103A900031205A30004731205A31300A4732380A33
:103AA0004D383400506F736963696F6E2034206441
:103AB000652034004731205A31300A4731205831CF
:103AC0003730205934302046323030300A473238CF
:103AD000205A0A4731205A3000506F736963696F6A
:103AE0006E20332064652034004731205A31300A7B
:103AF000473120583430205932353020463230306A
:103B0000300A473238205A0A4731205A30001FFF06
:103B1000FFF03FFFFFF87FFFFFFCFFFFFFFEFFF816
:103B20003FFEFFE00FFEFF8003FEF70381FEF20F72
:103B3000E0FEF01FF07EF03FF87EF07FFC3EF03FAD
:103B4000FE3EF01FFE1EFFFFFF1EFFFFFF1EFFFFDA
:103B5000FF1EFFFFFE1EFFFFFE3EFFFFFC3EFFFFBE
:103B6000F87EFF9FF07EFF0FE0FEFF0381FEFF80E7
:103B700003FEFFE00FFEFFF83FFE7FFFFFFC3FFF6D
:103B8000FFF81FFFFFF01FFFFFF03000001860007C
:103B9000000CC00000068007C002801FF002807F7A
:103BA000FC0288FC7E028DF01F028FE00F828FC026
:103BB00007828F8003C28FC001C28FE001E28000C4
:103BC00000E2800000E2800000E2800001E280006C
:103BD00001C2800003C28000078280600F8280F0F3
:103BE0001F0280FC7E02807FFC02801FF002C00763
:103BF000C0066000000C300000181FFFFFF0506F7F
:103C0000736963696F6E2032206465203400473128
:103C1000205A31300A473120583137302059323557
:103C2000302046323030300A473238205A0A473185
:103C3000205A3000506F736963696F6E20312064C1
:103C4000652034004731205A31300A47312058343A
:103C500030205934302046323030300A4732382054
:103C60005A0A4731205A3000FFFFFFFFFFFFFFFFD6
:103C7000FFFFFFFFE08000000000000000000000E8
:103C80000020B1C71C71C71C71C71C71C71C20A3C1
:103C90008E38E38E38E38E38E38E38A0871C71C7E8
:103CA0001C71C71C71C71C71A080000000000000BF
:103CB000000000000020FFFFFFFFFFFFFFFFFFFFEE
:103CC000FFFFE0FFFFFFFFFFFFFFFFFFFFFFFFE042
:103CD000800000000000000000000000208E38E39B
:103CE0008E38E38E38E38E38E3A09C71C71C71C711
:103CF0001C71C71C71C720B8E38E38E38E38E38E81
:103D000038E38E208000000000000000000000006A
:103D100020FFFFFFFFFFFFFFFFFFFFFFFFE0506FF0
:103D200072206661766F72206573706572650047F8
:103D3000323800436F6E74696E7561720001060A55
:103D400000FE070136026820FFFE08FE07FE0A009B
:103D50006022176780808080800080163363A0A077
:103D6000A00257675050F850F85050025767207023
:103D7000A07028702002576748A8502050A89002D1
:103D8000576740A0A040A8906826136380808012E7
:103D90003767204080808040201237678040202095
:103DA0002040800355658850F850880355652020D1
:103DB000F82020113363604080055161F8113363AE
:103DC00040E0400257670808102040808002576793
:103DD000205088888850200257672060A02020202B
:103DE000F8025767708808304080F8025767F80873
:103DF000103008887002576710305090F810100289
:103E00005767F880B0C8088870025767304080B0A4
:103E1000C88870025767F8081010204040025767A2
:103E20007088887088887002576770889868081052
:103E30006011376740E0400040E04011376740E0E4
:103E400040006040801247671020408040201004EE
:103E50005363F800F812476780402010204080022A
:103E6000576770881020200020025767708898A834
:103E7000B0807002576720508888F888880257679A
:103E8000F04848704848F002576770888080808802
:103E900070025767F04848484848F0025767F88072
:103EA00080F08080F8025767F88080F08080800280
:103EB000576770888080988870025767888888F86C
:103EC000888888123767E04040404040E0025767EA
:103ED000381010101090600257678890A0C0A09012
:103EE00088025767808080808080F80257678888C2
:103EF000D8A88888880257678888C8A898888802C0
:103F0000576770888888888870025767F08888F0BB
:103F10008080800158687088888888A87008025757
:103F200067F08888F0A090880257677088807008D2
:103F30008870025767F820202020202002576788C9
:103F400088888888887002576788888850505020F1
:103F5000025767888888A8A8D88802576788885039
:103F600020508888025767888850202020200257D8
:103F700067F80810204080F8123767E08080808062
:103F800080E002576780804020100808123767E001
:103F90002020202020E0065363205088015161F842
:103FA0002822628040025565700878887802576739
:103FB0008080B0C888C8B00255657088808870025B
:103FC0005767080868988898680255657088F8806F
:103FD00070025767304840F040404000576778888B
:103FE00088780888700257678080B0C888888812EF
:103FF00037674000C0404040E01049691000301071
:10400000101090906002576780808890E09088122E
:104010003767C04040404040E0025565D0A8A8A89E
:1040200088025565B0C88888880255657088888878
:1040300070005767B0C888C8B0808000576768981C
:104040008898680808025565B0C880808002556568
:1040500070807008F00257674040F04040483002DE
:104060005565888888986802556588885050200270
:1040700055658888A8A8500255658850205088004A
:10408000576788889868088870025565F81020403E
:10409000F8124767304020C02040302217678080E8
:1040A0008080808080124767C02040304020C0065A
:1040B000536348A890FFFFFFFFFFFFFFFFFFFFFFD5
:1040C000FFFFFFFFFFFFFFFFFFFFFFFFFFFFFFFF00
:1040D000FFFFFFFFFFFF0A0060221767800080805C
:1040E0008080800157672078A0A0A07820025767C1
:1040F000304840E04048B0025565887050708801F3
:10410000586888885020F8202020221767808080F7
:10411000008080800158687080E0904838087019ED
:104120003161A00257677088A8C8A88870134666D6
:104130007090B05000F00265652448904824144205
:1041400062F010154161F00257677088E8C8C888AE
:1041500070095161F816336340A040025666202072
:10416000F82020F815456560902040F0154565E081
:10417000106010E02822624080015666888888C856
:10418000B08002576778E8E8682828282511618000
:10419000202262408015356540C04040E0134666ED
:1041A0006090906000F00265659048244890016935
:1041B0006940C04040E40C143C0401696940C040BF
:1041C00040E81404081C015969C0204020C8182880
:1041D0007808025767200020204088700258684005
:1041E00020708888F888880258681020708888F8BD
:1041F00088880258682050708888F8888802586833
:1042000048B0708888F8888802586850007088889C
:10421000F888880258682050708888F88888026773
:10422000673C50909CF0909C005969708880808019
:104230008870204002586840F88080F08080F80242
:10424000586810F88080F08080F802586820F88064
:1042500080F08080F802586850F88080F08080F804
:104260001238688040E040404040E012386820400A
:10427000E040404040E012386840A0E0404040400C
:10428000E0123868A000E040404040E0025767F08C
:104290004848E84848F0025868285088C8A89888D4
:1042A0008802586840207088888888700258681092
:1042B00020708888888870025868205070888888A4
:1042C00088700258682850708888888870025868FA
:1042D0005000708888888870025565885020508802
:1042E000025767709898A8C8C8700258684020881C
:1042F0008888888870025868102088888888887024
:1043000002586820500088888888700258685000D9
:1043100088888888887002586810208888502020F3
:104320002002576780F088F080808002576770888D
:1043300090A09088B0025868402000700878887873
:104340000258681020007008788878025868205059
:1043500000700878887802586828500070087888BB
:1043600078025767500070087888780258682050A3
:1043700020700878887802656578147C907C0057F6
:1043800067708880887020400258684020007088DC
:10439000F880700258681020007088F88070025809
:1043A000682050007088F88070025767500070884D
:1043B000F88070123868804000C0404040E01238F9
:1043C00068408000C0404040E012386840A000C013
:1043D000404040E0123767A000C0404040E0025734
:1043E00067C0307088888870025868285000B0C84C
:1043F0008888880258684020007088888870025831
:1044000068102000708888887002586820500070FA
:1044100088888870025868285000708888887002E0
:104420005767500070888888700355652000F80031
:10443000200255657898A8C8F00258684020008886
:1044400088889868025868102000888888986802D0
:1044500058682050008888889868025767500088FC
:10446000888898680059691020888898680888703A
:1044700000586880F0888888F08080005969500072
:104480008888986808887002536F667477617265CF
:10449000205265736574005761746368646F6720A8
:1044A00052657365740042726F776E206F75742069
:1044B00052657365740045787465726E616C205244
:1044C0006573657400506F77657255700020202009
:1044D0002020202020202020202020204F6B7C48DE
:1044E000617264636F64656420534420446566614F
:1044F000756C742053657474696E6773204C6F61BA
:104500006465640020506C616E6E6572427566660B
:10451000657242797465733A2000202020202020A3
:104520002020202020202046726565204D656D6F7B
:1045300072793A20002D2D2D2D2D2D2D2D2D2D2D47
:104540002D2D2D2D2D2D2D2D2D2D2D2D2D2D2D2D9B
:104550002D2D2D2D2D2D2D2D2D2D2D2D2D2D2D2D8B
:104560002D2D2D2D2D2D2D2D2D2D2D2D2D2D2D2D7B
:104570002D2D2D2D2D2D2D2D2D002D2D2D2D2D2D98
:104580002D2D2D2D2D2D2D2D2D2D2D2D2D2D2D2D5B
:104590002D2D2D2D2D2D2D2D2D2D2D2D2D2D2D2D4B
:1045A0002D2D2D2D2D2D2D2D2D2D2D2D2D2D2D2D3B
:1045B0002D2D2D2D2D2D2D2D2D2D2D2D2D2D002065
:1045C00020202020202020202020202020202020EB
:1045D0002020202020202020436F6D70696C6564AE
:1045E0003A205365702020312032303230002020B4
:1045F00020202020202020202020202020202020BB
:10460000202020202020202020417574686F723ADD
:1046100020284B55545445524352414654205F7C08
:104620007C5F204D6F643A4F726C697829002020BE
:10463000202020202020202020202020202020207A
:104640002020204C61737420557064617465643A55
:104650002053657020203120323032302031323A00
:1046600034353A3230002D2D2D2D2D2D2D2D2D2D83
:104670002D2D2D2D2D2D2D2D2D2D2D2D2D2D2D2D6A
:104680002D2D2D2D2D2D2D2D2D2D2D2D2D2D2D2D5A
:104690002D2D2D2D2D2D2D2D2D2D2D2D2D2D2D2D4A
:1046A0002D2D2D2D2D2D2D2D2D2D002020202020A8
:1046B00020202020202020202020202020202020FA
:1046C000202020204B555454455243524146545FBC
:1046D0005620342E302E37002D2D2D2D2D2D2D2D05
:1046E0002D2D2D2D2D2D2D2D2D2D2D2D2D2D2D2DFA
:1046F0002D2D2D2D2D2D2D2D2D2D2D2D2D2D2D2DEA
:104700002D2D2D2D2D2D2D2D2D2D2D2D2D2D2D2DD9
:104710002D2D2D2D2D2D2D2D2D2D2D2D002D2D2DF6
:104720002D2D2D2D2D2D2D2D2D2D2D2D2D2D2D2DB9
:104730002D2D2D2D2D2D2D2D2D2D2D2D2D2D2D2DA9
:104740002D2D2D2D2D2D2D2D2D2D2D2D2D2D2D2D99
:104750002D2D2D2D2D2D2D2D2D2D2D2D2D2D2D2D89
:104760002D0020202020202020202020202020205C
:10477000202020202020202020204B75747465727A
:104780006372616674204669726D77617265002D8F
:104790002D2D2D2D2D2D2D2D2D2D2D2D2D2D2D2D49
:1047A0002D2D2D2D2D2D2D2D2D2D2D2D2D2D2D2D39
:1047B0002D2D2D2D2D2D2D2D2D2D2D2D2D2D2D2D29
:1047C0002D2D2D2D2D2D2D2D2D2D2D2D2D2D2D2D19
:1047D0002D2D2D00737461727400000021002400DF
:1047E00027002A002D0030003300010100000401E1
:1047F00007010A0100002200250028002B002E00DE
:104800003100340002010000050108010B01000025
:1048100020002300260029002C002F003200000178
:104820000000030106010901050505050705080843
:104830000808020202020A0A08080404040401012A
:10484000010101010101030303030303030304073F
:1048500007070C0C0C0C0C0C0C0C020202020606D6
:104860000606060606060B0B0B0B0B0B0B0B0102C9
:104870001020200808102040102040800201020172
:10488000080402010102040810204080804020102A
:104890000804020180040201804020100804020183
:1048A00008040201010204081020408001020408EB
:1048B0001020408000000A0B02090C0D0E080703AF
:1048C00004010000000000000000000000000000E3
:1048D00000000000000000000000000000000000D8
:1048E0001211100000000000000000000000000095
:1048F000000000000000000000005061757361724C
:1049000061206C61206D617175696E610041637435
:10491000697661722053656E736F7200446520661C
:10492000696C616D656E746F004465736163746971
:104930007661722053656E736F72004D35303000B2
:1049400041636570746172002043616E63656C61E0
:104950007200416476657274656E636961004D35FD
:104960003030004D353030004E4F2D436F6E742087
:10497000646573646520626173650053492D436FFC
:104980006E7420556C7420506F736963696F6E008C
:104990007065676164612061206C612063616D6195
:1049A0003F004C6120496D70726573696F6E2073B2
:1049B0006967756500436F6E74696E756172004D4D
:1049C0003530300043616E63656C617200436F6E19
:1049D000206C6120496D70726573696F6E0044656B
:1049E00073656120636F6E74696E75617200436FE9
:1049F000727465206465206C757A21004B7574743F
:104A0000657263726166742053746F7265006B75B2
:104A10007474657263726166742E636F6D2F737444
:104A20006F726500FEDF43F8829F1A08BAEE2AE82B
:104A3000BA1B6AE8BAAD32E8821A0A08FEAAABF8D5
:104A4000004238009FB7D4B8848A31B0860A2F203C
:104A5000F0235448F6169308C51066F886CB5B28F9
:104A6000D84E1FA8F6C9084014A93CB03E67DA48E2
:104A7000091D09E02A457FF0008D78C0FE959AC097
:104A800082955898BA9C9FD8BAA78D08BA43E1B8C6
:104A9000826A0768FEA19CC04D35303000426F72BB
:104AA0007261722045737461646973746963610033
:104AB00043616D626961722056657273696F6E0041
:104AC000566F6C7665722020202020202020202028
:104AD0002020202004004D3530300030002D0049CA
:104AE0006E67726573652047656E65726163696F95
:104AF0006E3A00436F6469676F3A00496E6772658A
:104B000073652047656E65726163696F6E3A003048
:104B100000504B3300496E6772657365204D6573B5
:104B20003A0053616C697200426F7272617200499F
:104B30006E677265736520436F6469676F00436FCA
:104B40006469676F3A0053657269616C3A003000BE
:104B5000473238004B75747465724D656C6F6479BB
:104B6000202020205B4F66665D004B757474657273
:104B70004D656C6F647920202020205B4F6E5D00B6
:104B8000416A75737461722050494400456E636FC9
:104B90006465722020202020202020205B495A516B
:104BA0005D00496E666F206465204D3131372020ED
:104BB00020205B4F66665D00456E636F6465722002
:104BC00020202020202020205B4445525D0053659A
:104BD0006E736F722066696C616D656E746F5B4F8A
:104BE00066665D00436F6E6669672E20466162727D
:104BF0006963610053656E736F722066696C616DE5
:104C0000656E746F205B4F6E5D00496E666F206449
:104C100065204D31313720202020205B4F6E5D0014
:104C2000477561726461646F20202020202020205D
:104C30005B4F66665D00477561726461646F20203A
:104C4000202020202020205B4F6E5D00456E76697D
:104C500061722047636F646500496E666F726D61B3
:104C600063696F6E2020205B43617061735D004952
:104C70006E666F726D6163696F6E2020205B436F9B
:104C80006F72645D004175746F6C6576656C202091
:104C900020202020205B4F66665D00536973746599
:104CA0006D61004175746F6C6576656C2020202005
:104CB000202020205B4F6E5D004964696F6D61208C
:104CC000202020202020202020205B45535D004C08
:104CD0006F67726F7300457374616469737469639D
:104CE000610056657273696F6E00566F6C766572FF
:104CF00020202020202020202020202020200400F0
:104D0000566F6C766572003FFFF860000CC00006BD
:104D100080000280080280380280380280380280D9
:104D200038028038028038028000028038028539DB
:104D30004285834286FEC283018281FF0280000297
:104D40008FFFE2C0000660000C3FFFF83FFFF87FD6
:104D5000FFFCFFFFFEFFFFFEFFF7FEFFC7FEFFC7E2
:104D6000FEFFC7FEFFC7FEFFC7FEFFC7FEFFFFFE39
:104D7000FFC7FEFAC6BEFA7CBEF9013EFCFE7EFE0F
:104D800000FEFFFFFEF0001EFFFFFE7FFFFC3FFF67
:104D9000F83FFFF860000CC0000680000280470268
:104DA00081C40281C60281C40281C60281C402811B
:104DB000C70280040281C60281C402800602800408
:104DC0000280070280000287FFC2800002C0000646
:104DD00060000C3FFFF83FFFF87FFFFCFFFFFEFF86
:104DE000FFFEFFB8FEFE3BFEFE39FEFE3BFEFE3937
:104DF000FEFE3BFEFE38FEFFFBFEFE39FEFE3BFEE6
:104E0000FFF9FEFFFBFEFFF8FEFFFFFEF8003EFF8E
:104E1000FFFEFFFFFE7FFFFC3FFFF83FFFF8600053
:104E20000CC0000680000280000281830281C7025C
:104E300081EF0281FF0281BB0281930281830281A3
:104E4000830281830280000287FF828000028FFF3D
:104E5000E28FFFE2800002C0000660000C3FFFF816
:104E60003FFFF87FFFFCFFFFFEFFFFFEFFFFFEFEA0
:104E70007CFEFE38FEFE10FEFE00FEFE44FEFE6CD2
:104E8000FEFE7CFEFE7CFEFE7CFEFFFFFEF8007E4A
:104E9000FFFFFEF0001EF0001EFFFFFEFFFFFE7F83
:104EA000FFFC3FFFF83FFFF860000CC000068000E9
:104EB00002800002807C0280FE0281C702818302A0
:104EC00081830281FF0281FF02818302818302814B
:104ED000830280000283FF828000028FFFE28FFF47
:104EE000E2C0000660000C3FFFF83FFFF87FFFFCC8
:104EF000FFFFFEFFFFFEFFFFFEFF83FEFF01FEFE42
:104F000038FEFE7CFEFE7CFEFE00FEFE00FEFE7C09
:104F1000FEFE7CFEFE7CFEFFFFFEFC007EFFFFFE31
:104F2000F0001EF0001EFFFFFE7FFFFC3FFFF83F7A
:104F3000FFF860000CC000068000028000028000C4
:104F40000281C20281C70281CF8281C70283E70248
:104F500081C70280870280000280000283FF828076
:104F600000028FFFE28FFFE2800002C000066000B7
:104F70000C3FFFF83FFFF87FFFFCFFFFFEFFFFFE47
:104F8000FFFFFEFFFFFEFE3DFEFE38FEFE307EFE12
:104F900038FEFC18FEFE38FEFF78FEFFFFFEFFFF26
:104FA000FEFC007EFFFFFEF0001EF0001EFFFFFE75
:104FB000FFFFFE7FFFFC3FFFF841206C696E6961D7
:104FC0007220656A65207A003FFFF860000CC0001F
:104FD0000680000281FF02800002801002803802F9
:104FE000807C02803802803802803802803802805B
:104FF000380280000283FF828000028FFFE28FFF71
:10500000E2800002C0000660000C3FFFF83FFFF89E
:105010007FFFFCFFFFFEFFFFFEFE00FEFFFFFEFF27
:10502000EFFEFFC7FEFF83FEFFC7FEFFC7FEFFC701
:10503000FEFFC7FEFFC7FEFFFFFEFC007EFFFFFE78
:10504000F0001EF0001EFFFFFEFFFFFE7FFFFC3F93
:10505000FFF84D3234004732380A4D3131380A4DAD
:105060003234004D3233202573003FFFF860000CCE
:10507000C0000680380290FE029BC7829F01C29E3C
:1050800000C29F00629F80628000328000328000F8
:10509000328000628000628000C28301C283C782C6
:1050A00080FE02803802C0000660000C3FFFF83F1F
:1050B000FFF87FFFFCFFFFFEFFC7FEEF01FEE438B5
:1050C0007EE0FE3EE1FF3EE0FF9EE07F9EFFFFCEE2
:1050D000FFFFCEFFFFCEFFFF9EFFFF9EFFFF3EFCC8
:1050E000FE3EFC387EFF01FEFFC7FEFFFFFE7FFF96
:1050F000FC3FFFF8566F6C7665720000446F6E657A
:1051000020736176696E672066696C652E00657232
:10511000726F722077726974696E6720746F20668F
:10512000696C6500203A203C3C3C2072756E5F7AC9
:105130005F70726F62650A0063757272656E745F8C
:10514000706F736974696F6E3D000000A0400000CD
:10515000A04000000040203A203E3E3E2072756E86
:105160005F7A5F70726F62650A0063757272656E56
:10517000745F706F736974696F6E3D003C3C3C20D6
:1051800070726F62655F7074003E20003E200029DF
:10519000002C20003E20646F5F626C6F636B696E51
:1051A000675F6D6F76655F746F5F78792800203A6E
:1051B000200A0063757272656E745F706F73697434
:1051C000696F6E3D0029002C20002C20003E3E3EE1
:1051D0002070726F62655F7074280043616D61209A
:1051E0004F6B2E0043616C656E74616E646F20437B
:1051F000616D612E0053657474696E67205472612D
:1052000076656C20616363656C65726174696F6E4D
:105210003A200053657474696E6720526574726138
:10522000637420616363656C65726174696F6E3A63
:10523000200053657474696E67205072696E742023
:10524000616363656C65726174696F6E3A200053C7
:10525000657474696E67205072696E7420616E6443
:105260002054726176656C20616363656C65726160
:1052700074696F6E3A200020496E76616C69642013
:10528000686F74656E64004D002C002C002000488F
:105290006F74656E64206F6666736574733A004957
:1052A0006E76616C696420657874727564657200ED
:1052B00020443A0020493A0020503A0048004D343A
:1052C00032312072657175697265732058595A20A0
:1052D0006F7220494A5A20706172616D65746572FF
:1052E00073004D657368205859206F7220494A2019
:1052F00063616E6E6F74206265207265736F6C7689
:105300006564004D657368205859206F7220494AC2
:105310002063616E6E6F74206265207265736F6CBE
:10532000766564005265746972616E646F200A006C
:105330005265746972616E646F200A0063617267FE
:10534000616E646F200A0003E0000C9800180C00E6
:10535000201A00303E0040710040E10061C300416E
:1053600081004001003006002002001FFC00436164
:105370007061733A005A00590020003F005800093C
:105380002000092000092000092000462D2D3A2D7B
:105390002D00542D2D3A2D2D00462D2D3A2D2D006A
:1053A0001041000820800820801041002082004128
:1053B0000400410400208200104100000000FFFFB3
:1053C000C0FFFFC0104100208200410400410400E2
:1053D0002082001041000820800820801041000039
:1053E0000000FFFFC0FFFFC000E00000E00000E0A1
:1053F0000003F80007FFC007FEC007FC4007FEC01F
:1054000007FFC001F00000E00000400000E00000E5
:10541000E00000E00003F80007FFC007FFC007FF3F
:10542000C007FFC007FFC001F00000E0000040001F
:105430003FFF00700380E619C0CF3CC09F3E40BFD5
:105440003F40BE1F409CCE4081E04081E0409CCE6A
:1054500040BE1F40BF3F409F3E40CF3CC0E619C00A
:105460007003803FFF003FFF00700380E3F1C0C383
:10547000F0C081E04080C040B00340B8C740BDEFFD
:1054800040BDEF40B8C740B0034080C04081E0401D
:10549000C3F0C0E3F1C07003803FFF004D313034F2
:1054A0002054302053313930004D313034205430C5
:1054B0002053323330004D313034205430205332B9
:1054C0003130004D313034205430205332343000EC
:1054D000426173652063616C696272616461004D51
:1054E000353030004D6F766572205A0047323800F3
:1054F000506F736963696F6E002569202F202575D1
:10550000004731205A300070793A200070783A20F4
:1055100000436F6E74696E756172005072657369D5
:105520006F6E6520436C696B205061726100506F33
:1055300072206661766F72206573706572650052C5
:1055400065616C697A616E646F20486F6D652E2E9F
:105550002E00566F6C76657200303100506F7369A3
:1055600063696F6E20303100303100303200506F8F
:10557000736963696F6E203032003032003033005F
:10558000506F736963696F6E2030330030330030C1
:105590003400506F736963696F6E203034003034AB
:1055A00000303500506F736963696F6E20303500CD
:1055B000303500303600506F736963696F6E20308C
:1055C0003600303600303700506F736963696F6E94
:1055D00020303700303700303800506F736963690E
:1055E0006F6E203038003038003039007FFCC00644
:1055F000800280028002800280028002800280029B
:10560000800280028002C0067FFC506F736963696C
:105610006F6E203039003039007FFCFFFEFFFEFF47
:10562000FEFFFEFFFEFFFEFFFEFFFEFFFEFFFEFF92
:10563000FEFFFEFFFE7FFC4D353030006E6F2064B4
:1056400065626520616374697661727365005B4FA2
:105650004E5D4375696461646F20456E6473746F59
:1056600070205A00506172612063616C69627261DE
:1056700072005B4F46465D55736520456E647374DA
:105680006F70205A004D3432302053310A4D35307E
:1056900030004D3432302053300A4D353030004127
:1056A000636570746172002043616E63656C617242
:1056B00000416476657274656E636961005365725A
:1056C00061205065726D616E656E7465005265692A
:1056D0006E696369617220536574656F73206661DA
:1056E0006272004D3530320A4D353030004163650D
:1056F00070746172002043616E63656C6172004179
:105700006476657274656E636961002900646F5F19
:1057100070726F62655F72616973652800496E66B9
:105720006F3A0043616E6E6F7420656E746572200F
:105730007375626469723A20006F70656E206661ED
:10574000696C65642C2046696C653A200057726963
:1057500074696E6720746F2066696C653A20006F0B
:1057600070656E206661696C65642C2046696C65A5
:105770003A200046696C652073656C6563746564E6
:10578000002053697A653A200046696C65206F7085
:10579000656E65643A20004D3530300053544152F7
:1057A00054205052494E5445523A005344206361AC
:1057B0007264206F6B00534420696E6974206661C7
:1057C000696C004572726F723A0000060900FE07AC
:1057D0000192032120FFFF08FF07FF0000000600E1
:1057E000000107070602008080808080008003029D
:1057F00002060105A0A00507070600005050F8505A
:10580000F850500507070600002078A07028F02007
:10581000050707060000C0C81020409818050707B4
:105820000600006090A040A89068020303060104EF
:10583000C040800307070601002040808080402090
:105840000307070601008040202020408005050551
:1058500006000120A870A8200505050600012020EB
:10586000F820200203030602FFC040800501010664
:105870000003F8020202060200C0C005050506008A
:1058800001081020408005070706000070888888FE
:1058900088887003070706010040C040404040E090
:1058A000050707060000708808708080F805070764
:1058B000060000F81020100808F005070706000091
:1058C00010305090F81010050707060000F880F01F
:1058D00008088870050707060000708080F0888837
:1058E00070050707060000F8081020202020050793
:1058F0000706000070888870888870050707060012
:105900000070888878080870020505060200C0C08B
:1059100000C0C00206060602FFC0C000C0408004EE
:1059200007070600001020408040201005030306F2
:105930000002F800F804070706010080402010204C
:105940004080050707060000708808102000200529
:10595000070706000070880868A8A87005070706F2
:105960000000708888F8888888050707060000F01E
:105970008888F08888F00507070600007088808016
:10598000808870050707060000F08888888888F0FE
:10599000050707060000F88080F08080F8050707FB
:1059A000060000F88080F080808005070706000070
:1059B000708880B888887005070706000088888886
:1059C000F888888801070706020080808080808030
:1059D00080050707060000381010101090600507BA
:1059E000070600008890A0C0A09088050707060061
:1059F00000808080808080F805070706000088D836
:105A0000A8888888880507070600008888C8A8989D
:105A100088880507070600007088888888887005D0
:105A20000707060000F08888F080808005070706D9
:105A3000000070888888A89068050707060000F0B5
:105A40008888F0A09088050707060000788080709D
:105A50000808F0050707060000F820202020202075
:105A6000050707060000888888888888700507076A
:105A700006000088888888885020050707060000EF
:105A80008888888888A850050707060000888850FD
:105A90002050888805070706000088888850202045
:105AA00020050707060000F80810204080F80307CB
:105AB00007060100E08080808080E0050505060083
:105AC000018040201008030707060100E020202085
:105AD0002020E0050303060004205088050101068C
