:100000000C94A0470C94D1470C94D1470C94D14741
:100010000C94D1470C94D1470C94D1470C94D14700
:100020000C94D1470C94D1470C94D1470C94D147F0
:100030000C94D1470D9406910C94D1470C94D14760
:100040000C94D1470D9486140C94D1470C94D1474D
:100050000C94D1470C94D1470D941D4D0D94BC9038
:100060000C94D1470C9428B40C94F8B30C94D14759
:100070000C94D1470C94D1470C94D1470C94D147A0
:100080000C94D1470C94D1470C94D1470C94D14790
:100090000C94D1470C94D1470C94D1470C94D14780
:1000A0000C94D1470C94D1470C94D1470C94D14770
:1000B0000C94D1470C94D1470C94D1470C94D14760
:1000C0000C94D1470C94D1470C94D1470D94CE9108
:1000D0000D94A5910C94D1470C94D1470C94D14721
:1000E0000C94D147614D6C4D954DF14D464EC64E29
:1000F000CF4E4F7E5D7D937D8B7E937D937D937DF3
:10010000937D937D937D937D937D937D937D937D6F
:10011000937D937D937D937D937D937D937D937D5F
:10012000937D937D937D937D937D937D937D857E5C
:10013000937D937D937D937D937D937D937D937D3F
:100140005F7E937D937D937D937D937D937D937D62
:10015000937D937D937DA87E907DF902D5017902F0
:10016000570361026D02050317025303A903BF027F
:100170001D032D036903ED01EF025B032B02330323
:100180003B03F3017D032103D8FFD8FFD8FFD8FF3D
:10019000D8FFD8FFD8FFD8FFD8FFD8FFD8FFD8FFA7
:1001A000D8FFD8FFD8FFD8FFD8FFD8FFD8FFD8FF97
:1001B000D8FFD8FFD8FFD8FFD8FFD8FFD8FFD8FF87
:1001C000D8FFD8FFD8FFD8FFD8FFD8FFD8FFD8FF77
:1001D000D8FFD8FFD8FFD8FFD8FFD8FFD8FFD8FF67
:1001E000D8FFD8FFD8FFD8FFD8FFD8FFD8FFD8FF57
:1001F000D8FFD8FFD8FFD8FFD8FFD8FFD8FFD8FF47
:10020000D8FFD8FFD8FFD8FFD8FFD8FFD8FFD8FF36
:10021000D8FFD8FFD8FFD8FFD8FFD8FFD8FFD8FF26
:10022000D8FFA103C101910241030D03050243035D
:10023000FD013B029B028303B6FF5F03DF0249031C
:10024000B902C3020D026D030103A50207030302F5
:1002500073028B036F035B02A7029D02CD02F501BF
:10026000250277031503D30237024D02A30381024F
:100270003F03230251039F03B1020102F901290246
:100280007D02EB01DF016902CF01B102E501CB0282
:100290006B02FF01F502E3017503D502E5021B02C3
:1002A00053024302DB0275023D0377025702E50267
:1002B00027025102FB01EB0213028103990245025E
:1002C000850395038902AD03A302D1016703AB0344
:1002D00013030903E101A90247030B023503D90106
:1002E00041020F03A7034F0273039B03E102310393
:1002F000D1026702FF02BB027F029903CD01D9023E
:100300007B02D7024F0327032F02470223034B022E
:100310008D035D03AD02FD025D023F0239034D0313
:10032000B1038502C502E30291032B03B502CB01A1
:100330002503084AD73B3BCE016E84BCBFFDC12FCD
:100340003D6C74319ABD56833DDA3D00C77F11BEC6
:10035000D9E4BB4C3E916BAAAABE000000803F05C9
:10036000A84CCDB2D44EB93836A9020C50B99186FA
:1003700088083CA6AAAA2ABE000000803F000D946F
:10038000F1670D9462010D946A1F0D94F5270D9489
:10039000076C0D94B16F0D94D3770D9400750D9487
:1003A0002A3C0D94EB4D0D94D10C0D949E040D94AC
:1003B0009A200D947C640D94518F0D94B5940D94F6
:1003C000223C0D94004E0D94D6420D94303C0D9479
:1003D000B5090D94F2060D941C3C0D94CA020D94BF
:1003E0006D0D0D94EF320D94F2010D9418090D94DA
:1003F00063920D940E3C0D9459430D948A000D9414
:10040000CC420D940A3C0D941E080D94D2000D941C
:100410008D240D9407110D94124E0D9432080D94F5
:10042000A47D0D9459950D94894D0D9496570D9476
:10043000C6030D947E750D94F4420D945C250D94C5
:10044000AA100D94F9950D94F53B0D9425090D9482
:1004500045430D94143C0D945E020D94954B0D9400
:1004600004740D94AA8F0D94A8440D94DE920D94FB
:1004700088090D94360E0D9466000D94EE210D94AE
:100480007B770D9486640D9404430D94D34D0D94A5
:10049000DA730D94CB5A0D9486730D9499090D94CB
:1004A000A6640D944F430D94FC420D94B5920D94A7
:1004B0003B430D94BB050D94E2080D947D710D94A2
:1004C0006D0B0D9432040D9450680D9458300D94BA
:1004D0008A720D94263C0D94383C0D940E040D94B4
:1004E000B75C0D94738F0D94F6070D9418430D941B
:1004F00031430D947A040D94AC740D94183C0D9412
:1005000054750D94033C0D94F80C0D9423770D94C1
:10051000DE940D94E04D0D94807C0D944D0C0D9463
:1005200085660D943E010D9442230D94C8640D948C
:100530004F900D94B84D0D9442000D94FE080D940B
:100540003A920D94E8260D94E84D0D9465080D94AB
:10055000F1080D94034E0D94BE950D9408730D94FF
:100560001A2A0D943D3C0D94851F0D949F760D9491
:1005700038660D94BD080D9436720D9461100D947B
:100580005A030D94C3700D94CE080D944F770D94BB
:1005900087900D944F1F0D94343C0D940B090D94CE
:1005A000337B0D94B4720D947B090D94EA420D9443
:1005B00082740D94D6740D940E430D943D290D94C0
:1005C0009B080D940C720D94FF770D9463430D946A
:1005D00007950D94A6430D94794D0D94CE790D9405
:1005E000A6020D94FB920D948B440D94D1420D9470
:1005F000F68F0D94C2040D94E80A0D94DE720D94EA
:1006000060720D9454080D9430680D94EA030D94B3
:100610000A080D94FB4D0D94DF580D94F6000D94CF
:1006200090640D94188F0D94F84D0D943F090D941E
:10063000658F0D94E6040D9460660D9436030D9459
:1006400086960D94AA010D94B0730D943B760D948B
:100650002E740D94F30B0D9457780D9412030D9492
:1006600040680D94E2710D943A020D946F640D94FC
:10067000630A0D94A7770D9416020D9422430D94EE
:10068000063C0D941A010D94AE000D94D5590D94AD
:10069000084E0D94AC080D94DE090D94CB760D94A4
:1006A00058740D94F93B0D94A2030D94D4440D9409
:1006B00056040D94B20D0D9482020D9432730D9474
:1006C0008A080D94E9470D948C920D94C15B0D94AA
:1006D000F04D0D94EE020D94A7940D9443080D94E3
:1006E0006E090D94B4490D9456640D94E0420D9436
:1006F00032090D94A6660D94428F0D94CE010D948F
:10070000462F0D94A84D0D941E000D94D84D0D94B8
:1007100089900D94CE960D9476080D945C730D948B
:100720002C380D942B780D94929F0D94DB4D0D94E5
:1007300030950D942A750D9439640D940D980D948F
:10074000FF3B0D9486010D944C090D9483780D9414
:100750009B640D947E030D94F34D0D94E34D0D9425
:1007600071490D94F7764E414E494E495459494EC0
:1007700046CDCCCC3D0AD7233C17B7D13877CC2B0C
:10078000329595E6241FB14F0A000020410000C8B1
:100790004200401C4620BCBE4CCA1B0E5AAEC59D32
:1007A0007400407A10F35A00A0724E18090010A588
:1007B000D4E80000E87648170000E40B540200007B
:1007C000CA9A3B000000E1F5050000809698000001
:1007D0000040420F000000A086010000001027002A
:1007E000000000E803000000006400000000000AB0
:1007F00000000000000100000000002C76D888DC1A
:10080000674F0823DFC1DFAE59E1B1B796E5E3E4F6
:1008100053C63AE651997696E8E6C28426EB898C6F
:100820009B62ED407C6FFCEFBC9C9F40F2BAA56FD1
:10083000A5F490055A2AF75C936B6CF9676DC11BA0
:10084000FCE0E40D47FEF520E6B500D0ED902E0368
:1008500000943577050080841E080000204E0A00B1
:100860000000C80C333333330F986E12831141EFFD
:100870008D2114893BE65516CFFEE6DB18D1844B5B
:10088000381BF77C1D901DA4BBE424203284725ECB
:10089000228100C9F124ECA1E53D27414C4C0043E5
:1008A0004F4D4D554E49434154494F4E00445259C6
:1008B00052554E004552524F525300494E464F003A
:1008C0004543484F005265706F736F2E2E2E0041C6
:1008D00075746F6C6576656C3A206F6E004D616E55
:1008E00075616C6576656C3A206F6E0050756E743C
:1008F0006F20616C63616E7A61646F0047323920EA
:100900005334002F3900200050756E746F004D3540
:1009100030300A4732380A473120583130205931B7
:1009200030205A31300A4D313137204175746F6CA7
:10093000657665207265616C697A61646F00473223
:1009400039205335004732392053350A4731205A70
:1009500030204631353030004737370A47323920AA
:100960005335005A206E6F7420656E74657265642D
:100970002E0059206E6F7420656E74657265642E4A
:100980000059206F7574206F662072616E67652054
:1009900028312D33292E0058206E6F7420656E7417
:1009A000657265642E0058206F7574206F66207222
:1009B000616E67652028312D33292E00473239209A
:1009C0005334004732380A473239205332004572D7
:1009D000726F723A204175746F2D43616C69627257
:1009E0006163696F6E2061706167616461005A20A4
:1009F0006F66667365742041637475616C3A20009C
:100A0000532053757065726120656C206E756D653D
:100A1000726F20646520636F6D616E646F73203741
:100A20002E003C3C3C2067636F64655F47333000B9
:100A3000205A3A200020593A200020583A200042FB
:100A40006564003E3E3E2067636F64655F473330F8
:100A500000205A3A200020593A200020583A20001D
:100A60004265640020453A00205A3A0020593A0075
:100A70003C2D583A00205300536176656420706F16
:100A8000736974696F6E00496E76616C6964207376
:100A90006C6F742C20746F74616C20736C6F747342
:100AA0003A20003A0020002D3E002053005265738A
:100AB000746F72696E6720706F736974696F6E000E
:100AC000496E76616C696420736C6F742C20746F4E
:100AD00074616C20736C6F74733A2000537461728C
:100AE00074205072696E74696E670053746F702061
:100AF0005072696E74696E670053696E206D6F760F
:100B0000696D69656E746F00456E642066696C6519
:100B1000206C69737400426567696E2066696C6554
:100B2000206C697374002F005344207072696E74D6
:100B3000696E67206279746520004E6F742053449B
:100B4000207072696E74696E67005072696E7420ED
:100B500074696D6520002569682025696D20256907
:100B60007300256964202569682025696D20256941
:100B700073004469726563746F7279206372656192
:100B8000746564004372656174696F6E20666169A3
:100B90006C656400436C6F73652066696C652061E9
:100BA0006E64207361766520726573746172742E51
:100BB00067636F64650020616E6420737461727492
:100BC000207072696E742E004F70656E2066696CBD
:100BD000653A20004B7574746572637261667420A7
:100BE0004F46462E0043616C656E74616E646F2ED5
:100BF0002E2E004B75747465726372616674206C7E
:100C0000697374612E006F666600C008BB08B40883
:100C1000AD089F089B0844656275673A00504152D1
:100C200041444120444520454D4552472E004D3119
:100C300031332053004649524D574152455F4E4192
:100C40004D453A4B555454455243524146545F56D4
:100C500020342E302E37204649524D574152455FA1
:100C600055524C3A687474703A2F2F7777772E6B01
:100C7000757474657263726166742E636F6D2F7321
:100C80006F6674776172652050524F544F434F4CDA
:100C90005F56455253494F4E3A322E30204D414314
:100CA00048494E455F545950453A436172746573E3
:100CB00069616E2045585452554445525F434F5523
:100CC0004E543A3220555549443A333234626661C3
:100CD00034322D613432372D313165362D3830665E
:100CE000352D3736333034646563376562370A0033
:100CF0006373746570733A2000655F6D696E3A20A6
:100D0000007A5F70726F62653A20007A5F6D696E7B
:100D10003A2000795F6D696E3A2000785F6D696EE8
:100D20003A20005265706F7274696E6720656E6458
:100D300073746F702073746174757300205A00208F
:100D40005900580020204D61783A2000205A002098
:100D50005900580020204D696E3A2000536F667488
:100D600020656E6473746F70733A0043290061628A
:100D70006C656420286D696E2074656D7020004379
:100D80006F6C642065787472756465732061726538
:100D900020004F6666736574206170706C696564CD
:100DA0002E004F6666736574206170706C696564AF
:100DB0002E004572723A20546F6F206661722100D6
:100DC000546F6F206661722066726F6D2072656667
:100DD0006572656E636520706F696E740043617043
:100DE000613A200020496E76616C696420657874F0
:100DF00072756465720054004163746976652045BC
:100E0000787472756465723A20004163746976651E
:100E1000204472697665723A20003C3C3C2067634E
:100E20006F64655F5400203A2041465445520A00E1
:100E300063757272656E745F706F736974696F6EDB
:100E40003D00203A204245464F52450A00637572E4
:100E500072656E745F706F736974696F6E3D00299F
:100E6000003E3E3E2067636F64655F5428002200A9
:100E7000436F6D616E646F206E6F20656E636F6E81
:100E8000747261646F3A2022004D363030004D3666
:100E900030300073652061637469766F20310045DE
:100EA00063686F3A0056657273696F6E3A00436FFC
:100EB0006E66696775726163696F6E00417267651E
:100EC0006E74696E6100496E647573747269610055
:100ED0004B55545445524352414654000000000FB4
:100EE00000000000000000198000000000000070F9
:100EF000E0000000000000C6300000000000039F7A
:100F00009C00000000000E3FC7000000000038FFFA
:100F1000F1C00000000063FFFC6000000001CFFF93
:100F2000FF38000000071FFFFF8E0000001C7FFF3E
:100F3000FFE380000031FFFFFFF8C00000E7FFFF84
:100F4000FFFE7000038FFFFFFFFF1C000E3FFFFF3F
:100F5000FFFFC70018FE07FFF007F18033FE07FF11
:100F6000E00FFCC027FE07FFC01FFE402FFE07FF5B
:100F7000803FFF402FFE07FF007FFF402FFE07FF4F
:100F800000FFFF402FFE07FE01FFFF402FFE07FC82
:100F900000FFFF402FFE07F8007FFF402FFE07F005
:100FA000003FFF402FFE07E000007F402FFE07C0FC
:100FB00000007F402FFE07807FFFFF402FFE0700CD
:100FC000FFFFFF402FFE0601FFFFFF402FFE04033F
:100FD000FFFFFF402FFE0003FFFFFF402FFE040135
:100FE000FFFFFF402FFE0600FFFFFF402FFE070020
:100FF0007FFFFF402FFE078000007F402FFE07C0CD
:1010000000007F402FFE07E0003FFF402FFE07F06B
:10101000007FFF402FFE07F800FFFF402FFE07FC78
:1010200001FFFF402FFE07FE00FFFF402FFE07FFDE
:10103000007FFF402FFE07FF803FFF402FFE07FF8E
:10104000C01FFF402FFE07FFE00FFF4027FE07FFF6
:10105000F007FE4033FE07FFF803FCC018FE07FF51
:10106000FC01F1800E3FFFFFFFFFC700038FFFFF72
:10107000FFFF1C0000E7FFFFFFFE70000031FFFFD5
:10108000FFF8C000001C7FFFFFE3800000071FFF88
:10109000FF8E00000001CFFFFF380000000063FF5B
:1010A000FC600000000038FFF1C0000000000E3FAF
:1010B000C70000000000039F9C000000000000C665
:1010C0003000000000000070E00000000000001987
:1010D000800000000000000F000000000000000081
:1010E0000000000000000000000000000000000000
:1010F00000000000000000000000000000000000F0
:1011000000000000000000000000000000000000DF
:1011100000000000000000000000656E6473746F42
:101120007073206869743A20202563202563202588
:101130006320256300205A3A0020593A0020583A8B
:1011400000656E6473746F7073206869743A200070
:101150004D32390050415241444120444520454DD3
:101160004552472E00504152414441005072696E31
:101170007465722073746F70706564206475652087
:10118000746F206572726F72732E204669782074B6
:101190006865206572726F7220616E642075736578
:1011A000204D39393920746F2072657374617274FF
:1011B0002E202854656D70657261747572652069A2
:1011C000732072657365742E2053657420697420D2
:1011D00061667465722072657374617274696E679A
:1011E00029004E6F204C696E65204E756D626572E8
:1011F000207769746820636865636B73756D2C2054
:101200004C617374204C696E653A20004E6F204328
:101210006865636B73756D2077697468206C696E9F
:1012200065206E756D6265722C204C617374204C64
:10123000696E653A2000636865636B73756D206D38
:1012400069736D617463682C204C617374204C6900
:101250006E653A20004C696E65204E756D62657250
:10126000206973206E6F74204C617374204C696E1A
:1012700065204E756D6265722B312C204C61737444
:10128000204C696E653A20004D313130004D3331CC
:10129000004D383420582059205A2045004D353013
:1012A000300053442072656164206572726F720071
:1012B000446F6E65207072696E74696E672066692E
:1012C0006C650020496E76616C6964206578747283
:1012D00075646572004D00000070430000A043007B
:1012E00000CD4300000000000000000000000020CE
:1012F0003A2073796E635F706C616E5F706F7369B3
:1013000074696F6E0A0063757272656E745F706FD8
:10131000736974696F6E3D00203A20636C65616E7D
:101320005F75705F61667465725F656E6473746F1C
:10133000705F6F725F70726F62655F6D6F76650A66
:101340000063757272656E745F706F736974696F34
:101350006E3D0029002C20002C200028003E3E3E3F
:1013600020646F5F626C6F636B696E675F6D6F7631
:10137000655F746F006465706C6F793A2000203A85
:10138000207365745F70726F62655F6465706C6F07
:101390007965640A0063757272656E745F706F734D
:1013A0006974696F6E3D00203A203C3C3C20646FBC
:1013B0005F70726F62655F6D6F76650A006375724C
:1013C00072656E745F706F736974696F6E3D002033
:1013D0003A203E3E3E20646F5F70726F62655F6DC3
:1013E0006F76650A0063757272656E745F706F73F5
:1013F0006974696F6E3D002042403A0020403A0017
:10140000202F0020423A00202F0020543A00203A9A
:101410002073657475705F666F725F656E64737458
:101420006F705F6F725F70726F62655F6D6F766510
:101430000A0063757272656E745F706F73697469A8
:101440006F6E3D0020666972737400590058004841
:101450006F6D652000206669727374005900580032
:10146000486F6D6520003C3C3C2067636F64655F9E
:1014700047323800203A204D424C20486F6D65209D
:1014800058206F7220590A0063757272656E745F1E
:10149000706F736974696F6E3D00203A204D424C45
:1014A0002052657374204F726967696E0A00637514
:1014B0007272656E745F706F736974696F6E3D00F0
:1014C0004D424C205A20686F6D696E67004D424C4A
:1014D00020686173206D65736800203A2028686F6A
:1014E0006D655F616C6C5F61786973207C7C2068DE
:1014F0006F6D655A29203E2066696E616C0A006333
:10150000757272656E745F706F736974696F6E3D2A
:10151000003C3C3C205A5F534146455F484F4D4993
:101520004E4700536F6E6461205A20667565726184
:1015300000536F6E6461205A2066756572610020E9
:101540003A205A5F534146455F484F4D494E472028
:101550003E20686F6D655F616C6C5F617869730ACE
:101560000064657374696E6174696F6E3D00203A42
:10157000205A5F534146455F484F4D494E47203EF4
:1015800020686F6D655F616C6C5F617869730A00DC
:1015900063757272656E745F706F736974696F6E74
:1015A0003D003E205A5F534146455F484F4D494EEE
:1015B00047203E3E3E00203A20686F6D65590A0084
:1015C00063757272656E745F706F736974696F6E44
:1015D0003D00203A20686F6D65580A00637572728D
:1015E000656E745F706F736974696F6E3D005261F0
:1015F000697365205A20286265666F726520686F7E
:101600006D696E672920746F20003E20656E6473DB
:10161000746F70732E656E61626C65287472756587
:101620002900203A20536574205A20746F2070726C
:10163000655F686F6D655F7A0A0063757272656ECB
:10164000745F706F736974696F6E3D004D424C201A
:1016500077617320616374697665003E3E3E206762
:10166000636F64655F47323800636F6C6420657830
:1016700074727573696F6E2070726576656E7465CD
:10168000640000416C677569656E2070756C736FDE
:1016900020656C2073656E736F72206465206669C7
:1016A0006C616D656E746F3A20004D36303000739A
:1016B000652061637469766F203200504152414465
:1016C0004120444520454D4552472E00504152414E
:1016D000444120444520454D4552472E00706175D8
:1016E0007361207061726120657370657261007052
:1016F0006175736120706172612075736F00707223
:101700006F636573616E646F00627573793A00454B
:1017100072726F722074656D70004D7565727465BC
:1017200020646520696D707265736F72612E206B25
:10173000696C6C28292063616C6C65642100290048
:101740003C3C3C207365745F617869735F69735FCB
:1017500061745F686F6D652800203A200A00637528
:101760007272656E745F706F736974696F6E3D003D
:101770005D203D2000686F6D655F6F666673657400
:101780005B007A70726F62655F7A6F66667365740C
:10179000203D2000000000000000000000000000CC
:1017A00029003E3E3E207365745F617869735F690E
:1017B000735F61745F686F6D6528005761726E6951
:1017C0006E673A20486F6D696E672042756D7020B4
:1017D00044697669736F72203C20310029003C3CDB
:1017E0003C20686F6D656178697328003E20002099
:1017F0003A204146544552207365745F617869739D
:101800005F69735F61745F686F6D650A006375720D
:1018100072656E745F706F736974696F6E3D003EC0
:1018200020326E6420486F6D6520003E2031737455
:1018300020486F6D652000000070430000A0430049
:1018400000CD433E2000FFFFFF29003E3E3E2068C2
:101850006F6D65617869732800494E46004E414EB0
:101860000003E0000C9800180C00201A00303E0025
:1018700040710040E10061C300418100400100303F
:1018800006002002001FFC0043617061733A005A99
:1018900000590020003F00580009200009200009DD
:1018A0002000092000462D2D3A2D2D00542D2D3AD3
:1018B0002D2D00462D2D3A2D2D00104100082080A1
:1018C00008208010410020820041040041040020D3
:1018D0008200104100000000FFFFC0FFFFC0104168
:1018E00000208200410400410400208200104100D9
:1018F000082080082080104100000000FFFFC0FF8A
:10190000FFC000E00000E00000E00003F80007FF77
:10191000C007FEC007FC4007FEC007FFC001F00083
:1019200000E00000400000E00000E00000E00003F4
:10193000F80007FFC007FFC007FFC007FFC007FF91
:10194000C001F00000E0000040003FFF0070038095
:10195000E619C0CF3CC09F3E40BF3F40BE1F409CE9
:10196000CE4081E04081E0409CCE40BE1F40BF3F62
:10197000409F3E40CF3CC0E619C07003803FFF004F
:101980003FFF00700380E3F1C0C3F0C081E04080FE
:10199000C040B00340B8C740BDEF40BDEF40B8C73E
:1019A00040B0034080C04081E040C3F0C0E3F1C0DC
:1019B0007003803FFF004B757474657263726166DB
:1019C00074206C697374612E00526573756D69655E
:1019D0006E646F20496D7072652E0045737065727C
:1019E000616E646F206F7264656E6573004D313295
:1019F00034004D3132330046696C652064656C6596
:101A00007465640044656C6574696F6E2066616915
:101A10006C65640046696C652064656C657465641A
:101A20000046696C616D656E74207072696E7465D4
:101A3000643A2000202025754B6D2025756D2025EA
:101A400075636D2025756D6D00506F776572206F21
:101A50006E2074696D653A20002020257520646130
:101A6000797320257520686F757273202575206D38
:101A7000696E7574657300546F74616C207072695F
:101A80006E742074696D653A2000202025752064ED
:101A900061797320257520686F7572732025752014
:101AA0006D696E75746573002C204661696C6564A0
:101AB0003A20002C2046696E69736865643A2000FC
:101AC0005072696E7420737461746973746963739E
:101AD0003A20546F74616C3A200043616C656E74F7
:101AE000616D69656E746F204F6B2E003F0020574B
:101AF0003A0043616C656E74616E646F2E2E2E0029
:101B00004B75747465726372616674206C6973746A
:101B1000612E0043616D61204F6B2E0043616C6547
:101B20006E74616E646F2043616D612E0053657445
:101B300074696E672054726176656C2061636365B9
:101B40006C65726174696F6E3A20005365747469D4
:101B50006E67205265747261637420616363656CA3
:101B600065726174696F6E3A200053657474696EB2
:101B700067205072696E7420616363656C65726181
:101B800074696F6E3A200053657474696E672050F3
:101B900072696E7420616E642054726176656C2087
:101BA000616363656C65726174696F6E3A200020D1
:101BB000496E76616C696420686F74656E64004D6F
:101BC000002C002C002000486F74656E64206F6646
:101BD00066736574733A00496E76616C696420655A
:101BE000787472756465720020443A0020493A00A6
:101BF00020503A0048004D343231207265717569C9
:101C00007265732058595A206F7220494A5A2070C1
:101C10006172616D6574657273004D6573682058FB
:101C200059206F7220494A2063616E6E6F74206282
:101C300065207265736F6C766564004D657368200E
:101C40005859206F7220494A2063616E6E6F74206C
:101C50006265207265736F6C7665640052657469A5
:101C600072616E646F200A005265746972616E64FD
:101C70006F200A0063617267616E646F200A00560C
:101C80006F6C766572004D61706120446520436120
:101C90006D61004D6F64696669636172204F6666AD
:101CA00073657400416A757374657320646520639D
:101CB000616D6100566F6C76657200507265646587
:101CC0007465726D696E61646F004D313137204506
:101CD0006E667269616E646F004D38340A204D3152
:101CE0003137204D6F746F72204170616761646F8E
:101CF0000056656C6F6369646164006C6120766591
:101D00006C6F63696461640053656C656363696FDC
:101D10006E6500466C756A6F00466C756A6F00539D
:101D2000656C656363696F6E650076616C6F7220C8
:101D3000696E696369616C00426F7175696C6C6191
:101D4000006C612074656D706572617475726100FC
:101D500053656C656363696F6E650043616D6120F7
:101D600063616C69656E7465006C612074656D708B
:101D7000657261747572610053656C656363696F48
:101D80006E65004D333133004D3131370046616EA1
:101D90002064652063617061006C612076656C6F02
:101DA00063696461640053656C656363696F6E6544
:101DB000003FFFF87FFFFCFFFFFEFFFFFEF770FE16
:101DC000FAEF7EFDE97EFAED7EF7697EFFED7EFF9C
:101DD000E97EFFED7EFFE97EFFD9BEFFB0DEFFA00A
:101DE0005EFFB0DEFFDFBEFFE07EFFFFFEFFFFFE17
:101DF0007FFFFC3FFFF83FFFF860000CC00006804B
:101E00000002888F0285108282168285128288964F
:101E10008280128280168280128280168280264200
:101E2000804F22805FA2804F22802042801F8280CC
:101E30000002C0000660000C3FFFF83FFFF87FFF84
:101E4000FCFFFFFEFFBBFEFE38FEFC387EF8383E8E
:101E5000F0381EF07C1EE0C60EFF83FEFF83FEFFFF
:101E600083FEE0C60EF07C1EF0381EF8383EFC38CB
:101E70007EFE38FEFFBBFEFFFFFE7FFFFC3FFFF84C
:101E80003FFFF860000CC0000680440281C7028357
:101E9000C78287C7C28FC7E28F83E29F39F2807CF7
:101EA00002807C02807C029F39F28F83E28FC7E23E
:101EB00087C7C283C78281C702804402C000066010
:101EC000000C3FFFF83FFFF87FFFFCFFFFFEFFFF26
:101ED000FEFFFFFEFFFFFEFFFFFEFDEF7EFEF7BEF3
:101EE000FEF7BEFDEF7EFBDEFEF7BDFEF7BDFEFB9F
:101EF000DEFEFDEF7EFFFFFEF0001EF0001EFFFF86
:101F0000FEFFFFFE7FFFFC3FFFF83FFFF860000C85
:101F1000C000068000028000028000028000028271
:101F20001082810842810842821082842102884204
:101F3000028842028421028210828000028FFFE226
:101F40008FFFE2800002C0000660000C3FFFF854E3
:101F5000656D706572617475726100506F72206694
:101F600061766F7220657370657265005265696E87
:101F700069636965206D617175696E6100426F7496
:101F80006F6E2070756C7361646F20454D4700451E
:101F900072726F722077726974696E6720746F2035
:101FA000454550524F4D21002062797465732900D8
:101FB00053657474696E67732053746F726564201F
:101FC0002800454550524F4D20636865636B73751B
:101FD0006D206D69736D61746368002D2D2D2D2D3D
:101FE0002D2D2D2D2D2D2D2D2D2D2D2D2D2D2D2D21
:101FF0002D2D2D2D2D2D2D2D2D2D2D2D2D2D2D2D11
:102000002D2D2D2D2D2D2D2D2D2D2D2D2D2D2D2D00
:102010002D2D2D2D2D2D2D2D2D2D2D2D2D2D2D001D
:102020002062797465732900202020202020202040
:10203000202020202020202053746F72656420739C
:10204000657474696E67732072657472696576650C
:10205000642028005D2053746F7265642076657279
:1020600073696F6E3A205B0056657273696F6E3AE2
:10207000205B002D2D2D2D2D2D2D2D2D2D2D2D2D9C
:102080002D2D2D2D2D2D2D2D2D2D2D2D2D2D2D2D80
:102090002D2D2D2D2D2D2D2D2D2D2D2D2D2D2D2D70
:1020A0002D2D2D2D2D2D2D2D2D2D2D2D2D2D2D2D60
:1020B0002D2D2D2D2D2D2D002D2D2D2D2D2D2D2D7D
:1020C0002D2D2D2D2D2D2D2D2D2D2D2D2D2D2D2D40
:1020D0002D2D2D2D2D2D2D2D2D2D2D2D2D2D2D2D30
:1020E0002D2D2D2D2D2D2D2D2D2D2D2D2D2D2D2D20
:1020F0002D2D2D2D2D2D2D2D2D2D2D2D002D2D2D3D
:102100002D2D2D2D2D2D2D2D2D2D2D2D2D2D2D2DFF
:102110002D2D2D2D2D2D2D2D2D2D2D2D2D2D2D2DEF
:102120002D2D2D2D2D2D2D2D2D2D2D2D2D2D2D2DDF
:102130002D2D2D2D2D2D2D2D2D2D2D2D2D2D2D2DCF
:102140002D0020450020204D323035205400204500
:1021500000205A0020580020420020560020202055
:1021600020205300002020202020202020285A3D1D
:102170006D6178696D756D205A206A65726B2028D3
:102180006D6D2F73292C2020453D6D6178696D752B
:102190006D2045206A65726B20286D6D2F7329298B
:1021A0000020202020202028423D6D696E696D7539
:1021B0006D207365676D656E742074696D65202888
:1021C0006D73292C20583D6D6178696D756D2058AF
:1021D00059206A65726B20286D6D2F7329290020A4
:1021E00020202020202028533D4D696E2066656503
:1021F000647261746520286D6D2F73292C20563D03
:102200004D696E2074726176656C206665656472D6
:1022100061746520286D6D2F7329290020202020EE
:1022200020202020202020202020202020202020AE
:102230002020202020202020202020284D32303532
:1022400029002020202020202020202020202020A5
:102250002020202020202020202020202020207C22
:10226000416476616E6365647C002D2D2D2D2D2DCE
:102270002D2D2D2D2D2D2D2D2D2D2D2D2D2D2D2D8E
:102280002D2D2D2D2D2D2D2D2D2D2D2D2D2D2D2D7E
:102290002D2D2D2D2D2D2D2D2D2D2D2D2D2D2D2D6E
:1022A0002D2D2D2D2D2D2D2D2D2D2D2D2D2D002098
:1022B000202020202020202020202020202020201E
:1022C000202020202020436F6E666967757261743C
:1022D000696F6E20416476616E636564002D2D2DFB
:1022E0002D2D2D2D2D2D2D2D2D2D2D2D2D2D2D2D1E
:1022F0002D2D2D2D2D2D2D2D2D2D2D2D2D2D2D2D0E
:102300002D2D2D2D2D2D2D2D2D2D2D2D2D2D2D2DFD
:102310002D2D2D2D2D2D2D2D2D2D2D2D2D2D2D2DED
:102320002D0020204D323030205431204400202018
:102330004D32303020440046696C616D656E74200A
:1023400073657474696E67733A0020440020490015
:10235000205000202020202020202020202020206D
:102360002020204800202020202020202020202065
:10237000202020202020202020202020202020205D
:1023800020202020284D33303129002020202020FB
:10239000202020202020202020202020202020203D
:1023A0002020202020207C504944207365747469CB
:1023B0006E67737C002D2D2D2D2D2D2D2D2D2D2D6A
:1023C0002D2D2D2D2D2D2D2D2D2D2D2D2D2D2D2D3D
:1023D0002D2D2D2D2D2D2D2D2D2D2D2D2D2D2D2D2D
:1023E0002D2D2D2D2D2D2D2D2D2D2D2D2D2D2D2D1D
:1023F0002D2D2D2D2D2D2D2D2D0020202020202088
:1024000020202020202020202020202020202020CC
:10241000202020436F6E66696775726174696F6E04
:1024200020504944002D2D2D2D2D2D2D2D2D2D2DC0
:102430002D2D2D2D2D2D2D2D2D2D2D2D2D2D2D2DCC
:102440002D2D2D2D2D2D2D2D2D2D2D2D2D2D2D2DBC
:102450002D2D2D2D2D2D2D2D2D2D2D2D2D2D2D2DAC
:102460002D2D2D2D2D2D2D2D2D0020204D363636A8
:102470002050005A2050726F6265206F6666736547
:102480007420286D6D293A00205A00205900202020
:10249000473239205333205800205900205800205B
:1024A000204D3432302053004D65736820626564DE
:1024B000206C6576656C696E673A00205A00205979
:1024C0000020580020202020202020202020202014
:1024D00020202020202054002020202020202020E8
:1024E00020202020202020202020202020202020EC
:1024F0007C486F74656E64206F666673657420280F
:102500006D6D297C002020202020202020202020EC
:1025100020202020202020202020202020202020BB
:1025200020202020284D3231382900202020202052
:10253000202020202020202020202020202020209B
:102540002020207C486F74656E64206F666673651A
:102550007420286D6D297C0000205A00205900202D
:10256000202020202020202020202020202020206B
:102570002020580020202020202020202020202043
:10258000202020202020202020202020202020204B
:10259000202020284D3230362900202020202020E5
:1025A000202020202020202020202020202020202B
:1025B0002020207C486F6D65206F666673657420EF
:1025C000286D6D297C002D2D2D2D2D2D2D2D2D2DA2
:1025D0002D2D2D2D2D2D2D2D2D2D2D2D2D2D2D2D2B
:1025E0002D2D2D2D2D2D2D2D2D2D2D2D2D2D2D2D1B
:1025F0002D2D2D2D2D2D2D2D2D2D2D2D2D2D2D2D0B
:102600002D2D2D2D2D2D2D2D2D2D00202020202068
:1026100020202020202020202020202020202020BA
:10262000202020436F6E66696775726174696F6EF2
:10263000206F6666736574002D2D2D2D2D2D2D2D8B
:102640002D2D2D2D2D2D2D2D2D2D2D2D2D2D2D2DBA
:102650002D2D2D2D2D2D2D2D2D2D2D2D2D2D2D2DAA
:102660002D2D2D2D2D2D2D2D2D2D2D2D2D2D2D2D9A
:102670002D2D2D2D2D2D2D2D2D2D2D2D002D2D2DB7
:102680002D2D2D2D2D2D2D2D2D2D2D2D2D2D2D2D7A
:102690002D2D2D2D2D2D2D2D2D2D2D2D2D2D2D2D6A
:1026A0002D2D2D2D2D2D2D2D2D2D2D2D2D2D2D2D5A
:1026B0002D2D2D2D2D2D2D2D2D2D2D2D2D2D2D2D4A
:1026C0002D0020202020202020202020202020201D
:1026D00020202053656E736F722064652066696CDC
:1026E000616D656E746F3A20002D2D2D2D2D2D2DD1
:1026F0002D2D2D2D2D2D2D2D2D2D2D2D2D2D2D2D0A
:102700002D2D2D2D2D2D2D2D2D2D2D2D2D2D2D2DF9
:102710002D2D2D2D2D2D2D2D2D2D2D2D2D2D2D2DE9
:102720002D2D2D2D2D2D2D2D2D2D2D2D2D002052EE
:1027300000202020202020202020202020202020B9
:10274000202020202020202020202054000020565F
:102750000020202020202020202020202020202099
:102760002020202020205000202020202020202059
:1027700020202020284D32303420503D7072696E68
:1027800074696E672C20563D74726176656C2061A9
:102790006E6420542A20523D7265747261637429FC
:1027A0000020202020202020202020202020202049
:1027B00020202020202020202020207C41636365D1
:1027C0006C65726174696F6E737C00002045002037
:1027D000204D323031205400204500205A0020592D
:1027E0000020202020202020202020202020202009
:1027F00020202020202020580020202020202020C1
:1028000020202020202020202020202020202020C8
:102810002020202020202020284D32303129002067
:1028200020202020202020202020202020202020A8
:1028300020207C4D6178696D756D20416363656C06
:1028400065726174696F6E20286D6D2F7332297CFB
:102850000020450020204D32303320540000204518
:1028600000205A0020590020202020202020202055
:102870002020580020202020202020202020202040
:102880002020202020202020202020202020202048
:10289000202020284D3230332900202020202020E5
:1028A0002020202020202020202020202020207CCC
:1028B0004D6178696D756D206665656472617465DA
:1028C0007320286D6D2F73297C0000204500202087
:1028D0004D3932205400436F6E6669673A002045D7
:1028E00000205A00205900202020202020202020D5
:1028F00020205800202020202020202020202020C0
:1029000020202020202020202020202020202020C7
:10291000202020284D39322900202020202020206E
:1029200020202020202020202020202020202020A7
:102930002020207C53746570732070657220756E42
:1029400069747C002D2D2D2D2D2D2D2D2D2D2D2D12
:102950002D2D2D2D2D2D2D2D2D2D2D2D2D2D2D2DA7
:102960002D2D2D2D2D2D2D2D2D2D2D2D2D2D2D2D97
:102970002D2D2D2D2D2D2D2D2D2D2D2D2D2D2D2D87
:102980002D2D2D2D2D2D2D2D0020202020202020FF
:102990002020202020202020202020202020202037
:1029A00020202020436F6E66696775726174696FBD
:1029B0006E002D2D2D2D2D2D2D2D2D2D2D2D2D2D33
:1029C0002D2D2D2D2D2D2D2D2D2D2D2D2D2D2D2D37
:1029D0002D2D2D2D2D2D2D2D2D2D2D2D2D2D2D2D27
:1029E0002D2D2D2D2D2D2D2D2D2D2D2D2D2D2D2D17
:1029F0002D2D2D2D2D2D0053657269653A004D6FDB
:102A000064656C6F3A200050616E74616C6C613A61
:102A100020002D2D2D2D2D2D2D2D2D2D2D2D2D2D20
:102A20002D2D2D2D2D2D2D2D2D2D2D2D2D2D2D2DD6
:102A30002D2D2D2D2D2D2D2D2D2D2D2D2D2D2D2DC6
:102A40002D2D2D2D2D2D2D2D2D2D2D2D2D2D2D2DB6
:102A50002D2D2D2D2D2D0047323800436F6E7469BA
:102A60006E756172001FFFFFF03FFFFFF87FFFFFF1
:102A7000FCFFFFFFFEFE7FFFFEFE7FC0FEF99FDE34
:102A8000FEF99FD2FEFE7FDAFEFE63D2FEFFC3DABE
:102A9000FEFFCFD2FEFFCFDAFEFFCFD2FEFFC3DABA
:102AA000FEFFE3927EFFFF333EFFFE619EFFFEC00E
:102AB000DEFFFE805EFFFEC0DEFFFE619EFFFF3395
:102AC0003EFFFF9E7EFFFFC0FEFFFFFFFEFFFFFFFA
:102AD000FE7FFFFFFC3FFFFFF81FFFFFF01FFFFF20
:102AE000F0300000186000000CC00000068180007B
:102AF0000281803F028660210286602D028180254E
:102B000002819C2D02803C250280302D02803025E0
:102B10000280302D02803C2502801C6D828000CC1A
:102B2000C280019E6280013F2280017FA280013F1E
:102B30002280019E628000CCC28000618280003FC2
:102B40000280000002C00000066000000C3000009F
:102B5000181FFFFFF01FFFFFF03FFFFFF87FFFFF91
:102B6000FCFFFFFFFEFFFFFFFEF8E3C0FEF843DEC1
:102B7000FEF803D2FEFC47DAFEFEEFD2FEFC47DA97
:102B8000FEF803D2FEF843DAFEF8E3D2FEFFFFDAE6
:102B9000FEFFFF927EFFFF333EFFFE619EFFFEC001
:102BA000DEFFFE805EFFFEC0DEFFFE619EFFFF33A4
:102BB0003EFFFF9E7EFFFFC0FEFFFFFFFEFFFFFF09
:102BC000FE7FFFFFFC3FFFFFF81FFFFFF01FFFFF2F
:102BD000F0300000186000000CC00000068000000B
:102BE00002871C3F0287BC210287FC2D0283B82587
:102BF0000281102D0283B8250287FC2D0287BC2597
:102C000002871C2D028000250280006D828000CC8E
:102C1000C280019E6280013F2280017FA280013F2D
:102C20002280019E628000CCC28000618280003FD1
:102C30000280000002C00000066000000C300000AE
:102C4000181FFFFFF054656D7065726174757261D5
:102C5000004D6F7665722059004D6F766572205A6F
:102C6000004D6F7665722058003FFFF87FFFFCFF34
:102C7000FFFEFFFFFEFFFFFEFE00FEFE00FEFE7FEA
:102C8000FEFE7FFEFE7FFEFE3FFEFF01FEFF80FE9A
:102C9000FFF8FEFFFCFEFFF8FEFE01FEFE03FEFF56
:102CA000FFFEFFFFFEFFFFFE7FFFFC3FFFF83FFF41
:102CB000F860000CC0000680000280000281FF0264
:102CC00081FF0281800281800281800281C00280B6
:102CD000FE02807F0280070280030280070281FEDD
:102CE0000281FC02800002800002C0000660000C2D
:102CF0003FFFF83FFFF87FFFFCFFFFFEFFFFFEFFF7
:102D0000FFFEFFC7FEFF87FEFF07FEFE27FEFE67F2
:102D1000FEFFE7FEFFE7FEFFE7FEFFE7FEFFE7FE41
:102D2000FFE7FEFF81FEFF81FEFFFFFEFFFFFEFFCC
:102D3000FFFE7FFFFC3FFFF83FFFF860000CC00084
:102D40000680000280000280380280780280F8024B
:102D500081D80281980280180280180280180280AF
:102D60001802801802801802807E02807E02800095
:102D700002800002C0000660000C3FFFF83FFFF831
:102D80007FFFFCFFFFFEFFFFFEFFFFFEF87E3EF031
:102D90003C3EE3183EE7913EE7933EE79F3EE79FC8
:102DA0003EE79F3EE79F3EE79F3EE31F3EF03C0E1F
:102DB000F86C0EFFFFFEFFFFFEFFFFFE7FFFFC3FF4
:102DC000FFF83FFFF860000CC000068000028000A2
:102DD000028781C28FC3C29CE7C2986EC2986CC240
:102DE0009860C29860C29860C29860C29860C29CA5
:102DF000E0C28FC3F28793F2800002800002C0001D
:102E00000660000C3FFFF84D6F76657220456A65DD
:102E100073004D6F76657220456A657300473238DE
:102E200000473238205800473238205900486F6D2B
:102E3000652028456A652058292028456A6520595B
:102E400029005072696D65726F205265616C697AF4
:102E5000617200416476657274656E6369610044F5
:102E600065205A6F6E61204465204D656469636911
:102E70006F6E00536F6E6461205A204675657261F3
:102E800000416476657274656E636961004732382B
:102E9000205A003FFFF87FFFFCFFFFFEFFFFFEF818
:102EA000003EF8003EFFFE3EFFFC7EFFF8FEFFF115
:102EB000FEFFE3FEFFC7FEFF8FFEFF1FFEFE3FFE8D
:102EC000FC7FFEF8FFFEF8003EF8003EFFFFFEFF2D
:102ED000FFFE7FFFFC3FFFF83FFFF860000CC000E3
:102EE0000680000287FFC287FFC28001C280038282
:102EF000800702800E02801C0280380280700280EF
:102F0000E00281C00283800287000287FFC287FF40
:102F1000C2800002C0000660000C3FFFF83FFFF8CF
:102F20007FFFFCFFFFFEFFFFFEF9FF3EF9FF3EF8CB
:102F3000FE3EF8FE3EFC7C7EFE38FEFF11FEFF8367
:102F4000FEFFC7FEFFC7FEFFC7FEFFC7FEFFC7FEAF
:102F5000FFC7FEFFC7FEFFFFFEFFFFFE7FFFFC3F38
:102F6000FFF83FFFF860000CC000068000028600FA
:102F7000C28600C28701C28701C283838281C702E1
:102F800080EE02807C028038028038028038028025
:102F90003802803802803802803802800002C00087
:102FA0000660000C3FFFF83FFFF87FFFFCFFFFFECD
:102FB000FFFFFEF0FE1EF87C3EFC7C7EFC387EFEB1
:102FC00010FEFF01FEFF83FEFFC7FEFF83FEFF0131
:102FD000FEFE10FEFE38FEFC7C7EF87C3EF0FE1EFF
:102FE000FFFFFEFFFFFE7FFFFC3FFFF83FFFF860A3
:102FF000000CC000068000028F01E28783C2838339
:103000008283C78281EF0280FE02807C02803802C8
:10301000807C0280FE0281EF0281C7028383828767
:1030200083C28F01E2800002C0000660000C3FFFF7
:10303000F84C6C6576617220416C204F726967654F
:103040006E20456A653A001FFFFFF03FFFFFF87FE3
:10305000FFFFFCFFFFFFFEFFF01FFEFFE7CC7EFF40
:10306000C8257EFF93917EFF27C97EFE4FE47EFC3C
:103070009FF27EF93FF93EF27FFC9EF4FFFE5EF088
:10308000FFFE1EFEFFFEFEFEFFFEFEFEF81EFEFE23
:10309000FBDEFEFEFBDEFEFEFBDEFEFEFBDEFEFEDC
:1030A000FBDEFEFEFBDEFEFEFBDEFEFE0000FEFFA4
:1030B000FFFFFE7FFFFFFC3FFFFFF81FFFFFF01F3A
:1030C000FFFFF0300000186000000CC00000068018
:1030D0000FE002801833828037DA82806C6E828043
:1030E000D8368281B01B8283600D8286C006C28D75
:1030F0008003628B0001A28F0001E2810001028146
:103100000001028107E10281042102810421028180
:10311000042102810421028104210281042102810F
:1031200004210281FFFF02C00000066000000C3095
:103130000000181FFFFFF01FFFFFF03FFFFFF87FA9
:10314000FFFFFCFFFFFFFEFFFEFFFEFFFC7FFEFF19
:10315000F83FFEFFF01FFEFFFC7FFEFFFC7FFEFF3F
:10316000FC7FFEFFFC7FFEFEFFFEFEFCFFFE7EF806
:103170000FE03EF00FE01EF80FE03EFCFFFE7EFE8B
:10318000FFFEFEFFFC7FFEFFFC7FFEFFFC7FFEFFDD
:10319000FC7FFEFFF01FFEFFF83FFEFFFC7FFEFFFF
:1031A000FEFFFE7FFFFFFC3FFFFFF81FFFFFF01F4A
:1031B000FFFFF0300000186000000CC00000068027
:1031C000010002800380028007C002800FE00280BD
:1031D00003800280038002800380028003800281DA
:1031E0000001028300018287F01FC28FF01FE28777
:1031F000F01FC283000182810001028003800280EF
:103200000380028003800280038002800FE002803E
:1032100007C00280038002C00100066000000C307D
:103220000000181FFFFFF04D6F76657220456A653C
:1032300073002D2D536567756E646F732D2D0050CF
:10324000756564652054617264617220556E6F7398
:103250000050617573616E646F20496D70726573A3
:10326000696F6E004D3235002D2D536567756E64A4
:103270006F732D2D00507565646520546172646113
:103280007220556E6F730043616E63656C616E648E
:103290006F20496D70726573696F6E004739310A2E
:1032A00047312045313520463135300A4739300A1B
:1032B0004739310A473120452D31303020463330EF
:1032C000300A4739300A4D3834004739310A47311E
:1032D000204531303020463135300A4739300A4DEB
:1032E0003834004739310A4731205A3130204633CB
:1032F0003530300A47393000416A7573746520648F
:10330000652046696C616D656E746F0043616C6326
:10331000756C616E646F2E2E2E005075656465208D
:1033200074617264617220756E6F73206D696E7561
:10333000746F7300416A757374616E646F205049D5
:10334000440043616C656E74616E646F2E2E2E00B6
:10335000506F72206661766F72206573706572655A
:10336000003FFFF87FFFFCFFFFFEFFFFFEFFFFFEB9
:10337000FFFFFEFFFFFEFFFFFEE6DE6EE6DE6EEA0B
:10338000DEAEEADEAEEADEAEECDECEECC2CEFFFFB3
:10339000FEFFFFFEFFFFFEFFFFFEFFFFFEFFFFFE43
:1033A0007FFFFC3FFFF83FFFF860000CC000068085
:1033B0000002800002800002800002800002992149
:1033C0009299219295215295215295215293213221
:1033D000933D328000028000028000028000028063
:1033E0000002C0000660000C3FFFF83FFFF87FFFBF
:1033F000FCFFFFFEFFFFFEFFFFFEFFFFFEFFFFFEE5
:10340000FFFFFEC2F176DEF776DEF7AEC6F1DEDE56
:10341000F7AEDEF776DE1176FFFFFEFFFFFEFFFF61
:10342000FEFFFFFEFFFFFEFFFFFE7FFFFC3FFFF8FA
:103430003FFFF860000CC0000680000280000280A0
:103440000002800002800002BD0E8AA1088AA10845
:1034500052B90E22A10852A1088AA1EE8A80000268
:10346000800002800002800002800002C00006602E
:10347000000C3FFFF83FFFF87FFFFCFFFFFEFFFF60
:10348000FEFFFFFEFFFFFEFFFFFEFFFFFEF38F1EAE
:10349000EDB6FEEDB6FEE18F3EEDB7DEEDB7DEED4B
:1034A0008E3EFFFFFEFFFFFEFFFFFEFFFFFEFFFF62
:1034B000FEFFFFFE7FFFFC3FFFF83FFFF860000CC0
:1034C000C0000680000280000280000280000280AE
:1034D00000028C70E29249029249029E70C29248A8
:1034E000229248229271C280000280000280000273
:1034F000800002800002C0000660000C3FFFF83F21
:10350000FFF87FFFFCFFFFFEFFFFFEFFFFFEFFFF58
:10351000FEFFFFFEFFFFFEE3BF3EEDBEDEEDBEDEC3
:10352000E3BE1EEFBEDEEFBEDEEF86DEFFFFFEFF78
:10353000FFFEFFFFFEFFFFFEFFFFFEFFFFFE7FFF20
:10354000FC3FFFF83FFFF860000CC000068000025F
:103550008000028000028000028000029C40C29233
:1035600041229241229C41E2904122904122907955
:10357000228000028000028000028000028000029F
:10358000C0000660000C3FFFF8507265646574650A
:10359000726D696E61646F004578747275736F72D5
:1035A0003A006C612074656D70657261747572614A
:1035B0000053656C656363696F6E65004731205A1F
:1035C000313520463430300A473238205A0A4731E4
:1035D000205A30004731205A31300A4732380A4DDC
:1035E000383400506F736963696F6E2034206465EE
:1035F0002034004731205A31300A473120583137C2
:1036000030205934302046323030300A47323820AA
:103610005A0A4731205A3000506F736963696F6EE0
:1036200020332064652034004731205A31300A4766
:103630003120583430205932353020463230303045
:103640000A473238205A0A4731205A30001FFFFFFC
:10365000F03FFFFFF87FFFFFFCFFFFFFFEFFF83F9B
:10366000FEFFE00FFEFF8003FEF70381FEF20FE096
:10367000FEF01FF07EF03FF87EF07FFC3EF03FFE54
:103680003EF01FFE1EFFFFFF1EFFFFFF1EFFFFFF9E
:103690001EFFFFFE1EFFFFFE3EFFFFFC3EFFFFF88A
:1036A0007EFF9FF07EFF0FE0FEFF0381FEFF8003A1
:1036B000FEFFE00FFEFFF83FFE7FFFFFFC3FFFFF36
:1036C000F81FFFFFF01FFFFFF03000001860000040
:1036D0000CC00000068007C002801FF002807FFC43
:1036E0000288FC7E028DF01F028FE00F828FC007E0
:1036F000828F8003C28FC001C28FE001E280000090
:10370000E2800000E2800000E2800001E28000012F
:10371000C2800003C28000078280600F8280F01F99
:103720000280FC7E02807FFC02801FF002C007C086
:10373000066000000C300000181FFFFFF0506F7390
:103740006963696F6E203220646520340047312040
:103750005A31300A4731205831373020593235300C
:103760002046323030300A473238205A0A4731205A
:103770005A3000506F736963696F6E203120646541
:103780002034004731205A31300A47312058343034
:10379000205934302046323030300A473238205AEF
:1037A0000A4731205A3000FFFFFFFFFFFFFFFFFFF6
:1037B000FFFFFFE0800000000000000000000000AC
:1037C00020B1C71C71C71C71C71C71C71C20A38EF8
:1037D00038E38E38E38E38E38E38A0871C71C71C1F
:1037E00071C71C71C71C71A08000000000000000A0
:1037F0000000000020FFFFFFFFFFFFFFFFFFFFFFB4
:10380000FFE0FFFFFFFFFFFFFFFFFFFFFFFFE08085
:103810000000000000000000000000208E38E38E51
:1038200038E38E38E38E38E3A09C71C71C71C71C47
:1038300071C71C71C720B8E38E38E38E38E38E3829
:10384000E38E208000000000000000000000002047
:10385000FFFFFFFFFFFFFFFFFFFFFFFFE0506F7263
:10386000206661766F72206573706572650001066F
:103870000A00FE070136026820FFFE08FE07FE0A66
:10388000006022176780808080800080163363A0EC
:10389000A0A00257675050F850F8505002576720C8
:1038A00070A07028702002576748A8502050A89038
:1038B00002576740A0A040A89068261363808080CC
:1038C0001237672040808080402012376780402078
:1038D000202040800355658850F8508803556520A6
:1038E00020F82020113363604080055161F81133C6
:1038F0006340E0400257670808102040808002576C
:1039000067205088888850200257672060A02020B8
:1039100020F8025767708808304080F8025767F82F
:1039200008103008887002576710305090F8101057
:10393000025767F880B0C808887002576730408027
:10394000B0C88870025767F808101020404002572E
:1039500067708888708888700257677088986808D0
:10396000106011376740E0400040E0401137674089
:10397000E0400060408012476710204080402010E7
:10398000045363F800F812476780402010204080FD
:1039900002576770881020200020025767708898AF
:1039A000A8B0807002576720508888F8888802572E
:1039B00067F04848704848F00257677088808080F8
:1039C0008870025767F04848484848F0025767F83F
:1039D0008080F08080F8025767F88080F0808080D7
:1039E0000257677088808098887002576788888837
:1039F000F8888888123767E04040404040E002572E
:103A000067381010101090600257678890A0C0A00F
:103A10009088025767808080808080F8025767888E
:103A200088D8A88888880257678888C8A89888880E
:103A300002576770888888888870025767F088887E
:103A4000F08080800158687088888888A870080293
:103A50005767F08888F0A090880257677088807058
:103A6000088870025767F82020202020200257671E
:103A7000888888888888700257678888885050505E
:103A800020025767888888A8A8D88802576788883E
:103A900050205088880257678888502020202002B4
:103AA0005767F80810204080F8123767E080808060
:103AB0008080E00257678080402010080812376736
:103AC000E02020202020E00653632050880151612F
:103AD000F82822628040025565700878887802577D
:103AE000678080B0C888C8B00255657088808870CB
:103AF000025767080868988898680255657088F8C2
:103B00008070025767304840F04040400057677867
:103B10008888780888700257678080B0C88888884D
:103B20001237674000C0404040E010496910003043
:103B300010101090906002576780808890E0908805
:103B4000123767C04040404040E0025565D0A8A809
:103B5000A888025565B0C88888880255657088882D
:103B60008870005767B0C888C8B080800057676801
:103B7000988898680808025565B0C880808002550A
:103B80006570807008F00257674040F04040483050
:103B90000255658888889868025565888850502045
:103BA0000255658888A8A85002556588502050881D
:103BB00000576788889868088870025565F8102053
:103BC00040F8124767304020C020403022176780FD
:103BD000808080808080124767C02040304020C0B5
:103BE00006536348A890FFFFFFFFFFFFFFFFFFFFA3
:103BF000FFFFFFFFFFFFFFFFFFFFFFFFFFFFFFFFD5
:103C0000FFFFFFFFFFFFFF0A0060221767800080B1
:103C1000808080800157672078A0A0A0782002577C
:103C200067304840E04048B0025565887050708861
:103C300001586888885020F820202022176780804B
:103C400080008080800158687080E090483808705B
:103C5000193161A00257677088A8C8A888701346F8
:103C6000667090B05000F0026565244890482414B6
:103C70004262F010154161F00257677088E8C8C8C9
:103C80008870095161F816336340A04002566620DF
:103C900020F82020F815456560902040F015456516
:103CA000E0106010E0282262408001566688888813
:103CB000C8B08002576778E8E8682828282511618D
:103CC00080202262408015356540C04040E01346A8
:103CD000666090906000F00265659048244890010D
:103CE000696940C04040E40C143C0401696940C06B
:103CF0004040E81404081C015969C0204020C8183D
:103D000028780802576720002020408870025868F1
:103D10004020708888F88888025868102070888849
:103D2000F888880258682050708888F88888025877
:103D30006848B0708888F888880258685000708891
:103D400088F888880258682050708888F888880227
:103D500067673C50909CF0909C0059697088808007
:103D6000808870204002586840F88080F08080F899
:103D700002586810F88080F08080F802586820F8B7
:103D80008080F08080F802586850F88080F0808051
:103D9000F81238688040E040404040E01238682027
:103DA00040E040404040E012386840A0E0404040E1
:103DB00040E0123868A000E040404040E002576711
:103DC000F04848E84848F0025868285088C8A89841
:103DD00088880258684020708888888870025868EF
:103DE00010207088888888700258682050708888F1
:103DF00088887002586828507088888888700258AF
:103E000068500070888888887002556588502050F6
:103E100088025767709898A8C8C8700258684020F0
:103E200088888888887002586810208888888888E0
:103E3000700258682050008888888870025868503E
:103E400000888888888870025868102088885020E8
:103E5000202002576780F088F080808002576770CA
:103E60008890A09088B00258684020007008788838
:103E70007802586810200070087888780258682006
:103E800050007008788878025868285000700878C8
:103E90008878025767500070087888780258682040
:103EA0005020700878887802656578147C907C00D2
:103EB00057677088808870204002586840200070E2
:103EC00088F880700258681020007088F8807002AE
:103ED00058682050007088F8807002576750007052
:103EE00088F88070123868804000C0404040E0127E
:103EF0003868408000C0404040E012386840A00070
:103F0000C0404040E0123767A000C0404040E0029F
:103F10005767C0307088888870025868285000B091
:103F2000C888888802586840200070888888700295
:103F300058681020007088888870025868205000E7
:103F40007088888870025868285000708888887047
:103F5000025767500070888888700355652000F804
:103F600000200255657898A8C8F0025868402000E3
:103F7000888888986802586810200088888898681F
:103F80000258682050008888889868025767500057
:103F900088888898680059691020888898680888F7
:103FA0007000586880F0888888F0808000596950D7
:103FB0000088889868088870636F6C6420657874DE
:103FC000727573696F6E2070726576656E74656464
:103FD000007C3C3E5E2B3D3F2F5B5D3B2C2A225CF0
:103FE00000446F6E6520736176696E672066696C48
:103FF000652E006572726F722077726974696E67E0
:1040000020746F2066696C6500203A203C3C3C209F
:1040100072756E5F7A5F70726F62650A00637572A7
:1040200072656E745F706F736974696F6E3D0000C6
:1040300000A0400000A04000000040203A203E3E8A
:104040003E2072756E5F7A5F70726F62650A006300
:10405000757272656E745F706F736974696F6E3DAF
:10406000003C3C3C2070726F62655F7074003E20C3
:10407000003E200029002C20003E20646F5F626C0F
:104080006F636B696E675F6D6F76655F746F5F7886
:10409000792800203A200A0063757272656E745F99
:1040A000706F736974696F6E3D0029002C20002CBD
:1040B00020003E3E3E2070726F62655F7074280083
:1040C0002900646F5F70726F62655F72616973650A
:1040D0002800496E666F3A0043616E6E6F7420650A
:1040E0006E746572207375626469723A20006F7035
:1040F000656E206661696C65642C2046696C653A62
:10410000200057726974696E6720746F2066696C4D
:10411000653A20006F70656E206661696C65642C7D
:104120002046696C653A200046696C652073656CB1
:104130006563746564002053697A653A20004669B6
:104140006C65206F70656E65643A20004D353030C7
:10415000005354415254205052494E5445523A0053
:1041600053442063617264206F6B00534420696E76
:104170006974206661696C004572726F723A004D15
:104180003131370A4D38340A4D31313720496D709D
:10419000726573696F6E2043616E63656C61646103
:1041A000004D363030004D313137205049442041E8
:1041B000637475616C697A61646F004D35303000ED
:1041C000494E4455535452494120415247454E545B
:1041D000494E410053657269653A00504B332B4597
:1041E000005620342E302E3700204D6F64656C6FE2
:1041F0003A0056657273696F6E3A001C3800000011
:1042000000000000001C7117DF7DE39E11F7C01C49
:10421000E111044114512901001DF9110441141147
:104220004501001FC1110479E41E45E1001DF9118B
:10423000044144147D01001CE11104412452450154
:10424000001C70E1047F13914501001C3800000040
:1042500000000000001C1DFFFFFFFFFFFFFFF0003C
:104260000000000000000000007FFFFFFFFFFFFFD5
:10427000FFFFC04D6F766572205A00566F6C7665F1
:104280007200303100506F736963696F6E20303196
:1042900000303100303200506F736963696F6E20F7
:1042A000303200303200303300506F736963696F11
:1042B0006E20303300303300303400506F73696348
:1042C000696F6E20303400303400303500506F7329
:1042D0006963696F6E20303500303500303600502C
:1042E0006F736963696F6E20303600303600303787
:1042F00000506F736963696F6E203037003037008C
:10430000303800506F736963696F6E203038003049
:1043100038003039007FFCC00680028002800280B5
:10432000028002800280028002800280028002C03D
:10433000067FFC506F736963696F6E2030390030FF
:1043400039007FFCFFFEFFFEFFFEFFFEFFFEFFFECB
:10435000FFFEFFFEFFFEFFFEFFFEFFFEFFFE7FFCF7
:104360006E6F2065737461626C656369646173006C
:104370004572726F723A2063617061730043616EBF
:1043800063656C61722063616D62696F0043616D8A
:1043900062696F20636170613A200041686F7261E9
:1043A00000456E20436170613A0043616D6269614E
:1043B000722066696C616D656E746F00496E696329
:1043C000696F004D3231005265636172676172201E
:1043D0005461726A657461205364003FFFF87FFF87
:1043E000FCFFFFFEFFFFFEFF003EFE2ABEFCAABE52
:1043F000F8AABEF8003EF8003EF8103EF8383EF845
:104400007C3EF8383EF8383EF8383EF8003EF8007A
:104410003EF8003EF8003EFFFFFE7FFFFC3FFFF846
:104420005461726A657461205364003FFFF87FFF36
:10443000FCFFFFFEFFFFFEFF003EFE2ABEFCAABE01
:10444000F8AABEF8003EF8003EF8003EF8003EF83C
:104450006C3EF88A3EF84A3EF82A3EF8CC3EF80018
:104460003EF8003EF8003EFFFFFE7FFFFC3FFFF8F6
:104470003FFFF860000CC0000680000280FFC28190
:10448000D54283554287554287FFC287FFC287EFD7
:10449000C287C7C28783C287C7C287C7C287C7C24E
:1044A00087FFC287C7C287FFC287FFC2C0000660FE
:1044B000000C3FFFF83FFFF860000CC000068000D2
:1044C0000280FFC281D54283554287554287FFC291
:1044D00087FFC287FFC287FFC28793C28775C287E3
:1044E000B5C287D5C28733C287FFC287FFC287FFA5
:1044F000C2C0000660000C3FFFF8416A7573746526
:104500002064652046696C616D656E746F0054654A
:104510006D70657261747572610043616C6962727D
:10452000617200417061676172204C656400456E84
:1045300063656E646572204C6564003FFFF860003F
:104540000CC01006803802807C0280FE0280380297
:104550008038028438428C00629F83F2BF83FA9FC6
:1045600083F28C006284384280380280380280FEF8
:1045700002807C02803802C0100660000C3FFFF809
:104580004D6F76657220456A6573003FFFF87FFFC7
:10459000FCFFEFFEFFC7FEFF83FEFF01FEFFC7FE2D
:1045A000FFC7FEFBC7BEF3FF9EE07C0EC07C06E0AB
:1045B0007C0EF3FF9EFBC7BEFFC7FEFFC7FEFF01D9
:1045C000FEFF83FEFFC7FEFFEFFE7FFFFC3FFFF80D
:1045D0003FFFF860000CC0000680000280000283EC
:1045E000FF828600C285014284384284444284822C
:1045F0004284924284824284444284384285014209
:104600008600C283FF82800002800002C000066034
:10461000000C3FFFF8417061676172204D6F746F4D
:10462000726573003FFFF87FFFFCFFFFFEFFFFFE98
:10463000FFFFFEFC007EF9FF3EFAFEBEFBC7BEFB9D
:10464000BBBEFB7DBEFB6DBEFB7DBEFBBBBEFBC729
:10465000BEFAFEBEF9FF3EFC007EFFFFFEFFFFFE3E
:10466000FFFFFE7FFFFC3FFFF83FFFF860000CC03C
:10467000000681FF0283018282008282008287FF1E
:10468000C287FFC287C1C28783C2873FC2873FC23A
:104690008783C287C1C287F9C287F9C28781C2876F
:1046A00003C287FFC2C0000660000C3FFFF84B75D5
:1046B0007474657263726166742053746F726500FE
:1046C0003FFFF87FFFFCFFFFFEFE00FEFCFE7EFDCD
:1046D000FF7EFDFF7EF8003EF8003EF83E3EF87C8F
:1046E0003EF8C03EF8C03EF87C3EF83E3EF8063E3E
:1046F000F8063EF87E3EF8FC3EF8003EFFFFFE7FE7
:10470000FFFC3FFFF8416A75737465730053616C79
:10471000697200426F7272617200456E76696172F1
:10472000004573706163696F002E00580059005A8C
:104730000045004600530050004300496E67726513
:10474000736520436F6469676F00436F6D616E64CA
:104750006F3A0053616C69720047004D00496E6703
:104760007265736520436F6469676F00436F6D61A5
:104770006E646F3A0045737461646F206465204C09
:104780006F73204361626C657300436F7272656181
:104790007320475432004C75627269636163696FBC
:1047A0006E00426F7175696C6C6120792042617294
:1047B00072656C00417669736F204D616E74656E31
:1047C000696D69656E746F005265637565726465C5
:1047D0002052657669736172002000E07001C0F8B4
:1047E00003807803843C038C0E07FC070EF8039DBE
:1047F000F0017B8000F70000EE0001DC0003BB004D
:104800000777803EEFC07DCFE0FF87F0C703F887D2
:1048100001FC0700FC0E007C1C00383135252045CA
:104820006E204D617175696E6173003230252045CF
:104830006E2052657370756573746F730031302527
:1048400020456E204D617175696E617300323025AF
:1048500020456E2052657370756573746F730032F6
:10486000302520456E2052657370756573746F73C3
:104870000033312E342520456E20426F7175696CEE
:104880006C61730031352520456E2052657370755B
:104890006573746F730031352520456E2046696C51
:1048A000616D656E746F0031322520456E20526552
:1048B0007370756573746F730031322520456E20F7
:1048C00046696C616D656E746F0031302520456EF0
:1048D0002052657370756573746F730031302520D5
:1048E000456E2046696C616D656E746F00333025CE
:1048F00020456E204E756573747261205469656E33
:1049000064610032352520456E204E7565737472E2
:1049100061205469656E64610032352520456E2042
:104920004E756573747261205469656E64610032FE
:10493000352520456E204E7565737472612054696B
:10494000656E64610032302520456E204D617175C1
:10495000696E61730032302520456E204E75657397
:10496000747261205469656E64610032302520459F
:104970006E204E756573747261205469656E646152
:104980000032302520456E204E75657374726120AB
:104990005469656E64610031352520456E204D6196
:1049A0007175696E61730032302520456E204E7539
:1049B0006573747261205469656E646100313525D8
:1049C00020456E204E756573747261205469656E62
:1049D00064610031352520456E204D617175696E29
:1049E00061730031352520456E204E7565737472F4
:1049F00061205469656E646100353025205365720D
:104A0000766963696F205465636E69636F00313046
:104A10002520456E204E756573747261205469655A
:104A20006E64610031352520456E20496E73756DC9
:104A30006F730031302520456E204E75657374729A
:104A400061205469656E64610032352520456E2011
:104A50004772696C6F4E330020352520456E204D1E
:104A6000617175696E617300556E20456E76696F70
:104A7000204772617469732121210031302520455E
:104A80006E2046696C616D656E746F00313525204E
:104A9000456E2052657370756573746F73003130A5
:104AA0002520456E2046696C616D656E746F0054FB
:104AB000455354004157534400454442410042533A
:104AC0004153004150455800424F4F4D00424F4C1A
:104AD0004F00434F5341004449414C00444154412D
:104AE000004441544F004445414C004641524F0060
:104AF000464F524F00434F504F004341504F0041EB
:104B00004148480041554C410041555757005844D1
:104B10005844005850585300494F53580044494F87
:104B2000530041565247005246464600545854538B
:104B30000043414454004255554800484F484F00F7
:104B40004C4F474F004D495241004F55454C00488E
:104B50004E5750004655525400494E495400446542
:104B6000736375656E746F3A200056657220436FEB
:104B70006E646963696F6E657320456E3A006B758C
:104B80007474657263726166742E636F6D2F7072D8
:104B90006F6D6F004465736375656E746F00437568
:104BA000706F6E20446500FC0004000200E18090FC
:104BB0008088808880A880A8808880A880A8808835
:104BC00080A880A8808880A880A880888088808825
:104BD000809080E18002000400FC001F8010002013
:104BE00000C38086808C8088808A808A8088808AC2
:104BF000808A8088808A808A8088808A808A80886B
:104C00008088808C808680C380200010001F8001F7
:104C1000050800FF060121023520FFFF07FF06FF00
:104C2000090050221656808080800080153353A0E2
:104C3000A0A00257575050F850F850500257572034
:104C400070A07028702013355580A040A020024726
:104C50005740A0A040A0A05025135380808012266A
:104C600056408080808040122656804040404080E0
:104C70000245559060F060900255552020F82020A4
:104C8000113353604080044151F011335340E040F0
:104C900002465610102040808012365640A0A0A038
:104CA000A04012365640C0404040E0024656609058
:104CB000106080F0024656F0206010906002465668
:104CC0002060A0F02020024656F080E010906002A4
:104CD00046566080E0909060024656F010202040DA
:104CE00040024656609060909060024656609090F8
:104CF000701060122555C0C000C0C01136566060EB
:104D0000006040801236562040808040200343538C
:104D1000F000F01236568040202040801236564077
:104D2000A020400040015858304898A8A890403032
:104D3000024656609090F09090024656E090E090C7
:104D400090E0024656609080809060024656E09067
:104D5000909090E0024656F080E08080F002465647
:104D6000F080E0808080024656609080B0906002C3
:104D700046569090F0909090123656E04040404059
:104D8000E002465670202020A04002465690A0C067
:104D9000A0A0900246568080808080F00246569007
:104DA000F0F090909002465690D0F0B0B09002464D
:104DB00056609090909060024656E09090E080801F
:104DC000014757609090D0B06010024656E0909036
:104DD000E09090024656609040209060123656E077
:104DE000404040404002465690909090906002466D
:104DF00056909090906060024656909090F0F0909F
:104E000002465690906060909002565688885020D6
:104E10002020024656F010204080F0123656E080E6
:104E2000808080E002465680804020101012365666
:104E3000E020202020E016325240A0014151F0161F
:104E400022528040024454709090700246568080F6
:104E5000E09090E01234546080806002465610105A
:104E60007090907002445460B0C06002465620506A
:104E700040E0404001455560907010600246568009
:104E800080E09090901236564000C04040E01137CC
:104E9000572000202020A040024656808090E090BD
:104EA00090123656C040404040E0025454D0A8A86A
:104EB000A8024454E09090900244546090906001A5
:104EC0004555E090E08080014555709070101002CB
:104ED0004454A0D0808012345460C020C002465692
:104EE0004040E0405020024454909090701234545E
:104EF000A0A0A04002545488A8A850024454906036
:104F000060900145559090709060024454F02040AC
:104F1000F0024757304020C0204030221656808093
:104F200080808080024757C02040304020C0064229
:104F30005250A0FFFFFFFFFFFFFFFFFFFFFFFFFF3C
:104F4000FFFFFFFFFFFFFFFFFFFFFFFFFFFFFFFF71
:104F5000FFFFFFFF090050221656800080808080EE
:104F60000146562070A0A070200246562050E04016
:104F700050A002555588705070880256568850F8D7
:104F800020F82022175780808000808080024757B9
:104F90007080E0907010E0173151A002565670A852
:104FA000C8C8A87014355560A06000E00343535092
:104FB000A050123353E02020143151E002565670B5
:104FC000E8D8E8D870173151E015335340A04012AB
:104FD000355540E04000E014355540A02040E01435
:104FE0003555C020C020C016225240800145559042
:104FF0009090E08002565678E8E8682828241151FD
:1050000080112252408014355540C04040E0143594
:105010005540A04000E0034353A050A002475780F2
:105020008080A060F0200247578080A0D0102070C0
:1050300002475780408060A0F02012365640004062
:1050400080A04002475740206090F0909002475760
:1050500020406090F0909002475760906090F090F0
:105060009002475750A06090F090900247579000F0
:105070006090F0909002475760906090F09090029E
:10508000465670A0A0F0A0B0014757609080809075
:1050900060400247574020F080E080F002475720F0
:1050A00040F080E080F00247576090F080E080F0B0
:1050B0000247579000F080E080F01237578040E0C0
:1050C000404040E01237572040E0404040E0123777
:1050D0005740A0E0404040E0123757A000E0404079
:1050E00040E00256567048E848487002475750A0C2
:1050F00090D0B0909002475740206090909060020E
:1051000047572040609090906002475760906090B1
:1051100090906002475750A060909090600247576F
:1051200090006090909060123353A040A0024656C9
:1051300070B0B0D0D0E0024757402090909090607F
:10514000024757204090909090600247576090909F
:105150009090906002475790009090909060025716
:10516000571020885020202002465680E09090E082
:10517000800246566090A0A090A0024757402000B1
:1051800070909070024757204000709090700247D6
:10519000572050007090907002475750A0007090B8
:1051A0009070024656500070909070024757609081
:1051B0006070909070025454F068B078113555606A
:1051C0008080604002475740200060B0C0600247C6
:1051D0005720400060B0C06002475760900060B048
:1051E000C060024656500060B0C060123757804021
:1051F00000C04040E0123757204000C04040E0125D
:10520000375740A000C04040E0123656A000C040D2
:1052100040E0024757A040A01070906002475750EE
:10522000A000E0909090024757402000609090606E
:1052300002475720400060909060024757609000FE
:105240006090906002475750A000609090600246C6
:10525000569000609090601235554000E00040028A
:10526000445470B0D0E002475740200090909070B6
:10527000024757204000909090700247576090007E
:10528000909090700246569000909090700148580F
:1052900020400090907090600147578080E090E03F
:1052A000808001475790009090709060473737009A
:1052B00054617265612030332076616C6F722064B6
:1052C00065207A002D2D2D2D2D2D2D2D2D2D2D2DC3
:1052D0002D2D2D2D2D2D2D2D2D2D2D2D2D2D2D2DFE
:1052E0002D2D2D2D0070790070783A2000546172B8
:1052F0006561203033206D6F76696E67005461728E
:10530000656120303200506F72206661766F7220C6
:10531000657370657265005265616C697A616E646F
:105320006F20486F6D652E2E2E00546172656120CE
:10533000303000473238004D6F766572205A004D8C
:10534000353030004739310A4731205A2D35302069
:1053500046323030300A4732380A4D313137204535
:105360006A65205A20416C696E6561646F00473937
:10537000310A4731205A312046323030300A47391D
:10538000300043616C696272616E646F2E2E2E0074
:10539000506F72206661766F7220657370657265FA
:1053A0000043616C696272616E646F2E2E2E005034
:1053B0006F72206661766F7220657370657265002A
:1053C0004732380A4739310A4731205A3430205899
:1053D00034302046343030300A473930006C6F7337
:1053E000206D6F746F72657320766962726172618D
:1053F0006E006C61207061727465207375706572E7
:10540000696F6E00766120206120636F6C6973693B
:105410006F6E617220636F6E0041647665727465B1
:105420006E63696120656C20456A65205A006B7562
:105430007474657263726166742E636F6D2F626C33
:105440006F67004D6178696D6F206F204D696E69DF
:105450006D6F0050726F74656363696F6E20546581
:10546000726D69636100416476657274656E63692B
:10547000612054312043616D61006B7574746572F5
:1054800063726166742E636F6D2F626C6F67004D7F
:105490006178696D6F206F204D696E696D6F005086
:1054A000726F74656363696F6E205465726D6963B2
:1054B0006100416476657274656E63696120543081
:1054C00020486F74656E64006B75747465726372E6
:1054D0006166742E636F6D2F626C6F670056617228
:1054E000696163696F6E206465746563746164618A
:1054F0000050726F74656363696F6E205465726DDE
:1055000069636100416476657274656E63696120E8
:10551000543020486F74656E64006B7574746572E6
:1055200063726166742E636F6D2F626C6F67004EDD
:105530006F206861792043616C656E74616D696587
:105540006E746F0050726F74656363696F6E205480
:1055500065726D69636100416476657274656E633E
:10556000696120543020486F74656E64000006093C
:1055700000FE070192032120FFFF08FF07FF000044
:10558000000600000107070602008080808080007E
:1055900080030202060105A0A005070706000050CF
:1055A00050F850F850500507070600002078A0700A
:1055B00028F020050707060000C0C81020409818F2
:1055C0000507070600006090A040A890680203034A
:1055D000060104C0408003070706010020408080C8
:1055E00080402003070706010080402020204080E3
:1055F00005050506000120A870A820050505060080
:10560000012020F820200203030602FFC04080058D
:105610000101060003F8020202060200C0C00505EF
:1056200005060001081020408005070706000070ED
:1056300088888888887003070706010040C04040BA
:105640004040E0050707060000708808708080F879
:10565000050707060000F81020100808F0050707E6
:1056600006000010305090F81010050707060000E3
:10567000F880F00808887005070706000070808031
:10568000F0888870050707060000F8081020202021
:105690002005070706000070888870888870050755
:1056A0000706000070888878080870020505060261
:1056B00000C0C000C0C00206060602FFC0C000C095
:1056C000408004070706000010204080402010059D
:1056D0000303060002F800F80407070601008040F3
:1056E0002010204080050707060000708808102061
:1056F000002005070706000070880868A8A8700544
:105700000707060000708888F8888888050707065C
:105710000000F08888F08888F00507070600007010
:10572000888080808870050707060000F0888888D8
:105730008888F0050707060000F88080F08080F870
:10574000050707060000F88080F0808080050707C5
:10575000060000708880B88888700507070600007A
:10576000888888F88888880107070602008080807A
:105770008080808005070706000038101010109008
:10578000600507070600008890A0C0A09088050764
:1057900007060000808080808080F80507070600EB
:1057A0000088D8A8888888880507070600008888A8
:1057B000C8A8988888050707060000708888888828
:1057C0008870050707060000F08888F08080800553
:1057D000070706000070888888A8906805070706F4
:1057E0000000F08888F0A090880507070600007880
:1057F0008080700808F0050707060000F8202020C8
:10580000202020050707060000888888888888707F
:105810000507070600008888888888502005070744
:105820000600008888888888A850050707060000B9
:1058300088885020508888050707060000888888D7
:1058400050202020050707060000F808102040809F
:10585000F8030707060100E08080808080E00505EE
:10586000050600018040201008030707060100E03C
:105870002020202020E00503030600042050880596
:105880000101060000F8020202060205804005053B
:105890000506000070087888780507070600008074
:1058A00080B0C88888F005050506000070808088F3
:1058B00070050707060000080868988888780505BD
:1058C000050600007088F8807005070706000030A4
:1058D00048E0404040400506060600FF7088887892
:1058E00008700507070600008080B0C88888880116
:1058F0000707060200800080808080800308080679
:1059000001FF200020202020A040040707060000FF
:10591000808090A0C0A090030707060100C040400F
:10592000404040E0050505060000D0A8A8A8A8054D
:105930000505060000B0C888888805050506000032
:1059400070888888700506060600FFF08888F08059
:10595000800506060600FF78888878080805050592
:10596000060000B0C8808080050505060000708034
:105970007008F00407070600004040E04040403057
:105980000505050600008888889868050505060055
:105990000088888850200505050600008888A8A88A
:1059A00050050505060000885020508805060606AB
:1059B00000FF888888780870050505060000F81043
:1059C0002040F803070706010020404080404020A7
:1059D000010707060200808080808080800307071F
:1059E000060100804040204040800502020600027F
:1059F00068900000000600000000000600000000A3
:105A00000006000000000006000000000006000084
:105A10000000000600000000000600000000000674
:105A2000000000000006000000000006000000006A
:105A30000006000000000006000000000006000054
:105A40000000000600000000000600000000000644
:105A5000000000000006000000000006000000003A
:105A60000006000000000006000000000006000024
:105A70000000000600000000000600000000000614
:105A8000000000000006000000000006000000000A
:105A900000060000000000060000000000060000F4
:105AA00000000006000000000006000000000006E4
:105AB00000000000000600000000000600000107D2
:105AC00007060200800080808080800507070600AE
:105AD000002070A8A0A8702005070706000030402D
