:100000000C9482480C94B3480C94B3480C94B348B5
:100010000C94B3480C94B3480C94B3480C94B34874
:100020000C94B3480C94B3480C94B3480C94B34864
:100030000C94B3480D94C3910C94B3480C94B348FA
:100040000C94B3480D94660B0C94B3480C94B348CD
:100050000C94B3480C94B3480D94313C0D947991B1
:100060000C94B3480C947ABE0C944ABE0C94B348DA
:100070000C94B3480C94B3480C94B3480C94B34814
:100080000C94B3480C94B3480C94B3480C94B34804
:100090000C94B3480C94B3480C94B3480C94B348F4
:1000A0000C94B3480C94B3480C94B3480C94B348E4
:1000B0000C94B3480C94B3480C94B3480C94B348D4
:1000C0000C94B3480C94B3480C94B3480D948B92A1
:1000D0000D9462920C94B3480C94B3480C94B348BA
:1000E0000C94B348434E4E4E774ED34E284FA84FF4
:1000F000B14F317F3F7E757E6D7F757E757E757EDB
:10010000757E757E757E757E757E757E757E757E57
:10011000757E757E757E757E757E757E757E757E47
:10012000757E757E757E757E757E757E757E677F44
:10013000757E757E757E757E757E757E757E757E27
:10014000417F757E757E757E757E757E757E757E4A
:10015000757E757E757E8A7F727E1B026F038F02AD
:10016000870309023D03F30249037F027B03710207
:10017000CD02D50127027D0363021D028F03010317
:10018000D3021502B502F5026EFF6EFF6EFF6EFF21
:100190006EFF6EFF6EFF6EFF6EFF6EFF6EFF6EFFF7
:1001A0006EFF6EFF6EFF6EFF6EFF6EFF6EFF6EFFE7
:1001B0006EFF6EFF6EFF6EFF6EFF6EFF6EFF6EFFD7
:1001C0006EFF6EFF6EFF6EFF6EFF6EFF6EFF6EFFC7
:1001D0006EFF6EFF6EFF6EFF6EFF6EFF6EFF6EFFB7
:1001E0006EFF6EFF6EFF6EFF6EFF6EFF6EFF6EFFA7
:1001F0006EFF6EFF6EFF6EFF6EFF6EFF6EFF6EFF97
:100200006EFF6EFF6EFF6EFF6EFF6EFF6EFF6EFF86
:100210006EFF6EFF6EFF6EFF6EFF6EFF6EFF6EFF76
:100220006EFF0D028D03B702CF02CD0119039702B5
:10023000E701FCFFD8FFB4FF4CFF9502BD02C302EB
:100240009B039F0369038902C5010102BF016D027F
:100250000B020D03A103510203020503C9021D0392
:100260005D0363038302990247026103450275033C
:100270006B02DB02A9028B037F0391022F03DF01D4
:100280003B02A7023902AB03F1017F03510359037B
:10029000AB028303290285037502530269022D0311
:1002A00023020F035B029703F7014303570369021D
:1002B000E102CB01C5025502B902FB022D027B020D
:1002C000D902B903AF0325023B03D7016102C7027C
:1002D000BF0241021703B1026F02BD03ED011B0310
:1002E000AD0373037302E501E502D1024F033F033F
:1002F0004B026502FF02FB013103FD01BF03250331
:100300004D03BB02BB03F9018102E9024302B503BD
:10031000390317021902EB01EB024D02E9016503F3
:100320009103A7035D02930241030303C7011F0367
:10033000B103084AD73B3BCE016E84BCBFFDC12F41
:100340003D6C74319ABD56833DDA3D00C77F11BEC6
:10035000D9E4BB4C3E916BAAAABE000000803F05C9
:10036000A84CCDB2D44EB93836A9020C50B99186FA
:1003700088083CA6AAAA2ABE000000803F000D946F
:10038000A0070D94CF290D943C620D94EA070D94BB
:100390005C770D949D5F0D942E3A0D948C000D9416
:1003A000D51E0D94AA460D940D690D94A8020D94C6
:1003B000FF3C0D94DE4A0D94F5660D94D5640D94C2
:1003C000F5320D9443970D94E2640D94765B0D9491
:1003D00020000D9464780D949B730D943F5B0D94F5
:1003E000FA200D940B330D94F8630D9430900D9416
:1003F000013A0D94EB740D94F3720D94E7750D941E
:10040000B3900D94FB070D9487080D94C46C0D9464
:10041000AC470D94C8030D948C070D941C010D94EA
:10042000B8930D9426260D94C81D0D9488010D9443
:10043000EF730D94C5730D9458040D9418020D9428
:10044000B75C0D940E900D94DB390D94F73C0D9430
:1004500084020D94B0390D940C910D94CC3C0D9404
:10046000EF640D94221A0D943B760D941D670D9444
:10047000CA980D9403330D94F9320D94C4950D94DC
:1004800063670D940F3D0D946D740D94E2080D9407
:100490001E090D9418650D9471730D9438780D94A0
:1004A0009B930D9478080D94C9390D948D3C0D944F
:1004B000EF5F0D944FA00D94ED390D940C780D94D1
:1004C0001E5C0D94043D0D943C020D9447730D94F5
:1004D000B6960D94423A0D94E7320D94B4070D94FC
:1004E0001C3D0D94F0020D946B5B0D94BF390D947F
:1004F000664E0D944A160D94E73C0D948F470D946B
:1005000038030D94C1740D94D5080D946E700D943C
:1005100080710D94D9070D94FD680D9422900D946F
:1005200010040D94EB320D94BC780D9420080D94BA
:1005300044000D9411090D9441650D94CE180D944D
:10054000ED680D94E6600D9472930D94D8470D9468
:10055000FD320D94DA320D9419330D942F160D944B
:10056000FF8F0D94173D0D946D1B0D9464010D9438
:10057000D4000D949D3C0D943F750D9431080D945D
:100580000C3D0D94D55E0D9442080D94383A0D94AF
:10059000073D0D94A1080D943D7D0D94CC020D9462
:1005A000B0000D94095B0D94AC010D94F45E0D94B4
:1005B0001D200D94EC3C0D94D6320D9465160D94CF
:1005C00085650D94243A0D948B7A0D94265B0D94D9
:1005D00091610D9497740D943A720D9467900D94F7
:1005E00046910D94617E0D9480030D9440010D940D
:1005F000CA640D94A94C0D94BC3C0D94325F0D94CB
:100600001D730D94D0010D9414790D9494080D94DC
:1006100042670D94AF4F0D940B630D940C080D942D
:10062000E3390D9418600D94AE680D945F5E0D94DF
:10063000143D0D9468000D944C5B0D94AE080D9420
:1006400090780D949B950D948D950D9493750D94C4
:1006500051050D94F07B0D9440790D94D3390D9490
:10066000EF320D9411760D947B960D94C65F0D9428
:1006700020930D9419740D94FC3C0D94A4030D94D7
:100680009F720D94E8780D94103A0D94625F0D946A
:10069000ED950D945C030D940C2F0D9469750D94DC
:1006A000C9720D9411330D947C040D9444910D94F2
:1006B0001A3A0D9415330D9416960D94BB080D94AB
:1006C000D58F0D942F090D94C8080D9488770D943B
:1006D00049930D94C8070D94664C0D94985B0D9446
:1006E00034040D943C1C0D94605B0D94E4320D9425
:1006F00038270D94E1930D9414030D9460020D942A
:100700001E330D94F7920D94AB390D94B5390D94B9
:10071000EC030D9488060D94E0320D94F8000D94CE
:10072000F4010D94B4770D947A170D94A93A0D94B1
:10073000F7390D9487530D9453080D9491520D94ED
:1007400064080D9404090D94A5500D943B600D941C
:10075000E0770D94E95D0D9407330D94565B0D948D
:10076000F43C0D94F8760D94135F0D9443740D943E
:100770008B970D94EF3C0D9415750D94263D0D94BB
:10078000BD750D949B514E414E494E495459494EA9
:1007900046CDCCCC3D0AD7233C17B7D13877CC2BEC
:1007A000329595E6241FB14F0A000020410000C891
:1007B0004200401C4620BCBE4CCA1B0E5AAEC59D12
:1007C0007400407A10F35A00A0724E18090010A568
:1007D000D4E80000E87648170000E40B540200005B
:1007E000CA9A3B000000E1F50500008096980000E1
:1007F0000040420F000000A086010000001027000A
:10080000000000E803000000006400000000000A8F
:1008100000000000000100000000002C76D888DCF9
:10082000674F0823DFC1DFAE59E1B1B796E5E3E4D6
:1008300053C63AE651997696E8E6C28426EB898C4F
:100840009B62ED407C6FFCEFBC9C9F40F2BAA56FB1
:10085000A5F490055A2AF75C936B6CF9676DC11B80
:10086000FCE0E40D47FEF520E6B500D0ED902E0348
:1008700000943577050080841E080000204E0A0091
:100880000000C80C333333330F986E12831141EFDD
:100890008D2114893BE65516CFFEE6DB18D1844B3B
:1008A000381BF77C1D901DA4BBE424203284725EAB
:1008B000228100C9F124ECA1E53D27414C4C0043C5
:1008C0004F4D4D554E49434154494F4E00445259A6
:1008D00052554E004552524F525300494E464F001A
:1008E0004543484F005265706F736F2E2E2E0041A6
:1008F00075746F6C6576656C3A206F6E004D616E35
:1009000075616C6576656C3A206F6E0050756E741B
:100910006F20616C63616E7A61646F0047323920C9
:100920005334002F3900200050756E746F004D3520
:1009300030300A4732380A47312058313020593197
:1009400030205A31300A4D313137204175746F6C87
:10095000657665207265616C697A61646F00473203
:1009600039205335004732392053350A4731205A50
:1009700030204631353030004737370A473239208A
:100980005335005A206E6F7420656E74657265640D
:100990002E0059206E6F7420656E74657265642E2A
:1009A0000059206F7574206F662072616E67652034
:1009B00028312D33292E0058206E6F7420656E74F7
:1009C000657265642E0058206F7574206F66207202
:1009D000616E67652028312D33292E00473239207A
:1009E0005334004732380A473239205332004572B7
:1009F000726F723A204175746F2D43616C69627237
:100A00006163696F6E2061706167616461005A2083
:100A10006F66667365742041637475616C3A20007B
:100A2000532053757065726120656C206E756D651D
:100A3000726F20646520636F6D616E646F73203721
:100A40002E003C3C3C2067636F64655F4733300099
:100A5000205A3A200020593A200020583A200042DB
:100A60006564003E3E3E2067636F64655F473330D8
:100A700000205A3A200020593A200020583A2000FD
:100A80004265640020453A00205A3A0020593A0055
:100A90003C2D583A00205300536176656420706FF6
:100AA000736974696F6E00496E76616C6964207356
:100AB0006C6F742C20746F74616C20736C6F747322
:100AC0003A20003A0020002D3E002053005265736A
:100AD000746F72696E6720706F736974696F6E00EE
:100AE000496E76616C696420736C6F742C20746F2E
:100AF00074616C20736C6F74733A2000537461726C
:100B000074205072696E74696E670053746F702040
:100B10005072696E74696E670053696E206D6F76EE
:100B2000696D69656E746F00456E642066696C65F9
:100B3000206C69737400426567696E2066696C6534
:100B4000206C697374002F005344207072696E74B6
:100B5000696E67206279746520004E6F742053447B
:100B6000207072696E74696E67005072696E7420CD
:100B700074696D6520002569682025696D202569E7
:100B80007300256964202569682025696D20256921
:100B900073004469726563746F7279206372656172
:100BA000746564004372656174696F6E2066616983
:100BB0006C656400436C6F73652066696C652061C9
:100BC0006E64207361766520726573746172742E31
:100BD00067636F64650020616E6420737461727472
:100BE000207072696E742E004F70656E2066696C9D
:100BF000653A20004B757474657263726166742087
:100C00004F46462E0043616C656E74616E646F2EB4
:100C10002E2E004B75747465726372616674206C5D
:100C2000697374612E006F666600E008DB08D40803
:100C3000CD08BF08BB0844656275673A0050415251
:100C400041444120444520454D4552472E004D31F9
:100C500031332053004649524D574152455F4E4172
:100C60004D453A4B555454455243524146545F56B4
:100C700020342E302E3130204649524D57415245B6
:100C80005F55524C3A687474703A2F2F7777772EED
:100C90006B757474657263726166742E636F6D2F09
:100CA000736F6674776172652050524F544F434F93
:100CB0004C5F56455253494F4E3A322E30204D41EB
:100CC0004348494E455F545950453A4361727465F3
:100CD0007369616E2045585452554445525F434FE5
:100CE000554E543A3220555549443A3332346266AF
:100CF0006134322D613432372D313165362D383043
:100D000066352D3736333034646563376562370AAC
:100D1000006373746570733A2000655F6D696E3AA5
:100D200020007A5F70726F62653A20007A5F6D69A9
:100D30006E3A2000795F6D696E3A2000785F6D69C8
:100D40006E3A20005265706F7274696E6720656E2E
:100D50006473746F702073746174757300205A002B
:100D6000205900580020204D61783A2000205A0078
:100D7000205900580020204D696E3A2000536F66BC
:100D80007420656E6473746F70733A004329006158
:100D9000626C656420286D696E2074656D7020003A
:100DA000436F6C642065787472756465732061723A
:100DB0006520004F6666736574206170706C6965AC
:100DC000642E004F6666736574206170706C69658F
:100DD000642E004572723A20546F6F206661722152
:100DE00000546F6F206661722066726F6D207265AD
:100DF000666572656E636520706F696E740043612D
:100E000070613A200020496E76616C6964206578D3
:100E1000747275646572005400416374697665206C
:100E200045787472756465723A200041637469761E
:100E300065204472697665723A20003C3C3C20672C
:100E4000636F64655F5400203A2041465445520A5E
:100E50000063757272656E745F706F736974696F29
:100E60006E3D00203A204245464F52450A006375C8
:100E70007272656E745F706F736974696F6E3D0036
:100E800029003E3E3E2067636F64655F5428002260
:100E900000436F6D616E646F206E6F20656E636FCF
:100EA0006E747261646F3A2022004D363030004D0E
:100EB0003630300073652061637469766F203100CD
:100EC0004563686F3A0056657273696F6E3A004306
:100ED0006F6E66696775726163696F6E00417267F4
:100EE000656E74696E6100496E64757374726961D0
:100EF000004B5554544552435241465400000000A3
:100F00000F00000000000000198000000000000039
:100F100070E0000000000000C63000000000000388
:100F20009F9C00000000000E3FC70000000000383A
:100F3000FFF1C00000000063FFFC6000000001CF73
:100F4000FFFF38000000071FFFFF8E0000001C7F1E
:100F5000FFFFE380000031FFFFFFF8C00000E7FF64
:100F6000FFFFFE7000038FFFFFFFFF1C000E3FFF1F
:100F7000FFFFFFC70018FE07FFF007F18033FE07F1
:100F8000FFE00FFCC027FE07FFC01FFE402FFE073B
:100F9000FF803FFF402FFE07FF007FFF402FFE072F
:100FA000FF00FFFF402FFE07FE01FFFF402FFE075F
:100FB000FC00FFFF402FFE07F8007FFF402FFE07D9
:100FC000F0003FFF402FFE07E000007F402FFE07AC
:100FD000C000007F402FFE07807FFFFF402FFE07ED
:100FE00000FFFFFF402FFE0601FFFFFF402FFE0422
:100FF00003FFFFFF402FFE0003FFFFFF402FFE0413
:1010000001FFFFFF402FFE0600FFFFFF402FFE07FE
:10101000007FFFFF402FFE078000007F402FFE076C
:10102000C000007F402FFE07E0003FFF402FFE077B
:10103000F0007FFF402FFE07F800FFFF402FFE0764
:10104000FC01FFFF402FFE07FE00FFFF402FFE07C1
:10105000FF007FFF402FFE07FF803FFF402FFE076E
:10106000FFC01FFF402FFE07FFE00FFF4027FE07D6
:10107000FFF007FE4033FE07FFF803FCC018FE0731
:10108000FFFC01F1800E3FFFFFFFFFC700038FFF52
:10109000FFFFFF1C0000E7FFFFFFFE70000031FFB5
:1010A000FFFFF8C000001C7FFFFFE3800000071F68
:1010B000FFFF8E00000001CFFFFF3800000000633B
:1010C000FFFC600000000038FFF1C0000000000ECF
:1010D0003FC70000000000039F9C000000000000CC
:1010E000C63000000000000070E0000000000000BA
:1010F00019800000000000000F0000000000000048
:1011000000000000000000000000000000000000DF
:1011100000000000000000000000000000000000CF
:1011200000000000000000000000000000000000BF
:101130000000000000000000000000656E64737491
:101140006F7073206869743A20202563202563201E
:10115000256320256300205A3A0020593A00205880
:101160003A00656E6473746F7073206869743A2016
:10117000004D323900504152414441204445204500
:101180004D4552472E005041524144410050726932
:101190006E7465722073746F707065642064756519
:1011A00020746F206572726F72732E2046697820EA
:1011B000746865206572726F7220616E6420757349
:1011C00065204D39393920746F20726573746172EE
:1011D000742E202854656D70657261747572652077
:1011E00069732072657365742E2053657420697469
:1011F0002061667465722072657374617274696EC1
:101200006729004E6F204C696E65204E756D6265D2
:1012100072207769746820636865636B73756D2CE1
:10122000204C617374204C696E653A20004E6F202B
:10123000436865636B73756D2077697468206C69AA
:101240006E65206E756D6265722C204C6173742022
:101250004C696E653A2000636865636B73756D2039
:101260006D69736D617463682C204C617374204CDC
:10127000696E653A20004C696E65204E756D626539
:1012800072206973206E6F74204C617374204C69F6
:101290006E65204E756D6265722B312C204C61732A
:1012A00074204C696E653A20004D313130004D3369
:1012B00031004D383420582059205A2045004D35F2
:1012C00030300053442072656164206572726F7221
:1012D00000446F6E65207072696E74696E67206677
:1012E000696C650020496E76616C6964206578746C
:1012F0007275646572004D00000070430000A043E9
:101300000000CD43000000000000000000000000CD
:10131000203A2073796E635F706C616E5F706F73DB
:101320006974696F6E0A0063757272656E745F70BE
:101330006F736974696F6E3D00203A20636C65615C
:101340006E5F75705F61667465725F656E647374FD
:101350006F705F6F725F70726F62655F6D6F7665E1
:101360000A0063757272656E745F706F7369746979
:101370006F6E3D0029002C20002C200028003E3EEE
:101380003E20646F5F626C6F636B696E675F6D6F49
:1013900076655F746F006465706C6F793A20002029
:1013A0003A207365745F70726F62655F6465706C1C
:1013B0006F7965640A0063757272656E745F706F31
:1013C000736974696F6E3D00203A203C3C3C206498
:1013D0006F5F70726F62655F6D6F76650A0063752F
:1013E0007272656E745F706F736974696F6E3D00C1
:1013F000203A203E3E3E20646F5F70726F62655FF0
:101400006D6F76650A0063757272656E745F706FDA
:10141000736974696F6E3D002042403A0020403A83
:1014200000202F0020423A00202F0020543A0020B4
:101430003A2073657475705F666F725F656E647372
:10144000746F705F6F725F70726F62655F6D6F76E1
:10145000650A0063757272656E745F706F7369748C
:10146000696F6E3D00206669727374005900580000
:10147000486F6D65200020666972737400590058CA
:1014800000486F6D6520003C3C3C2067636F6465DD
:101490005F47323800203A204D424C20486F6D653E
:1014A0002058206F7220590A0063757272656E743D
:1014B0005F706F736974696F6E3D00203A204D4212
:1014C0004C2052657374204F726967696E0A00631D
:1014D000757272656E745F706F736974696F6E3D5B
:1014E000004D424C205A20686F6D696E67004D4276
:1014F0004C20686173206D65736800203A2028686D
:101500006F6D655F616C6C5F61786973207C7C20B6
:10151000686F6D655A29203E2066696E616C0A000D
:1015200063757272656E745F706F736974696F6EE4
:101530003D003C3C3C205A5F534146455F484F4D7F
:10154000494E4700536F6E6461205A20667565727C
:101550006100536F6E6461205A2066756572610088
:10156000203A205A5F534146455F484F4D494E4708
:10157000203E20686F6D655F616C6C5F6178697398
:101580000A0064657374696E6174696F6E3D002052
:101590003A205A5F534146455F484F4D494E4720D8
:1015A0003E20686F6D655F616C6C5F617869730A7E
:1015B0000063757272656E745F706F736974696FC2
:1015C0006E3D003E205A5F534146455F484F4D49AE
:1015D0004E47203E3E3E00203A20686F6D65590A16
:1015E0000063757272656E745F706F736974696F92
:1015F0006E3D00203A20686F6D65580A0063757271
:1016000072656E745F706F736974696F6E3D0052BE
:1016100061697365205A20286265666F726520686B
:101620006F6D696E672920746F20003E20656E64BF
:1016300073746F70732E656E61626C652874727559
:10164000652900203A20536574205A20746F207059
:1016500072655F686F6D655F7A0A006375727265A7
:101660006E745F706F736974696F6E3D004D424CAC
:101670002077617320616374697665003E3E3E2089
:1016800067636F64655F47323800636F6C64206521
:101690007874727573696F6E2070726576656E749A
:1016A00065640000416C677569656E2070756C73C8
:1016B0006F20656C2073656E736F722064652066A1
:1016C000696C616D656E746F3A20004D3630300084
:1016D00073652061637469766F2032005041524116
:1016E000444120444520454D4552472E005041522B
:1016F00041444120444520454D4552472E007061EC
:10170000757361207061726120657370657261002C
:10171000706175736120706172612075736F007004
:10172000726F636573616E646F00627573793A00FE
:101730004572726F722074656D70004D75657274BC
:101740006520646520696D707265736F72612E200B
:101750006B696C6C28292063616C6C6564210029BD
:10176000003C3C3C207365745F617869735F69730A
:101770005F61745F686F6D652800203A200A00631E
:10178000757272656E745F706F736974696F6E3DA8
:10179000005D203D2000686F6D655F6F6666736554
:1017A000745B007A70726F62655F7A6F66667365EC
:1017B00074203D2000000000000000000000000038
:1017C0000029003E3E3E207365745F617869735F57
:1017D00069735F61745F686F6D6528005761726E31
:1017E000696E673A20486F6D696E672042756D704B
:1017F0002044697669736F72203C20310029003CD7
:101800003C3C20686F6D656178697328003E20005C
:10181000203A204146544552207365745F617869CF
:10182000735F69735F61745F686F6D650A006375EC
:101830007272656E745F706F736974696F6E3D006C
:101840003E20326E6420486F6D6520003E2031736B
:101850007420486F6D652000000070430000A043B5
:101860000000CD433E2000FFFFFF29003E3E3E200A
:10187000686F6D65617869732800494E46004E4176
:101880004E0003E0000C9800180C00201A00303EB7
:101890000040710040E10061C3004181004001004F
:1018A0003006002002001FFC0043617061733A00A3
:1018B0005A00590020003F0058000920000920006C
:1018C000092000092000462D2D3A2D2D00542D2DE4
:1018D0003A2D2D00462D2D3A2D2D001041000820C7
:1018E0008008208010410020820041040041040053
:1018F000208200104100000000FFFFC0FFFFC01069
:101900004100208200410400410400208200104177
:1019100000082080082080104100000000FFFFC068
:10192000FFFFC000E00000E00000E00003F8000757
:10193000FFC007FEC007FC4007FEC007FFC001F064
:101940000000E00000400000E00000E00000E000D7
:1019500003F80007FFC007FFC007FFC007FFC0076D
:10196000FFC001F00000E0000040003FFF007003F6
:1019700080E619C0CF3CC09F3E40BF3F40BE1F40E5
:101980009CCE4081E04081E0409CCE40BE1F40BFE5
:101990003F409F3E40CF3CC0E619C07003803FFFF0
:1019A000003FFF00700380E3F1C0C3F0C081E0405E
:1019B00080C040B00340B8C740BDEF40BDEF40B865
:1019C000C740B0034080C04081E040C3F0C0E3F1B5
:1019D000C07003803FFF00566F6C766572004D61EA
:1019E00070612044652043616D61004D6F646966DC
:1019F00069636172204F666673657400416A75732E
:101A00007465732064652063616D6100566F6C7648
:101A100065720050726564657465726D696E6164AB
:101A20006F004D31313720456E667269616E646FAB
:101A3000004D38340A204D313137204D6F746F72AC
:101A4000204170616761646F0056656C6F63696403
:101A50006164006C612076656C6F63696461640029
:101A600053656C656363696F6E6500466C756A6F7C
:101A700000466C756A6F0053656C656363696F6ED1
:101A8000650076616C6F7220696E696369616C00D4
:101A9000426F7175696C6C61006C612074656D706A
:101AA000657261747572610053656C656363696F1B
:101AB0006E650043616D612063616C69656E74657C
:101AC000006C612074656D7065726174757261007F
:101AD00053656C656363696F6E65004D3331330028
:101AE0004D3131370046616E20646520636170615D
:101AF000006C612076656C6F636964616400536596
:101B00006C656363696F6E65003FFFF87FFFFCFFE4
:101B1000FFFEFFFFFEF770FEFAEF7EFDE97EFAEDB5
:101B20007EF7697EFFED7EFFE97EFFED7EFFE97EB9
:101B3000FFD9BEFFB0DEFFA05EFFB0DEFFDFBEFF5D
:101B4000E07EFFFFFEFFFFFE7FFFFC3FFFF83FFF51
:101B5000F860000CC00006800002888F02851082A9
:101B600082168285128288968280128280168280F6
:101B70001282801682802642804F22805FA2804F90
:101B800022802042801F82800002C0000660000C7C
:101B90003FFFF83FFFF87FFFFCFFFFFEFFBBFEFEAD
:101BA00038FEFC387EF8383EF0381EF07C1EE0C669
:101BB0000EFF83FEFF83FEFF83FEE0C60EF07C1E59
:101BC000F0381EF8383EFC387EFE38FEFFBBFEFFC4
:101BD000FFFE7FFFFC3FFFF83FFFF860000CC000F6
:101BE0000680440281C70283C78287C7C28FC7E2CB
:101BF0008F83E29F39F2807C02807C02807C029F8E
:101C000039F28F83E28FC7E287C7C283C78281C759
:101C100002804402C0000660000C3FFFF83FFFF85E
:101C20007FFFFCFFFFFEFFFFFEFFFFFEFFFFFEFF4B
:101C3000FFFEFDEF7EFEF7BEFEF7BEFDEF7EFBDE94
:101C4000FEF7BDFEF7BDFEFBDEFEFDEF7EFFFFFEF5
:101C5000F0001EF0001EFFFFFEFFFFFE7FFFFC3FB7
:101C6000FFF83FFFF860000CC00006800002800013
:101C700002800002800002821082810842810842B4
:101C800082108284210288420288420284210282D8
:101C900010828000028FFFE28FFFE2800002C0000E
:101CA0000660000C3FFFF854656D706572617475D5
:101CB000726100506F72206661766F72206573707A
:101CC000657265004B757474657263726166742029
:101CD0006C697374612E00526573756D69656E640D
:101CE0006F20496D7072652E004573706572616E6C
:101CF000646F206F7264656E6573004D313234001D
:101D00004D3132330046696C652064656C657465DD
:101D1000640044656C6574696F6E206661696C650A
:101D2000640046696C652064656C65746564004692
:101D3000696C616D656E74207072696E7465643A69
:101D40002000202025754B6D2025756D202575639D
:101D50006D2025756D6D00506F776572206F6E2058
:101D600074696D653A2000202025752064617973BF
:101D700020257520686F757273202575206D696E3A
:101D80007574657300546F74616C207072696E7441
:101D90002074696D653A20002020257520646179E2
:101DA0007320257520686F757273202575206D6905
:101DB0006E75746573002C204661696C65643A2009
:101DC000002C2046696E69736865643A2000507281
:101DD000696E7420737461746973746963733A20F3
:101DE000546F74616C3A200043616C656E74616D70
:101DF00069656E746F204F6B2E003F0020573A00CC
:101E000043616C656E74616E646F2E2E2E004B758F
:101E1000747465726372616674206C697374612E88
:101E20000043616D61204F6B2E0043616C656E74E1
:101E3000616E646F2043616D612E00536574746937
:101E40006E672054726176656C20616363656C65B2
:101E5000726174696F6E3A200053657474696E67BD
:101E6000205265747261637420616363656C65728E
:101E70006174696F6E3A200053657474696E6720EF
:101E80005072696E7420616363656C657261746918
:101E90006F6E3A200053657474696E6720507269E2
:101EA0006E7420616E642054726176656C2061638B
:101EB00063656C65726174696F6E3A200020496ECB
:101EC00076616C696420686F74656E64004D002CE7
:101ED000002C002000486F74656E64206F66667386
:101EE0006574733A00496E76616C69642065787434
:101EF00072756465720020443A0020493A0020500F
:101F00003A0048004D34323120726571756972654E
:101F1000732058595A206F7220494A5A20706172B2
:101F2000616D6574657273004D6573682058592042
:101F30006F7220494A2063616E6E6F742062652063
:101F40007265736F6C766564004D657368205859CF
:101F5000206F7220494A2063616E6E6F7420626543
:101F6000207265736F6C7665640052657469726186
:101F70006E646F200A005265746972616E646F202E
:101F80000A0063617267616E646F200A0047373729
:101F9000002D2D2D2D2D2D2D2D2D2D2D2D2D2D2D9E
:101FA0002D2D2D2D2D2D2D2D2D2D2D2D2D2D2D2D61
:101FB0002D0070790070783A2000506F72206661B1
:101FC000766F7220657370657265005265616C6929
:101FD0007A616E646F20486F6D652E2E2E00473239
:101FE00038004D6F766572205A004D35303000470D
:101FF00039310A4731205A2D3530204632303030C1
:102000000A4732380A4D31313720456A65205A2057
:10201000416C696E6561646F004739310A47312050
:102020005A312046323030300A4739300043616C33
:10203000696272616E646F2E2E2E00506F72206680
:1020400061766F72206573706572650043616C69BB
:102050006272616E646F2E2E2E00506F7220666168
:10206000766F7220657370657265004732380A4773
:1020700039310A4731205A34302058343020463420
:102080003030300A473930006C6F73206D6F746FD9
:1020900072657320766962726172616E006C612094
:1020A0007061727465207375706572696F6E007609
:1020B0006120206120636F6C6973696F6E617220AB
:1020C000636F6E00416476657274656E636961204A
:1020D000656C20456A65205A006B7574746572637F
:1020E000726166742E636F6D2F626C6F67004D6155
:1020F00078696D6F206F204D696E696D6F00507249
:102100006F74656363696F6E205465726D69636196
:1021100000416476657274656E6369612054312094
:1021200043616D61006B757474657263726166748E
:102130002E636F6D2F626C6F67004D6178696D6FF4
:10214000206F204D696E696D6F0050726F7465630A
:1021500063696F6E205465726D69636100416476D6
:10216000657274656E63696120543020486F7465D0
:102170006E64006B757474657263726166742E634D
:102180006F6D2F626C6F6700566172696163696F72
:102190006E206465746563746164610050726F746D
:1021A000656363696F6E205465726D696361004198
:1021B0006476657274656E63696120543020486F7F
:1021C00074656E64006B75747465726372616674B5
:1021D0002E636F6D2F626C6F67004E6F20686179A0
:1021E0002043616C656E74616D69656E746F00503B
:1021F000726F74656363696F6E205465726D696395
:102200006100416476657274656E63696120543063
:1022100020486F74656E64005265696E6963696514
:10222000206D617175696E6100426F746F6E207010
:10223000756C7361646F20454D47004572726F7213
:102240002077726974696E6720746F20454550521B
:102250004F4D2100206279746573290053657474B1
:10226000696E67732053746F72656420280045455A
:1022700050524F4D20636865636B73756D206D69B7
:10228000736D61746368002D2D2D2D2D2D2D2D2D39
:102290002D2D2D2D2D2D2D2D2D2D2D2D2D2D2D2D6E
:1022A0002D2D2D2D2D2D2D2D2D2D2D2D2D2D2D2D5E
:1022B0002D2D2D2D2D2D2D2D2D2D2D2D2D2D2D2D4E
:1022C0002D2D2D2D2D2D2D2D2D2D2D0020627974B0
:1022D000657329002020202020202020202020207D
:1022E0002020202053746F726564207365747469B4
:1022F0006E67732072657472696576656420280064
:102300005D2053746F7265642076657273696F6EB9
:102310003A205B0056657273696F6E3A205B002D40
:102320002D2D2D2D2D2D2D2D2D2D2D2D2D2D2D2DDD
:102330002D2D2D2D2D2D2D2D2D2D2D2D2D2D2D2DCD
:102340002D2D2D2D2D2D2D2D2D2D2D2D2D2D2D2DBD
:102350002D2D2D2D2D2D2D2D2D2D2D2D2D2D2D2DAD
:102360002D2D2D002D2D2D2D2D2D2D2D2D2D2D2DCA
:102370002D2D2D2D2D2D2D2D2D2D2D2D2D2D2D2D8D
:102380002D2D2D2D2D2D2D2D2D2D2D2D2D2D2D2D7D
:102390002D2D2D2D2D2D2D2D2D2D2D2D2D2D2D2D6D
:1023A0002D2D2D2D2D2D2D2D002D2D2D2D2D2D2D8A
:1023B0002D2D2D2D2D2D2D2D2D2D2D2D2D2D2D2D4D
:1023C0002D2D2D2D2D2D2D2D2D2D2D2D2D2D2D2D3D
:1023D0002D2D2D2D2D2D2D2D2D2D2D2D2D2D2D2D2D
:1023E0002D2D2D2D2D2D2D2D2D2D2D2D2D0020453F
:1023F0000020204D323035205400204500205A0066
:102400002058002042002056002020202020530089
:10241000002020202020202020285A3D6D6178694E
:102420006D756D205A206A65726B20286D6D2F7353
:10243000292C2020453D6D6178696D756D20452002
:102440006A65726B20286D6D2F732929002020206A
:1024500020202028423D6D696E696D756D20736581
:10246000676D656E742074696D6520286D73292C05
:1024700020583D6D6178696D756D205859206A65E9
:10248000726B20286D6D2F732929002020202020B9
:10249000202028533D4D696E206665656472617425
:1024A0006520286D6D2F73292C20563D4D696E20B7
:1024B00074726176656C206665656472617465200E
:1024C000286D6D2F73292900202020202020202016
:1024D00020202020202020202020202020202020FC
:1024E00020202020202020284D3230352900202097
:1024F00020202020202020202020202020202020DC
:1025000020202020202020202020207C4164766173
:102510006E6365647C002D2D2D2D2D2D2D2D2D2DE3
:102520002D2D2D2D2D2D2D2D2D2D2D2D2D2D2D2DDB
:102530002D2D2D2D2D2D2D2D2D2D2D2D2D2D2D2DCB
:102540002D2D2D2D2D2D2D2D2D2D2D2D2D2D2D2DBB
:102550002D2D2D2D2D2D2D2D2D2D00202020202019
:10256000202020202020202020202020202020206B
:102570002020436F6E66696775726174696F6E20A3
:10258000416476616E636564002D2D2D2D2D2D2DFA
:102590002D2D2D2D2D2D2D2D2D2D2D2D2D2D2D2D6B
:1025A0002D2D2D2D2D2D2D2D2D2D2D2D2D2D2D2D5B
:1025B0002D2D2D2D2D2D2D2D2D2D2D2D2D2D2D2D4B
:1025C0002D2D2D2D2D2D2D2D2D2D2D2D2D00202082
:1025D0004D32303020543120440020204D323030F4
:1025E00020440046696C616D656E74207365747477
:1025F000696E67733A002044002049002050002093
:1026000020202020202020202020202020202048A2
:1026100000202020202020202020202020202020DA
:1026200020202020202020202020202020202020AA
:10263000284D333031290020202020202020202048
:10264000202020202020202020202020202020208A
:1026500020207C5049442073657474696E67737CD4
:10266000002D2D2D2D2D2D2D2D2D2D2D2D2D2D2DC7
:102670002D2D2D2D2D2D2D2D2D2D2D2D2D2D2D2D8A
:102680002D2D2D2D2D2D2D2D2D2D2D2D2D2D2D2D7A
:102690002D2D2D2D2D2D2D2D2D2D2D2D2D2D2D2D6A
:1026A0002D2D2D2D2D002020202020202020202009
:1026B00020202020202020202020202020202043F7
:1026C0006F6E66696775726174696F6E20504944F8
:1026D000002D2D2D2D2D2D2D2D2D2D2D2D2D2D2D57
:1026E0002D2D2D2D2D2D2D2D2D2D2D2D2D2D2D2D1A
:1026F0002D2D2D2D2D2D2D2D2D2D2D2D2D2D2D2D0A
:102700002D2D2D2D2D2D2D2D2D2D2D2D2D2D2D2DF9
:102710002D2D2D2D2D0020204D3636362050005ADF
:102720002050726F6265206F666673657420286D35
:102730006D293A00205A00205900202047323920C4
:10274000533320580020590020580020204D3432A7
:10275000302053004D65736820626564206C657697
:10276000656C696E673A00205A00205900205800B5
:102770002020202020202020202020202020202059
:102780002020540020202020202020202020202035
:102790002020202020202020202020207C486F7412
:1027A000656E64206F666673657420286D6D297C84
:1027B0000020202020202020202020202020202039
:1027C0002020202020202020202020202020202009
:1027D000284D3231382900202020202020202020A0
:1027E0002020202020202020202020202020207C8D
:1027F000486F74656E64206F666673657420286D1B
:102800006D297C0000205A00205900202020202023
:1028100020202020202020202020202020205800A0
:1028200020202020202020202020202020202020A8
:102830002020202020202020202020202020202890
:102840004D3230362900202020202020202020203A
:102850002020202020202020202020202020207C1C
:10286000486F6D65206F666673657420286D6D29ED
:102870007C002D2D2D2D2D2D2D2D2D2D2D2D2D2D66
:102880002D2D2D2D2D2D2D2D2D2D2D2D2D2D2D2D78
:102890002D2D2D2D2D2D2D2D2D2D2D2D2D2D2D2D68
:1028A0002D2D2D2D2D2D2D2D2D2D2D2D2D2D2D2D58
:1028B0002D2D2D2D2D2D00202020202020202020EA
:1028C00020202020202020202020202020202043E5
:1028D0006F6E66696775726174696F6E206F666688
:1028E000736574002D2D2D2D2D2D2D2D2D2D2D2D80
:1028F0002D2D2D2D2D2D2D2D2D2D2D2D2D2D2D2D08
:102900002D2D2D2D2D2D2D2D2D2D2D2D2D2D2D2DF7
:102910002D2D2D2D2D2D2D2D2D2D2D2D2D2D2D2DE7
:102920002D2D2D2D2D2D2D2D002D2D2D2D2D2D2D04
:102930002D2D2D2D2D2D2D2D2D2D2D2D2D2D2D2DC7
:102940002D2D2D2D2D2D2D2D2D2D2D2D2D2D2D2DB7
:102950002D2D2D2D2D2D2D2D2D2D2D2D2D2D2D2DA7
:102960002D2D2D2D2D2D2D2D2D2D2D2D2D002020DE
:102970002020202020202020202020202020205324
:10298000656E736F722064652066696C616D656E3B
:10299000746F3A20002D2D2D2D2D2D2D2D2D2D2D0B
:1029A0002D2D2D2D2D2D2D2D2D2D2D2D2D2D2D2D57
:1029B0002D2D2D2D2D2D2D2D2D2D2D2D2D2D2D2D47
:1029C0002D2D2D2D2D2D2D2D2D2D2D2D2D2D2D2D37
:1029D0002D2D2D2D2D2D2D2D2D0020520020202090
:1029E00020202020202020202020202020202020E7
:1029F00020202020202020540000205600202020CD
:102A000020202020202020202020202020202020C6
:102A100020205000202020202020202020202020A6
:102A2000284D32303420503D7072696E74696E6783
:102A30002C20563D74726176656C20616E64205462
:102A40002A20523D7265747261637429002020202F
:102A50002020202020202020202020202020202076
:102A6000202020202020207C416363656C657261FA
:102A700074696F6E737C000020450020204D323059
:102A800031205400204500205A00205900202020E9
:102A90002020202020202020202020202020202036
:102AA000202020580020202020202020202020200E
:102AB0002020202020202020202020202020202016
:102AC00020202020284D32303129002020202020B5
:102AD00020202020202020202020202020207C4D6D
:102AE0006178696D756D20416363656C65726174B1
:102AF000696F6E20286D6D2F7332297C0020450090
:102B000020204D32303320540000204500205A0050
:102B10002059002020202020202020202020580084
:102B200020202020202020202020202020202020A5
:102B3000202020202020202020202020202020288D
:102B40004D3230332900202020202020202020203A
:102B500020202020202020202020207C4D6178690A
:102B60006D756D2066656564726174657320286D8E
:102B70006D2F73297C000020450020204D39322024
:102B80005400436F6E6669673A00204500205A0082
:102B90002059002020202020202020202020580004
:102BA0002020202020202020202020202020202025
:102BB000202020202020202020202020202020280D
:102BC0004D393229002020202020202020202020C4
:102BD0002020202020202020202020202020207C99
:102BE00053746570732070657220756E69747C0013
:102BF0002D2D2D2D2D2D2D2D2D2D2D2D2D2D2D2D05
:102C00002D2D2D2D2D2D2D2D2D2D2D2D2D2D2D2DF4
:102C10002D2D2D2D2D2D2D2D2D2D2D2D2D2D2D2DE4
:102C20002D2D2D2D2D2D2D2D2D2D2D2D2D2D2D2DD4
:102C30002D2D2D2D00202020202020202020202080
:102C40002020202020202020202020202020202084
:102C5000436F6E66696775726174696F6E002D2DC2
:102C60002D2D2D2D2D2D2D2D2D2D2D2D2D2D2D2D94
:102C70002D2D2D2D2D2D2D2D2D2D2D2D2D2D2D2D84
:102C80002D2D2D2D2D2D2D2D2D2D2D2D2D2D2D2D74
:102C90002D2D2D2D2D2D2D2D2D2D2D2D2D2D2D2D64
:102CA0002D2D0053657269653A004D6F64656C6F38
:102CB0003A200050616E74616C6C613A20002D2DD9
:102CC0002D2D2D2D2D2D2D2D2D2D2D2D2D2D2D2D34
:102CD0002D2D2D2D2D2D2D2D2D2D2D2D2D2D2D2D24
:102CE0002D2D2D2D2D2D2D2D2D2D2D2D2D2D2D2D14
:102CF0002D2D2D2D2D2D2D2D2D2D2D2D2D2D2D2D04
:102D00002D2D004739310A473120453135204631D4
:102D100035300A4739300A4739310A473120452DC5
:102D200031303020463330300A4739300A4D38349C
:102D3000004739310A47312045313030204631359E
:102D4000300A4739300A4D3834004739310A4731A3
:102D5000205A31302046333530300A47393000416F
:102D60006A757374652064652046696C616D656E73
:102D7000746F0043616C63756C616E646F2E2E2EF0
:102D80000050756564652074617264617220756EAF
:102D90006F73206D696E75746F7300416A7573741B
:102DA000616E646F205049440043616C656E7461CC
:102DB0006E646F2E2E2E00506F72206661766F72D9
:102DC00020657370657265003FFFF87FFFFCFFFFB1
:102DD000FEFFFFFEFFFFFEFFFFFEFFFFFEFFFFFE09
:102DE000E6DE6EE6DE6EEADEAEEADEAEEADEAEEC31
:102DF000DECEECC2CEFFFFFEFFFFFEFFFFFEFFFFB9
:102E0000FEFFFFFEFFFFFE7FFFFC3FFFF83FFFF8E6
:102E100060000CC00006800002800002800002807A
:102E200000028000029921929921929521529521C8
:102E300052952152932132933D328000028000024C
:102E4000800002800002800002C0000660000C3F8B
:102E5000FFF83FFFF87FFFFCFFFFFEFFFFFEFFFFD5
:102E6000FEFFFFFEFFFFFEFFFFFEC2F176DEF776FC
:102E7000DEF7AEC6F1DEDEF7AEDEF776DE1176FF08
:102E8000FFFEFFFFFEFFFFFEFFFFFEFFFFFEFFFF57
:102E9000FE7FFFFC3FFFF83FFFF860000CC000061C
:102EA000800002800002800002800002800002BDDB
:102EB0000E8AA1088AA10852B90E22A10852A108BF
:102EC0008AA1EE8A80000280000280000280000257
:102ED000800002C0000660000C3FFFF83FFFF87F53
:102EE000FFFCFFFFFEFFFFFEFFFFFEFFFFFEFFFFF9
:102EF000FEFFFFFEF38F1EEDB6FEEDB6FEE18F3E48
:102F0000EDB7DEEDB7DEED8E3EFFFFFEFFFFFEFF0D
:102F1000FFFEFFFFFEFFFFFEFFFFFE7FFFFC3FFF08
:102F2000F83FFFF860000CC000068000028000023D
:102F30008000028000028000028C70E292490292BE
:102F400049029E70C29248229248229271C2800029
:102F500002800002800002800002800002C00006A1
:102F600060000C3FFFF83FFFF87FFFFCFFFFFEFF14
:102F7000FFFEFFFFFEFFFFFEFFFFFEFFFFFEE3BFC2
:102F80003EEDBEDEEDBEDEE3BE1EEFBEDEEFBEDE1C
:102F9000EF86DEFFFFFEFFFFFEFFFFFEFFFFFEFFEF
:102FA000FFFEFFFFFE7FFFFC3FFFF83FFFF86000E2
:102FB0000CC0000680000280000280000280000237
:102FC0008000029C40C29241229241229C41E290A8
:102FD00041229041229079228000028000028000EC
:102FE00002800002800002C0000660000C3FFFF873
:102FF00050726564657465726D696E61646F0045D9
:1030000078747275736F723A006C612074656D70BC
:10301000657261747572610053656C656363696F95
:103020006E65004731205A313520463430300A472A
:103030003238205A0A4731205A30004731205A315D
:10304000300A4732380A4D383400506F736963696B
:103050006F6E20342064652034004731205A3130AF
:103060000A47312058313730205934302046323029
:1030700030300A473238205A0A4731205A3000503F
:103080006F736963696F6E20332064652034004775
:1030900031205A31300A47312058343020593235E6
:1030A000302046323030300A473238205A0A473111
:1030B000205A30001FFFFFF03FFFFFF87FFFFFFCAB
:1030C000FFFFFFFEFFF83FFEFFE00FFEFF8003FE65
:1030D000F70381FEF20FE0FEF01FF07EF03FF87E76
:1030E000F07FFC3EF03FFE3EF01FFE1EFFFFFF1E86
:1030F000FFFFFF1EFFFFFF1EFFFFFE1EFFFFFE3E46
:10310000FFFFFC3EFFFFF87EFF9FF07EFF0FE0FE1B
:10311000FF0381FEFF8003FEFFE00FFEFFF83FFE8E
:103120007FFFFFFC3FFFFFF81FFFFFF01FFFFFF0D7
:10313000300000186000000CC00000068007C002CC
:10314000801FF002807FFC0288FC7E028DF01F024F
:103150008FE00F828FC007828F8003C28FC001C2B1
:103160008FE001E2800000E2800000E2800000E2E7
:10317000800001E2800001C2800003C2800007825B
:1031800080600F8280F01F0280FC7E02807FFC0244
:10319000801FF002C007C0066000000C300000185D
:1031A0001FFFFFF0506F736963696F6E20322064F8
:1031B000652034004731205A31300A4731205831D8
:1031C000373020593235302046323030300A4732DD
:1031D00038205A0A4731205A3000506F73696369AA
:1031E0006F6E20312064652034004731205A313021
:1031F0000A4731205834302059343020463230309C
:10320000300A473238205A0A4731205A3000FFFF2F
:10321000FFFFFFFFFFFFFFFFFFFFE0800000000058
:103220000000000000000020B1C71C71C71C71C75E
:103230001C71C71C20A38E38E38E38E38E38E38ED2
:1032400038A0871C71C71C71C71C71C71C71A08076
:10325000000000000000000000000020FFFFFFFF52
:10326000FFFFFFFFFFFFFFFFE0FFFFFFFFFFFFFF8D
:10327000FFFFFFFFFFE080000000000000000000F3
:103280000000208E38E38E38E38E38E38E38E3A0DA
:103290009C71C71C71C71C71C71C71C720B8E38E15
:1032A00038E38E38E38E38E38E2080000000000083
:1032B00000000000000020FFFFFFFFFFFFFFFFFFF7
:1032C000FFFFFFE0506F72206661766F72206573BA
:1032D000706572650001060A00FE0701360268206B
:1032E000FFFE08FE07FE0A006022176780808080CC
:1032F000800080163363A0A0A00257675050F8509A
:10330000F850500257672070A0702870200257674D
:1033100048A8502050A89002576740A0A040A8900D
:103320006826136380808012376720408080804049
:103330002012376780402020204080035565885048
:10334000F850880355652020F82020113363604031
:1033500080055161F811336340E040025767080867
:1033600010204080800257672050888888502002B3
:1033700057672060A0202020F80257677088083027
:103380004080F8025767F8081030088870025767C5
:1033900010305090F81010025767F880B0C80888B5
:1033A00070025767304080B0C88870025767F808CD
:1033B000101020404002576770888870888870021B
:1033C00057677088986808106011376740E04000C0
:1033D00040E04011376740E040006040801247679E
:1033E00010204080402010045363F800F812476713
:1033F00080402010204080025767708810202000F5
:1034000020025767708898A8B080700257672050D4
:103410008888F88888025767F04848704848F00262
:10342000576770888080808870025767F0484848E6
:103430004848F0025767F88080F08080F8025767AC
:10344000F88080F08080800257677088808098883C
:1034500070025767888888F8888888123767E04044
:1034600040404040E0025767381010101090600252
:1034700057678890A0C0A09088025767808080809E
:103480008080F80257678888D8A88888880257679C
:103490008888C8A89888880257677088888888882C
:1034A00070025767F08888F08080800158687088C3
:1034B000888888A87008025767F08888F0A09088EC
:1034C00002576770888070088870025767F820205C
:1034D00020202020025767888888888888700257B3
:1034E0006788888850505020025767888888A8A825
:1034F000D888025767888850205088880257678884
:10350000885020202020025767F80810204080F8BB
:10351000123767E08080808080E0025767808040BB
:1035200020100808123767E02020202020E00653F2
:1035300063205088015161F828226280400255655D
:1035400070087888780257678080B0C888C8B00251
:103550005565708880887002576708086898889851
:10356000680255657088F88070025767304840F0EF
:10357000404040005767788888780888700257670D
:103580008080B0C88888881237674000C0404040BB
:10359000E0104969100030101010909060025767D9
:1035A00080808890E09088123767C040404040405B
:1035B000E0025565D0A8A8A888025565B0C88888DB
:1035C000880255657088888870005767B0C888C8B9
:1035D000B080800057676898889868080802556529
:1035E000B0C880808002556570807008F00257670F
:1035F0004040F0404048300255658888889868020D
:10360000556588885050200255658888A8A85002C2
:1036100055658850205088005767888898680888C2
:1036200070025565F8102040F8124767304020C0FE
:10363000204030221767808080808080801247671A
:10364000C02040304020C006536348A890FFFFFFD1
:10365000FFFFFFFFFFFFFFFFFFFFFFFFFFFFFFFF7A
:10366000FFFFFFFFFFFFFFFFFFFFFFFFFFFF0A005E
:1036700060221767800080808080800157672078F3
:10368000A0A0A07820025767304840E04048B00230
:103690005565887050708801586888885020F820D7
:1036A0002020221767808080008080800158687009
:1036B00080E09048380870193161A002576770881F
:1036C000A8C8A888701346667090B05000F00265D4
:1036D000652448904824144262F010154161F002BC
:1036E00057677088E8C8C88870095161F816336355
:1036F00040A0400256662020F82020F8154565605D
:10370000902040F0154565E0106010E028226240EE
:1037100080015666888888C8B08002576778E8E8D4
:10372000682828282511618020226240801535658F
:1037300040C04040E01346666090906000F0026533
:1037400065904824489001696940C04040E40C14E9
:103750003C0401696940C04040E81404081C015958
:1037600069C0204020C81828780802576720002028
:10377000204088700258684020708888F888880245
:1037800058681020708888F888880258682050701F
:103790008888F8888802586848B0708888F88888CF
:1037A0000258685000708888F8888802586820504D
:1037B000708888F888880267673C50909CF0909CDD
:1037C0000059697088808080887020400258684065
:1037D000F88080F08080F802586810F88080F080CF
:1037E00080F802586820F88080F08080F8025868DD
:1037F00050F88080F08080F81238688040E04040C7
:103800004040E01238682040E040404040E012383C
:103810006840A0E040404040E0123868A000E0402E
:10382000404040E0025767F04848E84848F00258F6
:1038300068285088C8A898888802586840207088EE
:10384000888888700258681020708888888870027C
:10385000586820507088888888700258682850708E
:1038600088888888700258685000708888888870B6
:103870000255658850205088025767709898A8C8EC
:10388000C870025868402088888888887002586804
:10389000102088888888887002586820500088889E
:1038A0008888700258685000888888888870025814
:1038B00068102088885020202002576780F088F008
:1038C000808080025767708890A09088B002586806
:1038D000402000700878887802586810200070082E
:1038E00078887802586820500070087888780258E4
:1038F0006828500070087888780257675000700870
:103900007888780258682050207008788878026596
:103910006578147C907C00576770888088702040A0
:103920000258684020007088F880700258681020A3
:10393000007088F880700258682050007088F88005
:103940007002576750007088F880701238688040A5
:1039500000C0404040E0123868408000C040404015
:10396000E012386840A000C0404040E0123767A035
:1039700000C0404040E0025767C0307088888870BF
:10398000025868285000B0C88888880258684020CB
:1039900000708888887002586810200070888888B5
:1039A0007002586820500070888888700258682813
:1039B0005000708888887002576750007088888827
:1039C000700355652000F800200255657898A8C856
:1039D000F00258684020008888889868025868106B
:1039E0002000888888986802586820500088888855
:1039F000986802576750008888889868005969104D
:103A0000208888986808887000586880F0888888BE
:103A1000F080800059695000888898680888706331
:103A20006F6C6420657874727573696F6E20707244
:103A30006576656E746564007C3C3E5E2B3D3F2F71
:103A40005B5D3B2C2A225C00446F6E6520736176BF
:103A5000696E672066696C652E006572726F7220F0
:103A600077726974696E6720746F2066696C65008F
:103A7000203A203C3C3C2072756E5F7A5F70726F1A
:103A800062650A0063757272656E745F706F736948
:103A900074696F6E3D000000A0400000A04000006F
:103AA0000040203A203E3E3E2072756E5F7A5F7085
:103AB000726F62650A0063757272656E745F706F13
:103AC000736974696F6E3D003C3C3C2070726F629C
:103AD000655F7074003E20003E200029002C20000D
:103AE0003E20646F5F626C6F636B696E675F6D6FC2
:103AF00076655F746F5F78792800203A200A00634A
:103B0000757272656E745F706F736974696F6E3D04
:103B10000029002C20002C20003E3E3E2070726FB9
:103B200062655F707428002900646F5F70726F6255
:103B3000655F72616973652800496E666F3A00437C
:103B4000616E6E6F7420656E746572207375626449
:103B500069723A20006F70656E206661696C6564F9
:103B60002C2046696C653A200057726974696E674B
:103B700020746F2066696C653A20006F70656E2056
:103B80006661696C65642C2046696C653A20004664
:103B9000696C652073656C656374656400205369A6
:103BA0007A653A200046696C65206F70656E6564C1
:103BB0003A20004D35303000535441525420505279
:103BC000494E5445523A0053442063617264206F59
:103BD0006B00534420696E6974206661696C00450E
:103BE00072726F723A004D3131370A4D38340A4DD6
:103BF00031313720496D70726573696F6E20436192
:103C00006E63656C616461004D363030004D31315A
:103C100037205049442041637475616C697A61644E
:103C20006F004D35303000494E4455535452494190
:103C300020415247454E54494E41005365726965D3
:103C40003A00504B332B45005620342E302E313065
:103C500000204D6F64656C6F3A0056657273696F32
:103C60006E3A001C3800000000000000001C7117B4
:103C7000DF7DE39E11F7C01CE111044114512901BD
:103C8000001DF911044114114501001FC1110479EF
:103C9000E41E45E1001DF911044144147D01001C9E
:103CA000E111044124524501001C70E1047F13918D
:103CB0004501001C3800000000000000001C1DFF32
:103CC000FFFFFFFFFFFFF00000000000000000000A
:103CD000007FFFFFFFFFFFFFFFFFC04D6F766572A4
:103CE000205A00566F6C76657200303100506F7349
:103CF0006963696F6E20303100303100303200501E
:103D00006F736963696F6E20303200303200303378
:103D100000506F736963696F6E2030330030330079
:103D2000303400506F736963696F6E203034003037
:103D30003400303500506F736963696F6E20303521
:103D400000303500303600506F736963696F6E2044
:103D5000303600303600303700506F736963696F5A
:103D60006E20303700303700303800506F73696391
:103D7000696F6E203038003038003039007FFCC069
:103D8000068002800280028002800280028002801F
:103D900002800280028002C0067FFC506F7369635C
:103DA000696F6E203039003039007FFCFFFEFFFE66
:103DB000FFFEFFFEFFFEFFFEFFFEFFFEFFFEFFFE1B
:103DC000FFFEFFFEFFFE7FFC6E6F20657374616275
:103DD0006C656369646173004572726F723A206347
:103DE000617061730043616E63656C617220636131
:103DF0006D62696F0043616D62696F20636170611C
:103E00003A200041686F726100456E204361706125
:103E10003A0043616D626961722066696C616D652B
:103E20006E746F00496E6963696F004D32310052E4
:103E300065636172676172205461726A65746120A2
:103E40005364003FFFF87FFFFCFFFFFEFFFFFEFF14
:103E5000003EFE2ABEFCAABEF8AABEF8003EF8004C
:103E60003EF8103EF8383EF87C3EF8383EF8383ED2
:103E7000F8383EF8003EF8003EF8003EF8003EFFFD
:103E8000FFFE7FFFFC3FFFF85461726A657461209A
:103E90005364003FFFF87FFFFCFFFFFEFFFFFEFFC4
:103EA000003EFE2ABEFCAABEF8AABEF8003EF800FC
:103EB0003EF8003EF8003EF86C3EF88A3EF84A3E76
:103EC000F82A3EF8CC3EF8003EF8003EF8003EFFEF
:103ED000FFFE7FFFFC3FFFF83FFFF860000CC000D3
:103EE0000680000280FFC281D54283554287554239
:103EF00087FFC287FFC287EFC287C7C28783C28797
:103F0000C7C287C7C287C7C287FFC287C7C287FF2A
:103F1000C287FFC2C0000660000C3FFFF83FFFF8F9
:103F200060000CC0000680000280FFC281D5428381
:103F3000554287554287FFC287FFC287FFC287FF6E
:103F4000C28793C28775C287B5C287D5C28733C27D
:103F500087FFC287FFC287FFC2C0000660000C3F18
:103F6000FFF8416A757374652064652046696C6169
:103F70006D656E746F0054656D70657261747572F5
:103F8000610043616C6962726172004170616761D6
:103F900072204C656400456E63656E646572204CEA
:103FA0006564003FFFF860000CC010068038028096
:103FB0007C0280FE028038028038028438428C0005
:103FC000629F83F2BF83FA9F83F28C00628438423F
:103FD00080380280380280FE02807C02803802C075
:103FE000100660000C3FFFF84D6F76657220456A41
:103FF0006573003FFFF87FFFFCFFEFFEFFC7FEFF8A
:1040000083FEFF01FEFFC7FEFFC7FEFBC7BEF3FF37
:104010009EE07C0EC07C06E07C0EF3FF9EFBC7BEDC
:10402000FFC7FEFFC7FEFF01FEFF83FEFFC7FEFFC7
:10403000EFFE7FFFFC3FFFF83FFFF860000CC00081
:104040000680000280000283FF828600C285014252
:1040500084384284444284824284924284824284EC
:1040600044428438428501428600C283FF82800038
:1040700002800002C0000660000C3FFFF841706142
:10408000676172204D6F746F726573003FFFF87F38
:10409000FFFCFFFFFEFFFFFEFFFFFEFC007EF9FFBF
:1040A0003EFAFEBEFBC7BEFBBBBEFB7DBEFB6DBECC
:1040B000FB7DBEFBBBBEFBC7BEFAFEBEF9FF3EFCEE
:1040C000007EFFFFFEFFFFFEFFFFFE7FFFFC3FFFC6
:1040D000F83FFFF860000CC0000681FF02830182F8
:1040E00082008282008287FFC287FFC287C1C287A7
:1040F00083C2873FC2873FC28783C287C1C287F915
:10410000C287F9C28781C28703C287FFC2C0000687
:1041100060000C3FFFF84B757474657263726166E2
:10412000742053746F7265003FFFF87FFFFCFFFF40
:10413000FEFE00FEFCFE7EFDFF7EFDFF7EF8003EE3
:10414000F8003EF83E3EF87C3EF8C03EF8C03EF82F
:104150007C3EF83E3EF8063EF8063EF87E3EF8FC11
:104160003EF8003EFFFFFE7FFFFC3FFFF8416A750F
:10417000737465730053616C697200426F7272618F
:104180007200456E76696172004573706163696F94
:10419000002E00580059005A0045004600530050B8
:1041A000004300496E677265736520436F646967F9
:1041B0006F00436F6D616E646F3A0053616C69729A
:1041C0000047004D00496E677265736520436F6458
:1041D00069676F00436F6D616E646F3A0045737479
:1041E00061646F206465204C6F73204361626C656D
:1041F0007300436F727265617320475432004C75CF
:10420000627269636163696F6E00426F7175696C98
:104210006C6120792042617272656C00417669732D
:104220006F204D616E74656E696D69656E746F00A7
:104230005265637565726465205265766973617253
:10424000002000E07001C0F803807803843C038CF8
:104250000E07FC070EF8039DF0017B8000F70000BD
:10426000EE0001DC0003BB000777803EEFC07DCF8E
:10427000E0FF87F0C703F88701FC0700FC0E007C15
:104280001C003831352520456E204D617175696EF1
:1042900061730032302520456E205265737075655C
:1042A00073746F730031302520456E204D61717538
:1042B000696E61730032302520456E20526573703F
:1042C000756573746F730032302520456E2052651A
:1042D0007370756573746F730033312E3425204508
:1042E0006E20426F7175696C6C61730031352520E9
:1042F000456E2052657370756573746F7300313548
:104300002520456E2046696C616D656E746F0031C5
:10431000322520456E2052657370756573746F7316
:104320000031322520456E2046696C616D656E74E2
:104330006F0031302520456E2052657370756573AE
:10434000746F730031302520456E2046696C616DB5
:10435000656E746F0033302520456E204E75657391
:10436000747261205469656E6461003235252045A0
:104370006E204E756573747261205469656E646158
:104380000032352520456E204E75657374726120AC
:104390005469656E64610032352520456E204E7586
:1043A0006573747261205469656E646100323025F2
:1043B00020456E204D617175696E61730032302544
:1043C00020456E204E756573747261205469656E68
:1043D00064610032302520456E204E75657374721D
:1043E00061205469656E64610032302520456E207D
:1043F0004E756573747261205469656E6461003135
:10440000352520456E204D617175696E61730032EE
:10441000302520456E204E75657374726120546995
:10442000656E64610031352520456E204E756573DB
:10443000747261205469656E6461003135252045D0
:104440006E204D617175696E6173003135252045AF
:104450006E204E756573747261205469656E646177
:104460000035302520536572766963696F20546585
:10447000636E69636F0031302520456E204E75658F
:1044800073747261205469656E6461003135252052
:10449000456E20496E73756D6F7300313025204570
:1044A0006E204E756573747261205469656E646127
:1044B0000032352520456E204772696C6F4E3300FF
:1044C00020352520456E204D617175696E61730040
:1044D000556E20456E76696F20477261746973214D
:1044E00021210031302520456E2046696C616D65C3
:1044F0006E746F0031352520456E205265737075DE
:104500006573746F730031302520456E2046696CE9
:10451000616D656E746F00544553540041575344A8
:104520000045444241004253415300415045580028
:10453000424F4F4D00424F4C4F00434F53410044B8
:1045400049414C0044415441004441544F004445CA
:10455000414C004641524F00464F524F00434F508E
:104560004F004341504F00414148480041554C41A4
:10457000004155575700584458440058505853006C
:10458000494F53580044494F530041565247005237
:104590004646460054585453004341445400425543
:1045A000554800484F484F004C4F474F004D495227
:1045B00041004F55454C00484E5750004655525407
:1045C00000494E4954004465736375656E746F3AD3
:1045D000200056657220436F6E646963696F6E6573
:1045E0007320456E3A006B75747465726372616610
:1045F000742E636F6D2F70726F6D6F0044657363FF
:1046000075656E746F004375706F6E20446500FCB5
:104610000004000200E180908088808880A880A843
:10462000808880A880A8808880A880A8808880A8AA
:1046300080A8808880888088809080E18002000443
:1046400000FC001F8010002000C38086808C8088C2
:10465000808A808A8088808A808A8088808A808A0E
:104660008088808A808A80888088808C808680C3C9
:1046700080200010001F8001050800FF06012102B4
:104680003520FFFF07FF06FF0900502216568080E5
:1046900080800080153353A0A0A00257575050F8D7
:1046A00050F850500257572070A0702870201335D2
:1046B0005580A040A02002475740A0A040A0A05095
:1046C00025135380808012265640808080804012BF
:1046D00026568040404040800245559060F06090F2
:1046E0000255552020F820201133536040800441AA
:1046F00051F011335340E0400246561010204080E4
:104700008012365640A0A0A0A04012365640C040AD
:104710004040E00246566090106080F0024656F03D
:1047200020601090600246562060A0F020200246D3
:1047300056F080E01090600246566080E0909060F5
:10474000024656F01020204040024656609060908D
:104750009060024656609090701060122555C0C05F
:1047600000C0C0113656606000604080123656208E
:104770004080804020034353F000F01236568040C2
:104780002020408012365640A0204000400158585A
:10479000304898A8A8904030024656609090F0901B
:1047A00090024656E090E09090E00246566090807D
:1047B000809060024656E090909090E0024656F05D
:1047C00080E08080F0024656F080E08080800246E3
:1047D00056609080B090600246569090F090909015
:1047E000123656E040404040E002465670202020FD
:1047F000A04002465690A0C0A0A0900246568080DD
:10480000808080F002465690F0F0909090024656DC
:1048100090D0F0B0B09002465660909090906002B8
:104820004656E09090E08080014757609090D0B06D
:104830006010024656E09090E090900246566090DC
:1048400040209060123656E04040404040024656BC
:104850009090909090600246569090909060600288
:104860004656909090F0F09002465690906060907E
:1048700090025656888850202020024656F010207C
:104880004080F0123656E080808080E002465680FC
:104890008040201010123656E020202020E01632F2
:1048A0005240A0014151F0162252804002445470FF
:1048B0009090700246568080E09090E012345460F0
:1048C00080806002465610107090907002445460D0
:1048D000B0C060024656205040E04040014555605F
:1048E000907010600246568080E09090901236568C
:1048F0004000C04040E01137572000202020A04059
:10490000024656808090E09090123656C04040405B
:1049100040E0025454D0A8A8A8024454E0909090DB
:1049200002445460909060014555E090E080800121
:1049300045557090701010024454A0D080801234FD
:104940005460C020C00246564040E040502002441F
:104950005490909070123454A0A0A04002545488F7
:10496000A8A8500244549060609001455590907002
:104970009060024454F02040F0024757304020C07D
:10498000204030221656808080808080024757C0A9
:104990002040304020C006425250A0FFFFFFFFFFE2
:1049A000FFFFFFFFFFFFFFFFFFFFFFFFFFFFFFFF17
:1049B000FFFFFFFFFFFFFFFFFFFFFFFF0900502288
:1049C00016568000808080800146562070A0A0701E
:1049D000200246562050E04050A0025555887050A5
:1049E00070880256568850F820F820221757808089
:1049F00080008080800247577080E0907010E01740
:104A00003151A002565670A8C8C8A8701435556018
:104A1000A06000E003435350A050123353E0202025
:104A2000143151E002565670E8D8E8D87017315169
:104A3000E015335340A04012355540E04000E014EB
:104A4000355540A02040E0143555C020C020C01688
:104A500022524080014555909090E0800256567851
:104A6000E8E868282824115180112252408014352A
:104A70005540C04040E014355540A04000E003439D
:104A800053A050A0024757808080A060F0200247CA
:104A9000578080A0D010207002475780408060A0CF
:104AA000F02012365640004080A040024757402078
:104AB0006090F0909002475720406090F0909002F4
:104AC000475760906090F0909002475750A06090D8
:104AD000F0909002475790006090F09090024757F6
:104AE00060906090F0909002465670A0A0F0A0B048
:104AF000014757609080809060400247574020F007
:104B000080E080F00247572040F080E080F00247CC
:104B1000576090F080E080F00247579000F080E00E
:104B200080F01237578040E0404040E01237572075
:104B300040E0404040E012375740A0E0404040E0B5
:104B4000123757A000E0404040E00256567048E857
:104B500048487002475750A090D0B09090024757F5
:104B60004020609090906002475720406090909065
:104B7000600247576090609090906002475750A045
:104B80006090909060024757900060909090601203
:104B90003353A040A002465670B0B0D0D0E00247D8
:104BA00057402090909090600247572040909090FE
:104BB00090600247576090909090906002475790A5
:104BC000009090909060025757102088502020202D
:104BD00002465680E09090E0800246566090A0A089
:104BE00090A00247574020007090907002475720D5
:104BF0004000709090700247572050007090907065
:104C000002475750A00070909070024656500070B6
:104C1000909070024757609060709090700254546A
:104C2000F068B07811355560808060400247574089
:104C3000200060B0C06002475720400060B0C060F4
:104C400002475760900060B0C06002465650006056
:104C5000B0C060123757804000C04040E012375764
:104C6000204000C04040E012375740A000C0404004
:104C7000E0123656A000C04040E0024757A040A0D6
:104C80001070906002475750A000E090909002474B
:104C9000574020006090906002475720400060908D
:104CA00090600247576090006090906002475750B4
:104CB000A000609090600246569000609090601254
:104CC00035554000E0004002445470B0D0E0024747
:104CD00057402000909090700247572040009090DD
:104CE00090700247576090009090907002465690E6
:104CF0000090909070014858204000909070906013
:104D00000147578080E090E08080014757900090F5
:104D10009070906000060900FE070192032120FFB9
:104D2000FF08FF07FF00000006000001070706025A
:104D30000080808080800080030202060105A0A020
:104D40000507070600005050F850F85050050707B7
:104D50000600002078A07028F02005070706000054
:104D6000C0C810204098180507070600006090A0F2
:104D700040A89068020303060104C04080030707AF
:104D800006010020408080804020030707060100C4
:104D90008040202020408005050506000120A870E5
:104DA000A8200505050600012020F82020020303A5
:104DB0000602FFC04080050101060003F80202025E
:104DC000060200C0C005050506000108102040804D
:104DD0000507070600007088888888887003070721
:104DE00006010040C040404040E0050707060000C3
:104DF000708808708080F8050707060000F810200A
:104E0000100808F005070706000010305090F81051
:104E100010050707060000F880F0080888700507ED
:104E200007060000708080F088887005070706007C
:104E300000F80810202020200507070600007088D1
:104E400088708888700507070600007088887808D1
:104E50000870020505060200C0C000C0C0020606B8
:104E60000602FFC0C000C040800407070600001013
:104E7000204080402010050303060002F800F804DB
:104E80000707060100804020102040800507070624
:104E90000000708808102000200507070600007039
:104EA000880868A8A870050707060000708888F8B9
:104EB000888888050707060000F08888F08888F051
:104EC0000507070600007088808080887005070746
:104ED000060000F08888888888F00507070600002B
:104EE000F88080F08080F8050707060000F88080D1
:104EF000F0808080050707060000708880B88888E9
:104F000070050707060000888888F88888880107E8
:104F100007060200808080808080800507070600E9
:104F200000381010101090600507070600008890E8
:104F3000A0C0A090880507070600008080808080C0
:104F400080F805070706000088D8A88888888805A3
:104F500007070600008888C8A898888805070706FC
:104F6000000070888888888870050707060000F0B0
:104F70008888F08080800507070600007088888890
:104F8000A89068050707060000F08888F0A09088C0
:104F9000050707060000788080700808F0050707FD
:104FA000060000F82020202020200507070600002A
:104FB00088888888888870050707060000888888A0
:104FC000888850200507070600008888888888A8F8
:104FD000500507070600008888502050888805077C
:104FE0000706000088888850202020050707060053
:104FF00000F80810204080F8030707060100E08051
:1050000080808080E00505050600018040201008B2
:10501000030707060100E02020202020E00503030D
:10502000060004205088050101060000F802020273
:10503000060205804005050506000070087888789E
:105040000507070600008080B0C88888F0050505C0
:1050500006000070808088700507070600000808B9
:1050600068988888780505050600007088F88070C3
:105070000507070600003048E040404040050606AE
:105080000600FF7088887808700507070600008012
:1050900080B0C888888801070706020080008080E9
:1050A0008080800308080601FF200020202020A027
:1050B00040040707060000808090A0C0A09003076E
:1050C00007060100C04040404040E00505050600DD
:1050D00000D0A8A8A8A8050505060000B0C88888C3
:1050E0008805050506000070888888700506060694
:1050F00000FFF08888F080800506060600FF7888AB
:1051000088780808050505060000B0C8808080057D
:10511000050506000070807008F00407070600000F
:105120004040E04040403005050506000088888882
:105130009868050505060000888888502005050543
:105140000600008888A8A8500505050600008850BC
:105150002050880506060600FF88888878087005B4
:105160000505060000F8102040F8030707060100B7
:1051700020404080404020010707060200808080D8
:105180008080808003070706010080404020404067
:105190008005020206000268900000000600000080
:1051A00000000600000000000600000000000600ED
:1051B00000000000060000000000060000000000E3
:1051C00006000000000006000000000006000000CD
:1051D00000000600000000000600000000000600BD
:1051E00000000000060000000000060000000000B3
:1051F000060000000000060000000000060000009D
:10520000000006000000000006000000000006008C
:105210000000000006000000000006000000000082
:10522000060000000000060000000000060000006C
:10523000000006000000000006000000000006005C
:105240000000000006000000000006000000000052
:10525000060000000000060000000000060000003C
:105260000000060000010707060200800080808021
:1052700080800507070600002070A8A0A870200500
:105280000707060000304040E04050A8050505062D
:1052900000008870507088050707060000885020BD
:1052A000F820F82001070706020080808000808037
:1052B0008005080806000030482050502090600308
:1052C0000101060107A0050707060000F888B8B825
:1052D000B888F8050707060001700878887800F894
:1052E0000505050600012850A05028050303060007
:1052F00001F80808020202060206408005070706B8
:105300000000F888A88898A8F8050101060006F8AA
:10531000040404060003609090600507070600007F
:105320002020F8202000F8040505060003609020E6
:1053300040F0030505060003E020E020E002020241
:1053400006020640800508080600FF8888888898BD
:10535000E8808005070706000078989878181818E4
:10536000020202060202C0C00202020602FF4080E0
:1053700003050506000340C04040E005070706009E
:1053800001708888887000F8050505060001A050A6
:105390002850A00507070600008890A858B80808FC
:1053A0000507070600008890B848982038050808C7
:1053B000060000C040C048D83808080507070600A6
:1053C000002000204080887005080806000040206A
:1053D000007088F888880508080600001020007012
:1053E00088F888880508080600002050007088F8B2
:1053F00088880508080600006890007088F888888A
:105400000508080600005000708888F8888805089C
:10541000080600002050207088F8888805070706D5
:1054200000003860A0B8E0A0B80508080600FF70CA
:1054300088808088702060050808060000402000F1
:10544000F880F080F8050808060000081000F880D1
:10545000F080F8050808060000205000F880F08071
:10546000F80507070600005000F880F080F80308F0
:1054700008060100804000E0404040E003080806C4
:105480000100204000E0404040E003080806010021
:1054900040A000E0404040E0030707060100A000F4
:1054A000E0404040E0050707060000704848E84833
:1054B000487005080806000068900088C8A8988809
:1054C0000508080600004020708888888870050854
:1054D0000806000010207088888888700508080673
:1054E00000002050007088888870050808060000B9
:1054F00068900070888888700508080600005000D1
:10550000708888888870050505060001885020503D
:10551000880508080600FF1070A8A8A8A870400514
:1055200008080600004020888888888870050808D8
:105530000600001020888888888870050808060002
:1055400000205000888888887005080806000050F0
:105550000088888888887005080806000010208860
:1055600050202020200509090600FFC0407048484F
:10557000704040E00408080601FF609090A0909001
:10558000E080050808060000402000700878887850
:1055900005080806000010200070087888780508C3
:1055A0000806000020500070087888780508080672
:1055B00000006890007008788878050707060000EA
:1055C00050007008788878050808060000205020F0
:1055D0007008788878050606060000D02878A0A80C
:1055E000500506060600FF708088702060050808D8
:1055F0000600004020007088F8807005080806004A
:10560000001020007088F88070050808060000204F
:1056100050007088F8807005070706000050007081
:1056200088F8807003080806010080400040C040F0
:1056300040E003080806010020400040C04040E070
:1056400003080806010040A00040C04040E00307F6
:1056500007060100A00040C04040E0050707060023
:1056600000A040A010788870050808060000689027
:1056700000B0C8888888050808060000402000702F
:105680008888887005080806000010200070888847
:10569000887005080806000020500070888888700F
:1056A0000508080600006890007088888870050763
:1056B0000706000050007088888870050505060000
:1056C000012000F800200507070600FF1070A8A8B9
:1056D000A8704005080806000040200088888898C7
:1056E000680508080600001020008888889868056A
:1056F0000808060000205000888888986805070779
:10570000060000500088888898680509090600FF8F
:10571000102000888888F808700407070601FFC079
:105720004060506040E00508080600FF500088888F
:105730008878087000060900FE00000000000109DA
:105740000008FE000005080806000040F0C8888830
:10575000987810050808060000C0F88888888888AE
:10576000F80505050600012030F830200508080678
:1057700000002070F820202020E00509090600FF25
:105780002070A8A8B8888870200509090600FFE0E5
:1057900080C0B0A8283028280509090600FFF8A80D
:1057A0008888888888A8F8050A0A0600FE205050D4
:1057B000505088A8A8887003030306000340A04047
:1057C000537465707261746520746F6F20686967C7
:1057D000683A200024F4D43050C38E20C2A240176F
:1057E000828B7011127A910D816CD90AA861E1083F
:1057F000C7586607615143061E4B5D05C145A704A6
:105800001A411104093D9803713931034036DB0216
:1058100065339102D4305402802E1D02632CEE01B8
:10582000752AC501B028A001102781018F256401C8
:105830002B244B01E0223401AC211F018D200D01EE
:10584000801FFC00841EED00971DDF00B81CD200F5
:10585000E61BC600201BBC00641AB200B219A800E7
:105860000A19A0006A189900D117910040178B00FF
:10587000B516840031167E00B31579003A15730011
:10588000C7146F0058146A00EE1366008813630093
:1058900025135E00C7125B006C12570015125400EE
:1058A000C111510070114F0021114B00D610490059
:1058B0008D1047004610440002104200C00F400007
:1058C000800F3E00420F3C00060F3B00CB0E38001D
:1058D000930E37005C0E3500270E3400F30D3200B6
:1058E000C10D3100900D3000600D2E00320D2D00E5
:1058F000050D2C00D90C2B00AE0C2900850C2900BD
:105900005C0C2700350C27000E0C2600E80B240049
:10591000C40B2400A00B23007D0B23005A0B210095
:10592000390B2100180B2000F80A1F00D90A1E00AD
:10593000BB0A1E009D0A1D00800A1D00630A1C0090
:10594000470A1B002C0A1B00110A1A00F7091A004B
:10595000DD091900C4091900AB09190092091700E3
:105960007B091800630917004C0916003609160058
:10597000200916000A091500F5081500E0081400B2
:10598000CC081400B8081400A408140090081300F0
:105990007D0812006B081300580812004608120018
:1059A0003408110023081100120811000108110029
:1059B000F0071000E0071000D0071000C00710002B
:1059C000B0070F00A107100091070E0083070F001A
:1059D00074070F0065070E0057070E0049070E00F9
:1059E0003B070D002E070E0020070D0013070D00CA
:1059F00006070D00F9060C00ED060D00E0060C0090
:105A0000D4060C00C8060C00BC060C00B0060C0046
:105A1000A4060B0099060C008D060B0082060B00F5
:105A200077060B006C060B0061060A0057060B0098
:105A30004C060A0042060A0038060A002E060A0032
:105A400024060A001A060A001006090007060A00C2
:105A5000FD050900F4050900EB050900E205090050
:105A6000D9050900D0050900C7050900BE050900D0
:105A7000B5050800AD050800A50509009C0508004E
:105A8000940508008C050800840508007C050800C2
:105A9000740508006C050700650508005D05070032
:105AA000560508004E050700470507004005080099
:105AB00038050700310507002A0507002305070000
:105AC0001C050600160507000F050700080506005F
:105AD00002050700FB040600F5040700EE040600BB
