:100000000C94173B0C94483B0C94483B0C94483B95
:100010000C94483B0C94483B0C94483B0C94483B54
:100020000C94483B0C94483B0C94483B0C94483B44
:100030000C94483B0C94D6670C94483B0C94483B7A
:100040000C94483B0C94F6E70C94483B0C94483BCA
:100050000C94483B0C94483B0C94FB7D0C94DFD3F0
:100060000C94483B0C9497A80C9467A80C94483BBC
:100070000C94483B0C94483B0C94483B0C94483BF4
:100080000C94483B0C94483B0C94483B0C94483BE4
:100090000C94483B0C94483B0C94483B0C94483BD4
:1000A0000C94483B0C94483B0C94483B0C94483BC4
:1000B0000C94483B0C94483B0C94483B0C94483BB4
:1000C0000C94483B0C94483B0C94483B0C94ABD1AB
:1000D0000C9475680C94483B0C94483B0C94483B3A
:1000E0000C94483B7E7A887A907A977A9E7AA57AA1
:1000F000B17AB87A137D627D387D327D4A7D4D7D3F
:10010000577D577E667E857E947EAF7EB37EB67EBB
:10011000BA7EBD7EC17EC47EC87ECB7ECF7ED27EBF
:10012000D67ED97EDD7EE77E2ED131D120D124D17D
:100130002AD168D135D139D13FD143D147D14DD121
:1001400051D155D168D15BD15FD163D1FBD200D3FE
:1001500005D30FD319D392D323D32BD333D33DD38A
:1001600047D351D360D36AD392D374D37ED388D389
:10017000084AD73B3BCE016E84BCBFFDC12F3D6C0E
:1001800074319ABD56833DDA3D00C77F11BED9E474
:10019000BB4C3E916BAAAABE000000803F05A84C54
:1001A000CDB2D44EB93836A9020C50B99186880820
:1001B0003CA6AAAA2ABE000000803F000D94592048
:1001C0000D94EE0D0D9493100D948E0E0D94B40EAF
:1001D0000D94DD0D414C4C00434F4D4D554E494360
:1001E0004154494F4E0044525952554E00455252C7
:1001F0004F525300494E464F004543484F00526509
:10020000706F736F2E2E2E00205A3A200020593A1C
:10021000200020583A200042656400496E76616CE7
:10022000696420736C6F742C20746F74616C20731C
:100230006C6F74733A200020453A00205A3A00202F
:10024000593A003C2D583A002053005361766564BA
:1002500020706F736974696F6E003A0020002D3E44
:1002600000205300526573746F72696E6720706F5F
:10027000736974696F6E00496E76616C696420738E
:100280006C6F742C20746F74616C20736C6F74735A
:100290003A2000526573756D69656E646F20696DF3
:1002A0007072652E004B757474657263726166744A
:1002B000206C697374612E004573706572616E64A1
:1002C0006F206F7264656E65730053746F70205099
:1002D00072696E74696E6700537461727420507233
:1002E000696E74696E670053696E206D6F76696D13
:1002F00069656E746F00456E642066696C65206C7C
:1003000069737400426567696E2066696C65206C6C
:10031000697374002F005344207072696E74696EA3
:1003200067206279746520004E6F742053442070FA
:1003300072696E74696E670046696C652064656CED
:10034000657465640044656C6574696F6E206661F0
:10035000696C65640046696C652064656C657465EC
:1003600064005072696E742074696D65200025699F
:10037000682025696D202569730025696420256939
:10038000682025696D2025697300436C6F736520B3
:1003900066696C6520616E642073617665207265A4
:1003A00073746172742E67636F64650020616E649C
:1003B000207374617274207072696E742E004F70B5
:1003C000656E2066696C653A20004B7574746572C1
:1003D0006372616674204F46462E0043616C656E01
:1003E00074616E646F2E2E2E004B7574746572638B
:1003F00072616674206C697374612E0043616C6570
:100400006E74616D69656E746F204F6B2E003F00D6
:1004100020573A0043616C656E74616E646F2E2ED6
:100420002E004B75747465726372616674206C691A
:100430007374612E006F666600F901F401ED01E648
:1004400001D801D40144656275673A0050415241B8
:10045000444120444520454D4552472E004D313101
:10046000332053004649524D574152455F4E414D4E
:10047000453A4B555454455243524146545F5620D9
:10048000332E372E30204649524D574152455F5545
:10049000524C3A687474703A2F2F7777772E6B75B9
:1004A0007474657263726166742E636F6D2F736FFF
:1004B0006674776172652050524F544F434F4C5FC2
:1004C00056455253494F4E3A322E30204D41434803
:1004D000494E455F545950453A436172746573699A
:1004E000616E2045585452554445525F434F554E16
:1004F000543A3220555549443A33323462666134B5
:10050000322D613432372D313165362D3830663534
:100510002D3736333034646563376562370A0063DC
:1005200073746570733A2000655F6D696E3A2000E0
:100530007A5F70726F62653A20007A5F6D696E3A19
:100540002000795F6D696E3A2000785F6D696E3AC0
:1005500020005265706F7274696E6720656E6473F7
:10056000746F702073746174757300205A00205981
:1005700000580020204D61783A2000205A00205970
:1005800000580020204D696E3A2000536F66742099
:10059000656E6473746F70733A0053657474696E3A
:1005A000672054726176656C20616363656C657267
:1005B0006174696F6E3A200053657474696E6720C8
:1005C0005265747261637420616363656C65726106
:1005D00074696F6E3A200053657474696E672050B9
:1005E00072696E7420616363656C65726174696FB2
:1005F0006E3A200053657474696E67205072696E9C
:100600007420616E642054726176656C206163634E
:10061000656C65726174696F6E3A200020496E7670
:10062000616C696420686F74656E64004D002C0015
:100630002C002000486F74656E64206F66667365D9
:1006400074733A00496E76616C69642065787472DF
:10065000756465720020443A0020493A0020503AFF
:1006600000480043290061626C656420286D696E52
:100670002074656D702000436F6C6420657874721F
:10068000756465732061726520004D3131372050EB
:1006900049442041637475616C697A61646F004DEF
:1006A000353030004D657368205859206F722049ED
:1006B0004A2063616E6E6F74206265207265736F8D
:1006C0006C766564004D34323120726571756972E3
:1006D00065732058595A206F7220494A5A20706118
:1006E00072616D6574657273004D65736820585949
:1006F000206F7220494A2063616E6E6F74206265BC
:10070000207265736F6C766564004F6666736574FE
:10071000206170706C6965642E004F666673657445
:10072000206170706C6965642E004572723A2054C5
:100730006F6F206661722100546F6F2066617220B6
:1007400066726F6D207265666572656E6365207096
:100750006F696E74005265746972616E646F200A0D
:100760000063617267616E646F200A0043617061AB
:100770003A200020496E76616C6964206578747255
:10078000756465720054004163746976652045782C
:100790007472756465723A200041637469766520ED
:1007A0004472697665723A20003C3C3C2067636F76
:1007B00064655F5400203A2041465445520A006364
:1007C000757272656E745F706F736974696F6E3D78
:1007D00000203A204245464F52450A006375727226
:1007E000656E745F706F736974696F6E3D00290088
:1007F0003E3E3E2067636F64655F542800220043DD
:100800006F6D616E646F206E6F20656E636F6E74C6
:100810007261646F3A2022004D36303000536520FB
:10082000657374612067757264616E646F20656CB6
:10083000206172636869766F004D363030007365F1
:100840002061637469766F2031004563686F3A00F8
:100850004572726F722077726974696E6720746F67
:1008600020454550524F4D2100206279746573290F
:100870000053657474696E67732053746F72656496
:10088000202800454550524F4D20636865636B73C7
:10089000756D206D69736D61746368002D2D2D2D4C
:1008A0002D2D2D2D2D2D2D2D2D2D2D2D2D2D2D2D78
:1008B0002D2D2D2D2D2D2D2D2D2D2D2D2D2D2D2D68
:1008C0002D2D2D2D2D2D2D2D2D2D2D2D2D2D2D2D58
:1008D0002D2D2D2D2D2D2D2D2D2D2D2D2D2D2D2D48
:1008E00000206279746573290020202020202020B8
:1008F00020202020202020202053746F7265642047
:1009000073657474696E6773207265747269657655
:1009100065642028005D2053746F726564207665DD
:100920007273696F6E3A205B0056657273696F6E01
:100930003A205B0048617264636F646564204465BB
:100940006661756C742053657474696E6773204CAE
:100950006F61646564002D2D2D2D2D2D2D2D2D2DD8
:100960002D2D2D2D2D2D2D2D2D2D2D2D2D2D2D2DB7
:100970002D2D2D2D2D2D2D2D2D2D2D2D2D2D2D2DA7
:100980002D2D2D2D2D2D2D2D2D2D2D2D2D2D2D2D97
:100990002D2D2D2D2D2D2D2D2D2D002D2D2D2D2DB4
:1009A0002D2D2D2D2D2D2D2D2D2D2D2D2D2D2D2D77
:1009B0002D2D2D2D2D2D2D2D2D2D2D2D2D2D2D2D67
:1009C0002D2D2D2D2D2D2D2D2D2D2D2D2D2D2D2D57
:1009D0002D2D2D2D2D2D2D2D2D2D2D2D2D2D2D0074
:1009E0002D2D2D2D2D2D2D2D2D2D2D2D2D2D2D2D37
:1009F0002D2D2D2D2D2D2D2D2D2D2D2D2D2D2D2D27
:100A00002D2D2D2D2D2D2D2D2D2D2D2D2D2D2D2D16
:100A10002D2D2D2D2D2D2D2D2D2D2D2D2D2D2D2D06
:100A20002D2D2D2D0020450020204D323035205415
:100A300000204500205A0020580020420020560087
:100A400020202020205300002020202020202020B3
:100A5000285A3D6D6178696D756D205A206A6572FE
:100A60006B20286D6D2F73292C2020453D6D6178FA
:100A7000696D756D2045206A65726B20286D6D2F3C
:100A80007329290020202020202028423D6D696EF6
:100A9000696D756D207365676D656E742074696D21
:100AA0006520286D73292C20583D6D6178696D751E
:100AB0006D205859206A65726B20286D6D2F73293F
:100AC00029002020202020202028533D4D696E2021
:100AD000666565647261746520286D6D2F73292CBD
:100AE00020563D4D696E2074726176656C20666596
:100AF00065647261746520286D6D2F73292900204B
:100B000020202020202020202020202020202020E5
:100B10002020202020202020202020202020284DA0
:100B200032303529002020202020202020202020A5
:100B300020202020202020202020202020202020B5
:100B400020207C416476616E6365647C002D2D2DD0
:100B50002D2D2D2D2D2D2D2D2D2D2D2D2D2D2D2DC5
:100B60002D2D2D2D2D2D2D2D2D2D2D2D2D2D2D2DB5
:100B70002D2D2D2D2D2D2D2D2D2D2D2D2D2D2D2DA5
:100B80002D2D2D2D2D2D2D2D2D2D2D2D2D2D2D2D95
:100B90002D00202020202020202020202020202068
:100BA000202020202020202020436F6E666967755A
:100BB000726174696F6E20416476616E6365640072
:100BC0002D2D2D2D2D2D2D2D2D2D2D2D2D2D2D2D55
:100BD0002D2D2D2D2D2D2D2D2D2D2D2D2D2D2D2D45
:100BE0002D2D2D2D2D2D2D2D2D2D2D2D2D2D2D2D35
:100BF0002D2D2D2D2D2D2D2D2D2D2D2D2D2D2D2D25
:100C00002D2D2D2D0020204D323030205431204408
:100C10000020204D32303020440046696C616D6503
:100C20006E742073657474696E67733A00204400B3
:100C3000204900205000202020202020202020209B
:100C4000202020202020480020202020202020209C
:100C50002020202020202020202020202020202094
:100C600020202020202020284D3330312900202032
:100C70002020202020202020202020202020202074
:100C80002020202020202020207C504944207365F3
:100C90007474696E67737C002D2D2D2D2D2D2D2DD7
:100CA0002D2D2D2D2D2D2D2D2D2D2D2D2D2D2D2D74
:100CB0002D2D2D2D2D2D2D2D2D2D2D2D2D2D2D2D64
:100CC0002D2D2D2D2D2D2D2D2D2D2D2D2D2D2D2D54
:100CD0002D2D2D2D2D2D2D2D2D2D2D2D0020202098
:100CE0002020202020202020202020202020202004
:100CF000202020202020436F6E6669677572617422
:100D0000696F6E20504944002D2D2D2D2D2D2D2D38
:100D10002D2D2D2D2D2D2D2D2D2D2D2D2D2D2D2D03
:100D20002D2D2D2D2D2D2D2D2D2D2D2D2D2D2D2DF3
:100D30002D2D2D2D2D2D2D2D2D2D2D2D2D2D2D2DE3
:100D40002D2D2D2D2D2D2D2D2D2D2D2D0020204DFA
:100D50003636362050005A2050726F6265206F661A
:100D60006673657420286D6D293A00205A00205959
:100D700000202047323920533320580020590020CA
:100D8000580020204D3432302053004D65736820C8
:100D9000626564206C6576656C696E673A00205AFE
:100DA0000020590020580020202020202020202032
:100DB000202020202020202020540020202020201F
:100DC0002020202020202020202020202020202023
:100DD0002020207C486F74656E64206F66667365A2
:100DE0007420286D6D297C002020202020202020C8
:100DF00020202020202020202020202020202020F3
:100E000020202020202020284D3231382900202089
:100E100020202020202020202020202020202020D2
:100E20002020202020207C486F74656E64206F662F
:100E30006673657420286D6D297C0000205A00209F
:100E40005900202020202020202020202020202089
:100E5000202020202058002020202020202020207A
:100E60002020202020202020202020202020202082
:100E7000202020202020284D32303629002020201C
:100E80002020202020202020202020202020202062
:100E90002020202020207C486F6D65206F666673BF
:100EA000657420286D6D297C002D2D2D2D2D2D2D67
:100EB0002D2D2D2D2D2D2D2D2D2D2D2D2D2D2D2D62
:100EC0002D2D2D2D2D2D2D2D2D2D2D2D2D2D2D2D52
:100ED0002D2D2D2D2D2D2D2D2D2D2D2D2D2D2D2D42
:100EE0002D2D2D2D2D2D2D2D2D2D2D2D2D00202079
:100EF00020202020202020202020202020202020F2
:100F0000202020202020436F6E666967757261740F
:100F1000696F6E206F6666736574002D2D2D2D2D03
:100F20002D2D2D2D2D2D2D2D2D2D2D2D2D2D2D2DF1
:100F30002D2D2D2D2D2D2D2D2D2D2D2D2D2D2D2DE1
:100F40002D2D2D2D2D2D2D2D2D2D2D2D2D2D2D2DD1
:100F50002D2D2D2D2D2D2D2D2D2D2D2D2D2D2D00EE
:100F60002D2D2D2D2D2D2D2D2D2D2D2D2D2D2D2DB1
:100F70002D2D2D2D2D2D2D2D2D2D2D2D2D2D2D2DA1
:100F80002D2D2D2D2D2D2D2D2D2D2D2D2D2D2D2D91
:100F90002D2D2D2D2D2D2D2D2D2D2D2D2D2D2D2D81
:100FA0002D2D2D2D0020202020202020202020202D
:100FB00020202020202053656E736F7220646520EE
:100FC00066696C616D656E746F3A20002D2D2D2D54
:100FD0002D2D2D2D2D2D2D2D2D2D2D2D2D2D2D2D41
:100FE0002D2D2D2D2D2D2D2D2D2D2D2D2D2D2D2D31
:100FF0002D2D2D2D2D2D2D2D2D2D2D2D2D2D2D2D21
:101000002D2D2D2D2D2D2D2D2D2D2D2D2D2D2D2D10
:1010100000205200202020202020202020202020DE
:1010200020202020202020202020202020205400AC
:1010300000205600202020202020202020202020BA
:101040002020202020202020205000202020202090
:1010500020202020202020284D32303420503D7088
:1010600072696E74696E672C20563D747261766584
:101070006C20616E6420542A20523D726574726146
:1010800063742900202020202020202020202020E0
:1010900020202020202020202020202020207C41D3
:1010A0006363656C65726174696F6E737C000020A8
:1010B000450020204D323031205400204500205A78
:1010C0000020590020202020202020202020202027
:1010D00020202020202020202020580020202020F8
:1010E0002020202020202020202020202020202000
:1010F0002020202020202020202020284D32303188
:1011000029002020202020202020202020202020F6
:1011100020202020207C4D6178696D756D20416311
:1011200063656C65726174696F6E20286D6D2F73D5
:1011300032297C0020450020204D323033205400DD
:1011400000204500205A0020590020202020202087
:101150002020202020580020202020202020202077
:10116000202020202020202020202020202020207F
:10117000202020202020284D32303329002020201C
:10118000202020202020202020202020202020205F
:1011900020207C4D6178696D756D2066656564728F
:1011A0006174657320286D6D2F73297C00002045C4
:1011B0000020204D3932205400436F6E6669673A33
:1011C00000204500205A0020590020202020202007
:1011D00020202020205800202020202020202020F7
:1011E00020202020202020202020202020202020FF
:1011F000202020202020284D3932290020202020A6
:1012000020202020202020202020202020202020DE
:101210002020202020207C5374657073207065721C
:1012200020756E69747C002D2D2D2D2D2D2D2D2DCD
:101230002D2D2D2D2D2D2D2D2D2D2D2D2D2D2D2DDE
:101240002D2D2D2D2D2D2D2D2D2D2D2D2D2D2D2DCE
:101250002D2D2D2D2D2D2D2D2D2D2D2D2D2D2D2DBE
:101260002D2D2D2D2D2D2D2D2D2D2D00202020200F
:10127000202020202020202020202020202020206E
:1012800020202020202020436F6E666967757261E0
:1012900074696F6E002D2D2D2D2D2D2D2D2D2D2DA5
:1012A0002D2D2D2D2D2D2D2D2D2D2D2D2D2D2D2D6E
:1012B0002D2D2D2D2D2D2D2D2D2D2D2D2D2D2D2D5E
:1012C0002D2D2D2D2D2D2D2D2D2D2D2D2D2D2D2D4E
:1012D0002D2D2D2D2D2D2D2D2D004D6F64656C6F19
:1012E0003A200050616E74616C6C613A20002D2DC3
:1012F0002D2D2D2D2D2D2D2D2D2D2D2D2D2D2D2D1E
:101300002D2D2D2D2D2D2D2D2D2D2D2D2D2D2D2D0D
:101310002D2D2D2D2D2D2D2D2D2D2D2D2D2D2D2DFD
:101320002D2D2D2D2D2D2D2D2D2D2D2D2D2D2D2DED
:101330002D2D0029002C20002C200028004D3530B8
:1013400030004D353030004732380A4732382058A7
:1013500020590A4731205A30004E4F2D436F6E748A
:1013600020646573646520626173650053492D4391
:101370006F6E7420556C7420506F736963696F6E63
:10138000007065676164612061206C612063616D3C
:10139000613F004C6120696D70726573696F6E20EA
:1013A0007369677565004D35303000436F6E746941
:1013B0006E7561720043616E63656C617200436FAC
:1013C0006E206C6120696D70726573696F6E004488
:1013D0006573656120636F6E74696E756172004339
:1013E0006F727465206465206C757A2100456E63A8
:1013F0006F6465722020202020202020205B44453F
:10140000525D0053656E736F722066696C616D6525
:101410006E746F5B4F66665D0053656E736F72200E
:1014200066696C616D656E746F205B4F6E5D004523
:101430006E636F6465722020202020202020205BB6
:10144000495A515D00477561726461646F202020C4
:1014500020202020205B4F66665D00477561726426
:1014600061646F2020202020202020205B4F6E5DB3
:1014700000496E666F726D6163696F6E2020205B3C
:1014800043617061735D00416A75737461722050CD
:10149000494400496E666F726D6163696F6E20200A
:1014A000205B436F6F72645D004175746F6C65768D
:1014B000656C202020202020205B4F66665D004167
:1014C00075746F6C6576656C2020202020202020AC
:1014D0005B4F6E5D004964696F6D612020202020A4
:1014E0002020202020205B45535D005665727369E3
:1014F0006F6E00566F6C76657220202020202020B1
:10150000202020202020200400566F6C7665720079
:101510003FFFF860000CC0000680000280080280D7
:1015200038028038028038028038028038028038E1
:101530000280000280380285394285834286FEC2DD
:1015400083018281FF028000028FFFE2C0000660FB
:10155000000C3FFFF83FFFF87FFFFCFFFFFEFFFF9F
:10156000FEFFF7FEFFC7FEFFC7FEFFC7FEFFC7FE79
:10157000FFC7FEFFC7FEFFFFFEFFC7FEFAC6BEFAAB
:101580007CBEF9013EFCFE7EFE00FEFFFFFEF00089
:101590001EFFFFFE7FFFFC3FFFF83FFFF860000CDF
:1015A000C0000680000280470281C40281C6028119
:1015B000C40281C60281C40281C70280040281C6BE
:1015C0000281C402800602800402800702800002B9
:1015D00087FFC2800002C0000660000C3FFFF83F9A
:1015E000FFF87FFFFCFFFFFEFFFFFEFFB8FEFE3BA4
:1015F000FEFE39FEFE3BFEFE39FEFE3BFEFE38FEE1
:10160000FFFBFEFE39FEFE3BFEFFF9FEFFFBFEFF89
:10161000F8FEFFFFFEF8003EFFFFFEFFFFFE7FFF2C
:10162000FC3FFFF83FFFF860000CC000068000029E
:1016300080000281830281C70281EF0281FF028163
:10164000BB02819302818302818302818302800035
:101650000287FF828000028FFFE28FFFE28000029C
:10166000C0000660000C3FFFF83FFFF87FFFFCFF63
:10167000FFFEFFFFFEFFFFFEFE7CFEFE38FEFE10BB
:10168000FEFE00FEFE44FEFE6CFEFE7CFEFE7CFEC8
:10169000FE7CFEFFFFFEF8007EFFFFFEF0001EF066
:1016A000001EFFFFFEFFFFFE7FFFFC3FFFF83FFF36
:1016B000F860000CC00006800002800002807C02FE
:1016C00080FE0281C70281830281830281FF028141
:1016D000FF0281830281830281830280000283FFF3
:1016E000828000028FFFE28FFFE2C0000660000CE4
:1016F0003FFFF83FFFF87FFFFCFFFFFEFFFFFEFF0D
:10170000FFFEFF83FEFF01FEFE38FEFE7CFEFE7C38
:10171000FEFE00FEFE00FEFE7CFEFE7CFEFE7CFE6B
:10172000FFFFFEFC007EFFFFFEF0001EF0001EFF2C
:10173000FFFE7FFFFC3FFFF83FFFF860000CC0009A
:101740000680000280000280000281C20281C7027E
:1017500081CF8281C70283E70281C702808702802E
:10176000000280000283FF828000028FFFE28FFF71
:10177000E2800002C0000660000C3FFFF83FFFF867
:101780007FFFFCFFFFFEFFFFFEFFFFFEFFFFFEFEF1
:101790003DFEFE38FEFE307EFE38FEFC18FEFE38B2
:1017A000FEFF78FEFFFFFEFFFFFEFC007EFFFFFE58
:1017B000F0001EF0001EFFFFFEFFFFFE7FFFFC3F5C
:1017C000FFF841206C696E69617220656A65207A54
:1017D000003FFFF860000CC0000680000281FF029D
:1017E000800002801002803802807C0280380280F3
:1017F000380280380280380280380280000283FF7D
:10180000828000028FFFE28FFFE2800002C00006AC
:1018100060000C3FFFF83FFFF87FFFFCFFFFFEFF7B
:10182000FFFEFE00FEFFFFFEFFEFFEFFC7FEFF8391
:10183000FEFFC7FEFFC7FEFFC7FEFFC7FEFFC7FED6
:10184000FFFFFEFC007EFFFFFEF0001EF0001EFF0B
:10185000FFFEFFFFFE7FFFFC3FFFF8436170613A30
:1018600000636170612064652063616D62696F006F
:1018700053656C656363696F6E61720002536F66D6
:101880007477617265205265736574005761746383
:1018900068646F672052657365740042726F776E7B
:1018A000206F757420526573657400457874657295
:1018B0006E616C20526573657400506F7765725568
:1018C00070002020202020202020202020202020E8
:1018D000204F6B7C48617264636F6465642053447D
:1018E0002044656661756C742053657474696E6715
:1018F00073204C6F616465640020506C616E6E658E
:101900007242756666657242797465733A2000208A
:1019100020202020202020202020202046726565C5
:10192000204D656D6F72793A20002D2D2D2D2D2DB6
:101930002D2D2D2D2D2D2D2D2D2D2D2D2D2D2D2DD7
:101940002D2D2D2D2D2D2D2D2D2D2D2D2D2D2D2DC7
:101950002D2D2D2D2D2D2D2D2D2D2D2D2D2D2D2DB7
:101960002D2D2D2D2D2D2D2D2D2D2D2D2D2D002DD4
:101970002D2D2D2D2D2D2D2D2D2D2D2D2D2D2D2D97
:101980002D2D2D2D2D2D2D2D2D2D2D2D2D2D2D2D87
:101990002D2D2D2D2D2D2D2D2D2D2D2D2D2D2D2D77
:1019A0002D2D2D2D2D2D2D2D2D2D2D2D2D2D2D2D67
:1019B0002D2D2D0020202020202020202020202020
:1019C00020202020202020202020202020436F6D58
:1019D00070696C65643A204F637420313120323075
:1019E00031380020202020202020202020202020EE
:1019F0002020202020202020202020202020417571
:101A000074686F723A20284B5554544552435241E2
:101A10004654205F7C7C5F204D6F643A4F726C6946
:101A20007829002020202020202020202020202075
:101A300020202020202020204C61737420557064C9
:101A4000617465643A204F63742031312032303143
:101A5000382030393A35363A3130002D2D2D2D2DA4
:101A60002D2D2D2D2D2D2D2D2D2D2D2D2D2D2D2DA6
:101A70002D2D2D2D2D2D2D2D2D2D2D2D2D2D2D2D96
:101A80002D2D2D2D2D2D2D2D2D2D2D2D2D2D2D2D86
:101A90002D2D2D2D2D2D2D2D2D2D2D2D2D2D2D00A3
:101AA0002020202020202020202020202020202036
:101AB0002020202020202020204B555454455243E4
:101AC000524146545F5620332E372E30002D2D2D97
:101AD0002D2D2D2D2D2D2D2D2D2D2D2D2D2D2D2D36
:101AE0002D2D2D2D2D2D2D2D2D2D2D2D2D2D2D2D26
:101AF0002D2D2D2D2D2D2D2D2D2D2D2D2D2D2D2D16
:101B00002D2D2D2D2D2D2D2D2D2D2D2D2D2D2D2D05
:101B10002D002D2D2D2D2D2D2D2D2D2D2D2D2D2D22
:101B20002D2D2D2D2D2D2D2D2D2D2D2D2D2D2D2DE5
:101B30002D2D2D2D2D2D2D2D2D2D2D2D2D2D2D2DD5
:101B40002D2D2D2D2D2D2D2D2D2D2D2D2D2D2D2DC5
:101B50002D2D2D2D2D2D0020202020202020202057
:101B60002020202020202020202020202020204B4A
:101B700075747465726372616674204669726D77FC
:101B8000617265002D2D2D2D2D2D2D2D2D2D2D2D01
:101B90002D2D2D2D2D2D2D2D2D2D2D2D2D2D2D2D75
:101BA0002D2D2D2D2D2D2D2D2D2D2D2D2D2D2D2D65
:101BB0002D2D2D2D2D2D2D2D2D2D2D2D2D2D2D2D55
:101BC0002D2D2D2D2D2D2D2D007374617274003F40
:101BD000FFF860000CC0000680380290FE029BC730
:101BE000829F01C29E00C29F00629F80628000327D
:101BF0008000328000328000628000628000C283F8
:101C000001C283C78280FE02803802C000066000E5
:101C10000C3FFFF83FFFF87FFFFCFFFFFEFFC7FE12
:101C2000EF01FEE4387EE0FE3EE1FF3EE0FF9EE095
:101C30007F9EFFFFCEFFFFCEFFFFCEFFFF9EFFFF89
:101C40009EFFFF3EFCFE3EFC387EFF01FEFFC7FE0E
:101C5000FFFFFE7FFFFC3FFFF8566F6C766572005A
:101C60004D3234004D3233202573004261736520BC
:101C700063616C696272616461004D353030004DA2
:101C80006F766572205A0047323800506F7369636F
:101C9000696F6E002569202F202575004731205A75
:101CA0003000436F6E74696E7561720050726573B7
:101CB000696F6E6520436C696B20506172610050E2
:101CC0006F72206661766F72206573706572650051
:101CD0005265616C697A616E646F20486F6D652E24
:101CE0002E2E00473238004F66667365743A004DF9
:101CF000353030004D6F766572205A004D343230E9
:101D00002053310A4D353030004731205A300047DA
:101D100039310A47312058343420592D3431204686
:101D2000333030300A47393000506F7220666176A8
:101D30006F7220657370657265005265616C697AB7
:101D4000616E646F20486F6D652E2E2E004732380D
:101D500000546172656120303420527574696E617F
:101D60000047323800546172656120303420666962
:101D70006E616C000056616C6F722064656C207A35
:101D80000054617265612030340043616C69627295
:101D9000616E646F2E2E2E004737370054617265D6
:101DA000612030332076616C6F72206465207A0088
:101DB0005461726561203033206D6F76696E670003
:101DC000546172656120303200506F722066617616
:101DD0006F7220657370657265005265616C697A17
:101DE000616E646F20486F6D652E2E2E00546172F7
:101DF000656120303000473238004D6F76657220C3
:101E00005A004D353030001FFFFFF03000001860E1
:101E100000000CC002008680030182800282828161
:101E2000827C8281827C8287E27C8287E27C8281E2
:101E3000827C8281827C8280027C8280027C8281A0
:101E4000827C8281827C8281827C8281827C82818E
:101E5000827C8281827C8281827C8281827C828778
:101E6000E27C8283C292828183118280021082C0CE
:101E70000010066000000C300000181FFFFFF01F6C
:101E8000FFFFF03FFFFFF87FFFFFFCFFFDFF7EFF3E
:101E9000FCFE7EFFFD7D7EFE7D837EFE7D837EF8E3
:101EA0001D837EF81D837EFE7D837EFE7D837EFF07
:101EB000FD837EFFFD837EFE7D837EFE7D837EFE31
:101EC0007D837EFE7D837EFE7D837EFE7D837EFE22
:101ED0007D837EFE7D837EF81D837EFC3D6D7EFED0
:101EE0007CEE7EFFFDEF7EFFFFEFFE7FFFFFFC3FFE
:101EF000FFFFF81FFFFFF01FFFFFF030000018602A
:101F000000000CC002008680030182800282828170
:101F1000827C8283C27C8287E27C8281827C828115
:101F2000827C8281827C8281827C8281827C8281AD
:101F3000827C8281827C8281827C8280027C82801F
:101F4000027C8280027C8280027C8287E27C8287A3
:101F5000E27C82800292828003118280021082C021
:101F60000010066000000C300000181FFFFFF01F7B
:101F7000FFFFF03FFFFFF87FFFFFFCFFFDFF7EFF4D
:101F8000FCFE7EFFFD7D7EFE7D837EFC3D837EF834
:101F90001D837EFE7D837EFE7D837EFE7D837EFEB1
:101FA0007D837EFE7D837EFE7D837EFE7D837EFE41
:101FB0007D837EFFFD837EFFFD837EFFFD837EFFAD
:101FC000FD837EF81D837EF81D837EFFFD6D7EFF01
:101FD000FCEE7EFFFDEF7EFFFFEFFE7FFFFFFC3F8D
:101FE000FFFFF81FFFFFF01FFFFFF0300000186039
:101FF00000000CC00000068000000280EE0002809D
:10200000EF000280EF800280EFC00280EFE00280EC
:10201000EFF00280EFF80280EFFC0280EFFE02801A
:10202000EFFF0280EFFF8280EFFF0280EFFE028071
:10203000EFFC0280EFF80280EFF00280EFE0028018
:10204000EFC00280EF800280EF000280EE0002C04D
:102050000000066000000C300000181FFFFFF01F9A
:10206000FFFFF03FFFFFF87FFFFFFCFFFFFFFEFFDA
:10207000FFFFFEFF11FFFEFF10FFFEFF107FFEFFC0
:10208000103FFEFF101FFEFF100FFEFF1007FEFFA8
:102090001003FEFF1001FEFF1000FEFF10007EFF88
:1020A0001000FEFF1001FEFF1003FEFF1007FEFFF1
:1020B000100FFEFF101FFEFF103FFEFF107FFEFF00
:1020C00010FFFEFF11FFFEFFFFFFFE7FFFFFFC3F43
:1020D000FFFFF81FFFFFF043414D42494F204445A9
:1020E0002046494C414D454E544F00646574656E21
:1020F000676100696D707265736F7261207365004E
:10210000457370657265206120717565206C610092
:1021100043414D42494F2044452046494C414D459D
:102120004E544F004C696D7069616E646F20626F30
:102130007175696C6C61004573706572650043412F
:102140004D42494F2044452046494C414D454E544F
:102150004F007920636F6E74696E7565005072650B
:1021600073696F6E6520656C20626F746F6E0043DB
:10217000414D42494F2044452046494C414D454E32
:10218000544F005265746972616E646F2066696CA9
:10219000616D656E746F00457370657265004341D3
:1021A0004D42494F2044452046494C414D454E54EF
:1021B0004F0043617267616E646F2066696C616D88
:1021C000656E746F004573706572650043414D42E2
:1021D000494F2044452046494C414D454E544F00FF
:1021E0005265616E7564616E646F20696D707265B1
:1021F00073696F6E004573706572650043414D42AF
:10220000494F2044452046494C414D454E544F00CE
:102210005461726A65746120726574697261646187
:10222000005461726A65746120636F6C6F636164EE
:10223000610000060900FE0000000000010900081E
:10224000FE000005080806000040F0C8888898785D
:1022500010050808060000C0F88888888888F805F6
:1022600005050600012030F83020050808060000AA
:102270002070F820202020E00509090600FF2070CA
:10228000A8A8B8888870200509090600FFE080C06A
:10229000B0A8283028280509090600FFF8A8888872
:1022A000888888A8F8050A0A0600FE205050505079
:1022B00088A8A8887003030306000340A0407001AB
:1022C0002C0190012701B0012201C0011D01F00184
:1022D00018011002130130020E0160020901900280
:1022E0000401C002FF000003FA004003F500800370
:1022F000F000D003EB002004E6007004E100E004ED
:10230000DC004005D700C005D2004006CD00D00655
:10231000C8008007C3003008BE00F008B900C0093B
:10232000B400B00AAF00B00BAA00D00CA500000E9C
:10233000A000500F9B00C010960050129100001496
:102340008C00C0158700B0178200B0197D00D01B2B
:102350007800001E730040206E0090226900F02477
:10236000640040275F0090295A00E02B5500102E92
:10237000500020304B0010324600E03341009035D1
:102380003C001037370070383200A0392D00B03AC9
:102390002800A03B2300603C1E00103D1900903D2A
:1023A0001400103E0F00703E0A00C03E0500003FC2
:1023B000000050415241444120444520454D455282
:1023C000472E00202D20496E76616C696420657867
:1023D000747275646572206E756D6265722021007D
:1023E000C0159100B0178C00B0198700D01B820077
:1023F000001E7D004020780090227300F0246E00C3
:102400004027690090296400B02A5F00D02B5A0051
:10241000F02C5500102E500020304B00103246009A
:10242000E033410090353C001037370070383200FF
:10243000A0392D00B03A2800A03B2300603C1E00CC
:10244000103D1900903D1400103E0F00703E0A0030
:10245000C03E0500003F00004D494E54454D502000
:102460004552524F52004D494E54454D50207472C2
:1024700069676765726564004D494E54454D50204B
:10248000424544204552524F5200FFE0FFD1AFFF7A
:1024900032FFD0FFFEFFE0FFD1AEFFD0FFFEFFE036
:1024A000FFD11000FFFEFFD0FFE0FFC1FFD1AED58E
:1024B00080A83FD300408D142000A1C8DA1281CF3C
:1024C000D9F1DB402EA4A6AFFFD0FFFE204B643A2B
:1024D0002000204B693A2000204B703A20005049E0
:1024E00044204175746F74756E652066696E6973FA
:1024F000686564212050757420746865206C617370
:1025000074204B702C204B6920616E64204B64203A
:10251000636F6E7374616E74732066726F6D206189
:10252000626F766520696E746F20436F6E666967AF
:1025300075726174696F6E2E68206F722073656E9C
:102540006420636F6D6D616E64204D3530302066A0
:102550006F72207361766520696E20454550524F39
:102560004D20746865206E65772076616C756521F5
:1025700000504944204175746F74756E6520666122
:10258000696C6564212074696D656F7574005049CC
:1025900044204175746F74756E65206661696C6561
:1025A00064212054656D7065726174757265207464
:1025B0006F6F206C6F7700504944204175746F74C1
:1025C000756E65206661696C6564212054656D7067
:1025D0006572617475726520746F6F2068696768D1
:1025E00000204B643A2000204B693A2000204B70B9
:1025F0003A200020436C6173736963205049442082
:10260000002054753A2000204B753A2000206D615F
:10261000783A2000206D696E3A200020643A20004C
:1026200020626961733A2000204170706C792072D9
:102630006573756C7400204379636C65733A200090
:102640002054656D703A2000486F74656E643A20BE
:10265000004348414D4245520042454400504944E0
:10266000204175746F74756E6520737461727400A7
:10267000504944204175746F74756E6520666169B8
:102680006C656421204261642074656D70657261BF
:102690007475726520636F6E74726F6C6C657220F6
:1026A0006E756D626572002C2073797374656D2090
:1026B00073746F707065642120436F6F6C65720076
:1026C0002C2073797374656D2073746F70706564FA
:1026D00021204368616D626572002C2073797374E8
:1026E000656D2073746F70706564212042656400AD
:1026F0002C2073797374656D2073746F70706564CA
:1027000021204865617465725F49443A2000203A8F
:102710002073796E635F706C616E5F706F73697444
:10272000696F6E0A0063757272656E745F706F73A5
:102730006974696F6E3D00203A20636C65616E5F5D
:1027400075705F61667465725F656E6473746F70D7
:102750005F6F725F70726F62655F6D6F76650A00A2
:1027600063757272656E745F706F736974696F6E92
:102770003D003E3E3E20646F5F626C6F636B696E2E
:10278000675F6D6F76655F746F006465706C6F79FD
:102790003A2000203A207365745F70726F62655F43
:1027A0006465706C6F7965640A0063757272656E3A
:1027B000745F706F736974696F6E3D00203A203CDE
:1027C0003C3C20646F5F70726F62655F6D6F766511
:1027D0000A0063757272656E745F706F73697469F5
:1027E0006F6E3D00203A203E3E3E20646F5F707267
:1027F0006F62655F6D6F76650A0063757272656EF4
:10280000745F706F736974696F6E3D002042403A67
:102810000020403A00202F0020423A00202F0020C4
:10282000543A00203A2073657475705F666F725F6A
:10283000656E6473746F705F6F725F70726F6265E4
:102840005F6D6F76650A0063757272656E745F7096
:102850006F736974696F6E3D0020666972737400EE
:1028600059005800486F6D652000206669727374C6
:102870000059005800486F6D6520003C3C3C2067C3
:10288000636F64655F47323800203A204D424C2028
:10289000486F6D652058206F7220590A0063757269
:1028A00072656E745F706F736974696F6E3D00203E
:1028B0003A204D424C2052657374204F726967690B
:1028C0006E0A0063757272656E745F706F736974FF
:1028D000696F6E3D004D424C205A20686F6D696EE5
:1028E00067004D424C20686173206D65736800205D
:1028F0003A2028686F6D655F616C6C5F6178697301
:10290000207C7C20686F6D655A29203E2066696EA8
:10291000616C0A0063757272656E745F706F7369C3
:1029200074696F6E3D003C3C3C205A5F5341464504
:102930005F484F4D494E4700736F6E6461205A20C7
:10294000667565726100736F6E6461205A206675EA
:1029500065726100203A205A5F534146455F484FF7
:102960004D494E47203E20686F6D655F616C6C5F1E
:10297000617869730A0064657374696E6174696F64
:102980006E3D00203A205A5F534146455F484F4D07
:10299000494E47203E20686F6D655F616C6C5F61DA
:1029A0007869730A0063757272656E745F706F7315
:1029B0006974696F6E3D003E205A5F534146455F22
:1029C000484F4D494E47203E3E3E00203A20686F1A
:1029D0006D65590A0063757272656E745F706F730E
:1029E0006974696F6E3D00203A20686F6D65580A02
:1029F0000063757272656E745F706F736974696F6E
:102A00006E3D005261697365205A20286265666FC9
:102A1000726520686F6D696E672920746F20003EB3
:102A200020656E6473746F70732E656E61626C6581
:102A300028747275652900203A20536574205A2045
:102A4000746F207072655F686F6D655F7A0A0063EE
:102A5000757272656E745F706F736974696F6E3DC5
:102A6000004D424C20776173206163746976650084
:102A70003E3E3E2067636F64655F473238004D36E7
:102A8000303000494E445553545249412041524739
:102A9000454E54494E41007777772E6B75747465B7
:102AA0007263726166742E636F6D00504B332B45F9
:102AB0005854454E005620332E372E3000204D6F8F
:102AC00064656C6F3A0056657273696F6E3A001CEC
:102AD0003800000000000000001C7117DF7DE39E3D
:102AE00011F7C01CE111044114512901001DF91115
:102AF000044114114501001FC1110479E41E45E190
:102B0000001DF911044144147D01001CE111044130
:102B100024524501001C70E1047F13914501001C03
:102B20003800000000000000001C1DFFFFFFFFFF39
:102B3000FFFFF0000000000000000000007FFFFF2A
:102B4000FFFFFFFFFFFFC04D6F766572205A0056F2
:102B50006F6C76657200303100506F736963696F16
:102B60006E20303100303100303200506F736963B5
:102B7000696F6E20303200303200303300506F7396
:102B80006963696F6E203033003033003034005099
:102B90006F736963696F6E203034003034003035F4
:102BA00000506F736963696F6E20303500303500F7
:102BB000303600506F736963696F6E2030360030B5
:102BC0003600303700506F736963696F6E2030379D
:102BD00000303700303800506F736963696F6E20C2
:102BE0003038003038003039007FFCC00680028069
:102BF00002800280028002800280028002800280C5
:102C0000028002C0067FFC506F736963696F6E209B
:102C10003039003039007FFCFFFEFFFEFFFEFFFE73
:102C2000FFFEFFFEFFFEFFFEFFFEFFFEFFFEFFFEBC
:102C3000FFFE7FFC4D353030004D343230205330B4
:102C40000A4D353030004D3432302053310A4D3585
:102C50003030004D3530300001060A00FE070136E5
:102C6000026820FFFE08FE07FE0A00602217678048
:102C7000808080800080163363A0A0A00257675038
:102C800050F850F850500257672070A070287020FC
:102C900002576748A8502050A89002576740A0A04C
:102CA00040A8906826136380808012376720408098
:102CB00080804020123767804020202040800355CC
:102CC000658850F850880355652020F8202011337E
:102CD00063604080055161F811336340E040025762
:102CE0006708081020408080025767205088888835
:102CF00050200257672060A0202020F802576770FC
:102D00008808304080F8025767F80810300888704B
:102D100002576710305090F81010025767F880B0D3
:102D2000C8088870025767304080B0C88870025762
:102D300067F8081010204040025767708888708834
:102D4000887002576770889868081060113767406C
:102D5000E0400040E04011376740E04000604080C4
:102D600012476710204080402010045363F800F899
:102D700012476780402010204080025767708810FB
:102D800020200020025767708898A8B080700257F2
:102D90006720508888F88888025767F0484870484C
:102DA00048F002576770888080808870025767F00B
:102DB0004848484848F0025767F88080F08080F81B
:102DC000025767F88080F0808080025767708880A3
:102DD00080988870025767888888F88888881237B2
:102DE00067E04040404040E0025767381010101044
:102DF00090600257678890A0C0A0908802576780B3
:102E00008080808080F80257678888D8A888888862
:102E10000257678888C8A89888880257677088888A
:102E200088888870025767F08888F0808080015811
:102E3000687088888888A87008025767F08888F0CA
:102E4000A090880257677088807008887002576762
:102E5000F8202020202020025767888888888888CA
:102E600070025767888888505050200257678888BA
:102E700088A8A8D888025767888850205088880278
:102E8000576788885020202020025767F8081020B4
:102E90004080F8123767E08080808080E0025767CA
:102EA00080804020100808123767E0202020202072
:102EB000E0065363205088015161F8282262804067
:102EC00002556570087888780257678080B0C88896
:102ED000C8B0025565708880887002576708086816
:102EE000988898680255657088F880700257673036
:102EF0004840F040404000576778888878088870DC
:102F00000257678080B0C88888881237674000C041
:102F1000404040E01049691000301010109090605F
:102F200002576780808890E09088123767C04040E1
:102F3000404040E0025565D0A8A8A888025565B079
:102F4000C88888880255657088888870005767B07F
:102F5000C888C8B080800057676898889868080853
:102F6000025565B0C880808002556570807008F099
:102F70000257674040F040404830025565888888D5
:102F8000986802556588885050200255658888A841
:102F9000A850025565885020508800576788889847
:102FA00068088870025565F8102040F812476730AD
:102FB0004020C02040302217678080808080808041
:102FC000124767C02040304020C006536348A89095
:102FD000FFFFFFFFFFFFFFFFFFFFFFFFFFFFFFFF01
:102FE000FFFFFFFFFFFFFFFFFFFFFFFFFFFFFFFFF1
:102FF000FF0A006022176780008080808080015770
:10300000672078A0A0A07820025767304840E040B1
:1030100048B002556588705070880158688888509B
:1030200020F8202020221767808080008080800187
:1030300058687080E09048380870193161A00257D4
:10304000677088A8C8A888701346667090B0500052
:10305000F00265652448904824144262F01015413E
:1030600061F00257677088E8C8C88870095161F834
:1030700016336340A0400256662020F82020F81541
:10308000456560902040F0154565E0106010E0282F
:1030900022624080015666888888C8B080025767DF
:1030A00078E8E8682828282511618020226240807D
:1030B00015356540C04040E0134666609090600062
:1030C000F0026565904824489001696940C040401D
:1030D000E40C143C0401696940C04040E814040851
:1030E0001C015969C0204020C81828780802576779
:1030F000200020204088700258684020708888F89E
:1031000088880258681020708888F8888802586873
:103110002050708888F8888802586848B07088887D
:10312000F888880258685000708888F888880258A3
:10313000682050708888F888880267673C50909CA7
:10314000F0909C00596970888080808870204002CF
:10315000586840F88080F08080F802586810F88045
:1031600080F08080F802586820F88080F08080F835
:1031700002586850F88080F08080F81238688040EB
:10318000E040404040E01238682040E0404040408D
:10319000E012386840A0E040404040E0123868A0AB
:1031A00000E040404040E0025767F04848E84848A7
:1031B000F0025868285088C8A89888880258684043
:1031C00020708888888870025868102070888888E5
:1031D0008870025868205070888888887002586803
:1031E00028507088888888700258685000708888D5
:1031F00088887002556588502050880257677098FB
:1032000098A8C8C870025868402088888888887044
:103210000258681020888888888870025868205072
:103220000088888888700258685000888888888854
:10323000700258681020888850202020025767802C
:10324000F088F0808080025767708890A09088B0E6
:10325000025868402000700878887802586810206A
:1032600000700878887802586820500070087888C4
:10327000780258682850007008788878025767509C
:103280000070087888780258682050207008788884
:103290007802656578147C907C0057677088808818
:1032A0007020400258684020007088F880700258F2
:1032B000681020007088F8807002586820500070F4
:1032C00088F8807002576750007088F88070123854
:1032D00068804000C0404040E0123868408000C034
:1032E000404040E012386840A000C0404040E0123A
:1032F0003767A000C0404040E0025767C030708888
:10330000888870025868285000B0C8888888025899
:10331000684020007088888870025868102000700B
:1033200088888870025868205000708888887002E9
:10333000586828500070888888700257675000705D
:10334000888888700355652000F80020025565784C
:1033500098A8C8F0025868402000888888986802B9
:1033600058681020008888889868025868205000A3
:10337000888888986802576750008888889868000D
:10338000596910208888986808887000586880F00B
:10339000888888F08080005969500088889868087B
:1033A000887001050800FF060121023520FFFF0794
:1033B000FF06FF090050221656808080800080158D
:1033C0003353A0A0A00257575050F850F850500265
:1033D00057572070A07028702013355580A040A04A
:1033E0002002475740A0A040A0A050251353808042
:1033F00080122656408080808040122656804040B1
:103400004040800245559060F06090025555202064
:10341000F82020113353604080044151F0113353A0
:1034200040E0400246561010204080801236564040
:10343000A0A0A0A04012365640C0404040E0024646
:10344000566090106080F0024656F0206010906048
:103450000246562060A0F02020024656F080E01080
:1034600090600246566080E0909060024656F010F0
:103470002020404002465660906090906002465680
:10348000609090701060122555C0C000C0C0113609
:103490005660600060408012365620408080402098
:1034A000034353F000F01236568040202040801233
:1034B000365640A020400040015858304898A8A8EF
:1034C000904030024656609090F09090024656E050
:1034D00090E09090E00246566090808090600246B6
:1034E00056E090909090E0024656F080E08080F0A8
:1034F000024656F080E0808080024656609080B0A0
:1035000090600246569090F0909090123656E040AF
:10351000404040E002465670202020A0400246561F
:1035200090A0C0A0A0900246568080808080F002CB
:10353000465690F0F090909002465690D0F0B0B081
:1035400090024656609090909060024656E09090AF
:10355000E08080014757609090D0B06010024656DE
:10356000E09090E09090024656609040209060126B
:103570003656E04040404040024656909090909031
:1035800060024656909090906060024656909090EF
:10359000F0F09002465690906060909002565688E7
:1035A0008850202020024656F010204080F012362D
:1035B00056E080808080E0024656808040201010D7
:1035C000123656E020202020E016325240A0014161
:1035D00051F016225280400244547090907002467E
:1035E000568080E09090E012345460808060024603
:1035F0005610107090907002445460B0C060024643
:1036000056205040E04040014555609070106002E7
:1036100046568080E09090901236564000C0404060
:10362000E01137572000202020A04002465680801D
:1036300090E09090123656C040404040E002545412
:10364000D0A8A8A8024454E09090900244546090FE
:103650009060014555E090E0808001455570907084
:103660001010024454A0D0808012345460C020C096
:103670000246564040E040502002445490909070E2
:10368000123454A0A0A04002545488A8A850024468
:103690005490606090014555909070906002445441
:1036A000F02040F0024757304020C0204030221622
:1036B00056808080808080024757C0204030402064
:1036C000C006425250A0FFFFFFFFFFFFFFFFFFFFBA
:1036D000FFFFFFFFFFFFFFFFFFFFFFFFFFFFFFFFFA
:1036E000FFFFFFFFFFFFFF090050221656800080FA
:1036F0008080800146562070A0A07020024656208F
:1037000050E04050A00255558870507088025656BF
:103710008850F820F8202217578080800080808011
:103720000247577080E0907010E0173151A00256A8
:103730005670A8C8C8A87014355560A06000E00392
:10374000435350A050123353E02020143151E00273
:10375000565670E8D8E8D870173151E01533534009
:10376000A04012355540E04000E014355540A020FF
:1037700040E0143555C020C020C0162252408001C0
:103780004555909090E08002565678E8E8682828E1
:1037900024115180112252408014355540C04040C0
:1037A000E014355540A04000E0034353A050A00270
:1037B0004757808080A060F0200247578080A0D0CB
:1037C00010207002475780408060A0F020123656CB
:1037D00040004080A04002475740206090F0909009
:1037E00002475720406090F09090024757609060E9
:1037F00090F0909002475750A06090F09090024750
:103800005790006090F0909002475760906090F061
:10381000909002465670A0A0F0A0B001475760906B
:1038200080809060400247574020F080E080F002A6
:1038300047572040F080E080F00247576090F080CA
:10384000E080F00247579000F080E080F012375798
:103850008040E0404040E01237572040E040404088
:10386000E012375740A0E0404040E0123757A00038
:10387000E0404040E00256567048E8484870024731
:103880005750A090D0B09090024757402060909041
:1038900090600247572040609090906002475760C8
:1038A00090609090906002475750A0609090906018
:1038B00002475790006090909060123353A040A050
:1038C00002465670B0B0D0D0E002475740209090EA
:1038D0009090600247572040909090906002475728
:1038E00060909090909060024757900090909090D8
:1038F000600257571020885020202002465680E052
:103900009090E0800246566090A0A090A002475799
:1039100040200070909070024757204000709090B7
:10392000700247572050007090907002475750A087
:103930000070909070024656500070909070024750
:103940005760906070909070025454F068B0781195
:103950003555608080604002475740200060B0C00D
:103960006002475720400060B0C060024757609037
:103970000060B0C060024656500060B0C0601237B0
:1039800057804000C04040E0123757204000C04000
:1039900040E012375740A000C04040E0123656A029
:1039A00000C04040E0024757A040A0107090600265
:1039B000475750A000E09090900247574020006089
:1039C00090906002475720400060909060024757F7
:1039D0006090006090906002475750A00060909007
:1039E000600246569000609090601235554000E0AD
:1039F000004002445470B0D0E0024757402000908D
:103A00009090700247572040009090907002475766
:103A10006090009090907002465690009090907048
:103A20000148582040009090709060014757808076
:103A3000E090E0808001475790009090709060295E
:103A4000003C3C3C207365745F617869735F697307
:103A50005F61745F686F6D652800203A200A00631B
:103A6000757272656E745F706F736974696F6E3DA5
:103A7000005D203D2000686F6D655F6F6666736551
:103A8000745B007A70726F62655F7A6F66667365E9
:103A900074203D2000000000000000000000000035
:103AA0000029003E3E3E207365745F617869735F54
:103AB00069735F61745F686F6D6528005761726E2E
:103AC000696E673A20486F6D696E672042756D7048
:103AD0002044697669736F72203C20310029003CD4
:103AE0003C3C20686F6D656178697328003E20005A
:103AF000203A204146544552207365745F617869CD
:103B0000735F69735F61745F686F6D650A006375E9
:103B10007272656E745F706F736974696F6E3D0069
:103B20003E20326E6420486F6D6520003E20317368
:103B30007420486F6D652000000070430000A043B2
:103B40000000CD433E2000FFFFFF29003E3E3E2007
:103B5000686F6D65617869732800494E46004E4173
:103B60004E004D6F64656C6F203230313700566502
:103B70007273696F6E3A00436F6E66696775726142
:103B800063696F6E00417267656E74696E610049AA
:103B90006E64757374726961004B55545445524399
:103BA00052414654000000000F00000000000000D9
:103BB000198000000000000070E00000000000001C
:103BC000C6300000000000039F9C00000000000EB3
:103BD0003FC7000000000038FFF1C0000000006394
:103BE000FFFC6000000001CFFFFF38000000071F4E
:103BF000FFFF8E0000001C7FFFFFE380000031FF0D
:103C0000FFFFF8C00000E7FFFFFFFE7000038FFF1B
:103C1000FFFFFF1C000E3FFFFFFFFFC70018FE075E
:103C2000FFF007F18033FE07FFE00FFCC027FE071F
:103C3000FFC01FFE402FFE07FF803FFF402FFE0703
:103C4000FF007FFF402FFE07FF00FFFF402FFE0712
:103C5000FE01FFFF402FFE07FC00FFFF402FFE0785
:103C6000F8007FFF402FFE07F0003FFF402FFE07C8
:103C7000E000007F402FFE07C000007F402FFE07BE
:103C8000807FFFFF402FFE0700FFFFFF402FFE0653
:103C900001FFFFFF402FFE0403FFFFFF402FFE0048
:103CA00003FFFFFF402FFE0401FFFFFF402FFE0632
:103CB00000FFFFFF402FFE07007FFFFF402FFE07A2
:103CC0008000007F402FFE07C000007F402FFE07CE
:103CD000E0003FFF402FFE07F0007FFF402FFE0770
:103CE000F800FFFF402FFE07FC01FFFF402FFE07FB
:103CF000FE00FFFF402FFE07FF007FFF402FFE0763
:103D0000FF803FFF402FFE07FFC01FFF402FFE0731
:103D1000FFE00FFF4027FE07FFF007FE4033FE07DE
:103D2000FFF803FCC018FE07FFFC01F1800E3FFF07
:103D3000FFFFFFC700038FFFFFFFFF1C0000E7FF2F
:103D4000FFFFFE70000031FFFFFFF8C000001C7F86
:103D5000FFFFE3800000071FFFFF8E00000001CF80
:103D6000FFFF380000000063FFFC60000000003827
:103D7000FFF1C0000000000E3FC70000000000037C
:103D80009F9C000000000000C63000000000000002
:103D900070E000000000000019800000000000003A
:103DA0000F00000000000000000000000000000004
:103DB0000000000000000000000000000000000003
:103DC00000000000000000000000000000000000F3
:103DD00000000000000000000000000000000000E3
:103DE000000000496D7072696D69656E646F002036
:103DF0007364706F735F7361766500206E616D65CB
:103E0000534156450000446F6E6520736176696EBC
:103E1000672066696C652E006572726F722077721A
:103E20006974696E6720746F2066696C6500203A5A
:103E3000203C3C3C2072756E5F7A5F70726F6265E9
:103E40000A0063757272656E745F706F736974696E
:103E50006F6E3D000000A0400000A0400000004048
:103E6000203A203E3E3E2072756E5F7A5F70726F20
:103E700062650A0063757272656E745F706F736954
:103E800074696F6E3D003C3C3C2070726F62655FF0
:103E90007074003E20003E200029002C20003E20AF
:103EA000646F5F626C6F636B696E675F6D6F766581
:103EB0005F746F5F78792800203A200A006375727A
:103EC00072656E745F706F736974696F6E3D0029FF
:103ED000002C20002C20003E3E3E2070726F626558
:103EE0005F707428006F70656E206661696C656430
:103EF0002C2046696C653A200057726974696E67B8
:103F000020746F2066696C653A200043616E6E6FA5
:103F10007420656E746572207375626469723A20EC
:103F2000002900646F5F70726F62655F7261697310
:103F3000652800496E666F3A006F70656E20666195
:103F4000696C65642C2046696C653A200046696C92
:103F5000652073656C6563746564002053697A65D8
:103F60003A200046696C65206F70656E65643A2082
:103F7000004D353030005354415254205052494E78
:103F80005445523A002200656E7175657565696E1B
:103F90006720220053442063617264206F6B0053DA
:103FA0004420696E6974206661696C004572726FA5
:103FB000723A004739310A4731205A2D35302046B0
:103FC000323030300A4732380A4D31313720456AB5
:103FD00065205A20416C696E6561646F0047393114
:103FE0000A4731205A312046323030300A473930C2
:103FF000004732380A4739310A4731205A343020D5
:104000005834302046343030300A47393000416A65
:1040100075737465732064652063616D6100566F0C
:104020006C7665720050726564657465726D696E58
:1040300061646F004D31313720456E667269616E83
:10404000646F004D38340A204D313137204D6F7484
:104050006F72204170616761646F0056656C6F63B9
:1040600069646164006C612076656C6F636964618A
:10407000640053656C656363696F6E650076616C9F
:104080006F7220696E696369616C00426F71756956
:104090006C6C61006C612074656D70657261747523
:1040A00072610053656C656363696F6E650043619F
:1040B0006D612063616C69656E7465006C6120746C
:1040C000656D70657261747572610053656C6563CE
:1040D00063696F6E65004D333133004D3131370008
:1040E00046616E2064652063617061006C612076BA
:1040F000656C6F63696461640053656C65636369D3
:104100006F6E65003FFFF87FFFFCFFFFFEFFBBFE09
:10411000FE38FEFC387EF8383EF0381EF07C1EE09B
:10412000C60EFF83FEFF83FEFF83FEE0C60EF07C1B
:104130001EF0381EF8383EFC387EFE38FEFFBBFE0F
:10414000FFFFFE7FFFFC3FFFF83FFFF860000CC061
:10415000000680440281C70283C78287C7C28FC717
:10416000E28F83E29F39F2807C02807C02807C02B5
:104170009F39F28F83E28FC7E287C7C283C78281EC
:10418000C702804402C0000660000C3FFFF83FFFFA
:10419000F87FFFFCFFFFFEFFFFFEFFFFFEFFFFFEBD
:1041A000FFFFFEFDEF7EFEF7BEFEF7BEFDEF7EFBDE
:1041B000DEFEF7BDFEF7BDFEFBDEFEFDEF7EFFFF80
:1041C000FEF0001EF0001EFFFFFEFFFFFE7FFFFC63
:1041D0003FFFF83FFFF860000CC00006800002803F
:1041E0000002800002800002821082810842810861
:1041F0004282108284210288420288420284210283
:104200008210828000028FFFE28FFFE2800002C0F6
:10421000000660000C3FFFF854656D7065726174B4
:10422000757261007C3C3E5E2B3D3F2F5B5D3B2CFD
:104230002A225C00506F72206661766F722065736F
:1042400070657265004739310A47312045313520A4
:10425000463135300A4739300A4739310A4731206B
:10426000452D31303020463330300A4739300A4D41
:104270003834004739310A47312045313030204643
:104280003135300A4739300A4D383400416A757388
:1042900074652064652046696C616D656E746F009D
:1042A00043616C63756C616E646F2E2E2E005075C9
:1042B0006564652074617264617220756E6F73202D
:1042C0006D696E75746F7300416A757374616E64A5
:1042D0006F205049440043616C656E74616E646F79
:1042E0002E2E2E00506F72206661766F72206573DD
:1042F00070657265003FFFF87FFFFCFFFFFEFFFF68
:10430000FEFFFFFEFFFFFEFFFFFEFFFFFEE6DE6E8D
:10431000E6DE6EEADEAEEADEAEEADEAEECDECEEC85
:10432000C2CEFFFFFEFFFFFEFFFFFEFFFFFEFFFF0F
:10433000FEFFFFFE7FFFFC3FFFF83FFFF860000C31
:10434000C00006800002800002800002800002801F
:1043500000029921929921929521529521529521FD
:1043600052932132933D328000028000028000028D
:10437000800002800002C0000660000C3FFFF83F92
:10438000FFF87FFFFCFFFFFEFFFFFEFFFFFEFFFFCA
:10439000FEFFFFFEFFFFFEC2F176DEF776DEF7AE30
:1043A000C6F1DEDEF7AEDEF776DE1176FFFFFEFF4A
:1043B000FFFEFFFFFEFFFFFEFFFFFEFFFFFE7FFF92
:1043C000FC3FFFF83FFFF860000CC00006800002D1
:1043D000800002800002800002800002BD0E8AA1DF
:1043E000088AA10852B90E22A10852A1088AA1EE9A
:1043F0008A800002800002800002800002800002A9
:10440000C0000660000C3FFFF83FFFF87FFFFCFF95
:10441000FFFEFFFFFEFFFFFEFFFFFEFFFFFEFFFFB1
:10442000FEF38F1EEDB6FEEDB6FEE18F3EEDB7DE7C
:10443000EDB7DEED8E3EFFFFFEFFFFFEFFFFFEFF4E
:10444000FFFEFFFFFEFFFFFE7FFFFC3FFFF83FFF89
:10445000F860000CC00006800002800002800002AC
:104460008000028000028C70E29249029249029E12
:1044700070C29248229248229271C280000280004B
:1044800002800002800002800002C0000660000C72
:104490003FFFF83FFFF87FFFFCFFFFFEFFFFFEFF3F
:1044A000FFFEFFFFFEFFFFFEFFFFFEE3BF3EEDBE90
:1044B000DEEDBEDEE3BE1EEFBEDEEFBEDEEF86DE6D
:1044C000FFFFFEFFFFFEFFFFFEFFFFFEFFFFFEFF01
:1044D000FFFE7FFFFC3FFFF83FFFF860000CC000CD
:1044E000068000028000028000028000028000023C
:1044F0009C40C29241229241229C41E290412290F2
:104500004122907922800002800002800002800017
:1045100002800002C0000660000C3FFFF850726588
:1045200064657465726D696E61646F00457874725C
:1045300075736F723A006C612074656D706572619D
:10454000747572610053656C656363696F6E6500B5
:104550004731205A313520463430300A473238202E
:104560005A0A4731205A30004731205A31300A4721
:1045700032380A4D383400506F736963696F6E20AA
:10458000342064652034004731205A31300A4731E5
:104590002058313730205934302046323030300AFC
:1045A000473238205A0A4731205A3000506F736919
:1045B00063696F6E20332064652034004731205AD0
:1045C00031300A47312058343020593235302046B6
:1045D000323030300A473238205A0A4731205A30B8
:1045E000001FFFFFF03FFFFFF87FFFFFFCFFFFFF13
:1045F000FEFFF83FFEFFE00FFEFF8003FEF70381A2
:10460000FEF20FE0FEF01FF07EF03FF87EF07FFC40
:104610003EF03FFE3EF01FFE1EFFFFFF1EFFFFFFAE
:104620001EFFFFFF1EFFFFFE1EFFFFFE3EFFFFFC03
:104630003EFFFFF87EFF9FF07EFF0FE0FEFF03814D
:10464000FEFF8003FEFFE00FFEFFF83FFE7FFFFF4F
:10465000FC3FFFFFF81FFFFFF01FFFFFF0300000DF
:10466000186000000CC00000068007C002801FF028
:1046700002807FFC0288FC7E028DF01F028FE00F1B
:10468000828FC007828F8003C28FC001C28FE0017A
:10469000E2800000E2800000E2800000E280000191
:1046A000E2800001C2800003C28000078280600FA8
:1046B0008280F01F0280FC7E02807FFC02801FF05F
:1046C00002C007C0066000000C300000181FFFFF8A
:1046D000F0506F736963696F6E2032206465203417
:1046E000004731205A31300A4731205831373020C5
:1046F000593235302046323030300A473238205A6D
:104700000A4731205A3000506F736963696F6E2019
:104710003120646520340000002100240027002A95
:10472000002D003000330001010000040107010AE0
:104730000100002200250028002B002E003100344B
:104740000002010000050108010B01000020002308
:1047500000260029002C002F003200000100000379
:1047600001060109010505050507050808080802F5
:104770000202020A0A0808040404040101010101FA
:104780000101010303030303030303040707070CE9
:104790000C0C0C0C0C0C0C0202020206060606069F
:1047A0000606060B0B0B0B0B0B0B0B01021020204C
:1047B0000808102040102040800201020108040275
:1047C00001010204081020408080402010080402EB
:1047D0000180040201804020100804020108040244
:1047E000010102040810204080010204081020404A
:1047F0008000000A0B02090C0D0E080703040100DB
:1048000000000000000000000000000000000000A8
:104810000000000000000000000000000012111065
:104820000000000000000000000000000000000088
:10483000000000000000006E6F2065737461626C00
:10484000656369646173004572726F723A206361D7
:104850007061730043616E63656C61722063616DAA
:1048600062696F0043616D62696F20636170613AD4
:10487000200041686F726100456E20436170613AAB
:104880000043616D626961722066696C616D656E7D
:10489000746F00496E6963696F004D323100526573
:1048A000636172676172205461726A65746120533A
:1048B00064003FFFF87FFFFCFFFFFEFFFFFEFF00ED
:1048C0003EFE2ABEFCAABEF8AABEF8003EF8003E94
:1048D000F8103EF8383EF87C3EF8383EF8383EF89E
:1048E000383EF8003EF8003EF8003EF8003EFFFF7C
:1048F000FE7FFFFC3FFFF85461726A6574612053CC
:1049000064003FFFF87FFFFCFFFFFEFFFFFEFF009C
:104910003EFE2ABEFCAABEF8AABEF8003EF8003E43
:10492000F8003EF8003EF86C3EF88A3EF84A3EF841
:104930002A3EF8CC3EF8003EF8003EF8003EFFFF6D
:10494000FE7FFFFC3FFFF83FFFF860000CC0000651
:1049500080000280FFC281D542835542875542873D
:10496000FFC287FFC287EFC287C7C28783C287C7DC
:10497000C287C7C287C7C287FFC287C7C287FFC2B5
:1049800087FFC2C0000660000C3FFFF83FFFF860E1
:10499000000CC0000680000280FFC281D542835512
:1049A0004287554287FFC287FFC287FFC287FFC287
:1049B0008793C28775C287B5C287D5C28733C2873E
:1049C000FFC287FFC287FFC2C0000660000C3FFF26
:1049D000F8416A757374652064652046696C616D81
:1049E000656E746F0054656D706572617475726187
:1049F0000043616C6962726172004C6564204170B1
:104A000061676172004C6564205072656E64657206
:104A1000003FFFF860000CC01006803802807C0266
:104A200080FE028038028038028438428C00629F07
:104A300083F2BF83FA9F83F28C006284384280380D
:104A40000280380280FE02807C02803802C010069C
:104A500060000C3FFFF84D6F76657220656A6573E4
:104A6000003FFFF87FFFFCFFEFFEFFC7FEFF83FE66
:104A7000FF01FEFFC7FEFFC7FEFBC7BEF3FF9EE0C0
:104A80007C0EC07C06E07C0EF3FF9EFBC7BEFFC71A
:104A9000FEFFC7FEFF01FEFF83FEFFC7FEFFEFFE26
:104AA0007FFFFC3FFFF83FFFF860000CC00006806E
:104AB000000280000283FF828600C28501428438A2
:104AC00042844442848242849242848242844442A8
:104AD0008438428501428600C283FF8280000280C2
:104AE0000002C0000660000C3FFFF83FFFF87FFFA8
:104AF000FCFFFFFEFFFFFEFFFFFEFC007EF9FF3E16
:104B0000FAFEBEFBC7BEFBBBBEFB7DBEFB6DBEFBA4
:104B10007DBEFBBBBEFBC7BEFAFEBEF9FF3EFC007E
:104B20007EFFFFFEFFFFFEFFFFFE7FFFFC3FFFF863
:104B30003FFFF860000CC00006800002888F0285ED
:104B40001082821682851282889682801282801656
:104B500082801282801682802642804F22805FA24D
:104B6000804F22802042801F82800002C0000660A9
:104B7000000C3FFFF8456E6672696172003FFFF8F6
:104B80007FFFFCFFFFFEFFFFFEF770FEFAEF7EFDEA
:104B9000E97EFAED7EF7697EFFED7EFFE97EFFEDAF
:104BA0007EFFE97EFFD9BEFFB0DEFFA05EFFB0DE74
:104BB000FFDFBEFFE07EFFFFFEFFFFFE7FFFFC3F4B
:104BC000FFF83FFFF860000CC00006800002800E76
:104BD000028011028022028024428024A2802322AB
:104BE00080402280804281078282080284100288ED
:104BF00020028A4002888002870002800002C000F2
:104C00000660000C3FFFF8416A7573746573003FDE
:104C1000FFF87FFFFCFFFFFEFFFFFEFFF1FEFFEE50
:104C2000FEFFDDFEFFDBBEFFDB5EFFDCDEFFBFDE87
:104C3000FF7FBEFEF87EFDF7FEFBEFFEF7DFFEF521
:104C4000BFFEF77FFEF8FFFEFFFFFEFFFFFE7FFFC8
:104C5000FC3FFFF803E0000C9800180C00201A003D
:104C6000303E0040710040E10061C30041810040DE
:104C700001003006002002001FFC004361706173D8
:104C80003A005A00590020003F005800092000094E
:104C90002000092000092000462D2D3A2D2D00541A
:104CA0002D2D3A2D2D00462D2D3A2D2D0010410091
:104CB000082080082080104100208200410400412B
:104CC0000400208200104100000000FFFFC0FFFF31
:104CD000C0104100208200410400410400208200F5
:104CE000104100082080082080104100000000FFD3
:104CF000FFC0FFFFC000E00000E00000E00003F89C
:104D00000007FFC007FEC007FC4007FEC007FFC04A
:104D100001F00000E00000400000E00000E00000C2
:104D2000E00003F80007FFC007FFC007FFC007FF50
:104D3000C007FFC001F00000E0000040003FFF009E
:104D4000700380E619C0CF3CC09F3E40BF3F40BECD
:104D50001F409CCE4081E04081E0409CCE40BE1F81
:104D600040BF3F409F3E40CF3CC0E619C07003802B
:104D70003FFF003FFF00700380E3F1C0C3F0C0813C
:104D8000E04080C040B00340B8C740BDEF40BDEF39
:104D900040B8C740B0034080C04081E040C3F0C08D
:104DA000E3F1C07003803FFF004D313034205430B8
:104DB0002053313930004D313034205430205332BB
:104DC0003330004D313034205430205332313000F4
:104DD0004D313034205430205332343000473120AC
:104DE0005A31300A47312058343020593430204667
:104DF000323030300A473238205A0A4731205A3090
:104E000000FFFFFFFFFFFFFFFFFFFFFFFFE080004E
:104E10000000000000000000000020B1C71C71C7A6
:104E20001C71C71C71C71C20A38E38E38E38E38E1B
:104E300038E38E38A0871C71C71C71C71C71C71C52
:104E400071A080000000000000000000000020FFB2
:104E5000FFFFFFFFFFFFFFFFFFFFFFE0FFFFFFFF81
:104E6000FFFFFFFFFFFFFFFFE080000000000000EA
:104E70000000000000208E38E38E38E38E38E38E89
:104E800038E3A09C71C71C71C71C71C71C71C72077
:104E9000B8E38E38E38E38E38E38E38E208000004E
:104EA00000000000000000000020FFFFFFFFFFFFE8
:104EB000FFFFFFFFFFFFE0506F72206661766F72A9
:104EC000206573706572650047323800436F6E74F9
:104ED000696E756172001FFFFFF03FFFFFF87FFFF3
:104EE000FFFCFFFFFFFEFE7FFFFEFE7FC0FEF99F7F
:104EF000DEFEF99FD2FEFE7FDAFEFE63D2FEFFC326
:104F0000DAFEFFCFD2FEFFCFDAFEFFCFD2FEFFC325
:104F1000DAFEFFE3927EFFFF333EFFFE619EFFFE5F
:104F2000C0DEFFFE805EFFFEC0DEFFFE619EFFFF73
:104F3000333EFFFF9E7EFFFFC0FEFFFFFFFEFFFF31
:104F4000FFFE7FFFFFFC3FFFFFF81FFFFFF01FFF8B
:104F5000FFF0300000186000000CC00000068180E7
:104F6000000281803F028660210286602D028180DE
:104F70002502819C2D02803C250280302D0280304C
:104F8000250280302D02803C2502801C6D8280002D
:104F9000CCC280019E6280013F2280017FA28001FD
:104FA0003F2280019E628000CCC28000618280002E
:104FB0003F0280000002C00000066000000C3000CC
:104FC00000181FFFFFF01FFFFFF03FFFFFF87FFFFC
:104FD000FFFCFFFFFFFEFFFFFFFEF8E3C0FEF8430C
:104FE000DEFEF803D2FEFC47DAFEFEEFD2FEFC47FF
:104FF000DAFEF803D2FEF843DAFEF8E3D2FEFFFF52
:10500000DAFEFFFF927EFFFF333EFFFE619EFFFE52
:10501000C0DEFFFE805EFFFEC0DEFFFE619EFFFF82
:10502000333EFFFF9E7EFFFFC0FEFFFFFFFEFFFF40
:10503000FFFE7FFFFFFC3FFFFFF81FFFFFF01FFF9A
:10504000FFF0300000186000000CC0000006800077
:105050000002871C3F0287BC210287FC2D0283B817
:10506000250281102D0283B8250287FC2D0287BC02
:105070002502871C2D028000250280006D828000A1
:10508000CCC280019E6280013F2280017FA280010C
:105090003F2280019E628000CCC28000618280003D
:1050A0003F0280000002C00000066000000C3000DB
:1050B00000181FFFFFF054656D70657261747572A2
:1050C00061004D6F7665722059004D6F76657220D4
:1050D0005A004D6F7665722058003FFFF87FFFFC45
:1050E000FFFFFEFFFFFEFFFFFEFE00FEFE00FEFED6
:1050F0007FFEFE7FFEFE7FFEFE3FFEFF01FEFF8085
:10510000FEFFF8FEFFFCFEFFF8FEFE01FEFE03FEC2
:10511000FFFFFEFFFFFEFFFFFE7FFFFC3FFFF83FAC
:10512000FFF860000CC0000680000280000281FFD2
:105130000281FF0281800281800281800281C0029F
:1051400080FE02807F0280070280030280070281C6
:10515000FE0281FC02800002800002C000066000A6
:105160000C3FFFF83FFFF87FFFFCFFFFFEFFFFFE55
:10517000FFFFFEFFC7FEFF87FEFF07FEFE27FEFEC6
:1051800067FEFFE7FEFFE7FEFFE7FEFFE7FEFFE744
:10519000FEFFE7FEFF81FEFF81FEFFFFFEFFFFFE39
:1051A000FFFFFE7FFFFC3FFFF83FFFF860000CC0F1
:1051B000000680000280000280380280780280F8B9
:1051C0000281D80281980280180280180280180299
:1051D000801802801802801802807E02807E028081
:1051E0000002800002C0000660000C3FFFF83FFF95
:1051F000F87FFFFCFFFFFEFFFFFEFFFFFEF87E3E95
:10520000F03C3EE3183EE7913EE7933EE79F3EE7E2
:105210009F3EE79F3EE79F3EE79F3EE31F3EF03CF9
:105220000EF86C0EFFFFFEFFFFFEFFFFFE7FFFFC90
:105230003FFFF83FFFF860000CC0000680000280CE
:1052400000028781C28FC3C29CE7C2986EC2986C6D
:10525000C29860C29860C29860C29860C29860C2EA
:105260009CE0C28FC3F28793F2800002800002C0EC
:10527000000660000C3FFFF84D6F76657220656A8E
:105280006573004D6F76657220656A6573004732FD
:10529000380047323820580047323820590047320A
:1052A00038205A003FFFF87FFFFCFFFFFEFFFFFEA4
:1052B000F8003EF8003EFFFE3EFFFC7EFFF8FEFFDA
:1052C000F1FEFFE3FEFFC7FEFF8FFEFF1FFEFE3F66
:1052D000FEFC7FFEF8FFFEF8003EF8003EFFFFFEFA
:1052E000FFFFFE7FFFFC3FFFF83FFFF860000CC0B0
:1052F000000680000287FFC287FFC28001C28003D0
:1053000082800702800E02801C02803802807002B8
:1053100080E00281C00283800287000287FFC2878B
:10532000FFC2800002C0000660000C3FFFF83FFF94
:10533000F87FFFFCFFFFFEFFFFFEF9FF3EF9FF3E97
:10534000F8FE3EF8FE3EFC7C7EFE38FEFF11FEFFBE
:1053500083FEFFC7FEFFC7FEFFC7FEFFC7FEFFC7F6
:10536000FEFFC7FEFFC7FEFFFFFEFFFFFE7FFFFC45
:105370003FFFF83FFFF860000CC000068000028687
:1053800000C28600C28701C28701C283838281C7AF
:105390000280EE02807C028038028038028038026F
:1053A000803802803802803802803802800002C0D3
:1053B000000660000C3FFFF83FFFF87FFFFCFFFF97
:1053C000FEFFFFFEF0FE1EF87C3EFC7C7EFC387E7D
:1053D000FE10FEFF01FEFF83FEFFC7FEFF83FEFF00
:1053E00001FEFE10FEFE38FEFC7C7EF87C3EF0FEE8
:1053F0001EFFFFFEFFFFFE7FFFFC3FFFF83FFFF8B1
:1054000060000CC000068000028F01E28783C28327
:10541000838283C78281EF0280FE02807C02803813
:1054200002807C0280FE0281EF0281C702838382B8
:105430008783C28F01E2800002C0000660000C3F3B
:10544000FFF8416A757374652064652046696C6174
:105450006D656E746F001FFFFFF03FFFFFF87FFF69
:10546000FFFCFFFFFFFEFFF01FFEFFE7CC7EFFC843
:10547000257EFF93917EFF27C97EFE4FE47EFC9F31
:10548000F27EF93FF93EF27FFC9EF4FFFE5EF0FFF4
:10549000FE1EFEFFFEFEFEFFFEFEFEF81EFEFEFBF3
:1054A000DEFEFEFBDEFEFEFBDEFEFEFBDEFEFEFBA8
:1054B000DEFEFEFBDEFEFEFBDEFEFE0000FEFFFF6C
:1054C000FFFE7FFFFFFC3FFFFFF81FFFFFF01FFF06
:1054D000FFF0300000186000000CC0000006800FD4
:1054E000E002801833828037DA82806C6E8280D846
:1054F000368281B01B8283600D8286C006C28D8099
:1055000003628B0001A28F0001E281000102810091
:1055100001028107E1028104210281042102810448
:1055200021028104210281042102810421028104DB
:10553000210281FFFF02C00000066000000C300065
:1055400000181FFFFFF01FFFFFF03FFFFFF87FFF76
:10555000FFFCFFFFFFFEFFFEFFFEFFFC7FFEFFF8EC
:105560003FFEFFF01FFEFFFC7FFEFFFC7FFEFFFC07
:105570007FFEFFFC7FFEFEFFFEFEFCFFFE7EF80FBF
:10558000E03EF00FE01EF80FE03EFCFFFE7EFEFF67
:10559000FEFEFFFC7FFEFFFC7FFEFFFC7FFEFFFCAC
:1055A0007FFEFFF01FFEFFF83FFEFFFC7FFEFFFEC9
:1055B000FFFE7FFFFFFC3FFFFFF81FFFFFF01FFF15
:1055C000FFF0300000186000000CC00000068001F1
:1055D0000002800380028007C002800FE002800387
:1055E00080028003800280038002800380028100A9
:1055F00001028300018287F01FC28FF01FE287F053
:105600001FC28300018281000102800380028003A7
:1056100080028003800280038002800FE002800706
:10562000C00280038002C00100066000000C300050
:1056300000181FFFFFF04D6F76657220656A657375
:105640000000060900FE070192032120FFFF08FF6A
:1056500007FF000000060000010707060200808027
:105660008080800080030202060105A0A0050707D4
:105670000600005050F850F850500507070600008B
:105680002078A07028F020050707060000C0C81089
:10569000204098180507070600006090A040A890D9
:1056A00068020303060104C04080030707060100E7
:1056B00020408080804020030707060100804020B2
:1056C0002020408005050506000120A870A82005BF
:1056D00005050600012020F820200203030602FF32
:1056E000C04080050101060003F802020206020024
:1056F000C0C0050505060001081020408005070709
:1057000006000070888888888870030707060100F3
:1057100040C040404040E005070706000070880890
:10572000708080F8050707060000F81020100808B0
:10573000F005070706000010305090F8101005071C
:1057400007060000F880F0080888700507070600C3
:1057500000708080F0888870050707060000F80850
:105760001020202020050707060000708888708818
:10577000887005070706000070888878080870029E
:105780000505060200C0C000C0C00206060602FFF2
:10579000C0C000C040800407070600001020408001
:1057A000402010050303060002F800F8040707066E
:1057B000010080402010204080050707060000708F
:1057C0008808102000200507070600007088086878
:1057D000A8A870050707060000708888F8888888E0
:1057E000050707060000F08888F08888F00507079D
:1057F000060000708880808088700507070600001A
:10580000F08888888888F0050707060000F88080FF
:10581000F08080F8050707060000F88080F080809F
:1058200080050707060000708880B8888870050723
:1058300007060000888888F888888801070706021C
:105840000080808080808080050707060000381077
:1058500010101090600507070600008890A0C0A0F7
:105860009088050707060000808080808080F8050A
:10587000070706000088D8A88888888805070706D3
:1058800000008888C8A89888880507070600007067
:10589000888888888870050707060000F08888F0E7
:1058A00080808005070706000070888888A89068B7
:1058B000050707060000F08888F0A0908805070714
:1058C000060000788080700808F0050707060000D1
:1058D000F82020202020200507070600008888885F
:1058E000888888700507070600008888888888509F
:1058F000200507070600008888888888A8500507C3
:105900000706000088885020508888050707060091
:105910000088888850202020050707060000F80826
:1059200010204080F8030707060100E08080808097
:1059300080E00505050600018040201008030707E8
:10594000060100E02020202020E0050303060004DB
:10595000205088050101060000F802020206020537
:10596000804005050506000070087888780507075F
:105970000600008080B0C88888F005050506000094
:1059800070808088700507070600000808689888FE
:1059900088780505050600007088F88070050707FF
:1059A0000600003048E0404040400506060600FF83
:1059B0007088887808700507070600008080B0C8E6
:1059C0008888880107070602008000808080808028
:1059D0000308080601FF200020202020A040040723
:1059E00007060000808090A0C0A090030707060172
:1059F00000C04040404040E0050505060000D0A83A
:105A0000A8A8A8050505060000B0C888888805056F
:105A10000506000070888888700506060600FFF0FD
:105A20008888F080800506060600FF788888780858
:105A300008050505060000B0C8808080050505063C
:105A4000000070807008F00407070600004040E086
:105A500040404030050505060000888888986805A4
:105A60000505060000888888502005050506000009
:105A70008888A8A850050505060000885020508891
:105A80000506060600FF8888887808700505050663
:105A90000000F8102040F8030707060100204040EE
:105AA00080404020010707060200808080808080BF
:105AB0008003070706010080404020404080050227
:105AC00002060002689000000006000000000006C8
:105AD00000000000000600000000000600000000BA
